{
  "contractName": "DiceMarket",
  "abi": [
    {
      "inputs": [
        {
          "internalType": "contract Dice",
          "name": "diceAddress",
          "type": "address"
        },
        {
          "internalType": "uint256",
          "name": "fee",
          "type": "uint256"
        }
      ],
      "payable": false,
      "stateMutability": "nonpayable",
      "type": "constructor"
    },
    {
      "anonymous": false,
      "inputs": [
        {
          "indexed": false,
          "internalType": "uint256",
          "name": "id",
          "type": "uint256"
        }
      ],
      "name": "diceBought",
      "type": "event"
    },
    {
      "anonymous": false,
      "inputs": [
        {
          "indexed": false,
          "internalType": "uint256",
          "name": "id",
          "type": "uint256"
        },
        {
          "indexed": false,
          "internalType": "uint256",
          "name": "price",
          "type": "uint256"
        }
      ],
      "name": "diceListed",
      "type": "event"
    },
    {
      "anonymous": false,
      "inputs": [
        {
          "indexed": false,
          "internalType": "uint256",
          "name": "id",
          "type": "uint256"
        }
      ],
      "name": "diceUnlisted",
      "type": "event"
    },
    {
      "constant": true,
      "inputs": [],
      "name": "comissionFee",
      "outputs": [
        {
          "internalType": "uint256",
          "name": "",
          "type": "uint256"
        }
      ],
      "payable": false,
      "stateMutability": "view",
      "type": "function"
    },
    {
      "constant": false,
      "inputs": [
        {
          "internalType": "uint256",
          "name": "id",
          "type": "uint256"
        },
        {
          "internalType": "uint256",
          "name": "price",
          "type": "uint256"
        }
      ],
      "name": "list",
      "outputs": [],
      "payable": false,
      "stateMutability": "nonpayable",
      "type": "function"
    },
    {
      "constant": false,
      "inputs": [
        {
          "internalType": "uint256",
          "name": "id",
          "type": "uint256"
        }
      ],
      "name": "unlist",
      "outputs": [],
      "payable": false,
      "stateMutability": "nonpayable",
      "type": "function"
    },
    {
      "constant": true,
      "inputs": [
        {
          "internalType": "uint256",
          "name": "id",
          "type": "uint256"
        }
      ],
      "name": "checkPrice",
      "outputs": [
        {
          "internalType": "uint256",
          "name": "",
          "type": "uint256"
        }
      ],
      "payable": false,
      "stateMutability": "view",
      "type": "function"
    },
    {
      "constant": false,
      "inputs": [
        {
          "internalType": "uint256",
          "name": "id",
          "type": "uint256"
        }
      ],
      "name": "buy",
      "outputs": [],
      "payable": true,
      "stateMutability": "payable",
      "type": "function"
    },
    {
      "constant": true,
      "inputs": [],
      "name": "getContractOwner",
      "outputs": [
        {
          "internalType": "address",
          "name": "",
          "type": "address"
        }
      ],
      "payable": false,
      "stateMutability": "view",
      "type": "function"
    },
    {
      "constant": false,
      "inputs": [],
      "name": "withDraw",
      "outputs": [],
      "payable": false,
      "stateMutability": "nonpayable",
      "type": "function"
    }
  ],
  "bytecode": "0x608060405233600260006101000a81548173ffffffffffffffffffffffffffffffffffffffff021916908373ffffffffffffffffffffffffffffffffffffffff16021790555034801561005157600080fd5b50604051610b92380380610b928339818101604052604081101561007457600080fd5b810190808051906020019092919080519060200190929190505050816000806101000a81548173ffffffffffffffffffffffffffffffffffffffff021916908373ffffffffffffffffffffffffffffffffffffffff160217905550806001819055505050610aab806100e76000396000f3fe6080604052600436106100705760003560e01c806350fd73671161004e57806350fd736714610132578063741a759114610177578063bf5a4dd3146101a2578063d96a094a146101dd57610070565b80630fdb1c10146100755780631de7463a1461008c578063442890d5146100db575b600080fd5b34801561008157600080fd5b5061008a61020b565b005b34801561009857600080fd5b506100c5600480360360208110156100af57600080fd5b81019080803590602001909291905050506102ab565b6040518082815260200191505060405180910390f35b3480156100e757600080fd5b506100f06102c8565b604051808273ffffffffffffffffffffffffffffffffffffffff1673ffffffffffffffffffffffffffffffffffffffff16815260200191505060405180910390f35b34801561013e57600080fd5b506101756004803603604081101561015557600080fd5b8101908080359060200190929190803590602001909291905050506102f2565b005b34801561018357600080fd5b5061018c6105c0565b6040518082815260200191505060405180910390f35b3480156101ae57600080fd5b506101db600480360360208110156101c557600080fd5b81019080803590602001909291905050506105c6565b005b610209600480360360208110156101f357600080fd5b8101908080359060200190929190505050610766565b005b600260009054906101000a900473ffffffffffffffffffffffffffffffffffffffff1673ffffffffffffffffffffffffffffffffffffffff163373ffffffffffffffffffffffffffffffffffffffff1614156102a9573373ffffffffffffffffffffffffffffffffffffffff166108fc479081150290604051600060405180830381858888f193505050501580156102a7573d6000803e3d6000fd5b505b565b600060036000838152602001908152602001600020549050919050565b6000600260009054906101000a900473ffffffffffffffffffffffffffffffffffffffff16905090565b6001546000809054906101000a900473ffffffffffffffffffffffffffffffffffffffff1673ffffffffffffffffffffffffffffffffffffffff1663a819604c846040518263ffffffff1660e01b81526004018082815260200191505060206040518083038186803b15801561036757600080fd5b505afa15801561037b573d6000803e3d6000fd5b505050506040513d602081101561039157600080fd5b810190808051906020019092919050505001811015610418576040517f08c379a00000000000000000000000000000000000000000000000000000000081526004018080602001828103825260208152602001807f5072696365206e6565647320746f206265203e3d2076616c7565202b2066656581525060200191505060405180910390fd5b6000809054906101000a900473ffffffffffffffffffffffffffffffffffffffff1673ffffffffffffffffffffffffffffffffffffffff1663f2d03fcf836040518263ffffffff1660e01b81526004018082815260200191505060206040518083038186803b15801561048a57600080fd5b505afa15801561049e573d6000803e3d6000fd5b505050506040513d60208110156104b457600080fd5b810190808051906020019092919050505073ffffffffffffffffffffffffffffffffffffffff163373ffffffffffffffffffffffffffffffffffffffff1614610565576040517f08c379a000000000000000000000000000000000000000000000000000000000815260040180806020018281038252601c8152602001807f4f6e6c79206f776e65722063616e206c6973742074686520646963650000000081525060200191505060405180910390fd5b8060036000848152602001908152602001600020819055507f9c3e8ce623b4fb8528166f9c5729f4e551180050fc8260d11e886fd3905e8d608282604051808381526020018281526020019250505060405180910390a15050565b60015481565b6000809054906101000a900473ffffffffffffffffffffffffffffffffffffffff1673ffffffffffffffffffffffffffffffffffffffff1663f2d03fcf826040518263ffffffff1660e01b81526004018082815260200191505060206040518083038186803b15801561063857600080fd5b505afa15801561064c573d6000803e3d6000fd5b505050506040513d602081101561066257600080fd5b810190808051906020019092919050505073ffffffffffffffffffffffffffffffffffffffff163373ffffffffffffffffffffffffffffffffffffffff1614610713576040517f08c379a000000000000000000000000000000000000000000000000000000000815260040180806020018281038252601e8152602001807f4f6e6c79206f776e65722063616e20756e6c697374207468652064696365000081525060200191505060405180910390fd5b600060036000838152602001908152602001600020819055507f380abbe9763223bbef44baadd824f7918a77314cea32543b13ccfdab640ee364816040518082815260200191505060405180910390a150565b6000600360008381526020019081526020016000205414156107f0576040517f08c379a00000000000000000000000000000000000000000000000000000000081526004018080602001828103825260128152602001807f44696365206973206e6f74204c6973746564000000000000000000000000000081525060200191505060405180910390fd5b600360008281526020019081526020016000205434101561085c576040517f08c379a0000000000000000000000000000000000000000000000000000000008152600401808060200182810382526023815260200180610a546023913960400191505060405180910390fd5b60008060009054906101000a900473ffffffffffffffffffffffffffffffffffffffff1673ffffffffffffffffffffffffffffffffffffffff1663f2d03fcf836040518263ffffffff1660e01b81526004018082815260200191505060206040518083038186803b1580156108d057600080fd5b505afa1580156108e4573d6000803e3d6000fd5b505050506040513d60208110156108fa57600080fd5b810190808051906020019092919050505090508073ffffffffffffffffffffffffffffffffffffffff166108fc60015434039081150290604051600060405180830381858888f19350505050158015610957573d6000803e3d6000fd5b506000809054906101000a900473ffffffffffffffffffffffffffffffffffffffff1673ffffffffffffffffffffffffffffffffffffffff1663b7760c8f83336040518363ffffffff1660e01b8152600401808381526020018273ffffffffffffffffffffffffffffffffffffffff1673ffffffffffffffffffffffffffffffffffffffff16815260200192505050600060405180830381600087803b158015610a0057600080fd5b505af1158015610a14573d6000803e3d6000fd5b505050507f63526de121abb024c9778f4862b4848b288ced7da8e552a222cb43cef5a9b4b0826040518082815260200191505060405180910390a1505056fe427579207072696365206e6565647320746f206265203e3d206c697374207072696365a265627a7a723158209b97e270b4eb2809d18f7c485ca813d78cffaf063f3c1bcc37fb0a754a718b9c64736f6c63430005110032",
  "source": "pragma solidity ^0.5.0;\nimport \"./Dice.sol\";\n\ncontract DiceMarket {\n\n    Dice diceContract;\n    uint256 public comissionFee;\n    address _owner = msg.sender;\n    mapping(uint256 => uint256) listPrice;\n     constructor(Dice diceAddress, uint256 fee) public {\n        diceContract = diceAddress;\n        comissionFee = fee;\n    }\n    \n    event diceListed (uint256 id, uint256 price);\n    event diceUnlisted (uint256 id);\n    event diceBought (uint256 id);\n\n    //list a dice for sale. Price needs to be >= value + fee\n    function list(uint256 id, uint256 price) public {\n       require(price >= (diceContract.getDiceValue(id) + comissionFee), \"Price needs to be >= value + fee\");\n       require(msg.sender == diceContract.getPrevOwner(id), \"Only owner can list the dice\");\n       listPrice[id] = price;\n       emit diceListed(id, price);\n    }\n\n    function unlist(uint256 id) public {\n       require(msg.sender == diceContract.getPrevOwner(id), \"Only owner can unlist the dice\");\n       listPrice[id] = 0;\n       emit diceUnlisted(id);\n  }\n\n    // get price of dice\n    function checkPrice(uint256 id) public view returns (uint256) {\n       return listPrice[id];\n }\n\n    // Buy the dice at the requested price\n    function buy(uint256 id) public payable {\n       require(listPrice[id] != 0, \"Dice is not Listed\"); //is listed\n       require(msg.value >= listPrice[id], \"Buy price needs to be >= list price\");\n       address payable recipient = address(uint160(diceContract.getPrevOwner(id)));\n       recipient.transfer(msg.value - comissionFee);    //transfer (price-comissionFee) to real owner\n       diceContract.transfer(id, msg.sender);\n       emit diceBought(id);\n    }\n\n    function getContractOwner() public view returns(address) {\n       return _owner;\n    }\n\n    function withDraw() public {\n        if(msg.sender == _owner)\n            msg.sender.transfer(address(this).balance);\n    }\n\n}\n",
  "sourcePath": "C:\\Users\\Bransome Tan Yi Hao\\OneDrive - National University of Singapore\\Desktop\\IS4302\\is4302-project\\contracts\\DiceMarket.sol",
  "compiler": {
    "name": "solc",
    "version": "0.5.17+commit.d19bba13.Emscripten.clang"
  },
  "schemaVersion": "3.4.16",
  "updatedAt": "2024-04-01T16:26:00.461Z",
  "devdoc": {
    "methods": {}
  },
  "userdoc": {
    "methods": {}
  }
}