{
  "contractName": "Dice",
  "abi": [
    {
      "anonymous": false,
      "inputs": [
        {
          "indexed": false,
          "internalType": "uint256",
          "name": "diceId",
          "type": "uint256"
        }
      ],
      "name": "luckytimesEvent",
      "type": "event"
    },
    {
      "anonymous": false,
      "inputs": [
        {
          "indexed": false,
          "internalType": "uint256",
          "name": "diceId",
          "type": "uint256"
        },
        {
          "indexed": false,
          "internalType": "uint8",
          "name": "newNumber",
          "type": "uint8"
        }
      ],
      "name": "rolled",
      "type": "event"
    },
    {
      "anonymous": false,
      "inputs": [
        {
          "indexed": false,
          "internalType": "uint256",
          "name": "diceId",
          "type": "uint256"
        }
      ],
      "name": "rolling",
      "type": "event"
    },
    {
      "anonymous": false,
      "inputs": [
        {
          "indexed": false,
          "internalType": "uint256",
          "name": "diceId",
          "type": "uint256"
        },
        {
          "indexed": false,
          "internalType": "address",
          "name": "newOwner",
          "type": "address"
        }
      ],
      "name": "transferOwner",
      "type": "event"
    },
    {
      "constant": true,
      "inputs": [
        {
          "internalType": "uint256",
          "name": "",
          "type": "uint256"
        }
      ],
      "name": "dices",
      "outputs": [
        {
          "internalType": "uint8",
          "name": "numberOfSides",
          "type": "uint8"
        },
        {
          "internalType": "uint8",
          "name": "color",
          "type": "uint8"
        },
        {
          "internalType": "uint8",
          "name": "currentNumber",
          "type": "uint8"
        },
        {
          "internalType": "enum Dice.diceState",
          "name": "state",
          "type": "uint8"
        },
        {
          "internalType": "uint256",
          "name": "creationValue",
          "type": "uint256"
        },
        {
          "internalType": "address",
          "name": "owner",
          "type": "address"
        },
        {
          "internalType": "address",
          "name": "prevOwner",
          "type": "address"
        },
        {
          "internalType": "uint256",
          "name": "luckyTimes",
          "type": "uint256"
        }
      ],
      "payable": false,
      "stateMutability": "view",
      "type": "function"
    },
    {
      "constant": true,
      "inputs": [],
      "name": "numDices",
      "outputs": [
        {
          "internalType": "uint256",
          "name": "",
          "type": "uint256"
        }
      ],
      "payable": false,
      "stateMutability": "view",
      "type": "function"
    },
    {
      "constant": false,
      "inputs": [
        {
          "internalType": "uint8",
          "name": "numberOfSides",
          "type": "uint8"
        },
        {
          "internalType": "uint8",
          "name": "color",
          "type": "uint8"
        }
      ],
      "name": "add",
      "outputs": [
        {
          "internalType": "uint256",
          "name": "",
          "type": "uint256"
        }
      ],
      "payable": true,
      "stateMutability": "payable",
      "type": "function"
    },
    {
      "constant": false,
      "inputs": [
        {
          "internalType": "uint256",
          "name": "diceId",
          "type": "uint256"
        }
      ],
      "name": "roll",
      "outputs": [],
      "payable": false,
      "stateMutability": "nonpayable",
      "type": "function"
    },
    {
      "constant": false,
      "inputs": [
        {
          "internalType": "uint256",
          "name": "diceId",
          "type": "uint256"
        }
      ],
      "name": "stopRoll",
      "outputs": [],
      "payable": false,
      "stateMutability": "nonpayable",
      "type": "function"
    },
    {
      "constant": false,
      "inputs": [
        {
          "internalType": "uint256",
          "name": "diceId",
          "type": "uint256"
        },
        {
          "internalType": "address",
          "name": "newOwner",
          "type": "address"
        }
      ],
      "name": "transfer",
      "outputs": [],
      "payable": false,
      "stateMutability": "nonpayable",
      "type": "function"
    },
    {
      "constant": true,
      "inputs": [
        {
          "internalType": "uint256",
          "name": "diceId",
          "type": "uint256"
        }
      ],
      "name": "getDiceSides",
      "outputs": [
        {
          "internalType": "uint8",
          "name": "",
          "type": "uint8"
        }
      ],
      "payable": false,
      "stateMutability": "view",
      "type": "function"
    },
    {
      "constant": true,
      "inputs": [
        {
          "internalType": "uint256",
          "name": "diceId",
          "type": "uint256"
        }
      ],
      "name": "getDiceNumber",
      "outputs": [
        {
          "internalType": "uint8",
          "name": "",
          "type": "uint8"
        }
      ],
      "payable": false,
      "stateMutability": "view",
      "type": "function"
    },
    {
      "constant": true,
      "inputs": [
        {
          "internalType": "uint256",
          "name": "diceId",
          "type": "uint256"
        }
      ],
      "name": "getDiceValue",
      "outputs": [
        {
          "internalType": "uint256",
          "name": "",
          "type": "uint256"
        }
      ],
      "payable": false,
      "stateMutability": "view",
      "type": "function"
    },
    {
      "constant": true,
      "inputs": [
        {
          "internalType": "uint256",
          "name": "diceId",
          "type": "uint256"
        }
      ],
      "name": "getLuckyTimes",
      "outputs": [
        {
          "internalType": "uint256",
          "name": "",
          "type": "uint256"
        }
      ],
      "payable": false,
      "stateMutability": "view",
      "type": "function"
    },
    {
      "constant": false,
      "inputs": [
        {
          "internalType": "uint256",
          "name": "diceId",
          "type": "uint256"
        }
      ],
      "name": "destroyDice",
      "outputs": [],
      "payable": false,
      "stateMutability": "nonpayable",
      "type": "function"
    },
    {
      "constant": true,
      "inputs": [
        {
          "internalType": "uint256",
          "name": "diceId",
          "type": "uint256"
        }
      ],
      "name": "getPrevOwner",
      "outputs": [
        {
          "internalType": "address",
          "name": "",
          "type": "address"
        }
      ],
      "payable": false,
      "stateMutability": "view",
      "type": "function"
    }
  ],
  "bytecode": "0x60806040526000805534801561001457600080fd5b506110d0806100246000396000f3fe6080604052600436106100a75760003560e01c8063a98c5b7111610064578063a98c5b71146102f3578063b7760c8f14610348578063bb4e3f4d146103a3578063de2271fe146103f5578063ee2fa39c14610420578063f2d03fcf14610475576100a7565b80631e76dcdd146100ac5780631f7b4f30146100e757806329265db0146101225780638c8f53a41461015d578063912475ba146101ac578063a819604c146102a4575b600080fd5b3480156100b857600080fd5b506100e5600480360360208110156100cf57600080fd5b81019080803590602001909291905050506104f0565b005b3480156100f357600080fd5b506101206004803603602081101561010a57600080fd5b81019080803590602001909291905050506106f7565b005b34801561012e57600080fd5b5061015b6004803603602081101561014557600080fd5b8101908080359060200190929190505050610818565b005b34801561016957600080fd5b506101966004803603602081101561018057600080fd5b81019080803590602001909291905050506109c2565b6040518082815260200191505060405180910390f35b3480156101b857600080fd5b506101e5600480360360208110156101cf57600080fd5b81019080803590602001909291905050506109f2565b604051808960ff1660ff1681526020018860ff1660ff1681526020018760ff1660ff16815260200186600181111561021957fe5b60ff1681526020018581526020018473ffffffffffffffffffffffffffffffffffffffff1673ffffffffffffffffffffffffffffffffffffffff1681526020018373ffffffffffffffffffffffffffffffffffffffff1673ffffffffffffffffffffffffffffffffffffffff1681526020018281526020019850505050505050505060405180910390f35b3480156102b057600080fd5b506102dd600480360360208110156102c757600080fd5b8101908080359060200190929190505050610aae565b6040518082815260200191505060405180910390f35b3480156102ff57600080fd5b5061032c6004803603602081101561031657600080fd5b8101908080359060200190929190505050610ade565b604051808260ff1660ff16815260200191505060405180910390f35b34801561035457600080fd5b506103a16004803603604081101561036b57600080fd5b8101908080359060200190929190803573ffffffffffffffffffffffffffffffffffffffff169060200190929190505050610b1b565b005b6103df600480360360408110156103b957600080fd5b81019080803560ff169060200190929190803560ff169060200190929190505050610cea565b6040518082815260200191505060405180910390f35b34801561040157600080fd5b5061040a610f54565b6040518082815260200191505060405180910390f35b34801561042c57600080fd5b506104596004803603602081101561044357600080fd5b8101908080359060200190929190505050610f5a565b604051808260ff1660ff16815260200191505060405180910390f35b34801561048157600080fd5b506104ae6004803603602081101561049857600080fd5b8101908080359060200190929190505050610f97565b604051808273ffffffffffffffffffffffffffffffffffffffff1673ffffffffffffffffffffffffffffffffffffffff16815260200191505060405180910390f35b803373ffffffffffffffffffffffffffffffffffffffff166001600083815260200190815260200160002060020160009054906101000a900473ffffffffffffffffffffffffffffffffffffffff1673ffffffffffffffffffffffffffffffffffffffff161461055f57600080fd5b81600054811061056e57600080fd5b60006001600085815260200190815260200160002060000160036101000a81548160ff021916908360018111156105a157fe5b02179055506000600180600086815260200190815260200160002060000160009054906101000a900460ff1660ff16600186014202816105dd57fe5b06019050806001600086815260200190815260200160002060000160026101000a81548160ff021916908360ff1602179055506001600085815260200190815260200160002060000160009054906101000a900460ff1660ff168160ff1614156106ac576001806000868152602001908152602001600020600401540160016000868152602001908152602001600020600401819055507f2352c307370c87494ff4d210aed715fb1369dd065db4eb1de29183e96c2af4ec846040518082815260200191505060405180910390a15b7ffca7e5ead94c99a33f4db0e5e7ed5266f833f73d27b83852ab0429662c60f5bf8482604051808381526020018260ff1660ff1681526020019250505060405180910390a150505050565b803373ffffffffffffffffffffffffffffffffffffffff166001600083815260200190815260200160002060020160009054906101000a900473ffffffffffffffffffffffffffffffffffffffff1673ffffffffffffffffffffffffffffffffffffffff161461076657600080fd5b81600054811061077557600080fd5b600180600085815260200190815260200160002060000160036101000a81548160ff021916908360018111156107a757fe5b021790555060006001600085815260200190815260200160002060000160026101000a81548160ff021916908360ff1602179055507f168812357336ee7b54afff4280d17ba364831e5c2d0eb5a3fa2d2634e5e77a86836040518082815260200191505060405180910390a1505050565b803373ffffffffffffffffffffffffffffffffffffffff166001600083815260200190815260200160002060020160009054906101000a900473ffffffffffffffffffffffffffffffffffffffff1673ffffffffffffffffffffffffffffffffffffffff161461088757600080fd5b81600054811061089657600080fd5b60006001600085815260200190815260200160002060010154905060016000858152602001908152602001600020600080820160006101000a81549060ff02191690556000820160016101000a81549060ff02191690556000820160026101000a81549060ff02191690556000820160036101000a81549060ff021916905560018201600090556002820160006101000a81549073ffffffffffffffffffffffffffffffffffffffff02191690556003820160006101000a81549073ffffffffffffffffffffffffffffffffffffffff0219169055600482016000905550503373ffffffffffffffffffffffffffffffffffffffff166108fc829081150290604051600060405180830381858888f193505050501580156109bb573d6000803e3d6000fd5b5050505050565b60008160005481106109d357600080fd5b6001600084815260200190815260200160002060040154915050919050565b60016020528060005260406000206000915090508060000160009054906101000a900460ff16908060000160019054906101000a900460ff16908060000160029054906101000a900460ff16908060000160039054906101000a900460ff16908060010154908060020160009054906101000a900473ffffffffffffffffffffffffffffffffffffffff16908060030160009054906101000a900473ffffffffffffffffffffffffffffffffffffffff16908060040154905088565b6000816000548110610abf57600080fd5b6001600084815260200190815260200160002060010154915050919050565b6000816000548110610aef57600080fd5b6001600084815260200190815260200160002060000160029054906101000a900460ff16915050919050565b813373ffffffffffffffffffffffffffffffffffffffff166001600083815260200190815260200160002060020160009054906101000a900473ffffffffffffffffffffffffffffffffffffffff1673ffffffffffffffffffffffffffffffffffffffff1614610b8a57600080fd5b826000548110610b9957600080fd5b6001600085815260200190815260200160002060020160009054906101000a900473ffffffffffffffffffffffffffffffffffffffff166001600086815260200190815260200160002060030160006101000a81548173ffffffffffffffffffffffffffffffffffffffff021916908373ffffffffffffffffffffffffffffffffffffffff160217905550826001600086815260200190815260200160002060020160006101000a81548173ffffffffffffffffffffffffffffffffffffffff021916908373ffffffffffffffffffffffffffffffffffffffff1602179055507f1ebe85bad3559e992a1af6e2f66d6ba57c988995e85df12a06f1c8577cd467608484604051808381526020018273ffffffffffffffffffffffffffffffffffffffff1673ffffffffffffffffffffffffffffffffffffffff1681526020019250505060405180910390a150505050565b6000808360ff1611610cfb57600080fd5b662386f26fc100003411610d5a576040517f08c379a000000000000000000000000000000000000000000000000000000000815260040180806020018281038252602f81526020018061106d602f913960400191505060405180910390fd5b610d62610fe7565b6040518061010001604052808560ff1681526020018460ff16815260200160018660ff164281610d8e57fe5b060160ff16815260200160006001811115610da557fe5b81526020013481526020013373ffffffffffffffffffffffffffffffffffffffff168152602001600073ffffffffffffffffffffffffffffffffffffffff168152602001600081525090506000806000815480929190600101919050559050816001600083815260200190815260200160002060008201518160000160006101000a81548160ff021916908360ff16021790555060208201518160000160016101000a81548160ff021916908360ff16021790555060408201518160000160026101000a81548160ff021916908360ff16021790555060608201518160000160036101000a81548160ff02191690836001811115610e9f57fe5b02179055506080820151816001015560a08201518160020160006101000a81548173ffffffffffffffffffffffffffffffffffffffff021916908373ffffffffffffffffffffffffffffffffffffffff16021790555060c08201518160030160006101000a81548173ffffffffffffffffffffffffffffffffffffffff021916908373ffffffffffffffffffffffffffffffffffffffff16021790555060e08201518160040155905050809250505092915050565b60005481565b6000816000548110610f6b57600080fd5b6001600084815260200190815260200160002060000160009054906101000a900460ff16915050919050565b6000816000548110610fa857600080fd5b6001600084815260200190815260200160002060030160009054906101000a900473ffffffffffffffffffffffffffffffffffffffff16915050919050565b604051806101000160405280600060ff168152602001600060ff168152602001600060ff1681526020016000600181111561101e57fe5b815260200160008152602001600073ffffffffffffffffffffffffffffffffffffffff168152602001600073ffffffffffffffffffffffffffffffffffffffff16815260200160008152509056fe6174206c6561737420302e303120455448206973206e656564656420746f20737061776e2061206e65772064696365a265627a7a72315820c180e5a00c5b0290916baea953c032a9a8b76ac187cb221b12da8b2eeb22229e64736f6c63430005110032",
  "source": "pragma solidity ^0.5.0;\n\ncontract Dice {\n    \n    enum diceState { stationary, rolling }\n    \n    struct dice {\n        uint8 numberOfSides;\n        uint8 color;\n        uint8 currentNumber;\n        diceState state;\n        uint256 creationValue;\n        address owner;\n        address prevOwner;\n        uint256 luckyTimes; // Ex1\n    }\n    \n    event rolling (uint256 diceId);\n    event rolled (uint256 diceId, uint8 newNumber);\n    event luckytimesEvent (uint256 diceId);\n    event transferOwner (uint256 diceId, address newOwner);\n    \n    uint256 public numDices = 0;\n    mapping(uint256 => dice) public dices;\n\n    //function to create a new dice, and add to 'dices' map. requires at least 0.01ETH to create\n    function add(\n        uint8 numberOfSides,\n        uint8 color\n    ) public payable returns(uint256) {\n        require(numberOfSides > 0);\n        require(msg.value > 0.01 ether, \"at least 0.01 ETH is needed to spawn a new dice\");\n        \n        //new dice object\n        dice memory newDice = dice(\n            numberOfSides,\n            color,\n            (uint8)(block.timestamp % numberOfSides) + 1,  //non-secure random number\n            diceState.stationary,\n            msg.value,\n            msg.sender,  //owner\n            address(0),\n            0 // Ex1\n        );\n        \n        uint256 newDiceId = numDices++;\n        dices[newDiceId] = newDice; //commit to state variable\n        return newDiceId;   //return new diceId\n    }\n\n    //modifier to ensure a function is callable only by its owner    \n    modifier ownerOnly(uint256 diceId) {\n        require(dices[diceId].owner == msg.sender);\n        _;\n    }\n    \n    modifier validDiceId(uint256 diceId) {\n        require(diceId < numDices);\n        _;\n    }\n\n    //owner can roll a dice    \n    function roll(uint256 diceId) public ownerOnly(diceId) validDiceId(diceId) {\n            dices[diceId].state = diceState.rolling;    //set state to rolling\n            dices[diceId].currentNumber = 0;    //number will become 0 while rolling\n            emit rolling(diceId);   //emit rolling event\n    }\n\n    function stopRoll(uint256 diceId) public ownerOnly(diceId) validDiceId(diceId) {\n            dices[diceId].state = diceState.stationary; //set state to stationary\n            \n            //this is not a secure randomization\n            uint8 newNumber = (uint8)((block.timestamp*(diceId+1)) % dices[diceId].numberOfSides) + 1;\n            dices[diceId].currentNumber = newNumber;\n\n            // LUCKY TIMES\n            if (newNumber == dices[diceId].numberOfSides) {\n                dices[diceId].luckyTimes = dices[diceId].luckyTimes + 1;\n                emit luckytimesEvent(diceId);\n            }\n            emit rolled(diceId, newNumber); //emit rolled\n    }\n    \n    //transfer ownership to new owner\n    function transfer(uint256 diceId, address newOwner) public ownerOnly(diceId) validDiceId(diceId) {\n        dices[diceId].prevOwner = dices[diceId].owner;\n        dices[diceId].owner = newOwner;\n        emit transferOwner(diceId, newOwner);\n    }\n\n    //get number of sides of dice    \n    function getDiceSides(uint256 diceId) public view validDiceId(diceId) returns (uint8) {\n        return dices[diceId].numberOfSides;\n    }\n\n    //get current dice number\n    function getDiceNumber(uint256 diceId) public view validDiceId(diceId) returns (uint8) {\n        return dices[diceId].currentNumber;\n    }\n\n    //get ether put in during creation\n    function getDiceValue(uint256 diceId) public view validDiceId(diceId) returns (uint256) {\n        return dices[diceId].creationValue;\n    }\n\n    //Ex1 Get luckyTimes\n    function getLuckyTimes(uint256 diceId) public view validDiceId(diceId) returns (uint256) {\n        return dices[diceId].luckyTimes;\n    }\n\n    //Ex 1 Destroy Dice\n    function destroyDice(uint256 diceId) public ownerOnly(diceId) validDiceId(diceId) {\n        uint256 value = dices[diceId].creationValue;\n        delete dices[diceId]; // Remove from mapping\n        msg.sender.transfer(value); // Return value\n    }\n    \n    function getPrevOwner(uint256 diceId) public view validDiceId(diceId) returns (address) {\n        return dices[diceId].prevOwner;\n    }\n}\n",
  "sourcePath": "C:\\Users\\Bransome Tan Yi Hao\\OneDrive - National University of Singapore\\Desktop\\IS4302\\is4302-project\\contracts\\Dice.sol",
  "compiler": {
    "name": "solc",
    "version": "0.5.17+commit.d19bba13.Emscripten.clang"
  },
  "schemaVersion": "3.4.16",
  "updatedAt": "2024-04-01T16:26:03.745Z",
  "networkType": "ethereum",
  "devdoc": {
    "methods": {}
  },
  "userdoc": {
    "methods": {}
  }
}