{
  "contractName": "DiceBattle",
  "abi": [
    {
      "inputs": [
        {
          "internalType": "contract Dice",
          "name": "diceAddress",
          "type": "address"
        }
      ],
      "payable": false,
      "stateMutability": "nonpayable",
      "type": "constructor"
    },
    {
      "anonymous": false,
      "inputs": [
        {
          "indexed": false,
          "internalType": "address",
          "name": "enemy",
          "type": "address"
        }
      ],
      "name": "add_enemy",
      "type": "event"
    },
    {
      "anonymous": false,
      "inputs": [
        {
          "indexed": false,
          "internalType": "uint256",
          "name": "id1",
          "type": "uint256"
        },
        {
          "indexed": false,
          "internalType": "uint256",
          "name": "id2",
          "type": "uint256"
        }
      ],
      "name": "battleDraw",
      "type": "event"
    },
    {
      "anonymous": false,
      "inputs": [
        {
          "indexed": false,
          "internalType": "uint256",
          "name": "id1",
          "type": "uint256"
        },
        {
          "indexed": false,
          "internalType": "uint256",
          "name": "id2",
          "type": "uint256"
        }
      ],
      "name": "battlewin",
      "type": "event"
    },
    {
      "constant": false,
      "inputs": [
        {
          "internalType": "address",
          "name": "enemy",
          "type": "address"
        }
      ],
      "name": "setBattlePair",
      "outputs": [],
      "payable": false,
      "stateMutability": "nonpayable",
      "type": "function"
    },
    {
      "constant": false,
      "inputs": [
        {
          "internalType": "uint256",
          "name": "myDice",
          "type": "uint256"
        },
        {
          "internalType": "uint256",
          "name": "enemyDice",
          "type": "uint256"
        }
      ],
      "name": "battle",
      "outputs": [],
      "payable": false,
      "stateMutability": "nonpayable",
      "type": "function"
    }
  ],
  "bytecode": "0x608060405234801561001057600080fd5b5060405161129e38038061129e8339818101604052602081101561003357600080fd5b8101908080519060200190929190505050806000806101000a81548173ffffffffffffffffffffffffffffffffffffffff021916908373ffffffffffffffffffffffffffffffffffffffff1602179055505061120a806100946000396000f3fe608060405234801561001057600080fd5b50600436106100365760003560e01c80632a0c52211461003b578063bc8c1ee714610073575b600080fd5b6100716004803603604081101561005157600080fd5b8101908080359060200190929190803590602001909291905050506100b7565b005b6100b56004803603602081101561008957600080fd5b81019080803573ffffffffffffffffffffffffffffffffffffffff1690602001909291905050506110f1565b005b60008060009054906101000a900473ffffffffffffffffffffffffffffffffffffffff1673ffffffffffffffffffffffffffffffffffffffff1663f2d03fcf846040518263ffffffff1660e01b81526004018082815260200191505060206040518083038186803b15801561012b57600080fd5b505afa15801561013f573d6000803e3d6000fd5b505050506040513d602081101561015557600080fd5b8101908080519060200190929190505050905060008060009054906101000a900473ffffffffffffffffffffffffffffffffffffffff1673ffffffffffffffffffffffffffffffffffffffff1663f2d03fcf846040518263ffffffff1660e01b81526004018082815260200191505060206040518083038186803b1580156101dc57600080fd5b505afa1580156101f0573d6000803e3d6000fd5b505050506040513d602081101561020657600080fd5b810190808051906020019092919050505090508073ffffffffffffffffffffffffffffffffffffffff16600160008473ffffffffffffffffffffffffffffffffffffffff1673ffffffffffffffffffffffffffffffffffffffff16815260200190815260200160002060009054906101000a900473ffffffffffffffffffffffffffffffffffffffff1673ffffffffffffffffffffffffffffffffffffffff1614610319576040517f08c379a000000000000000000000000000000000000000000000000000000000815260040180806020018281038252600f8152602001807f4e6f742076616c6964207061697221000000000000000000000000000000000081525060200191505060405180910390fd5b8173ffffffffffffffffffffffffffffffffffffffff16600160008373ffffffffffffffffffffffffffffffffffffffff1673ffffffffffffffffffffffffffffffffffffffff16815260200190815260200160002060009054906101000a900473ffffffffffffffffffffffffffffffffffffffff1673ffffffffffffffffffffffffffffffffffffffff1614610419576040517f08c379a000000000000000000000000000000000000000000000000000000000815260040180806020018281038252600f8152602001807f4e6f742076616c6964207061697221000000000000000000000000000000000081525060200191505060405180910390fd5b6000809054906101000a900473ffffffffffffffffffffffffffffffffffffffff1673ffffffffffffffffffffffffffffffffffffffff16631f7b4f30856040518263ffffffff1660e01b815260040180828152602001915050600060405180830381600087803b15801561048d57600080fd5b505af11580156104a1573d6000803e3d6000fd5b505050506000809054906101000a900473ffffffffffffffffffffffffffffffffffffffff1673ffffffffffffffffffffffffffffffffffffffff16631e76dcdd856040518263ffffffff1660e01b815260040180828152602001915050600060405180830381600087803b15801561051957600080fd5b505af115801561052d573d6000803e3d6000fd5b505050506000809054906101000a900473ffffffffffffffffffffffffffffffffffffffff1673ffffffffffffffffffffffffffffffffffffffff16631f7b4f30846040518263ffffffff1660e01b815260040180828152602001915050600060405180830381600087803b1580156105a557600080fd5b505af11580156105b9573d6000803e3d6000fd5b505050506000809054906101000a900473ffffffffffffffffffffffffffffffffffffffff1673ffffffffffffffffffffffffffffffffffffffff16631e76dcdd846040518263ffffffff1660e01b815260040180828152602001915050600060405180830381600087803b15801561063157600080fd5b505af1158015610645573d6000803e3d6000fd5b505050506000809054906101000a900473ffffffffffffffffffffffffffffffffffffffff1673ffffffffffffffffffffffffffffffffffffffff1663a98c5b71846040518263ffffffff1660e01b81526004018082815260200191505060206040518083038186803b1580156106bb57600080fd5b505afa1580156106cf573d6000803e3d6000fd5b505050506040513d60208110156106e557600080fd5b810190808051906020019092919050505060ff166000809054906101000a900473ffffffffffffffffffffffffffffffffffffffff1673ffffffffffffffffffffffffffffffffffffffff1663a98c5b71866040518263ffffffff1660e01b81526004018082815260200191505060206040518083038186803b15801561076b57600080fd5b505afa15801561077f573d6000803e3d6000fd5b505050506040513d602081101561079557600080fd5b810190808051906020019092919050505060ff161115610ac7576000809054906101000a900473ffffffffffffffffffffffffffffffffffffffff1673ffffffffffffffffffffffffffffffffffffffff1663b7760c8f856000809054906101000a900473ffffffffffffffffffffffffffffffffffffffff1673ffffffffffffffffffffffffffffffffffffffff1663f2d03fcf876040518263ffffffff1660e01b81526004018082815260200191505060206040518083038186803b15801561085f57600080fd5b505afa158015610873573d6000803e3d6000fd5b505050506040513d602081101561088957600080fd5b81019080805190602001909291905050506040518363ffffffff1660e01b8152600401808381526020018273ffffffffffffffffffffffffffffffffffffffff1673ffffffffffffffffffffffffffffffffffffffff16815260200192505050600060405180830381600087803b15801561090357600080fd5b505af1158015610917573d6000803e3d6000fd5b505050506000809054906101000a900473ffffffffffffffffffffffffffffffffffffffff1673ffffffffffffffffffffffffffffffffffffffff1663b7760c8f846000809054906101000a900473ffffffffffffffffffffffffffffffffffffffff1673ffffffffffffffffffffffffffffffffffffffff1663f2d03fcf876040518263ffffffff1660e01b81526004018082815260200191505060206040518083038186803b1580156109cb57600080fd5b505afa1580156109df573d6000803e3d6000fd5b505050506040513d60208110156109f557600080fd5b81019080805190602001909291905050506040518363ffffffff1660e01b8152600401808381526020018273ffffffffffffffffffffffffffffffffffffffff1673ffffffffffffffffffffffffffffffffffffffff16815260200192505050600060405180830381600087803b158015610a6f57600080fd5b505af1158015610a83573d6000803e3d6000fd5b505050507fc2267b77fc5e8f75164e18937156243c0c617346d1a70e2cd9c804f14872bee58484604051808381526020018281526020019250505060405180910390a15b6000809054906101000a900473ffffffffffffffffffffffffffffffffffffffff1673ffffffffffffffffffffffffffffffffffffffff1663a98c5b71846040518263ffffffff1660e01b81526004018082815260200191505060206040518083038186803b158015610b3957600080fd5b505afa158015610b4d573d6000803e3d6000fd5b505050506040513d6020811015610b6357600080fd5b810190808051906020019092919050505060ff166000809054906101000a900473ffffffffffffffffffffffffffffffffffffffff1673ffffffffffffffffffffffffffffffffffffffff1663a98c5b71866040518263ffffffff1660e01b81526004018082815260200191505060206040518083038186803b158015610be957600080fd5b505afa158015610bfd573d6000803e3d6000fd5b505050506040513d6020811015610c1357600080fd5b810190808051906020019092919050505060ff161015610f45576000809054906101000a900473ffffffffffffffffffffffffffffffffffffffff1673ffffffffffffffffffffffffffffffffffffffff1663b7760c8f846000809054906101000a900473ffffffffffffffffffffffffffffffffffffffff1673ffffffffffffffffffffffffffffffffffffffff1663f2d03fcf886040518263ffffffff1660e01b81526004018082815260200191505060206040518083038186803b158015610cdd57600080fd5b505afa158015610cf1573d6000803e3d6000fd5b505050506040513d6020811015610d0757600080fd5b81019080805190602001909291905050506040518363ffffffff1660e01b8152600401808381526020018273ffffffffffffffffffffffffffffffffffffffff1673ffffffffffffffffffffffffffffffffffffffff16815260200192505050600060405180830381600087803b158015610d8157600080fd5b505af1158015610d95573d6000803e3d6000fd5b505050506000809054906101000a900473ffffffffffffffffffffffffffffffffffffffff1673ffffffffffffffffffffffffffffffffffffffff1663b7760c8f856000809054906101000a900473ffffffffffffffffffffffffffffffffffffffff1673ffffffffffffffffffffffffffffffffffffffff1663f2d03fcf886040518263ffffffff1660e01b81526004018082815260200191505060206040518083038186803b158015610e4957600080fd5b505afa158015610e5d573d6000803e3d6000fd5b505050506040513d6020811015610e7357600080fd5b81019080805190602001909291905050506040518363ffffffff1660e01b8152600401808381526020018273ffffffffffffffffffffffffffffffffffffffff1673ffffffffffffffffffffffffffffffffffffffff16815260200192505050600060405180830381600087803b158015610eed57600080fd5b505af1158015610f01573d6000803e3d6000fd5b505050507fc2267b77fc5e8f75164e18937156243c0c617346d1a70e2cd9c804f14872bee58385604051808381526020018281526020019250505060405180910390a15b6000809054906101000a900473ffffffffffffffffffffffffffffffffffffffff1673ffffffffffffffffffffffffffffffffffffffff1663a98c5b71846040518263ffffffff1660e01b81526004018082815260200191505060206040518083038186803b158015610fb757600080fd5b505afa158015610fcb573d6000803e3d6000fd5b505050506040513d6020811015610fe157600080fd5b810190808051906020019092919050505060ff166000809054906101000a900473ffffffffffffffffffffffffffffffffffffffff1673ffffffffffffffffffffffffffffffffffffffff1663a98c5b71866040518263ffffffff1660e01b81526004018082815260200191505060206040518083038186803b15801561106757600080fd5b505afa15801561107b573d6000803e3d6000fd5b505050506040513d602081101561109157600080fd5b810190808051906020019092919050505060ff1614156110eb577ff9f3f9f974abd92da34cad64679308739d89b21de31bbd9bcb8de3fad1a8227e8484604051808381526020018281526020019250505060405180910390a15b50505050565b80600160003373ffffffffffffffffffffffffffffffffffffffff1673ffffffffffffffffffffffffffffffffffffffff16815260200190815260200160002060006101000a81548173ffffffffffffffffffffffffffffffffffffffff021916908373ffffffffffffffffffffffffffffffffffffffff1602179055507f35e9f25e19eea2e90d16215ec900874265c5e6c376acea396932076c559f035a81604051808273ffffffffffffffffffffffffffffffffffffffff1673ffffffffffffffffffffffffffffffffffffffff16815260200191505060405180910390a15056fea265627a7a723158203331de611372d132d052bfb265bf3f18b481e3f2199fdcaa0ea3c592c04bc6fc64736f6c63430005110032",
  "source": "pragma solidity ^0.5.0;\r\nimport \"./Dice.sol\";\r\n\r\ncontract DiceBattle {\r\n    Dice diceContract;\r\n    mapping(address => address) battle_pair;\r\n\r\n    constructor(Dice diceAddress) public {\r\n        diceContract = diceAddress;\r\n    }\r\n    event add_enemy(address enemy);\r\n    event battlewin(uint256 id1, uint256 id2);\r\n    event battleDraw(uint256 id1, uint256 id2);\r\n\r\n    function setBattlePair(address enemy) public {\r\n        battle_pair[msg.sender] = enemy;\r\n        emit add_enemy(enemy);\r\n    }\r\n\r\n    function battle(uint256 myDice, uint256 enemyDice) public {\r\n        // Require that battle_pairs align, ie each player has accepted a battle with the other\r\n        address mine = diceContract.getPrevOwner(myDice);\r\n        address enemy = diceContract.getPrevOwner(enemyDice);\r\n\r\n        require(battle_pair[mine] == enemy, \"Not valid pair!\");\r\n        require(battle_pair[enemy] == mine, \"Not valid pair!\");\r\n\r\n        diceContract.roll(myDice);\r\n        diceContract.stopRoll(myDice);\r\n        diceContract.roll(enemyDice);\r\n        diceContract.stopRoll(enemyDice);\r\n\r\n        if ( diceContract.getDiceNumber(myDice) > diceContract.getDiceNumber(enemyDice) ) {\r\n            diceContract.transfer(myDice, diceContract.getPrevOwner(enemyDice)); //last owner before sending to DiceBattle\r\n            diceContract.transfer(enemyDice, diceContract.getPrevOwner(enemyDice));\r\n            emit battlewin(myDice,enemyDice);\r\n        }\r\n        if ( diceContract.getDiceNumber(myDice) < diceContract.getDiceNumber(enemyDice) ) {\r\n            //ownership[enemyDice] = ownership[myDice];\r\n            //unlist(enemyDice);\r\n            diceContract.transfer(enemyDice,diceContract.getPrevOwner(myDice)); //last owner before sending to DiceBattle\r\n            diceContract.transfer(myDice,diceContract.getPrevOwner(myDice));\r\n            emit battlewin(enemyDice,myDice);\r\n        }\r\n        if ( diceContract.getDiceNumber(myDice) == diceContract.getDiceNumber(enemyDice) ) {\r\n            emit battleDraw(myDice,enemyDice);\r\n        }\r\n\r\n    }\r\n\r\n}",
  "sourcePath": "C:\\Users\\Bransome Tan Yi Hao\\OneDrive - National University of Singapore\\Desktop\\IS4302\\is4302-project\\contracts\\DiceBattle.sol",
  "compiler": {
    "name": "solc",
    "version": "0.5.17+commit.d19bba13.Emscripten.clang"
  },
  "schemaVersion": "3.4.16",
  "updatedAt": "2024-04-01T16:26:03.753Z",
  "networkType": "ethereum",
  "devdoc": {
    "methods": {}
  },
  "userdoc": {
    "methods": {}
  }
}