{
  "contractName": "LeaseToken",
  "abi": [
    {
      "inputs": [],
      "stateMutability": "nonpayable",
      "type": "constructor"
    },
    {
      "anonymous": false,
      "inputs": [
        {
          "indexed": false,
          "internalType": "address",
          "name": "sender",
          "type": "address"
        },
        {
          "indexed": false,
          "internalType": "address",
          "name": "spender",
          "type": "address"
        },
        {
          "indexed": false,
          "internalType": "uint256",
          "name": "credit",
          "type": "uint256"
        }
      ],
      "name": "approveCredit",
      "type": "event"
    },
    {
      "anonymous": false,
      "inputs": [
        {
          "indexed": false,
          "internalType": "uint256",
          "name": "credit",
          "type": "uint256"
        }
      ],
      "name": "getCredit",
      "type": "event"
    },
    {
      "anonymous": false,
      "inputs": [
        {
          "indexed": false,
          "internalType": "address",
          "name": "sender",
          "type": "address"
        },
        {
          "indexed": false,
          "internalType": "address",
          "name": "recipient",
          "type": "address"
        },
        {
          "indexed": false,
          "internalType": "uint256",
          "name": "credit",
          "type": "uint256"
        }
      ],
      "name": "transferCredit",
      "type": "event"
    },
    {
      "anonymous": false,
      "inputs": [
        {
          "indexed": false,
          "internalType": "address",
          "name": "spender",
          "type": "address"
        },
        {
          "indexed": false,
          "internalType": "address",
          "name": "sender",
          "type": "address"
        },
        {
          "indexed": false,
          "internalType": "address",
          "name": "recipient",
          "type": "address"
        },
        {
          "indexed": false,
          "internalType": "uint256",
          "name": "credit",
          "type": "uint256"
        }
      ],
      "name": "transferCreditFrom",
      "type": "event"
    },
    {
      "inputs": [],
      "name": "getLeaseToken",
      "outputs": [],
      "stateMutability": "payable",
      "type": "function"
    },
    {
      "inputs": [
        {
          "internalType": "address",
          "name": "recipient",
          "type": "address"
        }
      ],
      "name": "checkLeaseToken",
      "outputs": [
        {
          "internalType": "uint256",
          "name": "",
          "type": "uint256"
        }
      ],
      "stateMutability": "view",
      "type": "function"
    },
    {
      "inputs": [
        {
          "internalType": "address",
          "name": "sender",
          "type": "address"
        },
        {
          "internalType": "address",
          "name": "recipient",
          "type": "address"
        },
        {
          "internalType": "uint256",
          "name": "leaseToken",
          "type": "uint256"
        }
      ],
      "name": "transferLeaseToken",
      "outputs": [],
      "stateMutability": "nonpayable",
      "type": "function"
    },
    {
      "inputs": [
        {
          "internalType": "address",
          "name": "spender",
          "type": "address"
        },
        {
          "internalType": "address",
          "name": "sender",
          "type": "address"
        },
        {
          "internalType": "address",
          "name": "recipient",
          "type": "address"
        },
        {
          "internalType": "uint256",
          "name": "leaseToken",
          "type": "uint256"
        }
      ],
      "name": "transferLeaseTokenFrom",
      "outputs": [],
      "stateMutability": "nonpayable",
      "type": "function"
    },
    {
      "inputs": [
        {
          "internalType": "address",
          "name": "sender",
          "type": "address"
        },
        {
          "internalType": "address",
          "name": "spender",
          "type": "address"
        },
        {
          "internalType": "uint256",
          "name": "leaseToken",
          "type": "uint256"
        }
      ],
      "name": "approveLeaseToken",
      "outputs": [],
      "stateMutability": "nonpayable",
      "type": "function"
    },
    {
      "inputs": [
        {
          "internalType": "address",
          "name": "_owner",
          "type": "address"
        },
        {
          "internalType": "address",
          "name": "spender",
          "type": "address"
        }
      ],
      "name": "checkLeaseTokenAllowance",
      "outputs": [
        {
          "internalType": "uint256",
          "name": "",
          "type": "uint256"
        }
      ],
      "stateMutability": "view",
      "type": "function"
    }
  ],
  "bytecode": "0x608060405234801561001057600080fd5b50600060405161001f906100d4565b604051809103906000f08015801561003b573d6000803e3d6000fd5b509050806000806101000a81548173ffffffffffffffffffffffffffffffffffffffff021916908373ffffffffffffffffffffffffffffffffffffffff16021790555033600360006101000a81548173ffffffffffffffffffffffffffffffffffffffff021916908373ffffffffffffffffffffffffffffffffffffffff160217905550670de0b6b3a7640000600181905550506100e1565b61204380610d7e83390190565b610c8e806100f06000396000f3fe6080604052600436106100555760003560e01c8063403e2a631461005a57806349a9a71e14610083578063a3e366041461008d578063b4e59fa3146100ca578063d97d12dc146100f3578063f5accf9f1461011c575b600080fd5b34801561006657600080fd5b50610081600480360381019061007c9190610843565b610159565b005b61008b61024e565b005b34801561009957600080fd5b506100b460048036038101906100af91906107de565b610439565b6040516100c19190610a91565b60405180910390f35b3480156100d657600080fd5b506100f160048036038101906100ec91906108a6565b6104f0565b005b3480156100ff57600080fd5b5061011a600480360381019061011591906108a6565b6105e0565b005b34801561012857600080fd5b50610143600480360381019061013e9190610807565b6106d0565b6040516101509190610a91565b60405180910390f35b60008054906101000a900473ffffffffffffffffffffffffffffffffffffffff1673ffffffffffffffffffffffffffffffffffffffff166390e12032858585856040518563ffffffff1660e01b81526004016101b894939291906109cc565b602060405180830381600087803b1580156101d257600080fd5b505af11580156101e6573d6000803e3d6000fd5b505050506040513d601f19601f8201168201806040525081019061020a91906108f5565b507f0e22ac2a452f51f017cead258306380498b3d5b8371afaea8fa4bd8982b2b8428484848460405161024094939291906109cc565b60405180910390a150505050565b6000662386f26fc10000346102639190610b13565b90506001548160008054906101000a900473ffffffffffffffffffffffffffffffffffffffff1673ffffffffffffffffffffffffffffffffffffffff166318160ddd6040518163ffffffff1660e01b815260040160206040518083038186803b1580156102cf57600080fd5b505afa1580156102e3573d6000803e3d6000fd5b505050506040513d601f19601f82011682018060405250810190610307919061091e565b6103119190610abd565b10610351576040517f08c379a000000000000000000000000000000000000000000000000000000000815260040161034890610a71565b60405180910390fd5b7fda304e4d7bc3b2f06a7b80d68aee1831ef4fa438957b8de719cae3ceffe250d5816040516103809190610a91565b60405180910390a160008054906101000a900473ffffffffffffffffffffffffffffffffffffffff1673ffffffffffffffffffffffffffffffffffffffff166340c10f1933836040518363ffffffff1660e01b81526004016103e3929190610a48565b602060405180830381600087803b1580156103fd57600080fd5b505af1158015610411573d6000803e3d6000fd5b505050506040513d601f19601f8201168201806040525081019061043591906108f5565b5050565b60008060008054906101000a900473ffffffffffffffffffffffffffffffffffffffff1673ffffffffffffffffffffffffffffffffffffffff166370a08231846040518263ffffffff1660e01b81526004016104959190610988565b60206040518083038186803b1580156104ad57600080fd5b505afa1580156104c1573d6000803e3d6000fd5b505050506040513d601f19601f820116820180604052508101906104e5919061091e565b905080915050919050565b60008054906101000a900473ffffffffffffffffffffffffffffffffffffffff1673ffffffffffffffffffffffffffffffffffffffff16631ac92e878484846040518463ffffffff1660e01b815260040161054d93929190610a11565b602060405180830381600087803b15801561056757600080fd5b505af115801561057b573d6000803e3d6000fd5b505050506040513d601f19601f8201168201806040525081019061059f91906108f5565b507f9c19abb189bb680a32fb1d23084c9fb20aded2b65d26320cdd08bd01b3818b028383836040516105d393929190610a11565b60405180910390a1505050565b60008054906101000a900473ffffffffffffffffffffffffffffffffffffffff1673ffffffffffffffffffffffffffffffffffffffff166372e1ffaf8484846040518463ffffffff1660e01b815260040161063d93929190610a11565b602060405180830381600087803b15801561065757600080fd5b505af115801561066b573d6000803e3d6000fd5b505050506040513d601f19601f8201168201806040525081019061068f91906108f5565b507f4aedbd7c60abbdae8f65fef003416f9f28d8bdefb056668f20d56f4706d8223d8383836040516106c393929190610a11565b60405180910390a1505050565b60008060008054906101000a900473ffffffffffffffffffffffffffffffffffffffff1673ffffffffffffffffffffffffffffffffffffffff1663dd62ed3e85856040518363ffffffff1660e01b815260040161072e9291906109a3565b60206040518083038186803b15801561074657600080fd5b505afa15801561075a573d6000803e3d6000fd5b505050506040513d601f19601f8201168201806040525081019061077e919061091e565b90508091505092915050565b60008135905061079981610c13565b92915050565b6000815190506107ae81610c2a565b92915050565b6000813590506107c381610c41565b92915050565b6000815190506107d881610c41565b92915050565b6000602082840312156107f057600080fd5b60006107fe8482850161078a565b91505092915050565b6000806040838503121561081a57600080fd5b60006108288582860161078a565b92505060206108398582860161078a565b9150509250929050565b6000806000806080858703121561085957600080fd5b60006108678782880161078a565b94505060206108788782880161078a565b93505060406108898782880161078a565b925050606061089a878288016107b4565b91505092959194509250565b6000806000606084860312156108bb57600080fd5b60006108c98682870161078a565b93505060206108da8682870161078a565b92505060406108eb868287016107b4565b9150509250925092565b60006020828403121561090757600080fd5b60006109158482850161079f565b91505092915050565b60006020828403121561093057600080fd5b600061093e848285016107c9565b91505092915050565b61095081610b44565b82525050565b6000610963601f83610aac565b915061096e82610bea565b602082019050919050565b61098281610b82565b82525050565b600060208201905061099d6000830184610947565b92915050565b60006040820190506109b86000830185610947565b6109c56020830184610947565b9392505050565b60006080820190506109e16000830187610947565b6109ee6020830186610947565b6109fb6040830185610947565b610a086060830184610979565b95945050505050565b6000606082019050610a266000830186610947565b610a336020830185610947565b610a406040830184610979565b949350505050565b6000604082019050610a5d6000830185610947565b610a6a6020830184610979565b9392505050565b60006020820190508181036000830152610a8a81610956565b9050919050565b6000602082019050610aa66000830184610979565b92915050565b600082825260208201905092915050565b6000610ac882610b82565b9150610ad383610b82565b9250827fffffffffffffffffffffffffffffffffffffffffffffffffffffffffffffffff03821115610b0857610b07610b8c565b5b828201905092915050565b6000610b1e82610b82565b9150610b2983610b82565b925082610b3957610b38610bbb565b5b828204905092915050565b6000610b4f82610b62565b9050919050565b60008115159050919050565b600073ffffffffffffffffffffffffffffffffffffffff82169050919050565b6000819050919050565b7f4e487b7100000000000000000000000000000000000000000000000000000000600052601160045260246000fd5b7f4e487b7100000000000000000000000000000000000000000000000000000000600052601260045260246000fd5b7f4c65617365546f6b656e20737570706c79206973206e6f7420656e6f75676800600082015250565b610c1c81610b44565b8114610c2757600080fd5b50565b610c3381610b56565b8114610c3e57600080fd5b50565b610c4a81610b82565b8114610c5557600080fd5b5056fea264697066735822122013b0ef4cb9b71f8910047a465af3079ffcb858704e9f720df875730edb8b3b7464736f6c63430008010033608060405260008060006101000a81548160ff02191690831515021790555033600060016101000a81548173ffffffffffffffffffffffffffffffffffffffff021916908373ffffffffffffffffffffffffffffffffffffffff16021790555034801561006b57600080fd5b50611fc88061007b6000396000f3fe608060405234801561001057600080fd5b506004361061010b5760003560e01c806370a08231116100a25780638da5cb5b116100715780638da5cb5b146102e457806390e120321461030257806395d89b4114610332578063a9059cbb14610350578063dd62ed3e146103805761010b565b806370a082311461024857806372e1ffaf146102785780637d64bcb4146102a8578063893d20e8146102c65761010b565b80631ac92e87116100de5780631ac92e871461019a57806323b872dd146101ca578063313ce567146101fa57806340c10f19146102185761010b565b806305d2035b1461011057806306fdde031461012e578063095ea7b31461014c57806318160ddd1461017c575b600080fd5b6101186103b0565b6040516101259190611b15565b60405180910390f35b6101366103c1565b6040516101439190611b30565b60405180910390f35b61016660048036038101906101619190611931565b6103fa565b6040516101739190611b15565b60405180910390f35b6101846104ec565b6040516101919190611c52565b60405180910390f35b6101b460048036038101906101af91906118e2565b6104f6565b6040516101c19190611b15565b60405180910390f35b6101e460048036038101906101df91906118e2565b6105e9565b6040516101f19190611b15565b60405180910390f35b610202610a0e565b60405161020f9190611c6d565b60405180910390f35b610232600480360381019061022d9190611931565b610a13565b60405161023f9190611b15565b60405180910390f35b610262600480360381019061025d919061181a565b610bff565b60405161026f9190611c52565b60405180910390f35b610292600480360381019061028d91906118e2565b610c48565b60405161029f9190611b15565b60405180910390f35b6102b0610ed5565b6040516102bd9190611b15565b60405180910390f35b6102ce610f95565b6040516102db9190611afa565b60405180910390f35b6102ec610fbe565b6040516102f99190611afa565b60405180910390f35b61031c6004803603810190610317919061187f565b610fe4565b6040516103299190611b15565b60405180910390f35b61033a611440565b6040516103479190611b30565b60405180910390f35b61036a60048036038101906103659190611931565b611479565b6040516103779190611b15565b60405180910390f35b61039a60048036038101906103959190611843565b6116cf565b6040516103a79190611c52565b60405180910390f35b60008054906101000a900460ff1681565b6040518060400160405280600981526020017f44696365546f6b656e000000000000000000000000000000000000000000000081525081565b600081600160003273ffffffffffffffffffffffffffffffffffffffff1673ffffffffffffffffffffffffffffffffffffffff16815260200190815260200160002060008573ffffffffffffffffffffffffffffffffffffffff1673ffffffffffffffffffffffffffffffffffffffff168152602001908152602001600020819055508273ffffffffffffffffffffffffffffffffffffffff163273ffffffffffffffffffffffffffffffffffffffff167f8c5be1e5ebec7d5bd14f71427d1e84f3dd0314c0f7b2291e5b200ac8c7c3b925846040516104da9190611c52565b60405180910390a36001905092915050565b6000600354905090565b600081600160008673ffffffffffffffffffffffffffffffffffffffff1673ffffffffffffffffffffffffffffffffffffffff16815260200190815260200160002060008573ffffffffffffffffffffffffffffffffffffffff1673ffffffffffffffffffffffffffffffffffffffff168152602001908152602001600020819055508273ffffffffffffffffffffffffffffffffffffffff168473ffffffffffffffffffffffffffffffffffffffff167f8c5be1e5ebec7d5bd14f71427d1e84f3dd0314c0f7b2291e5b200ac8c7c3b925846040516105d69190611c52565b60405180910390a3600190509392505050565b60008073ffffffffffffffffffffffffffffffffffffffff168373ffffffffffffffffffffffffffffffffffffffff16141561062457600080fd5b600260008573ffffffffffffffffffffffffffffffffffffffff1673ffffffffffffffffffffffffffffffffffffffff168152602001908152602001600020548211156106a6576040517f08c379a000000000000000000000000000000000000000000000000000000000815260040161069d90611bf2565b60405180910390fd5b600160008573ffffffffffffffffffffffffffffffffffffffff1673ffffffffffffffffffffffffffffffffffffffff16815260200190815260200160002060003273ffffffffffffffffffffffffffffffffffffffff1673ffffffffffffffffffffffffffffffffffffffff16815260200190815260200160002054821115610765576040517f08c379a000000000000000000000000000000000000000000000000000000000815260040161075c90611c32565b60405180910390fd5b6107b782600260008773ffffffffffffffffffffffffffffffffffffffff1673ffffffffffffffffffffffffffffffffffffffff1681526020019081526020016000205461175690919063ffffffff16565b600260008673ffffffffffffffffffffffffffffffffffffffff1673ffffffffffffffffffffffffffffffffffffffff1681526020019081526020016000208190555061084c82600260008673ffffffffffffffffffffffffffffffffffffffff1673ffffffffffffffffffffffffffffffffffffffff168152602001908152602001600020546117a390919063ffffffff16565b600260008573ffffffffffffffffffffffffffffffffffffffff1673ffffffffffffffffffffffffffffffffffffffff1681526020019081526020016000208190555061091e82600160008773ffffffffffffffffffffffffffffffffffffffff1673ffffffffffffffffffffffffffffffffffffffff16815260200190815260200160002060003273ffffffffffffffffffffffffffffffffffffffff1673ffffffffffffffffffffffffffffffffffffffff1681526020019081526020016000205461175690919063ffffffff16565b600160008673ffffffffffffffffffffffffffffffffffffffff1673ffffffffffffffffffffffffffffffffffffffff16815260200190815260200160002060003273ffffffffffffffffffffffffffffffffffffffff1673ffffffffffffffffffffffffffffffffffffffff168152602001908152602001600020819055508273ffffffffffffffffffffffffffffffffffffffff168473ffffffffffffffffffffffffffffffffffffffff167fddf252ad1be2c89b69c2b068fc378daa952ba7f163c4a11628f55a4df523b3ef846040516109fb9190611c52565b60405180910390a3600190509392505050565b601281565b60008060019054906101000a900473ffffffffffffffffffffffffffffffffffffffff1673ffffffffffffffffffffffffffffffffffffffff163373ffffffffffffffffffffffffffffffffffffffff1614610a6e57600080fd5b60008054906101000a900460ff1615610a8657600080fd5b610a9b826003546117a390919063ffffffff16565b600381905550610af382600260008673ffffffffffffffffffffffffffffffffffffffff1673ffffffffffffffffffffffffffffffffffffffff168152602001908152602001600020546117a390919063ffffffff16565b600260008573ffffffffffffffffffffffffffffffffffffffff1673ffffffffffffffffffffffffffffffffffffffff16815260200190815260200160002081905550610b4032836103fa565b508273ffffffffffffffffffffffffffffffffffffffff167f0f6798a560793a54c3bcfe86a93cde1e73087d944c0ea20544137d412139688583604051610b879190611c52565b60405180910390a28273ffffffffffffffffffffffffffffffffffffffff16600073ffffffffffffffffffffffffffffffffffffffff167fddf252ad1be2c89b69c2b068fc378daa952ba7f163c4a11628f55a4df523b3ef84604051610bed9190611c52565b60405180910390a36001905092915050565b6000600260008373ffffffffffffffffffffffffffffffffffffffff1673ffffffffffffffffffffffffffffffffffffffff168152602001908152602001600020549050919050565b60008073ffffffffffffffffffffffffffffffffffffffff168373ffffffffffffffffffffffffffffffffffffffff161415610cb9576040517f08c379a0000000000000000000000000000000000000000000000000000000008152600401610cb090611b72565b60405180910390fd5b600260008573ffffffffffffffffffffffffffffffffffffffff1673ffffffffffffffffffffffffffffffffffffffff16815260200190815260200160002054821115610d3b576040517f08c379a0000000000000000000000000000000000000000000000000000000008152600401610d3290611b92565b60405180910390fd5b610d8d82600260008773ffffffffffffffffffffffffffffffffffffffff1673ffffffffffffffffffffffffffffffffffffffff1681526020019081526020016000205461175690919063ffffffff16565b600260008673ffffffffffffffffffffffffffffffffffffffff1673ffffffffffffffffffffffffffffffffffffffff16815260200190815260200160002081905550610e2282600260008673ffffffffffffffffffffffffffffffffffffffff1673ffffffffffffffffffffffffffffffffffffffff168152602001908152602001600020546117a390919063ffffffff16565b600260008573ffffffffffffffffffffffffffffffffffffffff1673ffffffffffffffffffffffffffffffffffffffff168152602001908152602001600020819055508273ffffffffffffffffffffffffffffffffffffffff168473ffffffffffffffffffffffffffffffffffffffff167fddf252ad1be2c89b69c2b068fc378daa952ba7f163c4a11628f55a4df523b3ef84604051610ec29190611c52565b60405180910390a3600190509392505050565b60008060019054906101000a900473ffffffffffffffffffffffffffffffffffffffff1673ffffffffffffffffffffffffffffffffffffffff163373ffffffffffffffffffffffffffffffffffffffff1614610f3057600080fd5b60008054906101000a900460ff1615610f4857600080fd5b60016000806101000a81548160ff0219169083151502179055507fae5184fba832cb2b1f702aca6117b8d265eaf03ad33eb133f19dde0f5920fa0860405160405180910390a16001905090565b60008060019054906101000a900473ffffffffffffffffffffffffffffffffffffffff16905090565b600060019054906101000a900473ffffffffffffffffffffffffffffffffffffffff1681565b60008073ffffffffffffffffffffffffffffffffffffffff168373ffffffffffffffffffffffffffffffffffffffff161415611055576040517f08c379a000000000000000000000000000000000000000000000000000000000815260040161104c90611bb2565b60405180910390fd5b600260008573ffffffffffffffffffffffffffffffffffffffff1673ffffffffffffffffffffffffffffffffffffffff168152602001908152602001600020548211156110d7576040517f08c379a00000000000000000000000000000000000000000000000000000000081526004016110ce90611b52565b60405180910390fd5b600160008573ffffffffffffffffffffffffffffffffffffffff1673ffffffffffffffffffffffffffffffffffffffff16815260200190815260200160002060008673ffffffffffffffffffffffffffffffffffffffff1673ffffffffffffffffffffffffffffffffffffffff16815260200190815260200160002054821115611196576040517f08c379a000000000000000000000000000000000000000000000000000000000815260040161118d90611c12565b60405180910390fd5b6111e882600260008773ffffffffffffffffffffffffffffffffffffffff1673ffffffffffffffffffffffffffffffffffffffff1681526020019081526020016000205461175690919063ffffffff16565b600260008673ffffffffffffffffffffffffffffffffffffffff1673ffffffffffffffffffffffffffffffffffffffff1681526020019081526020016000208190555061127d82600260008673ffffffffffffffffffffffffffffffffffffffff1673ffffffffffffffffffffffffffffffffffffffff168152602001908152602001600020546117a390919063ffffffff16565b600260008573ffffffffffffffffffffffffffffffffffffffff1673ffffffffffffffffffffffffffffffffffffffff1681526020019081526020016000208190555061134f82600160008773ffffffffffffffffffffffffffffffffffffffff1673ffffffffffffffffffffffffffffffffffffffff16815260200190815260200160002060008873ffffffffffffffffffffffffffffffffffffffff1673ffffffffffffffffffffffffffffffffffffffff1681526020019081526020016000205461175690919063ffffffff16565b600160008673ffffffffffffffffffffffffffffffffffffffff1673ffffffffffffffffffffffffffffffffffffffff16815260200190815260200160002060008773ffffffffffffffffffffffffffffffffffffffff1673ffffffffffffffffffffffffffffffffffffffff168152602001908152602001600020819055508273ffffffffffffffffffffffffffffffffffffffff168473ffffffffffffffffffffffffffffffffffffffff167fddf252ad1be2c89b69c2b068fc378daa952ba7f163c4a11628f55a4df523b3ef8460405161142c9190611c52565b60405180910390a360019050949350505050565b6040518060400160405280600281526020017f445400000000000000000000000000000000000000000000000000000000000081525081565b60008073ffffffffffffffffffffffffffffffffffffffff168373ffffffffffffffffffffffffffffffffffffffff1614156114b457600080fd5b600260003273ffffffffffffffffffffffffffffffffffffffff1673ffffffffffffffffffffffffffffffffffffffff16815260200190815260200160002054821115611536576040517f08c379a000000000000000000000000000000000000000000000000000000000815260040161152d90611bd2565b60405180910390fd5b61158882600260003273ffffffffffffffffffffffffffffffffffffffff1673ffffffffffffffffffffffffffffffffffffffff1681526020019081526020016000205461175690919063ffffffff16565b600260003273ffffffffffffffffffffffffffffffffffffffff1673ffffffffffffffffffffffffffffffffffffffff1681526020019081526020016000208190555061161d82600260008673ffffffffffffffffffffffffffffffffffffffff1673ffffffffffffffffffffffffffffffffffffffff168152602001908152602001600020546117a390919063ffffffff16565b600260008573ffffffffffffffffffffffffffffffffffffffff1673ffffffffffffffffffffffffffffffffffffffff168152602001908152602001600020819055508273ffffffffffffffffffffffffffffffffffffffff163273ffffffffffffffffffffffffffffffffffffffff167fddf252ad1be2c89b69c2b068fc378daa952ba7f163c4a11628f55a4df523b3ef846040516116bd9190611c52565b60405180910390a36001905092915050565b6000600160008473ffffffffffffffffffffffffffffffffffffffff1673ffffffffffffffffffffffffffffffffffffffff16815260200190815260200160002060008373ffffffffffffffffffffffffffffffffffffffff1673ffffffffffffffffffffffffffffffffffffffff16815260200190815260200160002054905092915050565b60008282111561178f577f4e487b7100000000000000000000000000000000000000000000000000000000600052600160045260246000fd5b818361179b9190611cfa565b905092915050565b600081836117b19190611ca4565b9050828110156117ea577f4e487b7100000000000000000000000000000000000000000000000000000000600052600160045260246000fd5b92915050565b6000813590506117ff81611f64565b92915050565b60008135905061181481611f7b565b92915050565b60006020828403121561182c57600080fd5b600061183a848285016117f0565b91505092915050565b6000806040838503121561185657600080fd5b6000611864858286016117f0565b9250506020611875858286016117f0565b9150509250929050565b6000806000806080858703121561189557600080fd5b60006118a3878288016117f0565b94505060206118b4878288016117f0565b93505060406118c5878288016117f0565b92505060606118d687828801611805565b91505092959194509250565b6000806000606084860312156118f757600080fd5b6000611905868287016117f0565b9350506020611916868287016117f0565b925050604061192786828701611805565b9150509250925092565b6000806040838503121561194457600080fd5b6000611952858286016117f0565b925050602061196385828601611805565b9150509250929050565b61197681611d2e565b82525050565b61198581611d40565b82525050565b600061199682611c88565b6119a08185611c93565b93506119b0818560208601611d83565b6119b981611de5565b840191505092915050565b60006119d1600283611c93565b91506119dc82611df6565b602082019050919050565b60006119f4600283611c93565b91506119ff82611e1f565b602082019050919050565b6000611a17600283611c93565b9150611a2282611e48565b602082019050919050565b6000611a3a600283611c93565b9150611a4582611e71565b602082019050919050565b6000611a5d602683611c93565b9150611a6882611e9a565b604082019050919050565b6000611a80602083611c93565b9150611a8b82611ee9565b602082019050919050565b6000611aa3600283611c93565b9150611aae82611f12565b602082019050919050565b6000611ac6601e83611c93565b9150611ad182611f3b565b602082019050919050565b611ae581611d6c565b82525050565b611af481611d76565b82525050565b6000602082019050611b0f600083018461196d565b92915050565b6000602082019050611b2a600083018461197c565b92915050565b60006020820190508181036000830152611b4a818461198b565b905092915050565b60006020820190508181036000830152611b6b816119c4565b9050919050565b60006020820190508181036000830152611b8b816119e7565b9050919050565b60006020820190508181036000830152611bab81611a0a565b9050919050565b60006020820190508181036000830152611bcb81611a2d565b9050919050565b60006020820190508181036000830152611beb81611a50565b9050919050565b60006020820190508181036000830152611c0b81611a73565b9050919050565b60006020820190508181036000830152611c2b81611a96565b9050919050565b60006020820190508181036000830152611c4b81611ab9565b9050919050565b6000602082019050611c676000830184611adc565b92915050565b6000602082019050611c826000830184611aeb565b92915050565b600081519050919050565b600082825260208201905092915050565b6000611caf82611d6c565b9150611cba83611d6c565b9250827fffffffffffffffffffffffffffffffffffffffffffffffffffffffffffffffff03821115611cef57611cee611db6565b5b828201905092915050565b6000611d0582611d6c565b9150611d1083611d6c565b925082821015611d2357611d22611db6565b5b828203905092915050565b6000611d3982611d4c565b9050919050565b60008115159050919050565b600073ffffffffffffffffffffffffffffffffffffffff82169050919050565b6000819050919050565b600060ff82169050919050565b60005b83811015611da1578082015181840152602081019050611d86565b83811115611db0576000848401525b50505050565b7f4e487b7100000000000000000000000000000000000000000000000000000000600052601160045260246000fd5b6000601f19601f8301169050919050565b7f4332000000000000000000000000000000000000000000000000000000000000600082015250565b7f4131000000000000000000000000000000000000000000000000000000000000600082015250565b7f4132000000000000000000000000000000000000000000000000000000000000600082015250565b7f4331000000000000000000000000000000000000000000000000000000000000600082015250565b7f6d73672e73656e64657220646f65736e2774206861766520656e6f756768206260008201527f616c616e63650000000000000000000000000000000000000000000000000000602082015250565b7f46726f6d20646f65736e2774206861766520656e6f7567682062616c616e6365600082015250565b7f4333000000000000000000000000000000000000000000000000000000000000600082015250565b7f4e6f7420616c6c6f77656420746f207370656e642074686973206d7563680000600082015250565b611f6d81611d2e565b8114611f7857600080fd5b50565b611f8481611d6c565b8114611f8f57600080fd5b5056fea2646970667358221220d7ab8fd6535c021de20023071f563285c8106e5d449b4efb898e574d4f837edd64736f6c63430008010033",
  "immutableReferences": {},
  "source": "// SPDX-License-Identifier: MIT \r\npragma solidity ^0.8.0;\r\n\r\nimport \"./ERC20.sol\";\r\n\r\ncontract LeaseToken {\r\n    ERC20 erc20Contract;\r\n    uint256 supplyLimit;\r\n    uint256 currentSupply;\r\n    address owner;\r\n    \r\n    constructor() {\r\n        ERC20 e = new ERC20();\r\n        erc20Contract = e;\r\n        owner = msg.sender;\r\n        supplyLimit = 1e18; // 1e18 LeaseToken supply limit\r\n    }\r\n\r\n    event getCredit(uint256 credit);\r\n    event transferCredit(address sender, address recipient, uint256 credit);\r\n    event transferCreditFrom(address spender, address sender, address recipient, uint256 credit);\r\n    event approveCredit(address sender, address spender, uint256 credit);\r\n\r\n\r\n    function getLeaseToken() public payable {\r\n        uint256 leaseToken = msg.value / 1e16; // Get LeaseToken eligible (1e16 wei = 1 LeaseToken OR 0.01 ETH = 1 LeaseToken)\r\n        require(erc20Contract.totalSupply() + leaseToken < supplyLimit, \"LeaseToken supply is not enough\");\r\n        emit getCredit(leaseToken);\r\n        erc20Contract.mint(msg.sender, leaseToken);\r\n        \r\n    }\r\n\r\n    function checkLeaseToken(address recipient) public view returns(uint256) {\r\n        uint256 leaseToken = erc20Contract.balanceOf(recipient);\r\n        return leaseToken;\r\n    }\r\n\r\n    function transferLeaseToken(address sender, address recipient, uint256 leaseToken) public {\r\n        erc20Contract.transferLT(sender, recipient, leaseToken);\r\n        emit transferCredit(sender, recipient, leaseToken);\r\n    }\r\n\r\n    function transferLeaseTokenFrom(address spender, address sender, address recipient, uint256 leaseToken) public {\r\n        erc20Contract.transferFromLT(spender, sender, recipient, leaseToken);\r\n        emit transferCreditFrom(spender, sender, recipient, leaseToken);\r\n    }\r\n\r\n    function approveLeaseToken(address sender, address spender, uint256 leaseToken) public {\r\n        erc20Contract.approveLT(sender, spender, leaseToken);\r\n        emit approveCredit(sender, spender, leaseToken);\r\n    }\r\n\r\n    function checkLeaseTokenAllowance(address _owner, address spender) public view returns(uint256) {\r\n        uint256 allowance = erc20Contract.allowance(_owner, spender);\r\n        return allowance;\r\n    }\r\n\r\n}",
  "sourcePath": "C:\\Users\\Bransome Tan Yi Hao\\OneDrive - National University of Singapore\\Desktop\\IS4302\\is4302-project\\contracts\\LeaseToken.sol",
  "compiler": {
    "name": "solc",
    "version": "0.8.1+commit.df193b15.Emscripten.clang"
  },
  "schemaVersion": "3.4.16",
  "updatedAt": "2024-04-09T12:46:30.128Z",
  "devdoc": {
    "kind": "dev",
    "methods": {},
    "version": 1
  },
  "userdoc": {
    "kind": "user",
    "methods": {},
    "version": 1
  }
}