{
  "contractName": "LeaseToken",
  "abi": [
    {
      "inputs": [],
      "stateMutability": "nonpayable",
      "type": "constructor"
    },
    {
      "anonymous": false,
      "inputs": [
        {
          "indexed": false,
          "internalType": "address",
          "name": "spender",
          "type": "address"
        },
        {
          "indexed": false,
          "internalType": "uint256",
          "name": "credit",
          "type": "uint256"
        }
      ],
      "name": "approveCredit",
      "type": "event"
    },
    {
      "anonymous": false,
      "inputs": [
        {
          "indexed": false,
          "internalType": "uint256",
          "name": "credit",
          "type": "uint256"
        }
      ],
      "name": "creditChecked",
      "type": "event"
    },
    {
      "anonymous": false,
      "inputs": [
        {
          "indexed": false,
          "internalType": "uint256",
          "name": "credit",
          "type": "uint256"
        }
      ],
      "name": "getCredit",
      "type": "event"
    },
    {
      "anonymous": false,
      "inputs": [
        {
          "indexed": false,
          "internalType": "address",
          "name": "recipient",
          "type": "address"
        },
        {
          "indexed": false,
          "internalType": "uint256",
          "name": "credit",
          "type": "uint256"
        }
      ],
      "name": "transferCredit",
      "type": "event"
    },
    {
      "anonymous": false,
      "inputs": [
        {
          "indexed": false,
          "internalType": "address",
          "name": "sender",
          "type": "address"
        },
        {
          "indexed": false,
          "internalType": "address",
          "name": "recipient",
          "type": "address"
        },
        {
          "indexed": false,
          "internalType": "uint256",
          "name": "credit",
          "type": "uint256"
        }
      ],
      "name": "transferCreditFrom",
      "type": "event"
    },
    {
      "inputs": [],
      "name": "getLeaseToken",
      "outputs": [],
      "stateMutability": "payable",
      "type": "function"
    },
    {
      "inputs": [
        {
          "internalType": "address",
          "name": "recipient",
          "type": "address"
        }
      ],
      "name": "checkLeaseToken",
      "outputs": [
        {
          "internalType": "uint256",
          "name": "",
          "type": "uint256"
        }
      ],
      "stateMutability": "nonpayable",
      "type": "function"
    },
    {
      "inputs": [
        {
          "internalType": "address",
          "name": "recipient",
          "type": "address"
        },
        {
          "internalType": "uint256",
          "name": "leaseToken",
          "type": "uint256"
        }
      ],
      "name": "transferLeaseToken",
      "outputs": [],
      "stateMutability": "nonpayable",
      "type": "function"
    },
    {
      "inputs": [
        {
          "internalType": "address",
          "name": "sender",
          "type": "address"
        },
        {
          "internalType": "address",
          "name": "recipient",
          "type": "address"
        },
        {
          "internalType": "uint256",
          "name": "leaseToken",
          "type": "uint256"
        }
      ],
      "name": "transferLeaseTokenFrom",
      "outputs": [],
      "stateMutability": "nonpayable",
      "type": "function"
    },
    {
      "inputs": [
        {
          "internalType": "address",
          "name": "spender",
          "type": "address"
        },
        {
          "internalType": "uint256",
          "name": "leaseToken",
          "type": "uint256"
        }
      ],
      "name": "approveLeaseToken",
      "outputs": [],
      "stateMutability": "nonpayable",
      "type": "function"
    }
  ],
  "bytecode": "0x608060405234801561001057600080fd5b50600060405161001f906100d4565b604051809103906000f08015801561003b573d6000803e3d6000fd5b509050806000806101000a81548173ffffffffffffffffffffffffffffffffffffffff021916908373ffffffffffffffffffffffffffffffffffffffff16021790555033600360006101000a81548173ffffffffffffffffffffffffffffffffffffffff021916908373ffffffffffffffffffffffffffffffffffffffff160217905550670de0b6b3a7640000600181905550506100e1565b61153780610bd383390190565b610ae3806100f06000396000f3fe60806040526004361061004a5760003560e01c80630ab1a7071461004f57806349a9a71e14610078578063a3e3660414610082578063b8102718146100bf578063daa3b7e8146100e8575b600080fd5b34801561005b57600080fd5b506100766004803603810190610071919061077c565b610111565b005b6100806101fc565b005b34801561008e57600080fd5b506100a960048036038101906100a49190610704565b6103e7565b6040516100b691906108e6565b60405180910390f35b3480156100cb57600080fd5b506100e660048036038101906100e1919061072d565b6104d5565b005b3480156100f457600080fd5b5061010f600480360381019061010a919061077c565b6105c5565b005b60008054906101000a900473ffffffffffffffffffffffffffffffffffffffff1673ffffffffffffffffffffffffffffffffffffffff1663095ea7b383836040518363ffffffff1660e01b815260040161016c92919061089d565b602060405180830381600087803b15801561018657600080fd5b505af115801561019a573d6000803e3d6000fd5b505050506040513d601f19601f820116820180604052508101906101be91906107b8565b507f709f210126a2f281ef1a0066fda0c6d66127cf423660103cbfacb026a0aaab5f82826040516101f092919061089d565b60405180910390a15050565b6000662386f26fc10000346102119190610968565b90506001548160008054906101000a900473ffffffffffffffffffffffffffffffffffffffff1673ffffffffffffffffffffffffffffffffffffffff166318160ddd6040518163ffffffff1660e01b815260040160206040518083038186803b15801561027d57600080fd5b505afa158015610291573d6000803e3d6000fd5b505050506040513d601f19601f820116820180604052508101906102b591906107e1565b6102bf9190610912565b106102ff576040517f08c379a00000000000000000000000000000000000000000000000000000000081526004016102f6906108c6565b60405180910390fd5b7fda304e4d7bc3b2f06a7b80d68aee1831ef4fa438957b8de719cae3ceffe250d58160405161032e91906108e6565b60405180910390a160008054906101000a900473ffffffffffffffffffffffffffffffffffffffff1673ffffffffffffffffffffffffffffffffffffffff166340c10f1933836040518363ffffffff1660e01b815260040161039192919061089d565b602060405180830381600087803b1580156103ab57600080fd5b505af11580156103bf573d6000803e3d6000fd5b505050506040513d601f19601f820116820180604052508101906103e391906107b8565b5050565b60008060008054906101000a900473ffffffffffffffffffffffffffffffffffffffff1673ffffffffffffffffffffffffffffffffffffffff166370a08231846040518263ffffffff1660e01b8152600401610443919061084b565b60206040518083038186803b15801561045b57600080fd5b505afa15801561046f573d6000803e3d6000fd5b505050506040513d601f19601f8201168201806040525081019061049391906107e1565b90507f78a43a7f55b9e751c0405df65e1fc99e6829488d27cfe8bc22984f78e7499df1816040516104c491906108e6565b60405180910390a180915050919050565b60008054906101000a900473ffffffffffffffffffffffffffffffffffffffff1673ffffffffffffffffffffffffffffffffffffffff166323b872dd8484846040518463ffffffff1660e01b815260040161053293929190610866565b602060405180830381600087803b15801561054c57600080fd5b505af1158015610560573d6000803e3d6000fd5b505050506040513d601f19601f8201168201806040525081019061058491906107b8565b507f76661e45c855079698661b10bfef0d0f9820fb0abd2632b02c0455223f0ecb998383836040516105b893929190610866565b60405180910390a1505050565b60008054906101000a900473ffffffffffffffffffffffffffffffffffffffff1673ffffffffffffffffffffffffffffffffffffffff1663a9059cbb83836040518363ffffffff1660e01b815260040161062092919061089d565b602060405180830381600087803b15801561063a57600080fd5b505af115801561064e573d6000803e3d6000fd5b505050506040513d601f19601f8201168201806040525081019061067291906107b8565b507fcc58a6bb7fa6b8a73474a1712c185723b78209386f629c121635fd87e7426ba582826040516106a492919061089d565b60405180910390a15050565b6000813590506106bf81610a68565b92915050565b6000815190506106d481610a7f565b92915050565b6000813590506106e981610a96565b92915050565b6000815190506106fe81610a96565b92915050565b60006020828403121561071657600080fd5b6000610724848285016106b0565b91505092915050565b60008060006060848603121561074257600080fd5b6000610750868287016106b0565b9350506020610761868287016106b0565b9250506040610772868287016106da565b9150509250925092565b6000806040838503121561078f57600080fd5b600061079d858286016106b0565b92505060206107ae858286016106da565b9150509250929050565b6000602082840312156107ca57600080fd5b60006107d8848285016106c5565b91505092915050565b6000602082840312156107f357600080fd5b6000610801848285016106ef565b91505092915050565b61081381610999565b82525050565b6000610826601f83610901565b915061083182610a3f565b602082019050919050565b610845816109d7565b82525050565b6000602082019050610860600083018461080a565b92915050565b600060608201905061087b600083018661080a565b610888602083018561080a565b610895604083018461083c565b949350505050565b60006040820190506108b2600083018561080a565b6108bf602083018461083c565b9392505050565b600060208201905081810360008301526108df81610819565b9050919050565b60006020820190506108fb600083018461083c565b92915050565b600082825260208201905092915050565b600061091d826109d7565b9150610928836109d7565b9250827fffffffffffffffffffffffffffffffffffffffffffffffffffffffffffffffff0382111561095d5761095c6109e1565b5b828201905092915050565b6000610973826109d7565b915061097e836109d7565b92508261098e5761098d610a10565b5b828204905092915050565b60006109a4826109b7565b9050919050565b60008115159050919050565b600073ffffffffffffffffffffffffffffffffffffffff82169050919050565b6000819050919050565b7f4e487b7100000000000000000000000000000000000000000000000000000000600052601160045260246000fd5b7f4e487b7100000000000000000000000000000000000000000000000000000000600052601260045260246000fd5b7f4c65617365546f6b656e20737570706c79206973206e6f7420656e6f75676800600082015250565b610a7181610999565b8114610a7c57600080fd5b50565b610a88816109ab565b8114610a9357600080fd5b50565b610a9f816109d7565b8114610aaa57600080fd5b5056fea2646970667358221220e3838773b454947e9f73801b74498fe494e9f78fcd3938810d81cd65f522e2ab64736f6c63430008010033608060405260008060006101000a81548160ff02191690831515021790555033600060016101000a81548173ffffffffffffffffffffffffffffffffffffffff021916908373ffffffffffffffffffffffffffffffffffffffff16021790555034801561006b57600080fd5b506114bc8061007b6000396000f3fe608060405234801561001057600080fd5b50600436106100ea5760003560e01c806370a082311161008c5780638da5cb5b116100665780638da5cb5b1461026357806395d89b4114610281578063a9059cbb1461029f578063dd62ed3e146102cf576100ea565b806370a08231146101f75780637d64bcb414610227578063893d20e814610245576100ea565b806318160ddd116100c857806318160ddd1461015b57806323b872dd14610179578063313ce567146101a957806340c10f19146101c7576100ea565b806305d2035b146100ef57806306fdde031461010d578063095ea7b31461012b575b600080fd5b6100f76102ff565b6040516101049190611176565b60405180910390f35b610115610310565b6040516101229190611191565b60405180910390f35b61014560048036038101906101409190611041565b610349565b6040516101529190611176565b60405180910390f35b61016361043b565b6040516101709190611213565b60405180910390f35b610193600480360381019061018e9190610ff2565b610445565b6040516101a09190611176565b60405180910390f35b6101b161086a565b6040516101be919061122e565b60405180910390f35b6101e160048036038101906101dc9190611041565b61086f565b6040516101ee9190611176565b60405180910390f35b610211600480360381019061020c9190610f8d565b610a5b565b60405161021e9190611213565b60405180910390f35b61022f610aa4565b60405161023c9190611176565b60405180910390f35b61024d610b64565b60405161025a919061115b565b60405180910390f35b61026b610b8d565b604051610278919061115b565b60405180910390f35b610289610bb3565b6040516102969190611191565b60405180910390f35b6102b960048036038101906102b49190611041565b610bec565b6040516102c69190611176565b60405180910390f35b6102e960048036038101906102e49190610fb6565b610e42565b6040516102f69190611213565b60405180910390f35b60008054906101000a900460ff1681565b6040518060400160405280600981526020017f44696365546f6b656e000000000000000000000000000000000000000000000081525081565b600081600160003273ffffffffffffffffffffffffffffffffffffffff1673ffffffffffffffffffffffffffffffffffffffff16815260200190815260200160002060008573ffffffffffffffffffffffffffffffffffffffff1673ffffffffffffffffffffffffffffffffffffffff168152602001908152602001600020819055508273ffffffffffffffffffffffffffffffffffffffff163273ffffffffffffffffffffffffffffffffffffffff167f8c5be1e5ebec7d5bd14f71427d1e84f3dd0314c0f7b2291e5b200ac8c7c3b925846040516104299190611213565b60405180910390a36001905092915050565b6000600354905090565b60008073ffffffffffffffffffffffffffffffffffffffff168373ffffffffffffffffffffffffffffffffffffffff16141561048057600080fd5b600260008573ffffffffffffffffffffffffffffffffffffffff1673ffffffffffffffffffffffffffffffffffffffff16815260200190815260200160002054821115610502576040517f08c379a00000000000000000000000000000000000000000000000000000000081526004016104f9906111d3565b60405180910390fd5b600160008573ffffffffffffffffffffffffffffffffffffffff1673ffffffffffffffffffffffffffffffffffffffff16815260200190815260200160002060003273ffffffffffffffffffffffffffffffffffffffff1673ffffffffffffffffffffffffffffffffffffffff168152602001908152602001600020548211156105c1576040517f08c379a00000000000000000000000000000000000000000000000000000000081526004016105b8906111f3565b60405180910390fd5b61061382600260008773ffffffffffffffffffffffffffffffffffffffff1673ffffffffffffffffffffffffffffffffffffffff16815260200190815260200160002054610ec990919063ffffffff16565b600260008673ffffffffffffffffffffffffffffffffffffffff1673ffffffffffffffffffffffffffffffffffffffff168152602001908152602001600020819055506106a882600260008673ffffffffffffffffffffffffffffffffffffffff1673ffffffffffffffffffffffffffffffffffffffff16815260200190815260200160002054610f1690919063ffffffff16565b600260008573ffffffffffffffffffffffffffffffffffffffff1673ffffffffffffffffffffffffffffffffffffffff1681526020019081526020016000208190555061077a82600160008773ffffffffffffffffffffffffffffffffffffffff1673ffffffffffffffffffffffffffffffffffffffff16815260200190815260200160002060003273ffffffffffffffffffffffffffffffffffffffff1673ffffffffffffffffffffffffffffffffffffffff16815260200190815260200160002054610ec990919063ffffffff16565b600160008673ffffffffffffffffffffffffffffffffffffffff1673ffffffffffffffffffffffffffffffffffffffff16815260200190815260200160002060003273ffffffffffffffffffffffffffffffffffffffff1673ffffffffffffffffffffffffffffffffffffffff168152602001908152602001600020819055508273ffffffffffffffffffffffffffffffffffffffff168473ffffffffffffffffffffffffffffffffffffffff167fddf252ad1be2c89b69c2b068fc378daa952ba7f163c4a11628f55a4df523b3ef846040516108579190611213565b60405180910390a3600190509392505050565b601281565b60008060019054906101000a900473ffffffffffffffffffffffffffffffffffffffff1673ffffffffffffffffffffffffffffffffffffffff163373ffffffffffffffffffffffffffffffffffffffff16146108ca57600080fd5b60008054906101000a900460ff16156108e257600080fd5b6108f782600354610f1690919063ffffffff16565b60038190555061094f82600260008673ffffffffffffffffffffffffffffffffffffffff1673ffffffffffffffffffffffffffffffffffffffff16815260200190815260200160002054610f1690919063ffffffff16565b600260008573ffffffffffffffffffffffffffffffffffffffff1673ffffffffffffffffffffffffffffffffffffffff1681526020019081526020016000208190555061099c3283610349565b508273ffffffffffffffffffffffffffffffffffffffff167f0f6798a560793a54c3bcfe86a93cde1e73087d944c0ea20544137d4121396885836040516109e39190611213565b60405180910390a28273ffffffffffffffffffffffffffffffffffffffff16600073ffffffffffffffffffffffffffffffffffffffff167fddf252ad1be2c89b69c2b068fc378daa952ba7f163c4a11628f55a4df523b3ef84604051610a499190611213565b60405180910390a36001905092915050565b6000600260008373ffffffffffffffffffffffffffffffffffffffff1673ffffffffffffffffffffffffffffffffffffffff168152602001908152602001600020549050919050565b60008060019054906101000a900473ffffffffffffffffffffffffffffffffffffffff1673ffffffffffffffffffffffffffffffffffffffff163373ffffffffffffffffffffffffffffffffffffffff1614610aff57600080fd5b60008054906101000a900460ff1615610b1757600080fd5b60016000806101000a81548160ff0219169083151502179055507fae5184fba832cb2b1f702aca6117b8d265eaf03ad33eb133f19dde0f5920fa0860405160405180910390a16001905090565b60008060019054906101000a900473ffffffffffffffffffffffffffffffffffffffff16905090565b600060019054906101000a900473ffffffffffffffffffffffffffffffffffffffff1681565b6040518060400160405280600281526020017f445400000000000000000000000000000000000000000000000000000000000081525081565b60008073ffffffffffffffffffffffffffffffffffffffff168373ffffffffffffffffffffffffffffffffffffffff161415610c2757600080fd5b600260003273ffffffffffffffffffffffffffffffffffffffff1673ffffffffffffffffffffffffffffffffffffffff16815260200190815260200160002054821115610ca9576040517f08c379a0000000000000000000000000000000000000000000000000000000008152600401610ca0906111b3565b60405180910390fd5b610cfb82600260003273ffffffffffffffffffffffffffffffffffffffff1673ffffffffffffffffffffffffffffffffffffffff16815260200190815260200160002054610ec990919063ffffffff16565b600260003273ffffffffffffffffffffffffffffffffffffffff1673ffffffffffffffffffffffffffffffffffffffff16815260200190815260200160002081905550610d9082600260008673ffffffffffffffffffffffffffffffffffffffff1673ffffffffffffffffffffffffffffffffffffffff16815260200190815260200160002054610f1690919063ffffffff16565b600260008573ffffffffffffffffffffffffffffffffffffffff1673ffffffffffffffffffffffffffffffffffffffff168152602001908152602001600020819055508273ffffffffffffffffffffffffffffffffffffffff163273ffffffffffffffffffffffffffffffffffffffff167fddf252ad1be2c89b69c2b068fc378daa952ba7f163c4a11628f55a4df523b3ef84604051610e309190611213565b60405180910390a36001905092915050565b6000600160008473ffffffffffffffffffffffffffffffffffffffff1673ffffffffffffffffffffffffffffffffffffffff16815260200190815260200160002060008373ffffffffffffffffffffffffffffffffffffffff1673ffffffffffffffffffffffffffffffffffffffff16815260200190815260200160002054905092915050565b600082821115610f02577f4e487b7100000000000000000000000000000000000000000000000000000000600052600160045260246000fd5b8183610f0e91906112bb565b905092915050565b60008183610f249190611265565b905082811015610f5d577f4e487b7100000000000000000000000000000000000000000000000000000000600052600160045260246000fd5b92915050565b600081359050610f7281611458565b92915050565b600081359050610f878161146f565b92915050565b600060208284031215610f9f57600080fd5b6000610fad84828501610f63565b91505092915050565b60008060408385031215610fc957600080fd5b6000610fd785828601610f63565b9250506020610fe885828601610f63565b9150509250929050565b60008060006060848603121561100757600080fd5b600061101586828701610f63565b935050602061102686828701610f63565b925050604061103786828701610f78565b9150509250925092565b6000806040838503121561105457600080fd5b600061106285828601610f63565b925050602061107385828601610f78565b9150509250929050565b611086816112ef565b82525050565b61109581611301565b82525050565b60006110a682611249565b6110b08185611254565b93506110c0818560208601611344565b6110c9816113a6565b840191505092915050565b60006110e1602683611254565b91506110ec826113b7565b604082019050919050565b6000611104602083611254565b915061110f82611406565b602082019050919050565b6000611127601e83611254565b91506111328261142f565b602082019050919050565b6111468161132d565b82525050565b61115581611337565b82525050565b6000602082019050611170600083018461107d565b92915050565b600060208201905061118b600083018461108c565b92915050565b600060208201905081810360008301526111ab818461109b565b905092915050565b600060208201905081810360008301526111cc816110d4565b9050919050565b600060208201905081810360008301526111ec816110f7565b9050919050565b6000602082019050818103600083015261120c8161111a565b9050919050565b6000602082019050611228600083018461113d565b92915050565b6000602082019050611243600083018461114c565b92915050565b600081519050919050565b600082825260208201905092915050565b60006112708261132d565b915061127b8361132d565b9250827fffffffffffffffffffffffffffffffffffffffffffffffffffffffffffffffff038211156112b0576112af611377565b5b828201905092915050565b60006112c68261132d565b91506112d18361132d565b9250828210156112e4576112e3611377565b5b828203905092915050565b60006112fa8261130d565b9050919050565b60008115159050919050565b600073ffffffffffffffffffffffffffffffffffffffff82169050919050565b6000819050919050565b600060ff82169050919050565b60005b83811015611362578082015181840152602081019050611347565b83811115611371576000848401525b50505050565b7f4e487b7100000000000000000000000000000000000000000000000000000000600052601160045260246000fd5b6000601f19601f8301169050919050565b7f6d73672e73656e64657220646f65736e2774206861766520656e6f756768206260008201527f616c616e63650000000000000000000000000000000000000000000000000000602082015250565b7f46726f6d20646f65736e2774206861766520656e6f7567682062616c616e6365600082015250565b7f4e6f7420616c6c6f77656420746f207370656e642074686973206d7563680000600082015250565b611461816112ef565b811461146c57600080fd5b50565b6114788161132d565b811461148357600080fd5b5056fea2646970667358221220bfeabed5158f7cc4a6e6ee7094e8b9550ad60406740416dbbe1056490a14769364736f6c63430008010033",
  "immutableReferences": {},
  "source": "// SPDX-License-Identifier: MIT \r\npragma solidity ^0.8.0;\r\n\r\nimport \"./ERC20.sol\";\r\n\r\ncontract LeaseToken {\r\n    ERC20 erc20Contract;\r\n    uint256 supplyLimit;\r\n    uint256 currentSupply;\r\n    address owner;\r\n    \r\n    constructor() {\r\n        ERC20 e = new ERC20();\r\n        erc20Contract = e;\r\n        owner = msg.sender;\r\n        supplyLimit = 1e18; // 1e18 LeaseToken supply limit\r\n    }\r\n\r\n    event getCredit(uint256 credit);\r\n    event creditChecked(uint256 credit);\r\n    event transferCredit(address recipient, uint256 credit);\r\n    event transferCreditFrom(address sender, address recipient, uint256 credit);\r\n    event approveCredit(address spender, uint256 credit);\r\n\r\n\r\n    function getLeaseToken() public payable {\r\n        uint256 leaseToken = msg.value / 1e16; // Get LeaseToken eligible (1e16 wei = 1 LeaseToken OR 0.01 ETH = 1 LeaseToken)\r\n        require(erc20Contract.totalSupply() + leaseToken < supplyLimit, \"LeaseToken supply is not enough\");\r\n        emit getCredit(leaseToken);\r\n        erc20Contract.mint(msg.sender, leaseToken);\r\n        \r\n    }\r\n\r\n    function checkLeaseToken(address recipient) public returns(uint256) {\r\n        uint256 leaseToken = erc20Contract.balanceOf(recipient);\r\n        emit creditChecked(leaseToken);\r\n        return leaseToken;\r\n    }\r\n\r\n    function transferLeaseToken(address recipient, uint256 leaseToken) public {\r\n        erc20Contract.transfer(recipient, leaseToken);\r\n        emit transferCredit(recipient, leaseToken);\r\n    }\r\n\r\n    function transferLeaseTokenFrom(address sender, address recipient, uint256 leaseToken) public {\r\n        erc20Contract.transferFrom(sender, recipient, leaseToken);\r\n        emit transferCreditFrom(sender, recipient, leaseToken);\r\n    }\r\n\r\n    function approveLeaseToken(address spender, uint256 leaseToken) public {\r\n        erc20Contract.approve(spender, leaseToken);\r\n        emit approveCredit(spender, leaseToken);\r\n    }\r\n\r\n}",
  "sourcePath": "C:\\Users\\Bransome Tan Yi Hao\\OneDrive - National University of Singapore\\Desktop\\IS4302\\is4302-project\\contracts\\LeaseToken.sol",
  "compiler": {
    "name": "solc",
    "version": "0.8.1+commit.df193b15.Emscripten.clang"
  },
  "schemaVersion": "3.4.16",
  "updatedAt": "2024-04-06T16:08:11.350Z",
  "devdoc": {
    "kind": "dev",
    "methods": {},
    "version": 1
  },
  "userdoc": {
    "kind": "user",
    "methods": {},
    "version": 1
  }
}