{
  "contractName": "LeaseToken",
  "abi": [
    {
      "inputs": [],
      "stateMutability": "nonpayable",
      "type": "constructor"
    },
    {
      "anonymous": false,
      "inputs": [
        {
          "indexed": false,
          "internalType": "address",
          "name": "sender",
          "type": "address"
        },
        {
          "indexed": false,
          "internalType": "address",
          "name": "spender",
          "type": "address"
        },
        {
          "indexed": false,
          "internalType": "uint256",
          "name": "credit",
          "type": "uint256"
        }
      ],
      "name": "approveCredit",
      "type": "event"
    },
    {
      "anonymous": false,
      "inputs": [
        {
          "indexed": false,
          "internalType": "uint256",
          "name": "credit",
          "type": "uint256"
        }
      ],
      "name": "getCredit",
      "type": "event"
    },
    {
      "anonymous": false,
      "inputs": [
        {
          "indexed": false,
          "internalType": "address",
          "name": "sender",
          "type": "address"
        },
        {
          "indexed": false,
          "internalType": "address",
          "name": "recipient",
          "type": "address"
        },
        {
          "indexed": false,
          "internalType": "uint256",
          "name": "credit",
          "type": "uint256"
        }
      ],
      "name": "transferCredit",
      "type": "event"
    },
    {
      "anonymous": false,
      "inputs": [
        {
          "indexed": false,
          "internalType": "address",
          "name": "spender",
          "type": "address"
        },
        {
          "indexed": false,
          "internalType": "address",
          "name": "sender",
          "type": "address"
        },
        {
          "indexed": false,
          "internalType": "address",
          "name": "recipient",
          "type": "address"
        },
        {
          "indexed": false,
          "internalType": "uint256",
          "name": "credit",
          "type": "uint256"
        }
      ],
      "name": "transferCreditFrom",
      "type": "event"
    },
    {
      "inputs": [],
      "name": "getLeaseToken",
      "outputs": [],
      "stateMutability": "payable",
      "type": "function",
      "payable": true
    },
    {
      "inputs": [
        {
          "internalType": "address",
          "name": "recipient",
          "type": "address"
        }
      ],
      "name": "checkLeaseToken",
      "outputs": [
        {
          "internalType": "uint256",
          "name": "",
          "type": "uint256"
        }
      ],
      "stateMutability": "view",
      "type": "function",
      "constant": true
    },
    {
      "inputs": [
        {
          "internalType": "address",
          "name": "sender",
          "type": "address"
        },
        {
          "internalType": "address",
          "name": "recipient",
          "type": "address"
        },
        {
          "internalType": "uint256",
          "name": "leaseToken",
          "type": "uint256"
        }
      ],
      "name": "transferLeaseToken",
      "outputs": [],
      "stateMutability": "nonpayable",
      "type": "function"
    },
    {
      "inputs": [
        {
          "internalType": "address",
          "name": "spender",
          "type": "address"
        },
        {
          "internalType": "address",
          "name": "sender",
          "type": "address"
        },
        {
          "internalType": "address",
          "name": "recipient",
          "type": "address"
        },
        {
          "internalType": "uint256",
          "name": "leaseToken",
          "type": "uint256"
        }
      ],
      "name": "transferLeaseTokenFrom",
      "outputs": [],
      "stateMutability": "nonpayable",
      "type": "function"
    },
    {
      "inputs": [
        {
          "internalType": "address",
          "name": "sender",
          "type": "address"
        },
        {
          "internalType": "address",
          "name": "spender",
          "type": "address"
        },
        {
          "internalType": "uint256",
          "name": "leaseToken",
          "type": "uint256"
        }
      ],
      "name": "approveLeaseToken",
      "outputs": [],
      "stateMutability": "nonpayable",
      "type": "function"
    },
    {
      "inputs": [
        {
          "internalType": "address",
          "name": "sender",
          "type": "address"
        },
        {
          "internalType": "uint256",
          "name": "leaseToken",
          "type": "uint256"
        }
      ],
      "name": "burnLeaseToken",
      "outputs": [],
      "stateMutability": "nonpayable",
      "type": "function"
    },
    {
      "inputs": [
        {
          "internalType": "address",
          "name": "_owner",
          "type": "address"
        },
        {
          "internalType": "address",
          "name": "spender",
          "type": "address"
        }
      ],
      "name": "checkLeaseTokenAllowance",
      "outputs": [
        {
          "internalType": "uint256",
          "name": "",
          "type": "uint256"
        }
      ],
      "stateMutability": "view",
      "type": "function",
      "constant": true
    }
  ],
  "bytecode": "0x608060405234801561001057600080fd5b50600060405161001f906100d4565b604051809103906000f08015801561003b573d6000803e3d6000fd5b509050806000806101000a81548173ffffffffffffffffffffffffffffffffffffffff021916908373ffffffffffffffffffffffffffffffffffffffff16021790555033600360006101000a81548173ffffffffffffffffffffffffffffffffffffffff021916908373ffffffffffffffffffffffffffffffffffffffff160217905550670de0b6b3a7640000600181905550506100e1565b6121e180610eb083390190565b610dc0806100f06000396000f3fe6080604052600436106100705760003560e01c8063a3e366041161004e578063a3e36604146100d1578063b4e59fa31461010e578063d97d12dc14610137578063f5accf9f1461016057610070565b80631c8c4c3a14610075578063403e2a631461009e57806349a9a71e146100c7575b600080fd5b34801561008157600080fd5b5061009c600480360381019061009791906109eb565b61019d565b005b3480156100aa57600080fd5b506100c560048036038101906100c09190610939565b61024f565b005b6100cf610344565b005b3480156100dd57600080fd5b506100f860048036038101906100f391906108d4565b61052f565b6040516101059190610bc3565b60405180910390f35b34801561011a57600080fd5b506101356004803603810190610130919061099c565b6105e6565b005b34801561014357600080fd5b5061015e6004803603810190610159919061099c565b6106d6565b005b34801561016c57600080fd5b50610187600480360381019061018291906108fd565b6107c6565b6040516101949190610bc3565b60405180910390f35b60008054906101000a900473ffffffffffffffffffffffffffffffffffffffff1673ffffffffffffffffffffffffffffffffffffffff16639dc29fac83836040518363ffffffff1660e01b81526004016101f8929190610b7a565b602060405180830381600087803b15801561021257600080fd5b505af1158015610226573d6000803e3d6000fd5b505050506040513d601f19601f8201168201806040525081019061024a9190610a27565b505050565b60008054906101000a900473ffffffffffffffffffffffffffffffffffffffff1673ffffffffffffffffffffffffffffffffffffffff166390e12032858585856040518563ffffffff1660e01b81526004016102ae9493929190610afe565b602060405180830381600087803b1580156102c857600080fd5b505af11580156102dc573d6000803e3d6000fd5b505050506040513d601f19601f820116820180604052508101906103009190610a27565b507f0e22ac2a452f51f017cead258306380498b3d5b8371afaea8fa4bd8982b2b842848484846040516103369493929190610afe565b60405180910390a150505050565b6000662386f26fc10000346103599190610c45565b90506001548160008054906101000a900473ffffffffffffffffffffffffffffffffffffffff1673ffffffffffffffffffffffffffffffffffffffff166318160ddd6040518163ffffffff1660e01b815260040160206040518083038186803b1580156103c557600080fd5b505afa1580156103d9573d6000803e3d6000fd5b505050506040513d601f19601f820116820180604052508101906103fd9190610a50565b6104079190610bef565b10610447576040517f08c379a000000000000000000000000000000000000000000000000000000000815260040161043e90610ba3565b60405180910390fd5b7fda304e4d7bc3b2f06a7b80d68aee1831ef4fa438957b8de719cae3ceffe250d5816040516104769190610bc3565b60405180910390a160008054906101000a900473ffffffffffffffffffffffffffffffffffffffff1673ffffffffffffffffffffffffffffffffffffffff166340c10f1933836040518363ffffffff1660e01b81526004016104d9929190610b7a565b602060405180830381600087803b1580156104f357600080fd5b505af1158015610507573d6000803e3d6000fd5b505050506040513d601f19601f8201168201806040525081019061052b9190610a27565b5050565b60008060008054906101000a900473ffffffffffffffffffffffffffffffffffffffff1673ffffffffffffffffffffffffffffffffffffffff166370a08231846040518263ffffffff1660e01b815260040161058b9190610aba565b60206040518083038186803b1580156105a357600080fd5b505afa1580156105b7573d6000803e3d6000fd5b505050506040513d601f19601f820116820180604052508101906105db9190610a50565b905080915050919050565b60008054906101000a900473ffffffffffffffffffffffffffffffffffffffff1673ffffffffffffffffffffffffffffffffffffffff16631ac92e878484846040518463ffffffff1660e01b815260040161064393929190610b43565b602060405180830381600087803b15801561065d57600080fd5b505af1158015610671573d6000803e3d6000fd5b505050506040513d601f19601f820116820180604052508101906106959190610a27565b507f9c19abb189bb680a32fb1d23084c9fb20aded2b65d26320cdd08bd01b3818b028383836040516106c993929190610b43565b60405180910390a1505050565b60008054906101000a900473ffffffffffffffffffffffffffffffffffffffff1673ffffffffffffffffffffffffffffffffffffffff166372e1ffaf8484846040518463ffffffff1660e01b815260040161073393929190610b43565b602060405180830381600087803b15801561074d57600080fd5b505af1158015610761573d6000803e3d6000fd5b505050506040513d601f19601f820116820180604052508101906107859190610a27565b507f4aedbd7c60abbdae8f65fef003416f9f28d8bdefb056668f20d56f4706d8223d8383836040516107b993929190610b43565b60405180910390a1505050565b60008060008054906101000a900473ffffffffffffffffffffffffffffffffffffffff1673ffffffffffffffffffffffffffffffffffffffff1663dd62ed3e85856040518363ffffffff1660e01b8152600401610824929190610ad5565b60206040518083038186803b15801561083c57600080fd5b505afa158015610850573d6000803e3d6000fd5b505050506040513d601f19601f820116820180604052508101906108749190610a50565b90508091505092915050565b60008135905061088f81610d45565b92915050565b6000815190506108a481610d5c565b92915050565b6000813590506108b981610d73565b92915050565b6000815190506108ce81610d73565b92915050565b6000602082840312156108e657600080fd5b60006108f484828501610880565b91505092915050565b6000806040838503121561091057600080fd5b600061091e85828601610880565b925050602061092f85828601610880565b9150509250929050565b6000806000806080858703121561094f57600080fd5b600061095d87828801610880565b945050602061096e87828801610880565b935050604061097f87828801610880565b9250506060610990878288016108aa565b91505092959194509250565b6000806000606084860312156109b157600080fd5b60006109bf86828701610880565b93505060206109d086828701610880565b92505060406109e1868287016108aa565b9150509250925092565b600080604083850312156109fe57600080fd5b6000610a0c85828601610880565b9250506020610a1d858286016108aa565b9150509250929050565b600060208284031215610a3957600080fd5b6000610a4784828501610895565b91505092915050565b600060208284031215610a6257600080fd5b6000610a70848285016108bf565b91505092915050565b610a8281610c76565b82525050565b6000610a95601f83610bde565b9150610aa082610d1c565b602082019050919050565b610ab481610cb4565b82525050565b6000602082019050610acf6000830184610a79565b92915050565b6000604082019050610aea6000830185610a79565b610af76020830184610a79565b9392505050565b6000608082019050610b136000830187610a79565b610b206020830186610a79565b610b2d6040830185610a79565b610b3a6060830184610aab565b95945050505050565b6000606082019050610b586000830186610a79565b610b656020830185610a79565b610b726040830184610aab565b949350505050565b6000604082019050610b8f6000830185610a79565b610b9c6020830184610aab565b9392505050565b60006020820190508181036000830152610bbc81610a88565b9050919050565b6000602082019050610bd86000830184610aab565b92915050565b600082825260208201905092915050565b6000610bfa82610cb4565b9150610c0583610cb4565b9250827fffffffffffffffffffffffffffffffffffffffffffffffffffffffffffffffff03821115610c3a57610c39610cbe565b5b828201905092915050565b6000610c5082610cb4565b9150610c5b83610cb4565b925082610c6b57610c6a610ced565b5b828204905092915050565b6000610c8182610c94565b9050919050565b60008115159050919050565b600073ffffffffffffffffffffffffffffffffffffffff82169050919050565b6000819050919050565b7f4e487b7100000000000000000000000000000000000000000000000000000000600052601160045260246000fd5b7f4e487b7100000000000000000000000000000000000000000000000000000000600052601260045260246000fd5b7f4c65617365546f6b656e20737570706c79206973206e6f7420656e6f75676800600082015250565b610d4e81610c76565b8114610d5957600080fd5b50565b610d6581610c88565b8114610d7057600080fd5b50565b610d7c81610cb4565b8114610d8757600080fd5b5056fea26469706673582212202db68e7db3f24f4853c7040c948a665f5ab7377c6f0ce2f365cb1b622e0bf52064736f6c63430008010033608060405260008060006101000a81548160ff02191690831515021790555033600060016101000a81548173ffffffffffffffffffffffffffffffffffffffff021916908373ffffffffffffffffffffffffffffffffffffffff16021790555034801561006b57600080fd5b506121668061007b6000396000f3fe608060405234801561001057600080fd5b50600436106101165760003560e01c806372e1ffaf116100a257806390e120321161007157806390e120321461030d57806395d89b411461033d5780639dc29fac1461035b578063a9059cbb1461038b578063dd62ed3e146103bb57610116565b806372e1ffaf146102835780637d64bcb4146102b3578063893d20e8146102d15780638da5cb5b146102ef57610116565b80631ac92e87116100e95780631ac92e87146101a557806323b872dd146101d5578063313ce5671461020557806340c10f191461022357806370a082311461025357610116565b806305d2035b1461011b57806306fdde0314610139578063095ea7b31461015757806318160ddd14610187575b600080fd5b6101236103eb565b6040516101309190611cb3565b60405180910390f35b6101416103fc565b60405161014e9190611cce565b60405180910390f35b610171600480360381019061016c9190611acf565b610435565b60405161017e9190611cb3565b60405180910390f35b61018f610527565b60405161019c9190611df0565b60405180910390f35b6101bf60048036038101906101ba9190611a80565b610531565b6040516101cc9190611cb3565b60405180910390f35b6101ef60048036038101906101ea9190611a80565b610624565b6040516101fc9190611cb3565b60405180910390f35b61020d610a49565b60405161021a9190611e0b565b60405180910390f35b61023d60048036038101906102389190611acf565b610a4e565b60405161024a9190611cb3565b60405180910390f35b61026d600480360381019061026891906119b8565b610c3a565b60405161027a9190611df0565b60405180910390f35b61029d60048036038101906102989190611a80565b610c83565b6040516102aa9190611cb3565b60405180910390f35b6102bb610f10565b6040516102c89190611cb3565b60405180910390f35b6102d9610fd0565b6040516102e69190611c98565b60405180910390f35b6102f7610ff9565b6040516103049190611c98565b60405180910390f35b61032760048036038101906103229190611a1d565b61101f565b6040516103349190611cb3565b60405180910390f35b61034561147b565b6040516103529190611cce565b60405180910390f35b61037560048036038101906103709190611acf565b6114b4565b6040516103829190611cb3565b60405180910390f35b6103a560048036038101906103a09190611acf565b611617565b6040516103b29190611cb3565b60405180910390f35b6103d560048036038101906103d091906119e1565b61186d565b6040516103e29190611df0565b60405180910390f35b60008054906101000a900460ff1681565b6040518060400160405280600981526020017f44696365546f6b656e000000000000000000000000000000000000000000000081525081565b600081600160003273ffffffffffffffffffffffffffffffffffffffff1673ffffffffffffffffffffffffffffffffffffffff16815260200190815260200160002060008573ffffffffffffffffffffffffffffffffffffffff1673ffffffffffffffffffffffffffffffffffffffff168152602001908152602001600020819055508273ffffffffffffffffffffffffffffffffffffffff163273ffffffffffffffffffffffffffffffffffffffff167f8c5be1e5ebec7d5bd14f71427d1e84f3dd0314c0f7b2291e5b200ac8c7c3b925846040516105159190611df0565b60405180910390a36001905092915050565b6000600354905090565b600081600160008673ffffffffffffffffffffffffffffffffffffffff1673ffffffffffffffffffffffffffffffffffffffff16815260200190815260200160002060008573ffffffffffffffffffffffffffffffffffffffff1673ffffffffffffffffffffffffffffffffffffffff168152602001908152602001600020819055508273ffffffffffffffffffffffffffffffffffffffff168473ffffffffffffffffffffffffffffffffffffffff167f8c5be1e5ebec7d5bd14f71427d1e84f3dd0314c0f7b2291e5b200ac8c7c3b925846040516106119190611df0565b60405180910390a3600190509392505050565b60008073ffffffffffffffffffffffffffffffffffffffff168373ffffffffffffffffffffffffffffffffffffffff16141561065f57600080fd5b600260008573ffffffffffffffffffffffffffffffffffffffff1673ffffffffffffffffffffffffffffffffffffffff168152602001908152602001600020548211156106e1576040517f08c379a00000000000000000000000000000000000000000000000000000000081526004016106d890611d90565b60405180910390fd5b600160008573ffffffffffffffffffffffffffffffffffffffff1673ffffffffffffffffffffffffffffffffffffffff16815260200190815260200160002060003273ffffffffffffffffffffffffffffffffffffffff1673ffffffffffffffffffffffffffffffffffffffff168152602001908152602001600020548211156107a0576040517f08c379a000000000000000000000000000000000000000000000000000000000815260040161079790611dd0565b60405180910390fd5b6107f282600260008773ffffffffffffffffffffffffffffffffffffffff1673ffffffffffffffffffffffffffffffffffffffff168152602001908152602001600020546118f490919063ffffffff16565b600260008673ffffffffffffffffffffffffffffffffffffffff1673ffffffffffffffffffffffffffffffffffffffff1681526020019081526020016000208190555061088782600260008673ffffffffffffffffffffffffffffffffffffffff1673ffffffffffffffffffffffffffffffffffffffff1681526020019081526020016000205461194190919063ffffffff16565b600260008573ffffffffffffffffffffffffffffffffffffffff1673ffffffffffffffffffffffffffffffffffffffff1681526020019081526020016000208190555061095982600160008773ffffffffffffffffffffffffffffffffffffffff1673ffffffffffffffffffffffffffffffffffffffff16815260200190815260200160002060003273ffffffffffffffffffffffffffffffffffffffff1673ffffffffffffffffffffffffffffffffffffffff168152602001908152602001600020546118f490919063ffffffff16565b600160008673ffffffffffffffffffffffffffffffffffffffff1673ffffffffffffffffffffffffffffffffffffffff16815260200190815260200160002060003273ffffffffffffffffffffffffffffffffffffffff1673ffffffffffffffffffffffffffffffffffffffff168152602001908152602001600020819055508273ffffffffffffffffffffffffffffffffffffffff168473ffffffffffffffffffffffffffffffffffffffff167fddf252ad1be2c89b69c2b068fc378daa952ba7f163c4a11628f55a4df523b3ef84604051610a369190611df0565b60405180910390a3600190509392505050565b601281565b60008060019054906101000a900473ffffffffffffffffffffffffffffffffffffffff1673ffffffffffffffffffffffffffffffffffffffff163373ffffffffffffffffffffffffffffffffffffffff1614610aa957600080fd5b60008054906101000a900460ff1615610ac157600080fd5b610ad68260035461194190919063ffffffff16565b600381905550610b2e82600260008673ffffffffffffffffffffffffffffffffffffffff1673ffffffffffffffffffffffffffffffffffffffff1681526020019081526020016000205461194190919063ffffffff16565b600260008573ffffffffffffffffffffffffffffffffffffffff1673ffffffffffffffffffffffffffffffffffffffff16815260200190815260200160002081905550610b7b3283610435565b508273ffffffffffffffffffffffffffffffffffffffff167f0f6798a560793a54c3bcfe86a93cde1e73087d944c0ea20544137d412139688583604051610bc29190611df0565b60405180910390a28273ffffffffffffffffffffffffffffffffffffffff16600073ffffffffffffffffffffffffffffffffffffffff167fddf252ad1be2c89b69c2b068fc378daa952ba7f163c4a11628f55a4df523b3ef84604051610c289190611df0565b60405180910390a36001905092915050565b6000600260008373ffffffffffffffffffffffffffffffffffffffff1673ffffffffffffffffffffffffffffffffffffffff168152602001908152602001600020549050919050565b60008073ffffffffffffffffffffffffffffffffffffffff168373ffffffffffffffffffffffffffffffffffffffff161415610cf4576040517f08c379a0000000000000000000000000000000000000000000000000000000008152600401610ceb90611d10565b60405180910390fd5b600260008573ffffffffffffffffffffffffffffffffffffffff1673ffffffffffffffffffffffffffffffffffffffff16815260200190815260200160002054821115610d76576040517f08c379a0000000000000000000000000000000000000000000000000000000008152600401610d6d90611d30565b60405180910390fd5b610dc882600260008773ffffffffffffffffffffffffffffffffffffffff1673ffffffffffffffffffffffffffffffffffffffff168152602001908152602001600020546118f490919063ffffffff16565b600260008673ffffffffffffffffffffffffffffffffffffffff1673ffffffffffffffffffffffffffffffffffffffff16815260200190815260200160002081905550610e5d82600260008673ffffffffffffffffffffffffffffffffffffffff1673ffffffffffffffffffffffffffffffffffffffff1681526020019081526020016000205461194190919063ffffffff16565b600260008573ffffffffffffffffffffffffffffffffffffffff1673ffffffffffffffffffffffffffffffffffffffff168152602001908152602001600020819055508273ffffffffffffffffffffffffffffffffffffffff168473ffffffffffffffffffffffffffffffffffffffff167fddf252ad1be2c89b69c2b068fc378daa952ba7f163c4a11628f55a4df523b3ef84604051610efd9190611df0565b60405180910390a3600190509392505050565b60008060019054906101000a900473ffffffffffffffffffffffffffffffffffffffff1673ffffffffffffffffffffffffffffffffffffffff163373ffffffffffffffffffffffffffffffffffffffff1614610f6b57600080fd5b60008054906101000a900460ff1615610f8357600080fd5b60016000806101000a81548160ff0219169083151502179055507fae5184fba832cb2b1f702aca6117b8d265eaf03ad33eb133f19dde0f5920fa0860405160405180910390a16001905090565b60008060019054906101000a900473ffffffffffffffffffffffffffffffffffffffff16905090565b600060019054906101000a900473ffffffffffffffffffffffffffffffffffffffff1681565b60008073ffffffffffffffffffffffffffffffffffffffff168373ffffffffffffffffffffffffffffffffffffffff161415611090576040517f08c379a000000000000000000000000000000000000000000000000000000000815260040161108790611d50565b60405180910390fd5b600260008573ffffffffffffffffffffffffffffffffffffffff1673ffffffffffffffffffffffffffffffffffffffff16815260200190815260200160002054821115611112576040517f08c379a000000000000000000000000000000000000000000000000000000000815260040161110990611cf0565b60405180910390fd5b600160008573ffffffffffffffffffffffffffffffffffffffff1673ffffffffffffffffffffffffffffffffffffffff16815260200190815260200160002060008673ffffffffffffffffffffffffffffffffffffffff1673ffffffffffffffffffffffffffffffffffffffff168152602001908152602001600020548211156111d1576040517f08c379a00000000000000000000000000000000000000000000000000000000081526004016111c890611db0565b60405180910390fd5b61122382600260008773ffffffffffffffffffffffffffffffffffffffff1673ffffffffffffffffffffffffffffffffffffffff168152602001908152602001600020546118f490919063ffffffff16565b600260008673ffffffffffffffffffffffffffffffffffffffff1673ffffffffffffffffffffffffffffffffffffffff168152602001908152602001600020819055506112b882600260008673ffffffffffffffffffffffffffffffffffffffff1673ffffffffffffffffffffffffffffffffffffffff1681526020019081526020016000205461194190919063ffffffff16565b600260008573ffffffffffffffffffffffffffffffffffffffff1673ffffffffffffffffffffffffffffffffffffffff1681526020019081526020016000208190555061138a82600160008773ffffffffffffffffffffffffffffffffffffffff1673ffffffffffffffffffffffffffffffffffffffff16815260200190815260200160002060008873ffffffffffffffffffffffffffffffffffffffff1673ffffffffffffffffffffffffffffffffffffffff168152602001908152602001600020546118f490919063ffffffff16565b600160008673ffffffffffffffffffffffffffffffffffffffff1673ffffffffffffffffffffffffffffffffffffffff16815260200190815260200160002060008773ffffffffffffffffffffffffffffffffffffffff1673ffffffffffffffffffffffffffffffffffffffff168152602001908152602001600020819055508273ffffffffffffffffffffffffffffffffffffffff168473ffffffffffffffffffffffffffffffffffffffff167fddf252ad1be2c89b69c2b068fc378daa952ba7f163c4a11628f55a4df523b3ef846040516114679190611df0565b60405180910390a360019050949350505050565b6040518060400160405280600281526020017f445400000000000000000000000000000000000000000000000000000000000081525081565b60008060019054906101000a900473ffffffffffffffffffffffffffffffffffffffff1673ffffffffffffffffffffffffffffffffffffffff163373ffffffffffffffffffffffffffffffffffffffff161461150f57600080fd5b611524826003546118f490919063ffffffff16565b60038190555061157c82600260008673ffffffffffffffffffffffffffffffffffffffff1673ffffffffffffffffffffffffffffffffffffffff168152602001908152602001600020546118f490919063ffffffff16565b600260008573ffffffffffffffffffffffffffffffffffffffff1673ffffffffffffffffffffffffffffffffffffffff168152602001908152602001600020819055508273ffffffffffffffffffffffffffffffffffffffff167fcc16f5dbb4873280815c1ee09dbd06736cffcc184412cf7a71a0fdb75d397ca5836040516116059190611df0565b60405180910390a26001905092915050565b60008073ffffffffffffffffffffffffffffffffffffffff168373ffffffffffffffffffffffffffffffffffffffff16141561165257600080fd5b600260003273ffffffffffffffffffffffffffffffffffffffff1673ffffffffffffffffffffffffffffffffffffffff168152602001908152602001600020548211156116d4576040517f08c379a00000000000000000000000000000000000000000000000000000000081526004016116cb90611d70565b60405180910390fd5b61172682600260003273ffffffffffffffffffffffffffffffffffffffff1673ffffffffffffffffffffffffffffffffffffffff168152602001908152602001600020546118f490919063ffffffff16565b600260003273ffffffffffffffffffffffffffffffffffffffff1673ffffffffffffffffffffffffffffffffffffffff168152602001908152602001600020819055506117bb82600260008673ffffffffffffffffffffffffffffffffffffffff1673ffffffffffffffffffffffffffffffffffffffff1681526020019081526020016000205461194190919063ffffffff16565b600260008573ffffffffffffffffffffffffffffffffffffffff1673ffffffffffffffffffffffffffffffffffffffff168152602001908152602001600020819055508273ffffffffffffffffffffffffffffffffffffffff163273ffffffffffffffffffffffffffffffffffffffff167fddf252ad1be2c89b69c2b068fc378daa952ba7f163c4a11628f55a4df523b3ef8460405161185b9190611df0565b60405180910390a36001905092915050565b6000600160008473ffffffffffffffffffffffffffffffffffffffff1673ffffffffffffffffffffffffffffffffffffffff16815260200190815260200160002060008373ffffffffffffffffffffffffffffffffffffffff1673ffffffffffffffffffffffffffffffffffffffff16815260200190815260200160002054905092915050565b60008282111561192d577f4e487b7100000000000000000000000000000000000000000000000000000000600052600160045260246000fd5b81836119399190611e98565b905092915050565b6000818361194f9190611e42565b905082811015611988577f4e487b7100000000000000000000000000000000000000000000000000000000600052600160045260246000fd5b92915050565b60008135905061199d81612102565b92915050565b6000813590506119b281612119565b92915050565b6000602082840312156119ca57600080fd5b60006119d88482850161198e565b91505092915050565b600080604083850312156119f457600080fd5b6000611a028582860161198e565b9250506020611a138582860161198e565b9150509250929050565b60008060008060808587031215611a3357600080fd5b6000611a418782880161198e565b9450506020611a528782880161198e565b9350506040611a638782880161198e565b9250506060611a74878288016119a3565b91505092959194509250565b600080600060608486031215611a9557600080fd5b6000611aa38682870161198e565b9350506020611ab48682870161198e565b9250506040611ac5868287016119a3565b9150509250925092565b60008060408385031215611ae257600080fd5b6000611af08582860161198e565b9250506020611b01858286016119a3565b9150509250929050565b611b1481611ecc565b82525050565b611b2381611ede565b82525050565b6000611b3482611e26565b611b3e8185611e31565b9350611b4e818560208601611f21565b611b5781611f83565b840191505092915050565b6000611b6f600283611e31565b9150611b7a82611f94565b602082019050919050565b6000611b92600283611e31565b9150611b9d82611fbd565b602082019050919050565b6000611bb5600283611e31565b9150611bc082611fe6565b602082019050919050565b6000611bd8600283611e31565b9150611be38261200f565b602082019050919050565b6000611bfb602683611e31565b9150611c0682612038565b604082019050919050565b6000611c1e602083611e31565b9150611c2982612087565b602082019050919050565b6000611c41600283611e31565b9150611c4c826120b0565b602082019050919050565b6000611c64601e83611e31565b9150611c6f826120d9565b602082019050919050565b611c8381611f0a565b82525050565b611c9281611f14565b82525050565b6000602082019050611cad6000830184611b0b565b92915050565b6000602082019050611cc86000830184611b1a565b92915050565b60006020820190508181036000830152611ce88184611b29565b905092915050565b60006020820190508181036000830152611d0981611b62565b9050919050565b60006020820190508181036000830152611d2981611b85565b9050919050565b60006020820190508181036000830152611d4981611ba8565b9050919050565b60006020820190508181036000830152611d6981611bcb565b9050919050565b60006020820190508181036000830152611d8981611bee565b9050919050565b60006020820190508181036000830152611da981611c11565b9050919050565b60006020820190508181036000830152611dc981611c34565b9050919050565b60006020820190508181036000830152611de981611c57565b9050919050565b6000602082019050611e056000830184611c7a565b92915050565b6000602082019050611e206000830184611c89565b92915050565b600081519050919050565b600082825260208201905092915050565b6000611e4d82611f0a565b9150611e5883611f0a565b9250827fffffffffffffffffffffffffffffffffffffffffffffffffffffffffffffffff03821115611e8d57611e8c611f54565b5b828201905092915050565b6000611ea382611f0a565b9150611eae83611f0a565b925082821015611ec157611ec0611f54565b5b828203905092915050565b6000611ed782611eea565b9050919050565b60008115159050919050565b600073ffffffffffffffffffffffffffffffffffffffff82169050919050565b6000819050919050565b600060ff82169050919050565b60005b83811015611f3f578082015181840152602081019050611f24565b83811115611f4e576000848401525b50505050565b7f4e487b7100000000000000000000000000000000000000000000000000000000600052601160045260246000fd5b6000601f19601f8301169050919050565b7f4332000000000000000000000000000000000000000000000000000000000000600082015250565b7f4131000000000000000000000000000000000000000000000000000000000000600082015250565b7f4132000000000000000000000000000000000000000000000000000000000000600082015250565b7f4331000000000000000000000000000000000000000000000000000000000000600082015250565b7f6d73672e73656e64657220646f65736e2774206861766520656e6f756768206260008201527f616c616e63650000000000000000000000000000000000000000000000000000602082015250565b7f46726f6d20646f65736e2774206861766520656e6f7567682062616c616e6365600082015250565b7f4333000000000000000000000000000000000000000000000000000000000000600082015250565b7f4e6f7420616c6c6f77656420746f207370656e642074686973206d7563680000600082015250565b61210b81611ecc565b811461211657600080fd5b50565b61212281611f0a565b811461212d57600080fd5b5056fea2646970667358221220d9c9a0785a50b6e7b9a2886c4109f5a2b381cff99095e0e1157ce402773bc1f464736f6c63430008010033",
  "immutableReferences": {},
  "source": "// SPDX-License-Identifier: MIT \r\npragma solidity ^0.8.0;\r\n\r\nimport \"./ERC20.sol\";\r\n\r\ncontract LeaseToken {\r\n    ERC20 erc20Contract;\r\n    uint256 supplyLimit;\r\n    uint256 currentSupply;\r\n    address owner;\r\n    \r\n    constructor() {\r\n        ERC20 e = new ERC20();\r\n        erc20Contract = e;\r\n        owner = msg.sender;\r\n        supplyLimit = 1e18; // 1e18 LeaseToken supply limit\r\n    }\r\n\r\n    event getCredit(uint256 credit);\r\n    event transferCredit(address sender, address recipient, uint256 credit);\r\n    event transferCreditFrom(address spender, address sender, address recipient, uint256 credit);\r\n    event approveCredit(address sender, address spender, uint256 credit);\r\n\r\n\r\n    function getLeaseToken() public payable {\r\n        uint256 leaseToken = msg.value / 1e16; // Get LeaseToken eligible (1e16 wei = 1 LeaseToken OR 0.01 ETH = 1 LeaseToken)\r\n        require(erc20Contract.totalSupply() + leaseToken < supplyLimit, \"LeaseToken supply is not enough\");\r\n        emit getCredit(leaseToken);\r\n        erc20Contract.mint(msg.sender, leaseToken);\r\n        \r\n    }\r\n\r\n    function checkLeaseToken(address recipient) public view returns(uint256) {\r\n        uint256 leaseToken = erc20Contract.balanceOf(recipient);\r\n        return leaseToken;\r\n    }\r\n\r\n    function transferLeaseToken(address sender, address recipient, uint256 leaseToken) public {\r\n        erc20Contract.transferLT(sender, recipient, leaseToken);\r\n        emit transferCredit(sender, recipient, leaseToken);\r\n    }\r\n\r\n    function transferLeaseTokenFrom(address spender, address sender, address recipient, uint256 leaseToken) public {\r\n        erc20Contract.transferFromLT(spender, sender, recipient, leaseToken);\r\n        emit transferCreditFrom(spender, sender, recipient, leaseToken);\r\n    }\r\n\r\n    function approveLeaseToken(address sender, address spender, uint256 leaseToken) public {\r\n        erc20Contract.approveLT(sender, spender, leaseToken);\r\n        emit approveCredit(sender, spender, leaseToken);\r\n    }\r\n\r\n    function burnLeaseToken(address sender, uint256 leaseToken) public {\r\n        erc20Contract.burn(sender, leaseToken);\r\n    }\r\n\r\n    function checkLeaseTokenAllowance(address _owner, address spender) public view returns(uint256) {\r\n        uint256 allowance = erc20Contract.allowance(_owner, spender);\r\n        return allowance;\r\n    }\r\n\r\n}",
  "sourcePath": "C:\\Users\\Bransome Tan Yi Hao\\OneDrive - National University of Singapore\\Desktop\\IS4302\\is4302-project\\contracts\\LeaseToken.sol",
  "compiler": {
    "name": "solc",
    "version": "0.8.1+commit.df193b15.Emscripten.clang"
  },
  "schemaVersion": "3.4.16",
  "updatedAt": "2024-04-10T15:25:47.903Z",
  "networkType": "ethereum",
  "devdoc": {
    "kind": "dev",
    "methods": {},
    "version": 1
  },
  "userdoc": {
    "kind": "user",
    "methods": {},
    "version": 1
  }
}