{
  "contractName": "PaymentEscrow",
  "abi": [
    {
      "inputs": [
        {
          "internalType": "address",
          "name": "_leaseTokenAddress",
          "type": "address"
        },
        {
          "internalType": "uint256",
          "name": "_protectionFee",
          "type": "uint256"
        },
        {
          "internalType": "uint256",
          "name": "_commissionFee",
          "type": "uint256"
        }
      ],
      "stateMutability": "nonpayable",
      "type": "constructor"
    },
    {
      "anonymous": false,
      "inputs": [
        {
          "indexed": false,
          "internalType": "uint256",
          "name": "commissionFee",
          "type": "uint256"
        }
      ],
      "name": "commissionFeeSet",
      "type": "event"
    },
    {
      "anonymous": false,
      "inputs": [
        {
          "indexed": false,
          "internalType": "address",
          "name": "payer",
          "type": "address"
        },
        {
          "indexed": false,
          "internalType": "address",
          "name": "payee",
          "type": "address"
        },
        {
          "indexed": false,
          "internalType": "uint256",
          "name": "amount",
          "type": "uint256"
        }
      ],
      "name": "paymentCreated",
      "type": "event"
    },
    {
      "anonymous": false,
      "inputs": [
        {
          "indexed": false,
          "internalType": "address",
          "name": "payer",
          "type": "address"
        },
        {
          "indexed": false,
          "internalType": "address",
          "name": "payee",
          "type": "address"
        },
        {
          "indexed": false,
          "internalType": "uint256",
          "name": "amount",
          "type": "uint256"
        }
      ],
      "name": "paymentPaid",
      "type": "event"
    },
    {
      "anonymous": false,
      "inputs": [
        {
          "indexed": false,
          "internalType": "address",
          "name": "payer",
          "type": "address"
        },
        {
          "indexed": false,
          "internalType": "address",
          "name": "payee",
          "type": "address"
        },
        {
          "indexed": false,
          "internalType": "uint256",
          "name": "amount",
          "type": "uint256"
        }
      ],
      "name": "paymentRefunded",
      "type": "event"
    },
    {
      "anonymous": false,
      "inputs": [
        {
          "indexed": false,
          "internalType": "address",
          "name": "payer",
          "type": "address"
        },
        {
          "indexed": false,
          "internalType": "address",
          "name": "payee",
          "type": "address"
        },
        {
          "indexed": false,
          "internalType": "uint256",
          "name": "amount",
          "type": "uint256"
        }
      ],
      "name": "paymentReleased",
      "type": "event"
    },
    {
      "anonymous": false,
      "inputs": [
        {
          "indexed": false,
          "internalType": "uint256",
          "name": "protectionFee",
          "type": "uint256"
        }
      ],
      "name": "protectionFeeSet",
      "type": "event"
    },
    {
      "anonymous": false,
      "inputs": [
        {
          "indexed": false,
          "internalType": "address",
          "name": "rentDisputeDAOAddress",
          "type": "address"
        }
      ],
      "name": "rentDisputeDAOAddressSet",
      "type": "event"
    },
    {
      "anonymous": false,
      "inputs": [
        {
          "indexed": false,
          "internalType": "address",
          "name": "rentalMarketplaceAddress",
          "type": "address"
        }
      ],
      "name": "rentalMarketplaceAddressSet",
      "type": "event"
    },
    {
      "anonymous": false,
      "inputs": [
        {
          "indexed": false,
          "internalType": "address",
          "name": "owner",
          "type": "address"
        },
        {
          "indexed": false,
          "internalType": "uint256",
          "name": "amount",
          "type": "uint256"
        }
      ],
      "name": "tokenWithdrawn",
      "type": "event"
    },
    {
      "inputs": [],
      "name": "commissionFee",
      "outputs": [
        {
          "internalType": "uint256",
          "name": "",
          "type": "uint256"
        }
      ],
      "stateMutability": "view",
      "type": "function",
      "constant": true
    },
    {
      "inputs": [],
      "name": "numOfPayments",
      "outputs": [
        {
          "internalType": "uint256",
          "name": "",
          "type": "uint256"
        }
      ],
      "stateMutability": "view",
      "type": "function",
      "constant": true
    },
    {
      "inputs": [
        {
          "internalType": "uint256",
          "name": "",
          "type": "uint256"
        }
      ],
      "name": "payments",
      "outputs": [
        {
          "internalType": "address",
          "name": "payer",
          "type": "address"
        },
        {
          "internalType": "address",
          "name": "payee",
          "type": "address"
        },
        {
          "internalType": "uint256",
          "name": "amount",
          "type": "uint256"
        },
        {
          "internalType": "enum PaymentEscrow.PaymentStatus",
          "name": "status",
          "type": "uint8"
        }
      ],
      "stateMutability": "view",
      "type": "function",
      "constant": true
    },
    {
      "inputs": [
        {
          "internalType": "address",
          "name": "_payer",
          "type": "address"
        },
        {
          "internalType": "address",
          "name": "_payee",
          "type": "address"
        },
        {
          "internalType": "uint256",
          "name": "_amount",
          "type": "uint256"
        }
      ],
      "name": "createPayment",
      "outputs": [],
      "stateMutability": "nonpayable",
      "type": "function"
    },
    {
      "inputs": [
        {
          "internalType": "uint256",
          "name": "_paymentId",
          "type": "uint256"
        }
      ],
      "name": "pay",
      "outputs": [],
      "stateMutability": "nonpayable",
      "type": "function"
    },
    {
      "inputs": [
        {
          "internalType": "uint256",
          "name": "_paymentId",
          "type": "uint256"
        }
      ],
      "name": "release",
      "outputs": [],
      "stateMutability": "nonpayable",
      "type": "function"
    },
    {
      "inputs": [
        {
          "internalType": "uint256",
          "name": "_paymentId",
          "type": "uint256"
        }
      ],
      "name": "refund",
      "outputs": [],
      "stateMutability": "nonpayable",
      "type": "function"
    },
    {
      "inputs": [],
      "name": "withdrawToken",
      "outputs": [],
      "stateMutability": "nonpayable",
      "type": "function"
    },
    {
      "inputs": [
        {
          "internalType": "uint256",
          "name": "_protectionFee",
          "type": "uint256"
        }
      ],
      "name": "setProtectionFee",
      "outputs": [],
      "stateMutability": "nonpayable",
      "type": "function"
    },
    {
      "inputs": [
        {
          "internalType": "uint256",
          "name": "_commissionFee",
          "type": "uint256"
        }
      ],
      "name": "setCommissionFee",
      "outputs": [],
      "stateMutability": "nonpayable",
      "type": "function"
    },
    {
      "inputs": [
        {
          "internalType": "address",
          "name": "_rentalMarketplaceAddress",
          "type": "address"
        }
      ],
      "name": "setRentalMarketplaceAddress",
      "outputs": [],
      "stateMutability": "nonpayable",
      "type": "function"
    },
    {
      "inputs": [
        {
          "internalType": "address",
          "name": "_rentDisputeDAOAddress",
          "type": "address"
        }
      ],
      "name": "setRentDisputeDAOAddress",
      "outputs": [],
      "stateMutability": "nonpayable",
      "type": "function"
    },
    {
      "inputs": [],
      "name": "getProtectionFee",
      "outputs": [
        {
          "internalType": "uint256",
          "name": "",
          "type": "uint256"
        }
      ],
      "stateMutability": "view",
      "type": "function",
      "constant": true
    },
    {
      "inputs": [],
      "name": "getCommissionFee",
      "outputs": [
        {
          "internalType": "uint256",
          "name": "",
          "type": "uint256"
        }
      ],
      "stateMutability": "view",
      "type": "function",
      "constant": true
    },
    {
      "inputs": [
        {
          "internalType": "uint256",
          "name": "_paymentId",
          "type": "uint256"
        }
      ],
      "name": "getPayment",
      "outputs": [
        {
          "components": [
            {
              "internalType": "address",
              "name": "payer",
              "type": "address"
            },
            {
              "internalType": "address",
              "name": "payee",
              "type": "address"
            },
            {
              "internalType": "uint256",
              "name": "amount",
              "type": "uint256"
            },
            {
              "internalType": "enum PaymentEscrow.PaymentStatus",
              "name": "status",
              "type": "uint8"
            }
          ],
          "internalType": "struct PaymentEscrow.Payment",
          "name": "",
          "type": "tuple"
        }
      ],
      "stateMutability": "view",
      "type": "function",
      "constant": true
    },
    {
      "inputs": [],
      "name": "getNumOfPayments",
      "outputs": [
        {
          "internalType": "uint256",
          "name": "",
          "type": "uint256"
        }
      ],
      "stateMutability": "view",
      "type": "function",
      "constant": true
    },
    {
      "inputs": [],
      "name": "getBalance",
      "outputs": [
        {
          "internalType": "uint256",
          "name": "",
          "type": "uint256"
        }
      ],
      "stateMutability": "nonpayable",
      "type": "function"
    },
    {
      "inputs": [],
      "name": "getOwner",
      "outputs": [
        {
          "internalType": "address",
          "name": "",
          "type": "address"
        }
      ],
      "stateMutability": "view",
      "type": "function",
      "constant": true
    },
    {
      "inputs": [],
      "name": "getContractAddress",
      "outputs": [
        {
          "internalType": "address",
          "name": "",
          "type": "address"
        }
      ],
      "stateMutability": "view",
      "type": "function",
      "constant": true
    },
    {
      "inputs": [],
      "name": "getRentalMarketplaceAddress",
      "outputs": [
        {
          "internalType": "address",
          "name": "",
          "type": "address"
        }
      ],
      "stateMutability": "view",
      "type": "function",
      "constant": true
    },
    {
      "inputs": [],
      "name": "getRentDisputeDAOAddress",
      "outputs": [
        {
          "internalType": "address",
          "name": "",
          "type": "address"
        }
      ],
      "stateMutability": "view",
      "type": "function",
      "constant": true
    }
  ],
  "bytecode": "0x6080604052600080553480156200001557600080fd5b506040516200291c3803806200291c83398181016040528101906200003b919062000102565b82600360006101000a81548173ffffffffffffffffffffffffffffffffffffffff021916908373ffffffffffffffffffffffffffffffffffffffff160217905550816001819055508060028190555033600560006101000a81548173ffffffffffffffffffffffffffffffffffffffff021916908373ffffffffffffffffffffffffffffffffffffffff160217905550505050620001ca565b600081519050620000e58162000196565b92915050565b600081519050620000fc81620001b0565b92915050565b6000806000606084860312156200011857600080fd5b60006200012886828701620000d4565b93505060206200013b86828701620000eb565b92505060406200014e86828701620000eb565b9150509250925092565b600062000165826200016c565b9050919050565b600073ffffffffffffffffffffffffffffffffffffffff82169050919050565b6000819050919050565b620001a18162000158565b8114620001ad57600080fd5b50565b620001bb816200018c565b8114620001c757600080fd5b50565b61274280620001da6000396000f3fe608060405234801561001057600080fd5b50600436106101375760003560e01c80637620287b116100b857806394c8dcb11161007c57806394c8dcb1146103175780639d7d496e14610335578063b530d81e14610353578063c290d69114610371578063ca628c781461038d578063df2422f01461039757610137565b80637620287b14610272578063794d0ed81461028e57806387d81789146102aa578063893d20e8146102dd578063895860e5146102fb57610137565b806335e88e2a116100ff57806335e88e2a146101e257806337bdc99b146101fe578063595d271b1461021a5780635b0f9317146102385780636fb1eb0c1461025457610137565b806312065fe01461013c5780631f7559ae1461015a578063278ecde1146101785780633280a8361461019457806332a2c5d0146101c4575b600080fd5b6101446103b5565b6040516101519190612295565b60405180910390f35b610162610469565b60405161016f9190612295565b60405180910390f35b610192600480360381019061018d9190611dd8565b610473565b005b6101ae60048036038101906101a99190611dd8565b6107cd565b6040516101bb919061227a565b60405180910390f35b6101cc610937565b6040516101d9919061205a565b60405180910390f35b6101fc60048036038101906101f79190611d60565b61093f565b005b61021860048036038101906102139190611dd8565b610abc565b005b610222610eb6565b60405161022f9190612295565b60405180910390f35b610252600480360381019061024d9190611dd8565b610ebc565b005b61025c610fd2565b6040516102699190612295565b60405180910390f35b61028c60048036038101906102879190611d60565b610fd8565b005b6102a860048036038101906102a39190611d89565b611155565b005b6102c460048036038101906102bf9190611dd8565b61141f565b6040516102d494939291906120ac565b60405180910390f35b6102e561149c565b6040516102f2919061205a565b60405180910390f35b61031560048036038101906103109190611dd8565b6114c6565b005b61031f6115dc565b60405161032c9190612295565b60405180910390f35b61033d6115e5565b60405161034a9190612295565b60405180910390f35b61035b6115ef565b604051610368919061205a565b60405180910390f35b61038b60048036038101906103869190611dd8565b611619565b005b610395611975565b005b61039f611c6b565b6040516103ac919061205a565b60405180910390f35b6000600360009054906101000a900473ffffffffffffffffffffffffffffffffffffffff1673ffffffffffffffffffffffffffffffffffffffff1663a3e36604306040518263ffffffff1660e01b8152600401610412919061205a565b602060405180830381600087803b15801561042c57600080fd5b505af1158015610440573d6000803e3d6000fd5b505050506040513d601f19601f820116820180604052508101906104649190611e01565b905090565b6000600154905090565b600760009054906101000a900473ffffffffffffffffffffffffffffffffffffffff1673ffffffffffffffffffffffffffffffffffffffff163373ffffffffffffffffffffffffffffffffffffffff1614610503576040517f08c379a00000000000000000000000000000000000000000000000000000000081526004016104fa9061215a565b60405180910390fd5b806000548110610548576040517f08c379a000000000000000000000000000000000000000000000000000000000815260040161053f9061217a565b60405180910390fd5b8160016003811115610583577f4e487b7100000000000000000000000000000000000000000000000000000000600052602160045260246000fd5b6004600083815260200190815260200160002060030160009054906101000a900460ff1660038111156105df577f4e487b7100000000000000000000000000000000000000000000000000000000600052602160045260246000fd5b1461061f576040517f08c379a00000000000000000000000000000000000000000000000000000000081526004016106169061219a565b60405180910390fd5b6000600460008581526020019081526020016000209050600360009054906101000a900473ffffffffffffffffffffffffffffffffffffffff1673ffffffffffffffffffffffffffffffffffffffff1663daa3b7e88260000160009054906101000a900473ffffffffffffffffffffffffffffffffffffffff1683600201546040518363ffffffff1660e01b81526004016106bb9291906120f1565b600060405180830381600087803b1580156106d557600080fd5b505af11580156106e9573d6000803e3d6000fd5b5050505060038160030160006101000a81548160ff0219169083600381111561073b577f4e487b7100000000000000000000000000000000000000000000000000000000600052602160045260246000fd5b02179055507fce02e9bea9450a1582b80e1fa9c7355ba3fa2e0c367b1c5fbaba84c08dde4c538160000160009054906101000a900473ffffffffffffffffffffffffffffffffffffffff168260010160009054906101000a900473ffffffffffffffffffffffffffffffffffffffff1683600201546040516107bf93929190612075565b60405180910390a150505050565b6107d5611c95565b600460008381526020019081526020016000206040518060800160405290816000820160009054906101000a900473ffffffffffffffffffffffffffffffffffffffff1673ffffffffffffffffffffffffffffffffffffffff1673ffffffffffffffffffffffffffffffffffffffff1681526020016001820160009054906101000a900473ffffffffffffffffffffffffffffffffffffffff1673ffffffffffffffffffffffffffffffffffffffff1673ffffffffffffffffffffffffffffffffffffffff168152602001600282015481526020016003820160009054906101000a900460ff1660038111156108f4577f4e487b7100000000000000000000000000000000000000000000000000000000600052602160045260246000fd5b600381111561092c577f4e487b7100000000000000000000000000000000000000000000000000000000600052602160045260246000fd5b815250509050919050565b600030905090565b600560009054906101000a900473ffffffffffffffffffffffffffffffffffffffff1673ffffffffffffffffffffffffffffffffffffffff163373ffffffffffffffffffffffffffffffffffffffff16146109cf576040517f08c379a00000000000000000000000000000000000000000000000000000000081526004016109c69061213a565b60405180910390fd5b80600073ffffffffffffffffffffffffffffffffffffffff168173ffffffffffffffffffffffffffffffffffffffff161415610a40576040517f08c379a0000000000000000000000000000000000000000000000000000000008152600401610a37906121fa565b60405180910390fd5b81600660006101000a81548173ffffffffffffffffffffffffffffffffffffffff021916908373ffffffffffffffffffffffffffffffffffffffff1602179055507f0d97c2edba1236202c4ab09d16f0f494318aab730a517c7d6f1770a2fdd7b63782604051610ab0919061205a565b60405180910390a15050565b600660009054906101000a900473ffffffffffffffffffffffffffffffffffffffff1673ffffffffffffffffffffffffffffffffffffffff163373ffffffffffffffffffffffffffffffffffffffff1614610b4c576040517f08c379a0000000000000000000000000000000000000000000000000000000008152600401610b439061225a565b60405180910390fd5b806000548110610b91576040517f08c379a0000000000000000000000000000000000000000000000000000000008152600401610b889061217a565b60405180910390fd5b8160016003811115610bcc577f4e487b7100000000000000000000000000000000000000000000000000000000600052602160045260246000fd5b6004600083815260200190815260200160002060030160009054906101000a900460ff166003811115610c28577f4e487b7100000000000000000000000000000000000000000000000000000000600052602160045260246000fd5b14610c68576040517f08c379a0000000000000000000000000000000000000000000000000000000008152600401610c5f9061219a565b60405180910390fd5b6000600460008581526020019081526020016000209050600360009054906101000a900473ffffffffffffffffffffffffffffffffffffffff1673ffffffffffffffffffffffffffffffffffffffff16630ab1a7073083600201546040518363ffffffff1660e01b8152600401610ce09291906120f1565b600060405180830381600087803b158015610cfa57600080fd5b505af1158015610d0e573d6000803e3d6000fd5b50505050600360009054906101000a900473ffffffffffffffffffffffffffffffffffffffff1673ffffffffffffffffffffffffffffffffffffffff1663daa3b7e88260010160009054906101000a900473ffffffffffffffffffffffffffffffffffffffff166002548460020154610d8791906122c1565b6040518363ffffffff1660e01b8152600401610da49291906120f1565b600060405180830381600087803b158015610dbe57600080fd5b505af1158015610dd2573d6000803e3d6000fd5b5050505060028160030160006101000a81548160ff02191690836003811115610e24577f4e487b7100000000000000000000000000000000000000000000000000000000600052602160045260246000fd5b02179055507f0bb3357d6f2cf56ed1ef16717520f9ce78dac340ce04e515ca5b648fb29d81dd8160000160009054906101000a900473ffffffffffffffffffffffffffffffffffffffff168260010160009054906101000a900473ffffffffffffffffffffffffffffffffffffffff168360020154604051610ea893929190612075565b60405180910390a150505050565b60005481565b600560009054906101000a900473ffffffffffffffffffffffffffffffffffffffff1673ffffffffffffffffffffffffffffffffffffffff163373ffffffffffffffffffffffffffffffffffffffff1614610f4c576040517f08c379a0000000000000000000000000000000000000000000000000000000008152600401610f439061213a565b60405180910390fd5b8060008111610f90576040517f08c379a0000000000000000000000000000000000000000000000000000000008152600401610f879061223a565b60405180910390fd5b816001819055507f20c5d2426bf7f0fa5dfb56e676130c81f58903a4373636d9821ea85df121bfe882604051610fc69190612295565b60405180910390a15050565b60025481565b600560009054906101000a900473ffffffffffffffffffffffffffffffffffffffff1673ffffffffffffffffffffffffffffffffffffffff163373ffffffffffffffffffffffffffffffffffffffff1614611068576040517f08c379a000000000000000000000000000000000000000000000000000000000815260040161105f9061213a565b60405180910390fd5b80600073ffffffffffffffffffffffffffffffffffffffff168173ffffffffffffffffffffffffffffffffffffffff1614156110d9576040517f08c379a00000000000000000000000000000000000000000000000000000000081526004016110d0906121ba565b60405180910390fd5b81600760006101000a81548173ffffffffffffffffffffffffffffffffffffffff021916908373ffffffffffffffffffffffffffffffffffffffff1602179055507f805e9277349a1e91b496994a9be376a13fc2682f022c4acdff7f8c50546710ac82604051611149919061205a565b60405180910390a15050565b600660009054906101000a900473ffffffffffffffffffffffffffffffffffffffff1673ffffffffffffffffffffffffffffffffffffffff163373ffffffffffffffffffffffffffffffffffffffff1614806111fe5750600760009054906101000a900473ffffffffffffffffffffffffffffffffffffffff1673ffffffffffffffffffffffffffffffffffffffff163373ffffffffffffffffffffffffffffffffffffffff16145b61123d576040517f08c379a00000000000000000000000000000000000000000000000000000000081526004016112349061221a565b60405180910390fd5b60405180608001604052808473ffffffffffffffffffffffffffffffffffffffff1681526020018373ffffffffffffffffffffffffffffffffffffffff168152602001828152602001600060038111156112c0577f4e487b7100000000000000000000000000000000000000000000000000000000600052602160045260246000fd5b815250600460008054815260200190815260200160002060008201518160000160006101000a81548173ffffffffffffffffffffffffffffffffffffffff021916908373ffffffffffffffffffffffffffffffffffffffff16021790555060208201518160010160006101000a81548173ffffffffffffffffffffffffffffffffffffffff021916908373ffffffffffffffffffffffffffffffffffffffff1602179055506040820151816002015560608201518160030160006101000a81548160ff021916908360038111156113c0577f4e487b7100000000000000000000000000000000000000000000000000000000600052602160045260246000fd5b02179055509050506000808154809291906113da90612356565b91905055507ff784815e5d852061f9c35ee8ab3237cd56d85a35a73a43666e91287e021eb04a83838360405161141293929190612075565b60405180910390a1505050565b60046020528060005260406000206000915090508060000160009054906101000a900473ffffffffffffffffffffffffffffffffffffffff16908060010160009054906101000a900473ffffffffffffffffffffffffffffffffffffffff16908060020154908060030160009054906101000a900460ff16905084565b6000600560009054906101000a900473ffffffffffffffffffffffffffffffffffffffff16905090565b600560009054906101000a900473ffffffffffffffffffffffffffffffffffffffff1673ffffffffffffffffffffffffffffffffffffffff163373ffffffffffffffffffffffffffffffffffffffff1614611556576040517f08c379a000000000000000000000000000000000000000000000000000000000815260040161154d9061213a565b60405180910390fd5b806000811161159a576040517f08c379a0000000000000000000000000000000000000000000000000000000008152600401611591906121da565b60405180910390fd5b816002819055507f2d0e5fd464b43f2cc17eef20dcfc223b4f5719b867562cfac0eed8c9f9c5ab21826040516115d09190612295565b60405180910390a15050565b60008054905090565b6000600254905090565b6000600660009054906101000a900473ffffffffffffffffffffffffffffffffffffffff16905090565b600660009054906101000a900473ffffffffffffffffffffffffffffffffffffffff1673ffffffffffffffffffffffffffffffffffffffff163373ffffffffffffffffffffffffffffffffffffffff16146116a9576040517f08c379a00000000000000000000000000000000000000000000000000000000081526004016116a09061225a565b60405180910390fd5b8060005481106116ee576040517f08c379a00000000000000000000000000000000000000000000000000000000081526004016116e59061217a565b60405180910390fd5b8160006003811115611729577f4e487b7100000000000000000000000000000000000000000000000000000000600052602160045260246000fd5b6004600083815260200190815260200160002060030160009054906101000a900460ff166003811115611785577f4e487b7100000000000000000000000000000000000000000000000000000000600052602160045260246000fd5b146117c5576040517f08c379a00000000000000000000000000000000000000000000000000000000081526004016117bc9061211a565b60405180910390fd5b6000600460008581526020019081526020016000209050600360009054906101000a900473ffffffffffffffffffffffffffffffffffffffff1673ffffffffffffffffffffffffffffffffffffffff1663b81027188260000160009054906101000a900473ffffffffffffffffffffffffffffffffffffffff163084600201546040518463ffffffff1660e01b815260040161186393929190612075565b600060405180830381600087803b15801561187d57600080fd5b505af1158015611891573d6000803e3d6000fd5b5050505060018160030160006101000a81548160ff021916908360038111156118e3577f4e487b7100000000000000000000000000000000000000000000000000000000600052602160045260246000fd5b02179055507f7e9cb42033a175042cb8f196529b20b79e4279330a9b9be72e2b1f352528c8f88160000160009054906101000a900473ffffffffffffffffffffffffffffffffffffffff168260010160009054906101000a900473ffffffffffffffffffffffffffffffffffffffff16836002015460405161196793929190612075565b60405180910390a150505050565b600560009054906101000a900473ffffffffffffffffffffffffffffffffffffffff1673ffffffffffffffffffffffffffffffffffffffff163373ffffffffffffffffffffffffffffffffffffffff1614611a05576040517f08c379a00000000000000000000000000000000000000000000000000000000081526004016119fc9061213a565b60405180910390fd5b600360009054906101000a900473ffffffffffffffffffffffffffffffffffffffff1673ffffffffffffffffffffffffffffffffffffffff1663daa3b7e8600560009054906101000a900473ffffffffffffffffffffffffffffffffffffffff16600360009054906101000a900473ffffffffffffffffffffffffffffffffffffffff1673ffffffffffffffffffffffffffffffffffffffff1663a3e36604306040518263ffffffff1660e01b8152600401611ac1919061205a565b602060405180830381600087803b158015611adb57600080fd5b505af1158015611aef573d6000803e3d6000fd5b505050506040513d601f19601f82011682018060405250810190611b139190611e01565b6040518363ffffffff1660e01b8152600401611b309291906120f1565b600060405180830381600087803b158015611b4a57600080fd5b505af1158015611b5e573d6000803e3d6000fd5b505050507faa0fd0dab0b527bc5a660240bf59ef3230f7a6821315eeff5e0b2c9d180255e6600560009054906101000a900473ffffffffffffffffffffffffffffffffffffffff16600360009054906101000a900473ffffffffffffffffffffffffffffffffffffffff1673ffffffffffffffffffffffffffffffffffffffff1663a3e36604306040518263ffffffff1660e01b8152600401611c01919061205a565b602060405180830381600087803b158015611c1b57600080fd5b505af1158015611c2f573d6000803e3d6000fd5b505050506040513d601f19601f82011682018060405250810190611c539190611e01565b604051611c619291906120f1565b60405180910390a1565b6000600760009054906101000a900473ffffffffffffffffffffffffffffffffffffffff16905090565b6040518060800160405280600073ffffffffffffffffffffffffffffffffffffffff168152602001600073ffffffffffffffffffffffffffffffffffffffff1681526020016000815260200160006003811115611d1b577f4e487b7100000000000000000000000000000000000000000000000000000000600052602160045260246000fd5b81525090565b600081359050611d30816126de565b92915050565b600081359050611d45816126f5565b92915050565b600081519050611d5a816126f5565b92915050565b600060208284031215611d7257600080fd5b6000611d8084828501611d21565b91505092915050565b600080600060608486031215611d9e57600080fd5b6000611dac86828701611d21565b9350506020611dbd86828701611d21565b9250506040611dce86828701611d36565b9150509250925092565b600060208284031215611dea57600080fd5b6000611df884828501611d36565b91505092915050565b600060208284031215611e1357600080fd5b6000611e2184828501611d4b565b91505092915050565b611e33816122f5565b82525050565b611e42816122f5565b82525050565b611e5181612344565b82525050565b611e6081612344565b82525050565b6000611e73601d836122b0565b9150611e7e826123fd565b602082019050919050565b6000611e966021836122b0565b9150611ea182612426565b604082019050919050565b6000611eb9602a836122b0565b9150611ec482612475565b604082019050919050565b6000611edc6016836122b0565b9150611ee7826124c4565b602082019050919050565b6000611eff601d836122b0565b9150611f0a826124ed565b602082019050919050565b6000611f22601e836122b0565b9150611f2d82612516565b602082019050919050565b6000611f456025836122b0565b9150611f508261253f565b604082019050919050565b6000611f686021836122b0565b9150611f738261258e565b604082019050919050565b6000611f8b603f836122b0565b9150611f96826125dd565b604082019050919050565b6000611fae6025836122b0565b9150611fb98261262c565b604082019050919050565b6000611fd1602d836122b0565b9150611fdc8261267b565b604082019050919050565b608082016000820151611ffd6000850182611e2a565b5060208201516120106020850182611e2a565b506040820151612023604085018261203c565b5060608201516120366060850182611e48565b50505050565b6120458161233a565b82525050565b6120548161233a565b82525050565b600060208201905061206f6000830184611e39565b92915050565b600060608201905061208a6000830186611e39565b6120976020830185611e39565b6120a4604083018461204b565b949350505050565b60006080820190506120c16000830187611e39565b6120ce6020830186611e39565b6120db604083018561204b565b6120e86060830184611e57565b95945050505050565b60006040820190506121066000830185611e39565b612113602083018461204b565b9392505050565b6000602082019050818103600083015261213381611e66565b9050919050565b6000602082019050818103600083015261215381611e89565b9050919050565b6000602082019050818103600083015261217381611eac565b9050919050565b6000602082019050818103600083015261219381611ecf565b9050919050565b600060208201905081810360008301526121b381611ef2565b9050919050565b600060208201905081810360008301526121d381611f15565b9050919050565b600060208201905081810360008301526121f381611f38565b9050919050565b6000602082019050818103600083015261221381611f5b565b9050919050565b6000602082019050818103600083015261223381611f7e565b9050919050565b6000602082019050818103600083015261225381611fa1565b9050919050565b6000602082019050818103600083015261227381611fc4565b9050919050565b600060808201905061228f6000830184611fe7565b92915050565b60006020820190506122aa600083018461204b565b92915050565b600082825260208201905092915050565b60006122cc8261233a565b91506122d78361233a565b9250828210156122ea576122e961239f565b5b828203905092915050565b60006123008261231a565b9050919050565b6000819050612315826126ca565b919050565b600073ffffffffffffffffffffffffffffffffffffffff82169050919050565b6000819050919050565b600061234f82612307565b9050919050565b60006123618261233a565b91507fffffffffffffffffffffffffffffffffffffffffffffffffffffffffffffffff8214156123945761239361239f565b5b600182019050919050565b7f4e487b7100000000000000000000000000000000000000000000000000000000600052601160045260246000fd5b7f4e487b7100000000000000000000000000000000000000000000000000000000600052602160045260246000fd5b7f5061796d656e742068617320616c7265616479206265656e206d616465000000600082015250565b7f4f6e6c79206f776e65722063616e2063616c6c20746869732066756e6374696f60008201527f6e00000000000000000000000000000000000000000000000000000000000000602082015250565b7f4f6e6c792052656e744469737075746544414f2063616e2063616c6c2074686960008201527f732066756e6374696f6e00000000000000000000000000000000000000000000602082015250565b7f5061796d656e7420646f6573206e6f7420657869737400000000000000000000600082015250565b7f5061796d656e7420686173206e6f74206265656e206d61646520796574000000600082015250565b7f496e76616c69642052656e744469737075746544414f20616464726573730000600082015250565b7f436f6d6d697373696f6e20666565206d7573742062652067726561746572207460008201527f68616e2030000000000000000000000000000000000000000000000000000000602082015250565b7f496e76616c69642052656e74616c6d61726b657470616c63652061646472657360008201527f7300000000000000000000000000000000000000000000000000000000000000602082015250565b7f4f6e6c792052656e74616c4d61726b6574706c616365206f722052656e74446960008201527f737075746544414f2063616e2063616c6c20746869732066756e6374696f6e00602082015250565b7f50726f74656374696f6e20666565206d7573742062652067726561746572207460008201527f68616e2030000000000000000000000000000000000000000000000000000000602082015250565b7f4f6e6c792052656e74616c4d61726b6574706c6163652063616e2063616c6c2060008201527f746869732066756e6374696f6e00000000000000000000000000000000000000602082015250565b600481106126db576126da6123ce565b5b50565b6126e7816122f5565b81146126f257600080fd5b50565b6126fe8161233a565b811461270957600080fd5b5056fea26469706673582212205f3db86a70f3dd8e5ccc42d75e2e869face574bfde327f3589a817bdca2ae3f164736f6c63430008010033",
  "immutableReferences": {},
  "source": "// SPDX-License-Identifier: MIT\npragma solidity ^0.8.0;\n\nimport \"./LeaseToken.sol\";\n\ncontract PaymentEscrow {\n    // ################################################### STRUCTURE & STATE VARIABLES ################################################### //\n    enum PaymentStatus {\n        PENDING,\n        PAID,\n        RELEASED,\n        REFUNDED\n    }\n\n    struct Payment {\n        address payer;\n        address payee;\n        uint256 amount;\n        PaymentStatus status;\n    }\n\n    // The number of payment transactions that have been made\n    uint256 public numOfPayments = 0;\n    // The number of tokens landlord must stake in the potential event of a dispute with tenant\n    uint256 private protectionFee;\n    // The commission fee (in tokens) that the platform charges for each transaction\n    uint256 public commissionFee;\n\n    LeaseToken leaseTokenContract;\n\n    mapping(uint256 => Payment) public payments;\n\n    // The owner of the contract (PaymentEscrow), who can set the protection fee (for landlord) and commission fee (for platform)\n    address private owner;\n    // The address of the RentalMarketplace contract, which is the only contract that can call the release function\n    address private rentalMarketplaceAddress;\n    // The address of the RentDisputeDAO contract, which is the only contract that can call the refund function\n    address private rentDisputeDAOAddress;\n\n    constructor(\n        address _leaseTokenAddress,\n        uint256 _protectionFee,\n        uint256 _commissionFee\n    ) {\n        leaseTokenContract = LeaseToken(_leaseTokenAddress);\n        protectionFee = _protectionFee;\n        commissionFee = _commissionFee;\n        owner = msg.sender;\n    }\n\n    // ################################################### EVENTS ################################################### //\n\n    event paymentCreated(address payer, address payee, uint256 amount);\n    event paymentPaid(address payer, address payee, uint256 amount);\n    event paymentReleased(address payer, address payee, uint256 amount);\n    event paymentRefunded(address payer, address payee, uint256 amount);\n    event protectionFeeSet(uint256 protectionFee);\n    event commissionFeeSet(uint256 commissionFee);\n    event tokenWithdrawn(address owner, uint256 amount);\n    event rentalMarketplaceAddressSet(address rentalMarketplaceAddress);\n    event rentDisputeDAOAddressSet(address rentDisputeDAOAddress);\n\n    // ################################################### MODIFIERS ################################################### //\n\n    modifier onlyOwner() {\n        require(msg.sender == owner, \"Only owner can call this function\");\n        _;\n    }\n\n    modifier onlyRentalMarketplace() {\n        require(\n            msg.sender == rentalMarketplaceAddress,\n            \"Only RentalMarketplace can call this function\"\n        );\n        _;\n    }\n\n    modifier onlyRentDisputeDAO() {\n        require(\n            msg.sender == rentDisputeDAOAddress,\n            \"Only RentDisputeDAO can call this function\"\n        );\n        _;\n    }\n\n    modifier onlyRentalMarketplaceOrRentDisputeDAO() {\n        require(\n            msg.sender == rentalMarketplaceAddress ||\n                msg.sender == rentDisputeDAOAddress,\n            \"Only RentalMarketplace or RentDisputeDAO can call this function\"\n        );\n        _;\n    }\n\n    modifier PaymentExists(uint256 _paymentId) {\n        require(_paymentId < numOfPayments, \"Payment does not exist\");\n        _;\n    }\n\n    modifier PaymentPending(uint256 _paymentId) {\n        require(\n            payments[_paymentId].status == PaymentStatus.PENDING,\n            \"Payment has already been made\"\n        );\n        _;\n    }\n\n    modifier PaymentPaid(uint256 _paymentId) {\n        require(\n            payments[_paymentId].status == PaymentStatus.PAID,\n            \"Payment has not been made yet\"\n        );\n        _;\n    }\n\n    modifier PaymentReleased(uint256 _paymentId) {\n        require(\n            payments[_paymentId].status == PaymentStatus.RELEASED,\n            \"Payment has not been released yet\"\n        );\n        _;\n    }\n\n    modifier PaymentRefunded(uint256 _paymentId) {\n        require(\n            payments[_paymentId].status == PaymentStatus.REFUNDED,\n            \"Payment has not been refunded yet\"\n        );\n        _;\n    }\n\n    modifier invalidProtectionFee(uint256 _protectionFee) {\n        require(_protectionFee > 0, \"Protection fee must be greater than 0\");\n        _;\n    }\n\n    modifier invalidCommissionFee(uint256 _commissionFee) {\n        require(_commissionFee > 0, \"Commission fee must be greater than 0\");\n        _;\n    }\n\n    modifier invalidRentalMarketplaceAddress(\n        address _rentalMarketplaceAddress\n    ) {\n        require(\n            _rentalMarketplaceAddress != address(0),\n            \"Invalid Rentalmarketpalce address\"\n        );\n        _;\n    }\n\n    modifier invalidRentDisputeDAOAddress(address _rentDisputeDAOAddress) {\n        require(\n            _rentDisputeDAOAddress != address(0),\n            \"Invalid RentDisputeDAO address\"\n        );\n        _;\n    }\n\n    // ################################################### FUNCTIONS ################################################### //\n\n    // Function to create a payment transaction\n    function createPayment(\n        address _payer,\n        address _payee,\n        uint256 _amount\n    ) public onlyRentalMarketplaceOrRentDisputeDAO {\n        payments[numOfPayments] = Payment(\n            _payer,\n            _payee,\n            _amount,\n            PaymentStatus.PENDING\n        );\n        numOfPayments++;\n        emit paymentCreated(_payer, _payee, _amount);\n    }\n\n    // Function to transfer the payment amount from the tenant to the PaymentEscrow\n    function pay(\n        uint256 _paymentId\n    )\n        public\n        onlyRentalMarketplace\n        PaymentExists(_paymentId)\n        PaymentPending(_paymentId)\n    {\n        Payment storage payment = payments[_paymentId];\n        // Tenant transfers the payment amount to PaymentEscrow\n        leaseTokenContract.transferLeaseTokenFrom(\n            payment.payer,\n            address(this),\n            payment.amount\n        );\n        payment.status = PaymentStatus.PAID;\n        emit paymentPaid(payment.payer, payment.payee, payment.amount);\n    }\n\n    // Function to release the payment amount from the PaymentEscrow to the landlord\n    function release(\n        uint256 _paymentId\n    )\n        public\n        onlyRentalMarketplace\n        PaymentExists(_paymentId)\n        PaymentPaid(_paymentId)\n    {\n        Payment storage payment = payments[_paymentId];\n\n        // Tenant approves PaymentEscrow to transfer the payment amount to the Landlord\n        leaseTokenContract.approveLeaseToken(address(this), payment.amount);\n        // PaymentEscrow transfers the payment amount to the tenant (minus the commission fee), commission fee is transferred to the platform\n        leaseTokenContract.transferLeaseToken(\n            payment.payee,\n            payment.amount - commissionFee\n        );\n        payment.status = PaymentStatus.RELEASED;\n        emit paymentReleased(payment.payer, payment.payee, payment.amount);\n    }\n\n    // Function to refund the payment amount from the PaymentEscrow to the tenant\n    function refund(\n        uint256 _paymentId\n    )\n        public\n        onlyRentDisputeDAO\n        PaymentExists(_paymentId)\n        PaymentPaid(_paymentId)\n    {\n        Payment storage payment = payments[_paymentId];\n        // PaymentEscrow transfers the payment amount back to the landlord\n        leaseTokenContract.transferLeaseToken(payment.payer, payment.amount);\n        payment.status = PaymentStatus.REFUNDED;\n        emit paymentRefunded(payment.payer, payment.payee, payment.amount);\n    }\n\n    // Function to withdraw the tokens to the owner of the contract\n    function withdrawToken() public onlyOwner {\n        leaseTokenContract.transferLeaseToken(\n            owner,\n            leaseTokenContract.checkLeaseToken((address(this)))\n        );\n        emit tokenWithdrawn(\n            owner,\n            leaseTokenContract.checkLeaseToken((address(this)))\n        );\n    }\n\n    // ################################################### SETTER METHODS ################################################### //\n\n    // Function to set the protection fee\n    function setProtectionFee(\n        uint256 _protectionFee\n    ) public onlyOwner invalidProtectionFee(_protectionFee) {\n        protectionFee = _protectionFee;\n        emit protectionFeeSet(_protectionFee);\n    }\n    // Function to set the commission fee\n    function setCommissionFee(\n        uint256 _commissionFee\n    ) public onlyOwner invalidCommissionFee(_commissionFee) {\n        commissionFee = _commissionFee;\n        emit commissionFeeSet(_commissionFee);\n    }\n\n    // Function to set the RentalMarketplace address (Access Control)\n    function setRentalMarketplaceAddress(\n        address _rentalMarketplaceAddress\n    )\n        public\n        onlyOwner\n        invalidRentalMarketplaceAddress(_rentalMarketplaceAddress)\n    {\n        rentalMarketplaceAddress = _rentalMarketplaceAddress;\n        emit rentalMarketplaceAddressSet(_rentalMarketplaceAddress);\n    }\n\n    // Function to set the RentDisputeDAO address (Access Control)\n    function setRentDisputeDAOAddress(\n        address _rentDisputeDAOAddress\n    ) public onlyOwner invalidRentDisputeDAOAddress(_rentDisputeDAOAddress) {\n        rentDisputeDAOAddress = _rentDisputeDAOAddress;\n        emit rentDisputeDAOAddressSet(_rentDisputeDAOAddress);\n    }\n\n    // ################################################### GETTER METHODS ################################################### //\n\n    // Function to get the protection fee\n    function getProtectionFee() public view returns (uint256) {\n        return protectionFee;\n    }\n\n    // Function to get the commission fee\n    function getCommissionFee() public view returns (uint256) {\n        return commissionFee;\n    }\n\n    // Function to get the payment details\n    function getPayment(\n        uint256 _paymentId\n    ) public view returns (Payment memory) {\n        return payments[_paymentId];\n    }\n\n    // Function to get the number of payments\n    function getNumOfPayments() public view returns (uint256) {\n        return numOfPayments;\n    }\n\n    // Function to get the balance of the contract\n    function getBalance() public returns (uint256) {\n        return leaseTokenContract.checkLeaseToken(address(this));\n    }\n\n    // Function to get the owner of the contract\n    function getOwner() public view returns (address) {\n        return owner;\n    }\n\n    // Function to get the contract address\n    function getContractAddress() public view returns (address) {\n        return address(this);\n    }\n\n    // Function to get the RentalMarketplace address\n    function getRentalMarketplaceAddress() public view returns (address) {\n        return rentalMarketplaceAddress;\n    }\n\n    // Function to get the RentDisputeDAO address\n    function getRentDisputeDAOAddress() public view returns (address) {\n        return rentDisputeDAOAddress;\n    }\n}\n",
  "sourcePath": "/Users/Mike/Documents/GitHub/is4302-G13-project/contracts/PaymentEscrow.sol",
  "compiler": {
    "name": "solc",
    "version": "0.8.1+commit.df193b15.Emscripten.clang"
  },
  "schemaVersion": "3.4.16",
  "updatedAt": "2024-04-06T15:33:03.571Z",
  "networkType": "ethereum",
  "devdoc": {
    "kind": "dev",
    "methods": {},
    "version": 1
  },
  "userdoc": {
    "kind": "user",
    "methods": {},
    "version": 1
  }
}