{
  "contractName": "PaymentEscrow",
  "abi": [
    {
      "inputs": [
        {
          "internalType": "address",
          "name": "_leaseTokenAddress",
          "type": "address"
        },
        {
          "internalType": "uint256",
          "name": "_protectionFee",
          "type": "uint256"
        },
        {
          "internalType": "uint256",
          "name": "_commissionFee",
          "type": "uint256"
        }
      ],
      "stateMutability": "nonpayable",
      "type": "constructor"
    },
    {
      "anonymous": false,
      "inputs": [
        {
          "indexed": false,
          "internalType": "uint256",
          "name": "commissionFee",
          "type": "uint256"
        }
      ],
      "name": "commissionFeeSet",
      "type": "event"
    },
    {
      "anonymous": false,
      "inputs": [
        {
          "indexed": false,
          "internalType": "address",
          "name": "payer",
          "type": "address"
        },
        {
          "indexed": false,
          "internalType": "address",
          "name": "payee",
          "type": "address"
        },
        {
          "indexed": false,
          "internalType": "uint256",
          "name": "amount",
          "type": "uint256"
        }
      ],
      "name": "paymentCreated",
      "type": "event"
    },
    {
      "anonymous": false,
      "inputs": [
        {
          "indexed": false,
          "internalType": "address",
          "name": "payer",
          "type": "address"
        },
        {
          "indexed": false,
          "internalType": "address",
          "name": "payee",
          "type": "address"
        },
        {
          "indexed": false,
          "internalType": "uint256",
          "name": "amount",
          "type": "uint256"
        }
      ],
      "name": "paymentPaid",
      "type": "event"
    },
    {
      "anonymous": false,
      "inputs": [
        {
          "indexed": false,
          "internalType": "address",
          "name": "payer",
          "type": "address"
        },
        {
          "indexed": false,
          "internalType": "address",
          "name": "payee",
          "type": "address"
        },
        {
          "indexed": false,
          "internalType": "uint256",
          "name": "amount",
          "type": "uint256"
        }
      ],
      "name": "paymentRefunded",
      "type": "event"
    },
    {
      "anonymous": false,
      "inputs": [
        {
          "indexed": false,
          "internalType": "address",
          "name": "payer",
          "type": "address"
        },
        {
          "indexed": false,
          "internalType": "address",
          "name": "payee",
          "type": "address"
        },
        {
          "indexed": false,
          "internalType": "uint256",
          "name": "amount",
          "type": "uint256"
        }
      ],
      "name": "paymentReleased",
      "type": "event"
    },
    {
      "anonymous": false,
      "inputs": [
        {
          "indexed": false,
          "internalType": "uint256",
          "name": "protectionFee",
          "type": "uint256"
        }
      ],
      "name": "protectionFeeSet",
      "type": "event"
    },
    {
      "anonymous": false,
      "inputs": [
        {
          "indexed": false,
          "internalType": "address",
          "name": "rentDisputeDAOAddress",
          "type": "address"
        }
      ],
      "name": "rentDisputeDAOAddressSet",
      "type": "event"
    },
    {
      "anonymous": false,
      "inputs": [
        {
          "indexed": false,
          "internalType": "address",
          "name": "rentalMarketplaceAddress",
          "type": "address"
        }
      ],
      "name": "rentalMarketplaceAddressSet",
      "type": "event"
    },
    {
      "anonymous": false,
      "inputs": [
        {
          "indexed": false,
          "internalType": "address",
          "name": "owner",
          "type": "address"
        },
        {
          "indexed": false,
          "internalType": "uint256",
          "name": "amount",
          "type": "uint256"
        }
      ],
      "name": "tokenWithdrawn",
      "type": "event"
    },
    {
      "inputs": [
        {
          "internalType": "uint256",
          "name": "",
          "type": "uint256"
        }
      ],
      "name": "payments",
      "outputs": [
        {
          "internalType": "address",
          "name": "payer",
          "type": "address"
        },
        {
          "internalType": "address",
          "name": "payee",
          "type": "address"
        },
        {
          "internalType": "uint256",
          "name": "amount",
          "type": "uint256"
        },
        {
          "internalType": "enum PaymentEscrow.PaymentStatus",
          "name": "status",
          "type": "uint8"
        }
      ],
      "stateMutability": "view",
      "type": "function"
    },
    {
      "inputs": [
        {
          "internalType": "address",
          "name": "_payer",
          "type": "address"
        },
        {
          "internalType": "address",
          "name": "_payee",
          "type": "address"
        },
        {
          "internalType": "uint256",
          "name": "_amount",
          "type": "uint256"
        }
      ],
      "name": "createPayment",
      "outputs": [
        {
          "internalType": "uint256",
          "name": "",
          "type": "uint256"
        }
      ],
      "stateMutability": "nonpayable",
      "type": "function"
    },
    {
      "inputs": [
        {
          "internalType": "uint256",
          "name": "_paymentId",
          "type": "uint256"
        }
      ],
      "name": "pay",
      "outputs": [],
      "stateMutability": "nonpayable",
      "type": "function"
    },
    {
      "inputs": [
        {
          "internalType": "uint256",
          "name": "_paymentId",
          "type": "uint256"
        }
      ],
      "name": "release",
      "outputs": [],
      "stateMutability": "nonpayable",
      "type": "function"
    },
    {
      "inputs": [
        {
          "internalType": "uint256",
          "name": "_paymentId",
          "type": "uint256"
        }
      ],
      "name": "refund",
      "outputs": [],
      "stateMutability": "nonpayable",
      "type": "function"
    },
    {
      "inputs": [],
      "name": "withdrawToken",
      "outputs": [],
      "stateMutability": "nonpayable",
      "type": "function"
    },
    {
      "inputs": [
        {
          "internalType": "uint256",
          "name": "_protectionFee",
          "type": "uint256"
        }
      ],
      "name": "setProtectionFee",
      "outputs": [],
      "stateMutability": "nonpayable",
      "type": "function"
    },
    {
      "inputs": [
        {
          "internalType": "uint256",
          "name": "_commissionFee",
          "type": "uint256"
        }
      ],
      "name": "setCommissionFee",
      "outputs": [],
      "stateMutability": "nonpayable",
      "type": "function"
    },
    {
      "inputs": [
        {
          "internalType": "address",
          "name": "_rentalMarketplaceAddress",
          "type": "address"
        }
      ],
      "name": "setRentalMarketplaceAddress",
      "outputs": [],
      "stateMutability": "nonpayable",
      "type": "function"
    },
    {
      "inputs": [
        {
          "internalType": "address",
          "name": "_rentDisputeDAOAddress",
          "type": "address"
        }
      ],
      "name": "setRentDisputeDAOAddress",
      "outputs": [],
      "stateMutability": "nonpayable",
      "type": "function"
    },
    {
      "inputs": [],
      "name": "getProtectionFee",
      "outputs": [
        {
          "internalType": "uint256",
          "name": "",
          "type": "uint256"
        }
      ],
      "stateMutability": "view",
      "type": "function"
    },
    {
      "inputs": [],
      "name": "getCommissionFee",
      "outputs": [
        {
          "internalType": "uint256",
          "name": "",
          "type": "uint256"
        }
      ],
      "stateMutability": "view",
      "type": "function"
    },
    {
      "inputs": [
        {
          "internalType": "uint256",
          "name": "_paymentId",
          "type": "uint256"
        }
      ],
      "name": "getPayment",
      "outputs": [
        {
          "components": [
            {
              "internalType": "address",
              "name": "payer",
              "type": "address"
            },
            {
              "internalType": "address",
              "name": "payee",
              "type": "address"
            },
            {
              "internalType": "uint256",
              "name": "amount",
              "type": "uint256"
            },
            {
              "internalType": "enum PaymentEscrow.PaymentStatus",
              "name": "status",
              "type": "uint8"
            }
          ],
          "internalType": "struct PaymentEscrow.Payment",
          "name": "",
          "type": "tuple"
        }
      ],
      "stateMutability": "view",
      "type": "function"
    },
    {
      "inputs": [],
      "name": "getNumOfPayments",
      "outputs": [
        {
          "internalType": "uint256",
          "name": "",
          "type": "uint256"
        }
      ],
      "stateMutability": "view",
      "type": "function"
    },
    {
      "inputs": [],
      "name": "getBalance",
      "outputs": [
        {
          "internalType": "uint256",
          "name": "",
          "type": "uint256"
        }
      ],
      "stateMutability": "nonpayable",
      "type": "function"
    },
    {
      "inputs": [],
      "name": "getOwner",
      "outputs": [
        {
          "internalType": "address",
          "name": "",
          "type": "address"
        }
      ],
      "stateMutability": "view",
      "type": "function"
    },
    {
      "inputs": [],
      "name": "getContractAddress",
      "outputs": [
        {
          "internalType": "address",
          "name": "",
          "type": "address"
        }
      ],
      "stateMutability": "view",
      "type": "function"
    },
    {
      "inputs": [],
      "name": "getRentalMarketplaceAddress",
      "outputs": [
        {
          "internalType": "address",
          "name": "",
          "type": "address"
        }
      ],
      "stateMutability": "view",
      "type": "function"
    },
    {
      "inputs": [],
      "name": "getRentDisputeDAOAddress",
      "outputs": [
        {
          "internalType": "address",
          "name": "",
          "type": "address"
        }
      ],
      "stateMutability": "view",
      "type": "function"
    }
  ],
  "bytecode": "0x6080604052600080553480156200001557600080fd5b5060405162002a6c38038062002a6c83398181016040528101906200003b919062000102565b82600360006101000a81548173ffffffffffffffffffffffffffffffffffffffff021916908373ffffffffffffffffffffffffffffffffffffffff160217905550816001819055508060028190555033600560006101000a81548173ffffffffffffffffffffffffffffffffffffffff021916908373ffffffffffffffffffffffffffffffffffffffff160217905550505050620001ca565b600081519050620000e58162000196565b92915050565b600081519050620000fc81620001b0565b92915050565b6000806000606084860312156200011857600080fd5b60006200012886828701620000d4565b93505060206200013b86828701620000eb565b92505060406200014e86828701620000eb565b9150509250925092565b600062000165826200016c565b9050919050565b600073ffffffffffffffffffffffffffffffffffffffff82169050919050565b6000819050919050565b620001a18162000158565b8114620001ad57600080fd5b50565b620001bb816200018c565b8114620001c757600080fd5b50565b61289280620001da6000396000f3fe608060405234801561001057600080fd5b50600436106101215760003560e01c8063794d0ed8116100ad5780639d7d496e116100715780639d7d496e146102f7578063b530d81e14610315578063c290d69114610333578063ca628c781461034f578063df2422f01461035957610121565b8063794d0ed81461023c57806387d817891461026c578063893d20e81461029f578063895860e5146102bd57806394c8dcb1146102d957610121565b806332a2c5d0116100f457806332a2c5d0146101ae57806335e88e2a146101cc57806337bdc99b146101e85780635b0f9317146102045780637620287b1461022057610121565b806312065fe0146101265780631f7559ae14610144578063278ecde1146101625780633280a8361461017e575b600080fd5b61012e610377565b60405161013b9190612396565b60405180910390f35b61014c61042b565b6040516101599190612396565b60405180910390f35b61017c60048036038101906101779190611e96565b610435565b005b61019860048036038101906101939190611e96565b61078f565b6040516101a5919061237b565b60405180910390f35b6101b66108f9565b6040516101c3919061213b565b60405180910390f35b6101e660048036038101906101e19190611e1e565b610901565b005b61020260048036038101906101fd9190611e96565b610a7e565b005b61021e60048036038101906102199190611e96565b610e78565b005b61023a60048036038101906102359190611e1e565b610f8e565b005b61025660048036038101906102519190611e47565b61110b565b6040516102639190612396565b60405180910390f35b61028660048036038101906102819190611e96565b6114dd565b604051610296949392919061218d565b60405180910390f35b6102a761155a565b6040516102b4919061213b565b60405180910390f35b6102d760048036038101906102d29190611e96565b611584565b005b6102e161169a565b6040516102ee9190612396565b60405180910390f35b6102ff6116a3565b60405161030c9190612396565b60405180910390f35b61031d6116ad565b60405161032a919061213b565b60405180910390f35b61034d60048036038101906103489190611e96565b6116d7565b005b610357611a33565b005b610361611d29565b60405161036e919061213b565b60405180910390f35b6000600360009054906101000a900473ffffffffffffffffffffffffffffffffffffffff1673ffffffffffffffffffffffffffffffffffffffff1663a3e36604306040518263ffffffff1660e01b81526004016103d4919061213b565b602060405180830381600087803b1580156103ee57600080fd5b505af1158015610402573d6000803e3d6000fd5b505050506040513d601f19601f820116820180604052508101906104269190611ebf565b905090565b6000600154905090565b600760009054906101000a900473ffffffffffffffffffffffffffffffffffffffff1673ffffffffffffffffffffffffffffffffffffffff163373ffffffffffffffffffffffffffffffffffffffff16146104c5576040517f08c379a00000000000000000000000000000000000000000000000000000000081526004016104bc9061223b565b60405180910390fd5b80600054811061050a576040517f08c379a00000000000000000000000000000000000000000000000000000000081526004016105019061225b565b60405180910390fd5b8160016003811115610545577f4e487b7100000000000000000000000000000000000000000000000000000000600052602160045260246000fd5b6004600083815260200190815260200160002060030160009054906101000a900460ff1660038111156105a1577f4e487b7100000000000000000000000000000000000000000000000000000000600052602160045260246000fd5b146105e1576040517f08c379a00000000000000000000000000000000000000000000000000000000081526004016105d89061227b565b60405180910390fd5b6000600460008581526020019081526020016000209050600360009054906101000a900473ffffffffffffffffffffffffffffffffffffffff1673ffffffffffffffffffffffffffffffffffffffff1663daa3b7e88260000160009054906101000a900473ffffffffffffffffffffffffffffffffffffffff1683600201546040518363ffffffff1660e01b815260040161067d9291906121d2565b600060405180830381600087803b15801561069757600080fd5b505af11580156106ab573d6000803e3d6000fd5b5050505060038160030160006101000a81548160ff021916908360038111156106fd577f4e487b7100000000000000000000000000000000000000000000000000000000600052602160045260246000fd5b02179055507fce02e9bea9450a1582b80e1fa9c7355ba3fa2e0c367b1c5fbaba84c08dde4c538160000160009054906101000a900473ffffffffffffffffffffffffffffffffffffffff168260010160009054906101000a900473ffffffffffffffffffffffffffffffffffffffff16836002015460405161078193929190612156565b60405180910390a150505050565b610797611d53565b600460008381526020019081526020016000206040518060800160405290816000820160009054906101000a900473ffffffffffffffffffffffffffffffffffffffff1673ffffffffffffffffffffffffffffffffffffffff1673ffffffffffffffffffffffffffffffffffffffff1681526020016001820160009054906101000a900473ffffffffffffffffffffffffffffffffffffffff1673ffffffffffffffffffffffffffffffffffffffff1673ffffffffffffffffffffffffffffffffffffffff168152602001600282015481526020016003820160009054906101000a900460ff1660038111156108b6577f4e487b7100000000000000000000000000000000000000000000000000000000600052602160045260246000fd5b60038111156108ee577f4e487b7100000000000000000000000000000000000000000000000000000000600052602160045260246000fd5b815250509050919050565b600030905090565b600560009054906101000a900473ffffffffffffffffffffffffffffffffffffffff1673ffffffffffffffffffffffffffffffffffffffff163373ffffffffffffffffffffffffffffffffffffffff1614610991576040517f08c379a00000000000000000000000000000000000000000000000000000000081526004016109889061221b565b60405180910390fd5b80600073ffffffffffffffffffffffffffffffffffffffff168173ffffffffffffffffffffffffffffffffffffffff161415610a02576040517f08c379a00000000000000000000000000000000000000000000000000000000081526004016109f9906122fb565b60405180910390fd5b81600660006101000a81548173ffffffffffffffffffffffffffffffffffffffff021916908373ffffffffffffffffffffffffffffffffffffffff1602179055507f0d97c2edba1236202c4ab09d16f0f494318aab730a517c7d6f1770a2fdd7b63782604051610a72919061213b565b60405180910390a15050565b600660009054906101000a900473ffffffffffffffffffffffffffffffffffffffff1673ffffffffffffffffffffffffffffffffffffffff163373ffffffffffffffffffffffffffffffffffffffff1614610b0e576040517f08c379a0000000000000000000000000000000000000000000000000000000008152600401610b059061235b565b60405180910390fd5b806000548110610b53576040517f08c379a0000000000000000000000000000000000000000000000000000000008152600401610b4a9061225b565b60405180910390fd5b8160016003811115610b8e577f4e487b7100000000000000000000000000000000000000000000000000000000600052602160045260246000fd5b6004600083815260200190815260200160002060030160009054906101000a900460ff166003811115610bea577f4e487b7100000000000000000000000000000000000000000000000000000000600052602160045260246000fd5b14610c2a576040517f08c379a0000000000000000000000000000000000000000000000000000000008152600401610c219061227b565b60405180910390fd5b6000600460008581526020019081526020016000209050600360009054906101000a900473ffffffffffffffffffffffffffffffffffffffff1673ffffffffffffffffffffffffffffffffffffffff16630ab1a7073083600201546040518363ffffffff1660e01b8152600401610ca29291906121d2565b600060405180830381600087803b158015610cbc57600080fd5b505af1158015610cd0573d6000803e3d6000fd5b50505050600360009054906101000a900473ffffffffffffffffffffffffffffffffffffffff1673ffffffffffffffffffffffffffffffffffffffff1663daa3b7e88260010160009054906101000a900473ffffffffffffffffffffffffffffffffffffffff166002548460020154610d4991906123c2565b6040518363ffffffff1660e01b8152600401610d669291906121d2565b600060405180830381600087803b158015610d8057600080fd5b505af1158015610d94573d6000803e3d6000fd5b5050505060028160030160006101000a81548160ff02191690836003811115610de6577f4e487b7100000000000000000000000000000000000000000000000000000000600052602160045260246000fd5b02179055507f0bb3357d6f2cf56ed1ef16717520f9ce78dac340ce04e515ca5b648fb29d81dd8160000160009054906101000a900473ffffffffffffffffffffffffffffffffffffffff168260010160009054906101000a900473ffffffffffffffffffffffffffffffffffffffff168360020154604051610e6a93929190612156565b60405180910390a150505050565b600560009054906101000a900473ffffffffffffffffffffffffffffffffffffffff1673ffffffffffffffffffffffffffffffffffffffff163373ffffffffffffffffffffffffffffffffffffffff1614610f08576040517f08c379a0000000000000000000000000000000000000000000000000000000008152600401610eff9061221b565b60405180910390fd5b8060008111610f4c576040517f08c379a0000000000000000000000000000000000000000000000000000000008152600401610f439061233b565b60405180910390fd5b816001819055507f20c5d2426bf7f0fa5dfb56e676130c81f58903a4373636d9821ea85df121bfe882604051610f829190612396565b60405180910390a15050565b600560009054906101000a900473ffffffffffffffffffffffffffffffffffffffff1673ffffffffffffffffffffffffffffffffffffffff163373ffffffffffffffffffffffffffffffffffffffff161461101e576040517f08c379a00000000000000000000000000000000000000000000000000000000081526004016110159061221b565b60405180910390fd5b80600073ffffffffffffffffffffffffffffffffffffffff168173ffffffffffffffffffffffffffffffffffffffff16141561108f576040517f08c379a00000000000000000000000000000000000000000000000000000000081526004016110869061229b565b60405180910390fd5b81600760006101000a81548173ffffffffffffffffffffffffffffffffffffffff021916908373ffffffffffffffffffffffffffffffffffffffff1602179055507f805e9277349a1e91b496994a9be376a13fc2682f022c4acdff7f8c50546710ac826040516110ff919061213b565b60405180910390a15050565b6000600660009054906101000a900473ffffffffffffffffffffffffffffffffffffffff1673ffffffffffffffffffffffffffffffffffffffff163373ffffffffffffffffffffffffffffffffffffffff1614806111b65750600760009054906101000a900473ffffffffffffffffffffffffffffffffffffffff1673ffffffffffffffffffffffffffffffffffffffff163373ffffffffffffffffffffffffffffffffffffffff16145b6111f5576040517f08c379a00000000000000000000000000000000000000000000000000000000081526004016111ec9061231b565b60405180910390fd5b838280600360009054906101000a900473ffffffffffffffffffffffffffffffffffffffff1673ffffffffffffffffffffffffffffffffffffffff1663a3e36604846040518263ffffffff1660e01b8152600401611253919061213b565b602060405180830381600087803b15801561126d57600080fd5b505af1158015611281573d6000803e3d6000fd5b505050506040513d601f19601f820116820180604052508101906112a59190611ebf565b10156112e6576040517f08c379a00000000000000000000000000000000000000000000000000000000081526004016112dd906122bb565b60405180910390fd5b60405180608001604052808773ffffffffffffffffffffffffffffffffffffffff1681526020018673ffffffffffffffffffffffffffffffffffffffff16815260200185815260200160006003811115611369577f4e487b7100000000000000000000000000000000000000000000000000000000600052602160045260246000fd5b815250600460008054815260200190815260200160002060008201518160000160006101000a81548173ffffffffffffffffffffffffffffffffffffffff021916908373ffffffffffffffffffffffffffffffffffffffff16021790555060208201518160010160006101000a81548173ffffffffffffffffffffffffffffffffffffffff021916908373ffffffffffffffffffffffffffffffffffffffff1602179055506040820151816002015560608201518160030160006101000a81548160ff02191690836003811115611469577f4e487b7100000000000000000000000000000000000000000000000000000000600052602160045260246000fd5b021790555090505060008081548092919061148390612457565b91905055507ff784815e5d852061f9c35ee8ab3237cd56d85a35a73a43666e91287e021eb04a8686866040516114bb93929190612156565b60405180910390a160016000546114d291906123c2565b925050509392505050565b60046020528060005260406000206000915090508060000160009054906101000a900473ffffffffffffffffffffffffffffffffffffffff16908060010160009054906101000a900473ffffffffffffffffffffffffffffffffffffffff16908060020154908060030160009054906101000a900460ff16905084565b6000600560009054906101000a900473ffffffffffffffffffffffffffffffffffffffff16905090565b600560009054906101000a900473ffffffffffffffffffffffffffffffffffffffff1673ffffffffffffffffffffffffffffffffffffffff163373ffffffffffffffffffffffffffffffffffffffff1614611614576040517f08c379a000000000000000000000000000000000000000000000000000000000815260040161160b9061221b565b60405180910390fd5b8060008111611658576040517f08c379a000000000000000000000000000000000000000000000000000000000815260040161164f906122db565b60405180910390fd5b816002819055507f2d0e5fd464b43f2cc17eef20dcfc223b4f5719b867562cfac0eed8c9f9c5ab218260405161168e9190612396565b60405180910390a15050565b60008054905090565b6000600254905090565b6000600660009054906101000a900473ffffffffffffffffffffffffffffffffffffffff16905090565b600660009054906101000a900473ffffffffffffffffffffffffffffffffffffffff1673ffffffffffffffffffffffffffffffffffffffff163373ffffffffffffffffffffffffffffffffffffffff1614611767576040517f08c379a000000000000000000000000000000000000000000000000000000000815260040161175e9061235b565b60405180910390fd5b8060005481106117ac576040517f08c379a00000000000000000000000000000000000000000000000000000000081526004016117a39061225b565b60405180910390fd5b81600060038111156117e7577f4e487b7100000000000000000000000000000000000000000000000000000000600052602160045260246000fd5b6004600083815260200190815260200160002060030160009054906101000a900460ff166003811115611843577f4e487b7100000000000000000000000000000000000000000000000000000000600052602160045260246000fd5b14611883576040517f08c379a000000000000000000000000000000000000000000000000000000000815260040161187a906121fb565b60405180910390fd5b6000600460008581526020019081526020016000209050600360009054906101000a900473ffffffffffffffffffffffffffffffffffffffff1673ffffffffffffffffffffffffffffffffffffffff1663b81027188260000160009054906101000a900473ffffffffffffffffffffffffffffffffffffffff163084600201546040518463ffffffff1660e01b815260040161192193929190612156565b600060405180830381600087803b15801561193b57600080fd5b505af115801561194f573d6000803e3d6000fd5b5050505060018160030160006101000a81548160ff021916908360038111156119a1577f4e487b7100000000000000000000000000000000000000000000000000000000600052602160045260246000fd5b02179055507f7e9cb42033a175042cb8f196529b20b79e4279330a9b9be72e2b1f352528c8f88160000160009054906101000a900473ffffffffffffffffffffffffffffffffffffffff168260010160009054906101000a900473ffffffffffffffffffffffffffffffffffffffff168360020154604051611a2593929190612156565b60405180910390a150505050565b600560009054906101000a900473ffffffffffffffffffffffffffffffffffffffff1673ffffffffffffffffffffffffffffffffffffffff163373ffffffffffffffffffffffffffffffffffffffff1614611ac3576040517f08c379a0000000000000000000000000000000000000000000000000000000008152600401611aba9061221b565b60405180910390fd5b600360009054906101000a900473ffffffffffffffffffffffffffffffffffffffff1673ffffffffffffffffffffffffffffffffffffffff1663daa3b7e8600560009054906101000a900473ffffffffffffffffffffffffffffffffffffffff16600360009054906101000a900473ffffffffffffffffffffffffffffffffffffffff1673ffffffffffffffffffffffffffffffffffffffff1663a3e36604306040518263ffffffff1660e01b8152600401611b7f919061213b565b602060405180830381600087803b158015611b9957600080fd5b505af1158015611bad573d6000803e3d6000fd5b505050506040513d601f19601f82011682018060405250810190611bd19190611ebf565b6040518363ffffffff1660e01b8152600401611bee9291906121d2565b600060405180830381600087803b158015611c0857600080fd5b505af1158015611c1c573d6000803e3d6000fd5b505050507faa0fd0dab0b527bc5a660240bf59ef3230f7a6821315eeff5e0b2c9d180255e6600560009054906101000a900473ffffffffffffffffffffffffffffffffffffffff16600360009054906101000a900473ffffffffffffffffffffffffffffffffffffffff1673ffffffffffffffffffffffffffffffffffffffff1663a3e36604306040518263ffffffff1660e01b8152600401611cbf919061213b565b602060405180830381600087803b158015611cd957600080fd5b505af1158015611ced573d6000803e3d6000fd5b505050506040513d601f19601f82011682018060405250810190611d119190611ebf565b604051611d1f9291906121d2565b60405180910390a1565b6000600760009054906101000a900473ffffffffffffffffffffffffffffffffffffffff16905090565b6040518060800160405280600073ffffffffffffffffffffffffffffffffffffffff168152602001600073ffffffffffffffffffffffffffffffffffffffff1681526020016000815260200160006003811115611dd9577f4e487b7100000000000000000000000000000000000000000000000000000000600052602160045260246000fd5b81525090565b600081359050611dee8161282e565b92915050565b600081359050611e0381612845565b92915050565b600081519050611e1881612845565b92915050565b600060208284031215611e3057600080fd5b6000611e3e84828501611ddf565b91505092915050565b600080600060608486031215611e5c57600080fd5b6000611e6a86828701611ddf565b9350506020611e7b86828701611ddf565b9250506040611e8c86828701611df4565b9150509250925092565b600060208284031215611ea857600080fd5b6000611eb684828501611df4565b91505092915050565b600060208284031215611ed157600080fd5b6000611edf84828501611e09565b91505092915050565b611ef1816123f6565b82525050565b611f00816123f6565b82525050565b611f0f81612445565b82525050565b611f1e81612445565b82525050565b6000611f31601d836123b1565b9150611f3c826124fe565b602082019050919050565b6000611f546021836123b1565b9150611f5f82612527565b604082019050919050565b6000611f77602a836123b1565b9150611f8282612576565b604082019050919050565b6000611f9a6016836123b1565b9150611fa5826125c5565b602082019050919050565b6000611fbd601d836123b1565b9150611fc8826125ee565b602082019050919050565b6000611fe0601e836123b1565b9150611feb82612617565b602082019050919050565b60006120036022836123b1565b915061200e82612640565b604082019050919050565b60006120266025836123b1565b91506120318261268f565b604082019050919050565b60006120496021836123b1565b9150612054826126de565b604082019050919050565b600061206c603f836123b1565b91506120778261272d565b604082019050919050565b600061208f6025836123b1565b915061209a8261277c565b604082019050919050565b60006120b2602d836123b1565b91506120bd826127cb565b604082019050919050565b6080820160008201516120de6000850182611ee8565b5060208201516120f16020850182611ee8565b506040820151612104604085018261211d565b5060608201516121176060850182611f06565b50505050565b6121268161243b565b82525050565b6121358161243b565b82525050565b60006020820190506121506000830184611ef7565b92915050565b600060608201905061216b6000830186611ef7565b6121786020830185611ef7565b612185604083018461212c565b949350505050565b60006080820190506121a26000830187611ef7565b6121af6020830186611ef7565b6121bc604083018561212c565b6121c96060830184611f15565b95945050505050565b60006040820190506121e76000830185611ef7565b6121f4602083018461212c565b9392505050565b6000602082019050818103600083015261221481611f24565b9050919050565b6000602082019050818103600083015261223481611f47565b9050919050565b6000602082019050818103600083015261225481611f6a565b9050919050565b6000602082019050818103600083015261227481611f8d565b9050919050565b6000602082019050818103600083015261229481611fb0565b9050919050565b600060208201905081810360008301526122b481611fd3565b9050919050565b600060208201905081810360008301526122d481611ff6565b9050919050565b600060208201905081810360008301526122f481612019565b9050919050565b600060208201905081810360008301526123148161203c565b9050919050565b600060208201905081810360008301526123348161205f565b9050919050565b6000602082019050818103600083015261235481612082565b9050919050565b60006020820190508181036000830152612374816120a5565b9050919050565b600060808201905061239060008301846120c8565b92915050565b60006020820190506123ab600083018461212c565b92915050565b600082825260208201905092915050565b60006123cd8261243b565b91506123d88361243b565b9250828210156123eb576123ea6124a0565b5b828203905092915050565b60006124018261241b565b9050919050565b60008190506124168261281a565b919050565b600073ffffffffffffffffffffffffffffffffffffffff82169050919050565b6000819050919050565b600061245082612408565b9050919050565b60006124628261243b565b91507fffffffffffffffffffffffffffffffffffffffffffffffffffffffffffffffff821415612495576124946124a0565b5b600182019050919050565b7f4e487b7100000000000000000000000000000000000000000000000000000000600052601160045260246000fd5b7f4e487b7100000000000000000000000000000000000000000000000000000000600052602160045260246000fd5b7f5061796d656e742068617320616c7265616479206265656e206d616465000000600082015250565b7f4f6e6c79206f776e65722063616e2063616c6c20746869732066756e6374696f60008201527f6e00000000000000000000000000000000000000000000000000000000000000602082015250565b7f4f6e6c792052656e744469737075746544414f2063616e2063616c6c2074686960008201527f732066756e6374696f6e00000000000000000000000000000000000000000000602082015250565b7f5061796d656e7420646f6573206e6f7420657869737400000000000000000000600082015250565b7f5061796d656e7420686173206e6f74206265656e206d61646520796574000000600082015250565b7f496e76616c69642052656e744469737075746544414f20616464726573730000600082015250565b7f506179657220646f6573206e6f74206861766520656e6f7567682062616c616e60008201527f6365000000000000000000000000000000000000000000000000000000000000602082015250565b7f436f6d6d697373696f6e20666565206d7573742062652067726561746572207460008201527f68616e2030000000000000000000000000000000000000000000000000000000602082015250565b7f496e76616c69642052656e74616c6d61726b657470616c63652061646472657360008201527f7300000000000000000000000000000000000000000000000000000000000000602082015250565b7f4f6e6c792052656e74616c4d61726b6574706c616365206f722052656e74446960008201527f737075746544414f2063616e2063616c6c20746869732066756e6374696f6e00602082015250565b7f50726f74656374696f6e20666565206d7573742062652067726561746572207460008201527f68616e2030000000000000000000000000000000000000000000000000000000602082015250565b7f4f6e6c792052656e74616c4d61726b6574706c6163652063616e2063616c6c2060008201527f746869732066756e6374696f6e00000000000000000000000000000000000000602082015250565b6004811061282b5761282a6124cf565b5b50565b612837816123f6565b811461284257600080fd5b50565b61284e8161243b565b811461285957600080fd5b5056fea264697066735822122010306c94c7663be985551d632cfbf1bcf568e659b7fc1b70f972c285530379ee64736f6c63430008010033",
  "immutableReferences": {},
  "source": "// SPDX-License-Identifier: MIT\r\npragma solidity ^0.8.0;\r\n\r\nimport \"./LeaseToken.sol\";\r\n\r\ncontract PaymentEscrow {\r\n    // ################################################### STRUCTURE & STATE VARIABLES ################################################### //\r\n    enum PaymentStatus {\r\n        PENDING,\r\n        PAID,\r\n        RELEASED,\r\n        REFUNDED\r\n    }\r\n\r\n    struct Payment {\r\n        address payer;\r\n        address payee;\r\n        uint256 amount;\r\n        PaymentStatus status;\r\n    }\r\n\r\n    // The number of payment transactions that have been made\r\n    uint256 private numOfPayments = 0;\r\n    // The number of tokens landlord must stake in the potential event of a dispute with tenant\r\n    uint256 private protectionFee;\r\n    // The commission fee (in tokens) that the platform charges for each transaction\r\n    uint256 private commissionFee;\r\n\r\n    LeaseToken leaseTokenContract;\r\n\r\n    mapping(uint256 => Payment) public payments;\r\n\r\n    // The owner of the contract (PaymentEscrow), who can set the protection fee (for landlord) and commission fee (for platform)\r\n    address private owner;\r\n    // The address of the RentalMarketplace contract, which is the only contract that can call the release function\r\n    address private rentalMarketplaceAddress;\r\n    // The address of the RentDisputeDAO contract, which is the only contract that can call the refund function\r\n    address private rentDisputeDAOAddress;\r\n\r\n    constructor(\r\n        address _leaseTokenAddress,\r\n        uint256 _protectionFee,\r\n        uint256 _commissionFee\r\n    ) {\r\n        leaseTokenContract = LeaseToken(_leaseTokenAddress);\r\n        protectionFee = _protectionFee;\r\n        commissionFee = _commissionFee;\r\n        owner = msg.sender;\r\n    }\r\n\r\n    // ################################################### EVENTS ################################################### //\r\n\r\n    event paymentCreated(address payer, address payee, uint256 amount);\r\n    event paymentPaid(address payer, address payee, uint256 amount);\r\n    event paymentReleased(address payer, address payee, uint256 amount);\r\n    event paymentRefunded(address payer, address payee, uint256 amount);\r\n    event protectionFeeSet(uint256 protectionFee);\r\n    event commissionFeeSet(uint256 commissionFee);\r\n    event tokenWithdrawn(address owner, uint256 amount);\r\n    event rentalMarketplaceAddressSet(address rentalMarketplaceAddress);\r\n    event rentDisputeDAOAddressSet(address rentDisputeDAOAddress);\r\n\r\n    // ################################################### MODIFIERS ################################################### //\r\n\r\n    modifier onlyOwner() {\r\n        require(msg.sender == owner, \"Only owner can call this function\");\r\n        _;\r\n    }\r\n\r\n    modifier onlyRentalMarketplace() {\r\n        require(\r\n            msg.sender == rentalMarketplaceAddress,\r\n            \"Only RentalMarketplace can call this function\"\r\n        );\r\n        _;\r\n    }\r\n\r\n    modifier onlyRentDisputeDAO() {\r\n        require(\r\n            msg.sender == rentDisputeDAOAddress,\r\n            \"Only RentDisputeDAO can call this function\"\r\n        );\r\n        _;\r\n    }\r\n\r\n    modifier onlyRentalMarketplaceOrRentDisputeDAO() {\r\n        require(\r\n            msg.sender == rentalMarketplaceAddress ||\r\n                msg.sender == rentDisputeDAOAddress,\r\n            \"Only RentalMarketplace or RentDisputeDAO can call this function\"\r\n        );\r\n        _;\r\n    }\r\n\r\n    modifier checkSufficientBalance(address _payer, uint256 _amount) {\r\n        require(\r\n            leaseTokenContract.checkLeaseToken(_payer) >= _amount,\r\n            \"Payer does not have enough balance\"\r\n        );\r\n        _;\r\n    }\r\n\r\n    modifier PaymentExists(uint256 _paymentId) {\r\n        require(_paymentId < numOfPayments, \"Payment does not exist\");\r\n        _;\r\n    }\r\n\r\n    modifier PaymentPending(uint256 _paymentId) {\r\n        require(\r\n            payments[_paymentId].status == PaymentStatus.PENDING,\r\n            \"Payment has already been made\"\r\n        );\r\n        _;\r\n    }\r\n\r\n    modifier PaymentPaid(uint256 _paymentId) {\r\n        require(\r\n            payments[_paymentId].status == PaymentStatus.PAID,\r\n            \"Payment has not been made yet\"\r\n        );\r\n        _;\r\n    }\r\n\r\n    modifier PaymentReleased(uint256 _paymentId) {\r\n        require(\r\n            payments[_paymentId].status == PaymentStatus.RELEASED,\r\n            \"Payment has not been released yet\"\r\n        );\r\n        _;\r\n    }\r\n\r\n    modifier PaymentRefunded(uint256 _paymentId) {\r\n        require(\r\n            payments[_paymentId].status == PaymentStatus.REFUNDED,\r\n            \"Payment has not been refunded yet\"\r\n        );\r\n        _;\r\n    }\r\n\r\n    modifier invalidProtectionFee(uint256 _protectionFee) {\r\n        require(_protectionFee > 0, \"Protection fee must be greater than 0\");\r\n        _;\r\n    }\r\n\r\n    modifier invalidCommissionFee(uint256 _commissionFee) {\r\n        require(_commissionFee > 0, \"Commission fee must be greater than 0\");\r\n        _;\r\n    }\r\n\r\n    modifier invalidRentalMarketplaceAddress(\r\n        address _rentalMarketplaceAddress\r\n    ) {\r\n        require(\r\n            _rentalMarketplaceAddress != address(0),\r\n            \"Invalid Rentalmarketpalce address\"\r\n        );\r\n        _;\r\n    }\r\n\r\n    modifier invalidRentDisputeDAOAddress(address _rentDisputeDAOAddress) {\r\n        require(\r\n            _rentDisputeDAOAddress != address(0),\r\n            \"Invalid RentDisputeDAO address\"\r\n        );\r\n        _;\r\n    }\r\n\r\n    // ################################################### FUNCTIONS ################################################### //\r\n\r\n    // Function to create a payment transaction\r\n    function createPayment(\r\n        address _payer,\r\n        address _payee,\r\n        uint256 _amount\r\n    )\r\n        public\r\n        onlyRentalMarketplaceOrRentDisputeDAO\r\n        checkSufficientBalance(_payer, _amount)\r\n        returns (uint256)\r\n    {\r\n        payments[numOfPayments] = Payment(\r\n            _payer,\r\n            _payee,\r\n            _amount,\r\n            PaymentStatus.PENDING\r\n        );\r\n        numOfPayments++;\r\n        emit paymentCreated(_payer, _payee, _amount);\r\n        return numOfPayments - 1; // Return the payment ID\r\n    }\r\n\r\n    // Function to transfer the payment amount from the tenant to the PaymentEscrow\r\n    function pay(\r\n        uint256 _paymentId\r\n    )\r\n        public\r\n        onlyRentalMarketplace\r\n        PaymentExists(_paymentId)\r\n        PaymentPending(_paymentId)\r\n    {\r\n        Payment storage payment = payments[_paymentId];\r\n        // Tenant transfers the payment amount to PaymentEscrow\r\n        leaseTokenContract.transferLeaseTokenFrom(\r\n            payment.payer,\r\n            address(this),\r\n            payment.amount\r\n        );\r\n        payment.status = PaymentStatus.PAID;\r\n        emit paymentPaid(payment.payer, payment.payee, payment.amount);\r\n    }\r\n\r\n    // Function to release the payment amount from the PaymentEscrow to the landlord\r\n    function release(\r\n        uint256 _paymentId\r\n    )\r\n        public\r\n        onlyRentalMarketplace\r\n        PaymentExists(_paymentId)\r\n        PaymentPaid(_paymentId)\r\n    {\r\n        Payment storage payment = payments[_paymentId];\r\n\r\n        // Tenant approves PaymentEscrow to transfer the payment amount to the Landlord\r\n        leaseTokenContract.approveLeaseToken(address(this), payment.amount);\r\n        // PaymentEscrow transfers the payment amount to the tenant (minus the commission fee), commission fee is transferred to the platform\r\n        leaseTokenContract.transferLeaseToken(\r\n            payment.payee,\r\n            payment.amount - commissionFee\r\n        );\r\n        payment.status = PaymentStatus.RELEASED;\r\n        emit paymentReleased(payment.payer, payment.payee, payment.amount);\r\n    }\r\n\r\n    // Function to refund the payment amount from the PaymentEscrow to the tenant\r\n    function refund(\r\n        uint256 _paymentId\r\n    )\r\n        public\r\n        onlyRentDisputeDAO\r\n        PaymentExists(_paymentId)\r\n        PaymentPaid(_paymentId)\r\n    {\r\n        Payment storage payment = payments[_paymentId];\r\n        // PaymentEscrow transfers the payment amount back to the landlord\r\n        leaseTokenContract.transferLeaseToken(payment.payer, payment.amount);\r\n        payment.status = PaymentStatus.REFUNDED;\r\n        emit paymentRefunded(payment.payer, payment.payee, payment.amount);\r\n    }\r\n\r\n    // Function to withdraw the tokens to the owner of the contract\r\n    function withdrawToken() public onlyOwner {\r\n        leaseTokenContract.transferLeaseToken(\r\n            owner,\r\n            leaseTokenContract.checkLeaseToken((address(this)))\r\n        );\r\n        emit tokenWithdrawn(\r\n            owner,\r\n            leaseTokenContract.checkLeaseToken((address(this)))\r\n        );\r\n    }\r\n\r\n    // ################################################### SETTER METHODS ################################################### //\r\n\r\n    // Function to set the protection fee\r\n    function setProtectionFee(\r\n        uint256 _protectionFee\r\n    ) public onlyOwner invalidProtectionFee(_protectionFee) {\r\n        protectionFee = _protectionFee;\r\n        emit protectionFeeSet(_protectionFee);\r\n    }\r\n    // Function to set the commission fee\r\n    function setCommissionFee(\r\n        uint256 _commissionFee\r\n    ) public onlyOwner invalidCommissionFee(_commissionFee) {\r\n        commissionFee = _commissionFee;\r\n        emit commissionFeeSet(_commissionFee);\r\n    }\r\n\r\n    // Function to set the RentalMarketplace address (Access Control)\r\n    function setRentalMarketplaceAddress(\r\n        address _rentalMarketplaceAddress\r\n    )\r\n        public\r\n        onlyOwner\r\n        invalidRentalMarketplaceAddress(_rentalMarketplaceAddress)\r\n    {\r\n        rentalMarketplaceAddress = _rentalMarketplaceAddress;\r\n        emit rentalMarketplaceAddressSet(_rentalMarketplaceAddress);\r\n    }\r\n\r\n    // Function to set the RentDisputeDAO address (Access Control)\r\n    function setRentDisputeDAOAddress(\r\n        address _rentDisputeDAOAddress\r\n    ) public onlyOwner invalidRentDisputeDAOAddress(_rentDisputeDAOAddress) {\r\n        rentDisputeDAOAddress = _rentDisputeDAOAddress;\r\n        emit rentDisputeDAOAddressSet(_rentDisputeDAOAddress);\r\n    }\r\n\r\n    // ################################################### GETTER METHODS ################################################### //\r\n\r\n    // Function to get the protection fee\r\n    function getProtectionFee() public view returns (uint256) {\r\n        return protectionFee;\r\n    }\r\n\r\n    // Function to get the commission fee\r\n    function getCommissionFee() public view returns (uint256) {\r\n        return commissionFee;\r\n    }\r\n\r\n    // Function to get the payment details\r\n    function getPayment(\r\n        uint256 _paymentId\r\n    ) public view returns (Payment memory) {\r\n        return payments[_paymentId];\r\n    }\r\n\r\n    // Function to get the number of payments\r\n    function getNumOfPayments() public view returns (uint256) {\r\n        return numOfPayments;\r\n    }\r\n\r\n    // Function to get the balance of the contract\r\n    function getBalance() public returns (uint256) {\r\n        return leaseTokenContract.checkLeaseToken(address(this));\r\n    }\r\n\r\n    // Function to get the owner of the contract\r\n    function getOwner() public view returns (address) {\r\n        return owner;\r\n    }\r\n\r\n    // Function to get the contract address\r\n    function getContractAddress() public view returns (address) {\r\n        return address(this);\r\n    }\r\n\r\n    // Function to get the RentalMarketplace address\r\n    function getRentalMarketplaceAddress() public view returns (address) {\r\n        return rentalMarketplaceAddress;\r\n    }\r\n\r\n    // Function to get the RentDisputeDAO address\r\n    function getRentDisputeDAOAddress() public view returns (address) {\r\n        return rentDisputeDAOAddress;\r\n    }\r\n}\r\n",
  "sourcePath": "C:\\Users\\Bransome Tan Yi Hao\\OneDrive - National University of Singapore\\Desktop\\IS4302\\is4302-project\\contracts\\PaymentEscrow.sol",
  "compiler": {
    "name": "solc",
    "version": "0.8.1+commit.df193b15.Emscripten.clang"
  },
  "schemaVersion": "3.4.16",
  "updatedAt": "2024-04-06T16:08:11.356Z",
  "devdoc": {
    "kind": "dev",
    "methods": {},
    "version": 1
  },
  "userdoc": {
    "kind": "user",
    "methods": {},
    "version": 1
  }
}