{
  "contractName": "PaymentEscrow",
  "abi": [
    {
      "inputs": [
        {
          "internalType": "address",
          "name": "_leaseTokenAddress",
          "type": "address"
        },
        {
          "internalType": "uint256",
          "name": "_protectionFee",
          "type": "uint256"
        },
        {
          "internalType": "uint256",
          "name": "_commissionFee",
          "type": "uint256"
        },
        {
          "internalType": "uint256",
          "name": "_voterReward",
          "type": "uint256"
        }
      ],
      "stateMutability": "nonpayable",
      "type": "constructor"
    },
    {
      "anonymous": false,
      "inputs": [
        {
          "indexed": false,
          "internalType": "uint256",
          "name": "commissionFee",
          "type": "uint256"
        }
      ],
      "name": "commissionFeeSet",
      "type": "event"
    },
    {
      "anonymous": false,
      "inputs": [
        {
          "indexed": false,
          "internalType": "address",
          "name": "payer",
          "type": "address"
        },
        {
          "indexed": false,
          "internalType": "address",
          "name": "payee",
          "type": "address"
        },
        {
          "indexed": false,
          "internalType": "uint256",
          "name": "amount",
          "type": "uint256"
        }
      ],
      "name": "paymentCreated",
      "type": "event"
    },
    {
      "anonymous": false,
      "inputs": [
        {
          "indexed": false,
          "internalType": "address",
          "name": "payer",
          "type": "address"
        },
        {
          "indexed": false,
          "internalType": "address",
          "name": "payee",
          "type": "address"
        },
        {
          "indexed": false,
          "internalType": "uint256",
          "name": "amount",
          "type": "uint256"
        }
      ],
      "name": "paymentPaid",
      "type": "event"
    },
    {
      "anonymous": false,
      "inputs": [
        {
          "indexed": false,
          "internalType": "address",
          "name": "payer",
          "type": "address"
        },
        {
          "indexed": false,
          "internalType": "address",
          "name": "payee",
          "type": "address"
        },
        {
          "indexed": false,
          "internalType": "uint256",
          "name": "amount",
          "type": "uint256"
        }
      ],
      "name": "paymentRefunded",
      "type": "event"
    },
    {
      "anonymous": false,
      "inputs": [
        {
          "indexed": false,
          "internalType": "address",
          "name": "payer",
          "type": "address"
        },
        {
          "indexed": false,
          "internalType": "address",
          "name": "payee",
          "type": "address"
        },
        {
          "indexed": false,
          "internalType": "uint256",
          "name": "amount",
          "type": "uint256"
        }
      ],
      "name": "paymentReleased",
      "type": "event"
    },
    {
      "anonymous": false,
      "inputs": [
        {
          "indexed": false,
          "internalType": "uint256",
          "name": "protectionFee",
          "type": "uint256"
        }
      ],
      "name": "protectionFeeSet",
      "type": "event"
    },
    {
      "anonymous": false,
      "inputs": [
        {
          "indexed": false,
          "internalType": "address",
          "name": "rentDisputeDAOAddress",
          "type": "address"
        }
      ],
      "name": "rentDisputeDAOAddressSet",
      "type": "event"
    },
    {
      "anonymous": false,
      "inputs": [
        {
          "indexed": false,
          "internalType": "address",
          "name": "rentalMarketplaceAddress",
          "type": "address"
        }
      ],
      "name": "rentalMarketplaceAddressSet",
      "type": "event"
    },
    {
      "anonymous": false,
      "inputs": [
        {
          "indexed": false,
          "internalType": "address",
          "name": "owner",
          "type": "address"
        },
        {
          "indexed": false,
          "internalType": "uint256",
          "name": "amount",
          "type": "uint256"
        }
      ],
      "name": "tokenWithdrawn",
      "type": "event"
    },
    {
      "inputs": [
        {
          "internalType": "uint256",
          "name": "",
          "type": "uint256"
        }
      ],
      "name": "payments",
      "outputs": [
        {
          "internalType": "address",
          "name": "payer",
          "type": "address"
        },
        {
          "internalType": "address",
          "name": "payee",
          "type": "address"
        },
        {
          "internalType": "uint256",
          "name": "amount",
          "type": "uint256"
        },
        {
          "internalType": "enum PaymentEscrow.PaymentStatus",
          "name": "status",
          "type": "uint8"
        }
      ],
      "stateMutability": "view",
      "type": "function"
    },
    {
      "inputs": [
        {
          "internalType": "address",
          "name": "_payer",
          "type": "address"
        },
        {
          "internalType": "address",
          "name": "_payee",
          "type": "address"
        },
        {
          "internalType": "uint256",
          "name": "_amount",
          "type": "uint256"
        }
      ],
      "name": "createPayment",
      "outputs": [
        {
          "internalType": "uint256",
          "name": "",
          "type": "uint256"
        }
      ],
      "stateMutability": "nonpayable",
      "type": "function"
    },
    {
      "inputs": [
        {
          "internalType": "uint256",
          "name": "_paymentId",
          "type": "uint256"
        }
      ],
      "name": "pay",
      "outputs": [],
      "stateMutability": "nonpayable",
      "type": "function"
    },
    {
      "inputs": [
        {
          "internalType": "uint256",
          "name": "_paymentId",
          "type": "uint256"
        }
      ],
      "name": "release",
      "outputs": [],
      "stateMutability": "nonpayable",
      "type": "function"
    },
    {
      "inputs": [
        {
          "internalType": "uint256",
          "name": "_paymentId",
          "type": "uint256"
        }
      ],
      "name": "refund",
      "outputs": [],
      "stateMutability": "nonpayable",
      "type": "function"
    },
    {
      "inputs": [],
      "name": "withdrawToken",
      "outputs": [],
      "stateMutability": "nonpayable",
      "type": "function"
    },
    {
      "inputs": [
        {
          "internalType": "uint256",
          "name": "_protectionFee",
          "type": "uint256"
        }
      ],
      "name": "setProtectionFee",
      "outputs": [],
      "stateMutability": "nonpayable",
      "type": "function"
    },
    {
      "inputs": [
        {
          "internalType": "uint256",
          "name": "_commissionFee",
          "type": "uint256"
        }
      ],
      "name": "setCommissionFee",
      "outputs": [],
      "stateMutability": "nonpayable",
      "type": "function"
    },
    {
      "inputs": [
        {
          "internalType": "uint256",
          "name": "_voterReward",
          "type": "uint256"
        }
      ],
      "name": "setVoterReward",
      "outputs": [],
      "stateMutability": "nonpayable",
      "type": "function"
    },
    {
      "inputs": [
        {
          "internalType": "address",
          "name": "_rentalMarketplaceAddress",
          "type": "address"
        }
      ],
      "name": "setRentalMarketplaceAddress",
      "outputs": [],
      "stateMutability": "nonpayable",
      "type": "function"
    },
    {
      "inputs": [
        {
          "internalType": "address",
          "name": "_rentDisputeDAOAddress",
          "type": "address"
        }
      ],
      "name": "setRentDisputeDAOAddress",
      "outputs": [],
      "stateMutability": "nonpayable",
      "type": "function"
    },
    {
      "inputs": [],
      "name": "getProtectionFee",
      "outputs": [
        {
          "internalType": "uint256",
          "name": "",
          "type": "uint256"
        }
      ],
      "stateMutability": "view",
      "type": "function"
    },
    {
      "inputs": [],
      "name": "getCommissionFee",
      "outputs": [
        {
          "internalType": "uint256",
          "name": "",
          "type": "uint256"
        }
      ],
      "stateMutability": "view",
      "type": "function"
    },
    {
      "inputs": [],
      "name": "getVoterReward",
      "outputs": [
        {
          "internalType": "uint256",
          "name": "",
          "type": "uint256"
        }
      ],
      "stateMutability": "view",
      "type": "function"
    },
    {
      "inputs": [
        {
          "internalType": "uint256",
          "name": "_paymentId",
          "type": "uint256"
        }
      ],
      "name": "getPayment",
      "outputs": [
        {
          "components": [
            {
              "internalType": "address",
              "name": "payer",
              "type": "address"
            },
            {
              "internalType": "address",
              "name": "payee",
              "type": "address"
            },
            {
              "internalType": "uint256",
              "name": "amount",
              "type": "uint256"
            },
            {
              "internalType": "enum PaymentEscrow.PaymentStatus",
              "name": "status",
              "type": "uint8"
            }
          ],
          "internalType": "struct PaymentEscrow.Payment",
          "name": "",
          "type": "tuple"
        }
      ],
      "stateMutability": "view",
      "type": "function"
    },
    {
      "inputs": [],
      "name": "getNumOfPayments",
      "outputs": [
        {
          "internalType": "uint256",
          "name": "",
          "type": "uint256"
        }
      ],
      "stateMutability": "view",
      "type": "function"
    },
    {
      "inputs": [],
      "name": "getBalance",
      "outputs": [
        {
          "internalType": "uint256",
          "name": "",
          "type": "uint256"
        }
      ],
      "stateMutability": "view",
      "type": "function"
    },
    {
      "inputs": [],
      "name": "getOwner",
      "outputs": [
        {
          "internalType": "address",
          "name": "",
          "type": "address"
        }
      ],
      "stateMutability": "view",
      "type": "function"
    },
    {
      "inputs": [],
      "name": "getContractAddress",
      "outputs": [
        {
          "internalType": "address",
          "name": "",
          "type": "address"
        }
      ],
      "stateMutability": "view",
      "type": "function"
    },
    {
      "inputs": [],
      "name": "getRentalMarketplaceAddress",
      "outputs": [
        {
          "internalType": "address",
          "name": "",
          "type": "address"
        }
      ],
      "stateMutability": "view",
      "type": "function"
    },
    {
      "inputs": [],
      "name": "getRentDisputeDAOAddress",
      "outputs": [
        {
          "internalType": "address",
          "name": "",
          "type": "address"
        }
      ],
      "stateMutability": "view",
      "type": "function"
    }
  ],
  "bytecode": "0x6080604052600080553480156200001557600080fd5b5060405162002ba338038062002ba383398181016040528101906200003b91906200010a565b83600460006101000a81548173ffffffffffffffffffffffffffffffffffffffff021916908373ffffffffffffffffffffffffffffffffffffffff16021790555082600181905550816002819055508060038190555033600660006101000a81548173ffffffffffffffffffffffffffffffffffffffff021916908373ffffffffffffffffffffffffffffffffffffffff16021790555050505050620001e8565b600081519050620000ed81620001b4565b92915050565b6000815190506200010481620001ce565b92915050565b600080600080608085870312156200012157600080fd5b60006200013187828801620000dc565b94505060206200014487828801620000f3565b93505060406200015787828801620000f3565b92505060606200016a87828801620000f3565b91505092959194509250565b600062000183826200018a565b9050919050565b600073ffffffffffffffffffffffffffffffffffffffff82169050919050565b6000819050919050565b620001bf8162000176565b8114620001cb57600080fd5b50565b620001d981620001aa565b8114620001e557600080fd5b50565b6129ab80620001f86000396000f3fe608060405234801561001057600080fd5b50600436106101375760003560e01c8063794d0ed8116100b85780639d7d496e1161007c5780639d7d496e1461032b578063b530d81e14610349578063c290d69114610367578063ca628c7814610383578063df2422f01461038d578063f19ba757146103ab57610137565b8063794d0ed81461027057806387d81789146102a0578063893d20e8146102d3578063895860e5146102f157806394c8dcb11461030d57610137565b806332a2c5d0116100ff57806332a2c5d0146101e257806335e88e2a1461020057806337bdc99b1461021c5780635b0f9317146102385780637620287b1461025457610137565b806312065fe01461013c57806315aca6cb1461015a5780631f7559ae14610178578063278ecde1146101965780633280a836146101b2575b600080fd5b6101446103c7565b60405161015191906124fe565b60405180910390f35b610162610479565b60405161016f91906124fe565b60405180910390f35b610180610483565b60405161018d91906124fe565b60405180910390f35b6101b060048036038101906101ab9190611ffc565b61048d565b005b6101cc60048036038101906101c79190611ffc565b610841565b6040516101d991906124e3565b60405180910390f35b6101ea6109ab565b6040516101f7919061227e565b60405180910390f35b61021a60048036038101906102159190611f84565b6109b3565b005b61023660048036038101906102319190611ffc565b610b30565b005b610252600480360381019061024d9190611ffc565b610e99565b005b61026e60048036038101906102699190611f84565b610faf565b005b61028a60048036038101906102859190611fad565b61112c565b60405161029791906124fe565b60405180910390f35b6102ba60048036038101906102b59190611ffc565b6114f0565b6040516102ca9493929190612315565b60405180910390f35b6102db61156d565b6040516102e8919061227e565b60405180910390f35b61030b60048036038101906103069190611ffc565b611597565b005b6103156116ad565b60405161032291906124fe565b60405180910390f35b6103336116b6565b60405161034091906124fe565b60405180910390f35b6103516116c0565b60405161035e919061227e565b60405180910390f35b610381600480360381019061037c9190611ffc565b6116ea565b005b61038b611b01565b005b610395611df5565b6040516103a2919061227e565b60405180910390f35b6103c560048036038101906103c09190611ffc565b611e1f565b005b6000600460009054906101000a900473ffffffffffffffffffffffffffffffffffffffff1673ffffffffffffffffffffffffffffffffffffffff1663a3e36604306040518263ffffffff1660e01b8152600401610424919061227e565b60206040518083038186803b15801561043c57600080fd5b505afa158015610450573d6000803e3d6000fd5b505050506040513d601f19601f820116820180604052508101906104749190612025565b905090565b6000600354905090565b6000600154905090565b600760009054906101000a900473ffffffffffffffffffffffffffffffffffffffff1673ffffffffffffffffffffffffffffffffffffffff163373ffffffffffffffffffffffffffffffffffffffff1614806105365750600860009054906101000a900473ffffffffffffffffffffffffffffffffffffffff1673ffffffffffffffffffffffffffffffffffffffff163373ffffffffffffffffffffffffffffffffffffffff16145b610575576040517f08c379a000000000000000000000000000000000000000000000000000000000815260040161056c90612483565b60405180910390fd5b8060005481106105ba576040517f08c379a00000000000000000000000000000000000000000000000000000000081526004016105b1906123c3565b60405180910390fd5b81600160038111156105f5577f4e487b7100000000000000000000000000000000000000000000000000000000600052602160045260246000fd5b6005600083815260200190815260200160002060030160009054906101000a900460ff166003811115610651577f4e487b7100000000000000000000000000000000000000000000000000000000600052602160045260246000fd5b14610691576040517f08c379a0000000000000000000000000000000000000000000000000000000008152600401610688906123e3565b60405180910390fd5b6000600560008581526020019081526020016000209050600460009054906101000a900473ffffffffffffffffffffffffffffffffffffffff1673ffffffffffffffffffffffffffffffffffffffff1663d97d12dc308360000160009054906101000a900473ffffffffffffffffffffffffffffffffffffffff1684600201546040518463ffffffff1660e01b815260040161072f939291906122de565b600060405180830381600087803b15801561074957600080fd5b505af115801561075d573d6000803e3d6000fd5b5050505060038160030160006101000a81548160ff021916908360038111156107af577f4e487b7100000000000000000000000000000000000000000000000000000000600052602160045260246000fd5b02179055507fce02e9bea9450a1582b80e1fa9c7355ba3fa2e0c367b1c5fbaba84c08dde4c538160000160009054906101000a900473ffffffffffffffffffffffffffffffffffffffff168260010160009054906101000a900473ffffffffffffffffffffffffffffffffffffffff168360020154604051610833939291906122de565b60405180910390a150505050565b610849611eb9565b600560008381526020019081526020016000206040518060800160405290816000820160009054906101000a900473ffffffffffffffffffffffffffffffffffffffff1673ffffffffffffffffffffffffffffffffffffffff1673ffffffffffffffffffffffffffffffffffffffff1681526020016001820160009054906101000a900473ffffffffffffffffffffffffffffffffffffffff1673ffffffffffffffffffffffffffffffffffffffff1673ffffffffffffffffffffffffffffffffffffffff168152602001600282015481526020016003820160009054906101000a900460ff166003811115610968577f4e487b7100000000000000000000000000000000000000000000000000000000600052602160045260246000fd5b60038111156109a0577f4e487b7100000000000000000000000000000000000000000000000000000000600052602160045260246000fd5b815250509050919050565b600030905090565b600660009054906101000a900473ffffffffffffffffffffffffffffffffffffffff1673ffffffffffffffffffffffffffffffffffffffff163373ffffffffffffffffffffffffffffffffffffffff1614610a43576040517f08c379a0000000000000000000000000000000000000000000000000000000008152600401610a3a906123a3565b60405180910390fd5b80600073ffffffffffffffffffffffffffffffffffffffff168173ffffffffffffffffffffffffffffffffffffffff161415610ab4576040517f08c379a0000000000000000000000000000000000000000000000000000000008152600401610aab90612463565b60405180910390fd5b81600760006101000a81548173ffffffffffffffffffffffffffffffffffffffff021916908373ffffffffffffffffffffffffffffffffffffffff1602179055507f0d97c2edba1236202c4ab09d16f0f494318aab730a517c7d6f1770a2fdd7b63782604051610b24919061227e565b60405180910390a15050565b600760009054906101000a900473ffffffffffffffffffffffffffffffffffffffff1673ffffffffffffffffffffffffffffffffffffffff163373ffffffffffffffffffffffffffffffffffffffff1614610bc0576040517f08c379a0000000000000000000000000000000000000000000000000000000008152600401610bb7906124c3565b60405180910390fd5b806000548110610c05576040517f08c379a0000000000000000000000000000000000000000000000000000000008152600401610bfc906123c3565b60405180910390fd5b8160016003811115610c40577f4e487b7100000000000000000000000000000000000000000000000000000000600052602160045260246000fd5b6005600083815260200190815260200160002060030160009054906101000a900460ff166003811115610c9c577f4e487b7100000000000000000000000000000000000000000000000000000000600052602160045260246000fd5b14610cdc576040517f08c379a0000000000000000000000000000000000000000000000000000000008152600401610cd3906123e3565b60405180910390fd5b6000600560008581526020019081526020016000209050600460009054906101000a900473ffffffffffffffffffffffffffffffffffffffff1673ffffffffffffffffffffffffffffffffffffffff1663d97d12dc308360010160009054906101000a900473ffffffffffffffffffffffffffffffffffffffff166002548560020154610d69919061252a565b6040518463ffffffff1660e01b8152600401610d87939291906122de565b600060405180830381600087803b158015610da157600080fd5b505af1158015610db5573d6000803e3d6000fd5b5050505060028160030160006101000a81548160ff02191690836003811115610e07577f4e487b7100000000000000000000000000000000000000000000000000000000600052602160045260246000fd5b02179055507f0bb3357d6f2cf56ed1ef16717520f9ce78dac340ce04e515ca5b648fb29d81dd8160000160009054906101000a900473ffffffffffffffffffffffffffffffffffffffff168260010160009054906101000a900473ffffffffffffffffffffffffffffffffffffffff168360020154604051610e8b939291906122de565b60405180910390a150505050565b600660009054906101000a900473ffffffffffffffffffffffffffffffffffffffff1673ffffffffffffffffffffffffffffffffffffffff163373ffffffffffffffffffffffffffffffffffffffff1614610f29576040517f08c379a0000000000000000000000000000000000000000000000000000000008152600401610f20906123a3565b60405180910390fd5b8060008111610f6d576040517f08c379a0000000000000000000000000000000000000000000000000000000008152600401610f64906124a3565b60405180910390fd5b816001819055507f20c5d2426bf7f0fa5dfb56e676130c81f58903a4373636d9821ea85df121bfe882604051610fa391906124fe565b60405180910390a15050565b600660009054906101000a900473ffffffffffffffffffffffffffffffffffffffff1673ffffffffffffffffffffffffffffffffffffffff163373ffffffffffffffffffffffffffffffffffffffff161461103f576040517f08c379a0000000000000000000000000000000000000000000000000000000008152600401611036906123a3565b60405180910390fd5b80600073ffffffffffffffffffffffffffffffffffffffff168173ffffffffffffffffffffffffffffffffffffffff1614156110b0576040517f08c379a00000000000000000000000000000000000000000000000000000000081526004016110a790612403565b60405180910390fd5b81600860006101000a81548173ffffffffffffffffffffffffffffffffffffffff021916908373ffffffffffffffffffffffffffffffffffffffff1602179055507f805e9277349a1e91b496994a9be376a13fc2682f022c4acdff7f8c50546710ac82604051611120919061227e565b60405180910390a15050565b6000600760009054906101000a900473ffffffffffffffffffffffffffffffffffffffff1673ffffffffffffffffffffffffffffffffffffffff163373ffffffffffffffffffffffffffffffffffffffff1614806111d75750600860009054906101000a900473ffffffffffffffffffffffffffffffffffffffff1673ffffffffffffffffffffffffffffffffffffffff163373ffffffffffffffffffffffffffffffffffffffff16145b611216576040517f08c379a000000000000000000000000000000000000000000000000000000000815260040161120d90612483565b60405180910390fd5b838280600460009054906101000a900473ffffffffffffffffffffffffffffffffffffffff1673ffffffffffffffffffffffffffffffffffffffff1663a3e36604846040518263ffffffff1660e01b8152600401611274919061227e565b60206040518083038186803b15801561128c57600080fd5b505afa1580156112a0573d6000803e3d6000fd5b505050506040513d601f19601f820116820180604052508101906112c49190612025565b1015611305576040517f08c379a00000000000000000000000000000000000000000000000000000000081526004016112fc90612423565b60405180910390fd5b60405180608001604052808773ffffffffffffffffffffffffffffffffffffffff1681526020018673ffffffffffffffffffffffffffffffffffffffff16815260200185815260200160006003811115611388577f4e487b7100000000000000000000000000000000000000000000000000000000600052602160045260246000fd5b815250600560008054815260200190815260200160002060008201518160000160006101000a81548173ffffffffffffffffffffffffffffffffffffffff021916908373ffffffffffffffffffffffffffffffffffffffff16021790555060208201518160010160006101000a81548173ffffffffffffffffffffffffffffffffffffffff021916908373ffffffffffffffffffffffffffffffffffffffff1602179055506040820151816002015560608201518160030160006101000a81548160ff02191690836003811115611488577f4e487b7100000000000000000000000000000000000000000000000000000000600052602160045260246000fd5b02179055509050506000808154809291906114a2906125bf565b91905055507ff784815e5d852061f9c35ee8ab3237cd56d85a35a73a43666e91287e021eb04a8686866040516114da939291906122de565b60405180910390a1600054925050509392505050565b60056020528060005260406000206000915090508060000160009054906101000a900473ffffffffffffffffffffffffffffffffffffffff16908060010160009054906101000a900473ffffffffffffffffffffffffffffffffffffffff16908060020154908060030160009054906101000a900460ff16905084565b6000600660009054906101000a900473ffffffffffffffffffffffffffffffffffffffff16905090565b600660009054906101000a900473ffffffffffffffffffffffffffffffffffffffff1673ffffffffffffffffffffffffffffffffffffffff163373ffffffffffffffffffffffffffffffffffffffff1614611627576040517f08c379a000000000000000000000000000000000000000000000000000000000815260040161161e906123a3565b60405180910390fd5b806000811161166b576040517f08c379a000000000000000000000000000000000000000000000000000000000815260040161166290612443565b60405180910390fd5b816002819055507f2d0e5fd464b43f2cc17eef20dcfc223b4f5719b867562cfac0eed8c9f9c5ab21826040516116a191906124fe565b60405180910390a15050565b60008054905090565b6000600254905090565b6000600760009054906101000a900473ffffffffffffffffffffffffffffffffffffffff16905090565b600760009054906101000a900473ffffffffffffffffffffffffffffffffffffffff1673ffffffffffffffffffffffffffffffffffffffff163373ffffffffffffffffffffffffffffffffffffffff161461177a576040517f08c379a0000000000000000000000000000000000000000000000000000000008152600401611771906124c3565b60405180910390fd5b8060005481106117bf576040517f08c379a00000000000000000000000000000000000000000000000000000000081526004016117b6906123c3565b60405180910390fd5b81600060038111156117fa577f4e487b7100000000000000000000000000000000000000000000000000000000600052602160045260246000fd5b6005600083815260200190815260200160002060030160009054906101000a900460ff166003811115611856577f4e487b7100000000000000000000000000000000000000000000000000000000600052602160045260246000fd5b14611896576040517f08c379a000000000000000000000000000000000000000000000000000000000815260040161188d90612383565b60405180910390fd5b6000600560008581526020019081526020016000209050600460009054906101000a900473ffffffffffffffffffffffffffffffffffffffff1673ffffffffffffffffffffffffffffffffffffffff1663b4e59fa38260000160009054906101000a900473ffffffffffffffffffffffffffffffffffffffff163084600201546040518463ffffffff1660e01b8152600401611934939291906122de565b600060405180830381600087803b15801561194e57600080fd5b505af1158015611962573d6000803e3d6000fd5b50505050600460009054906101000a900473ffffffffffffffffffffffffffffffffffffffff1673ffffffffffffffffffffffffffffffffffffffff1663403e2a63308360000160009054906101000a900473ffffffffffffffffffffffffffffffffffffffff163085600201546040518563ffffffff1660e01b81526004016119ef9493929190612299565b600060405180830381600087803b158015611a0957600080fd5b505af1158015611a1d573d6000803e3d6000fd5b5050505060018160030160006101000a81548160ff02191690836003811115611a6f577f4e487b7100000000000000000000000000000000000000000000000000000000600052602160045260246000fd5b02179055507f7e9cb42033a175042cb8f196529b20b79e4279330a9b9be72e2b1f352528c8f88160000160009054906101000a900473ffffffffffffffffffffffffffffffffffffffff168260010160009054906101000a900473ffffffffffffffffffffffffffffffffffffffff168360020154604051611af3939291906122de565b60405180910390a150505050565b600660009054906101000a900473ffffffffffffffffffffffffffffffffffffffff1673ffffffffffffffffffffffffffffffffffffffff163373ffffffffffffffffffffffffffffffffffffffff1614611b91576040517f08c379a0000000000000000000000000000000000000000000000000000000008152600401611b88906123a3565b60405180910390fd5b600460009054906101000a900473ffffffffffffffffffffffffffffffffffffffff1673ffffffffffffffffffffffffffffffffffffffff1663d97d12dc30600660009054906101000a900473ffffffffffffffffffffffffffffffffffffffff16600460009054906101000a900473ffffffffffffffffffffffffffffffffffffffff1673ffffffffffffffffffffffffffffffffffffffff1663a3e36604306040518263ffffffff1660e01b8152600401611c4e919061227e565b60206040518083038186803b158015611c6657600080fd5b505afa158015611c7a573d6000803e3d6000fd5b505050506040513d601f19601f82011682018060405250810190611c9e9190612025565b6040518463ffffffff1660e01b8152600401611cbc939291906122de565b600060405180830381600087803b158015611cd657600080fd5b505af1158015611cea573d6000803e3d6000fd5b505050507faa0fd0dab0b527bc5a660240bf59ef3230f7a6821315eeff5e0b2c9d180255e6600660009054906101000a900473ffffffffffffffffffffffffffffffffffffffff16600460009054906101000a900473ffffffffffffffffffffffffffffffffffffffff1673ffffffffffffffffffffffffffffffffffffffff1663a3e36604306040518263ffffffff1660e01b8152600401611d8d919061227e565b60206040518083038186803b158015611da557600080fd5b505afa158015611db9573d6000803e3d6000fd5b505050506040513d601f19601f82011682018060405250810190611ddd9190612025565b604051611deb92919061235a565b60405180910390a1565b6000600860009054906101000a900473ffffffffffffffffffffffffffffffffffffffff16905090565b600660009054906101000a900473ffffffffffffffffffffffffffffffffffffffff1673ffffffffffffffffffffffffffffffffffffffff163373ffffffffffffffffffffffffffffffffffffffff1614611eaf576040517f08c379a0000000000000000000000000000000000000000000000000000000008152600401611ea6906123a3565b60405180910390fd5b8060038190555050565b6040518060800160405280600073ffffffffffffffffffffffffffffffffffffffff168152602001600073ffffffffffffffffffffffffffffffffffffffff1681526020016000815260200160006003811115611f3f577f4e487b7100000000000000000000000000000000000000000000000000000000600052602160045260246000fd5b81525090565b600081359050611f5481612947565b92915050565b600081359050611f698161295e565b92915050565b600081519050611f7e8161295e565b92915050565b600060208284031215611f9657600080fd5b6000611fa484828501611f45565b91505092915050565b600080600060608486031215611fc257600080fd5b6000611fd086828701611f45565b9350506020611fe186828701611f45565b9250506040611ff286828701611f5a565b9150509250925092565b60006020828403121561200e57600080fd5b600061201c84828501611f5a565b91505092915050565b60006020828403121561203757600080fd5b600061204584828501611f6f565b91505092915050565b6120578161255e565b82525050565b6120668161255e565b82525050565b612075816125ad565b82525050565b612084816125ad565b82525050565b6000612097601d83612519565b91506120a282612666565b602082019050919050565b60006120ba602183612519565b91506120c58261268f565b604082019050919050565b60006120dd601683612519565b91506120e8826126de565b602082019050919050565b6000612100601d83612519565b915061210b82612707565b602082019050919050565b6000612123601e83612519565b915061212e82612730565b602082019050919050565b6000612146602283612519565b915061215182612759565b604082019050919050565b6000612169602583612519565b9150612174826127a8565b604082019050919050565b600061218c602183612519565b9150612197826127f7565b604082019050919050565b60006121af603f83612519565b91506121ba82612846565b604082019050919050565b60006121d2602583612519565b91506121dd82612895565b604082019050919050565b60006121f5602d83612519565b9150612200826128e4565b604082019050919050565b608082016000820151612221600085018261204e565b506020820151612234602085018261204e565b5060408201516122476040850182612260565b50606082015161225a606085018261206c565b50505050565b612269816125a3565b82525050565b612278816125a3565b82525050565b6000602082019050612293600083018461205d565b92915050565b60006080820190506122ae600083018761205d565b6122bb602083018661205d565b6122c8604083018561205d565b6122d5606083018461226f565b95945050505050565b60006060820190506122f3600083018661205d565b612300602083018561205d565b61230d604083018461226f565b949350505050565b600060808201905061232a600083018761205d565b612337602083018661205d565b612344604083018561226f565b612351606083018461207b565b95945050505050565b600060408201905061236f600083018561205d565b61237c602083018461226f565b9392505050565b6000602082019050818103600083015261239c8161208a565b9050919050565b600060208201905081810360008301526123bc816120ad565b9050919050565b600060208201905081810360008301526123dc816120d0565b9050919050565b600060208201905081810360008301526123fc816120f3565b9050919050565b6000602082019050818103600083015261241c81612116565b9050919050565b6000602082019050818103600083015261243c81612139565b9050919050565b6000602082019050818103600083015261245c8161215c565b9050919050565b6000602082019050818103600083015261247c8161217f565b9050919050565b6000602082019050818103600083015261249c816121a2565b9050919050565b600060208201905081810360008301526124bc816121c5565b9050919050565b600060208201905081810360008301526124dc816121e8565b9050919050565b60006080820190506124f8600083018461220b565b92915050565b6000602082019050612513600083018461226f565b92915050565b600082825260208201905092915050565b6000612535826125a3565b9150612540836125a3565b92508282101561255357612552612608565b5b828203905092915050565b600061256982612583565b9050919050565b600081905061257e82612933565b919050565b600073ffffffffffffffffffffffffffffffffffffffff82169050919050565b6000819050919050565b60006125b882612570565b9050919050565b60006125ca826125a3565b91507fffffffffffffffffffffffffffffffffffffffffffffffffffffffffffffffff8214156125fd576125fc612608565b5b600182019050919050565b7f4e487b7100000000000000000000000000000000000000000000000000000000600052601160045260246000fd5b7f4e487b7100000000000000000000000000000000000000000000000000000000600052602160045260246000fd5b7f5061796d656e742068617320616c7265616479206265656e206d616465000000600082015250565b7f4f6e6c79206f776e65722063616e2063616c6c20746869732066756e6374696f60008201527f6e00000000000000000000000000000000000000000000000000000000000000602082015250565b7f5061796d656e7420646f6573206e6f7420657869737400000000000000000000600082015250565b7f5061796d656e7420686173206e6f74206265656e206d61646520796574000000600082015250565b7f496e76616c69642052656e744469737075746544414f20616464726573730000600082015250565b7f506179657220646f6573206e6f74206861766520656e6f7567682062616c616e60008201527f6365000000000000000000000000000000000000000000000000000000000000602082015250565b7f436f6d6d697373696f6e20666565206d7573742062652067726561746572207460008201527f68616e2030000000000000000000000000000000000000000000000000000000602082015250565b7f496e76616c69642052656e74616c6d61726b657470616c63652061646472657360008201527f7300000000000000000000000000000000000000000000000000000000000000602082015250565b7f4f6e6c792052656e74616c4d61726b6574706c616365206f722052656e74446960008201527f737075746544414f2063616e2063616c6c20746869732066756e6374696f6e00602082015250565b7f50726f74656374696f6e20666565206d7573742062652067726561746572207460008201527f68616e2030000000000000000000000000000000000000000000000000000000602082015250565b7f4f6e6c792052656e74616c4d61726b6574706c6163652063616e2063616c6c2060008201527f746869732066756e6374696f6e00000000000000000000000000000000000000602082015250565b6004811061294457612943612637565b5b50565b6129508161255e565b811461295b57600080fd5b50565b612967816125a3565b811461297257600080fd5b5056fea2646970667358221220406170a73e44ceddde9901337f98de37af60e8399ec7b32b49b290261fbe314664736f6c63430008010033",
  "immutableReferences": {},
  "source": "// SPDX-License-Identifier: MIT\r\npragma solidity ^0.8.0;\r\n\r\nimport \"./LeaseToken.sol\";\r\n\r\ncontract PaymentEscrow {\r\n    // ################################################### STRUCTURE & STATE VARIABLES ################################################### //\r\n    enum PaymentStatus {\r\n        PENDING, // Payment has been created but not yet made\r\n        PAID, // Payment has been made but not yet released\r\n        RELEASED, // Payment has been released\r\n        REFUNDED // Payment has been refunded\r\n    }\r\n\r\n    struct Payment {\r\n        address payer;\r\n        address payee;\r\n        uint256 amount;\r\n        PaymentStatus status;\r\n    }\r\n\r\n    // The number of payment transactions that have been made\r\n    uint256 private numOfPayments = 0;\r\n    // The number of tokens landlord must stake in the potential event of a dispute with tenant\r\n    uint256 private protectionFee;\r\n    // The commission fee (in tokens) that the platform charges for each transaction\r\n    uint256 private commissionFee;\r\n    // Tenant or landlord who wants to initiate a dispute must stake a reward (in tokens) to incentivize voters to vote in the dispute\r\n    uint256 private voterReward;\r\n\r\n    LeaseToken leaseTokenContract;\r\n\r\n    mapping(uint256 => Payment) public payments; // Mapping of payment ID to payment details\r\n\r\n    // The owner of the contract (PaymentEscrow), who can set the protection fee (for landlord) and commission fee (for platform)\r\n    address private owner;\r\n    // The address of the RentalMarketplace contract, which is the only contract that can call the release function\r\n    address private rentalMarketplaceAddress;\r\n    // The address of the RentDisputeDAO contract, which is the only contract that can call the refund function\r\n    address private rentDisputeDAOAddress;\r\n\r\n    constructor(\r\n        address _leaseTokenAddress,\r\n        uint256 _protectionFee,\r\n        uint256 _commissionFee,\r\n        uint256 _voterReward\r\n    ) {\r\n        leaseTokenContract = LeaseToken(_leaseTokenAddress);\r\n        protectionFee = _protectionFee;\r\n        commissionFee = _commissionFee;\r\n        voterReward = _voterReward;\r\n        owner = msg.sender;\r\n    }\r\n\r\n    // ################################################### EVENTS ################################################### //\r\n\r\n    event paymentCreated(address payer, address payee, uint256 amount);\r\n    event paymentPaid(address payer, address payee, uint256 amount);\r\n    event paymentReleased(address payer, address payee, uint256 amount);\r\n    event paymentRefunded(address payer, address payee, uint256 amount);\r\n    event protectionFeeSet(uint256 protectionFee);\r\n    event commissionFeeSet(uint256 commissionFee);\r\n    event tokenWithdrawn(address owner, uint256 amount);\r\n    event rentalMarketplaceAddressSet(address rentalMarketplaceAddress);\r\n    event rentDisputeDAOAddressSet(address rentDisputeDAOAddress);\r\n\r\n    // ################################################### MODIFIERS ################################################### //\r\n\r\n    // Modifier to check if the caller is the owner of the contract\r\n    modifier onlyOwner() {\r\n        require(msg.sender == owner, \"Only owner can call this function\");\r\n        _;\r\n    }\r\n\r\n    // Modifier to check if the caller is the RentalMarketplace contract\r\n    modifier onlyRentalMarketplace() {\r\n        require(\r\n            msg.sender == rentalMarketplaceAddress,\r\n            \"Only RentalMarketplace can call this function\"\r\n        );\r\n        _;\r\n    }\r\n\r\n    // Modifier to check if the caller is the RentDisputeDAO contract\r\n    modifier onlyRentDisputeDAO() {\r\n        require(\r\n            msg.sender == rentDisputeDAOAddress,\r\n            \"Only RentDisputeDAO can call this function\"\r\n        );\r\n        _;\r\n    }\r\n\r\n    // Modifier to check if the caller is the RentalMarketplace or RentDisputeDAO contract\r\n    modifier onlyRentalMarketplaceOrRentDisputeDAO() {\r\n        require(\r\n            msg.sender == rentalMarketplaceAddress ||\r\n                msg.sender == rentDisputeDAOAddress,\r\n            \"Only RentalMarketplace or RentDisputeDAO can call this function\"\r\n        );\r\n        _;\r\n    }\r\n\r\n    // Modifier to check if the payer has sufficient balance to make the payment\r\n    modifier checkSufficientBalance(address _payer, uint256 _amount) {\r\n        require(\r\n            leaseTokenContract.checkLeaseToken(_payer) >= _amount,\r\n            \"Payer does not have enough balance\"\r\n        );\r\n        _;\r\n    }\r\n\r\n    // Modifier to check if the payment exists\r\n    modifier PaymentExists(uint256 _paymentId) {\r\n        require(_paymentId < numOfPayments, \"Payment does not exist\");\r\n        _;\r\n    }\r\n\r\n    // Modifier to check if the payment is pending\r\n    modifier PaymentPending(uint256 _paymentId) {\r\n        require(\r\n            payments[_paymentId].status == PaymentStatus.PENDING,\r\n            \"Payment has already been made\"\r\n        );\r\n        _;\r\n    }\r\n\r\n    // Modifier to check if the payment has been made\r\n    modifier PaymentPaid(uint256 _paymentId) {\r\n        require(\r\n            payments[_paymentId].status == PaymentStatus.PAID,\r\n            \"Payment has not been made yet\"\r\n        );\r\n        _;\r\n    }\r\n\r\n    // Modifier to check if the payment has been released\r\n    modifier PaymentReleased(uint256 _paymentId) {\r\n        require(\r\n            payments[_paymentId].status == PaymentStatus.RELEASED,\r\n            \"Payment has not been released yet\"\r\n        );\r\n        _;\r\n    }\r\n\r\n    // Modifier to check if the payment has been refunded\r\n    modifier PaymentRefunded(uint256 _paymentId) {\r\n        require(\r\n            payments[_paymentId].status == PaymentStatus.REFUNDED,\r\n            \"Payment has not been refunded yet\"\r\n        );\r\n        _;\r\n    }\r\n\r\n    // Modifier to check if the protection fee is valid\r\n    modifier invalidProtectionFee(uint256 _protectionFee) {\r\n        require(_protectionFee > 0, \"Protection fee must be greater than 0\");\r\n        _;\r\n    }\r\n\r\n    // Modifier to check if the commission fee is valid\r\n    modifier invalidCommissionFee(uint256 _commissionFee) {\r\n        require(_commissionFee > 0, \"Commission fee must be greater than 0\");\r\n        _;\r\n    }\r\n\r\n    // Modifier to check if the RentalMarketplace address is valid\r\n    modifier invalidRentalMarketplaceAddress(\r\n        address _rentalMarketplaceAddress\r\n    ) {\r\n        require(\r\n            _rentalMarketplaceAddress != address(0),\r\n            \"Invalid Rentalmarketpalce address\"\r\n        );\r\n        _;\r\n    }\r\n\r\n    // Modifier to check if the RentDisputeDAO address is valid\r\n    modifier invalidRentDisputeDAOAddress(address _rentDisputeDAOAddress) {\r\n        require(\r\n            _rentDisputeDAOAddress != address(0),\r\n            \"Invalid RentDisputeDAO address\"\r\n        );\r\n        _;\r\n    }\r\n\r\n    // ################################################### FUNCTIONS ################################################### //\r\n\r\n    // Function to create a payment transaction between the payer and payee\r\n    function createPayment(\r\n        address _payer,\r\n        address _payee,\r\n        uint256 _amount\r\n    )\r\n        public\r\n        onlyRentalMarketplaceOrRentDisputeDAO\r\n        checkSufficientBalance(_payer, _amount)\r\n        returns (uint256)\r\n    {\r\n        payments[numOfPayments] = Payment(\r\n            _payer,\r\n            _payee,\r\n            _amount,\r\n            PaymentStatus.PENDING // Payment is pending until it is made\r\n        );\r\n        numOfPayments++;\r\n        emit paymentCreated(_payer, _payee, _amount);\r\n        return numOfPayments; // Return the payment ID (index starts from 1 since 0 is used to denote non-existence of payment transaction)\r\n    }\r\n\r\n    // Function to transfer the payment amount from the payer to the PaymentEscrow\r\n    function pay(\r\n        uint256 _paymentId\r\n    )\r\n        public\r\n        onlyRentalMarketplace\r\n        PaymentExists(_paymentId)\r\n        PaymentPending(_paymentId)\r\n    {\r\n        Payment storage payment = payments[_paymentId];\r\n\r\n        // Payer approves PaymentEscrow to transfer the payment amount to the payee\r\n        leaseTokenContract.approveLeaseToken(payment.payer, address(this), payment.amount);\r\n        // Payer transfers the payment amount to PaymentEscrow\r\n        leaseTokenContract.transferLeaseTokenFrom(\r\n            address(this),\r\n            payment.payer,\r\n            address(this),\r\n            payment.amount\r\n        );\r\n        payment.status = PaymentStatus.PAID; // Payment has been made\r\n        emit paymentPaid(payment.payer, payment.payee, payment.amount);\r\n    }\r\n\r\n    // Function to release the payment amount from the PaymentEscrow to the Payee\r\n    function release(\r\n        uint256 _paymentId\r\n    )\r\n        public\r\n        onlyRentalMarketplace\r\n        PaymentExists(_paymentId)\r\n        PaymentPaid(_paymentId)\r\n    {\r\n        Payment storage payment = payments[_paymentId];\r\n\r\n        // PaymentEscrow transfers the payment amount to the payee (minus the commission fee), commission fee is transferred to the platform\r\n        leaseTokenContract.transferLeaseToken(\r\n            address(this),\r\n            payment.payee,\r\n            payment.amount - commissionFee\r\n        );\r\n        payment.status = PaymentStatus.RELEASED;\r\n        emit paymentReleased(payment.payer, payment.payee, payment.amount);\r\n    }\r\n\r\n    // Function to refund the payment amount from the PaymentEscrow to the Payer (after PaymentEscrow has received the payment amount from the Payer)\r\n    function refund(\r\n        uint256 _paymentId\r\n    )\r\n        public\r\n        onlyRentalMarketplaceOrRentDisputeDAO()\r\n        PaymentExists(_paymentId)\r\n        PaymentPaid(_paymentId)\r\n    {\r\n        Payment storage payment = payments[_paymentId];\r\n        // PaymentEscrow transfers the payment amount back to the Payer\r\n        leaseTokenContract.transferLeaseToken(\r\n            address(this),\r\n            payment.payer, // Refund the payment amount to the Payer\r\n            payment.amount\r\n        );\r\n        payment.status = PaymentStatus.REFUNDED;\r\n        emit paymentRefunded(payment.payer, payment.payee, payment.amount);\r\n    }\r\n\r\n\r\n    // Function to withdraw the tokens to the owner of the contract\r\n    function withdrawToken() public onlyOwner {\r\n        leaseTokenContract.transferLeaseToken(\r\n            address(this),\r\n            owner,\r\n            leaseTokenContract.checkLeaseToken((address(this)))\r\n        );\r\n        emit tokenWithdrawn(\r\n            owner,\r\n            leaseTokenContract.checkLeaseToken((address(this)))\r\n        );\r\n    }\r\n\r\n    // ################################################### SETTER METHODS ################################################### //\r\n\r\n    // Function to set the protection fee\r\n    function setProtectionFee(\r\n        uint256 _protectionFee\r\n    ) public onlyOwner invalidProtectionFee(_protectionFee) {\r\n        protectionFee = _protectionFee;\r\n        emit protectionFeeSet(_protectionFee);\r\n    }\r\n    // Function to set the commission fee\r\n    function setCommissionFee(\r\n        uint256 _commissionFee\r\n    ) public onlyOwner invalidCommissionFee(_commissionFee) {\r\n        commissionFee = _commissionFee;\r\n        emit commissionFeeSet(_commissionFee);\r\n    }\r\n\r\n    // Function to set the voter reward\r\n    function setVoterReward(\r\n        uint256 _voterReward\r\n    ) public onlyOwner {\r\n        voterReward = _voterReward;\r\n    }\r\n\r\n    // Function to set the RentalMarketplace address (Access Control)\r\n    function setRentalMarketplaceAddress(\r\n        address _rentalMarketplaceAddress\r\n    )\r\n        public\r\n        onlyOwner\r\n        invalidRentalMarketplaceAddress(_rentalMarketplaceAddress)\r\n    {\r\n        rentalMarketplaceAddress = _rentalMarketplaceAddress;\r\n        emit rentalMarketplaceAddressSet(_rentalMarketplaceAddress);\r\n    }\r\n\r\n    // Function to set the RentDisputeDAO address (Access Control)\r\n    function setRentDisputeDAOAddress(\r\n        address _rentDisputeDAOAddress\r\n    ) public onlyOwner invalidRentDisputeDAOAddress(_rentDisputeDAOAddress) {\r\n        rentDisputeDAOAddress = _rentDisputeDAOAddress;\r\n        emit rentDisputeDAOAddressSet(_rentDisputeDAOAddress);\r\n    }\r\n\r\n    // ################################################### GETTER METHODS ################################################### //\r\n\r\n    // Function to get the protection fee\r\n    function getProtectionFee() public view returns (uint256) {\r\n        return protectionFee;\r\n    }\r\n\r\n    // Function to get the commission fee\r\n    function getCommissionFee() public view returns (uint256) {\r\n        return commissionFee;\r\n    }\r\n\r\n    // Function to get the voter reward\r\n    function getVoterReward() public view returns (uint256) {\r\n        return voterReward;\r\n    }\r\n\r\n    // Function to get the payment details\r\n    function getPayment(\r\n        uint256 _paymentId\r\n    ) public view returns (Payment memory) {\r\n        return payments[_paymentId];\r\n    }\r\n\r\n    // Function to get the number of payments\r\n    function getNumOfPayments() public view returns (uint256) {\r\n        return numOfPayments;\r\n    }\r\n\r\n    // Function to get the balance of the contract\r\n    function getBalance() public view returns (uint256) {\r\n        return leaseTokenContract.checkLeaseToken(address(this));\r\n    }\r\n\r\n    // Function to get the owner of the contract\r\n    function getOwner() public view returns (address) {\r\n        return owner;\r\n    }\r\n\r\n    // Function to get the contract address\r\n    function getContractAddress() public view returns (address) {\r\n        return address(this);\r\n    }\r\n\r\n    // Function to get the RentalMarketplace address\r\n    function getRentalMarketplaceAddress() public view returns (address) {\r\n        return rentalMarketplaceAddress;\r\n    }\r\n\r\n    // Function to get the RentDisputeDAO address\r\n    function getRentDisputeDAOAddress() public view returns (address) {\r\n        return rentDisputeDAOAddress;\r\n    }\r\n}\r\n",
  "sourcePath": "C:\\Users\\Bransome Tan Yi Hao\\OneDrive - National University of Singapore\\Desktop\\IS4302\\is4302-project\\contracts\\PaymentEscrow.sol",
  "compiler": {
    "name": "solc",
    "version": "0.8.1+commit.df193b15.Emscripten.clang"
  },
  "schemaVersion": "3.4.16",
  "updatedAt": "2024-04-10T05:50:53.827Z",
  "devdoc": {
    "kind": "dev",
    "methods": {},
    "version": 1
  },
  "userdoc": {
    "kind": "user",
    "methods": {},
    "version": 1
  }
}