{
  "contractName": "PaymentEscrow",
  "abi": [
    {
      "inputs": [
        {
          "internalType": "address",
          "name": "_leaseTokenAddress",
          "type": "address"
        },
        {
          "internalType": "uint256",
          "name": "_protectionFee",
          "type": "uint256"
        },
        {
          "internalType": "uint256",
          "name": "_commissionFee",
          "type": "uint256"
        },
        {
          "internalType": "uint256",
          "name": "_voterReward",
          "type": "uint256"
        }
      ],
      "stateMutability": "nonpayable",
      "type": "constructor"
    },
    {
      "anonymous": false,
      "inputs": [
        {
          "indexed": false,
          "internalType": "uint256",
          "name": "commissionFee",
          "type": "uint256"
        }
      ],
      "name": "commissionFeeSet",
      "type": "event"
    },
    {
      "anonymous": false,
      "inputs": [
        {
          "indexed": false,
          "internalType": "address",
          "name": "payer",
          "type": "address"
        },
        {
          "indexed": false,
          "internalType": "address",
          "name": "payee",
          "type": "address"
        },
        {
          "indexed": false,
          "internalType": "uint256",
          "name": "amount",
          "type": "uint256"
        }
      ],
      "name": "paymentCreated",
      "type": "event"
    },
    {
      "anonymous": false,
      "inputs": [
        {
          "indexed": false,
          "internalType": "address",
          "name": "payer",
          "type": "address"
        },
        {
          "indexed": false,
          "internalType": "address",
          "name": "payee",
          "type": "address"
        },
        {
          "indexed": false,
          "internalType": "uint256",
          "name": "amount",
          "type": "uint256"
        }
      ],
      "name": "paymentPaid",
      "type": "event"
    },
    {
      "anonymous": false,
      "inputs": [
        {
          "indexed": false,
          "internalType": "address",
          "name": "payer",
          "type": "address"
        },
        {
          "indexed": false,
          "internalType": "address",
          "name": "payee",
          "type": "address"
        },
        {
          "indexed": false,
          "internalType": "uint256",
          "name": "amount",
          "type": "uint256"
        }
      ],
      "name": "paymentRefunded",
      "type": "event"
    },
    {
      "anonymous": false,
      "inputs": [
        {
          "indexed": false,
          "internalType": "address",
          "name": "payer",
          "type": "address"
        },
        {
          "indexed": false,
          "internalType": "address",
          "name": "payee",
          "type": "address"
        },
        {
          "indexed": false,
          "internalType": "uint256",
          "name": "amount",
          "type": "uint256"
        }
      ],
      "name": "paymentReleased",
      "type": "event"
    },
    {
      "anonymous": false,
      "inputs": [
        {
          "indexed": false,
          "internalType": "uint256",
          "name": "protectionFee",
          "type": "uint256"
        }
      ],
      "name": "protectionFeeSet",
      "type": "event"
    },
    {
      "anonymous": false,
      "inputs": [
        {
          "indexed": false,
          "internalType": "address",
          "name": "rentDisputeDAOAddress",
          "type": "address"
        }
      ],
      "name": "rentDisputeDAOAddressSet",
      "type": "event"
    },
    {
      "anonymous": false,
      "inputs": [
        {
          "indexed": false,
          "internalType": "address",
          "name": "rentalMarketplaceAddress",
          "type": "address"
        }
      ],
      "name": "rentalMarketplaceAddressSet",
      "type": "event"
    },
    {
      "anonymous": false,
      "inputs": [
        {
          "indexed": false,
          "internalType": "address",
          "name": "owner",
          "type": "address"
        },
        {
          "indexed": false,
          "internalType": "uint256",
          "name": "amount",
          "type": "uint256"
        }
      ],
      "name": "tokenWithdrawn",
      "type": "event"
    },
    {
      "inputs": [
        {
          "internalType": "uint256",
          "name": "",
          "type": "uint256"
        }
      ],
      "name": "payments",
      "outputs": [
        {
          "internalType": "address",
          "name": "payer",
          "type": "address"
        },
        {
          "internalType": "address",
          "name": "payee",
          "type": "address"
        },
        {
          "internalType": "uint256",
          "name": "amount",
          "type": "uint256"
        },
        {
          "internalType": "enum PaymentEscrow.PaymentStatus",
          "name": "status",
          "type": "uint8"
        }
      ],
      "stateMutability": "view",
      "type": "function",
      "constant": true
    },
    {
      "inputs": [
        {
          "internalType": "address",
          "name": "_payer",
          "type": "address"
        },
        {
          "internalType": "address",
          "name": "_payee",
          "type": "address"
        },
        {
          "internalType": "uint256",
          "name": "_amount",
          "type": "uint256"
        }
      ],
      "name": "createPayment",
      "outputs": [
        {
          "internalType": "uint256",
          "name": "",
          "type": "uint256"
        }
      ],
      "stateMutability": "nonpayable",
      "type": "function"
    },
    {
      "inputs": [
        {
          "internalType": "uint256",
          "name": "_paymentId",
          "type": "uint256"
        }
      ],
      "name": "pay",
      "outputs": [],
      "stateMutability": "nonpayable",
      "type": "function"
    },
    {
      "inputs": [
        {
          "internalType": "uint256",
          "name": "_paymentId",
          "type": "uint256"
        }
      ],
      "name": "release",
      "outputs": [],
      "stateMutability": "nonpayable",
      "type": "function"
    },
    {
      "inputs": [
        {
          "internalType": "uint256",
          "name": "_paymentId",
          "type": "uint256"
        }
      ],
      "name": "refund",
      "outputs": [],
      "stateMutability": "nonpayable",
      "type": "function"
    },
    {
      "inputs": [],
      "name": "withdrawToken",
      "outputs": [],
      "stateMutability": "nonpayable",
      "type": "function"
    },
    {
      "inputs": [
        {
          "internalType": "address",
          "name": "_sender",
          "type": "address"
        },
        {
          "internalType": "uint256",
          "name": "_amount",
          "type": "uint256"
        }
      ],
      "name": "convertLeaseTokenToETH",
      "outputs": [],
      "stateMutability": "nonpayable",
      "type": "function"
    },
    {
      "inputs": [
        {
          "internalType": "uint256",
          "name": "_protectionFee",
          "type": "uint256"
        }
      ],
      "name": "setProtectionFee",
      "outputs": [],
      "stateMutability": "nonpayable",
      "type": "function"
    },
    {
      "inputs": [
        {
          "internalType": "uint256",
          "name": "_commissionFee",
          "type": "uint256"
        }
      ],
      "name": "setCommissionFee",
      "outputs": [],
      "stateMutability": "nonpayable",
      "type": "function"
    },
    {
      "inputs": [
        {
          "internalType": "uint256",
          "name": "_voterReward",
          "type": "uint256"
        }
      ],
      "name": "setVoterReward",
      "outputs": [],
      "stateMutability": "nonpayable",
      "type": "function"
    },
    {
      "inputs": [
        {
          "internalType": "address",
          "name": "_rentalMarketplaceAddress",
          "type": "address"
        }
      ],
      "name": "setRentalMarketplaceAddress",
      "outputs": [],
      "stateMutability": "nonpayable",
      "type": "function"
    },
    {
      "inputs": [
        {
          "internalType": "address",
          "name": "_rentDisputeDAOAddress",
          "type": "address"
        }
      ],
      "name": "setRentDisputeDAOAddress",
      "outputs": [],
      "stateMutability": "nonpayable",
      "type": "function"
    },
    {
      "inputs": [],
      "name": "getProtectionFee",
      "outputs": [
        {
          "internalType": "uint256",
          "name": "",
          "type": "uint256"
        }
      ],
      "stateMutability": "view",
      "type": "function",
      "constant": true
    },
    {
      "inputs": [],
      "name": "getCommissionFee",
      "outputs": [
        {
          "internalType": "uint256",
          "name": "",
          "type": "uint256"
        }
      ],
      "stateMutability": "view",
      "type": "function",
      "constant": true
    },
    {
      "inputs": [],
      "name": "getVoterReward",
      "outputs": [
        {
          "internalType": "uint256",
          "name": "",
          "type": "uint256"
        }
      ],
      "stateMutability": "view",
      "type": "function",
      "constant": true
    },
    {
      "inputs": [
        {
          "internalType": "uint256",
          "name": "_paymentId",
          "type": "uint256"
        }
      ],
      "name": "getPayment",
      "outputs": [
        {
          "components": [
            {
              "internalType": "address",
              "name": "payer",
              "type": "address"
            },
            {
              "internalType": "address",
              "name": "payee",
              "type": "address"
            },
            {
              "internalType": "uint256",
              "name": "amount",
              "type": "uint256"
            },
            {
              "internalType": "enum PaymentEscrow.PaymentStatus",
              "name": "status",
              "type": "uint8"
            }
          ],
          "internalType": "struct PaymentEscrow.Payment",
          "name": "",
          "type": "tuple"
        }
      ],
      "stateMutability": "view",
      "type": "function",
      "constant": true
    },
    {
      "inputs": [],
      "name": "getNumOfPayments",
      "outputs": [
        {
          "internalType": "uint256",
          "name": "",
          "type": "uint256"
        }
      ],
      "stateMutability": "view",
      "type": "function",
      "constant": true
    },
    {
      "inputs": [],
      "name": "getBalance",
      "outputs": [
        {
          "internalType": "uint256",
          "name": "",
          "type": "uint256"
        }
      ],
      "stateMutability": "view",
      "type": "function",
      "constant": true
    },
    {
      "inputs": [],
      "name": "getOwner",
      "outputs": [
        {
          "internalType": "address",
          "name": "",
          "type": "address"
        }
      ],
      "stateMutability": "view",
      "type": "function",
      "constant": true
    },
    {
      "inputs": [],
      "name": "getContractAddress",
      "outputs": [
        {
          "internalType": "address",
          "name": "",
          "type": "address"
        }
      ],
      "stateMutability": "view",
      "type": "function",
      "constant": true
    },
    {
      "inputs": [],
      "name": "getRentalMarketplaceAddress",
      "outputs": [
        {
          "internalType": "address",
          "name": "",
          "type": "address"
        }
      ],
      "stateMutability": "view",
      "type": "function",
      "constant": true
    },
    {
      "inputs": [],
      "name": "getRentDisputeDAOAddress",
      "outputs": [
        {
          "internalType": "address",
          "name": "",
          "type": "address"
        }
      ],
      "stateMutability": "view",
      "type": "function",
      "constant": true
    }
  ],
  "bytecode": "0x6080604052600080553480156200001557600080fd5b5060405162002d2738038062002d2783398181016040528101906200003b91906200010a565b83600460006101000a81548173ffffffffffffffffffffffffffffffffffffffff021916908373ffffffffffffffffffffffffffffffffffffffff16021790555082600181905550816002819055508060038190555033600660006101000a81548173ffffffffffffffffffffffffffffffffffffffff021916908373ffffffffffffffffffffffffffffffffffffffff16021790555050505050620001e8565b600081519050620000ed81620001b4565b92915050565b6000815190506200010481620001ce565b92915050565b600080600080608085870312156200012157600080fd5b60006200013187828801620000dc565b94505060206200014487828801620000f3565b93505060406200015787828801620000f3565b92505060606200016a87828801620000f3565b91505092959194509250565b600062000183826200018a565b9050919050565b600073ffffffffffffffffffffffffffffffffffffffff82169050919050565b6000819050919050565b620001bf8162000176565b8114620001cb57600080fd5b50565b620001d981620001aa565b8114620001e557600080fd5b50565b612b2f80620001f86000396000f3fe608060405234801561001057600080fd5b50600436106101425760003560e01c806387d81789116100b85780639d7d496e1161007c5780639d7d496e14610352578063b530d81e14610370578063c290d6911461038e578063ca628c78146103aa578063df2422f0146103b4578063f19ba757146103d257610142565b806387d81789146102ab578063893d20e8146102de578063895860e5146102fc57806394c8dcb1146103185780639bbfac731461033657610142565b806332a2c5d01161010a57806332a2c5d0146101ed57806335e88e2a1461020b57806337bdc99b146102275780635b0f9317146102435780637620287b1461025f578063794d0ed81461027b57610142565b806312065fe01461014757806315aca6cb146101655780631f7559ae14610183578063278ecde1146101a15780633280a836146101bd575b600080fd5b61014f6103ee565b60405161015c9190612628565b60405180910390f35b61016d6104a0565b60405161017a9190612628565b60405180910390f35b61018b6104aa565b6040516101989190612628565b60405180910390f35b6101bb60048036038101906101b69190612126565b6104b4565b005b6101d760048036038101906101d29190612126565b610869565b6040516101e4919061260d565b60405180910390f35b6101f56109d3565b60405161020291906123a8565b60405180910390f35b61022560048036038101906102209190612072565b6109db565b005b610241600480360381019061023c9190612126565b610b58565b005b61025d60048036038101906102589190612126565b610eb5565b005b61027960048036038101906102749190612072565b610fcb565b005b6102956004803603810190610290919061209b565b611148565b6040516102a29190612628565b60405180910390f35b6102c560048036038101906102c09190612126565b61159d565b6040516102d5949392919061243f565b60405180910390f35b6102e661161a565b6040516102f391906123a8565b60405180910390f35b61031660048036038101906103119190612126565b611644565b005b61032061175a565b60405161032d9190612628565b60405180910390f35b610350600480360381019061034b91906120ea565b611763565b005b61035a61185c565b6040516103679190612628565b60405180910390f35b610378611866565b60405161038591906123a8565b60405180910390f35b6103a860048036038101906103a39190612126565b611890565b005b6103b2611bef565b005b6103bc611ee3565b6040516103c991906123a8565b60405180910390f35b6103ec60048036038101906103e79190612126565b611f0d565b005b6000600460009054906101000a900473ffffffffffffffffffffffffffffffffffffffff1673ffffffffffffffffffffffffffffffffffffffff1663a3e36604306040518263ffffffff1660e01b815260040161044b91906123a8565b60206040518083038186803b15801561046357600080fd5b505afa158015610477573d6000803e3d6000fd5b505050506040513d601f19601f8201168201806040525081019061049b919061214f565b905090565b6000600354905090565b6000600154905090565b600760009054906101000a900473ffffffffffffffffffffffffffffffffffffffff1673ffffffffffffffffffffffffffffffffffffffff163373ffffffffffffffffffffffffffffffffffffffff16148061055d5750600860009054906101000a900473ffffffffffffffffffffffffffffffffffffffff1673ffffffffffffffffffffffffffffffffffffffff163373ffffffffffffffffffffffffffffffffffffffff16145b61059c576040517f08c379a0000000000000000000000000000000000000000000000000000000008152600401610593906125ad565b60405180910390fd5b806000548111156105e2576040517f08c379a00000000000000000000000000000000000000000000000000000000081526004016105d9906124ed565b60405180910390fd5b816001600381111561061d577f4e487b7100000000000000000000000000000000000000000000000000000000600052602160045260246000fd5b6005600083815260200190815260200160002060030160009054906101000a900460ff166003811115610679577f4e487b7100000000000000000000000000000000000000000000000000000000600052602160045260246000fd5b146106b9576040517f08c379a00000000000000000000000000000000000000000000000000000000081526004016106b09061250d565b60405180910390fd5b6000600560008581526020019081526020016000209050600460009054906101000a900473ffffffffffffffffffffffffffffffffffffffff1673ffffffffffffffffffffffffffffffffffffffff1663d97d12dc308360000160009054906101000a900473ffffffffffffffffffffffffffffffffffffffff1684600201546040518463ffffffff1660e01b815260040161075793929190612408565b600060405180830381600087803b15801561077157600080fd5b505af1158015610785573d6000803e3d6000fd5b5050505060038160030160006101000a81548160ff021916908360038111156107d7577f4e487b7100000000000000000000000000000000000000000000000000000000600052602160045260246000fd5b02179055507fce02e9bea9450a1582b80e1fa9c7355ba3fa2e0c367b1c5fbaba84c08dde4c538160000160009054906101000a900473ffffffffffffffffffffffffffffffffffffffff168260010160009054906101000a900473ffffffffffffffffffffffffffffffffffffffff16836002015460405161085b93929190612408565b60405180910390a150505050565b610871611fa7565b600560008381526020019081526020016000206040518060800160405290816000820160009054906101000a900473ffffffffffffffffffffffffffffffffffffffff1673ffffffffffffffffffffffffffffffffffffffff1673ffffffffffffffffffffffffffffffffffffffff1681526020016001820160009054906101000a900473ffffffffffffffffffffffffffffffffffffffff1673ffffffffffffffffffffffffffffffffffffffff1673ffffffffffffffffffffffffffffffffffffffff168152602001600282015481526020016003820160009054906101000a900460ff166003811115610990577f4e487b7100000000000000000000000000000000000000000000000000000000600052602160045260246000fd5b60038111156109c8577f4e487b7100000000000000000000000000000000000000000000000000000000600052602160045260246000fd5b815250509050919050565b600030905090565b600660009054906101000a900473ffffffffffffffffffffffffffffffffffffffff1673ffffffffffffffffffffffffffffffffffffffff163373ffffffffffffffffffffffffffffffffffffffff1614610a6b576040517f08c379a0000000000000000000000000000000000000000000000000000000008152600401610a62906124cd565b60405180910390fd5b80600073ffffffffffffffffffffffffffffffffffffffff168173ffffffffffffffffffffffffffffffffffffffff161415610adc576040517f08c379a0000000000000000000000000000000000000000000000000000000008152600401610ad39061258d565b60405180910390fd5b81600760006101000a81548173ffffffffffffffffffffffffffffffffffffffff021916908373ffffffffffffffffffffffffffffffffffffffff1602179055507f0d97c2edba1236202c4ab09d16f0f494318aab730a517c7d6f1770a2fdd7b63782604051610b4c91906123a8565b60405180910390a15050565b600760009054906101000a900473ffffffffffffffffffffffffffffffffffffffff1673ffffffffffffffffffffffffffffffffffffffff163373ffffffffffffffffffffffffffffffffffffffff1614610be8576040517f08c379a0000000000000000000000000000000000000000000000000000000008152600401610bdf906125ed565b60405180910390fd5b80600054811115610c2e576040517f08c379a0000000000000000000000000000000000000000000000000000000008152600401610c25906124ed565b60405180910390fd5b8160016003811115610c69577f4e487b7100000000000000000000000000000000000000000000000000000000600052602160045260246000fd5b6005600083815260200190815260200160002060030160009054906101000a900460ff166003811115610cc5577f4e487b7100000000000000000000000000000000000000000000000000000000600052602160045260246000fd5b14610d05576040517f08c379a0000000000000000000000000000000000000000000000000000000008152600401610cfc9061250d565b60405180910390fd5b6000600560008581526020019081526020016000209050600460009054906101000a900473ffffffffffffffffffffffffffffffffffffffff1673ffffffffffffffffffffffffffffffffffffffff1663d97d12dc308360010160009054906101000a900473ffffffffffffffffffffffffffffffffffffffff1684600201546040518463ffffffff1660e01b8152600401610da393929190612408565b600060405180830381600087803b158015610dbd57600080fd5b505af1158015610dd1573d6000803e3d6000fd5b5050505060028160030160006101000a81548160ff02191690836003811115610e23577f4e487b7100000000000000000000000000000000000000000000000000000000600052602160045260246000fd5b02179055507f0bb3357d6f2cf56ed1ef16717520f9ce78dac340ce04e515ca5b648fb29d81dd8160000160009054906101000a900473ffffffffffffffffffffffffffffffffffffffff168260010160009054906101000a900473ffffffffffffffffffffffffffffffffffffffff168360020154604051610ea793929190612408565b60405180910390a150505050565b600660009054906101000a900473ffffffffffffffffffffffffffffffffffffffff1673ffffffffffffffffffffffffffffffffffffffff163373ffffffffffffffffffffffffffffffffffffffff1614610f45576040517f08c379a0000000000000000000000000000000000000000000000000000000008152600401610f3c906124cd565b60405180910390fd5b8060008111610f89576040517f08c379a0000000000000000000000000000000000000000000000000000000008152600401610f80906125cd565b60405180910390fd5b816001819055507f20c5d2426bf7f0fa5dfb56e676130c81f58903a4373636d9821ea85df121bfe882604051610fbf9190612628565b60405180910390a15050565b600660009054906101000a900473ffffffffffffffffffffffffffffffffffffffff1673ffffffffffffffffffffffffffffffffffffffff163373ffffffffffffffffffffffffffffffffffffffff161461105b576040517f08c379a0000000000000000000000000000000000000000000000000000000008152600401611052906124cd565b60405180910390fd5b80600073ffffffffffffffffffffffffffffffffffffffff168173ffffffffffffffffffffffffffffffffffffffff1614156110cc576040517f08c379a00000000000000000000000000000000000000000000000000000000081526004016110c39061252d565b60405180910390fd5b81600860006101000a81548173ffffffffffffffffffffffffffffffffffffffff021916908373ffffffffffffffffffffffffffffffffffffffff1602179055507f805e9277349a1e91b496994a9be376a13fc2682f022c4acdff7f8c50546710ac8260405161113c91906123a8565b60405180910390a15050565b6000600760009054906101000a900473ffffffffffffffffffffffffffffffffffffffff1673ffffffffffffffffffffffffffffffffffffffff163373ffffffffffffffffffffffffffffffffffffffff1614806111f35750600860009054906101000a900473ffffffffffffffffffffffffffffffffffffffff1673ffffffffffffffffffffffffffffffffffffffff163373ffffffffffffffffffffffffffffffffffffffff16145b611232576040517f08c379a0000000000000000000000000000000000000000000000000000000008152600401611229906125ad565b60405180910390fd5b838280600460009054906101000a900473ffffffffffffffffffffffffffffffffffffffff1673ffffffffffffffffffffffffffffffffffffffff1663a3e36604846040518263ffffffff1660e01b815260040161129091906123a8565b60206040518083038186803b1580156112a857600080fd5b505afa1580156112bc573d6000803e3d6000fd5b505050506040513d601f19601f820116820180604052508101906112e0919061214f565b1015611321576040517f08c379a00000000000000000000000000000000000000000000000000000000081526004016113189061254d565b60405180910390fd5b60008081548092919061133390612743565b919050555060405180608001604052808773ffffffffffffffffffffffffffffffffffffffff1681526020018673ffffffffffffffffffffffffffffffffffffffff168152602001858152602001600060038111156113bb577f4e487b7100000000000000000000000000000000000000000000000000000000600052602160045260246000fd5b815250600560008054815260200190815260200160002060008201518160000160006101000a81548173ffffffffffffffffffffffffffffffffffffffff021916908373ffffffffffffffffffffffffffffffffffffffff16021790555060208201518160010160006101000a81548173ffffffffffffffffffffffffffffffffffffffff021916908373ffffffffffffffffffffffffffffffffffffffff1602179055506040820151816002015560608201518160030160006101000a81548160ff021916908360038111156114bb577f4e487b7100000000000000000000000000000000000000000000000000000000600052602160045260246000fd5b0217905550905050600460009054906101000a900473ffffffffffffffffffffffffffffffffffffffff1673ffffffffffffffffffffffffffffffffffffffff1663b4e59fa38730876040518463ffffffff1660e01b815260040161152293929190612408565b600060405180830381600087803b15801561153c57600080fd5b505af1158015611550573d6000803e3d6000fd5b505050507ff784815e5d852061f9c35ee8ab3237cd56d85a35a73a43666e91287e021eb04a86868660405161158793929190612408565b60405180910390a1600054925050509392505050565b60056020528060005260406000206000915090508060000160009054906101000a900473ffffffffffffffffffffffffffffffffffffffff16908060010160009054906101000a900473ffffffffffffffffffffffffffffffffffffffff16908060020154908060030160009054906101000a900460ff16905084565b6000600660009054906101000a900473ffffffffffffffffffffffffffffffffffffffff16905090565b600660009054906101000a900473ffffffffffffffffffffffffffffffffffffffff1673ffffffffffffffffffffffffffffffffffffffff163373ffffffffffffffffffffffffffffffffffffffff16146116d4576040517f08c379a00000000000000000000000000000000000000000000000000000000081526004016116cb906124cd565b60405180910390fd5b8060008111611718576040517f08c379a000000000000000000000000000000000000000000000000000000000815260040161170f9061256d565b60405180910390fd5b816002819055507f2d0e5fd464b43f2cc17eef20dcfc223b4f5719b867562cfac0eed8c9f9c5ab218260405161174e9190612628565b60405180910390a15050565b60008054905090565b600460009054906101000a900473ffffffffffffffffffffffffffffffffffffffff1673ffffffffffffffffffffffffffffffffffffffff16631c8c4c3a83836040518363ffffffff1660e01b81526004016117c0929190612484565b600060405180830381600087803b1580156117da57600080fd5b505af11580156117ee573d6000803e3d6000fd5b505050508173ffffffffffffffffffffffffffffffffffffffff166108fc662386f26fc100006002548461182291906126ae565b61182c9190612654565b9081150290604051600060405180830381858888f19350505050158015611857573d6000803e3d6000fd5b505050565b6000600254905090565b6000600760009054906101000a900473ffffffffffffffffffffffffffffffffffffffff16905090565b600760009054906101000a900473ffffffffffffffffffffffffffffffffffffffff1673ffffffffffffffffffffffffffffffffffffffff163373ffffffffffffffffffffffffffffffffffffffff1614611920576040517f08c379a0000000000000000000000000000000000000000000000000000000008152600401611917906125ed565b60405180910390fd5b80600054811115611966576040517f08c379a000000000000000000000000000000000000000000000000000000000815260040161195d906124ed565b60405180910390fd5b81600060038111156119a1577f4e487b7100000000000000000000000000000000000000000000000000000000600052602160045260246000fd5b6005600083815260200190815260200160002060030160009054906101000a900460ff1660038111156119fd577f4e487b7100000000000000000000000000000000000000000000000000000000600052602160045260246000fd5b14611a3d576040517f08c379a0000000000000000000000000000000000000000000000000000000008152600401611a34906124ad565b60405180910390fd5b6000600560008581526020019081526020016000209050600460009054906101000a900473ffffffffffffffffffffffffffffffffffffffff1673ffffffffffffffffffffffffffffffffffffffff1663403e2a63308360000160009054906101000a900473ffffffffffffffffffffffffffffffffffffffff163085600201546040518563ffffffff1660e01b8152600401611add94939291906123c3565b600060405180830381600087803b158015611af757600080fd5b505af1158015611b0b573d6000803e3d6000fd5b5050505060018160030160006101000a81548160ff02191690836003811115611b5d577f4e487b7100000000000000000000000000000000000000000000000000000000600052602160045260246000fd5b02179055507f7e9cb42033a175042cb8f196529b20b79e4279330a9b9be72e2b1f352528c8f88160000160009054906101000a900473ffffffffffffffffffffffffffffffffffffffff168260010160009054906101000a900473ffffffffffffffffffffffffffffffffffffffff168360020154604051611be193929190612408565b60405180910390a150505050565b600660009054906101000a900473ffffffffffffffffffffffffffffffffffffffff1673ffffffffffffffffffffffffffffffffffffffff163373ffffffffffffffffffffffffffffffffffffffff1614611c7f576040517f08c379a0000000000000000000000000000000000000000000000000000000008152600401611c76906124cd565b60405180910390fd5b600460009054906101000a900473ffffffffffffffffffffffffffffffffffffffff1673ffffffffffffffffffffffffffffffffffffffff1663d97d12dc30600660009054906101000a900473ffffffffffffffffffffffffffffffffffffffff16600460009054906101000a900473ffffffffffffffffffffffffffffffffffffffff1673ffffffffffffffffffffffffffffffffffffffff1663a3e36604306040518263ffffffff1660e01b8152600401611d3c91906123a8565b60206040518083038186803b158015611d5457600080fd5b505afa158015611d68573d6000803e3d6000fd5b505050506040513d601f19601f82011682018060405250810190611d8c919061214f565b6040518463ffffffff1660e01b8152600401611daa93929190612408565b600060405180830381600087803b158015611dc457600080fd5b505af1158015611dd8573d6000803e3d6000fd5b505050507faa0fd0dab0b527bc5a660240bf59ef3230f7a6821315eeff5e0b2c9d180255e6600660009054906101000a900473ffffffffffffffffffffffffffffffffffffffff16600460009054906101000a900473ffffffffffffffffffffffffffffffffffffffff1673ffffffffffffffffffffffffffffffffffffffff1663a3e36604306040518263ffffffff1660e01b8152600401611e7b91906123a8565b60206040518083038186803b158015611e9357600080fd5b505afa158015611ea7573d6000803e3d6000fd5b505050506040513d601f19601f82011682018060405250810190611ecb919061214f565b604051611ed9929190612484565b60405180910390a1565b6000600860009054906101000a900473ffffffffffffffffffffffffffffffffffffffff16905090565b600660009054906101000a900473ffffffffffffffffffffffffffffffffffffffff1673ffffffffffffffffffffffffffffffffffffffff163373ffffffffffffffffffffffffffffffffffffffff1614611f9d576040517f08c379a0000000000000000000000000000000000000000000000000000000008152600401611f94906124cd565b60405180910390fd5b8060038190555050565b6040518060800160405280600073ffffffffffffffffffffffffffffffffffffffff168152602001600073ffffffffffffffffffffffffffffffffffffffff168152602001600081526020016000600381111561202d577f4e487b7100000000000000000000000000000000000000000000000000000000600052602160045260246000fd5b81525090565b60008135905061204281612acb565b92915050565b60008135905061205781612ae2565b92915050565b60008151905061206c81612ae2565b92915050565b60006020828403121561208457600080fd5b600061209284828501612033565b91505092915050565b6000806000606084860312156120b057600080fd5b60006120be86828701612033565b93505060206120cf86828701612033565b92505060406120e086828701612048565b9150509250925092565b600080604083850312156120fd57600080fd5b600061210b85828601612033565b925050602061211c85828601612048565b9150509250929050565b60006020828403121561213857600080fd5b600061214684828501612048565b91505092915050565b60006020828403121561216157600080fd5b600061216f8482850161205d565b91505092915050565b612181816126e2565b82525050565b612190816126e2565b82525050565b61219f81612731565b82525050565b6121ae81612731565b82525050565b60006121c1601d83612643565b91506121cc826127ea565b602082019050919050565b60006121e4602183612643565b91506121ef82612813565b604082019050919050565b6000612207601683612643565b915061221282612862565b602082019050919050565b600061222a601d83612643565b91506122358261288b565b602082019050919050565b600061224d601e83612643565b9150612258826128b4565b602082019050919050565b6000612270602283612643565b915061227b826128dd565b604082019050919050565b6000612293602583612643565b915061229e8261292c565b604082019050919050565b60006122b6602183612643565b91506122c18261297b565b604082019050919050565b60006122d9603f83612643565b91506122e4826129ca565b604082019050919050565b60006122fc602583612643565b915061230782612a19565b604082019050919050565b600061231f602d83612643565b915061232a82612a68565b604082019050919050565b60808201600082015161234b6000850182612178565b50602082015161235e6020850182612178565b506040820151612371604085018261238a565b5060608201516123846060850182612196565b50505050565b61239381612727565b82525050565b6123a281612727565b82525050565b60006020820190506123bd6000830184612187565b92915050565b60006080820190506123d86000830187612187565b6123e56020830186612187565b6123f26040830185612187565b6123ff6060830184612399565b95945050505050565b600060608201905061241d6000830186612187565b61242a6020830185612187565b6124376040830184612399565b949350505050565b60006080820190506124546000830187612187565b6124616020830186612187565b61246e6040830185612399565b61247b60608301846121a5565b95945050505050565b60006040820190506124996000830185612187565b6124a66020830184612399565b9392505050565b600060208201905081810360008301526124c6816121b4565b9050919050565b600060208201905081810360008301526124e6816121d7565b9050919050565b60006020820190508181036000830152612506816121fa565b9050919050565b600060208201905081810360008301526125268161221d565b9050919050565b6000602082019050818103600083015261254681612240565b9050919050565b6000602082019050818103600083015261256681612263565b9050919050565b6000602082019050818103600083015261258681612286565b9050919050565b600060208201905081810360008301526125a6816122a9565b9050919050565b600060208201905081810360008301526125c6816122cc565b9050919050565b600060208201905081810360008301526125e6816122ef565b9050919050565b6000602082019050818103600083015261260681612312565b9050919050565b60006080820190506126226000830184612335565b92915050565b600060208201905061263d6000830184612399565b92915050565b600082825260208201905092915050565b600061265f82612727565b915061266a83612727565b9250817fffffffffffffffffffffffffffffffffffffffffffffffffffffffffffffffff04831182151516156126a3576126a261278c565b5b828202905092915050565b60006126b982612727565b91506126c483612727565b9250828210156126d7576126d661278c565b5b828203905092915050565b60006126ed82612707565b9050919050565b600081905061270282612ab7565b919050565b600073ffffffffffffffffffffffffffffffffffffffff82169050919050565b6000819050919050565b600061273c826126f4565b9050919050565b600061274e82612727565b91507fffffffffffffffffffffffffffffffffffffffffffffffffffffffffffffffff8214156127815761278061278c565b5b600182019050919050565b7f4e487b7100000000000000000000000000000000000000000000000000000000600052601160045260246000fd5b7f4e487b7100000000000000000000000000000000000000000000000000000000600052602160045260246000fd5b7f5061796d656e742068617320616c7265616479206265656e206d616465000000600082015250565b7f4f6e6c79206f776e65722063616e2063616c6c20746869732066756e6374696f60008201527f6e00000000000000000000000000000000000000000000000000000000000000602082015250565b7f5061796d656e7420646f6573206e6f7420657869737400000000000000000000600082015250565b7f5061796d656e7420686173206e6f74206265656e206d61646520796574000000600082015250565b7f496e76616c69642052656e744469737075746544414f20616464726573730000600082015250565b7f506179657220646f6573206e6f74206861766520656e6f7567682062616c616e60008201527f6365000000000000000000000000000000000000000000000000000000000000602082015250565b7f436f6d6d697373696f6e20666565206d7573742062652067726561746572207460008201527f68616e2030000000000000000000000000000000000000000000000000000000602082015250565b7f496e76616c69642052656e74616c6d61726b657470616c63652061646472657360008201527f7300000000000000000000000000000000000000000000000000000000000000602082015250565b7f4f6e6c792052656e74616c4d61726b6574706c616365206f722052656e74446960008201527f737075746544414f2063616e2063616c6c20746869732066756e6374696f6e00602082015250565b7f50726f74656374696f6e20666565206d7573742062652067726561746572207460008201527f68616e2030000000000000000000000000000000000000000000000000000000602082015250565b7f4f6e6c792052656e74616c4d61726b6574706c6163652063616e2063616c6c2060008201527f746869732066756e6374696f6e00000000000000000000000000000000000000602082015250565b60048110612ac857612ac76127bb565b5b50565b612ad4816126e2565b8114612adf57600080fd5b50565b612aeb81612727565b8114612af657600080fd5b5056fea264697066735822122027df1cddda57f7e1fb99c293de4efc1d23b238354783feca183c3977379e092064736f6c63430008010033",
  "immutableReferences": {},
  "source": "// SPDX-License-Identifier: MIT\r\npragma solidity ^0.8.0;\r\n\r\nimport \"./LeaseToken.sol\";\r\n\r\ncontract PaymentEscrow {\r\n    // ################################################### STRUCTURE & STATE VARIABLES ################################################### //\r\n    enum PaymentStatus {\r\n        PENDING, // Payment has been created but not yet made\r\n        PAID, // Payment has been made but not yet released\r\n        RELEASED, // Payment has been released\r\n        REFUNDED // Payment has been refunded\r\n    }\r\n\r\n    struct Payment {\r\n        address payer;\r\n        address payee;\r\n        uint256 amount;\r\n        PaymentStatus status;\r\n    }\r\n\r\n    // The number of payment transactions that have been made\r\n    uint256 private numOfPayments = 0;\r\n    // The number of tokens landlord must stake in the potential event of a dispute with tenant\r\n    uint256 private protectionFee;\r\n    // The commission fee (in tokens) that the platform charges for each transaction\r\n    uint256 private commissionFee;\r\n    // Tenant or landlord who wants to initiate a dispute must stake a reward (in tokens) to incentivize voters to vote in the dispute\r\n    uint256 private voterReward;\r\n\r\n    LeaseToken leaseTokenContract;\r\n\r\n    mapping(uint256 => Payment) public payments; // Mapping of payment ID to payment details\r\n\r\n    // The owner of the contract (PaymentEscrow), who can set the protection fee (for landlord) and commission fee (for platform)\r\n    address private owner;\r\n    // The address of the RentalMarketplace contract, which is the only contract that can call the release function\r\n    address private rentalMarketplaceAddress;\r\n    // The address of the RentDisputeDAO contract, which is the only contract that can call the refund function\r\n    address private rentDisputeDAOAddress;\r\n\r\n    constructor(\r\n        address _leaseTokenAddress,\r\n        uint256 _protectionFee,\r\n        uint256 _commissionFee,\r\n        uint256 _voterReward\r\n    ) {\r\n        leaseTokenContract = LeaseToken(_leaseTokenAddress);\r\n        protectionFee = _protectionFee;\r\n        commissionFee = _commissionFee;\r\n        voterReward = _voterReward;\r\n        owner = msg.sender;\r\n    }\r\n\r\n    // ################################################### EVENTS ################################################### //\r\n\r\n    event paymentCreated(address payer, address payee, uint256 amount);\r\n    event paymentPaid(address payer, address payee, uint256 amount);\r\n    event paymentReleased(address payer, address payee, uint256 amount);\r\n    event paymentRefunded(address payer, address payee, uint256 amount);\r\n    event protectionFeeSet(uint256 protectionFee);\r\n    event commissionFeeSet(uint256 commissionFee);\r\n    event tokenWithdrawn(address owner, uint256 amount);\r\n    event rentalMarketplaceAddressSet(address rentalMarketplaceAddress);\r\n    event rentDisputeDAOAddressSet(address rentDisputeDAOAddress);\r\n\r\n    // ################################################### MODIFIERS ################################################### //\r\n\r\n    // Modifier to check if the caller is the owner of the contract\r\n    modifier onlyOwner() {\r\n        require(msg.sender == owner, \"Only owner can call this function\");\r\n        _;\r\n    }\r\n\r\n    // Modifier to check if the caller is the RentalMarketplace contract\r\n    modifier onlyRentalMarketplace() {\r\n        require(\r\n            msg.sender == rentalMarketplaceAddress,\r\n            \"Only RentalMarketplace can call this function\"\r\n        );\r\n        _;\r\n    }\r\n\r\n    // Modifier to check if the caller is the RentDisputeDAO contract\r\n    modifier onlyRentDisputeDAO() {\r\n        require(\r\n            msg.sender == rentDisputeDAOAddress,\r\n            \"Only RentDisputeDAO can call this function\"\r\n        );\r\n        _;\r\n    }\r\n\r\n    // Modifier to check if the caller is the RentalMarketplace or RentDisputeDAO contract\r\n    modifier onlyRentalMarketplaceOrRentDisputeDAO() {\r\n        require(\r\n            msg.sender == rentalMarketplaceAddress ||\r\n                msg.sender == rentDisputeDAOAddress,\r\n            \"Only RentalMarketplace or RentDisputeDAO can call this function\"\r\n        );\r\n        _;\r\n    }\r\n\r\n    // Modifier to check if the payer has sufficient balance to make the payment\r\n    modifier checkSufficientBalance(address _payer, uint256 _amount) {\r\n        require(\r\n            leaseTokenContract.checkLeaseToken(_payer) >= _amount,\r\n            \"Payer does not have enough balance\"\r\n        );\r\n        _;\r\n    }\r\n\r\n    // Modifier to check if the payment exists\r\n    modifier PaymentExists(uint256 _paymentId) {\r\n        require(_paymentId <= numOfPayments, \"Payment does not exist\");\r\n        _;\r\n    }\r\n\r\n    // Modifier to check if the payment is pending\r\n    modifier PaymentPending(uint256 _paymentId) {\r\n        require(\r\n            payments[_paymentId].status == PaymentStatus.PENDING,\r\n            \"Payment has already been made\"\r\n        );\r\n        _;\r\n    }\r\n\r\n    // Modifier to check if the payment has been made\r\n    modifier PaymentPaid(uint256 _paymentId) {\r\n        require(\r\n            payments[_paymentId].status == PaymentStatus.PAID,\r\n            \"Payment has not been made yet\"\r\n        );\r\n        _;\r\n    }\r\n\r\n    // Modifier to check if the payment has been released\r\n    modifier PaymentReleased(uint256 _paymentId) {\r\n        require(\r\n            payments[_paymentId].status == PaymentStatus.RELEASED,\r\n            \"Payment has not been released yet\"\r\n        );\r\n        _;\r\n    }\r\n\r\n    // Modifier to check if the payment has been refunded\r\n    modifier PaymentRefunded(uint256 _paymentId) {\r\n        require(\r\n            payments[_paymentId].status == PaymentStatus.REFUNDED,\r\n            \"Payment has not been refunded yet\"\r\n        );\r\n        _;\r\n    }\r\n\r\n    // Modifier to check if the protection fee is valid\r\n    modifier invalidProtectionFee(uint256 _protectionFee) {\r\n        require(_protectionFee > 0, \"Protection fee must be greater than 0\");\r\n        _;\r\n    }\r\n\r\n    // Modifier to check if the commission fee is valid\r\n    modifier invalidCommissionFee(uint256 _commissionFee) {\r\n        require(_commissionFee > 0, \"Commission fee must be greater than 0\");\r\n        _;\r\n    }\r\n\r\n    // Modifier to check if the RentalMarketplace address is valid\r\n    modifier invalidRentalMarketplaceAddress(\r\n        address _rentalMarketplaceAddress\r\n    ) {\r\n        require(\r\n            _rentalMarketplaceAddress != address(0),\r\n            \"Invalid Rentalmarketpalce address\"\r\n        );\r\n        _;\r\n    }\r\n\r\n    // Modifier to check if the RentDisputeDAO address is valid\r\n    modifier invalidRentDisputeDAOAddress(address _rentDisputeDAOAddress) {\r\n        require(\r\n            _rentDisputeDAOAddress != address(0),\r\n            \"Invalid RentDisputeDAO address\"\r\n        );\r\n        _;\r\n    }\r\n\r\n    // ################################################### FUNCTIONS ################################################### //\r\n\r\n    // Function to create a payment transaction between the payer and payee\r\n    function createPayment(\r\n        address _payer,\r\n        address _payee,\r\n        uint256 _amount\r\n    )\r\n        public\r\n        onlyRentalMarketplaceOrRentDisputeDAO\r\n        checkSufficientBalance(_payer, _amount)\r\n        returns (uint256)\r\n    {\r\n        numOfPayments++;\r\n        payments[numOfPayments] = Payment(\r\n            _payer,\r\n            _payee,\r\n            _amount,\r\n            PaymentStatus.PENDING // Payment is pending until it is made\r\n        );\r\n\r\n        // Payer approves PaymentEscrow to spend the payment amount on behalf of the payer\r\n        leaseTokenContract.approveLeaseToken(_payer, address(this), _amount);\r\n      \r\n        emit paymentCreated(_payer, _payee, _amount);\r\n       \r\n        return numOfPayments; // Return the payment ID (index starts from 1 as 0 is used for non-existent payments)\r\n    }\r\n\r\n    // Function to transfer the payment amount from the payer to the PaymentEscrow\r\n    function pay(\r\n        uint256 _paymentId\r\n    )\r\n        public\r\n        onlyRentalMarketplace\r\n        PaymentExists(_paymentId)\r\n        PaymentPending(_paymentId)\r\n    {\r\n        Payment storage payment = payments[_paymentId];\r\n\r\n        // Payer transfers the payment amount to PaymentEscrow\r\n        leaseTokenContract.transferLeaseTokenFrom(\r\n            address(this),\r\n            payment.payer,\r\n            address(this),\r\n            payment.amount\r\n        );\r\n        payment.status = PaymentStatus.PAID; // Payment has been made\r\n        emit paymentPaid(payment.payer, payment.payee, payment.amount);\r\n    }\r\n\r\n    // Function to release the payment amount from the PaymentEscrow to the Payee\r\n    function release(\r\n        uint256 _paymentId\r\n    )\r\n        public\r\n        onlyRentalMarketplace\r\n        PaymentExists(_paymentId)\r\n        PaymentPaid(_paymentId)\r\n    {\r\n        Payment storage payment = payments[_paymentId];\r\n\r\n        // PaymentEscrow transfers the payment amount to the payee (minus the commission fee), commission fee is transferred to the platform\r\n        leaseTokenContract.transferLeaseToken(\r\n            address(this),\r\n            payment.payee,\r\n            payment.amount\r\n        );\r\n        payment.status = PaymentStatus.RELEASED;\r\n        emit paymentReleased(payment.payer, payment.payee, payment.amount);\r\n    }\r\n\r\n    // Function to refund the payment amount from the PaymentEscrow to the Payer (after PaymentEscrow has received the payment amount from the Payer)\r\n    function refund(\r\n        uint256 _paymentId\r\n    )\r\n        public\r\n        onlyRentalMarketplaceOrRentDisputeDAO()\r\n        PaymentExists(_paymentId)\r\n        PaymentPaid(_paymentId)\r\n    {\r\n        Payment storage payment = payments[_paymentId];\r\n        // PaymentEscrow transfers the payment amount back to the Payer\r\n        leaseTokenContract.transferLeaseToken(\r\n            address(this),\r\n            payment.payer, // Refund the payment amount to the Payer\r\n            payment.amount\r\n        );\r\n        payment.status = PaymentStatus.REFUNDED;\r\n        emit paymentRefunded(payment.payer, payment.payee, payment.amount);\r\n    }\r\n\r\n\r\n    // Function to withdraw the tokens to the owner of the contract\r\n    function withdrawToken() public onlyOwner {\r\n        leaseTokenContract.transferLeaseToken(\r\n            address(this),\r\n            owner,\r\n            leaseTokenContract.checkLeaseToken((address(this)))\r\n        );\r\n        emit tokenWithdrawn(\r\n            owner,\r\n            leaseTokenContract.checkLeaseToken((address(this)))\r\n        );\r\n    }\r\n\r\n    // Convert LeaseToken to ETH \r\n    // Tenant or landlord can convert their LeaseToken to ETH by burning the LeaseToken and receiving the equivalent amount of ETH minus the commission fee\r\n    // The commission fee is transferred to the platform\r\n    function convertLeaseTokenToETH(address _sender, uint256 _amount) public {\r\n        leaseTokenContract.burnLeaseToken(_sender, _amount);\r\n        payable(_sender).transfer((_amount - commissionFee) * 1e16);\r\n    }\r\n\r\n    // ################################################### SETTER METHODS ################################################### //\r\n\r\n    // Function to set the protection fee\r\n    function setProtectionFee(\r\n        uint256 _protectionFee\r\n    ) public onlyOwner invalidProtectionFee(_protectionFee) {\r\n        protectionFee = _protectionFee;\r\n        emit protectionFeeSet(_protectionFee);\r\n    }\r\n    // Function to set the commission fee\r\n    function setCommissionFee(\r\n        uint256 _commissionFee\r\n    ) public onlyOwner invalidCommissionFee(_commissionFee) {\r\n        commissionFee = _commissionFee;\r\n        emit commissionFeeSet(_commissionFee);\r\n    }\r\n\r\n    // Function to set the voter reward\r\n    function setVoterReward(\r\n        uint256 _voterReward\r\n    ) public onlyOwner {\r\n        voterReward = _voterReward;\r\n    }\r\n\r\n    // Function to set the RentalMarketplace address (Access Control)\r\n    function setRentalMarketplaceAddress(\r\n        address _rentalMarketplaceAddress\r\n    )\r\n        public\r\n        onlyOwner\r\n        invalidRentalMarketplaceAddress(_rentalMarketplaceAddress)\r\n    {\r\n        rentalMarketplaceAddress = _rentalMarketplaceAddress;\r\n        emit rentalMarketplaceAddressSet(_rentalMarketplaceAddress);\r\n    }\r\n\r\n    // Function to set the RentDisputeDAO address (Access Control)\r\n    function setRentDisputeDAOAddress(\r\n        address _rentDisputeDAOAddress\r\n    ) public onlyOwner invalidRentDisputeDAOAddress(_rentDisputeDAOAddress) {\r\n        rentDisputeDAOAddress = _rentDisputeDAOAddress;\r\n        emit rentDisputeDAOAddressSet(_rentDisputeDAOAddress);\r\n    }\r\n\r\n    // ################################################### GETTER METHODS ################################################### //\r\n\r\n    // Function to get the protection fee\r\n    function getProtectionFee() public view returns (uint256) {\r\n        return protectionFee;\r\n    }\r\n\r\n    // Function to get the commission fee\r\n    function getCommissionFee() public view returns (uint256) {\r\n        return commissionFee;\r\n    }\r\n\r\n    // Function to get the voter reward\r\n    function getVoterReward() public view returns (uint256) {\r\n        return voterReward;\r\n    }\r\n\r\n    // Function to get the payment details\r\n    function getPayment(\r\n        uint256 _paymentId\r\n    ) public view returns (Payment memory) {\r\n        return payments[_paymentId];\r\n    }\r\n\r\n    // Function to get the number of payments\r\n    function getNumOfPayments() public view returns (uint256) {\r\n        return numOfPayments;\r\n    }\r\n\r\n    // Function to get the balance of the contract\r\n    function getBalance() public view returns (uint256) {\r\n        return leaseTokenContract.checkLeaseToken(address(this));\r\n    }\r\n\r\n    // Function to get the owner of the contract\r\n    function getOwner() public view returns (address) {\r\n        return owner;\r\n    }\r\n\r\n    // Function to get the contract address\r\n    function getContractAddress() public view returns (address) {\r\n        return address(this);\r\n    }\r\n\r\n    // Function to get the RentalMarketplace address\r\n    function getRentalMarketplaceAddress() public view returns (address) {\r\n        return rentalMarketplaceAddress;\r\n    }\r\n\r\n    // Function to get the RentDisputeDAO address\r\n    function getRentDisputeDAOAddress() public view returns (address) {\r\n        return rentDisputeDAOAddress;\r\n    }\r\n}\r\n",
  "sourcePath": "C:\\Users\\Bransome Tan Yi Hao\\OneDrive - National University of Singapore\\Desktop\\IS4302\\is4302-project\\contracts\\PaymentEscrow.sol",
  "compiler": {
    "name": "solc",
    "version": "0.8.1+commit.df193b15.Emscripten.clang"
  },
  "schemaVersion": "3.4.16",
  "updatedAt": "2024-04-10T15:25:47.912Z",
  "networkType": "ethereum",
  "devdoc": {
    "kind": "dev",
    "methods": {},
    "version": 1
  },
  "userdoc": {
    "kind": "user",
    "methods": {},
    "version": 1
  }
}