{
  "contractName": "PaymentEscrow",
  "abi": [
    {
      "inputs": [
        {
          "internalType": "address",
          "name": "_leaseTokenAddress",
          "type": "address"
        },
        {
          "internalType": "uint256",
          "name": "_protectionFee",
          "type": "uint256"
        },
        {
          "internalType": "uint256",
          "name": "_commissionFee",
          "type": "uint256"
        }
      ],
      "stateMutability": "nonpayable",
      "type": "constructor"
    },
    {
      "anonymous": false,
      "inputs": [
        {
          "indexed": false,
          "internalType": "uint256",
          "name": "commissionFee",
          "type": "uint256"
        }
      ],
      "name": "commissionFeeSet",
      "type": "event"
    },
    {
      "anonymous": false,
      "inputs": [
        {
          "indexed": false,
          "internalType": "address",
          "name": "payer",
          "type": "address"
        },
        {
          "indexed": false,
          "internalType": "address",
          "name": "payee",
          "type": "address"
        },
        {
          "indexed": false,
          "internalType": "uint256",
          "name": "amount",
          "type": "uint256"
        }
      ],
      "name": "paymentCreated",
      "type": "event"
    },
    {
      "anonymous": false,
      "inputs": [
        {
          "indexed": false,
          "internalType": "address",
          "name": "payer",
          "type": "address"
        },
        {
          "indexed": false,
          "internalType": "address",
          "name": "payee",
          "type": "address"
        },
        {
          "indexed": false,
          "internalType": "uint256",
          "name": "amount",
          "type": "uint256"
        }
      ],
      "name": "paymentPaid",
      "type": "event"
    },
    {
      "anonymous": false,
      "inputs": [
        {
          "indexed": false,
          "internalType": "address",
          "name": "payer",
          "type": "address"
        },
        {
          "indexed": false,
          "internalType": "address",
          "name": "payee",
          "type": "address"
        },
        {
          "indexed": false,
          "internalType": "uint256",
          "name": "amount",
          "type": "uint256"
        }
      ],
      "name": "paymentRefunded",
      "type": "event"
    },
    {
      "anonymous": false,
      "inputs": [
        {
          "indexed": false,
          "internalType": "address",
          "name": "payer",
          "type": "address"
        },
        {
          "indexed": false,
          "internalType": "address",
          "name": "payee",
          "type": "address"
        },
        {
          "indexed": false,
          "internalType": "uint256",
          "name": "amount",
          "type": "uint256"
        }
      ],
      "name": "paymentReleased",
      "type": "event"
    },
    {
      "anonymous": false,
      "inputs": [
        {
          "indexed": false,
          "internalType": "uint256",
          "name": "protectionFee",
          "type": "uint256"
        }
      ],
      "name": "protectionFeeSet",
      "type": "event"
    },
    {
      "anonymous": false,
      "inputs": [
        {
          "indexed": false,
          "internalType": "address",
          "name": "rentDisputeDAOAddress",
          "type": "address"
        }
      ],
      "name": "rentDisputeDAOAddressSet",
      "type": "event"
    },
    {
      "anonymous": false,
      "inputs": [
        {
          "indexed": false,
          "internalType": "address",
          "name": "rentalMarketplaceAddress",
          "type": "address"
        }
      ],
      "name": "rentalMarketplaceAddressSet",
      "type": "event"
    },
    {
      "anonymous": false,
      "inputs": [
        {
          "indexed": false,
          "internalType": "address",
          "name": "owner",
          "type": "address"
        },
        {
          "indexed": false,
          "internalType": "uint256",
          "name": "amount",
          "type": "uint256"
        }
      ],
      "name": "tokenWithdrawn",
      "type": "event"
    },
    {
      "inputs": [
        {
          "internalType": "uint256",
          "name": "",
          "type": "uint256"
        }
      ],
      "name": "payments",
      "outputs": [
        {
          "internalType": "address",
          "name": "payer",
          "type": "address"
        },
        {
          "internalType": "address",
          "name": "payee",
          "type": "address"
        },
        {
          "internalType": "uint256",
          "name": "amount",
          "type": "uint256"
        },
        {
          "internalType": "enum PaymentEscrow.PaymentStatus",
          "name": "status",
          "type": "uint8"
        }
      ],
      "stateMutability": "view",
      "type": "function"
    },
    {
      "inputs": [
        {
          "internalType": "address",
          "name": "_payer",
          "type": "address"
        },
        {
          "internalType": "address",
          "name": "_payee",
          "type": "address"
        },
        {
          "internalType": "uint256",
          "name": "_amount",
          "type": "uint256"
        }
      ],
      "name": "createPayment",
      "outputs": [
        {
          "internalType": "uint256",
          "name": "",
          "type": "uint256"
        }
      ],
      "stateMutability": "nonpayable",
      "type": "function"
    },
    {
      "inputs": [
        {
          "internalType": "uint256",
          "name": "_paymentId",
          "type": "uint256"
        }
      ],
      "name": "pay",
      "outputs": [],
      "stateMutability": "nonpayable",
      "type": "function"
    },
    {
      "inputs": [
        {
          "internalType": "uint256",
          "name": "_paymentId",
          "type": "uint256"
        }
      ],
      "name": "release",
      "outputs": [],
      "stateMutability": "nonpayable",
      "type": "function"
    },
    {
      "inputs": [
        {
          "internalType": "uint256",
          "name": "_paymentId",
          "type": "uint256"
        }
      ],
      "name": "refund",
      "outputs": [],
      "stateMutability": "nonpayable",
      "type": "function"
    },
    {
      "inputs": [],
      "name": "withdrawToken",
      "outputs": [],
      "stateMutability": "nonpayable",
      "type": "function"
    },
    {
      "inputs": [
        {
          "internalType": "uint256",
          "name": "_protectionFee",
          "type": "uint256"
        }
      ],
      "name": "setProtectionFee",
      "outputs": [],
      "stateMutability": "nonpayable",
      "type": "function"
    },
    {
      "inputs": [
        {
          "internalType": "uint256",
          "name": "_commissionFee",
          "type": "uint256"
        }
      ],
      "name": "setCommissionFee",
      "outputs": [],
      "stateMutability": "nonpayable",
      "type": "function"
    },
    {
      "inputs": [
        {
          "internalType": "address",
          "name": "_rentalMarketplaceAddress",
          "type": "address"
        }
      ],
      "name": "setRentalMarketplaceAddress",
      "outputs": [],
      "stateMutability": "nonpayable",
      "type": "function"
    },
    {
      "inputs": [
        {
          "internalType": "address",
          "name": "_rentDisputeDAOAddress",
          "type": "address"
        }
      ],
      "name": "setRentDisputeDAOAddress",
      "outputs": [],
      "stateMutability": "nonpayable",
      "type": "function"
    },
    {
      "inputs": [],
      "name": "getProtectionFee",
      "outputs": [
        {
          "internalType": "uint256",
          "name": "",
          "type": "uint256"
        }
      ],
      "stateMutability": "view",
      "type": "function"
    },
    {
      "inputs": [],
      "name": "getCommissionFee",
      "outputs": [
        {
          "internalType": "uint256",
          "name": "",
          "type": "uint256"
        }
      ],
      "stateMutability": "view",
      "type": "function"
    },
    {
      "inputs": [
        {
          "internalType": "uint256",
          "name": "_paymentId",
          "type": "uint256"
        }
      ],
      "name": "getPayment",
      "outputs": [
        {
          "components": [
            {
              "internalType": "address",
              "name": "payer",
              "type": "address"
            },
            {
              "internalType": "address",
              "name": "payee",
              "type": "address"
            },
            {
              "internalType": "uint256",
              "name": "amount",
              "type": "uint256"
            },
            {
              "internalType": "enum PaymentEscrow.PaymentStatus",
              "name": "status",
              "type": "uint8"
            }
          ],
          "internalType": "struct PaymentEscrow.Payment",
          "name": "",
          "type": "tuple"
        }
      ],
      "stateMutability": "view",
      "type": "function"
    },
    {
      "inputs": [],
      "name": "getNumOfPayments",
      "outputs": [
        {
          "internalType": "uint256",
          "name": "",
          "type": "uint256"
        }
      ],
      "stateMutability": "view",
      "type": "function"
    },
    {
      "inputs": [],
      "name": "getBalance",
      "outputs": [
        {
          "internalType": "uint256",
          "name": "",
          "type": "uint256"
        }
      ],
      "stateMutability": "view",
      "type": "function"
    },
    {
      "inputs": [],
      "name": "getOwner",
      "outputs": [
        {
          "internalType": "address",
          "name": "",
          "type": "address"
        }
      ],
      "stateMutability": "view",
      "type": "function"
    },
    {
      "inputs": [],
      "name": "getContractAddress",
      "outputs": [
        {
          "internalType": "address",
          "name": "",
          "type": "address"
        }
      ],
      "stateMutability": "view",
      "type": "function"
    },
    {
      "inputs": [],
      "name": "getRentalMarketplaceAddress",
      "outputs": [
        {
          "internalType": "address",
          "name": "",
          "type": "address"
        }
      ],
      "stateMutability": "view",
      "type": "function"
    },
    {
      "inputs": [],
      "name": "getRentDisputeDAOAddress",
      "outputs": [
        {
          "internalType": "address",
          "name": "",
          "type": "address"
        }
      ],
      "stateMutability": "view",
      "type": "function"
    }
  ],
  "bytecode": "0x6080604052600080553480156200001557600080fd5b5060405162002a9d38038062002a9d83398181016040528101906200003b919062000102565b82600360006101000a81548173ffffffffffffffffffffffffffffffffffffffff021916908373ffffffffffffffffffffffffffffffffffffffff160217905550816001819055508060028190555033600560006101000a81548173ffffffffffffffffffffffffffffffffffffffff021916908373ffffffffffffffffffffffffffffffffffffffff160217905550505050620001ca565b600081519050620000e58162000196565b92915050565b600081519050620000fc81620001b0565b92915050565b6000806000606084860312156200011857600080fd5b60006200012886828701620000d4565b93505060206200013b86828701620000eb565b92505060406200014e86828701620000eb565b9150509250925092565b600062000165826200016c565b9050919050565b600073ffffffffffffffffffffffffffffffffffffffff82169050919050565b6000819050919050565b620001a18162000158565b8114620001ad57600080fd5b50565b620001bb816200018c565b8114620001c757600080fd5b50565b6128c380620001da6000396000f3fe608060405234801561001057600080fd5b50600436106101215760003560e01c8063794d0ed8116100ad5780639d7d496e116100715780639d7d496e146102f7578063b530d81e14610315578063c290d69114610333578063ca628c781461034f578063df2422f01461035957610121565b8063794d0ed81461023c57806387d817891461026c578063893d20e81461029f578063895860e5146102bd57806394c8dcb1146102d957610121565b806332a2c5d0116100f457806332a2c5d0146101ae57806335e88e2a146101cc57806337bdc99b146101e85780635b0f9317146102045780637620287b1461022057610121565b806312065fe0146101265780631f7559ae14610144578063278ecde1146101625780633280a8361461017e575b600080fd5b61012e610377565b60405161013b9190612416565b60405180910390f35b61014c610429565b6040516101599190612416565b60405180910390f35b61017c60048036038101906101779190611f14565b610433565b005b61019860048036038101906101939190611f14565b6107e7565b6040516101a591906123fb565b60405180910390f35b6101b6610951565b6040516101c39190612196565b60405180910390f35b6101e660048036038101906101e19190611e9c565b610959565b005b61020260048036038101906101fd9190611f14565b610ad6565b005b61021e60048036038101906102199190611f14565b610e3f565b005b61023a60048036038101906102359190611e9c565b610f55565b005b61025660048036038101906102519190611ec5565b6110d2565b6040516102639190612416565b60405180910390f35b61028660048036038101906102819190611f14565b6114a2565b604051610296949392919061222d565b60405180910390f35b6102a761151f565b6040516102b49190612196565b60405180910390f35b6102d760048036038101906102d29190611f14565b611549565b005b6102e161165f565b6040516102ee9190612416565b60405180910390f35b6102ff611668565b60405161030c9190612416565b60405180910390f35b61031d611672565b60405161032a9190612196565b60405180910390f35b61034d60048036038101906103489190611f14565b61169c565b005b610357611ab3565b005b610361611da7565b60405161036e9190612196565b60405180910390f35b6000600360009054906101000a900473ffffffffffffffffffffffffffffffffffffffff1673ffffffffffffffffffffffffffffffffffffffff1663a3e36604306040518263ffffffff1660e01b81526004016103d49190612196565b60206040518083038186803b1580156103ec57600080fd5b505afa158015610400573d6000803e3d6000fd5b505050506040513d601f19601f820116820180604052508101906104249190611f3d565b905090565b6000600154905090565b600660009054906101000a900473ffffffffffffffffffffffffffffffffffffffff1673ffffffffffffffffffffffffffffffffffffffff163373ffffffffffffffffffffffffffffffffffffffff1614806104dc5750600760009054906101000a900473ffffffffffffffffffffffffffffffffffffffff1673ffffffffffffffffffffffffffffffffffffffff163373ffffffffffffffffffffffffffffffffffffffff16145b61051b576040517f08c379a00000000000000000000000000000000000000000000000000000000081526004016105129061239b565b60405180910390fd5b806000548110610560576040517f08c379a0000000000000000000000000000000000000000000000000000000008152600401610557906122db565b60405180910390fd5b816001600381111561059b577f4e487b7100000000000000000000000000000000000000000000000000000000600052602160045260246000fd5b6004600083815260200190815260200160002060030160009054906101000a900460ff1660038111156105f7577f4e487b7100000000000000000000000000000000000000000000000000000000600052602160045260246000fd5b14610637576040517f08c379a000000000000000000000000000000000000000000000000000000000815260040161062e906122fb565b60405180910390fd5b6000600460008581526020019081526020016000209050600360009054906101000a900473ffffffffffffffffffffffffffffffffffffffff1673ffffffffffffffffffffffffffffffffffffffff1663d97d12dc308360000160009054906101000a900473ffffffffffffffffffffffffffffffffffffffff1684600201546040518463ffffffff1660e01b81526004016106d5939291906121f6565b600060405180830381600087803b1580156106ef57600080fd5b505af1158015610703573d6000803e3d6000fd5b5050505060038160030160006101000a81548160ff02191690836003811115610755577f4e487b7100000000000000000000000000000000000000000000000000000000600052602160045260246000fd5b02179055507fce02e9bea9450a1582b80e1fa9c7355ba3fa2e0c367b1c5fbaba84c08dde4c538160000160009054906101000a900473ffffffffffffffffffffffffffffffffffffffff168260010160009054906101000a900473ffffffffffffffffffffffffffffffffffffffff1683600201546040516107d9939291906121f6565b60405180910390a150505050565b6107ef611dd1565b600460008381526020019081526020016000206040518060800160405290816000820160009054906101000a900473ffffffffffffffffffffffffffffffffffffffff1673ffffffffffffffffffffffffffffffffffffffff1673ffffffffffffffffffffffffffffffffffffffff1681526020016001820160009054906101000a900473ffffffffffffffffffffffffffffffffffffffff1673ffffffffffffffffffffffffffffffffffffffff1673ffffffffffffffffffffffffffffffffffffffff168152602001600282015481526020016003820160009054906101000a900460ff16600381111561090e577f4e487b7100000000000000000000000000000000000000000000000000000000600052602160045260246000fd5b6003811115610946577f4e487b7100000000000000000000000000000000000000000000000000000000600052602160045260246000fd5b815250509050919050565b600030905090565b600560009054906101000a900473ffffffffffffffffffffffffffffffffffffffff1673ffffffffffffffffffffffffffffffffffffffff163373ffffffffffffffffffffffffffffffffffffffff16146109e9576040517f08c379a00000000000000000000000000000000000000000000000000000000081526004016109e0906122bb565b60405180910390fd5b80600073ffffffffffffffffffffffffffffffffffffffff168173ffffffffffffffffffffffffffffffffffffffff161415610a5a576040517f08c379a0000000000000000000000000000000000000000000000000000000008152600401610a519061237b565b60405180910390fd5b81600660006101000a81548173ffffffffffffffffffffffffffffffffffffffff021916908373ffffffffffffffffffffffffffffffffffffffff1602179055507f0d97c2edba1236202c4ab09d16f0f494318aab730a517c7d6f1770a2fdd7b63782604051610aca9190612196565b60405180910390a15050565b600660009054906101000a900473ffffffffffffffffffffffffffffffffffffffff1673ffffffffffffffffffffffffffffffffffffffff163373ffffffffffffffffffffffffffffffffffffffff1614610b66576040517f08c379a0000000000000000000000000000000000000000000000000000000008152600401610b5d906123db565b60405180910390fd5b806000548110610bab576040517f08c379a0000000000000000000000000000000000000000000000000000000008152600401610ba2906122db565b60405180910390fd5b8160016003811115610be6577f4e487b7100000000000000000000000000000000000000000000000000000000600052602160045260246000fd5b6004600083815260200190815260200160002060030160009054906101000a900460ff166003811115610c42577f4e487b7100000000000000000000000000000000000000000000000000000000600052602160045260246000fd5b14610c82576040517f08c379a0000000000000000000000000000000000000000000000000000000008152600401610c79906122fb565b60405180910390fd5b6000600460008581526020019081526020016000209050600360009054906101000a900473ffffffffffffffffffffffffffffffffffffffff1673ffffffffffffffffffffffffffffffffffffffff1663d97d12dc308360010160009054906101000a900473ffffffffffffffffffffffffffffffffffffffff166002548560020154610d0f9190612442565b6040518463ffffffff1660e01b8152600401610d2d939291906121f6565b600060405180830381600087803b158015610d4757600080fd5b505af1158015610d5b573d6000803e3d6000fd5b5050505060028160030160006101000a81548160ff02191690836003811115610dad577f4e487b7100000000000000000000000000000000000000000000000000000000600052602160045260246000fd5b02179055507f0bb3357d6f2cf56ed1ef16717520f9ce78dac340ce04e515ca5b648fb29d81dd8160000160009054906101000a900473ffffffffffffffffffffffffffffffffffffffff168260010160009054906101000a900473ffffffffffffffffffffffffffffffffffffffff168360020154604051610e31939291906121f6565b60405180910390a150505050565b600560009054906101000a900473ffffffffffffffffffffffffffffffffffffffff1673ffffffffffffffffffffffffffffffffffffffff163373ffffffffffffffffffffffffffffffffffffffff1614610ecf576040517f08c379a0000000000000000000000000000000000000000000000000000000008152600401610ec6906122bb565b60405180910390fd5b8060008111610f13576040517f08c379a0000000000000000000000000000000000000000000000000000000008152600401610f0a906123bb565b60405180910390fd5b816001819055507f20c5d2426bf7f0fa5dfb56e676130c81f58903a4373636d9821ea85df121bfe882604051610f499190612416565b60405180910390a15050565b600560009054906101000a900473ffffffffffffffffffffffffffffffffffffffff1673ffffffffffffffffffffffffffffffffffffffff163373ffffffffffffffffffffffffffffffffffffffff1614610fe5576040517f08c379a0000000000000000000000000000000000000000000000000000000008152600401610fdc906122bb565b60405180910390fd5b80600073ffffffffffffffffffffffffffffffffffffffff168173ffffffffffffffffffffffffffffffffffffffff161415611056576040517f08c379a000000000000000000000000000000000000000000000000000000000815260040161104d9061231b565b60405180910390fd5b81600760006101000a81548173ffffffffffffffffffffffffffffffffffffffff021916908373ffffffffffffffffffffffffffffffffffffffff1602179055507f805e9277349a1e91b496994a9be376a13fc2682f022c4acdff7f8c50546710ac826040516110c69190612196565b60405180910390a15050565b6000600660009054906101000a900473ffffffffffffffffffffffffffffffffffffffff1673ffffffffffffffffffffffffffffffffffffffff163373ffffffffffffffffffffffffffffffffffffffff16148061117d5750600760009054906101000a900473ffffffffffffffffffffffffffffffffffffffff1673ffffffffffffffffffffffffffffffffffffffff163373ffffffffffffffffffffffffffffffffffffffff16145b6111bc576040517f08c379a00000000000000000000000000000000000000000000000000000000081526004016111b39061239b565b60405180910390fd5b838280600360009054906101000a900473ffffffffffffffffffffffffffffffffffffffff1673ffffffffffffffffffffffffffffffffffffffff1663a3e36604846040518263ffffffff1660e01b815260040161121a9190612196565b60206040518083038186803b15801561123257600080fd5b505afa158015611246573d6000803e3d6000fd5b505050506040513d601f19601f8201168201806040525081019061126a9190611f3d565b10156112ab576040517f08c379a00000000000000000000000000000000000000000000000000000000081526004016112a29061233b565b60405180910390fd5b60405180608001604052808773ffffffffffffffffffffffffffffffffffffffff1681526020018673ffffffffffffffffffffffffffffffffffffffff1681526020018581526020016000600381111561132e577f4e487b7100000000000000000000000000000000000000000000000000000000600052602160045260246000fd5b815250600460008054815260200190815260200160002060008201518160000160006101000a81548173ffffffffffffffffffffffffffffffffffffffff021916908373ffffffffffffffffffffffffffffffffffffffff16021790555060208201518160010160006101000a81548173ffffffffffffffffffffffffffffffffffffffff021916908373ffffffffffffffffffffffffffffffffffffffff1602179055506040820151816002015560608201518160030160006101000a81548160ff0219169083600381111561142e577f4e487b7100000000000000000000000000000000000000000000000000000000600052602160045260246000fd5b0217905550905050600080815480929190611448906124d7565b91905055507ff784815e5d852061f9c35ee8ab3237cd56d85a35a73a43666e91287e021eb04a868686604051611480939291906121f6565b60405180910390a160016000546114979190612442565b925050509392505050565b60046020528060005260406000206000915090508060000160009054906101000a900473ffffffffffffffffffffffffffffffffffffffff16908060010160009054906101000a900473ffffffffffffffffffffffffffffffffffffffff16908060020154908060030160009054906101000a900460ff16905084565b6000600560009054906101000a900473ffffffffffffffffffffffffffffffffffffffff16905090565b600560009054906101000a900473ffffffffffffffffffffffffffffffffffffffff1673ffffffffffffffffffffffffffffffffffffffff163373ffffffffffffffffffffffffffffffffffffffff16146115d9576040517f08c379a00000000000000000000000000000000000000000000000000000000081526004016115d0906122bb565b60405180910390fd5b806000811161161d576040517f08c379a00000000000000000000000000000000000000000000000000000000081526004016116149061235b565b60405180910390fd5b816002819055507f2d0e5fd464b43f2cc17eef20dcfc223b4f5719b867562cfac0eed8c9f9c5ab21826040516116539190612416565b60405180910390a15050565b60008054905090565b6000600254905090565b6000600660009054906101000a900473ffffffffffffffffffffffffffffffffffffffff16905090565b600660009054906101000a900473ffffffffffffffffffffffffffffffffffffffff1673ffffffffffffffffffffffffffffffffffffffff163373ffffffffffffffffffffffffffffffffffffffff161461172c576040517f08c379a0000000000000000000000000000000000000000000000000000000008152600401611723906123db565b60405180910390fd5b806000548110611771576040517f08c379a0000000000000000000000000000000000000000000000000000000008152600401611768906122db565b60405180910390fd5b81600060038111156117ac577f4e487b7100000000000000000000000000000000000000000000000000000000600052602160045260246000fd5b6004600083815260200190815260200160002060030160009054906101000a900460ff166003811115611808577f4e487b7100000000000000000000000000000000000000000000000000000000600052602160045260246000fd5b14611848576040517f08c379a000000000000000000000000000000000000000000000000000000000815260040161183f9061229b565b60405180910390fd5b6000600460008581526020019081526020016000209050600360009054906101000a900473ffffffffffffffffffffffffffffffffffffffff1673ffffffffffffffffffffffffffffffffffffffff1663b4e59fa38260000160009054906101000a900473ffffffffffffffffffffffffffffffffffffffff163084600201546040518463ffffffff1660e01b81526004016118e6939291906121f6565b600060405180830381600087803b15801561190057600080fd5b505af1158015611914573d6000803e3d6000fd5b50505050600360009054906101000a900473ffffffffffffffffffffffffffffffffffffffff1673ffffffffffffffffffffffffffffffffffffffff1663403e2a63308360000160009054906101000a900473ffffffffffffffffffffffffffffffffffffffff163085600201546040518563ffffffff1660e01b81526004016119a194939291906121b1565b600060405180830381600087803b1580156119bb57600080fd5b505af11580156119cf573d6000803e3d6000fd5b5050505060018160030160006101000a81548160ff02191690836003811115611a21577f4e487b7100000000000000000000000000000000000000000000000000000000600052602160045260246000fd5b02179055507f7e9cb42033a175042cb8f196529b20b79e4279330a9b9be72e2b1f352528c8f88160000160009054906101000a900473ffffffffffffffffffffffffffffffffffffffff168260010160009054906101000a900473ffffffffffffffffffffffffffffffffffffffff168360020154604051611aa5939291906121f6565b60405180910390a150505050565b600560009054906101000a900473ffffffffffffffffffffffffffffffffffffffff1673ffffffffffffffffffffffffffffffffffffffff163373ffffffffffffffffffffffffffffffffffffffff1614611b43576040517f08c379a0000000000000000000000000000000000000000000000000000000008152600401611b3a906122bb565b60405180910390fd5b600360009054906101000a900473ffffffffffffffffffffffffffffffffffffffff1673ffffffffffffffffffffffffffffffffffffffff1663d97d12dc30600560009054906101000a900473ffffffffffffffffffffffffffffffffffffffff16600360009054906101000a900473ffffffffffffffffffffffffffffffffffffffff1673ffffffffffffffffffffffffffffffffffffffff1663a3e36604306040518263ffffffff1660e01b8152600401611c009190612196565b60206040518083038186803b158015611c1857600080fd5b505afa158015611c2c573d6000803e3d6000fd5b505050506040513d601f19601f82011682018060405250810190611c509190611f3d565b6040518463ffffffff1660e01b8152600401611c6e939291906121f6565b600060405180830381600087803b158015611c8857600080fd5b505af1158015611c9c573d6000803e3d6000fd5b505050507faa0fd0dab0b527bc5a660240bf59ef3230f7a6821315eeff5e0b2c9d180255e6600560009054906101000a900473ffffffffffffffffffffffffffffffffffffffff16600360009054906101000a900473ffffffffffffffffffffffffffffffffffffffff1673ffffffffffffffffffffffffffffffffffffffff1663a3e36604306040518263ffffffff1660e01b8152600401611d3f9190612196565b60206040518083038186803b158015611d5757600080fd5b505afa158015611d6b573d6000803e3d6000fd5b505050506040513d601f19601f82011682018060405250810190611d8f9190611f3d565b604051611d9d929190612272565b60405180910390a1565b6000600760009054906101000a900473ffffffffffffffffffffffffffffffffffffffff16905090565b6040518060800160405280600073ffffffffffffffffffffffffffffffffffffffff168152602001600073ffffffffffffffffffffffffffffffffffffffff1681526020016000815260200160006003811115611e57577f4e487b7100000000000000000000000000000000000000000000000000000000600052602160045260246000fd5b81525090565b600081359050611e6c8161285f565b92915050565b600081359050611e8181612876565b92915050565b600081519050611e9681612876565b92915050565b600060208284031215611eae57600080fd5b6000611ebc84828501611e5d565b91505092915050565b600080600060608486031215611eda57600080fd5b6000611ee886828701611e5d565b9350506020611ef986828701611e5d565b9250506040611f0a86828701611e72565b9150509250925092565b600060208284031215611f2657600080fd5b6000611f3484828501611e72565b91505092915050565b600060208284031215611f4f57600080fd5b6000611f5d84828501611e87565b91505092915050565b611f6f81612476565b82525050565b611f7e81612476565b82525050565b611f8d816124c5565b82525050565b611f9c816124c5565b82525050565b6000611faf601d83612431565b9150611fba8261257e565b602082019050919050565b6000611fd2602183612431565b9150611fdd826125a7565b604082019050919050565b6000611ff5601683612431565b9150612000826125f6565b602082019050919050565b6000612018601d83612431565b91506120238261261f565b602082019050919050565b600061203b601e83612431565b915061204682612648565b602082019050919050565b600061205e602283612431565b915061206982612671565b604082019050919050565b6000612081602583612431565b915061208c826126c0565b604082019050919050565b60006120a4602183612431565b91506120af8261270f565b604082019050919050565b60006120c7603f83612431565b91506120d28261275e565b604082019050919050565b60006120ea602583612431565b91506120f5826127ad565b604082019050919050565b600061210d602d83612431565b9150612118826127fc565b604082019050919050565b6080820160008201516121396000850182611f66565b50602082015161214c6020850182611f66565b50604082015161215f6040850182612178565b5060608201516121726060850182611f84565b50505050565b612181816124bb565b82525050565b612190816124bb565b82525050565b60006020820190506121ab6000830184611f75565b92915050565b60006080820190506121c66000830187611f75565b6121d36020830186611f75565b6121e06040830185611f75565b6121ed6060830184612187565b95945050505050565b600060608201905061220b6000830186611f75565b6122186020830185611f75565b6122256040830184612187565b949350505050565b60006080820190506122426000830187611f75565b61224f6020830186611f75565b61225c6040830185612187565b6122696060830184611f93565b95945050505050565b60006040820190506122876000830185611f75565b6122946020830184612187565b9392505050565b600060208201905081810360008301526122b481611fa2565b9050919050565b600060208201905081810360008301526122d481611fc5565b9050919050565b600060208201905081810360008301526122f481611fe8565b9050919050565b600060208201905081810360008301526123148161200b565b9050919050565b600060208201905081810360008301526123348161202e565b9050919050565b6000602082019050818103600083015261235481612051565b9050919050565b6000602082019050818103600083015261237481612074565b9050919050565b6000602082019050818103600083015261239481612097565b9050919050565b600060208201905081810360008301526123b4816120ba565b9050919050565b600060208201905081810360008301526123d4816120dd565b9050919050565b600060208201905081810360008301526123f481612100565b9050919050565b60006080820190506124106000830184612123565b92915050565b600060208201905061242b6000830184612187565b92915050565b600082825260208201905092915050565b600061244d826124bb565b9150612458836124bb565b92508282101561246b5761246a612520565b5b828203905092915050565b60006124818261249b565b9050919050565b60008190506124968261284b565b919050565b600073ffffffffffffffffffffffffffffffffffffffff82169050919050565b6000819050919050565b60006124d082612488565b9050919050565b60006124e2826124bb565b91507fffffffffffffffffffffffffffffffffffffffffffffffffffffffffffffffff82141561251557612514612520565b5b600182019050919050565b7f4e487b7100000000000000000000000000000000000000000000000000000000600052601160045260246000fd5b7f4e487b7100000000000000000000000000000000000000000000000000000000600052602160045260246000fd5b7f5061796d656e742068617320616c7265616479206265656e206d616465000000600082015250565b7f4f6e6c79206f776e65722063616e2063616c6c20746869732066756e6374696f60008201527f6e00000000000000000000000000000000000000000000000000000000000000602082015250565b7f5061796d656e7420646f6573206e6f7420657869737400000000000000000000600082015250565b7f5061796d656e7420686173206e6f74206265656e206d61646520796574000000600082015250565b7f496e76616c69642052656e744469737075746544414f20616464726573730000600082015250565b7f506179657220646f6573206e6f74206861766520656e6f7567682062616c616e60008201527f6365000000000000000000000000000000000000000000000000000000000000602082015250565b7f436f6d6d697373696f6e20666565206d7573742062652067726561746572207460008201527f68616e2030000000000000000000000000000000000000000000000000000000602082015250565b7f496e76616c69642052656e74616c6d61726b657470616c63652061646472657360008201527f7300000000000000000000000000000000000000000000000000000000000000602082015250565b7f4f6e6c792052656e74616c4d61726b6574706c616365206f722052656e74446960008201527f737075746544414f2063616e2063616c6c20746869732066756e6374696f6e00602082015250565b7f50726f74656374696f6e20666565206d7573742062652067726561746572207460008201527f68616e2030000000000000000000000000000000000000000000000000000000602082015250565b7f4f6e6c792052656e74616c4d61726b6574706c6163652063616e2063616c6c2060008201527f746869732066756e6374696f6e00000000000000000000000000000000000000602082015250565b6004811061285c5761285b61254f565b5b50565b61286881612476565b811461287357600080fd5b50565b61287f816124bb565b811461288a57600080fd5b5056fea264697066735822122071ccd055530f2c39e3303b4380807d0e5c713eec261824c6616907ba875745dd64736f6c63430008010033",
  "immutableReferences": {},
  "source": "// SPDX-License-Identifier: MIT\r\npragma solidity ^0.8.0;\r\n\r\nimport \"./LeaseToken.sol\";\r\n\r\ncontract PaymentEscrow {\r\n    // ################################################### STRUCTURE & STATE VARIABLES ################################################### //\r\n    enum PaymentStatus {\r\n        PENDING,\r\n        PAID,\r\n        RELEASED,\r\n        REFUNDED\r\n    }\r\n\r\n    struct Payment {\r\n        address payer;\r\n        address payee;\r\n        uint256 amount;\r\n        PaymentStatus status;\r\n    }\r\n\r\n    // The number of payment transactions that have been made\r\n    uint256 private numOfPayments = 0;\r\n    // The number of tokens landlord must stake in the potential event of a dispute with tenant\r\n    uint256 private protectionFee;\r\n    // The commission fee (in tokens) that the platform charges for each transaction\r\n    uint256 private commissionFee;\r\n\r\n    LeaseToken leaseTokenContract;\r\n\r\n    mapping(uint256 => Payment) public payments;\r\n\r\n    // The owner of the contract (PaymentEscrow), who can set the protection fee (for landlord) and commission fee (for platform)\r\n    address private owner;\r\n    // The address of the RentalMarketplace contract, which is the only contract that can call the release function\r\n    address private rentalMarketplaceAddress;\r\n    // The address of the RentDisputeDAO contract, which is the only contract that can call the refund function\r\n    address private rentDisputeDAOAddress;\r\n\r\n    constructor(\r\n        address _leaseTokenAddress,\r\n        uint256 _protectionFee,\r\n        uint256 _commissionFee\r\n    ) {\r\n        leaseTokenContract = LeaseToken(_leaseTokenAddress);\r\n        protectionFee = _protectionFee;\r\n        commissionFee = _commissionFee;\r\n        owner = msg.sender;\r\n    }\r\n\r\n    // ################################################### EVENTS ################################################### //\r\n\r\n    event paymentCreated(address payer, address payee, uint256 amount);\r\n    event paymentPaid(address payer, address payee, uint256 amount);\r\n    event paymentReleased(address payer, address payee, uint256 amount);\r\n    event paymentRefunded(address payer, address payee, uint256 amount);\r\n    event protectionFeeSet(uint256 protectionFee);\r\n    event commissionFeeSet(uint256 commissionFee);\r\n    event tokenWithdrawn(address owner, uint256 amount);\r\n    event rentalMarketplaceAddressSet(address rentalMarketplaceAddress);\r\n    event rentDisputeDAOAddressSet(address rentDisputeDAOAddress);\r\n\r\n    // ################################################### MODIFIERS ################################################### //\r\n\r\n    modifier onlyOwner() {\r\n        require(msg.sender == owner, \"Only owner can call this function\");\r\n        _;\r\n    }\r\n\r\n    modifier onlyRentalMarketplace() {\r\n        require(\r\n            msg.sender == rentalMarketplaceAddress,\r\n            \"Only RentalMarketplace can call this function\"\r\n        );\r\n        _;\r\n    }\r\n\r\n    modifier onlyRentDisputeDAO() {\r\n        require(\r\n            msg.sender == rentDisputeDAOAddress,\r\n            \"Only RentDisputeDAO can call this function\"\r\n        );\r\n        _;\r\n    }\r\n\r\n    modifier onlyRentalMarketplaceOrRentDisputeDAO() {\r\n        require(\r\n            msg.sender == rentalMarketplaceAddress ||\r\n                msg.sender == rentDisputeDAOAddress,\r\n            \"Only RentalMarketplace or RentDisputeDAO can call this function\"\r\n        );\r\n        _;\r\n    }\r\n\r\n    modifier checkSufficientBalance(address _payer, uint256 _amount) {\r\n        require(\r\n            leaseTokenContract.checkLeaseToken(_payer) >= _amount,\r\n            \"Payer does not have enough balance\"\r\n        );\r\n        _;\r\n    }\r\n\r\n    modifier PaymentExists(uint256 _paymentId) {\r\n        require(_paymentId < numOfPayments, \"Payment does not exist\");\r\n        _;\r\n    }\r\n\r\n    modifier PaymentPending(uint256 _paymentId) {\r\n        require(\r\n            payments[_paymentId].status == PaymentStatus.PENDING,\r\n            \"Payment has already been made\"\r\n        );\r\n        _;\r\n    }\r\n\r\n    modifier PaymentPaid(uint256 _paymentId) {\r\n        require(\r\n            payments[_paymentId].status == PaymentStatus.PAID,\r\n            \"Payment has not been made yet\"\r\n        );\r\n        _;\r\n    }\r\n\r\n    modifier PaymentReleased(uint256 _paymentId) {\r\n        require(\r\n            payments[_paymentId].status == PaymentStatus.RELEASED,\r\n            \"Payment has not been released yet\"\r\n        );\r\n        _;\r\n    }\r\n\r\n    modifier PaymentRefunded(uint256 _paymentId) {\r\n        require(\r\n            payments[_paymentId].status == PaymentStatus.REFUNDED,\r\n            \"Payment has not been refunded yet\"\r\n        );\r\n        _;\r\n    }\r\n\r\n    modifier invalidProtectionFee(uint256 _protectionFee) {\r\n        require(_protectionFee > 0, \"Protection fee must be greater than 0\");\r\n        _;\r\n    }\r\n\r\n    modifier invalidCommissionFee(uint256 _commissionFee) {\r\n        require(_commissionFee > 0, \"Commission fee must be greater than 0\");\r\n        _;\r\n    }\r\n\r\n    modifier invalidRentalMarketplaceAddress(\r\n        address _rentalMarketplaceAddress\r\n    ) {\r\n        require(\r\n            _rentalMarketplaceAddress != address(0),\r\n            \"Invalid Rentalmarketpalce address\"\r\n        );\r\n        _;\r\n    }\r\n\r\n    modifier invalidRentDisputeDAOAddress(address _rentDisputeDAOAddress) {\r\n        require(\r\n            _rentDisputeDAOAddress != address(0),\r\n            \"Invalid RentDisputeDAO address\"\r\n        );\r\n        _;\r\n    }\r\n\r\n    // ################################################### FUNCTIONS ################################################### //\r\n\r\n    // Function to create a payment transaction\r\n    function createPayment(\r\n        address _payer,\r\n        address _payee,\r\n        uint256 _amount\r\n    )\r\n        public\r\n        onlyRentalMarketplaceOrRentDisputeDAO\r\n        checkSufficientBalance(_payer, _amount)\r\n        returns (uint256)\r\n    {\r\n        payments[numOfPayments] = Payment(\r\n            _payer,\r\n            _payee,\r\n            _amount,\r\n            PaymentStatus.PENDING\r\n        );\r\n        numOfPayments++;\r\n        emit paymentCreated(_payer, _payee, _amount);\r\n        return numOfPayments - 1; // Return the payment ID\r\n    }\r\n\r\n    // Function to transfer the payment amount from the tenant to the PaymentEscrow\r\n    function pay(\r\n        uint256 _paymentId\r\n    )\r\n        public\r\n        onlyRentalMarketplace\r\n        PaymentExists(_paymentId)\r\n        PaymentPending(_paymentId)\r\n    {\r\n        Payment storage payment = payments[_paymentId];\r\n\r\n        // Tenant approves PaymentEscrow to transfer the payment amount to the Landlord\r\n        leaseTokenContract.approveLeaseToken(payment.payer, address(this), payment.amount);\r\n        // Tenant transfers the payment amount to PaymentEscrow\r\n        leaseTokenContract.transferLeaseTokenFrom(\r\n            address(this),\r\n            payment.payer,\r\n            address(this),\r\n            payment.amount\r\n        );\r\n        payment.status = PaymentStatus.PAID;\r\n        emit paymentPaid(payment.payer, payment.payee, payment.amount);\r\n    }\r\n\r\n    // Function to release the payment amount from the PaymentEscrow to the landlord\r\n    function release(\r\n        uint256 _paymentId\r\n    )\r\n        public\r\n        onlyRentalMarketplace\r\n        PaymentExists(_paymentId)\r\n        PaymentPaid(_paymentId)\r\n    {\r\n        Payment storage payment = payments[_paymentId];\r\n\r\n        // PaymentEscrow transfers the payment amount to the tenant (minus the commission fee), commission fee is transferred to the platform\r\n        leaseTokenContract.transferLeaseToken(\r\n            address(this),\r\n            payment.payee,\r\n            payment.amount - commissionFee\r\n        );\r\n        payment.status = PaymentStatus.RELEASED;\r\n        emit paymentReleased(payment.payer, payment.payee, payment.amount);\r\n    }\r\n\r\n    // Function to refund the payment amount from the PaymentEscrow to the tenant\r\n    function refund(\r\n        uint256 _paymentId\r\n    )\r\n        public\r\n        onlyRentalMarketplaceOrRentDisputeDAO()\r\n        PaymentExists(_paymentId)\r\n        PaymentPaid(_paymentId)\r\n    {\r\n        Payment storage payment = payments[_paymentId];\r\n        // PaymentEscrow transfers the payment amount back to the landlord\r\n        leaseTokenContract.transferLeaseToken(\r\n            address(this),\r\n            payment.payer,\r\n            payment.amount\r\n        );\r\n        payment.status = PaymentStatus.REFUNDED;\r\n        emit paymentRefunded(payment.payer, payment.payee, payment.amount);\r\n    }\r\n\r\n    // Function to withdraw the tokens to the owner of the contract\r\n    function withdrawToken() public onlyOwner {\r\n        leaseTokenContract.transferLeaseToken(\r\n            address(this),\r\n            owner,\r\n            leaseTokenContract.checkLeaseToken((address(this)))\r\n        );\r\n        emit tokenWithdrawn(\r\n            owner,\r\n            leaseTokenContract.checkLeaseToken((address(this)))\r\n        );\r\n    }\r\n\r\n    // ################################################### SETTER METHODS ################################################### //\r\n\r\n    // Function to set the protection fee\r\n    function setProtectionFee(\r\n        uint256 _protectionFee\r\n    ) public onlyOwner invalidProtectionFee(_protectionFee) {\r\n        protectionFee = _protectionFee;\r\n        emit protectionFeeSet(_protectionFee);\r\n    }\r\n    // Function to set the commission fee\r\n    function setCommissionFee(\r\n        uint256 _commissionFee\r\n    ) public onlyOwner invalidCommissionFee(_commissionFee) {\r\n        commissionFee = _commissionFee;\r\n        emit commissionFeeSet(_commissionFee);\r\n    }\r\n\r\n    // Function to set the RentalMarketplace address (Access Control)\r\n    function setRentalMarketplaceAddress(\r\n        address _rentalMarketplaceAddress\r\n    )\r\n        public\r\n        onlyOwner\r\n        invalidRentalMarketplaceAddress(_rentalMarketplaceAddress)\r\n    {\r\n        rentalMarketplaceAddress = _rentalMarketplaceAddress;\r\n        emit rentalMarketplaceAddressSet(_rentalMarketplaceAddress);\r\n    }\r\n\r\n    // Function to set the RentDisputeDAO address (Access Control)\r\n    function setRentDisputeDAOAddress(\r\n        address _rentDisputeDAOAddress\r\n    ) public onlyOwner invalidRentDisputeDAOAddress(_rentDisputeDAOAddress) {\r\n        rentDisputeDAOAddress = _rentDisputeDAOAddress;\r\n        emit rentDisputeDAOAddressSet(_rentDisputeDAOAddress);\r\n    }\r\n\r\n    // ################################################### GETTER METHODS ################################################### //\r\n\r\n    // Function to get the protection fee\r\n    function getProtectionFee() public view returns (uint256) {\r\n        return protectionFee;\r\n    }\r\n\r\n    // Function to get the commission fee\r\n    function getCommissionFee() public view returns (uint256) {\r\n        return commissionFee;\r\n    }\r\n\r\n    // Function to get the payment details\r\n    function getPayment(\r\n        uint256 _paymentId\r\n    ) public view returns (Payment memory) {\r\n        return payments[_paymentId];\r\n    }\r\n\r\n    // Function to get the number of payments\r\n    function getNumOfPayments() public view returns (uint256) {\r\n        return numOfPayments;\r\n    }\r\n\r\n    // Function to get the balance of the contract\r\n    function getBalance() public view returns (uint256) {\r\n        return leaseTokenContract.checkLeaseToken(address(this));\r\n    }\r\n\r\n    // Function to get the owner of the contract\r\n    function getOwner() public view returns (address) {\r\n        return owner;\r\n    }\r\n\r\n    // Function to get the contract address\r\n    function getContractAddress() public view returns (address) {\r\n        return address(this);\r\n    }\r\n\r\n    // Function to get the RentalMarketplace address\r\n    function getRentalMarketplaceAddress() public view returns (address) {\r\n        return rentalMarketplaceAddress;\r\n    }\r\n\r\n    // Function to get the RentDisputeDAO address\r\n    function getRentDisputeDAOAddress() public view returns (address) {\r\n        return rentDisputeDAOAddress;\r\n    }\r\n}\r\n",
  "sourcePath": "C:\\Users\\Bransome Tan Yi Hao\\OneDrive - National University of Singapore\\Desktop\\IS4302\\is4302-project\\contracts\\PaymentEscrow.sol",
  "compiler": {
    "name": "solc",
    "version": "0.8.1+commit.df193b15.Emscripten.clang"
  },
  "schemaVersion": "3.4.16",
  "updatedAt": "2024-04-09T11:05:58.368Z",
  "devdoc": {
    "kind": "dev",
    "methods": {},
    "version": 1
  },
  "userdoc": {
    "kind": "user",
    "methods": {},
    "version": 1
  }
}