{
  "contractName": "PaymentEscrow",
  "abi": [
    {
      "inputs": [
        {
          "internalType": "address",
          "name": "_leaseTokenAddress",
          "type": "address"
        },
        {
          "internalType": "uint256",
          "name": "_protectionFee",
          "type": "uint256"
        },
        {
          "internalType": "uint256",
          "name": "_commissionFee",
          "type": "uint256"
        },
        {
          "internalType": "uint256",
          "name": "_voterReward",
          "type": "uint256"
        }
      ],
      "stateMutability": "nonpayable",
      "type": "constructor"
    },
    {
      "anonymous": false,
      "inputs": [
        {
          "indexed": false,
          "internalType": "uint256",
          "name": "commissionFee",
          "type": "uint256"
        }
      ],
      "name": "commissionFeeSet",
      "type": "event"
    },
    {
      "anonymous": false,
      "inputs": [
        {
          "indexed": false,
          "internalType": "address",
          "name": "payer",
          "type": "address"
        },
        {
          "indexed": false,
          "internalType": "address",
          "name": "payee",
          "type": "address"
        },
        {
          "indexed": false,
          "internalType": "uint256",
          "name": "amount",
          "type": "uint256"
        }
      ],
      "name": "paymentCreated",
      "type": "event"
    },
    {
      "anonymous": false,
      "inputs": [
        {
          "indexed": false,
          "internalType": "address",
          "name": "payer",
          "type": "address"
        },
        {
          "indexed": false,
          "internalType": "address",
          "name": "payee",
          "type": "address"
        },
        {
          "indexed": false,
          "internalType": "uint256",
          "name": "amount",
          "type": "uint256"
        }
      ],
      "name": "paymentPaid",
      "type": "event"
    },
    {
      "anonymous": false,
      "inputs": [
        {
          "indexed": false,
          "internalType": "address",
          "name": "payer",
          "type": "address"
        },
        {
          "indexed": false,
          "internalType": "address",
          "name": "payee",
          "type": "address"
        },
        {
          "indexed": false,
          "internalType": "uint256",
          "name": "amount",
          "type": "uint256"
        }
      ],
      "name": "paymentRefunded",
      "type": "event"
    },
    {
      "anonymous": false,
      "inputs": [
        {
          "indexed": false,
          "internalType": "address",
          "name": "payer",
          "type": "address"
        },
        {
          "indexed": false,
          "internalType": "address",
          "name": "payee",
          "type": "address"
        },
        {
          "indexed": false,
          "internalType": "uint256",
          "name": "amount",
          "type": "uint256"
        }
      ],
      "name": "paymentReleased",
      "type": "event"
    },
    {
      "anonymous": false,
      "inputs": [
        {
          "indexed": false,
          "internalType": "uint256",
          "name": "protectionFee",
          "type": "uint256"
        }
      ],
      "name": "protectionFeeSet",
      "type": "event"
    },
    {
      "anonymous": false,
      "inputs": [
        {
          "indexed": false,
          "internalType": "address",
          "name": "rentDisputeDAOAddress",
          "type": "address"
        }
      ],
      "name": "rentDisputeDAOAddressSet",
      "type": "event"
    },
    {
      "anonymous": false,
      "inputs": [
        {
          "indexed": false,
          "internalType": "address",
          "name": "rentalMarketplaceAddress",
          "type": "address"
        }
      ],
      "name": "rentalMarketplaceAddressSet",
      "type": "event"
    },
    {
      "anonymous": false,
      "inputs": [
        {
          "indexed": false,
          "internalType": "address",
          "name": "owner",
          "type": "address"
        },
        {
          "indexed": false,
          "internalType": "uint256",
          "name": "amount",
          "type": "uint256"
        }
      ],
      "name": "tokenWithdrawn",
      "type": "event"
    },
    {
      "inputs": [
        {
          "internalType": "uint256",
          "name": "",
          "type": "uint256"
        }
      ],
      "name": "payments",
      "outputs": [
        {
          "internalType": "address",
          "name": "payer",
          "type": "address"
        },
        {
          "internalType": "address",
          "name": "payee",
          "type": "address"
        },
        {
          "internalType": "uint256",
          "name": "amount",
          "type": "uint256"
        },
        {
          "internalType": "enum PaymentEscrow.PaymentStatus",
          "name": "status",
          "type": "uint8"
        }
      ],
      "stateMutability": "view",
      "type": "function"
    },
    {
      "inputs": [
        {
          "internalType": "address",
          "name": "_payer",
          "type": "address"
        },
        {
          "internalType": "address",
          "name": "_payee",
          "type": "address"
        },
        {
          "internalType": "uint256",
          "name": "_amount",
          "type": "uint256"
        }
      ],
      "name": "createPayment",
      "outputs": [
        {
          "internalType": "uint256",
          "name": "",
          "type": "uint256"
        }
      ],
      "stateMutability": "nonpayable",
      "type": "function"
    },
    {
      "inputs": [
        {
          "internalType": "uint256",
          "name": "_paymentId",
          "type": "uint256"
        }
      ],
      "name": "pay",
      "outputs": [],
      "stateMutability": "nonpayable",
      "type": "function"
    },
    {
      "inputs": [
        {
          "internalType": "uint256",
          "name": "_paymentId",
          "type": "uint256"
        }
      ],
      "name": "release",
      "outputs": [],
      "stateMutability": "nonpayable",
      "type": "function"
    },
    {
      "inputs": [
        {
          "internalType": "uint256",
          "name": "_paymentId",
          "type": "uint256"
        }
      ],
      "name": "refund",
      "outputs": [],
      "stateMutability": "nonpayable",
      "type": "function"
    },
    {
      "inputs": [],
      "name": "withdrawToken",
      "outputs": [],
      "stateMutability": "nonpayable",
      "type": "function"
    },
    {
      "inputs": [
        {
          "internalType": "uint256",
          "name": "_protectionFee",
          "type": "uint256"
        }
      ],
      "name": "setProtectionFee",
      "outputs": [],
      "stateMutability": "nonpayable",
      "type": "function"
    },
    {
      "inputs": [
        {
          "internalType": "uint256",
          "name": "_commissionFee",
          "type": "uint256"
        }
      ],
      "name": "setCommissionFee",
      "outputs": [],
      "stateMutability": "nonpayable",
      "type": "function"
    },
    {
      "inputs": [
        {
          "internalType": "uint256",
          "name": "_voterReward",
          "type": "uint256"
        }
      ],
      "name": "setVoterReward",
      "outputs": [],
      "stateMutability": "nonpayable",
      "type": "function"
    },
    {
      "inputs": [
        {
          "internalType": "address",
          "name": "_rentalMarketplaceAddress",
          "type": "address"
        }
      ],
      "name": "setRentalMarketplaceAddress",
      "outputs": [],
      "stateMutability": "nonpayable",
      "type": "function"
    },
    {
      "inputs": [
        {
          "internalType": "address",
          "name": "_rentDisputeDAOAddress",
          "type": "address"
        }
      ],
      "name": "setRentDisputeDAOAddress",
      "outputs": [],
      "stateMutability": "nonpayable",
      "type": "function"
    },
    {
      "inputs": [],
      "name": "getProtectionFee",
      "outputs": [
        {
          "internalType": "uint256",
          "name": "",
          "type": "uint256"
        }
      ],
      "stateMutability": "view",
      "type": "function"
    },
    {
      "inputs": [],
      "name": "getCommissionFee",
      "outputs": [
        {
          "internalType": "uint256",
          "name": "",
          "type": "uint256"
        }
      ],
      "stateMutability": "view",
      "type": "function"
    },
    {
      "inputs": [],
      "name": "getVoterReward",
      "outputs": [
        {
          "internalType": "uint256",
          "name": "",
          "type": "uint256"
        }
      ],
      "stateMutability": "view",
      "type": "function"
    },
    {
      "inputs": [
        {
          "internalType": "uint256",
          "name": "_paymentId",
          "type": "uint256"
        }
      ],
      "name": "getPayment",
      "outputs": [
        {
          "components": [
            {
              "internalType": "address",
              "name": "payer",
              "type": "address"
            },
            {
              "internalType": "address",
              "name": "payee",
              "type": "address"
            },
            {
              "internalType": "uint256",
              "name": "amount",
              "type": "uint256"
            },
            {
              "internalType": "enum PaymentEscrow.PaymentStatus",
              "name": "status",
              "type": "uint8"
            }
          ],
          "internalType": "struct PaymentEscrow.Payment",
          "name": "",
          "type": "tuple"
        }
      ],
      "stateMutability": "view",
      "type": "function"
    },
    {
      "inputs": [],
      "name": "getNumOfPayments",
      "outputs": [
        {
          "internalType": "uint256",
          "name": "",
          "type": "uint256"
        }
      ],
      "stateMutability": "view",
      "type": "function"
    },
    {
      "inputs": [],
      "name": "getBalance",
      "outputs": [
        {
          "internalType": "uint256",
          "name": "",
          "type": "uint256"
        }
      ],
      "stateMutability": "view",
      "type": "function"
    },
    {
      "inputs": [],
      "name": "getOwner",
      "outputs": [
        {
          "internalType": "address",
          "name": "",
          "type": "address"
        }
      ],
      "stateMutability": "view",
      "type": "function"
    },
    {
      "inputs": [],
      "name": "getContractAddress",
      "outputs": [
        {
          "internalType": "address",
          "name": "",
          "type": "address"
        }
      ],
      "stateMutability": "view",
      "type": "function"
    },
    {
      "inputs": [],
      "name": "getRentalMarketplaceAddress",
      "outputs": [
        {
          "internalType": "address",
          "name": "",
          "type": "address"
        }
      ],
      "stateMutability": "view",
      "type": "function"
    },
    {
      "inputs": [],
      "name": "getRentDisputeDAOAddress",
      "outputs": [
        {
          "internalType": "address",
          "name": "",
          "type": "address"
        }
      ],
      "stateMutability": "view",
      "type": "function"
    }
  ],
  "bytecode": "0x6080604052600080553480156200001557600080fd5b5060405162002ba638038062002ba683398181016040528101906200003b91906200010a565b83600460006101000a81548173ffffffffffffffffffffffffffffffffffffffff021916908373ffffffffffffffffffffffffffffffffffffffff16021790555082600181905550816002819055508060038190555033600660006101000a81548173ffffffffffffffffffffffffffffffffffffffff021916908373ffffffffffffffffffffffffffffffffffffffff16021790555050505050620001e8565b600081519050620000ed81620001b4565b92915050565b6000815190506200010481620001ce565b92915050565b600080600080608085870312156200012157600080fd5b60006200013187828801620000dc565b94505060206200014487828801620000f3565b93505060406200015787828801620000f3565b92505060606200016a87828801620000f3565b91505092959194509250565b600062000183826200018a565b9050919050565b600073ffffffffffffffffffffffffffffffffffffffff82169050919050565b6000819050919050565b620001bf8162000176565b8114620001cb57600080fd5b50565b620001d981620001aa565b8114620001e557600080fd5b50565b6129ae80620001f86000396000f3fe608060405234801561001057600080fd5b50600436106101375760003560e01c8063794d0ed8116100b85780639d7d496e1161007c5780639d7d496e1461032b578063b530d81e14610349578063c290d69114610367578063ca628c7814610383578063df2422f01461038d578063f19ba757146103ab57610137565b8063794d0ed81461027057806387d81789146102a0578063893d20e8146102d3578063895860e5146102f157806394c8dcb11461030d57610137565b806332a2c5d0116100ff57806332a2c5d0146101e257806335e88e2a1461020057806337bdc99b1461021c5780635b0f9317146102385780637620287b1461025457610137565b806312065fe01461013c57806315aca6cb1461015a5780631f7559ae14610178578063278ecde1146101965780633280a836146101b2575b600080fd5b6101446103c7565b6040516101519190612501565b60405180910390f35b610162610479565b60405161016f9190612501565b60405180910390f35b610180610483565b60405161018d9190612501565b60405180910390f35b6101b060048036038101906101ab9190611fff565b61048d565b005b6101cc60048036038101906101c79190611fff565b610842565b6040516101d991906124e6565b60405180910390f35b6101ea6109ac565b6040516101f79190612281565b60405180910390f35b61021a60048036038101906102159190611f87565b6109b4565b005b61023660048036038101906102319190611fff565b610b31565b005b610252600480360381019061024d9190611fff565b610e9b565b005b61026e60048036038101906102699190611f87565b610fb1565b005b61028a60048036038101906102859190611fb0565b61112e565b6040516102979190612501565b60405180910390f35b6102ba60048036038101906102b59190611fff565b6114f2565b6040516102ca9493929190612318565b60405180910390f35b6102db61156f565b6040516102e89190612281565b60405180910390f35b61030b60048036038101906103069190611fff565b611599565b005b6103156116af565b6040516103229190612501565b60405180910390f35b6103336116b8565b6040516103409190612501565b60405180910390f35b6103516116c2565b60405161035e9190612281565b60405180910390f35b610381600480360381019061037c9190611fff565b6116ec565b005b61038b611b04565b005b610395611df8565b6040516103a29190612281565b60405180910390f35b6103c560048036038101906103c09190611fff565b611e22565b005b6000600460009054906101000a900473ffffffffffffffffffffffffffffffffffffffff1673ffffffffffffffffffffffffffffffffffffffff1663a3e36604306040518263ffffffff1660e01b81526004016104249190612281565b60206040518083038186803b15801561043c57600080fd5b505afa158015610450573d6000803e3d6000fd5b505050506040513d601f19601f820116820180604052508101906104749190612028565b905090565b6000600354905090565b6000600154905090565b600760009054906101000a900473ffffffffffffffffffffffffffffffffffffffff1673ffffffffffffffffffffffffffffffffffffffff163373ffffffffffffffffffffffffffffffffffffffff1614806105365750600860009054906101000a900473ffffffffffffffffffffffffffffffffffffffff1673ffffffffffffffffffffffffffffffffffffffff163373ffffffffffffffffffffffffffffffffffffffff16145b610575576040517f08c379a000000000000000000000000000000000000000000000000000000000815260040161056c90612486565b60405180910390fd5b806000548111156105bb576040517f08c379a00000000000000000000000000000000000000000000000000000000081526004016105b2906123c6565b60405180910390fd5b81600160038111156105f6577f4e487b7100000000000000000000000000000000000000000000000000000000600052602160045260246000fd5b6005600083815260200190815260200160002060030160009054906101000a900460ff166003811115610652577f4e487b7100000000000000000000000000000000000000000000000000000000600052602160045260246000fd5b14610692576040517f08c379a0000000000000000000000000000000000000000000000000000000008152600401610689906123e6565b60405180910390fd5b6000600560008581526020019081526020016000209050600460009054906101000a900473ffffffffffffffffffffffffffffffffffffffff1673ffffffffffffffffffffffffffffffffffffffff1663d97d12dc308360000160009054906101000a900473ffffffffffffffffffffffffffffffffffffffff1684600201546040518463ffffffff1660e01b8152600401610730939291906122e1565b600060405180830381600087803b15801561074a57600080fd5b505af115801561075e573d6000803e3d6000fd5b5050505060038160030160006101000a81548160ff021916908360038111156107b0577f4e487b7100000000000000000000000000000000000000000000000000000000600052602160045260246000fd5b02179055507fce02e9bea9450a1582b80e1fa9c7355ba3fa2e0c367b1c5fbaba84c08dde4c538160000160009054906101000a900473ffffffffffffffffffffffffffffffffffffffff168260010160009054906101000a900473ffffffffffffffffffffffffffffffffffffffff168360020154604051610834939291906122e1565b60405180910390a150505050565b61084a611ebc565b600560008381526020019081526020016000206040518060800160405290816000820160009054906101000a900473ffffffffffffffffffffffffffffffffffffffff1673ffffffffffffffffffffffffffffffffffffffff1673ffffffffffffffffffffffffffffffffffffffff1681526020016001820160009054906101000a900473ffffffffffffffffffffffffffffffffffffffff1673ffffffffffffffffffffffffffffffffffffffff1673ffffffffffffffffffffffffffffffffffffffff168152602001600282015481526020016003820160009054906101000a900460ff166003811115610969577f4e487b7100000000000000000000000000000000000000000000000000000000600052602160045260246000fd5b60038111156109a1577f4e487b7100000000000000000000000000000000000000000000000000000000600052602160045260246000fd5b815250509050919050565b600030905090565b600660009054906101000a900473ffffffffffffffffffffffffffffffffffffffff1673ffffffffffffffffffffffffffffffffffffffff163373ffffffffffffffffffffffffffffffffffffffff1614610a44576040517f08c379a0000000000000000000000000000000000000000000000000000000008152600401610a3b906123a6565b60405180910390fd5b80600073ffffffffffffffffffffffffffffffffffffffff168173ffffffffffffffffffffffffffffffffffffffff161415610ab5576040517f08c379a0000000000000000000000000000000000000000000000000000000008152600401610aac90612466565b60405180910390fd5b81600760006101000a81548173ffffffffffffffffffffffffffffffffffffffff021916908373ffffffffffffffffffffffffffffffffffffffff1602179055507f0d97c2edba1236202c4ab09d16f0f494318aab730a517c7d6f1770a2fdd7b63782604051610b259190612281565b60405180910390a15050565b600760009054906101000a900473ffffffffffffffffffffffffffffffffffffffff1673ffffffffffffffffffffffffffffffffffffffff163373ffffffffffffffffffffffffffffffffffffffff1614610bc1576040517f08c379a0000000000000000000000000000000000000000000000000000000008152600401610bb8906124c6565b60405180910390fd5b80600054811115610c07576040517f08c379a0000000000000000000000000000000000000000000000000000000008152600401610bfe906123c6565b60405180910390fd5b8160016003811115610c42577f4e487b7100000000000000000000000000000000000000000000000000000000600052602160045260246000fd5b6005600083815260200190815260200160002060030160009054906101000a900460ff166003811115610c9e577f4e487b7100000000000000000000000000000000000000000000000000000000600052602160045260246000fd5b14610cde576040517f08c379a0000000000000000000000000000000000000000000000000000000008152600401610cd5906123e6565b60405180910390fd5b6000600560008581526020019081526020016000209050600460009054906101000a900473ffffffffffffffffffffffffffffffffffffffff1673ffffffffffffffffffffffffffffffffffffffff1663d97d12dc308360010160009054906101000a900473ffffffffffffffffffffffffffffffffffffffff166002548560020154610d6b919061252d565b6040518463ffffffff1660e01b8152600401610d89939291906122e1565b600060405180830381600087803b158015610da357600080fd5b505af1158015610db7573d6000803e3d6000fd5b5050505060028160030160006101000a81548160ff02191690836003811115610e09577f4e487b7100000000000000000000000000000000000000000000000000000000600052602160045260246000fd5b02179055507f0bb3357d6f2cf56ed1ef16717520f9ce78dac340ce04e515ca5b648fb29d81dd8160000160009054906101000a900473ffffffffffffffffffffffffffffffffffffffff168260010160009054906101000a900473ffffffffffffffffffffffffffffffffffffffff168360020154604051610e8d939291906122e1565b60405180910390a150505050565b600660009054906101000a900473ffffffffffffffffffffffffffffffffffffffff1673ffffffffffffffffffffffffffffffffffffffff163373ffffffffffffffffffffffffffffffffffffffff1614610f2b576040517f08c379a0000000000000000000000000000000000000000000000000000000008152600401610f22906123a6565b60405180910390fd5b8060008111610f6f576040517f08c379a0000000000000000000000000000000000000000000000000000000008152600401610f66906124a6565b60405180910390fd5b816001819055507f20c5d2426bf7f0fa5dfb56e676130c81f58903a4373636d9821ea85df121bfe882604051610fa59190612501565b60405180910390a15050565b600660009054906101000a900473ffffffffffffffffffffffffffffffffffffffff1673ffffffffffffffffffffffffffffffffffffffff163373ffffffffffffffffffffffffffffffffffffffff1614611041576040517f08c379a0000000000000000000000000000000000000000000000000000000008152600401611038906123a6565b60405180910390fd5b80600073ffffffffffffffffffffffffffffffffffffffff168173ffffffffffffffffffffffffffffffffffffffff1614156110b2576040517f08c379a00000000000000000000000000000000000000000000000000000000081526004016110a990612406565b60405180910390fd5b81600860006101000a81548173ffffffffffffffffffffffffffffffffffffffff021916908373ffffffffffffffffffffffffffffffffffffffff1602179055507f805e9277349a1e91b496994a9be376a13fc2682f022c4acdff7f8c50546710ac826040516111229190612281565b60405180910390a15050565b6000600760009054906101000a900473ffffffffffffffffffffffffffffffffffffffff1673ffffffffffffffffffffffffffffffffffffffff163373ffffffffffffffffffffffffffffffffffffffff1614806111d95750600860009054906101000a900473ffffffffffffffffffffffffffffffffffffffff1673ffffffffffffffffffffffffffffffffffffffff163373ffffffffffffffffffffffffffffffffffffffff16145b611218576040517f08c379a000000000000000000000000000000000000000000000000000000000815260040161120f90612486565b60405180910390fd5b838280600460009054906101000a900473ffffffffffffffffffffffffffffffffffffffff1673ffffffffffffffffffffffffffffffffffffffff1663a3e36604846040518263ffffffff1660e01b81526004016112769190612281565b60206040518083038186803b15801561128e57600080fd5b505afa1580156112a2573d6000803e3d6000fd5b505050506040513d601f19601f820116820180604052508101906112c69190612028565b1015611307576040517f08c379a00000000000000000000000000000000000000000000000000000000081526004016112fe90612426565b60405180910390fd5b600080815480929190611319906125c2565b919050555060405180608001604052808773ffffffffffffffffffffffffffffffffffffffff1681526020018673ffffffffffffffffffffffffffffffffffffffff168152602001858152602001600060038111156113a1577f4e487b7100000000000000000000000000000000000000000000000000000000600052602160045260246000fd5b815250600560008054815260200190815260200160002060008201518160000160006101000a81548173ffffffffffffffffffffffffffffffffffffffff021916908373ffffffffffffffffffffffffffffffffffffffff16021790555060208201518160010160006101000a81548173ffffffffffffffffffffffffffffffffffffffff021916908373ffffffffffffffffffffffffffffffffffffffff1602179055506040820151816002015560608201518160030160006101000a81548160ff021916908360038111156114a1577f4e487b7100000000000000000000000000000000000000000000000000000000600052602160045260246000fd5b02179055509050507ff784815e5d852061f9c35ee8ab3237cd56d85a35a73a43666e91287e021eb04a8686866040516114dc939291906122e1565b60405180910390a1600054925050509392505050565b60056020528060005260406000206000915090508060000160009054906101000a900473ffffffffffffffffffffffffffffffffffffffff16908060010160009054906101000a900473ffffffffffffffffffffffffffffffffffffffff16908060020154908060030160009054906101000a900460ff16905084565b6000600660009054906101000a900473ffffffffffffffffffffffffffffffffffffffff16905090565b600660009054906101000a900473ffffffffffffffffffffffffffffffffffffffff1673ffffffffffffffffffffffffffffffffffffffff163373ffffffffffffffffffffffffffffffffffffffff1614611629576040517f08c379a0000000000000000000000000000000000000000000000000000000008152600401611620906123a6565b60405180910390fd5b806000811161166d576040517f08c379a000000000000000000000000000000000000000000000000000000000815260040161166490612446565b60405180910390fd5b816002819055507f2d0e5fd464b43f2cc17eef20dcfc223b4f5719b867562cfac0eed8c9f9c5ab21826040516116a39190612501565b60405180910390a15050565b60008054905090565b6000600254905090565b6000600760009054906101000a900473ffffffffffffffffffffffffffffffffffffffff16905090565b600760009054906101000a900473ffffffffffffffffffffffffffffffffffffffff1673ffffffffffffffffffffffffffffffffffffffff163373ffffffffffffffffffffffffffffffffffffffff161461177c576040517f08c379a0000000000000000000000000000000000000000000000000000000008152600401611773906124c6565b60405180910390fd5b806000548111156117c2576040517f08c379a00000000000000000000000000000000000000000000000000000000081526004016117b9906123c6565b60405180910390fd5b81600060038111156117fd577f4e487b7100000000000000000000000000000000000000000000000000000000600052602160045260246000fd5b6005600083815260200190815260200160002060030160009054906101000a900460ff166003811115611859577f4e487b7100000000000000000000000000000000000000000000000000000000600052602160045260246000fd5b14611899576040517f08c379a000000000000000000000000000000000000000000000000000000000815260040161189090612386565b60405180910390fd5b6000600560008581526020019081526020016000209050600460009054906101000a900473ffffffffffffffffffffffffffffffffffffffff1673ffffffffffffffffffffffffffffffffffffffff1663b4e59fa38260000160009054906101000a900473ffffffffffffffffffffffffffffffffffffffff163084600201546040518463ffffffff1660e01b8152600401611937939291906122e1565b600060405180830381600087803b15801561195157600080fd5b505af1158015611965573d6000803e3d6000fd5b50505050600460009054906101000a900473ffffffffffffffffffffffffffffffffffffffff1673ffffffffffffffffffffffffffffffffffffffff1663403e2a63308360000160009054906101000a900473ffffffffffffffffffffffffffffffffffffffff163085600201546040518563ffffffff1660e01b81526004016119f2949392919061229c565b600060405180830381600087803b158015611a0c57600080fd5b505af1158015611a20573d6000803e3d6000fd5b5050505060018160030160006101000a81548160ff02191690836003811115611a72577f4e487b7100000000000000000000000000000000000000000000000000000000600052602160045260246000fd5b02179055507f7e9cb42033a175042cb8f196529b20b79e4279330a9b9be72e2b1f352528c8f88160000160009054906101000a900473ffffffffffffffffffffffffffffffffffffffff168260010160009054906101000a900473ffffffffffffffffffffffffffffffffffffffff168360020154604051611af6939291906122e1565b60405180910390a150505050565b600660009054906101000a900473ffffffffffffffffffffffffffffffffffffffff1673ffffffffffffffffffffffffffffffffffffffff163373ffffffffffffffffffffffffffffffffffffffff1614611b94576040517f08c379a0000000000000000000000000000000000000000000000000000000008152600401611b8b906123a6565b60405180910390fd5b600460009054906101000a900473ffffffffffffffffffffffffffffffffffffffff1673ffffffffffffffffffffffffffffffffffffffff1663d97d12dc30600660009054906101000a900473ffffffffffffffffffffffffffffffffffffffff16600460009054906101000a900473ffffffffffffffffffffffffffffffffffffffff1673ffffffffffffffffffffffffffffffffffffffff1663a3e36604306040518263ffffffff1660e01b8152600401611c519190612281565b60206040518083038186803b158015611c6957600080fd5b505afa158015611c7d573d6000803e3d6000fd5b505050506040513d601f19601f82011682018060405250810190611ca19190612028565b6040518463ffffffff1660e01b8152600401611cbf939291906122e1565b600060405180830381600087803b158015611cd957600080fd5b505af1158015611ced573d6000803e3d6000fd5b505050507faa0fd0dab0b527bc5a660240bf59ef3230f7a6821315eeff5e0b2c9d180255e6600660009054906101000a900473ffffffffffffffffffffffffffffffffffffffff16600460009054906101000a900473ffffffffffffffffffffffffffffffffffffffff1673ffffffffffffffffffffffffffffffffffffffff1663a3e36604306040518263ffffffff1660e01b8152600401611d909190612281565b60206040518083038186803b158015611da857600080fd5b505afa158015611dbc573d6000803e3d6000fd5b505050506040513d601f19601f82011682018060405250810190611de09190612028565b604051611dee92919061235d565b60405180910390a1565b6000600860009054906101000a900473ffffffffffffffffffffffffffffffffffffffff16905090565b600660009054906101000a900473ffffffffffffffffffffffffffffffffffffffff1673ffffffffffffffffffffffffffffffffffffffff163373ffffffffffffffffffffffffffffffffffffffff1614611eb2576040517f08c379a0000000000000000000000000000000000000000000000000000000008152600401611ea9906123a6565b60405180910390fd5b8060038190555050565b6040518060800160405280600073ffffffffffffffffffffffffffffffffffffffff168152602001600073ffffffffffffffffffffffffffffffffffffffff1681526020016000815260200160006003811115611f42577f4e487b7100000000000000000000000000000000000000000000000000000000600052602160045260246000fd5b81525090565b600081359050611f578161294a565b92915050565b600081359050611f6c81612961565b92915050565b600081519050611f8181612961565b92915050565b600060208284031215611f9957600080fd5b6000611fa784828501611f48565b91505092915050565b600080600060608486031215611fc557600080fd5b6000611fd386828701611f48565b9350506020611fe486828701611f48565b9250506040611ff586828701611f5d565b9150509250925092565b60006020828403121561201157600080fd5b600061201f84828501611f5d565b91505092915050565b60006020828403121561203a57600080fd5b600061204884828501611f72565b91505092915050565b61205a81612561565b82525050565b61206981612561565b82525050565b612078816125b0565b82525050565b612087816125b0565b82525050565b600061209a601d8361251c565b91506120a582612669565b602082019050919050565b60006120bd60218361251c565b91506120c882612692565b604082019050919050565b60006120e060168361251c565b91506120eb826126e1565b602082019050919050565b6000612103601d8361251c565b915061210e8261270a565b602082019050919050565b6000612126601e8361251c565b915061213182612733565b602082019050919050565b600061214960228361251c565b91506121548261275c565b604082019050919050565b600061216c60258361251c565b9150612177826127ab565b604082019050919050565b600061218f60218361251c565b915061219a826127fa565b604082019050919050565b60006121b2603f8361251c565b91506121bd82612849565b604082019050919050565b60006121d560258361251c565b91506121e082612898565b604082019050919050565b60006121f8602d8361251c565b9150612203826128e7565b604082019050919050565b6080820160008201516122246000850182612051565b5060208201516122376020850182612051565b50604082015161224a6040850182612263565b50606082015161225d606085018261206f565b50505050565b61226c816125a6565b82525050565b61227b816125a6565b82525050565b60006020820190506122966000830184612060565b92915050565b60006080820190506122b16000830187612060565b6122be6020830186612060565b6122cb6040830185612060565b6122d86060830184612272565b95945050505050565b60006060820190506122f66000830186612060565b6123036020830185612060565b6123106040830184612272565b949350505050565b600060808201905061232d6000830187612060565b61233a6020830186612060565b6123476040830185612272565b612354606083018461207e565b95945050505050565b60006040820190506123726000830185612060565b61237f6020830184612272565b9392505050565b6000602082019050818103600083015261239f8161208d565b9050919050565b600060208201905081810360008301526123bf816120b0565b9050919050565b600060208201905081810360008301526123df816120d3565b9050919050565b600060208201905081810360008301526123ff816120f6565b9050919050565b6000602082019050818103600083015261241f81612119565b9050919050565b6000602082019050818103600083015261243f8161213c565b9050919050565b6000602082019050818103600083015261245f8161215f565b9050919050565b6000602082019050818103600083015261247f81612182565b9050919050565b6000602082019050818103600083015261249f816121a5565b9050919050565b600060208201905081810360008301526124bf816121c8565b9050919050565b600060208201905081810360008301526124df816121eb565b9050919050565b60006080820190506124fb600083018461220e565b92915050565b60006020820190506125166000830184612272565b92915050565b600082825260208201905092915050565b6000612538826125a6565b9150612543836125a6565b9250828210156125565761255561260b565b5b828203905092915050565b600061256c82612586565b9050919050565b600081905061258182612936565b919050565b600073ffffffffffffffffffffffffffffffffffffffff82169050919050565b6000819050919050565b60006125bb82612573565b9050919050565b60006125cd826125a6565b91507fffffffffffffffffffffffffffffffffffffffffffffffffffffffffffffffff821415612600576125ff61260b565b5b600182019050919050565b7f4e487b7100000000000000000000000000000000000000000000000000000000600052601160045260246000fd5b7f4e487b7100000000000000000000000000000000000000000000000000000000600052602160045260246000fd5b7f5061796d656e742068617320616c7265616479206265656e206d616465000000600082015250565b7f4f6e6c79206f776e65722063616e2063616c6c20746869732066756e6374696f60008201527f6e00000000000000000000000000000000000000000000000000000000000000602082015250565b7f5061796d656e7420646f6573206e6f7420657869737400000000000000000000600082015250565b7f5061796d656e7420686173206e6f74206265656e206d61646520796574000000600082015250565b7f496e76616c69642052656e744469737075746544414f20616464726573730000600082015250565b7f506179657220646f6573206e6f74206861766520656e6f7567682062616c616e60008201527f6365000000000000000000000000000000000000000000000000000000000000602082015250565b7f436f6d6d697373696f6e20666565206d7573742062652067726561746572207460008201527f68616e2030000000000000000000000000000000000000000000000000000000602082015250565b7f496e76616c69642052656e74616c6d61726b657470616c63652061646472657360008201527f7300000000000000000000000000000000000000000000000000000000000000602082015250565b7f4f6e6c792052656e74616c4d61726b6574706c616365206f722052656e74446960008201527f737075746544414f2063616e2063616c6c20746869732066756e6374696f6e00602082015250565b7f50726f74656374696f6e20666565206d7573742062652067726561746572207460008201527f68616e2030000000000000000000000000000000000000000000000000000000602082015250565b7f4f6e6c792052656e74616c4d61726b6574706c6163652063616e2063616c6c2060008201527f746869732066756e6374696f6e00000000000000000000000000000000000000602082015250565b600481106129475761294661263a565b5b50565b61295381612561565b811461295e57600080fd5b50565b61296a816125a6565b811461297557600080fd5b5056fea26469706673582212209bef5813d395a94ea82cb8f4a518633965df1013547aa859553b21e0394e6cc764736f6c63430008010033",
  "immutableReferences": {},
  "source": "// SPDX-License-Identifier: MIT\r\npragma solidity ^0.8.0;\r\n\r\nimport \"./LeaseToken.sol\";\r\n\r\ncontract PaymentEscrow {\r\n    // ################################################### STRUCTURE & STATE VARIABLES ################################################### //\r\n    enum PaymentStatus {\r\n        PENDING, // Payment has been created but not yet made\r\n        PAID, // Payment has been made but not yet released\r\n        RELEASED, // Payment has been released\r\n        REFUNDED // Payment has been refunded\r\n    }\r\n\r\n    struct Payment {\r\n        address payer;\r\n        address payee;\r\n        uint256 amount;\r\n        PaymentStatus status;\r\n    }\r\n\r\n    // The number of payment transactions that have been made\r\n    uint256 private numOfPayments = 0;\r\n    // The number of tokens landlord must stake in the potential event of a dispute with tenant\r\n    uint256 private protectionFee;\r\n    // The commission fee (in tokens) that the platform charges for each transaction\r\n    uint256 private commissionFee;\r\n    // Tenant or landlord who wants to initiate a dispute must stake a reward (in tokens) to incentivize voters to vote in the dispute\r\n    uint256 private voterReward;\r\n\r\n    LeaseToken leaseTokenContract;\r\n\r\n    mapping(uint256 => Payment) public payments; // Mapping of payment ID to payment details\r\n\r\n    // The owner of the contract (PaymentEscrow), who can set the protection fee (for landlord) and commission fee (for platform)\r\n    address private owner;\r\n    // The address of the RentalMarketplace contract, which is the only contract that can call the release function\r\n    address private rentalMarketplaceAddress;\r\n    // The address of the RentDisputeDAO contract, which is the only contract that can call the refund function\r\n    address private rentDisputeDAOAddress;\r\n\r\n    constructor(\r\n        address _leaseTokenAddress,\r\n        uint256 _protectionFee,\r\n        uint256 _commissionFee,\r\n        uint256 _voterReward\r\n    ) {\r\n        leaseTokenContract = LeaseToken(_leaseTokenAddress);\r\n        protectionFee = _protectionFee;\r\n        commissionFee = _commissionFee;\r\n        voterReward = _voterReward;\r\n        owner = msg.sender;\r\n    }\r\n\r\n    // ################################################### EVENTS ################################################### //\r\n\r\n    event paymentCreated(address payer, address payee, uint256 amount);\r\n    event paymentPaid(address payer, address payee, uint256 amount);\r\n    event paymentReleased(address payer, address payee, uint256 amount);\r\n    event paymentRefunded(address payer, address payee, uint256 amount);\r\n    event protectionFeeSet(uint256 protectionFee);\r\n    event commissionFeeSet(uint256 commissionFee);\r\n    event tokenWithdrawn(address owner, uint256 amount);\r\n    event rentalMarketplaceAddressSet(address rentalMarketplaceAddress);\r\n    event rentDisputeDAOAddressSet(address rentDisputeDAOAddress);\r\n\r\n    // ################################################### MODIFIERS ################################################### //\r\n\r\n    // Modifier to check if the caller is the owner of the contract\r\n    modifier onlyOwner() {\r\n        require(msg.sender == owner, \"Only owner can call this function\");\r\n        _;\r\n    }\r\n\r\n    // Modifier to check if the caller is the RentalMarketplace contract\r\n    modifier onlyRentalMarketplace() {\r\n        require(\r\n            msg.sender == rentalMarketplaceAddress,\r\n            \"Only RentalMarketplace can call this function\"\r\n        );\r\n        _;\r\n    }\r\n\r\n    // Modifier to check if the caller is the RentDisputeDAO contract\r\n    modifier onlyRentDisputeDAO() {\r\n        require(\r\n            msg.sender == rentDisputeDAOAddress,\r\n            \"Only RentDisputeDAO can call this function\"\r\n        );\r\n        _;\r\n    }\r\n\r\n    // Modifier to check if the caller is the RentalMarketplace or RentDisputeDAO contract\r\n    modifier onlyRentalMarketplaceOrRentDisputeDAO() {\r\n        require(\r\n            msg.sender == rentalMarketplaceAddress ||\r\n                msg.sender == rentDisputeDAOAddress,\r\n            \"Only RentalMarketplace or RentDisputeDAO can call this function\"\r\n        );\r\n        _;\r\n    }\r\n\r\n    // Modifier to check if the payer has sufficient balance to make the payment\r\n    modifier checkSufficientBalance(address _payer, uint256 _amount) {\r\n        require(\r\n            leaseTokenContract.checkLeaseToken(_payer) >= _amount,\r\n            \"Payer does not have enough balance\"\r\n        );\r\n        _;\r\n    }\r\n\r\n    // Modifier to check if the payment exists\r\n    modifier PaymentExists(uint256 _paymentId) {\r\n        require(_paymentId <= numOfPayments, \"Payment does not exist\");\r\n        _;\r\n    }\r\n\r\n    // Modifier to check if the payment is pending\r\n    modifier PaymentPending(uint256 _paymentId) {\r\n        require(\r\n            payments[_paymentId].status == PaymentStatus.PENDING,\r\n            \"Payment has already been made\"\r\n        );\r\n        _;\r\n    }\r\n\r\n    // Modifier to check if the payment has been made\r\n    modifier PaymentPaid(uint256 _paymentId) {\r\n        require(\r\n            payments[_paymentId].status == PaymentStatus.PAID,\r\n            \"Payment has not been made yet\"\r\n        );\r\n        _;\r\n    }\r\n\r\n    // Modifier to check if the payment has been released\r\n    modifier PaymentReleased(uint256 _paymentId) {\r\n        require(\r\n            payments[_paymentId].status == PaymentStatus.RELEASED,\r\n            \"Payment has not been released yet\"\r\n        );\r\n        _;\r\n    }\r\n\r\n    // Modifier to check if the payment has been refunded\r\n    modifier PaymentRefunded(uint256 _paymentId) {\r\n        require(\r\n            payments[_paymentId].status == PaymentStatus.REFUNDED,\r\n            \"Payment has not been refunded yet\"\r\n        );\r\n        _;\r\n    }\r\n\r\n    // Modifier to check if the protection fee is valid\r\n    modifier invalidProtectionFee(uint256 _protectionFee) {\r\n        require(_protectionFee > 0, \"Protection fee must be greater than 0\");\r\n        _;\r\n    }\r\n\r\n    // Modifier to check if the commission fee is valid\r\n    modifier invalidCommissionFee(uint256 _commissionFee) {\r\n        require(_commissionFee > 0, \"Commission fee must be greater than 0\");\r\n        _;\r\n    }\r\n\r\n    // Modifier to check if the RentalMarketplace address is valid\r\n    modifier invalidRentalMarketplaceAddress(\r\n        address _rentalMarketplaceAddress\r\n    ) {\r\n        require(\r\n            _rentalMarketplaceAddress != address(0),\r\n            \"Invalid Rentalmarketpalce address\"\r\n        );\r\n        _;\r\n    }\r\n\r\n    // Modifier to check if the RentDisputeDAO address is valid\r\n    modifier invalidRentDisputeDAOAddress(address _rentDisputeDAOAddress) {\r\n        require(\r\n            _rentDisputeDAOAddress != address(0),\r\n            \"Invalid RentDisputeDAO address\"\r\n        );\r\n        _;\r\n    }\r\n\r\n    // ################################################### FUNCTIONS ################################################### //\r\n\r\n    // Function to create a payment transaction between the payer and payee\r\n    function createPayment(\r\n        address _payer,\r\n        address _payee,\r\n        uint256 _amount\r\n    )\r\n        public\r\n        onlyRentalMarketplaceOrRentDisputeDAO\r\n        checkSufficientBalance(_payer, _amount)\r\n        returns (uint256)\r\n    {\r\n        numOfPayments++;\r\n        payments[numOfPayments] = Payment(\r\n            _payer,\r\n            _payee,\r\n            _amount,\r\n            PaymentStatus.PENDING // Payment is pending until it is made\r\n        );\r\n      \r\n        emit paymentCreated(_payer, _payee, _amount);\r\n        return numOfPayments; // Return the payment ID (index starts from 1 as 0 is used for non-existent payments)\r\n    }\r\n\r\n    // Function to transfer the payment amount from the payer to the PaymentEscrow\r\n    function pay(\r\n        uint256 _paymentId\r\n    )\r\n        public\r\n        onlyRentalMarketplace\r\n        PaymentExists(_paymentId)\r\n        PaymentPending(_paymentId)\r\n    {\r\n        Payment storage payment = payments[_paymentId];\r\n\r\n        // Payer approves PaymentEscrow to transfer the payment amount to the payee\r\n        leaseTokenContract.approveLeaseToken(payment.payer, address(this), payment.amount);\r\n        // Payer transfers the payment amount to PaymentEscrow\r\n        leaseTokenContract.transferLeaseTokenFrom(\r\n            address(this),\r\n            payment.payer,\r\n            address(this),\r\n            payment.amount\r\n        );\r\n        payment.status = PaymentStatus.PAID; // Payment has been made\r\n        emit paymentPaid(payment.payer, payment.payee, payment.amount);\r\n    }\r\n\r\n    // Function to release the payment amount from the PaymentEscrow to the Payee\r\n    function release(\r\n        uint256 _paymentId\r\n    )\r\n        public\r\n        onlyRentalMarketplace\r\n        PaymentExists(_paymentId)\r\n        PaymentPaid(_paymentId)\r\n    {\r\n        Payment storage payment = payments[_paymentId];\r\n\r\n        // PaymentEscrow transfers the payment amount to the payee (minus the commission fee), commission fee is transferred to the platform\r\n        leaseTokenContract.transferLeaseToken(\r\n            address(this),\r\n            payment.payee,\r\n            payment.amount - commissionFee\r\n        );\r\n        payment.status = PaymentStatus.RELEASED;\r\n        emit paymentReleased(payment.payer, payment.payee, payment.amount);\r\n    }\r\n\r\n    // Function to refund the payment amount from the PaymentEscrow to the Payer (after PaymentEscrow has received the payment amount from the Payer)\r\n    function refund(\r\n        uint256 _paymentId\r\n    )\r\n        public\r\n        onlyRentalMarketplaceOrRentDisputeDAO()\r\n        PaymentExists(_paymentId)\r\n        PaymentPaid(_paymentId)\r\n    {\r\n        Payment storage payment = payments[_paymentId];\r\n        // PaymentEscrow transfers the payment amount back to the Payer\r\n        leaseTokenContract.transferLeaseToken(\r\n            address(this),\r\n            payment.payer, // Refund the payment amount to the Payer\r\n            payment.amount\r\n        );\r\n        payment.status = PaymentStatus.REFUNDED;\r\n        emit paymentRefunded(payment.payer, payment.payee, payment.amount);\r\n    }\r\n\r\n\r\n    // Function to withdraw the tokens to the owner of the contract\r\n    function withdrawToken() public onlyOwner {\r\n        leaseTokenContract.transferLeaseToken(\r\n            address(this),\r\n            owner,\r\n            leaseTokenContract.checkLeaseToken((address(this)))\r\n        );\r\n        emit tokenWithdrawn(\r\n            owner,\r\n            leaseTokenContract.checkLeaseToken((address(this)))\r\n        );\r\n    }\r\n\r\n    // ################################################### SETTER METHODS ################################################### //\r\n\r\n    // Function to set the protection fee\r\n    function setProtectionFee(\r\n        uint256 _protectionFee\r\n    ) public onlyOwner invalidProtectionFee(_protectionFee) {\r\n        protectionFee = _protectionFee;\r\n        emit protectionFeeSet(_protectionFee);\r\n    }\r\n    // Function to set the commission fee\r\n    function setCommissionFee(\r\n        uint256 _commissionFee\r\n    ) public onlyOwner invalidCommissionFee(_commissionFee) {\r\n        commissionFee = _commissionFee;\r\n        emit commissionFeeSet(_commissionFee);\r\n    }\r\n\r\n    // Function to set the voter reward\r\n    function setVoterReward(\r\n        uint256 _voterReward\r\n    ) public onlyOwner {\r\n        voterReward = _voterReward;\r\n    }\r\n\r\n    // Function to set the RentalMarketplace address (Access Control)\r\n    function setRentalMarketplaceAddress(\r\n        address _rentalMarketplaceAddress\r\n    )\r\n        public\r\n        onlyOwner\r\n        invalidRentalMarketplaceAddress(_rentalMarketplaceAddress)\r\n    {\r\n        rentalMarketplaceAddress = _rentalMarketplaceAddress;\r\n        emit rentalMarketplaceAddressSet(_rentalMarketplaceAddress);\r\n    }\r\n\r\n    // Function to set the RentDisputeDAO address (Access Control)\r\n    function setRentDisputeDAOAddress(\r\n        address _rentDisputeDAOAddress\r\n    ) public onlyOwner invalidRentDisputeDAOAddress(_rentDisputeDAOAddress) {\r\n        rentDisputeDAOAddress = _rentDisputeDAOAddress;\r\n        emit rentDisputeDAOAddressSet(_rentDisputeDAOAddress);\r\n    }\r\n\r\n    // ################################################### GETTER METHODS ################################################### //\r\n\r\n    // Function to get the protection fee\r\n    function getProtectionFee() public view returns (uint256) {\r\n        return protectionFee;\r\n    }\r\n\r\n    // Function to get the commission fee\r\n    function getCommissionFee() public view returns (uint256) {\r\n        return commissionFee;\r\n    }\r\n\r\n    // Function to get the voter reward\r\n    function getVoterReward() public view returns (uint256) {\r\n        return voterReward;\r\n    }\r\n\r\n    // Function to get the payment details\r\n    function getPayment(\r\n        uint256 _paymentId\r\n    ) public view returns (Payment memory) {\r\n        return payments[_paymentId];\r\n    }\r\n\r\n    // Function to get the number of payments\r\n    function getNumOfPayments() public view returns (uint256) {\r\n        return numOfPayments;\r\n    }\r\n\r\n    // Function to get the balance of the contract\r\n    function getBalance() public view returns (uint256) {\r\n        return leaseTokenContract.checkLeaseToken(address(this));\r\n    }\r\n\r\n    // Function to get the owner of the contract\r\n    function getOwner() public view returns (address) {\r\n        return owner;\r\n    }\r\n\r\n    // Function to get the contract address\r\n    function getContractAddress() public view returns (address) {\r\n        return address(this);\r\n    }\r\n\r\n    // Function to get the RentalMarketplace address\r\n    function getRentalMarketplaceAddress() public view returns (address) {\r\n        return rentalMarketplaceAddress;\r\n    }\r\n\r\n    // Function to get the RentDisputeDAO address\r\n    function getRentDisputeDAOAddress() public view returns (address) {\r\n        return rentDisputeDAOAddress;\r\n    }\r\n}\r\n",
  "sourcePath": "C:\\Users\\Bransome Tan Yi Hao\\OneDrive - National University of Singapore\\Desktop\\IS4302\\is4302-project\\contracts\\PaymentEscrow.sol",
  "compiler": {
    "name": "solc",
    "version": "0.8.1+commit.df193b15.Emscripten.clang"
  },
  "schemaVersion": "3.4.16",
  "updatedAt": "2024-04-10T12:37:59.194Z",
  "devdoc": {
    "kind": "dev",
    "methods": {},
    "version": 1
  },
  "userdoc": {
    "kind": "user",
    "methods": {},
    "version": 1
  }
}