{
  "contractName": "RentalProperty",
  "abi": [
    {
      "anonymous": false,
      "inputs": [
        {
          "indexed": false,
          "internalType": "uint256",
          "name": "rentalPropertyId",
          "type": "uint256"
        },
        {
          "indexed": false,
          "internalType": "string",
          "name": "location",
          "type": "string"
        },
        {
          "indexed": false,
          "internalType": "string",
          "name": "postalCode",
          "type": "string"
        },
        {
          "indexed": false,
          "internalType": "string",
          "name": "unitNumber",
          "type": "string"
        },
        {
          "indexed": false,
          "internalType": "enum RentalProperty.PropertyType",
          "name": "propertyType",
          "type": "uint8"
        },
        {
          "indexed": false,
          "internalType": "string",
          "name": "description",
          "type": "string"
        },
        {
          "indexed": false,
          "internalType": "uint256",
          "name": "numOfTenants",
          "type": "uint256"
        },
        {
          "indexed": false,
          "internalType": "uint256",
          "name": "rentalPrice",
          "type": "uint256"
        },
        {
          "indexed": false,
          "internalType": "uint256",
          "name": "leaseDuration",
          "type": "uint256"
        },
        {
          "indexed": false,
          "internalType": "address",
          "name": "landlord",
          "type": "address"
        }
      ],
      "name": "RentalPropertyCreated",
      "type": "event"
    },
    {
      "anonymous": false,
      "inputs": [
        {
          "indexed": false,
          "internalType": "uint256",
          "name": "rentalPropertyId",
          "type": "uint256"
        }
      ],
      "name": "RentalPropertyDeleted",
      "type": "event"
    },
    {
      "anonymous": false,
      "inputs": [
        {
          "indexed": false,
          "internalType": "uint256",
          "name": "rentalPropertyId",
          "type": "uint256"
        },
        {
          "indexed": false,
          "internalType": "string",
          "name": "newLocation",
          "type": "string"
        },
        {
          "indexed": false,
          "internalType": "string",
          "name": "newPostalCode",
          "type": "string"
        },
        {
          "indexed": false,
          "internalType": "string",
          "name": "newUnitNumber",
          "type": "string"
        },
        {
          "indexed": false,
          "internalType": "enum RentalProperty.PropertyType",
          "name": "newPropertyType",
          "type": "uint8"
        },
        {
          "indexed": false,
          "internalType": "string",
          "name": "newDescription",
          "type": "string"
        },
        {
          "indexed": false,
          "internalType": "uint256",
          "name": "newNumOfTenants",
          "type": "uint256"
        },
        {
          "indexed": false,
          "internalType": "uint256",
          "name": "newRentalPrice",
          "type": "uint256"
        },
        {
          "indexed": false,
          "internalType": "uint256",
          "name": "newLeaseDuration",
          "type": "uint256"
        }
      ],
      "name": "RentalPropertyUpdateDetails",
      "type": "event"
    },
    {
      "inputs": [
        {
          "internalType": "string",
          "name": "_location",
          "type": "string"
        },
        {
          "internalType": "string",
          "name": "_postalCode",
          "type": "string"
        },
        {
          "internalType": "string",
          "name": "_unitNumber",
          "type": "string"
        },
        {
          "internalType": "enum RentalProperty.PropertyType",
          "name": "_propertyType",
          "type": "uint8"
        },
        {
          "internalType": "string",
          "name": "_description",
          "type": "string"
        },
        {
          "internalType": "uint256",
          "name": "_numOfTenants",
          "type": "uint256"
        },
        {
          "internalType": "uint256",
          "name": "_rentalPrice",
          "type": "uint256"
        },
        {
          "internalType": "uint256",
          "name": "_leaseDuration",
          "type": "uint256"
        }
      ],
      "name": "addRentalProperty",
      "outputs": [
        {
          "internalType": "uint256",
          "name": "",
          "type": "uint256"
        }
      ],
      "stateMutability": "nonpayable",
      "type": "function"
    },
    {
      "inputs": [
        {
          "internalType": "uint256",
          "name": "rentalPropertyId",
          "type": "uint256"
        }
      ],
      "name": "getRentalProperty",
      "outputs": [
        {
          "components": [
            {
              "internalType": "uint256",
              "name": "rentalPropertyId",
              "type": "uint256"
            },
            {
              "internalType": "string",
              "name": "location",
              "type": "string"
            },
            {
              "internalType": "string",
              "name": "postalCode",
              "type": "string"
            },
            {
              "internalType": "string",
              "name": "unitNumber",
              "type": "string"
            },
            {
              "internalType": "enum RentalProperty.PropertyType",
              "name": "propertyType",
              "type": "uint8"
            },
            {
              "internalType": "string",
              "name": "description",
              "type": "string"
            },
            {
              "internalType": "uint256",
              "name": "numOfTenants",
              "type": "uint256"
            },
            {
              "internalType": "uint256",
              "name": "rentalPrice",
              "type": "uint256"
            },
            {
              "internalType": "uint256",
              "name": "leaseDuration",
              "type": "uint256"
            },
            {
              "internalType": "address",
              "name": "landlord",
              "type": "address"
            },
            {
              "internalType": "bool",
              "name": "updateStatus",
              "type": "bool"
            },
            {
              "internalType": "bool",
              "name": "isListed",
              "type": "bool"
            },
            {
              "internalType": "uint256",
              "name": "paymentId",
              "type": "uint256"
            }
          ],
          "internalType": "struct RentalProperty.rentalProperty",
          "name": "",
          "type": "tuple"
        }
      ],
      "stateMutability": "view",
      "type": "function",
      "constant": true
    },
    {
      "inputs": [
        {
          "internalType": "uint256",
          "name": "rentalPropertyId",
          "type": "uint256"
        }
      ],
      "name": "getLocation",
      "outputs": [
        {
          "internalType": "string",
          "name": "",
          "type": "string"
        }
      ],
      "stateMutability": "view",
      "type": "function",
      "constant": true
    },
    {
      "inputs": [
        {
          "internalType": "uint256",
          "name": "rentalPropertyId",
          "type": "uint256"
        }
      ],
      "name": "getPostalCode",
      "outputs": [
        {
          "internalType": "string",
          "name": "",
          "type": "string"
        }
      ],
      "stateMutability": "view",
      "type": "function",
      "constant": true
    },
    {
      "inputs": [
        {
          "internalType": "uint256",
          "name": "rentalPropertyId",
          "type": "uint256"
        }
      ],
      "name": "getUnitNumber",
      "outputs": [
        {
          "internalType": "string",
          "name": "",
          "type": "string"
        }
      ],
      "stateMutability": "view",
      "type": "function",
      "constant": true
    },
    {
      "inputs": [
        {
          "internalType": "uint256",
          "name": "rentalPropertyId",
          "type": "uint256"
        }
      ],
      "name": "getPropertyType",
      "outputs": [
        {
          "internalType": "enum RentalProperty.PropertyType",
          "name": "",
          "type": "uint8"
        }
      ],
      "stateMutability": "view",
      "type": "function",
      "constant": true
    },
    {
      "inputs": [
        {
          "internalType": "uint256",
          "name": "rentalPropertyId",
          "type": "uint256"
        }
      ],
      "name": "getDescription",
      "outputs": [
        {
          "internalType": "string",
          "name": "",
          "type": "string"
        }
      ],
      "stateMutability": "view",
      "type": "function",
      "constant": true
    },
    {
      "inputs": [
        {
          "internalType": "uint256",
          "name": "rentalPropertyId",
          "type": "uint256"
        }
      ],
      "name": "getNumOfTenants",
      "outputs": [
        {
          "internalType": "uint256",
          "name": "",
          "type": "uint256"
        }
      ],
      "stateMutability": "view",
      "type": "function",
      "constant": true
    },
    {
      "inputs": [
        {
          "internalType": "uint256",
          "name": "rentalPropertyId",
          "type": "uint256"
        }
      ],
      "name": "getRentalPrice",
      "outputs": [
        {
          "internalType": "uint256",
          "name": "",
          "type": "uint256"
        }
      ],
      "stateMutability": "view",
      "type": "function",
      "constant": true
    },
    {
      "inputs": [
        {
          "internalType": "uint256",
          "name": "rentalPropertyId",
          "type": "uint256"
        }
      ],
      "name": "getLeaseDuration",
      "outputs": [
        {
          "internalType": "uint256",
          "name": "",
          "type": "uint256"
        }
      ],
      "stateMutability": "view",
      "type": "function",
      "constant": true
    },
    {
      "inputs": [
        {
          "internalType": "uint256",
          "name": "rentalPropertyId",
          "type": "uint256"
        }
      ],
      "name": "getLandlord",
      "outputs": [
        {
          "internalType": "address",
          "name": "",
          "type": "address"
        }
      ],
      "stateMutability": "view",
      "type": "function",
      "constant": true
    },
    {
      "inputs": [
        {
          "internalType": "uint256",
          "name": "rentalPropertyId",
          "type": "uint256"
        }
      ],
      "name": "getUpdateStatus",
      "outputs": [
        {
          "internalType": "bool",
          "name": "",
          "type": "bool"
        }
      ],
      "stateMutability": "view",
      "type": "function",
      "constant": true
    },
    {
      "inputs": [
        {
          "internalType": "uint256",
          "name": "rentalPropertyId",
          "type": "uint256"
        }
      ],
      "name": "getListedStatus",
      "outputs": [
        {
          "internalType": "bool",
          "name": "",
          "type": "bool"
        }
      ],
      "stateMutability": "view",
      "type": "function",
      "constant": true
    },
    {
      "inputs": [],
      "name": "getNumRentalProperty",
      "outputs": [
        {
          "internalType": "uint256",
          "name": "",
          "type": "uint256"
        }
      ],
      "stateMutability": "view",
      "type": "function",
      "constant": true
    },
    {
      "inputs": [],
      "name": "getNumListedRentalProperty",
      "outputs": [
        {
          "internalType": "uint256",
          "name": "",
          "type": "uint256"
        }
      ],
      "stateMutability": "view",
      "type": "function",
      "constant": true
    },
    {
      "inputs": [],
      "name": "getNumUnlistedRentalProperty",
      "outputs": [
        {
          "internalType": "uint256",
          "name": "",
          "type": "uint256"
        }
      ],
      "stateMutability": "view",
      "type": "function",
      "constant": true
    },
    {
      "inputs": [
        {
          "internalType": "address",
          "name": "landlord",
          "type": "address"
        }
      ],
      "name": "getNumLandlordRentalProperties",
      "outputs": [
        {
          "internalType": "uint256",
          "name": "",
          "type": "uint256"
        }
      ],
      "stateMutability": "view",
      "type": "function",
      "constant": true
    },
    {
      "inputs": [
        {
          "internalType": "address",
          "name": "landlord",
          "type": "address"
        }
      ],
      "name": "getNumLandlordListedRentalProperties",
      "outputs": [
        {
          "internalType": "uint256",
          "name": "",
          "type": "uint256"
        }
      ],
      "stateMutability": "view",
      "type": "function",
      "constant": true
    },
    {
      "inputs": [
        {
          "internalType": "address",
          "name": "landlord",
          "type": "address"
        }
      ],
      "name": "getNumLandlordUnlistedRentalProperties",
      "outputs": [
        {
          "internalType": "uint256",
          "name": "",
          "type": "uint256"
        }
      ],
      "stateMutability": "view",
      "type": "function",
      "constant": true
    },
    {
      "inputs": [],
      "name": "getAllRentalProperties",
      "outputs": [
        {
          "components": [
            {
              "internalType": "uint256",
              "name": "rentalPropertyId",
              "type": "uint256"
            },
            {
              "internalType": "string",
              "name": "location",
              "type": "string"
            },
            {
              "internalType": "string",
              "name": "postalCode",
              "type": "string"
            },
            {
              "internalType": "string",
              "name": "unitNumber",
              "type": "string"
            },
            {
              "internalType": "enum RentalProperty.PropertyType",
              "name": "propertyType",
              "type": "uint8"
            },
            {
              "internalType": "string",
              "name": "description",
              "type": "string"
            },
            {
              "internalType": "uint256",
              "name": "numOfTenants",
              "type": "uint256"
            },
            {
              "internalType": "uint256",
              "name": "rentalPrice",
              "type": "uint256"
            },
            {
              "internalType": "uint256",
              "name": "leaseDuration",
              "type": "uint256"
            },
            {
              "internalType": "address",
              "name": "landlord",
              "type": "address"
            },
            {
              "internalType": "bool",
              "name": "updateStatus",
              "type": "bool"
            },
            {
              "internalType": "bool",
              "name": "isListed",
              "type": "bool"
            },
            {
              "internalType": "uint256",
              "name": "paymentId",
              "type": "uint256"
            }
          ],
          "internalType": "struct RentalProperty.rentalProperty[]",
          "name": "",
          "type": "tuple[]"
        }
      ],
      "stateMutability": "view",
      "type": "function",
      "constant": true
    },
    {
      "inputs": [],
      "name": "getAllListedRentalProperties",
      "outputs": [
        {
          "components": [
            {
              "internalType": "uint256",
              "name": "rentalPropertyId",
              "type": "uint256"
            },
            {
              "internalType": "string",
              "name": "location",
              "type": "string"
            },
            {
              "internalType": "string",
              "name": "postalCode",
              "type": "string"
            },
            {
              "internalType": "string",
              "name": "unitNumber",
              "type": "string"
            },
            {
              "internalType": "enum RentalProperty.PropertyType",
              "name": "propertyType",
              "type": "uint8"
            },
            {
              "internalType": "string",
              "name": "description",
              "type": "string"
            },
            {
              "internalType": "uint256",
              "name": "numOfTenants",
              "type": "uint256"
            },
            {
              "internalType": "uint256",
              "name": "rentalPrice",
              "type": "uint256"
            },
            {
              "internalType": "uint256",
              "name": "leaseDuration",
              "type": "uint256"
            },
            {
              "internalType": "address",
              "name": "landlord",
              "type": "address"
            },
            {
              "internalType": "bool",
              "name": "updateStatus",
              "type": "bool"
            },
            {
              "internalType": "bool",
              "name": "isListed",
              "type": "bool"
            },
            {
              "internalType": "uint256",
              "name": "paymentId",
              "type": "uint256"
            }
          ],
          "internalType": "struct RentalProperty.rentalProperty[]",
          "name": "",
          "type": "tuple[]"
        }
      ],
      "stateMutability": "view",
      "type": "function",
      "constant": true
    },
    {
      "inputs": [],
      "name": "getAllUnlistedRentalProperties",
      "outputs": [
        {
          "components": [
            {
              "internalType": "uint256",
              "name": "rentalPropertyId",
              "type": "uint256"
            },
            {
              "internalType": "string",
              "name": "location",
              "type": "string"
            },
            {
              "internalType": "string",
              "name": "postalCode",
              "type": "string"
            },
            {
              "internalType": "string",
              "name": "unitNumber",
              "type": "string"
            },
            {
              "internalType": "enum RentalProperty.PropertyType",
              "name": "propertyType",
              "type": "uint8"
            },
            {
              "internalType": "string",
              "name": "description",
              "type": "string"
            },
            {
              "internalType": "uint256",
              "name": "numOfTenants",
              "type": "uint256"
            },
            {
              "internalType": "uint256",
              "name": "rentalPrice",
              "type": "uint256"
            },
            {
              "internalType": "uint256",
              "name": "leaseDuration",
              "type": "uint256"
            },
            {
              "internalType": "address",
              "name": "landlord",
              "type": "address"
            },
            {
              "internalType": "bool",
              "name": "updateStatus",
              "type": "bool"
            },
            {
              "internalType": "bool",
              "name": "isListed",
              "type": "bool"
            },
            {
              "internalType": "uint256",
              "name": "paymentId",
              "type": "uint256"
            }
          ],
          "internalType": "struct RentalProperty.rentalProperty[]",
          "name": "",
          "type": "tuple[]"
        }
      ],
      "stateMutability": "view",
      "type": "function",
      "constant": true
    },
    {
      "inputs": [
        {
          "internalType": "address",
          "name": "landlord",
          "type": "address"
        }
      ],
      "name": "getLandlordRentalProperties",
      "outputs": [
        {
          "components": [
            {
              "internalType": "uint256",
              "name": "rentalPropertyId",
              "type": "uint256"
            },
            {
              "internalType": "string",
              "name": "location",
              "type": "string"
            },
            {
              "internalType": "string",
              "name": "postalCode",
              "type": "string"
            },
            {
              "internalType": "string",
              "name": "unitNumber",
              "type": "string"
            },
            {
              "internalType": "enum RentalProperty.PropertyType",
              "name": "propertyType",
              "type": "uint8"
            },
            {
              "internalType": "string",
              "name": "description",
              "type": "string"
            },
            {
              "internalType": "uint256",
              "name": "numOfTenants",
              "type": "uint256"
            },
            {
              "internalType": "uint256",
              "name": "rentalPrice",
              "type": "uint256"
            },
            {
              "internalType": "uint256",
              "name": "leaseDuration",
              "type": "uint256"
            },
            {
              "internalType": "address",
              "name": "landlord",
              "type": "address"
            },
            {
              "internalType": "bool",
              "name": "updateStatus",
              "type": "bool"
            },
            {
              "internalType": "bool",
              "name": "isListed",
              "type": "bool"
            },
            {
              "internalType": "uint256",
              "name": "paymentId",
              "type": "uint256"
            }
          ],
          "internalType": "struct RentalProperty.rentalProperty[]",
          "name": "",
          "type": "tuple[]"
        }
      ],
      "stateMutability": "view",
      "type": "function",
      "constant": true
    },
    {
      "inputs": [
        {
          "internalType": "address",
          "name": "landlord",
          "type": "address"
        }
      ],
      "name": "getLandlordListedRentalProperties",
      "outputs": [
        {
          "components": [
            {
              "internalType": "uint256",
              "name": "rentalPropertyId",
              "type": "uint256"
            },
            {
              "internalType": "string",
              "name": "location",
              "type": "string"
            },
            {
              "internalType": "string",
              "name": "postalCode",
              "type": "string"
            },
            {
              "internalType": "string",
              "name": "unitNumber",
              "type": "string"
            },
            {
              "internalType": "enum RentalProperty.PropertyType",
              "name": "propertyType",
              "type": "uint8"
            },
            {
              "internalType": "string",
              "name": "description",
              "type": "string"
            },
            {
              "internalType": "uint256",
              "name": "numOfTenants",
              "type": "uint256"
            },
            {
              "internalType": "uint256",
              "name": "rentalPrice",
              "type": "uint256"
            },
            {
              "internalType": "uint256",
              "name": "leaseDuration",
              "type": "uint256"
            },
            {
              "internalType": "address",
              "name": "landlord",
              "type": "address"
            },
            {
              "internalType": "bool",
              "name": "updateStatus",
              "type": "bool"
            },
            {
              "internalType": "bool",
              "name": "isListed",
              "type": "bool"
            },
            {
              "internalType": "uint256",
              "name": "paymentId",
              "type": "uint256"
            }
          ],
          "internalType": "struct RentalProperty.rentalProperty[]",
          "name": "",
          "type": "tuple[]"
        }
      ],
      "stateMutability": "view",
      "type": "function",
      "constant": true
    },
    {
      "inputs": [
        {
          "internalType": "address",
          "name": "landlord",
          "type": "address"
        }
      ],
      "name": "getLandlordUnlistedRentalProperties",
      "outputs": [
        {
          "components": [
            {
              "internalType": "uint256",
              "name": "rentalPropertyId",
              "type": "uint256"
            },
            {
              "internalType": "string",
              "name": "location",
              "type": "string"
            },
            {
              "internalType": "string",
              "name": "postalCode",
              "type": "string"
            },
            {
              "internalType": "string",
              "name": "unitNumber",
              "type": "string"
            },
            {
              "internalType": "enum RentalProperty.PropertyType",
              "name": "propertyType",
              "type": "uint8"
            },
            {
              "internalType": "string",
              "name": "description",
              "type": "string"
            },
            {
              "internalType": "uint256",
              "name": "numOfTenants",
              "type": "uint256"
            },
            {
              "internalType": "uint256",
              "name": "rentalPrice",
              "type": "uint256"
            },
            {
              "internalType": "uint256",
              "name": "leaseDuration",
              "type": "uint256"
            },
            {
              "internalType": "address",
              "name": "landlord",
              "type": "address"
            },
            {
              "internalType": "bool",
              "name": "updateStatus",
              "type": "bool"
            },
            {
              "internalType": "bool",
              "name": "isListed",
              "type": "bool"
            },
            {
              "internalType": "uint256",
              "name": "paymentId",
              "type": "uint256"
            }
          ],
          "internalType": "struct RentalProperty.rentalProperty[]",
          "name": "",
          "type": "tuple[]"
        }
      ],
      "stateMutability": "view",
      "type": "function",
      "constant": true
    },
    {
      "inputs": [
        {
          "internalType": "uint256",
          "name": "rentalPropertyId",
          "type": "uint256"
        }
      ],
      "name": "getPaymentId",
      "outputs": [
        {
          "internalType": "uint256",
          "name": "",
          "type": "uint256"
        }
      ],
      "stateMutability": "view",
      "type": "function",
      "constant": true
    },
    {
      "inputs": [
        {
          "internalType": "uint256",
          "name": "rentalPropertyId",
          "type": "uint256"
        },
        {
          "internalType": "string",
          "name": "newLocation",
          "type": "string"
        },
        {
          "internalType": "string",
          "name": "newPostalCode",
          "type": "string"
        },
        {
          "internalType": "string",
          "name": "newUnitNumber",
          "type": "string"
        },
        {
          "internalType": "enum RentalProperty.PropertyType",
          "name": "newPropertyType",
          "type": "uint8"
        },
        {
          "internalType": "string",
          "name": "newDescription",
          "type": "string"
        },
        {
          "internalType": "uint256",
          "name": "newNumOfTenants",
          "type": "uint256"
        },
        {
          "internalType": "uint256",
          "name": "newRentalPrice",
          "type": "uint256"
        },
        {
          "internalType": "uint256",
          "name": "newLeaseDuration",
          "type": "uint256"
        }
      ],
      "name": "updateRentalProperty",
      "outputs": [],
      "stateMutability": "nonpayable",
      "type": "function"
    },
    {
      "inputs": [
        {
          "internalType": "uint256",
          "name": "rentalPropertyId",
          "type": "uint256"
        },
        {
          "internalType": "bool",
          "name": "newUpdateStatus",
          "type": "bool"
        }
      ],
      "name": "setUpdateStatus",
      "outputs": [],
      "stateMutability": "nonpayable",
      "type": "function"
    },
    {
      "inputs": [
        {
          "internalType": "uint256",
          "name": "rentalPropertyId",
          "type": "uint256"
        },
        {
          "internalType": "bool",
          "name": "newListedStatus",
          "type": "bool"
        }
      ],
      "name": "setListedStatus",
      "outputs": [],
      "stateMutability": "nonpayable",
      "type": "function"
    },
    {
      "inputs": [],
      "name": "incrementListedRentalProperty",
      "outputs": [],
      "stateMutability": "nonpayable",
      "type": "function"
    },
    {
      "inputs": [],
      "name": "decrementListedRentalProperty",
      "outputs": [],
      "stateMutability": "nonpayable",
      "type": "function"
    },
    {
      "inputs": [
        {
          "internalType": "uint256",
          "name": "rentalPropertyId",
          "type": "uint256"
        },
        {
          "internalType": "uint256",
          "name": "newPaymentId",
          "type": "uint256"
        }
      ],
      "name": "setPaymentId",
      "outputs": [],
      "stateMutability": "nonpayable",
      "type": "function"
    },
    {
      "inputs": [
        {
          "internalType": "uint256",
          "name": "rentalPropertyId",
          "type": "uint256"
        }
      ],
      "name": "deleteRentalProperty",
      "outputs": [],
      "stateMutability": "nonpayable",
      "type": "function"
    }
  ],
  "bytecode": "0x608060405260008055600060015534801561001957600080fd5b50615005806100296000396000f3fe608060405234801561001057600080fd5b50600436106101fb5760003560e01c80638fbc55f41161011a578063b6329954116100ad578063bf7225be1161007c578063bf7225be1461064a578063c3b3f0d11461067a578063e1ba0b8014610696578063e924e64a146106b4578063fd003e4a146106e4576101fb565b8063b6329954146105c0578063b66b5a42146105de578063b69f45b3146105fc578063b7e380391461061a576101fb565b8063a757e926116100e9578063a757e92614610524578063acd7c1d314610542578063aee7813114610560578063b23392ec14610590576101fb565b80638fbc55f41461047857806391d0c570146104a85780639fa6bd07146104c4578063a46eadb5146104f4576101fb565b8063502fb9fd116101925780637735e668116101615780637735e668146103b85780637f7b1393146103e85780638585434b14610418578063898dc44914610448576101fb565b8063502fb9fd1461030c5780635bc396271461033c5780635f23d859146103585780636712f55f14610388576101fb565b80631e820d03116101ce5780631e820d0314610286578063384f38a1146102b65780634925ec55146102c05780634ca18df6146102f0576101fb565b80630d10702c14610200578063118e3ea81461023057806317980888146102605780631b3924e81461027c575b600080fd5b61021a60048036038101906102159190614115565b610714565b60405161022791906147f0565b60405180910390f35b61024a60048036038101906102459190613fda565b610802565b60405161025791906148f4565b60405180910390f35b61027a60048036038101906102759190614115565b6108dd565b005b610284610b50565b005b6102a0600480360381019061029b9190614115565b610b6a565b6040516102ad91906147ba565b60405180910390f35b6102be610bdd565b005b6102da60048036038101906102d59190614115565b610bf7565b6040516102e791906147f0565b60405180910390f35b61030a6004803603810190610305919061413e565b610ce5565b005b61032660048036038101906103219190614115565b610d5d565b604051610333919061477d565b60405180910390f35b610356600480360381019061035191906142a0565b610de3565b005b610372600480360381019061036d9190613fda565b610e48565b60405161037f9190614798565b60405180910390f35b6103a2600480360381019061039d9190614115565b611365565b6040516103af91906147d5565b60405180910390f35b6103d260048036038101906103cd9190614115565b6113d8565b6040516103df91906148f4565b60405180910390f35b61040260048036038101906103fd9190614115565b61143e565b60405161040f91906147f0565b60405180910390f35b610432600480360381019061042d9190614115565b61152c565b60405161043f91906148f4565b60405180910390f35b610462600480360381019061045d9190613fda565b611592565b60405161046f91906148f4565b60405180910390f35b610492600480360381019061048d9190613fda565b61166d565b60405161049f9190614798565b60405180910390f35b6104c260048036038101906104bd919061417a565b611bbb565b005b6104de60048036038101906104d99190614115565b611ec6565b6040516104eb91906147ba565b60405180910390f35b61050e60048036038101906105099190613fda565b611f39565b60405161051b91906148f4565b60405180910390f35b61052c611fe3565b6040516105399190614798565b60405180910390f35b61054a6124be565b6040516105579190614798565b60405180910390f35b61057a60048036038101906105759190614115565b612957565b60405161058791906148f4565b60405180910390f35b6105aa60048036038101906105a59190614115565b6129bd565b6040516105b791906147f0565b60405180910390f35b6105c8612aab565b6040516105d591906148f4565b60405180910390f35b6105e6612ac2565b6040516105f39190614798565b60405180910390f35b610604612faa565b60405161061191906148f4565b60405180910390f35b610634600480360381019061062f9190613fda565b612fb4565b6040516106419190614798565b60405180910390f35b610664600480360381019061065f9190614003565b613502565b60405161067191906148f4565b60405180910390f35b610694600480360381019061068f919061413e565b613899565b005b61069e613911565b6040516106ab91906148f4565b60405180910390f35b6106ce60048036038101906106c99190614115565b61391a565b6040516106db91906148f4565b60405180910390f35b6106fe60048036038101906106f99190614115565b613980565b60405161070b91906148d2565b60405180910390f35b606081600054811061075b576040517f08c379a000000000000000000000000000000000000000000000000000000000815260040161075290614812565b60405180910390fd5b60026000848152602001908152602001600020600201805461077c90614c39565b80601f01602080910402602001604051908101604052809291908181526020018280546107a890614c39565b80156107f55780601f106107ca576101008083540402835291602001916107f5565b820191906000526020600020905b8154815290600101906020018083116107d857829003601f168201915b5050505050915050919050565b6000806000905060005b6000548110156108d3578373ffffffffffffffffffffffffffffffffffffffff166002600083815260200190815260200160002060090160009054906101000a900473ffffffffffffffffffffffffffffffffffffffff1673ffffffffffffffffffffffffffffffffffffffff1614156108c057600015156002600083815260200190815260200160002060090160159054906101000a900460ff16151514156108bf5781806108bb90614c9c565b9250505b5b80806108cb90614c9c565b91505061080c565b5080915050919050565b803373ffffffffffffffffffffffffffffffffffffffff166002600083815260200190815260200160002060090160009054906101000a900473ffffffffffffffffffffffffffffffffffffffff1673ffffffffffffffffffffffffffffffffffffffff1614610982576040517f08c379a0000000000000000000000000000000000000000000000000000000008152600401610979906148b2565b60405180910390fd5b8160005481106109c7576040517f08c379a00000000000000000000000000000000000000000000000000000000081526004016109be90614812565b60405180910390fd5b82600115156002600083815260200190815260200160002060090160149054906101000a900460ff16151514610a32576040517f08c379a0000000000000000000000000000000000000000000000000000000008152600401610a2990614832565b60405180910390fd5b60026000858152602001908152602001600020600080820160009055600182016000610a5e9190613d81565b600282016000610a6e9190613d81565b600382016000610a7e9190613d81565b6004820160006101000a81549060ff0219169055600582016000610aa29190613d81565b6006820160009055600782016000905560088201600090556009820160006101000a81549073ffffffffffffffffffffffffffffffffffffffff02191690556009820160146101000a81549060ff02191690556009820160156101000a81549060ff0219169055600a82016000905550507f4adbec0d66623051c877058902b8ce13a83d19905b8ec8479e56282799601a7684604051610b4291906148f4565b60405180910390a150505050565b60016000815480929190610b6390614c0f565b9190505550565b6000816000548110610bb1576040517f08c379a0000000000000000000000000000000000000000000000000000000008152600401610ba890614812565b60405180910390fd5b6002600084815260200190815260200160002060090160149054906101000a900460ff16915050919050565b60016000815480929190610bf090614c9c565b9190505550565b6060816000548110610c3e576040517f08c379a0000000000000000000000000000000000000000000000000000000008152600401610c3590614812565b60405180910390fd5b600260008481526020019081526020016000206005018054610c5f90614c39565b80601f0160208091040260200160405190810160405280929190818152602001828054610c8b90614c39565b8015610cd85780601f10610cad57610100808354040283529160200191610cd8565b820191906000526020600020905b815481529060010190602001808311610cbb57829003601f168201915b5050505050915050919050565b816000548110610d2a576040517f08c379a0000000000000000000000000000000000000000000000000000000008152600401610d2190614812565b60405180910390fd5b816002600085815260200190815260200160002060090160156101000a81548160ff021916908315150217905550505050565b6000816000548110610da4576040517f08c379a0000000000000000000000000000000000000000000000000000000008152600401610d9b90614812565b60405180910390fd5b6002600084815260200190815260200160002060090160009054906101000a900473ffffffffffffffffffffffffffffffffffffffff16915050919050565b816000548110610e28576040517f08c379a0000000000000000000000000000000000000000000000000000000008152600401610e1f90614812565b60405180910390fd5b8160026000858152602001908152602001600020600a0181905550505050565b60606000610e5583611f39565b67ffffffffffffffff811115610e94577f4e487b7100000000000000000000000000000000000000000000000000000000600052604160045260246000fd5b604051908082528060200260200182016040528015610ecd57816020015b610eba613dc1565b815260200190600190039081610eb25790505b5090506000805b60005481101561135a578473ffffffffffffffffffffffffffffffffffffffff166002600083815260200190815260200160002060090160009054906101000a900473ffffffffffffffffffffffffffffffffffffffff1673ffffffffffffffffffffffffffffffffffffffff1614156113475760026000828152602001908152602001600020604051806101a001604052908160008201548152602001600182018054610f8190614c39565b80601f0160208091040260200160405190810160405280929190818152602001828054610fad90614c39565b8015610ffa5780601f10610fcf57610100808354040283529160200191610ffa565b820191906000526020600020905b815481529060010190602001808311610fdd57829003601f168201915b5050505050815260200160028201805461101390614c39565b80601f016020809104026020016040519081016040528092919081815260200182805461103f90614c39565b801561108c5780601f106110615761010080835404028352916020019161108c565b820191906000526020600020905b81548152906001019060200180831161106f57829003601f168201915b505050505081526020016003820180546110a590614c39565b80601f01602080910402602001604051908101604052809291908181526020018280546110d190614c39565b801561111e5780601f106110f35761010080835404028352916020019161111e565b820191906000526020600020905b81548152906001019060200180831161110157829003601f168201915b505050505081526020016004820160009054906101000a900460ff166003811115611172577f4e487b7100000000000000000000000000000000000000000000000000000000600052602160045260246000fd5b60038111156111aa577f4e487b7100000000000000000000000000000000000000000000000000000000600052602160045260246000fd5b81526020016005820180546111be90614c39565b80601f01602080910402602001604051908101604052809291908181526020018280546111ea90614c39565b80156112375780601f1061120c57610100808354040283529160200191611237565b820191906000526020600020905b81548152906001019060200180831161121a57829003601f168201915b505050505081526020016006820154815260200160078201548152602001600882015481526020016009820160009054906101000a900473ffffffffffffffffffffffffffffffffffffffff1673ffffffffffffffffffffffffffffffffffffffff1673ffffffffffffffffffffffffffffffffffffffff1681526020016009820160149054906101000a900460ff161515151581526020016009820160159054906101000a900460ff16151515158152602001600a8201548152505083838151811061132d577f4e487b7100000000000000000000000000000000000000000000000000000000600052603260045260246000fd5b6020026020010181905250818061134390614c9c565b9250505b808061135290614c9c565b915050610ed4565b508192505050919050565b60008160005481106113ac576040517f08c379a00000000000000000000000000000000000000000000000000000000081526004016113a390614812565b60405180910390fd5b6002600084815260200190815260200160002060040160009054906101000a900460ff16915050919050565b600081600054811061141f576040517f08c379a000000000000000000000000000000000000000000000000000000000815260040161141690614812565b60405180910390fd5b6002600084815260200190815260200160002060060154915050919050565b6060816000548110611485576040517f08c379a000000000000000000000000000000000000000000000000000000000815260040161147c90614812565b60405180910390fd5b6002600084815260200190815260200160002060010180546114a690614c39565b80601f01602080910402602001604051908101604052809291908181526020018280546114d290614c39565b801561151f5780601f106114f45761010080835404028352916020019161151f565b820191906000526020600020905b81548152906001019060200180831161150257829003601f168201915b5050505050915050919050565b6000816000548110611573576040517f08c379a000000000000000000000000000000000000000000000000000000000815260040161156a90614812565b60405180910390fd5b60026000848152602001908152602001600020600a0154915050919050565b6000806000905060005b600054811015611663578373ffffffffffffffffffffffffffffffffffffffff166002600083815260200190815260200160002060090160009054906101000a900473ffffffffffffffffffffffffffffffffffffffff1673ffffffffffffffffffffffffffffffffffffffff16141561165057600115156002600083815260200190815260200160002060090160159054906101000a900460ff161515141561164f57818061164b90614c9c565b9250505b5b808061165b90614c9c565b91505061159c565b5080915050919050565b6060600061167a83610802565b67ffffffffffffffff8111156116b9577f4e487b7100000000000000000000000000000000000000000000000000000000600052604160045260246000fd5b6040519080825280602002602001820160405280156116f257816020015b6116df613dc1565b8152602001906001900390816116d75790505b5090506000805b600054811015611bb0578473ffffffffffffffffffffffffffffffffffffffff166002600083815260200190815260200160002060090160009054906101000a900473ffffffffffffffffffffffffffffffffffffffff1673ffffffffffffffffffffffffffffffffffffffff161415611b9d57600015156002600083815260200190815260200160002060090160159054906101000a900460ff1615151415611b9c5760026000828152602001908152602001600020604051806101a0016040529081600082015481526020016001820180546117d690614c39565b80601f016020809104026020016040519081016040528092919081815260200182805461180290614c39565b801561184f5780601f106118245761010080835404028352916020019161184f565b820191906000526020600020905b81548152906001019060200180831161183257829003601f168201915b5050505050815260200160028201805461186890614c39565b80601f016020809104026020016040519081016040528092919081815260200182805461189490614c39565b80156118e15780601f106118b6576101008083540402835291602001916118e1565b820191906000526020600020905b8154815290600101906020018083116118c457829003601f168201915b505050505081526020016003820180546118fa90614c39565b80601f016020809104026020016040519081016040528092919081815260200182805461192690614c39565b80156119735780601f1061194857610100808354040283529160200191611973565b820191906000526020600020905b81548152906001019060200180831161195657829003601f168201915b505050505081526020016004820160009054906101000a900460ff1660038111156119c7577f4e487b7100000000000000000000000000000000000000000000000000000000600052602160045260246000fd5b60038111156119ff577f4e487b7100000000000000000000000000000000000000000000000000000000600052602160045260246000fd5b8152602001600582018054611a1390614c39565b80601f0160208091040260200160405190810160405280929190818152602001828054611a3f90614c39565b8015611a8c5780601f10611a6157610100808354040283529160200191611a8c565b820191906000526020600020905b815481529060010190602001808311611a6f57829003601f168201915b505050505081526020016006820154815260200160078201548152602001600882015481526020016009820160009054906101000a900473ffffffffffffffffffffffffffffffffffffffff1673ffffffffffffffffffffffffffffffffffffffff1673ffffffffffffffffffffffffffffffffffffffff1681526020016009820160149054906101000a900460ff161515151581526020016009820160159054906101000a900460ff16151515158152602001600a82015481525050838381518110611b82577f4e487b7100000000000000000000000000000000000000000000000000000000600052603260045260246000fd5b60200260200101819052508180611b9890614c9c565b9250505b5b8080611ba890614c9c565b9150506116f9565b508192505050919050565b883373ffffffffffffffffffffffffffffffffffffffff166002600083815260200190815260200160002060090160009054906101000a900473ffffffffffffffffffffffffffffffffffffffff1673ffffffffffffffffffffffffffffffffffffffff1614611c60576040517f08c379a0000000000000000000000000000000000000000000000000000000008152600401611c57906148b2565b60405180910390fd5b896000548110611ca5576040517f08c379a0000000000000000000000000000000000000000000000000000000008152600401611c9c90614812565b60405180910390fd5b8a600115156002600083815260200190815260200160002060090160149054906101000a900460ff16151514611d10576040517f08c379a0000000000000000000000000000000000000000000000000000000008152600401611d0790614832565b60405180910390fd5b8a600260008e81526020019081526020016000206001019080519060200190611d3a929190613e7b565b5089600260008e81526020019081526020016000206002019080519060200190611d65929190613e7b565b5088600260008e81526020019081526020016000206003019080519060200190611d90929190613e7b565b5087600260008e815260200190815260200160002060040160006101000a81548160ff02191690836003811115611df0577f4e487b7100000000000000000000000000000000000000000000000000000000600052602160045260246000fd5b021790555086600260008e81526020019081526020016000206005019080519060200190611e1f929190613e7b565b5085600260008e81526020019081526020016000206006018190555084600260008e81526020019081526020016000206007018190555083600260008e8152602001908152602001600020600801819055507f4f21a3e24a3d93dc456f9eaff509207f015d401ec5b5a0882e6ccf7db1da33c08c8c8c8c8c8c8c8c8c604051611eb09998979695949392919061490f565b60405180910390a1505050505050505050505050565b6000816000548110611f0d576040517f08c379a0000000000000000000000000000000000000000000000000000000008152600401611f0490614812565b60405180910390fd5b6002600084815260200190815260200160002060090160159054906101000a900460ff16915050919050565b6000806000905060005b600054811015611fd9578373ffffffffffffffffffffffffffffffffffffffff166002600083815260200190815260200160002060090160009054906101000a900473ffffffffffffffffffffffffffffffffffffffff1673ffffffffffffffffffffffffffffffffffffffff161415611fc6578180611fc290614c9c565b9250505b8080611fd190614c9c565b915050611f43565b5080915050919050565b6060600060015467ffffffffffffffff811115612029577f4e487b7100000000000000000000000000000000000000000000000000000000600052604160045260246000fd5b60405190808252806020026020018201604052801561206257816020015b61204f613dc1565b8152602001906001900390816120475790505b5090506000805b6000548110156124b557600115156002600083815260200190815260200160002060090160159054906101000a900460ff16151514156124a25760026000828152602001908152602001600020604051806101a0016040529081600082015481526020016001820180546120dc90614c39565b80601f016020809104026020016040519081016040528092919081815260200182805461210890614c39565b80156121555780601f1061212a57610100808354040283529160200191612155565b820191906000526020600020905b81548152906001019060200180831161213857829003601f168201915b5050505050815260200160028201805461216e90614c39565b80601f016020809104026020016040519081016040528092919081815260200182805461219a90614c39565b80156121e75780601f106121bc576101008083540402835291602001916121e7565b820191906000526020600020905b8154815290600101906020018083116121ca57829003601f168201915b5050505050815260200160038201805461220090614c39565b80601f016020809104026020016040519081016040528092919081815260200182805461222c90614c39565b80156122795780601f1061224e57610100808354040283529160200191612279565b820191906000526020600020905b81548152906001019060200180831161225c57829003601f168201915b505050505081526020016004820160009054906101000a900460ff1660038111156122cd577f4e487b7100000000000000000000000000000000000000000000000000000000600052602160045260246000fd5b6003811115612305577f4e487b7100000000000000000000000000000000000000000000000000000000600052602160045260246000fd5b815260200160058201805461231990614c39565b80601f016020809104026020016040519081016040528092919081815260200182805461234590614c39565b80156123925780601f1061236757610100808354040283529160200191612392565b820191906000526020600020905b81548152906001019060200180831161237557829003601f168201915b505050505081526020016006820154815260200160078201548152602001600882015481526020016009820160009054906101000a900473ffffffffffffffffffffffffffffffffffffffff1673ffffffffffffffffffffffffffffffffffffffff1673ffffffffffffffffffffffffffffffffffffffff1681526020016009820160149054906101000a900460ff161515151581526020016009820160159054906101000a900460ff16151515158152602001600a82015481525050838381518110612488577f4e487b7100000000000000000000000000000000000000000000000000000000600052603260045260246000fd5b6020026020010181905250818061249e90614c9c565b9250505b80806124ad90614c9c565b915050612069565b50819250505090565b60606000805467ffffffffffffffff811115612503577f4e487b7100000000000000000000000000000000000000000000000000000000600052604160045260246000fd5b60405190808252806020026020018201604052801561253c57816020015b612529613dc1565b8152602001906001900390816125215790505b50905060005b60005481101561294f5760026000828152602001908152602001600020604051806101a00160405290816000820154815260200160018201805461258590614c39565b80601f01602080910402602001604051908101604052809291908181526020018280546125b190614c39565b80156125fe5780601f106125d3576101008083540402835291602001916125fe565b820191906000526020600020905b8154815290600101906020018083116125e157829003601f168201915b5050505050815260200160028201805461261790614c39565b80601f016020809104026020016040519081016040528092919081815260200182805461264390614c39565b80156126905780601f1061266557610100808354040283529160200191612690565b820191906000526020600020905b81548152906001019060200180831161267357829003601f168201915b505050505081526020016003820180546126a990614c39565b80601f01602080910402602001604051908101604052809291908181526020018280546126d590614c39565b80156127225780601f106126f757610100808354040283529160200191612722565b820191906000526020600020905b81548152906001019060200180831161270557829003601f168201915b505050505081526020016004820160009054906101000a900460ff166003811115612776577f4e487b7100000000000000000000000000000000000000000000000000000000600052602160045260246000fd5b60038111156127ae577f4e487b7100000000000000000000000000000000000000000000000000000000600052602160045260246000fd5b81526020016005820180546127c290614c39565b80601f01602080910402602001604051908101604052809291908181526020018280546127ee90614c39565b801561283b5780601f106128105761010080835404028352916020019161283b565b820191906000526020600020905b81548152906001019060200180831161281e57829003601f168201915b505050505081526020016006820154815260200160078201548152602001600882015481526020016009820160009054906101000a900473ffffffffffffffffffffffffffffffffffffffff1673ffffffffffffffffffffffffffffffffffffffff1673ffffffffffffffffffffffffffffffffffffffff1681526020016009820160149054906101000a900460ff161515151581526020016009820160159054906101000a900460ff16151515158152602001600a82015481525050828281518110612931577f4e487b7100000000000000000000000000000000000000000000000000000000600052603260045260246000fd5b6020026020010181905250808061294790614c9c565b915050612542565b508091505090565b600081600054811061299e576040517f08c379a000000000000000000000000000000000000000000000000000000000815260040161299590614812565b60405180910390fd5b6002600084815260200190815260200160002060080154915050919050565b6060816000548110612a04576040517f08c379a00000000000000000000000000000000000000000000000000000000081526004016129fb90614812565b60405180910390fd5b600260008481526020019081526020016000206003018054612a2590614c39565b80601f0160208091040260200160405190810160405280929190818152602001828054612a5190614c39565b8015612a9e5780601f10612a7357610100808354040283529160200191612a9e565b820191906000526020600020905b815481529060010190602001808311612a8157829003601f168201915b5050505050915050919050565b6000600154600054612abd9190614b2c565b905090565b60606000600154600054612ad69190614b2c565b67ffffffffffffffff811115612b15577f4e487b7100000000000000000000000000000000000000000000000000000000600052604160045260246000fd5b604051908082528060200260200182016040528015612b4e57816020015b612b3b613dc1565b815260200190600190039081612b335790505b5090506000805b600054811015612fa157600015156002600083815260200190815260200160002060090160159054906101000a900460ff1615151415612f8e5760026000828152602001908152602001600020604051806101a001604052908160008201548152602001600182018054612bc890614c39565b80601f0160208091040260200160405190810160405280929190818152602001828054612bf490614c39565b8015612c415780601f10612c1657610100808354040283529160200191612c41565b820191906000526020600020905b815481529060010190602001808311612c2457829003601f168201915b50505050508152602001600282018054612c5a90614c39565b80601f0160208091040260200160405190810160405280929190818152602001828054612c8690614c39565b8015612cd35780601f10612ca857610100808354040283529160200191612cd3565b820191906000526020600020905b815481529060010190602001808311612cb657829003601f168201915b50505050508152602001600382018054612cec90614c39565b80601f0160208091040260200160405190810160405280929190818152602001828054612d1890614c39565b8015612d655780601f10612d3a57610100808354040283529160200191612d65565b820191906000526020600020905b815481529060010190602001808311612d4857829003601f168201915b505050505081526020016004820160009054906101000a900460ff166003811115612db9577f4e487b7100000000000000000000000000000000000000000000000000000000600052602160045260246000fd5b6003811115612df1577f4e487b7100000000000000000000000000000000000000000000000000000000600052602160045260246000fd5b8152602001600582018054612e0590614c39565b80601f0160208091040260200160405190810160405280929190818152602001828054612e3190614c39565b8015612e7e5780601f10612e5357610100808354040283529160200191612e7e565b820191906000526020600020905b815481529060010190602001808311612e6157829003601f168201915b505050505081526020016006820154815260200160078201548152602001600882015481526020016009820160009054906101000a900473ffffffffffffffffffffffffffffffffffffffff1673ffffffffffffffffffffffffffffffffffffffff1673ffffffffffffffffffffffffffffffffffffffff1681526020016009820160149054906101000a900460ff161515151581526020016009820160159054906101000a900460ff16151515158152602001600a82015481525050838381518110612f74577f4e487b7100000000000000000000000000000000000000000000000000000000600052603260045260246000fd5b60200260200101819052508180612f8a90614c9c565b9250505b8080612f9990614c9c565b915050612b55565b50819250505090565b6000600154905090565b60606000612fc183611592565b67ffffffffffffffff811115613000577f4e487b7100000000000000000000000000000000000000000000000000000000600052604160045260246000fd5b60405190808252806020026020018201604052801561303957816020015b613026613dc1565b81526020019060019003908161301e5790505b5090506000805b6000548110156134f7578473ffffffffffffffffffffffffffffffffffffffff166002600083815260200190815260200160002060090160009054906101000a900473ffffffffffffffffffffffffffffffffffffffff1673ffffffffffffffffffffffffffffffffffffffff1614156134e457600115156002600083815260200190815260200160002060090160159054906101000a900460ff16151514156134e35760026000828152602001908152602001600020604051806101a00160405290816000820154815260200160018201805461311d90614c39565b80601f016020809104026020016040519081016040528092919081815260200182805461314990614c39565b80156131965780601f1061316b57610100808354040283529160200191613196565b820191906000526020600020905b81548152906001019060200180831161317957829003601f168201915b505050505081526020016002820180546131af90614c39565b80601f01602080910402602001604051908101604052809291908181526020018280546131db90614c39565b80156132285780601f106131fd57610100808354040283529160200191613228565b820191906000526020600020905b81548152906001019060200180831161320b57829003601f168201915b5050505050815260200160038201805461324190614c39565b80601f016020809104026020016040519081016040528092919081815260200182805461326d90614c39565b80156132ba5780601f1061328f576101008083540402835291602001916132ba565b820191906000526020600020905b81548152906001019060200180831161329d57829003601f168201915b505050505081526020016004820160009054906101000a900460ff16600381111561330e577f4e487b7100000000000000000000000000000000000000000000000000000000600052602160045260246000fd5b6003811115613346577f4e487b7100000000000000000000000000000000000000000000000000000000600052602160045260246000fd5b815260200160058201805461335a90614c39565b80601f016020809104026020016040519081016040528092919081815260200182805461338690614c39565b80156133d35780601f106133a8576101008083540402835291602001916133d3565b820191906000526020600020905b8154815290600101906020018083116133b657829003601f168201915b505050505081526020016006820154815260200160078201548152602001600882015481526020016009820160009054906101000a900473ffffffffffffffffffffffffffffffffffffffff1673ffffffffffffffffffffffffffffffffffffffff1673ffffffffffffffffffffffffffffffffffffffff1681526020016009820160149054906101000a900460ff161515151581526020016009820160159054906101000a900460ff16151515158152602001600a820154815250508383815181106134c9577f4e487b7100000000000000000000000000000000000000000000000000000000600052603260045260246000fd5b602002602001018190525081806134df90614c9c565b9250505b5b80806134ef90614c9c565b915050613040565b508192505050919050565b60008360008111613548576040517f08c379a000000000000000000000000000000000000000000000000000000000815260040161353f90614892565b60405180910390fd5b836000811161358c576040517f08c379a000000000000000000000000000000000000000000000000000000000815260040161358390614852565b60405180910390fd5b83600081116135d0576040517f08c379a00000000000000000000000000000000000000000000000000000000081526004016135c790614872565b60405180910390fd5b6000604051806101a0016040528060005481526020018e81526020018d81526020018c81526020018b6003811115613631577f4e487b7100000000000000000000000000000000000000000000000000000000600052602160045260246000fd5b81526020018a81526020018981526020018881526020018781526020013373ffffffffffffffffffffffffffffffffffffffff16815260200160011515815260200160001515815260200160008152509050600080600081548092919061369790614c9c565b91905055905081600260008381526020019081526020016000206000820151816000015560208201518160010190805190602001906136d7929190613e7b565b5060408201518160020190805190602001906136f4929190613e7b565b506060820151816003019080519060200190613711929190613e7b565b5060808201518160040160006101000a81548160ff02191690836003811115613763577f4e487b7100000000000000000000000000000000000000000000000000000000600052602160045260246000fd5b021790555060a0820151816005019080519060200190613784929190613e7b565b5060c0820151816006015560e0820151816007015561010082015181600801556101208201518160090160006101000a81548173ffffffffffffffffffffffffffffffffffffffff021916908373ffffffffffffffffffffffffffffffffffffffff1602179055506101408201518160090160146101000a81548160ff0219169083151502179055506101608201518160090160156101000a81548160ff02191690831515021790555061018082015181600a01559050507f01549b786648358a92bbacdcb9ab6e96667fc47a8226a4cef1b8e187adad3b9d818f8f8f8f8f8f8f8f3360405161387d9a999897969594939291906149b8565b60405180910390a1809550505050505098975050505050505050565b8160005481106138de576040517f08c379a00000000000000000000000000000000000000000000000000000000081526004016138d590614812565b60405180910390fd5b816002600085815260200190815260200160002060090160146101000a81548160ff021916908315150217905550505050565b60008054905090565b6000816000548110613961576040517f08c379a000000000000000000000000000000000000000000000000000000000815260040161395890614812565b60405180910390fd5b6002600084815260200190815260200160002060070154915050919050565b613988613dc1565b8160005481106139cd576040517f08c379a00000000000000000000000000000000000000000000000000000000081526004016139c490614812565b60405180910390fd5b60026000848152602001908152602001600020604051806101a001604052908160008201548152602001600182018054613a0690614c39565b80601f0160208091040260200160405190810160405280929190818152602001828054613a3290614c39565b8015613a7f5780601f10613a5457610100808354040283529160200191613a7f565b820191906000526020600020905b815481529060010190602001808311613a6257829003601f168201915b50505050508152602001600282018054613a9890614c39565b80601f0160208091040260200160405190810160405280929190818152602001828054613ac490614c39565b8015613b115780601f10613ae657610100808354040283529160200191613b11565b820191906000526020600020905b815481529060010190602001808311613af457829003601f168201915b50505050508152602001600382018054613b2a90614c39565b80601f0160208091040260200160405190810160405280929190818152602001828054613b5690614c39565b8015613ba35780601f10613b7857610100808354040283529160200191613ba3565b820191906000526020600020905b815481529060010190602001808311613b8657829003601f168201915b505050505081526020016004820160009054906101000a900460ff166003811115613bf7577f4e487b7100000000000000000000000000000000000000000000000000000000600052602160045260246000fd5b6003811115613c2f577f4e487b7100000000000000000000000000000000000000000000000000000000600052602160045260246000fd5b8152602001600582018054613c4390614c39565b80601f0160208091040260200160405190810160405280929190818152602001828054613c6f90614c39565b8015613cbc5780601f10613c9157610100808354040283529160200191613cbc565b820191906000526020600020905b815481529060010190602001808311613c9f57829003601f168201915b505050505081526020016006820154815260200160078201548152602001600882015481526020016009820160009054906101000a900473ffffffffffffffffffffffffffffffffffffffff1673ffffffffffffffffffffffffffffffffffffffff1673ffffffffffffffffffffffffffffffffffffffff1681526020016009820160149054906101000a900460ff161515151581526020016009820160159054906101000a900460ff16151515158152602001600a82015481525050915050919050565b508054613d8d90614c39565b6000825580601f10613d9f5750613dbe565b601f016020900490600052602060002090810190613dbd9190613f01565b5b50565b604051806101a001604052806000815260200160608152602001606081526020016060815260200160006003811115613e23577f4e487b7100000000000000000000000000000000000000000000000000000000600052602160045260246000fd5b815260200160608152602001600081526020016000815260200160008152602001600073ffffffffffffffffffffffffffffffffffffffff168152602001600015158152602001600015158152602001600081525090565b828054613e8790614c39565b90600052602060002090601f016020900481019282613ea95760008555613ef0565b82601f10613ec257805160ff1916838001178555613ef0565b82800160010185558215613ef0579182015b82811115613eef578251825591602001919060010190613ed4565b5b509050613efd9190613f01565b5090565b5b80821115613f1a576000816000905550600101613f02565b5090565b6000613f31613f2c84614a95565b614a70565b905082815260208101848484011115613f4957600080fd5b613f54848285614bcd565b509392505050565b600081359050613f6b81614f7a565b92915050565b600081359050613f8081614f91565b92915050565b600081359050613f9581614fa8565b92915050565b600082601f830112613fac57600080fd5b8135613fbc848260208601613f1e565b91505092915050565b600081359050613fd481614fb8565b92915050565b600060208284031215613fec57600080fd5b6000613ffa84828501613f5c565b91505092915050565b600080600080600080600080610100898b03121561402057600080fd5b600089013567ffffffffffffffff81111561403a57600080fd5b6140468b828c01613f9b565b985050602089013567ffffffffffffffff81111561406357600080fd5b61406f8b828c01613f9b565b975050604089013567ffffffffffffffff81111561408c57600080fd5b6140988b828c01613f9b565b96505060606140a98b828c01613f86565b955050608089013567ffffffffffffffff8111156140c657600080fd5b6140d28b828c01613f9b565b94505060a06140e38b828c01613fc5565b93505060c06140f48b828c01613fc5565b92505060e06141058b828c01613fc5565b9150509295985092959890939650565b60006020828403121561412757600080fd5b600061413584828501613fc5565b91505092915050565b6000806040838503121561415157600080fd5b600061415f85828601613fc5565b925050602061417085828601613f71565b9150509250929050565b60008060008060008060008060006101208a8c03121561419957600080fd5b60006141a78c828d01613fc5565b99505060208a013567ffffffffffffffff8111156141c457600080fd5b6141d08c828d01613f9b565b98505060408a013567ffffffffffffffff8111156141ed57600080fd5b6141f98c828d01613f9b565b97505060608a013567ffffffffffffffff81111561421657600080fd5b6142228c828d01613f9b565b96505060806142338c828d01613f86565b95505060a08a013567ffffffffffffffff81111561425057600080fd5b61425c8c828d01613f9b565b94505060c061426d8c828d01613fc5565b93505060e061427e8c828d01613fc5565b9250506101006142908c828d01613fc5565b9150509295985092959850929598565b600080604083850312156142b357600080fd5b60006142c185828601613fc5565b92505060206142d285828601613fc5565b9150509250929050565b60006142e88383614503565b905092915050565b6142f981614b60565b82525050565b61430881614b60565b82525050565b600061431982614ad6565b6143238185614af9565b93508360208202850161433585614ac6565b8060005b85811015614371578484038952815161435285826142dc565b945061435d83614aec565b925060208a01995050600181019050614339565b50829750879550505050505092915050565b61438c81614b72565b82525050565b61439b81614b72565b82525050565b6143aa81614bbb565b82525050565b6143b981614bbb565b82525050565b60006143ca82614ae1565b6143d48185614b0a565b93506143e4818560208601614bdc565b6143ed81614da1565b840191505092915050565b600061440382614ae1565b61440d8185614b1b565b935061441d818560208601614bdc565b61442681614da1565b840191505092915050565b600061443e601a83614b1b565b915061444982614db2565b602082019050919050565b6000614461602c83614b1b565b915061446c82614ddb565b604082019050919050565b6000614484602383614b1b565b915061448f82614e2a565b604082019050919050565b60006144a7602583614b1b565b91506144b282614e79565b604082019050919050565b60006144ca602883614b1b565b91506144d582614ec8565b604082019050919050565b60006144ed602883614b1b565b91506144f882614f17565b604082019050919050565b60006101a08301600083015161451c600086018261475f565b506020830151848203602086015261453482826143bf565b9150506040830151848203604086015261454e82826143bf565b9150506060830151848203606086015261456882826143bf565b915050608083015161457d60808601826143a1565b5060a083015184820360a086015261459582826143bf565b91505060c08301516145aa60c086018261475f565b5060e08301516145bd60e086018261475f565b506101008301516145d261010086018261475f565b506101208301516145e76101208601826142f0565b506101408301516145fc610140860182614383565b50610160830151614611610160860182614383565b5061018083015161462661018086018261475f565b508091505092915050565b60006101a08301600083015161464a600086018261475f565b506020830151848203602086015261466282826143bf565b9150506040830151848203604086015261467c82826143bf565b9150506060830151848203606086015261469682826143bf565b91505060808301516146ab60808601826143a1565b5060a083015184820360a08601526146c382826143bf565b91505060c08301516146d860c086018261475f565b5060e08301516146eb60e086018261475f565b5061010083015161470061010086018261475f565b506101208301516147156101208601826142f0565b5061014083015161472a610140860182614383565b5061016083015161473f610160860182614383565b5061018083015161475461018086018261475f565b508091505092915050565b61476881614bb1565b82525050565b61477781614bb1565b82525050565b600060208201905061479260008301846142ff565b92915050565b600060208201905081810360008301526147b2818461430e565b905092915050565b60006020820190506147cf6000830184614392565b92915050565b60006020820190506147ea60008301846143b0565b92915050565b6000602082019050818103600083015261480a81846143f8565b905092915050565b6000602082019050818103600083015261482b81614431565b9050919050565b6000602082019050818103600083015261484b81614454565b9050919050565b6000602082019050818103600083015261486b81614477565b9050919050565b6000602082019050818103600083015261488b8161449a565b9050919050565b600060208201905081810360008301526148ab816144bd565b9050919050565b600060208201905081810360008301526148cb816144e0565b9050919050565b600060208201905081810360008301526148ec8184614631565b905092915050565b6000602082019050614909600083018461476e565b92915050565b600061012082019050614925600083018c61476e565b8181036020830152614937818b6143f8565b9050818103604083015261494b818a6143f8565b9050818103606083015261495f81896143f8565b905061496e60808301886143b0565b81810360a083015261498081876143f8565b905061498f60c083018661476e565b61499c60e083018561476e565b6149aa61010083018461476e565b9a9950505050505050505050565b6000610140820190506149ce600083018d61476e565b81810360208301526149e0818c6143f8565b905081810360408301526149f4818b6143f8565b90508181036060830152614a08818a6143f8565b9050614a1760808301896143b0565b81810360a0830152614a2981886143f8565b9050614a3860c083018761476e565b614a4560e083018661476e565b614a5361010083018561476e565b614a616101208301846142ff565b9b9a5050505050505050505050565b6000614a7a614a8b565b9050614a868282614c6b565b919050565b6000604051905090565b600067ffffffffffffffff821115614ab057614aaf614d72565b5b614ab982614da1565b9050602081019050919050565b6000819050602082019050919050565b600081519050919050565b600081519050919050565b6000602082019050919050565b600082825260208201905092915050565b600082825260208201905092915050565b600082825260208201905092915050565b6000614b3782614bb1565b9150614b4283614bb1565b925082821015614b5557614b54614ce5565b5b828203905092915050565b6000614b6b82614b91565b9050919050565b60008115159050919050565b6000819050614b8c82614f66565b919050565b600073ffffffffffffffffffffffffffffffffffffffff82169050919050565b6000819050919050565b6000614bc682614b7e565b9050919050565b82818337600083830152505050565b60005b83811015614bfa578082015181840152602081019050614bdf565b83811115614c09576000848401525b50505050565b6000614c1a82614bb1565b91506000821415614c2e57614c2d614ce5565b5b600182039050919050565b60006002820490506001821680614c5157607f821691505b60208210811415614c6557614c64614d43565b5b50919050565b614c7482614da1565b810181811067ffffffffffffffff82111715614c9357614c92614d72565b5b80604052505050565b6000614ca782614bb1565b91507fffffffffffffffffffffffffffffffffffffffffffffffffffffffffffffffff821415614cda57614cd9614ce5565b5b600182019050919050565b7f4e487b7100000000000000000000000000000000000000000000000000000000600052601160045260246000fd5b7f4e487b7100000000000000000000000000000000000000000000000000000000600052602160045260246000fd5b7f4e487b7100000000000000000000000000000000000000000000000000000000600052602260045260246000fd5b7f4e487b7100000000000000000000000000000000000000000000000000000000600052604160045260246000fd5b6000601f19601f8301169050919050565b7f496e76616c69642072656e74616c2070726f7065727479206964000000000000600082015250565b7f52656e74616c2050726f70657274792063616e6e6f742062652075706461746560008201527f64206f722064656c657465640000000000000000000000000000000000000000602082015250565b7f52656e74616c205072696365206d75737420626520677265617465722074686160008201527f6e20300000000000000000000000000000000000000000000000000000000000602082015250565b7f4c65617365204475726174696f6e206d7573742062652067726561746572207460008201527f68616e2030000000000000000000000000000000000000000000000000000000602082015250565b7f4e756d626572206f662074656e616e7473206d7573742062652067726561746560008201527f72207468616e2030000000000000000000000000000000000000000000000000602082015250565b7f4f6e6c7920746865206c616e646c6f72642063616e2063616c6c20746869732060008201527f66756e6374696f6e000000000000000000000000000000000000000000000000602082015250565b60048110614f7757614f76614d14565b5b50565b614f8381614b60565b8114614f8e57600080fd5b50565b614f9a81614b72565b8114614fa557600080fd5b50565b60048110614fb557600080fd5b50565b614fc181614bb1565b8114614fcc57600080fd5b5056fea264697066735822122063472406643fa74e9f91f21e9e5d4a38a23b6990f78187ce32ba978df86c9d3164736f6c63430008010033",
  "immutableReferences": {},
  "source": "// SPDX-License-Identifier: MIT\r\npragma solidity ^0.8.0;\r\n\r\ncontract RentalProperty {\r\n    // ################################################### STRUCTURE & STATE VARIABLES ################################################### //\r\n\r\n    enum PropertyType {\r\n        HDB, // Housing and Development Board\r\n        Condo, // Condominium\r\n        Landed, // Landed Property\r\n        Other // Other types of property\r\n    }\r\n\r\n    struct rentalProperty {\r\n        uint256 rentalPropertyId; // id of the rental property\r\n        string location; // location of the property\r\n        string postalCode; // postal code of the property\r\n        string unitNumber; // unit number of the property\r\n        PropertyType propertyType; // type of property\r\n        string description; // description of the property\r\n        uint256 numOfTenants; // number of tenants in the property\r\n        uint256 rentalPrice; // rental price in LeaseToken\r\n        uint256 leaseDuration; // lease duration in months\r\n        address landlord; // address of the landlord owner\r\n        bool updateStatus; // status of the rental property (true if property can be updated/deleted, false if property cannot be updated/deleted)\r\n        bool isListed; // status of the rental property (true if property is listed, false if property is not listed)\r\n        uint256 paymentId; // Payment transaction id for protection fee (mainly used to keep track of protection fee for payment/refund)\r\n    }\r\n\r\n    uint256 private numRentalProperty = 0; // number of rental properties\r\n    uint256 private numListedRentalProperty = 0; // number of listed rental properties\r\n    mapping(uint256 => rentalProperty) private rentalProperties; // map of rental properties indexed by rentalPropertyId\r\n\r\n    // ################################################### EVENTS ################################################### //\r\n\r\n    event RentalPropertyCreated(\r\n        uint256 rentalPropertyId,\r\n        string location,\r\n        string postalCode,\r\n        string unitNumber,\r\n        PropertyType propertyType,\r\n        string description,\r\n        uint256 numOfTenants,\r\n        uint256 rentalPrice,\r\n        uint256 leaseDuration,\r\n        address landlord\r\n    );\r\n\r\n    event RentalPropertyUpdateDetails(\r\n        uint256 rentalPropertyId,\r\n        string newLocation,\r\n        string newPostalCode,\r\n        string newUnitNumber,\r\n        PropertyType newPropertyType,\r\n        string newDescription,\r\n        uint256 newNumOfTenants,\r\n        uint256 newRentalPrice,\r\n        uint256 newLeaseDuration\r\n    );\r\n\r\n    event RentalPropertyDeleted(uint256 rentalPropertyId);\r\n\r\n    // ################################################### MODIFIERS ################################################### //\r\n\r\n    //Modifier to ensure a function is callable only by its landlord owner\r\n    modifier landlordOnly(uint256 rentalPropertyId) {\r\n        require(\r\n            rentalProperties[rentalPropertyId].landlord == msg.sender,\r\n            \"Only the landlord can call this function\"\r\n        );\r\n        _;\r\n    }\r\n\r\n    //Modifier to ensure a function is accessible only if the rental property id is valid\r\n    modifier validRentalPropertyId(uint256 rentalPropertyId) {\r\n        require(\r\n            rentalPropertyId < numRentalProperty,\r\n            \"Invalid rental property id\"\r\n        );\r\n        _;\r\n    }\r\n\r\n    //Modifier to ensure the number of tenants is valid\r\n    modifier validNumOfTenants(uint256 numOfTenants) {\r\n        require(numOfTenants > 0, \"Number of tenants must be greater than 0\");\r\n        _;\r\n    }\r\n\r\n    //Modifier to ensure the rental price is valid\r\n    modifier validRentalPrice(uint256 rentalPrice) {\r\n        require(rentalPrice > 0, \"Rental Price must be greater than 0\");\r\n        _;\r\n    }\r\n\r\n    //Modifier to ensure the lease duration is valid\r\n    modifier validLeaseDuration(uint256 leaseDuration) {\r\n        require(leaseDuration > 0, \"Lease Duration must be greater than 0\");\r\n        _;\r\n    }\r\n\r\n    //Modifier to ensure the rental property can be updated or deleted\r\n    modifier validUpdateStatus(uint256 rentalPropertyId) {\r\n        require(\r\n            rentalProperties[rentalPropertyId].updateStatus == true,\r\n            \"Rental Property cannot be updated or deleted\"\r\n        );\r\n        _;\r\n    }\r\n\r\n    // ################################################### CREATE METHOD ################################################### //\r\n\r\n    // Function for landlord to create a new Rental Property, and add to 'rentalProperties' map. requires at least 0.01ETH to create\r\n    function addRentalProperty(\r\n        string memory _location,\r\n        string memory _postalCode,\r\n        string memory _unitNumber,\r\n        PropertyType _propertyType,\r\n        string memory _description,\r\n        uint256 _numOfTenants,\r\n        uint256 _rentalPrice,\r\n        uint256 _leaseDuration\r\n    )\r\n        public\r\n        validNumOfTenants(_numOfTenants)\r\n        validRentalPrice(_rentalPrice)\r\n        validLeaseDuration(_leaseDuration)\r\n        returns (uint256)\r\n    {\r\n        // New Rental Property object\r\n        rentalProperty memory newRentalProperty = rentalProperty(\r\n            numRentalProperty,\r\n            _location,\r\n            _postalCode,\r\n            _unitNumber,\r\n            _propertyType,\r\n            _description,\r\n            _numOfTenants,\r\n            _rentalPrice,\r\n            _leaseDuration,\r\n            msg.sender, // landlord is the sender\r\n            true, // initially, rental property can be updated/deleted when there are no tenants applications\r\n            false, // initially, rental property is not listed\r\n            0 // initially, payment id is 0 (no payment transaction)\r\n        );\r\n\r\n        uint256 newRentalPropertyId = numRentalProperty++; // increment rental property id\r\n        rentalProperties[newRentalPropertyId] = newRentalProperty; // add to rentalProperties map\r\n\r\n        emit RentalPropertyCreated(\r\n            newRentalPropertyId,\r\n            _location,\r\n            _postalCode,\r\n            _unitNumber,\r\n            _propertyType,\r\n            _description,\r\n            _numOfTenants,\r\n            _rentalPrice,\r\n            _leaseDuration,\r\n            msg.sender\r\n        );\r\n\r\n        return newRentalPropertyId; //return new rental property id\r\n    }\r\n\r\n    // ################################################### GETTER METHODS ################################################### //\r\n\r\n    //Function to get a rental property\r\n    function getRentalProperty(\r\n        uint256 rentalPropertyId\r\n    )\r\n        public\r\n        view\r\n        validRentalPropertyId(rentalPropertyId)\r\n        returns (rentalProperty memory)\r\n    {\r\n        return rentalProperties[rentalPropertyId];\r\n    }\r\n\r\n    //Function to get the location of a rental property\r\n    function getLocation(\r\n        uint256 rentalPropertyId\r\n    )\r\n        public\r\n        view\r\n        validRentalPropertyId(rentalPropertyId)\r\n        returns (string memory)\r\n    {\r\n        return rentalProperties[rentalPropertyId].location;\r\n    }\r\n\r\n    //Function to get the postal code of a rental property\r\n    function getPostalCode(\r\n        uint256 rentalPropertyId\r\n    )\r\n        public\r\n        view\r\n        validRentalPropertyId(rentalPropertyId)\r\n        returns (string memory)\r\n    {\r\n        return rentalProperties[rentalPropertyId].postalCode;\r\n    }\r\n\r\n    //Function to get the unit number of a rental property\r\n    function getUnitNumber(\r\n        uint256 rentalPropertyId\r\n    )\r\n        public\r\n        view\r\n        validRentalPropertyId(rentalPropertyId)\r\n        returns (string memory)\r\n    {\r\n        return rentalProperties[rentalPropertyId].unitNumber;\r\n    }\r\n\r\n    //Function to get the property type of a rental property\r\n    function getPropertyType(\r\n        uint256 rentalPropertyId\r\n    )\r\n        public\r\n        view\r\n        validRentalPropertyId(rentalPropertyId)\r\n        returns (PropertyType)\r\n    {\r\n        return rentalProperties[rentalPropertyId].propertyType;\r\n    }\r\n\r\n    //Function to get the description of a rental property\r\n    function getDescription(\r\n        uint256 rentalPropertyId\r\n    )\r\n        public\r\n        view\r\n        validRentalPropertyId(rentalPropertyId)\r\n        returns (string memory)\r\n    {\r\n        return rentalProperties[rentalPropertyId].description;\r\n    }\r\n\r\n    //Function to get the number of tenants in a rental property\r\n    function getNumOfTenants(\r\n        uint256 rentalPropertyId\r\n    ) public view validRentalPropertyId(rentalPropertyId) returns (uint256) {\r\n        return rentalProperties[rentalPropertyId].numOfTenants;\r\n    }\r\n\r\n    //Function to get the rental price of a rental property\r\n    function getRentalPrice(\r\n        uint256 rentalPropertyId\r\n    ) public view validRentalPropertyId(rentalPropertyId) returns (uint256) {\r\n        return rentalProperties[rentalPropertyId].rentalPrice;\r\n    }\r\n\r\n    //Function to get the lease duration of a rental property\r\n    function getLeaseDuration(\r\n        uint256 rentalPropertyId\r\n    ) public view validRentalPropertyId(rentalPropertyId) returns (uint256) {\r\n        return rentalProperties[rentalPropertyId].leaseDuration;\r\n    }\r\n\r\n    //Function to get the landlord of a rental property\r\n    function getLandlord(\r\n        uint256 rentalPropertyId\r\n    ) public view validRentalPropertyId(rentalPropertyId) returns (address) {\r\n        return rentalProperties[rentalPropertyId].landlord;\r\n    }\r\n\r\n    //Function to get the update status of a rental property\r\n    function getUpdateStatus(\r\n        uint256 rentalPropertyId\r\n    ) public view validRentalPropertyId(rentalPropertyId) returns (bool) {\r\n        return rentalProperties[rentalPropertyId].updateStatus;\r\n    }\r\n\r\n    //Function to get the listed status of a rental property\r\n    function getListedStatus(\r\n        uint256 rentalPropertyId\r\n    ) public view validRentalPropertyId(rentalPropertyId) returns (bool) {\r\n        return rentalProperties[rentalPropertyId].isListed;\r\n    }\r\n\r\n    //Function to get the number of rental properties\r\n    function getNumRentalProperty() public view returns (uint256) {\r\n        return numRentalProperty;\r\n    }\r\n\r\n    //Function to get the number of listed rental properties\r\n    function getNumListedRentalProperty() public view returns (uint256) {\r\n        return numListedRentalProperty;\r\n    }\r\n\r\n    //Function to get the number of unlisted rental properties\r\n    function getNumUnlistedRentalProperty() public view returns (uint256) {\r\n        return numRentalProperty - numListedRentalProperty;\r\n    }\r\n\r\n    //Function to get the number of rental properties of a landlord\r\n    function getNumLandlordRentalProperties(\r\n        address landlord\r\n    ) public view returns (uint256) {\r\n        uint256 count = 0;\r\n        for (uint256 i = 0; i < numRentalProperty; i++) {\r\n            if (rentalProperties[i].landlord == landlord) {\r\n                count++;\r\n            }\r\n        }\r\n        return count;\r\n    }\r\n\r\n    //Function to get the number of listed rental properties of a landlord\r\n    function getNumLandlordListedRentalProperties(\r\n        address landlord\r\n    ) public view returns (uint256) {\r\n        uint256 count = 0;\r\n        for (uint256 i = 0; i < numRentalProperty; i++) {\r\n            if (rentalProperties[i].landlord == landlord) {\r\n                if (rentalProperties[i].isListed == true) {\r\n                    count++;\r\n                }\r\n            }\r\n        }\r\n        return count;\r\n    }\r\n\r\n    //Function to get the number of unlisted rental properties of a landlord\r\n    function getNumLandlordUnlistedRentalProperties(\r\n        address landlord\r\n    ) public view returns (uint256) {\r\n        uint256 count = 0;\r\n        for (uint256 i = 0; i < numRentalProperty; i++) {\r\n            if (rentalProperties[i].landlord == landlord) {\r\n                if (rentalProperties[i].isListed == false) {\r\n                    count++;\r\n                }\r\n            }\r\n        }\r\n        return count;\r\n    }\r\n\r\n    //Function to get all the rental properties (listed and unlisted)\r\n    function getAllRentalProperties()\r\n        public\r\n        view\r\n        returns (rentalProperty[] memory)\r\n    {\r\n        rentalProperty[] memory allRentalProperties = new rentalProperty[](\r\n            numRentalProperty\r\n        );\r\n        for (uint256 i = 0; i < numRentalProperty; i++) {\r\n            allRentalProperties[i] = rentalProperties[i];\r\n        }\r\n        return allRentalProperties;\r\n    }\r\n\r\n    //Function to get all the listed rental properties\r\n    function getAllListedRentalProperties()\r\n        public\r\n        view\r\n        returns (rentalProperty[] memory)\r\n    {\r\n        rentalProperty[] memory listedRentalProperties = new rentalProperty[](\r\n            numListedRentalProperty\r\n        );\r\n        uint256 index = 0;\r\n        for (uint256 i = 0; i < numRentalProperty; i++) {\r\n            if (rentalProperties[i].isListed == true) {\r\n                listedRentalProperties[index] = rentalProperties[i];\r\n                index++;\r\n            }\r\n        }\r\n        return listedRentalProperties;\r\n    }\r\n\r\n    //Function to get all the unlisted rental properties\r\n    function getAllUnlistedRentalProperties()\r\n        public\r\n        view\r\n        returns (rentalProperty[] memory)\r\n    {\r\n        rentalProperty[] memory unlistedRentalProperties = new rentalProperty[](\r\n            numRentalProperty - numListedRentalProperty\r\n        );\r\n        uint256 index = 0;\r\n        for (uint256 i = 0; i < numRentalProperty; i++) {\r\n            if (rentalProperties[i].isListed == false) {\r\n                unlistedRentalProperties[index] = rentalProperties[i];\r\n                index++;\r\n            }\r\n        }\r\n        return unlistedRentalProperties;\r\n    }\r\n\r\n    //Function to get all the rental properties of a landlord (listed and unlisted)\r\n    function getLandlordRentalProperties(\r\n        address landlord\r\n    ) public view returns (rentalProperty[] memory) {\r\n        rentalProperty[] memory landlordRentalProperties = new rentalProperty[](\r\n            getNumLandlordRentalProperties(landlord)\r\n        );\r\n        uint256 index = 0;\r\n        for (uint256 i = 0; i < numRentalProperty; i++) {\r\n            if (rentalProperties[i].landlord == landlord) {\r\n                landlordRentalProperties[index] = rentalProperties[i];\r\n                index++;\r\n            }\r\n        }\r\n        return landlordRentalProperties;\r\n    }\r\n\r\n    //Function to get all the listed rental properties of a landlord\r\n    function getLandlordListedRentalProperties(\r\n        address landlord\r\n    ) public view returns (rentalProperty[] memory) {\r\n        rentalProperty[]\r\n            memory landlordListedRentalProperties = new rentalProperty[](\r\n                getNumLandlordListedRentalProperties(landlord)\r\n            );\r\n        uint256 index = 0;\r\n        for (uint256 i = 0; i < numRentalProperty; i++) {\r\n            if (rentalProperties[i].landlord == landlord) {\r\n                if (rentalProperties[i].isListed == true) {\r\n                    landlordListedRentalProperties[index] = rentalProperties[i];\r\n                    index++;\r\n                }\r\n            }\r\n        }\r\n        return landlordListedRentalProperties;\r\n    }\r\n\r\n    //Function to get all the unlisted rental properties of a landlord\r\n    function getLandlordUnlistedRentalProperties(\r\n        address landlord\r\n    ) public view returns (rentalProperty[] memory) {\r\n        rentalProperty[]\r\n            memory landlordUnlistedRentalProperties = new rentalProperty[](\r\n                getNumLandlordUnlistedRentalProperties(landlord)\r\n            );\r\n        uint256 index = 0;\r\n        for (uint256 i = 0; i < numRentalProperty; i++) {\r\n            if (rentalProperties[i].landlord == landlord) {\r\n                if (rentalProperties[i].isListed == false) {\r\n                    landlordUnlistedRentalProperties[index] = rentalProperties[\r\n                        i\r\n                    ];\r\n                    index++;\r\n                }\r\n            }\r\n        }\r\n        return landlordUnlistedRentalProperties;\r\n    }\r\n\r\n    //Function to get payment id of a rental property\r\n    function getPaymentId(\r\n        uint256 rentalPropertyId\r\n    ) public view validRentalPropertyId(rentalPropertyId) returns (uint256) {\r\n        return rentalProperties[rentalPropertyId].paymentId;\r\n    }\r\n\r\n    // ################################################### SETTER METHODS ################################################### //\r\n\r\n    //Function to update details of a rental property\r\n    function updateRentalProperty(\r\n        uint256 rentalPropertyId,\r\n        string memory newLocation,\r\n        string memory newPostalCode,\r\n        string memory newUnitNumber,\r\n        PropertyType newPropertyType,\r\n        string memory newDescription,\r\n        uint256 newNumOfTenants,\r\n        uint256 newRentalPrice,\r\n        uint256 newLeaseDuration\r\n    )\r\n        public\r\n        landlordOnly(rentalPropertyId)\r\n        validRentalPropertyId(rentalPropertyId)\r\n        validUpdateStatus(rentalPropertyId)\r\n    {\r\n        rentalProperties[rentalPropertyId].location = newLocation;\r\n        rentalProperties[rentalPropertyId].postalCode = newPostalCode;\r\n        rentalProperties[rentalPropertyId].unitNumber = newUnitNumber;\r\n        rentalProperties[rentalPropertyId].propertyType = newPropertyType;\r\n        rentalProperties[rentalPropertyId].description = newDescription;\r\n        rentalProperties[rentalPropertyId].numOfTenants = newNumOfTenants;\r\n        rentalProperties[rentalPropertyId].rentalPrice = newRentalPrice;\r\n        rentalProperties[rentalPropertyId].leaseDuration = newLeaseDuration;\r\n\r\n        emit RentalPropertyUpdateDetails(\r\n            rentalPropertyId,\r\n            newLocation,\r\n            newPostalCode,\r\n            newUnitNumber,\r\n            newPropertyType,\r\n            newDescription,\r\n            newNumOfTenants,\r\n            newRentalPrice,\r\n            newLeaseDuration\r\n        );\r\n    }\r\n\r\n    //Function to set the new update status of a rental property\r\n    //Not restricted to landlord as this function is used in RentalMarketplace to set the update status to false when there are tenants applications\r\n    function setUpdateStatus(\r\n        uint256 rentalPropertyId,\r\n        bool newUpdateStatus\r\n    ) public validRentalPropertyId(rentalPropertyId) {\r\n        rentalProperties[rentalPropertyId].updateStatus = newUpdateStatus;\r\n    }\r\n\r\n    //Function to set the new listed status of a rental property\r\n    //Not restricted to landlord as this function is used in RentalMarketplace to set the listed status to true when the rental property is listed\r\n    function setListedStatus(\r\n        uint256 rentalPropertyId,\r\n        bool newListedStatus\r\n    ) public validRentalPropertyId(rentalPropertyId) {\r\n        rentalProperties[rentalPropertyId].isListed = newListedStatus;\r\n    }\r\n\r\n    //Function to increment the number of listed rental properties\r\n    //Not restricted to landlord as this function is used in RentalMarketplace to increment the number of listed rental properties\r\n    function incrementListedRentalProperty() public {\r\n        numListedRentalProperty++;\r\n    }\r\n\r\n    //Function to decrement the number of listed rental properties\r\n    //Not restricted to landlord as this function is used in RentalMarketplace to decrement the number of listed rental properties\r\n    function decrementListedRentalProperty() public {\r\n        numListedRentalProperty--;\r\n    }\r\n\r\n    //Function to set a payment id to the rental property\r\n    //Not restricted to landlord as this function is used in RentalMarketplace to keep track of protection fee payment/refund\r\n    function setPaymentId(\r\n        uint256 rentalPropertyId,\r\n        uint256 newPaymentId\r\n    ) public validRentalPropertyId(rentalPropertyId) {\r\n        rentalProperties[rentalPropertyId].paymentId = newPaymentId;\r\n    }\r\n\r\n    // ################################################### DELETE METHOD ################################################### //\r\n\r\n    //Function to delete a rental property\r\n    function deleteRentalProperty(\r\n        uint256 rentalPropertyId\r\n    )\r\n        public\r\n        landlordOnly(rentalPropertyId)\r\n        validRentalPropertyId(rentalPropertyId)\r\n        validUpdateStatus(rentalPropertyId)\r\n    {\r\n        // delete rental property from rentalProperties map\r\n        delete rentalProperties[rentalPropertyId];\r\n        emit RentalPropertyDeleted(rentalPropertyId);\r\n    }\r\n}\r\n",
  "sourcePath": "C:\\Users\\Bransome Tan Yi Hao\\OneDrive - National University of Singapore\\Desktop\\IS4302\\is4302-project\\contracts\\RentalProperty.sol",
  "compiler": {
    "name": "solc",
    "version": "0.8.1+commit.df193b15.Emscripten.clang"
  },
  "schemaVersion": "3.4.16",
  "updatedAt": "2024-04-10T15:39:00.323Z",
  "networkType": "ethereum",
  "devdoc": {
    "kind": "dev",
    "methods": {},
    "version": 1
  },
  "userdoc": {
    "kind": "user",
    "methods": {},
    "version": 1
  }
}