{
  "contractName": "RentalProperty",
  "abi": [
    {
      "anonymous": false,
      "inputs": [
        {
          "indexed": false,
          "internalType": "uint256",
          "name": "rentalPropertyId",
          "type": "uint256"
        },
        {
          "indexed": false,
          "internalType": "string",
          "name": "location",
          "type": "string"
        },
        {
          "indexed": false,
          "internalType": "string",
          "name": "postalCode",
          "type": "string"
        },
        {
          "indexed": false,
          "internalType": "string",
          "name": "unitNumber",
          "type": "string"
        },
        {
          "indexed": false,
          "internalType": "enum RentalProperty.PropertyType",
          "name": "propertyType",
          "type": "uint8"
        },
        {
          "indexed": false,
          "internalType": "string",
          "name": "description",
          "type": "string"
        },
        {
          "indexed": false,
          "internalType": "uint256",
          "name": "numOfTenants",
          "type": "uint256"
        },
        {
          "indexed": false,
          "internalType": "uint256",
          "name": "rentalPrice",
          "type": "uint256"
        },
        {
          "indexed": false,
          "internalType": "uint256",
          "name": "leaseDuration",
          "type": "uint256"
        },
        {
          "indexed": false,
          "internalType": "address",
          "name": "landlord",
          "type": "address"
        },
        {
          "indexed": false,
          "internalType": "bool",
          "name": "updateStatus",
          "type": "bool"
        },
        {
          "indexed": false,
          "internalType": "bool",
          "name": "isListed",
          "type": "bool"
        }
      ],
      "name": "RentalPropertyCreated",
      "type": "event"
    },
    {
      "anonymous": false,
      "inputs": [
        {
          "indexed": false,
          "internalType": "uint256",
          "name": "rentalPropertyId",
          "type": "uint256"
        }
      ],
      "name": "RentalPropertyDeleted",
      "type": "event"
    },
    {
      "anonymous": false,
      "inputs": [
        {
          "indexed": false,
          "internalType": "uint256",
          "name": "rentalPropertyId",
          "type": "uint256"
        },
        {
          "indexed": false,
          "internalType": "string",
          "name": "newDescription",
          "type": "string"
        }
      ],
      "name": "RentalPropertyUpdateDescription",
      "type": "event"
    },
    {
      "anonymous": false,
      "inputs": [
        {
          "indexed": false,
          "internalType": "uint256",
          "name": "rentalPropertyId",
          "type": "uint256"
        },
        {
          "indexed": false,
          "internalType": "uint256",
          "name": "newLeaseDuration",
          "type": "uint256"
        }
      ],
      "name": "RentalPropertyUpdateLeaseDuration",
      "type": "event"
    },
    {
      "anonymous": false,
      "inputs": [
        {
          "indexed": false,
          "internalType": "uint256",
          "name": "rentalPropertyId",
          "type": "uint256"
        },
        {
          "indexed": false,
          "internalType": "string",
          "name": "newLocation",
          "type": "string"
        }
      ],
      "name": "RentalPropertyUpdateLocation",
      "type": "event"
    },
    {
      "anonymous": false,
      "inputs": [
        {
          "indexed": false,
          "internalType": "uint256",
          "name": "rentalPropertyId",
          "type": "uint256"
        },
        {
          "indexed": false,
          "internalType": "uint256",
          "name": "newNumOfTenants",
          "type": "uint256"
        }
      ],
      "name": "RentalPropertyUpdateNumOfTenants",
      "type": "event"
    },
    {
      "anonymous": false,
      "inputs": [
        {
          "indexed": false,
          "internalType": "uint256",
          "name": "rentalPropertyId",
          "type": "uint256"
        },
        {
          "indexed": false,
          "internalType": "string",
          "name": "newPostalCode",
          "type": "string"
        }
      ],
      "name": "RentalPropertyUpdatePostalCode",
      "type": "event"
    },
    {
      "anonymous": false,
      "inputs": [
        {
          "indexed": false,
          "internalType": "uint256",
          "name": "rentalPropertyId",
          "type": "uint256"
        },
        {
          "indexed": false,
          "internalType": "enum RentalProperty.PropertyType",
          "name": "newPropertyType",
          "type": "uint8"
        }
      ],
      "name": "RentalPropertyUpdatePropertyType",
      "type": "event"
    },
    {
      "anonymous": false,
      "inputs": [
        {
          "indexed": false,
          "internalType": "uint256",
          "name": "rentalPropertyId",
          "type": "uint256"
        },
        {
          "indexed": false,
          "internalType": "uint256",
          "name": "newRentalPrice",
          "type": "uint256"
        }
      ],
      "name": "RentalPropertyUpdateRentalPrice",
      "type": "event"
    },
    {
      "anonymous": false,
      "inputs": [
        {
          "indexed": false,
          "internalType": "uint256",
          "name": "rentalPropertyId",
          "type": "uint256"
        },
        {
          "indexed": false,
          "internalType": "string",
          "name": "newUnitNumber",
          "type": "string"
        }
      ],
      "name": "RentalPropertyUpdateUnitNumber",
      "type": "event"
    },
    {
      "inputs": [
        {
          "internalType": "string",
          "name": "_location",
          "type": "string"
        },
        {
          "internalType": "string",
          "name": "_postalCode",
          "type": "string"
        },
        {
          "internalType": "string",
          "name": "_unitNumber",
          "type": "string"
        },
        {
          "internalType": "enum RentalProperty.PropertyType",
          "name": "_propertyType",
          "type": "uint8"
        },
        {
          "internalType": "string",
          "name": "_description",
          "type": "string"
        },
        {
          "internalType": "uint256",
          "name": "_numOfTenants",
          "type": "uint256"
        },
        {
          "internalType": "uint256",
          "name": "_rentalPrice",
          "type": "uint256"
        },
        {
          "internalType": "uint256",
          "name": "_leaseDuration",
          "type": "uint256"
        }
      ],
      "name": "addRentalProperty",
      "outputs": [
        {
          "internalType": "uint256",
          "name": "",
          "type": "uint256"
        }
      ],
      "stateMutability": "nonpayable",
      "type": "function"
    },
    {
      "inputs": [
        {
          "internalType": "uint256",
          "name": "rentalPropertyId",
          "type": "uint256"
        }
      ],
      "name": "getRentalProperty",
      "outputs": [
        {
          "components": [
            {
              "internalType": "string",
              "name": "location",
              "type": "string"
            },
            {
              "internalType": "string",
              "name": "postalCode",
              "type": "string"
            },
            {
              "internalType": "string",
              "name": "unitNumber",
              "type": "string"
            },
            {
              "internalType": "enum RentalProperty.PropertyType",
              "name": "propertyType",
              "type": "uint8"
            },
            {
              "internalType": "string",
              "name": "description",
              "type": "string"
            },
            {
              "internalType": "uint256",
              "name": "numOfTenants",
              "type": "uint256"
            },
            {
              "internalType": "uint256",
              "name": "rentalPrice",
              "type": "uint256"
            },
            {
              "internalType": "uint256",
              "name": "leaseDuration",
              "type": "uint256"
            },
            {
              "internalType": "address",
              "name": "landlord",
              "type": "address"
            },
            {
              "internalType": "bool",
              "name": "updateStatus",
              "type": "bool"
            },
            {
              "internalType": "bool",
              "name": "isListed",
              "type": "bool"
            }
          ],
          "internalType": "struct RentalProperty.rentalProperty",
          "name": "",
          "type": "tuple"
        }
      ],
      "stateMutability": "view",
      "type": "function"
    },
    {
      "inputs": [
        {
          "internalType": "uint256",
          "name": "rentalPropertyId",
          "type": "uint256"
        }
      ],
      "name": "getLocation",
      "outputs": [
        {
          "internalType": "string",
          "name": "",
          "type": "string"
        }
      ],
      "stateMutability": "view",
      "type": "function"
    },
    {
      "inputs": [
        {
          "internalType": "uint256",
          "name": "rentalPropertyId",
          "type": "uint256"
        }
      ],
      "name": "getPostalCode",
      "outputs": [
        {
          "internalType": "string",
          "name": "",
          "type": "string"
        }
      ],
      "stateMutability": "view",
      "type": "function"
    },
    {
      "inputs": [
        {
          "internalType": "uint256",
          "name": "rentalPropertyId",
          "type": "uint256"
        }
      ],
      "name": "getUnitNumber",
      "outputs": [
        {
          "internalType": "string",
          "name": "",
          "type": "string"
        }
      ],
      "stateMutability": "view",
      "type": "function"
    },
    {
      "inputs": [
        {
          "internalType": "uint256",
          "name": "rentalPropertyId",
          "type": "uint256"
        }
      ],
      "name": "getPropertyType",
      "outputs": [
        {
          "internalType": "enum RentalProperty.PropertyType",
          "name": "",
          "type": "uint8"
        }
      ],
      "stateMutability": "view",
      "type": "function"
    },
    {
      "inputs": [
        {
          "internalType": "uint256",
          "name": "rentalPropertyId",
          "type": "uint256"
        }
      ],
      "name": "getDescription",
      "outputs": [
        {
          "internalType": "string",
          "name": "",
          "type": "string"
        }
      ],
      "stateMutability": "view",
      "type": "function"
    },
    {
      "inputs": [
        {
          "internalType": "uint256",
          "name": "rentalPropertyId",
          "type": "uint256"
        }
      ],
      "name": "getNumOfTenants",
      "outputs": [
        {
          "internalType": "uint256",
          "name": "",
          "type": "uint256"
        }
      ],
      "stateMutability": "view",
      "type": "function"
    },
    {
      "inputs": [
        {
          "internalType": "uint256",
          "name": "rentalPropertyId",
          "type": "uint256"
        }
      ],
      "name": "getRentalPrice",
      "outputs": [
        {
          "internalType": "uint256",
          "name": "",
          "type": "uint256"
        }
      ],
      "stateMutability": "view",
      "type": "function"
    },
    {
      "inputs": [
        {
          "internalType": "uint256",
          "name": "rentalPropertyId",
          "type": "uint256"
        }
      ],
      "name": "getLeaseDuration",
      "outputs": [
        {
          "internalType": "uint256",
          "name": "",
          "type": "uint256"
        }
      ],
      "stateMutability": "view",
      "type": "function"
    },
    {
      "inputs": [
        {
          "internalType": "uint256",
          "name": "rentalPropertyId",
          "type": "uint256"
        }
      ],
      "name": "getLandlord",
      "outputs": [
        {
          "internalType": "address",
          "name": "",
          "type": "address"
        }
      ],
      "stateMutability": "view",
      "type": "function"
    },
    {
      "inputs": [],
      "name": "getNumRentalProperty",
      "outputs": [
        {
          "internalType": "uint256",
          "name": "",
          "type": "uint256"
        }
      ],
      "stateMutability": "view",
      "type": "function"
    },
    {
      "inputs": [
        {
          "internalType": "uint256",
          "name": "rentalPropertyId",
          "type": "uint256"
        }
      ],
      "name": "getUpdateStatus",
      "outputs": [
        {
          "internalType": "bool",
          "name": "",
          "type": "bool"
        }
      ],
      "stateMutability": "view",
      "type": "function"
    },
    {
      "inputs": [
        {
          "internalType": "uint256",
          "name": "rentalPropertyId",
          "type": "uint256"
        }
      ],
      "name": "getListedStatus",
      "outputs": [
        {
          "internalType": "bool",
          "name": "",
          "type": "bool"
        }
      ],
      "stateMutability": "view",
      "type": "function"
    },
    {
      "inputs": [],
      "name": "getAllRentalProperties",
      "outputs": [
        {
          "components": [
            {
              "internalType": "string",
              "name": "location",
              "type": "string"
            },
            {
              "internalType": "string",
              "name": "postalCode",
              "type": "string"
            },
            {
              "internalType": "string",
              "name": "unitNumber",
              "type": "string"
            },
            {
              "internalType": "enum RentalProperty.PropertyType",
              "name": "propertyType",
              "type": "uint8"
            },
            {
              "internalType": "string",
              "name": "description",
              "type": "string"
            },
            {
              "internalType": "uint256",
              "name": "numOfTenants",
              "type": "uint256"
            },
            {
              "internalType": "uint256",
              "name": "rentalPrice",
              "type": "uint256"
            },
            {
              "internalType": "uint256",
              "name": "leaseDuration",
              "type": "uint256"
            },
            {
              "internalType": "address",
              "name": "landlord",
              "type": "address"
            },
            {
              "internalType": "bool",
              "name": "updateStatus",
              "type": "bool"
            },
            {
              "internalType": "bool",
              "name": "isListed",
              "type": "bool"
            }
          ],
          "internalType": "struct RentalProperty.rentalProperty[]",
          "name": "",
          "type": "tuple[]"
        }
      ],
      "stateMutability": "view",
      "type": "function"
    },
    {
      "inputs": [],
      "name": "getAllListedRentalProperties",
      "outputs": [
        {
          "components": [
            {
              "internalType": "string",
              "name": "location",
              "type": "string"
            },
            {
              "internalType": "string",
              "name": "postalCode",
              "type": "string"
            },
            {
              "internalType": "string",
              "name": "unitNumber",
              "type": "string"
            },
            {
              "internalType": "enum RentalProperty.PropertyType",
              "name": "propertyType",
              "type": "uint8"
            },
            {
              "internalType": "string",
              "name": "description",
              "type": "string"
            },
            {
              "internalType": "uint256",
              "name": "numOfTenants",
              "type": "uint256"
            },
            {
              "internalType": "uint256",
              "name": "rentalPrice",
              "type": "uint256"
            },
            {
              "internalType": "uint256",
              "name": "leaseDuration",
              "type": "uint256"
            },
            {
              "internalType": "address",
              "name": "landlord",
              "type": "address"
            },
            {
              "internalType": "bool",
              "name": "updateStatus",
              "type": "bool"
            },
            {
              "internalType": "bool",
              "name": "isListed",
              "type": "bool"
            }
          ],
          "internalType": "struct RentalProperty.rentalProperty[]",
          "name": "",
          "type": "tuple[]"
        }
      ],
      "stateMutability": "view",
      "type": "function"
    },
    {
      "inputs": [],
      "name": "getAllUnlistedRentalProperties",
      "outputs": [
        {
          "components": [
            {
              "internalType": "string",
              "name": "location",
              "type": "string"
            },
            {
              "internalType": "string",
              "name": "postalCode",
              "type": "string"
            },
            {
              "internalType": "string",
              "name": "unitNumber",
              "type": "string"
            },
            {
              "internalType": "enum RentalProperty.PropertyType",
              "name": "propertyType",
              "type": "uint8"
            },
            {
              "internalType": "string",
              "name": "description",
              "type": "string"
            },
            {
              "internalType": "uint256",
              "name": "numOfTenants",
              "type": "uint256"
            },
            {
              "internalType": "uint256",
              "name": "rentalPrice",
              "type": "uint256"
            },
            {
              "internalType": "uint256",
              "name": "leaseDuration",
              "type": "uint256"
            },
            {
              "internalType": "address",
              "name": "landlord",
              "type": "address"
            },
            {
              "internalType": "bool",
              "name": "updateStatus",
              "type": "bool"
            },
            {
              "internalType": "bool",
              "name": "isListed",
              "type": "bool"
            }
          ],
          "internalType": "struct RentalProperty.rentalProperty[]",
          "name": "",
          "type": "tuple[]"
        }
      ],
      "stateMutability": "view",
      "type": "function"
    },
    {
      "inputs": [
        {
          "internalType": "address",
          "name": "landlord",
          "type": "address"
        }
      ],
      "name": "getLandlordRentalProperties",
      "outputs": [
        {
          "components": [
            {
              "internalType": "string",
              "name": "location",
              "type": "string"
            },
            {
              "internalType": "string",
              "name": "postalCode",
              "type": "string"
            },
            {
              "internalType": "string",
              "name": "unitNumber",
              "type": "string"
            },
            {
              "internalType": "enum RentalProperty.PropertyType",
              "name": "propertyType",
              "type": "uint8"
            },
            {
              "internalType": "string",
              "name": "description",
              "type": "string"
            },
            {
              "internalType": "uint256",
              "name": "numOfTenants",
              "type": "uint256"
            },
            {
              "internalType": "uint256",
              "name": "rentalPrice",
              "type": "uint256"
            },
            {
              "internalType": "uint256",
              "name": "leaseDuration",
              "type": "uint256"
            },
            {
              "internalType": "address",
              "name": "landlord",
              "type": "address"
            },
            {
              "internalType": "bool",
              "name": "updateStatus",
              "type": "bool"
            },
            {
              "internalType": "bool",
              "name": "isListed",
              "type": "bool"
            }
          ],
          "internalType": "struct RentalProperty.rentalProperty[]",
          "name": "",
          "type": "tuple[]"
        }
      ],
      "stateMutability": "view",
      "type": "function"
    },
    {
      "inputs": [
        {
          "internalType": "address",
          "name": "landlord",
          "type": "address"
        }
      ],
      "name": "getLandlordListedRentalProperties",
      "outputs": [
        {
          "components": [
            {
              "internalType": "string",
              "name": "location",
              "type": "string"
            },
            {
              "internalType": "string",
              "name": "postalCode",
              "type": "string"
            },
            {
              "internalType": "string",
              "name": "unitNumber",
              "type": "string"
            },
            {
              "internalType": "enum RentalProperty.PropertyType",
              "name": "propertyType",
              "type": "uint8"
            },
            {
              "internalType": "string",
              "name": "description",
              "type": "string"
            },
            {
              "internalType": "uint256",
              "name": "numOfTenants",
              "type": "uint256"
            },
            {
              "internalType": "uint256",
              "name": "rentalPrice",
              "type": "uint256"
            },
            {
              "internalType": "uint256",
              "name": "leaseDuration",
              "type": "uint256"
            },
            {
              "internalType": "address",
              "name": "landlord",
              "type": "address"
            },
            {
              "internalType": "bool",
              "name": "updateStatus",
              "type": "bool"
            },
            {
              "internalType": "bool",
              "name": "isListed",
              "type": "bool"
            }
          ],
          "internalType": "struct RentalProperty.rentalProperty[]",
          "name": "",
          "type": "tuple[]"
        }
      ],
      "stateMutability": "view",
      "type": "function"
    },
    {
      "inputs": [
        {
          "internalType": "address",
          "name": "landlord",
          "type": "address"
        }
      ],
      "name": "getLandlordUnlistedRentalProperties",
      "outputs": [
        {
          "components": [
            {
              "internalType": "string",
              "name": "location",
              "type": "string"
            },
            {
              "internalType": "string",
              "name": "postalCode",
              "type": "string"
            },
            {
              "internalType": "string",
              "name": "unitNumber",
              "type": "string"
            },
            {
              "internalType": "enum RentalProperty.PropertyType",
              "name": "propertyType",
              "type": "uint8"
            },
            {
              "internalType": "string",
              "name": "description",
              "type": "string"
            },
            {
              "internalType": "uint256",
              "name": "numOfTenants",
              "type": "uint256"
            },
            {
              "internalType": "uint256",
              "name": "rentalPrice",
              "type": "uint256"
            },
            {
              "internalType": "uint256",
              "name": "leaseDuration",
              "type": "uint256"
            },
            {
              "internalType": "address",
              "name": "landlord",
              "type": "address"
            },
            {
              "internalType": "bool",
              "name": "updateStatus",
              "type": "bool"
            },
            {
              "internalType": "bool",
              "name": "isListed",
              "type": "bool"
            }
          ],
          "internalType": "struct RentalProperty.rentalProperty[]",
          "name": "",
          "type": "tuple[]"
        }
      ],
      "stateMutability": "view",
      "type": "function"
    },
    {
      "inputs": [
        {
          "internalType": "uint256",
          "name": "rentalPropertyId",
          "type": "uint256"
        },
        {
          "internalType": "string",
          "name": "newLocation",
          "type": "string"
        }
      ],
      "name": "updateLocation",
      "outputs": [],
      "stateMutability": "nonpayable",
      "type": "function"
    },
    {
      "inputs": [
        {
          "internalType": "uint256",
          "name": "rentalPropertyId",
          "type": "uint256"
        },
        {
          "internalType": "string",
          "name": "newPostalCode",
          "type": "string"
        }
      ],
      "name": "updatePostalCode",
      "outputs": [],
      "stateMutability": "nonpayable",
      "type": "function"
    },
    {
      "inputs": [
        {
          "internalType": "uint256",
          "name": "rentalPropertyId",
          "type": "uint256"
        },
        {
          "internalType": "string",
          "name": "newUnitNumber",
          "type": "string"
        }
      ],
      "name": "updateUnitNumber",
      "outputs": [],
      "stateMutability": "nonpayable",
      "type": "function"
    },
    {
      "inputs": [
        {
          "internalType": "uint256",
          "name": "rentalPropertyId",
          "type": "uint256"
        },
        {
          "internalType": "enum RentalProperty.PropertyType",
          "name": "newPropertyType",
          "type": "uint8"
        }
      ],
      "name": "updatePropertyType",
      "outputs": [],
      "stateMutability": "nonpayable",
      "type": "function"
    },
    {
      "inputs": [
        {
          "internalType": "uint256",
          "name": "rentalPropertyId",
          "type": "uint256"
        },
        {
          "internalType": "string",
          "name": "newDescription",
          "type": "string"
        }
      ],
      "name": "updateDescription",
      "outputs": [],
      "stateMutability": "nonpayable",
      "type": "function"
    },
    {
      "inputs": [
        {
          "internalType": "uint256",
          "name": "rentalPropertyId",
          "type": "uint256"
        },
        {
          "internalType": "uint256",
          "name": "newNumOfTenants",
          "type": "uint256"
        }
      ],
      "name": "updateNumOfTenants",
      "outputs": [],
      "stateMutability": "nonpayable",
      "type": "function"
    },
    {
      "inputs": [
        {
          "internalType": "uint256",
          "name": "rentalPropertyId",
          "type": "uint256"
        },
        {
          "internalType": "uint256",
          "name": "newRentalPrice",
          "type": "uint256"
        }
      ],
      "name": "updateRentalPrice",
      "outputs": [],
      "stateMutability": "nonpayable",
      "type": "function"
    },
    {
      "inputs": [
        {
          "internalType": "uint256",
          "name": "rentalPropertyId",
          "type": "uint256"
        },
        {
          "internalType": "uint256",
          "name": "newLeaseDuration",
          "type": "uint256"
        }
      ],
      "name": "updateLeaseDuration",
      "outputs": [],
      "stateMutability": "nonpayable",
      "type": "function"
    },
    {
      "inputs": [
        {
          "internalType": "uint256",
          "name": "rentalPropertyId",
          "type": "uint256"
        },
        {
          "internalType": "bool",
          "name": "newUpdateStatus",
          "type": "bool"
        }
      ],
      "name": "setUpdateStatus",
      "outputs": [],
      "stateMutability": "nonpayable",
      "type": "function"
    },
    {
      "inputs": [
        {
          "internalType": "uint256",
          "name": "rentalPropertyId",
          "type": "uint256"
        },
        {
          "internalType": "bool",
          "name": "newListedStatus",
          "type": "bool"
        }
      ],
      "name": "setListedStatus",
      "outputs": [],
      "stateMutability": "nonpayable",
      "type": "function"
    },
    {
      "inputs": [
        {
          "internalType": "uint256",
          "name": "rentalPropertyId",
          "type": "uint256"
        }
      ],
      "name": "deleteRentalProperty",
      "outputs": [],
      "stateMutability": "nonpayable",
      "type": "function"
    }
  ],
  "bytecode": "0x60806040526000805534801561001457600080fd5b5061574b80620000256000396000f3fe608060405234801561001057600080fd5b50600436106101e55760003560e01c806390abcd981161010f578063b66b5a42116100a2578063e019caa311610071578063e019caa3146105fc578063e1ba0b8014610618578063e924e64a14610636578063fd003e4a14610666576101e5565b8063b66b5a4214610562578063b7e3803914610580578063bf7225be146105b0578063c3b3f0d1146105e0576101e5565b8063a757e926116100de578063a757e926146104c6578063acd7c1d3146104e4578063aee7813114610502578063b23392ec14610532576101e5565b806390abcd98146104425780639d999edd1461045e5780639fa6bd071461047a578063a30cff73146104aa576101e5565b8063502fb9fd116101875780637735e668116101565780637735e668146103965780637f7b1393146103c65780638ac765a1146103f65780638fbc55f414610412576101e5565b8063502fb9fd146102ea5780635f23d8591461031a5780635fcd64531461034a5780636712f55f14610366576101e5565b80631e820d03116101c35780631e820d03146102525780634925ec55146102825780634ca18df6146102b25780634ec0c9e9146102ce576101e5565b80630d10702c146101ea57806314dee4b31461021a5780631798088814610236575b600080fd5b61020460048036038101906101ff91906149ac565b610696565b6040516102119190614f9d565b60405180910390f35b610234600480360381019061022f9190614a4d565b610784565b005b610250600480360381019061024b91906149ac565b610944565b005b61026c600480360381019061026791906149ac565b610cf0565b6040516102799190614f67565b60405180910390f35b61029c600480360381019061029791906149ac565b610d63565b6040516102a99190614f9d565b60405180910390f35b6102cc60048036038101906102c791906149d5565b610e51565b005b6102e860048036038101906102e39190614a4d565b610ec9565b005b61030460048036038101906102ff91906149ac565b611089565b6040516103119190614f2a565b60405180910390f35b610334600480360381019061032f9190614871565b61110f565b6040516103419190614f45565b60405180910390f35b610364600480360381019061035f9190614aa1565b611527565b005b610380600480360381019061037b91906149ac565b61171c565b60405161038d9190614f82565b60405180910390f35b6103b060048036038101906103ab91906149ac565b61178f565b6040516103bd91906150a1565b60405180910390f35b6103e060048036038101906103db91906149ac565b6117f5565b6040516103ed9190614f9d565b60405180910390f35b610410600480360381019061040b9190614a11565b6118e3565b005b61042c60048036038101906104279190614871565b611adc565b6040516104399190614f45565b60405180910390f35b61045c60048036038101906104579190614aa1565b61204a565b005b61047860048036038101906104739190614a4d565b61223f565b005b610494600480360381019061048f91906149ac565b6123ff565b6040516104a19190614f67565b60405180910390f35b6104c460048036038101906104bf9190614aa1565b612472565b005b6104ce612667565b6040516104db9190614f45565b60405180910390f35b6104ec612aaf565b6040516104f99190614f45565b60405180910390f35b61051c600480360381019061051791906149ac565b612f34565b60405161052991906150a1565b60405180910390f35b61054c600480360381019061054791906149ac565b612f9a565b6040516105599190614f9d565b60405180910390f35b61056a613088565b6040516105779190614f45565b60405180910390f35b61059a60048036038101906105959190614871565b6134d0565b6040516105a79190614f45565b60405180910390f35b6105ca60048036038101906105c5919061489a565b613a3e565b6040516105d791906150a1565b60405180910390f35b6105fa60048036038101906105f591906149d5565b613f92565b005b61061660048036038101906106119190614a4d565b61400a565b005b6106206141ca565b60405161062d91906150a1565b60405180910390f35b610650600480360381019061064b91906149ac565b6141d3565b60405161065d91906150a1565b60405180910390f35b610680600480360381019061067b91906149ac565b614239565b60405161068d919061507f565b60405180910390f35b60608160005481106106dd576040517f08c379a00000000000000000000000000000000000000000000000000000000081526004016106d490614fbf565b60405180910390fd5b6001600084815260200190815260200160002060010180546106fe9061537f565b80601f016020809104026020016040519081016040528092919081815260200182805461072a9061537f565b80156107775780601f1061074c57610100808354040283529160200191610777565b820191906000526020600020905b81548152906001019060200180831161075a57829003601f168201915b5050505050915050919050565b813373ffffffffffffffffffffffffffffffffffffffff166001600083815260200190815260200160002060080160009054906101000a900473ffffffffffffffffffffffffffffffffffffffff1673ffffffffffffffffffffffffffffffffffffffff1614610829576040517f08c379a00000000000000000000000000000000000000000000000000000000081526004016108209061505f565b60405180910390fd5b82600054811061086e576040517f08c379a000000000000000000000000000000000000000000000000000000000815260040161086590614fbf565b60405180910390fd5b83600115156001600083815260200190815260200160002060080160149054906101000a900460ff161515146108d9576040517f08c379a00000000000000000000000000000000000000000000000000000000081526004016108d090614fff565b60405180910390fd5b83600160008781526020019081526020016000206004019080519060200190610903929190614626565b507ff9e0cfc2139c5407b5c0da663755cc093ddf08c0cd22ef287cd889954422770985856040516109359291906150e5565b60405180910390a15050505050565b803373ffffffffffffffffffffffffffffffffffffffff166001600083815260200190815260200160002060080160009054906101000a900473ffffffffffffffffffffffffffffffffffffffff1673ffffffffffffffffffffffffffffffffffffffff16146109e9576040517f08c379a00000000000000000000000000000000000000000000000000000000081526004016109e09061505f565b60405180910390fd5b816000548110610a2e576040517f08c379a0000000000000000000000000000000000000000000000000000000008152600401610a2590614fbf565b60405180910390fd5b82600115156001600083815260200190815260200160002060080160149054906101000a900460ff16151514610a99576040517f08c379a0000000000000000000000000000000000000000000000000000000008152600401610a9090614fff565b60405180910390fd5b6001600085815260200190815260200160002060008082016000610abd91906146ac565b600182016000610acd91906146ac565b600282016000610add91906146ac565b6003820160006101000a81549060ff0219169055600482016000610b0191906146ac565b6005820160009055600682016000905560078201600090556008820160006101000a81549073ffffffffffffffffffffffffffffffffffffffff02191690556008820160146101000a81549060ff02191690556008820160156101000a81549060ff02191690555050600260003373ffffffffffffffffffffffffffffffffffffffff1673ffffffffffffffffffffffffffffffffffffffff168152602001908152602001600020805480610bdf577f4e487b7100000000000000000000000000000000000000000000000000000000600052603160045260246000fd5b600190038181906000526020600020906009020160008082016000610c0491906146ac565b600182016000610c1491906146ac565b600282016000610c2491906146ac565b6003820160006101000a81549060ff0219169055600482016000610c4891906146ac565b6005820160009055600682016000905560078201600090556008820160006101000a81549073ffffffffffffffffffffffffffffffffffffffff02191690556008820160146101000a81549060ff02191690556008820160156101000a81549060ff0219169055505090557f4adbec0d66623051c877058902b8ce13a83d19905b8ec8479e56282799601a7684604051610ce291906150a1565b60405180910390a150505050565b6000816000548110610d37576040517f08c379a0000000000000000000000000000000000000000000000000000000008152600401610d2e90614fbf565b60405180910390fd5b6001600084815260200190815260200160002060080160149054906101000a900460ff16915050919050565b6060816000548110610daa576040517f08c379a0000000000000000000000000000000000000000000000000000000008152600401610da190614fbf565b60405180910390fd5b600160008481526020019081526020016000206004018054610dcb9061537f565b80601f0160208091040260200160405190810160405280929190818152602001828054610df79061537f565b8015610e445780601f10610e1957610100808354040283529160200191610e44565b820191906000526020600020905b815481529060010190602001808311610e2757829003601f168201915b5050505050915050919050565b816000548110610e96576040517f08c379a0000000000000000000000000000000000000000000000000000000008152600401610e8d90614fbf565b60405180910390fd5b816001600085815260200190815260200160002060080160156101000a81548160ff021916908315150217905550505050565b813373ffffffffffffffffffffffffffffffffffffffff166001600083815260200190815260200160002060080160009054906101000a900473ffffffffffffffffffffffffffffffffffffffff1673ffffffffffffffffffffffffffffffffffffffff1614610f6e576040517f08c379a0000000000000000000000000000000000000000000000000000000008152600401610f659061505f565b60405180910390fd5b826000548110610fb3576040517f08c379a0000000000000000000000000000000000000000000000000000000008152600401610faa90614fbf565b60405180910390fd5b83600115156001600083815260200190815260200160002060080160149054906101000a900460ff1615151461101e576040517f08c379a000000000000000000000000000000000000000000000000000000000815260040161101590614fff565b60405180910390fd5b83600160008781526020019081526020016000206000019080519060200190611048929190614626565b507f2f785e77b95a4a5b3cae7abe711f551fae6dd194d3e0afee52aa099035c17281858560405161107a9291906150e5565b60405180910390a15050505050565b60008160005481106110d0576040517f08c379a00000000000000000000000000000000000000000000000000000000081526004016110c790614fbf565b60405180910390fd5b6001600084815260200190815260200160002060080160009054906101000a900473ffffffffffffffffffffffffffffffffffffffff16915050919050565b6060600260008373ffffffffffffffffffffffffffffffffffffffff1673ffffffffffffffffffffffffffffffffffffffff168152602001908152602001600020805480602002602001604051908101604052809291908181526020016000905b8282101561151c5783829060005260206000209060090201604051806101600160405290816000820180546111a49061537f565b80601f01602080910402602001604051908101604052809291908181526020018280546111d09061537f565b801561121d5780601f106111f25761010080835404028352916020019161121d565b820191906000526020600020905b81548152906001019060200180831161120057829003601f168201915b505050505081526020016001820180546112369061537f565b80601f01602080910402602001604051908101604052809291908181526020018280546112629061537f565b80156112af5780601f10611284576101008083540402835291602001916112af565b820191906000526020600020905b81548152906001019060200180831161129257829003601f168201915b505050505081526020016002820180546112c89061537f565b80601f01602080910402602001604051908101604052809291908181526020018280546112f49061537f565b80156113415780601f1061131657610100808354040283529160200191611341565b820191906000526020600020905b81548152906001019060200180831161132457829003601f168201915b505050505081526020016003820160009054906101000a900460ff166003811115611395577f4e487b7100000000000000000000000000000000000000000000000000000000600052602160045260246000fd5b60038111156113cd577f4e487b7100000000000000000000000000000000000000000000000000000000600052602160045260246000fd5b81526020016004820180546113e19061537f565b80601f016020809104026020016040519081016040528092919081815260200182805461140d9061537f565b801561145a5780601f1061142f5761010080835404028352916020019161145a565b820191906000526020600020905b81548152906001019060200180831161143d57829003601f168201915b505050505081526020016005820154815260200160068201548152602001600782015481526020016008820160009054906101000a900473ffffffffffffffffffffffffffffffffffffffff1673ffffffffffffffffffffffffffffffffffffffff1673ffffffffffffffffffffffffffffffffffffffff1681526020016008820160149054906101000a900460ff161515151581526020016008820160159054906101000a900460ff16151515158152505081526020019060010190611170565b505050509050919050565b813373ffffffffffffffffffffffffffffffffffffffff166001600083815260200190815260200160002060080160009054906101000a900473ffffffffffffffffffffffffffffffffffffffff1673ffffffffffffffffffffffffffffffffffffffff16146115cc576040517f08c379a00000000000000000000000000000000000000000000000000000000081526004016115c39061505f565b60405180910390fd5b826000548110611611576040517f08c379a000000000000000000000000000000000000000000000000000000000815260040161160890614fbf565b60405180910390fd5b8260008111611655576040517f08c379a000000000000000000000000000000000000000000000000000000000815260040161164c9061503f565b60405180910390fd5b84600115156001600083815260200190815260200160002060080160149054906101000a900460ff161515146116c0576040517f08c379a00000000000000000000000000000000000000000000000000000000081526004016116b790614fff565b60405180910390fd5b8460016000888152602001908152602001600020600501819055507fd18a5a33f02c71e4837afac7f0824400276d50280aee3ee7d8802309c305c353868660405161170c9291906151eb565b60405180910390a1505050505050565b6000816000548110611763576040517f08c379a000000000000000000000000000000000000000000000000000000000815260040161175a90614fbf565b60405180910390fd5b6001600084815260200190815260200160002060030160009054906101000a900460ff16915050919050565b60008160005481106117d6576040517f08c379a00000000000000000000000000000000000000000000000000000000081526004016117cd90614fbf565b60405180910390fd5b6001600084815260200190815260200160002060050154915050919050565b606081600054811061183c576040517f08c379a000000000000000000000000000000000000000000000000000000000815260040161183390614fbf565b60405180910390fd5b60016000848152602001908152602001600020600001805461185d9061537f565b80601f01602080910402602001604051908101604052809291908181526020018280546118899061537f565b80156118d65780601f106118ab576101008083540402835291602001916118d6565b820191906000526020600020905b8154815290600101906020018083116118b957829003601f168201915b5050505050915050919050565b813373ffffffffffffffffffffffffffffffffffffffff166001600083815260200190815260200160002060080160009054906101000a900473ffffffffffffffffffffffffffffffffffffffff1673ffffffffffffffffffffffffffffffffffffffff1614611988576040517f08c379a000000000000000000000000000000000000000000000000000000000815260040161197f9061505f565b60405180910390fd5b8260005481106119cd576040517f08c379a00000000000000000000000000000000000000000000000000000000081526004016119c490614fbf565b60405180910390fd5b83600115156001600083815260200190815260200160002060080160149054906101000a900460ff16151514611a38576040517f08c379a0000000000000000000000000000000000000000000000000000000008152600401611a2f90614fff565b60405180910390fd5b836001600087815260200190815260200160002060030160006101000a81548160ff02191690836003811115611a97577f4e487b7100000000000000000000000000000000000000000000000000000000600052602160045260246000fd5b02179055507f3208ad7d5d89490dfec0ba2e46d58fec5086ddbb91bdc76518a9ccc251c6b37d8585604051611acd9291906150bc565b60405180910390a15050505050565b6060806000805b600260008673ffffffffffffffffffffffffffffffffffffffff1673ffffffffffffffffffffffffffffffffffffffff1681526020019081526020016000208054905081101561203f5760001515600260008773ffffffffffffffffffffffffffffffffffffffff1673ffffffffffffffffffffffffffffffffffffffff1681526020019081526020016000208281548110611ba8577f4e487b7100000000000000000000000000000000000000000000000000000000600052603260045260246000fd5b906000526020600020906009020160080160159054906101000a900460ff161515141561202c57600260008673ffffffffffffffffffffffffffffffffffffffff1673ffffffffffffffffffffffffffffffffffffffff1681526020019081526020016000208181548110611c46577f4e487b7100000000000000000000000000000000000000000000000000000000600052603260045260246000fd5b906000526020600020906009020160405180610160016040529081600082018054611c709061537f565b80601f0160208091040260200160405190810160405280929190818152602001828054611c9c9061537f565b8015611ce95780601f10611cbe57610100808354040283529160200191611ce9565b820191906000526020600020905b815481529060010190602001808311611ccc57829003601f168201915b50505050508152602001600182018054611d029061537f565b80601f0160208091040260200160405190810160405280929190818152602001828054611d2e9061537f565b8015611d7b5780601f10611d5057610100808354040283529160200191611d7b565b820191906000526020600020905b815481529060010190602001808311611d5e57829003601f168201915b50505050508152602001600282018054611d949061537f565b80601f0160208091040260200160405190810160405280929190818152602001828054611dc09061537f565b8015611e0d5780601f10611de257610100808354040283529160200191611e0d565b820191906000526020600020905b815481529060010190602001808311611df057829003601f168201915b505050505081526020016003820160009054906101000a900460ff166003811115611e61577f4e487b7100000000000000000000000000000000000000000000000000000000600052602160045260246000fd5b6003811115611e99577f4e487b7100000000000000000000000000000000000000000000000000000000600052602160045260246000fd5b8152602001600482018054611ead9061537f565b80601f0160208091040260200160405190810160405280929190818152602001828054611ed99061537f565b8015611f265780601f10611efb57610100808354040283529160200191611f26565b820191906000526020600020905b815481529060010190602001808311611f0957829003601f168201915b505050505081526020016005820154815260200160068201548152602001600782015481526020016008820160009054906101000a900473ffffffffffffffffffffffffffffffffffffffff1673ffffffffffffffffffffffffffffffffffffffff1673ffffffffffffffffffffffffffffffffffffffff1681526020016008820160149054906101000a900460ff161515151581526020016008820160159054906101000a900460ff161515151581525050838381518110612012577f4e487b7100000000000000000000000000000000000000000000000000000000600052603260045260246000fd5b60200260200101819052508180612028906153e2565b9250505b8080612037906153e2565b915050611ae3565b508192505050919050565b813373ffffffffffffffffffffffffffffffffffffffff166001600083815260200190815260200160002060080160009054906101000a900473ffffffffffffffffffffffffffffffffffffffff1673ffffffffffffffffffffffffffffffffffffffff16146120ef576040517f08c379a00000000000000000000000000000000000000000000000000000000081526004016120e69061505f565b60405180910390fd5b826000548110612134576040517f08c379a000000000000000000000000000000000000000000000000000000000815260040161212b90614fbf565b60405180910390fd5b8260008111612178576040517f08c379a000000000000000000000000000000000000000000000000000000000815260040161216f90614fdf565b60405180910390fd5b84600115156001600083815260200190815260200160002060080160149054906101000a900460ff161515146121e3576040517f08c379a00000000000000000000000000000000000000000000000000000000081526004016121da90614fff565b60405180910390fd5b8460016000888152602001908152602001600020600601819055507ff2fc46abca9db71cc72135e2de0769502341c219aca35c83b8afbd7a6e745823868660405161222f9291906151eb565b60405180910390a1505050505050565b813373ffffffffffffffffffffffffffffffffffffffff166001600083815260200190815260200160002060080160009054906101000a900473ffffffffffffffffffffffffffffffffffffffff1673ffffffffffffffffffffffffffffffffffffffff16146122e4576040517f08c379a00000000000000000000000000000000000000000000000000000000081526004016122db9061505f565b60405180910390fd5b826000548110612329576040517f08c379a000000000000000000000000000000000000000000000000000000000815260040161232090614fbf565b60405180910390fd5b83600115156001600083815260200190815260200160002060080160149054906101000a900460ff16151514612394576040517f08c379a000000000000000000000000000000000000000000000000000000000815260040161238b90614fff565b60405180910390fd5b836001600087815260200190815260200160002060020190805190602001906123be929190614626565b507fd2fc88a3528790fea162e71e7975873743096ba0c20dfddbe0ac6c306786ed7b85856040516123f09291906150e5565b60405180910390a15050505050565b6000816000548110612446576040517f08c379a000000000000000000000000000000000000000000000000000000000815260040161243d90614fbf565b60405180910390fd5b6001600084815260200190815260200160002060080160159054906101000a900460ff16915050919050565b813373ffffffffffffffffffffffffffffffffffffffff166001600083815260200190815260200160002060080160009054906101000a900473ffffffffffffffffffffffffffffffffffffffff1673ffffffffffffffffffffffffffffffffffffffff1614612517576040517f08c379a000000000000000000000000000000000000000000000000000000000815260040161250e9061505f565b60405180910390fd5b82600054811061255c576040517f08c379a000000000000000000000000000000000000000000000000000000000815260040161255390614fbf565b60405180910390fd5b82600081116125a0576040517f08c379a00000000000000000000000000000000000000000000000000000000081526004016125979061501f565b60405180910390fd5b84600115156001600083815260200190815260200160002060080160149054906101000a900460ff1615151461260b576040517f08c379a000000000000000000000000000000000000000000000000000000000815260040161260290614fff565b60405180910390fd5b8460016000888152602001908152602001600020600701819055507f36745ecb9be3cc90b3dbaa3d40e04b5b8d12074c2eb18b665ec597696896837386866040516126579291906151eb565b60405180910390a1505050505050565b6060806000805b600054811015612aa657600115156001600083815260200190815260200160002060080160159054906101000a900460ff1615151415612a935760016000828152602001908152602001600020604051806101600160405290816000820180546126d79061537f565b80601f01602080910402602001604051908101604052809291908181526020018280546127039061537f565b80156127505780601f1061272557610100808354040283529160200191612750565b820191906000526020600020905b81548152906001019060200180831161273357829003601f168201915b505050505081526020016001820180546127699061537f565b80601f01602080910402602001604051908101604052809291908181526020018280546127959061537f565b80156127e25780601f106127b7576101008083540402835291602001916127e2565b820191906000526020600020905b8154815290600101906020018083116127c557829003601f168201915b505050505081526020016002820180546127fb9061537f565b80601f01602080910402602001604051908101604052809291908181526020018280546128279061537f565b80156128745780601f1061284957610100808354040283529160200191612874565b820191906000526020600020905b81548152906001019060200180831161285757829003601f168201915b505050505081526020016003820160009054906101000a900460ff1660038111156128c8577f4e487b7100000000000000000000000000000000000000000000000000000000600052602160045260246000fd5b6003811115612900577f4e487b7100000000000000000000000000000000000000000000000000000000600052602160045260246000fd5b81526020016004820180546129149061537f565b80601f01602080910402602001604051908101604052809291908181526020018280546129409061537f565b801561298d5780601f106129625761010080835404028352916020019161298d565b820191906000526020600020905b81548152906001019060200180831161297057829003601f168201915b505050505081526020016005820154815260200160068201548152602001600782015481526020016008820160009054906101000a900473ffffffffffffffffffffffffffffffffffffffff1673ffffffffffffffffffffffffffffffffffffffff1673ffffffffffffffffffffffffffffffffffffffff1681526020016008820160149054906101000a900460ff161515151581526020016008820160159054906101000a900460ff161515151581525050838381518110612a79577f4e487b7100000000000000000000000000000000000000000000000000000000600052603260045260246000fd5b60200260200101819052508180612a8f906153e2565b9250505b8080612a9e906153e2565b91505061266e565b50819250505090565b60606000805467ffffffffffffffff811115612af4577f4e487b7100000000000000000000000000000000000000000000000000000000600052604160045260246000fd5b604051908082528060200260200182016040528015612b2d57816020015b612b1a6146ec565b815260200190600190039081612b125790505b50905060005b600054811015612f2c576001600082815260200190815260200160002060405180610160016040529081600082018054612b6c9061537f565b80601f0160208091040260200160405190810160405280929190818152602001828054612b989061537f565b8015612be55780601f10612bba57610100808354040283529160200191612be5565b820191906000526020600020905b815481529060010190602001808311612bc857829003601f168201915b50505050508152602001600182018054612bfe9061537f565b80601f0160208091040260200160405190810160405280929190818152602001828054612c2a9061537f565b8015612c775780601f10612c4c57610100808354040283529160200191612c77565b820191906000526020600020905b815481529060010190602001808311612c5a57829003601f168201915b50505050508152602001600282018054612c909061537f565b80601f0160208091040260200160405190810160405280929190818152602001828054612cbc9061537f565b8015612d095780601f10612cde57610100808354040283529160200191612d09565b820191906000526020600020905b815481529060010190602001808311612cec57829003601f168201915b505050505081526020016003820160009054906101000a900460ff166003811115612d5d577f4e487b7100000000000000000000000000000000000000000000000000000000600052602160045260246000fd5b6003811115612d95577f4e487b7100000000000000000000000000000000000000000000000000000000600052602160045260246000fd5b8152602001600482018054612da99061537f565b80601f0160208091040260200160405190810160405280929190818152602001828054612dd59061537f565b8015612e225780601f10612df757610100808354040283529160200191612e22565b820191906000526020600020905b815481529060010190602001808311612e0557829003601f168201915b505050505081526020016005820154815260200160068201548152602001600782015481526020016008820160009054906101000a900473ffffffffffffffffffffffffffffffffffffffff1673ffffffffffffffffffffffffffffffffffffffff1673ffffffffffffffffffffffffffffffffffffffff1681526020016008820160149054906101000a900460ff161515151581526020016008820160159054906101000a900460ff161515151581525050828281518110612f0e577f4e487b7100000000000000000000000000000000000000000000000000000000600052603260045260246000fd5b60200260200101819052508080612f24906153e2565b915050612b33565b508091505090565b6000816000548110612f7b576040517f08c379a0000000000000000000000000000000000000000000000000000000008152600401612f7290614fbf565b60405180910390fd5b6001600084815260200190815260200160002060070154915050919050565b6060816000548110612fe1576040517f08c379a0000000000000000000000000000000000000000000000000000000008152600401612fd890614fbf565b60405180910390fd5b6001600084815260200190815260200160002060020180546130029061537f565b80601f016020809104026020016040519081016040528092919081815260200182805461302e9061537f565b801561307b5780601f106130505761010080835404028352916020019161307b565b820191906000526020600020905b81548152906001019060200180831161305e57829003601f168201915b5050505050915050919050565b6060806000805b6000548110156134c757600015156001600083815260200190815260200160002060080160159054906101000a900460ff16151514156134b45760016000828152602001908152602001600020604051806101600160405290816000820180546130f89061537f565b80601f01602080910402602001604051908101604052809291908181526020018280546131249061537f565b80156131715780601f1061314657610100808354040283529160200191613171565b820191906000526020600020905b81548152906001019060200180831161315457829003601f168201915b5050505050815260200160018201805461318a9061537f565b80601f01602080910402602001604051908101604052809291908181526020018280546131b69061537f565b80156132035780601f106131d857610100808354040283529160200191613203565b820191906000526020600020905b8154815290600101906020018083116131e657829003601f168201915b5050505050815260200160028201805461321c9061537f565b80601f01602080910402602001604051908101604052809291908181526020018280546132489061537f565b80156132955780601f1061326a57610100808354040283529160200191613295565b820191906000526020600020905b81548152906001019060200180831161327857829003601f168201915b505050505081526020016003820160009054906101000a900460ff1660038111156132e9577f4e487b7100000000000000000000000000000000000000000000000000000000600052602160045260246000fd5b6003811115613321577f4e487b7100000000000000000000000000000000000000000000000000000000600052602160045260246000fd5b81526020016004820180546133359061537f565b80601f01602080910402602001604051908101604052809291908181526020018280546133619061537f565b80156133ae5780601f10613383576101008083540402835291602001916133ae565b820191906000526020600020905b81548152906001019060200180831161339157829003601f168201915b505050505081526020016005820154815260200160068201548152602001600782015481526020016008820160009054906101000a900473ffffffffffffffffffffffffffffffffffffffff1673ffffffffffffffffffffffffffffffffffffffff1673ffffffffffffffffffffffffffffffffffffffff1681526020016008820160149054906101000a900460ff161515151581526020016008820160159054906101000a900460ff16151515158152505083838151811061349a577f4e487b7100000000000000000000000000000000000000000000000000000000600052603260045260246000fd5b602002602001018190525081806134b0906153e2565b9250505b80806134bf906153e2565b91505061308f565b50819250505090565b6060806000805b600260008673ffffffffffffffffffffffffffffffffffffffff1673ffffffffffffffffffffffffffffffffffffffff16815260200190815260200160002080549050811015613a335760011515600260008773ffffffffffffffffffffffffffffffffffffffff1673ffffffffffffffffffffffffffffffffffffffff168152602001908152602001600020828154811061359c577f4e487b7100000000000000000000000000000000000000000000000000000000600052603260045260246000fd5b906000526020600020906009020160080160159054906101000a900460ff1615151415613a2057600260008673ffffffffffffffffffffffffffffffffffffffff1673ffffffffffffffffffffffffffffffffffffffff168152602001908152602001600020818154811061363a577f4e487b7100000000000000000000000000000000000000000000000000000000600052603260045260246000fd5b9060005260206000209060090201604051806101600160405290816000820180546136649061537f565b80601f01602080910402602001604051908101604052809291908181526020018280546136909061537f565b80156136dd5780601f106136b2576101008083540402835291602001916136dd565b820191906000526020600020905b8154815290600101906020018083116136c057829003601f168201915b505050505081526020016001820180546136f69061537f565b80601f01602080910402602001604051908101604052809291908181526020018280546137229061537f565b801561376f5780601f106137445761010080835404028352916020019161376f565b820191906000526020600020905b81548152906001019060200180831161375257829003601f168201915b505050505081526020016002820180546137889061537f565b80601f01602080910402602001604051908101604052809291908181526020018280546137b49061537f565b80156138015780601f106137d657610100808354040283529160200191613801565b820191906000526020600020905b8154815290600101906020018083116137e457829003601f168201915b505050505081526020016003820160009054906101000a900460ff166003811115613855577f4e487b7100000000000000000000000000000000000000000000000000000000600052602160045260246000fd5b600381111561388d577f4e487b7100000000000000000000000000000000000000000000000000000000600052602160045260246000fd5b81526020016004820180546138a19061537f565b80601f01602080910402602001604051908101604052809291908181526020018280546138cd9061537f565b801561391a5780601f106138ef5761010080835404028352916020019161391a565b820191906000526020600020905b8154815290600101906020018083116138fd57829003601f168201915b505050505081526020016005820154815260200160068201548152602001600782015481526020016008820160009054906101000a900473ffffffffffffffffffffffffffffffffffffffff1673ffffffffffffffffffffffffffffffffffffffff1673ffffffffffffffffffffffffffffffffffffffff1681526020016008820160149054906101000a900460ff161515151581526020016008820160159054906101000a900460ff161515151581525050838381518110613a06577f4e487b7100000000000000000000000000000000000000000000000000000000600052603260045260246000fd5b60200260200101819052508180613a1c906153e2565b9250505b8080613a2b906153e2565b9150506134d7565b508192505050919050565b60008360008111613a84576040517f08c379a0000000000000000000000000000000000000000000000000000000008152600401613a7b9061503f565b60405180910390fd5b8360008111613ac8576040517f08c379a0000000000000000000000000000000000000000000000000000000008152600401613abf90614fdf565b60405180910390fd5b8360008111613b0c576040517f08c379a0000000000000000000000000000000000000000000000000000000008152600401613b039061501f565b60405180910390fd5b60006040518061016001604052808e81526020018d81526020018c81526020018b6003811115613b65577f4e487b7100000000000000000000000000000000000000000000000000000000600052602160045260246000fd5b81526020018a81526020018981526020018881526020018781526020013373ffffffffffffffffffffffffffffffffffffffff1681526020016001151581526020016000151581525090506000806000815480929190613bc4906153e2565b91905055905081600160008381526020019081526020016000206000820151816000019080519060200190613bfa929190614626565b506020820151816001019080519060200190613c17929190614626565b506040820151816002019080519060200190613c34929190614626565b5060608201518160030160006101000a81548160ff02191690836003811115613c86577f4e487b7100000000000000000000000000000000000000000000000000000000600052602160045260246000fd5b02179055506080820151816004019080519060200190613ca7929190614626565b5060a0820151816005015560c0820151816006015560e082015181600701556101008201518160080160006101000a81548173ffffffffffffffffffffffffffffffffffffffff021916908373ffffffffffffffffffffffffffffffffffffffff1602179055506101208201518160080160146101000a81548160ff0219169083151502179055506101408201518160080160156101000a81548160ff021916908315150217905550905050600260003373ffffffffffffffffffffffffffffffffffffffff1673ffffffffffffffffffffffffffffffffffffffff1681526020019081526020016000208290806001815401808255809150506001900390600052602060002090600902016000909190919091506000820151816000019080519060200190613dd8929190614626565b506020820151816001019080519060200190613df5929190614626565b506040820151816002019080519060200190613e12929190614626565b5060608201518160030160006101000a81548160ff02191690836003811115613e64577f4e487b7100000000000000000000000000000000000000000000000000000000600052602160045260246000fd5b02179055506080820151816004019080519060200190613e85929190614626565b5060a0820151816005015560c0820151816006015560e082015181600701556101008201518160080160006101000a81548173ffffffffffffffffffffffffffffffffffffffff021916908373ffffffffffffffffffffffffffffffffffffffff1602179055506101208201518160080160146101000a81548160ff0219169083151502179055506101408201518160080160156101000a81548160ff02191690831515021790555050507ee199253816fd674be98c4e74e0e4a8ac9841506ba913732949ed5a21053d1a818f8f8f8f8f8f8f8f3360016000604051613f769c9b9a99989796959493929190615115565b60405180910390a1809550505050505098975050505050505050565b816000548110613fd7576040517f08c379a0000000000000000000000000000000000000000000000000000000008152600401613fce90614fbf565b60405180910390fd5b816001600085815260200190815260200160002060080160146101000a81548160ff021916908315150217905550505050565b813373ffffffffffffffffffffffffffffffffffffffff166001600083815260200190815260200160002060080160009054906101000a900473ffffffffffffffffffffffffffffffffffffffff1673ffffffffffffffffffffffffffffffffffffffff16146140af576040517f08c379a00000000000000000000000000000000000000000000000000000000081526004016140a69061505f565b60405180910390fd5b8260005481106140f4576040517f08c379a00000000000000000000000000000000000000000000000000000000081526004016140eb90614fbf565b60405180910390fd5b83600115156001600083815260200190815260200160002060080160149054906101000a900460ff1615151461415f576040517f08c379a000000000000000000000000000000000000000000000000000000000815260040161415690614fff565b60405180910390fd5b83600160008781526020019081526020016000206001019080519060200190614189929190614626565b507fc92be2d1aa69266735ff482064bb1aca2d648d2d9d65c293ccd1f534d274736d85856040516141bb9291906150e5565b60405180910390a15050505050565b60008054905090565b600081600054811061421a576040517f08c379a000000000000000000000000000000000000000000000000000000000815260040161421190614fbf565b60405180910390fd5b6001600084815260200190815260200160002060060154915050919050565b6142416146ec565b816000548110614286576040517f08c379a000000000000000000000000000000000000000000000000000000000815260040161427d90614fbf565b60405180910390fd5b60016000848152602001908152602001600020604051806101600160405290816000820180546142b59061537f565b80601f01602080910402602001604051908101604052809291908181526020018280546142e19061537f565b801561432e5780601f106143035761010080835404028352916020019161432e565b820191906000526020600020905b81548152906001019060200180831161431157829003601f168201915b505050505081526020016001820180546143479061537f565b80601f01602080910402602001604051908101604052809291908181526020018280546143739061537f565b80156143c05780601f10614395576101008083540402835291602001916143c0565b820191906000526020600020905b8154815290600101906020018083116143a357829003601f168201915b505050505081526020016002820180546143d99061537f565b80601f01602080910402602001604051908101604052809291908181526020018280546144059061537f565b80156144525780601f1061442757610100808354040283529160200191614452565b820191906000526020600020905b81548152906001019060200180831161443557829003601f168201915b505050505081526020016003820160009054906101000a900460ff1660038111156144a6577f4e487b7100000000000000000000000000000000000000000000000000000000600052602160045260246000fd5b60038111156144de577f4e487b7100000000000000000000000000000000000000000000000000000000600052602160045260246000fd5b81526020016004820180546144f29061537f565b80601f016020809104026020016040519081016040528092919081815260200182805461451e9061537f565b801561456b5780601f106145405761010080835404028352916020019161456b565b820191906000526020600020905b81548152906001019060200180831161454e57829003601f168201915b505050505081526020016005820154815260200160068201548152602001600782015481526020016008820160009054906101000a900473ffffffffffffffffffffffffffffffffffffffff1673ffffffffffffffffffffffffffffffffffffffff1673ffffffffffffffffffffffffffffffffffffffff1681526020016008820160149054906101000a900460ff161515151581526020016008820160159054906101000a900460ff161515151581525050915050919050565b8280546146329061537f565b90600052602060002090601f016020900481019282614654576000855561469b565b82601f1061466d57805160ff191683800117855561469b565b8280016001018555821561469b579182015b8281111561469a57825182559160200191906001019061467f565b5b5090506146a89190614798565b5090565b5080546146b89061537f565b6000825580601f106146ca57506146e9565b601f0160209004906000526020600020908101906146e89190614798565b5b50565b60405180610160016040528060608152602001606081526020016060815260200160006003811115614747577f4e487b7100000000000000000000000000000000000000000000000000000000600052602160045260246000fd5b815260200160608152602001600081526020016000815260200160008152602001600073ffffffffffffffffffffffffffffffffffffffff1681526020016000151581526020016000151581525090565b5b808211156147b1576000816000905550600101614799565b5090565b60006147c86147c384615239565b615214565b9050828152602081018484840111156147e057600080fd5b6147eb84828561533d565b509392505050565b600081359050614802816156c0565b92915050565b600081359050614817816156d7565b92915050565b60008135905061482c816156ee565b92915050565b600082601f83011261484357600080fd5b81356148538482602086016147b5565b91505092915050565b60008135905061486b816156fe565b92915050565b60006020828403121561488357600080fd5b6000614891848285016147f3565b91505092915050565b600080600080600080600080610100898b0312156148b757600080fd5b600089013567ffffffffffffffff8111156148d157600080fd5b6148dd8b828c01614832565b985050602089013567ffffffffffffffff8111156148fa57600080fd5b6149068b828c01614832565b975050604089013567ffffffffffffffff81111561492357600080fd5b61492f8b828c01614832565b96505060606149408b828c0161481d565b955050608089013567ffffffffffffffff81111561495d57600080fd5b6149698b828c01614832565b94505060a061497a8b828c0161485c565b93505060c061498b8b828c0161485c565b92505060e061499c8b828c0161485c565b9150509295985092959890939650565b6000602082840312156149be57600080fd5b60006149cc8482850161485c565b91505092915050565b600080604083850312156149e857600080fd5b60006149f68582860161485c565b9250506020614a0785828601614808565b9150509250929050565b60008060408385031215614a2457600080fd5b6000614a328582860161485c565b9250506020614a438582860161481d565b9150509250929050565b60008060408385031215614a6057600080fd5b6000614a6e8582860161485c565b925050602083013567ffffffffffffffff811115614a8b57600080fd5b614a9785828601614832565b9150509250929050565b60008060408385031215614ab457600080fd5b6000614ac28582860161485c565b9250506020614ad38582860161485c565b9150509250929050565b6000614ae98383614d04565b905092915050565b614afa816152d0565b82525050565b614b09816152d0565b82525050565b6000614b1a8261527a565b614b24818561529d565b935083602082028501614b368561526a565b8060005b85811015614b725784840389528151614b538582614add565b9450614b5e83615290565b925060208a01995050600181019050614b3a565b50829750879550505050505092915050565b614b8d816152e2565b82525050565b614b9c816152e2565b82525050565b614bab8161532b565b82525050565b614bba8161532b565b82525050565b6000614bcb82615285565b614bd581856152ae565b9350614be581856020860161534c565b614bee816154e7565b840191505092915050565b6000614c0482615285565b614c0e81856152bf565b9350614c1e81856020860161534c565b614c27816154e7565b840191505092915050565b6000614c3f601a836152bf565b9150614c4a826154f8565b602082019050919050565b6000614c626023836152bf565b9150614c6d82615521565b604082019050919050565b6000614c856021836152bf565b9150614c9082615570565b604082019050919050565b6000614ca86025836152bf565b9150614cb3826155bf565b604082019050919050565b6000614ccb6028836152bf565b9150614cd68261560e565b604082019050919050565b6000614cee6028836152bf565b9150614cf98261565d565b604082019050919050565b6000610160830160008301518482036000860152614d228282614bc0565b91505060208301518482036020860152614d3c8282614bc0565b91505060408301518482036040860152614d568282614bc0565b9150506060830151614d6b6060860182614ba2565b5060808301518482036080860152614d838282614bc0565b91505060a0830151614d9860a0860182614f0c565b5060c0830151614dab60c0860182614f0c565b5060e0830151614dbe60e0860182614f0c565b50610100830151614dd3610100860182614af1565b50610120830151614de8610120860182614b84565b50610140830151614dfd610140860182614b84565b508091505092915050565b6000610160830160008301518482036000860152614e268282614bc0565b91505060208301518482036020860152614e408282614bc0565b91505060408301518482036040860152614e5a8282614bc0565b9150506060830151614e6f6060860182614ba2565b5060808301518482036080860152614e878282614bc0565b91505060a0830151614e9c60a0860182614f0c565b5060c0830151614eaf60c0860182614f0c565b5060e0830151614ec260e0860182614f0c565b50610100830151614ed7610100860182614af1565b50610120830151614eec610120860182614b84565b50610140830151614f01610140860182614b84565b508091505092915050565b614f1581615321565b82525050565b614f2481615321565b82525050565b6000602082019050614f3f6000830184614b00565b92915050565b60006020820190508181036000830152614f5f8184614b0f565b905092915050565b6000602082019050614f7c6000830184614b93565b92915050565b6000602082019050614f976000830184614bb1565b92915050565b60006020820190508181036000830152614fb78184614bf9565b905092915050565b60006020820190508181036000830152614fd881614c32565b9050919050565b60006020820190508181036000830152614ff881614c55565b9050919050565b6000602082019050818103600083015261501881614c78565b9050919050565b6000602082019050818103600083015261503881614c9b565b9050919050565b6000602082019050818103600083015261505881614cbe565b9050919050565b6000602082019050818103600083015261507881614ce1565b9050919050565b600060208201905081810360008301526150998184614e08565b905092915050565b60006020820190506150b66000830184614f1b565b92915050565b60006040820190506150d16000830185614f1b565b6150de6020830184614bb1565b9392505050565b60006040820190506150fa6000830185614f1b565b818103602083015261510c8184614bf9565b90509392505050565b60006101808201905061512b600083018f614f1b565b818103602083015261513d818e614bf9565b90508181036040830152615151818d614bf9565b90508181036060830152615165818c614bf9565b9050615174608083018b614bb1565b81810360a0830152615186818a614bf9565b905061519560c0830189614f1b565b6151a260e0830188614f1b565b6151b0610100830187614f1b565b6151be610120830186614b00565b6151cc610140830185614b93565b6151da610160830184614b93565b9d9c50505050505050505050505050565b60006040820190506152006000830185614f1b565b61520d6020830184614f1b565b9392505050565b600061521e61522f565b905061522a82826153b1565b919050565b6000604051905090565b600067ffffffffffffffff821115615254576152536154b8565b5b61525d826154e7565b9050602081019050919050565b6000819050602082019050919050565b600081519050919050565b600081519050919050565b6000602082019050919050565b600082825260208201905092915050565b600082825260208201905092915050565b600082825260208201905092915050565b60006152db82615301565b9050919050565b60008115159050919050565b60008190506152fc826156ac565b919050565b600073ffffffffffffffffffffffffffffffffffffffff82169050919050565b6000819050919050565b6000615336826152ee565b9050919050565b82818337600083830152505050565b60005b8381101561536a57808201518184015260208101905061534f565b83811115615379576000848401525b50505050565b6000600282049050600182168061539757607f821691505b602082108114156153ab576153aa615489565b5b50919050565b6153ba826154e7565b810181811067ffffffffffffffff821117156153d9576153d86154b8565b5b80604052505050565b60006153ed82615321565b91507fffffffffffffffffffffffffffffffffffffffffffffffffffffffffffffffff8214156154205761541f61542b565b5b600182019050919050565b7f4e487b7100000000000000000000000000000000000000000000000000000000600052601160045260246000fd5b7f4e487b7100000000000000000000000000000000000000000000000000000000600052602160045260246000fd5b7f4e487b7100000000000000000000000000000000000000000000000000000000600052602260045260246000fd5b7f4e487b7100000000000000000000000000000000000000000000000000000000600052604160045260246000fd5b6000601f19601f8301169050919050565b7f496e76616c69642072656e74616c2070726f7065727479206964000000000000600082015250565b7f52656e74616c205072696365206d75737420626520677265617465722074686160008201527f6e20300000000000000000000000000000000000000000000000000000000000602082015250565b7f52656e74616c2050726f70657274792063616e6e6f742062652075706461746560008201527f6400000000000000000000000000000000000000000000000000000000000000602082015250565b7f4c65617365204475726174696f6e206d7573742062652067726561746572207460008201527f68616e2030000000000000000000000000000000000000000000000000000000602082015250565b7f4e756d626572206f662074656e616e7473206d7573742062652067726561746560008201527f72207468616e2030000000000000000000000000000000000000000000000000602082015250565b7f4f6e6c7920746865206c616e646c6f72642063616e2063616c6c20746869732060008201527f66756e6374696f6e000000000000000000000000000000000000000000000000602082015250565b600481106156bd576156bc61545a565b5b50565b6156c9816152d0565b81146156d457600080fd5b50565b6156e0816152e2565b81146156eb57600080fd5b50565b600481106156fb57600080fd5b50565b61570781615321565b811461571257600080fd5b5056fea264697066735822122085ea8c91561900afbcd7fdedc0d208a440e7217d44f784682420435141ac535f64736f6c63430008010033",
  "immutableReferences": {},
  "source": "// SPDX-License-Identifier: MIT\r\npragma solidity ^0.8.0;\r\n\r\ncontract RentalProperty {\r\n    // ################################################### STRUCTURE & STATE VARIABLES ################################################### //\r\n\r\n    enum PropertyType {\r\n        HDB,\r\n        Condo,\r\n        Landed,\r\n        Other\r\n    }\r\n\r\n    struct rentalProperty {\r\n        string location; // location of the property\r\n        string postalCode; // postal code of the property\r\n        string unitNumber; // unit number of the property\r\n        PropertyType propertyType; // type of property\r\n        string description; // description of the property\r\n        uint256 numOfTenants; // number of tenants in the property\r\n        uint256 rentalPrice; // rental price in LeaseToken\r\n        uint256 leaseDuration; // lease duration in months\r\n        address landlord; // address of the landlord owner\r\n        bool updateStatus; // status of the rental property (true if property can be updated/deleted, false if property cannot be updated/deleted)\r\n        bool isListed; // status of the rental property (true if property is listed, false if property is not listed)\r\n    }\r\n\r\n    uint256 private numRentalProperty = 0;\r\n    mapping(uint256 => rentalProperty) private rentalProperties; // map of rental properties indexed by rentalPropertyId\r\n    mapping(address => rentalProperty[]) private landlordRentalProperties; // map of rental properties indexed by landlord address\r\n\r\n    // ################################################### EVENTS ################################################### //\r\n\r\n    event RentalPropertyCreated(\r\n        uint256 rentalPropertyId,\r\n        string location,\r\n        string postalCode,\r\n        string unitNumber,\r\n        PropertyType propertyType,\r\n        string description,\r\n        uint256 numOfTenants,\r\n        uint256 rentalPrice,\r\n        uint256 leaseDuration,\r\n        address landlord,\r\n        bool updateStatus,\r\n        bool isListed\r\n    );\r\n\r\n    event RentalPropertyUpdateLocation(\r\n        uint256 rentalPropertyId,\r\n        string newLocation\r\n    );\r\n\r\n    event RentalPropertyUpdatePostalCode(\r\n        uint256 rentalPropertyId,\r\n        string newPostalCode\r\n    );\r\n\r\n    event RentalPropertyUpdateUnitNumber(\r\n        uint256 rentalPropertyId,\r\n        string newUnitNumber\r\n    );\r\n\r\n    event RentalPropertyUpdatePropertyType(\r\n        uint256 rentalPropertyId,\r\n        PropertyType newPropertyType\r\n    );\r\n\r\n    event RentalPropertyUpdateDescription(\r\n        uint256 rentalPropertyId,\r\n        string newDescription\r\n    );\r\n\r\n    event RentalPropertyUpdateNumOfTenants(\r\n        uint256 rentalPropertyId,\r\n        uint256 newNumOfTenants\r\n    );\r\n\r\n    event RentalPropertyUpdateRentalPrice(\r\n        uint256 rentalPropertyId,\r\n        uint256 newRentalPrice\r\n    );\r\n\r\n    event RentalPropertyUpdateLeaseDuration(\r\n        uint256 rentalPropertyId,\r\n        uint256 newLeaseDuration\r\n    );\r\n\r\n    event RentalPropertyDeleted(uint256 rentalPropertyId);\r\n\r\n    // ################################################### MODIFIERS ################################################### //\r\n\r\n    //Modifier to ensure a function is callable only by its landlord owner\r\n    modifier landlordOnly(uint256 rentalPropertyId) {\r\n        require(\r\n            rentalProperties[rentalPropertyId].landlord == msg.sender,\r\n            \"Only the landlord can call this function\"\r\n        );\r\n        _;\r\n    }\r\n\r\n    //Modifier to ensure a function is accessible only if the rental property id is valid\r\n    modifier validRentalPropertyId(uint256 rentalPropertyId) {\r\n        require(\r\n            rentalPropertyId < numRentalProperty,\r\n            \"Invalid rental property id\"\r\n        );\r\n        _;\r\n    }\r\n\r\n    modifier validNumOfTenants(uint256 numOfTenants) {\r\n        require(numOfTenants > 0, \"Number of tenants must be greater than 0\");\r\n        _;\r\n    }\r\n\r\n    modifier validRentalPrice(uint256 rentalPrice) {\r\n        require(rentalPrice > 0, \"Rental Price must be greater than 0\");\r\n        _;\r\n    }\r\n\r\n    modifier validLeaseDuration(uint256 leaseDuration) {\r\n        require(leaseDuration > 0, \"Lease Duration must be greater than 0\");\r\n        _;\r\n    }\r\n\r\n    modifier validUpdateStatus(uint256 rentalPropertyId) {\r\n        require(\r\n            rentalProperties[rentalPropertyId].updateStatus == true,\r\n            \"Rental Property cannot be updated\"\r\n        );\r\n        _;\r\n    }\r\n\r\n    // ################################################### CREATE METHOD ################################################### //\r\n\r\n    // Function for landlord to create a new Rental Property, and add to 'rentalProperties' map. requires at least 0.01ETH to create\r\n    function addRentalProperty(\r\n        string memory _location,\r\n        string memory _postalCode,\r\n        string memory _unitNumber,\r\n        PropertyType _propertyType,\r\n        string memory _description,\r\n        uint256 _numOfTenants,\r\n        uint256 _rentalPrice,\r\n        uint256 _leaseDuration\r\n    )\r\n        public\r\n        validNumOfTenants(_numOfTenants)\r\n        validRentalPrice(_rentalPrice)\r\n        validLeaseDuration(_leaseDuration)\r\n        returns (uint256)\r\n    {\r\n        // New Rental Property object\r\n        rentalProperty memory newRentalProperty = rentalProperty(\r\n            _location,\r\n            _postalCode,\r\n            _unitNumber,\r\n            _propertyType,\r\n            _description,\r\n            _numOfTenants,\r\n            _rentalPrice,\r\n            _leaseDuration,\r\n            msg.sender, // landlord is the sender\r\n            true, // initially, rental property can be updated/deleted when there are no tenants applications\r\n            false // initially, rental property is not listed\r\n        );\r\n\r\n        uint256 newRentalPropertyId = numRentalProperty++; // increment rental property id\r\n        rentalProperties[newRentalPropertyId] = newRentalProperty; // add to rentalProperties map\r\n        landlordRentalProperties[msg.sender].push(newRentalProperty); // add to landlordRentalProperties map\r\n\r\n        emit RentalPropertyCreated(\r\n            newRentalPropertyId,\r\n            _location,\r\n            _postalCode,\r\n            _unitNumber,\r\n            _propertyType,\r\n            _description,\r\n            _numOfTenants,\r\n            _rentalPrice,\r\n            _leaseDuration,\r\n            msg.sender,\r\n            true,\r\n            false\r\n        );\r\n\r\n        return newRentalPropertyId; //return new rental property id\r\n    }\r\n\r\n    // ################################################### GETTER METHODS ################################################### //\r\n\r\n    //Function to get a rental property\r\n    function getRentalProperty(\r\n        uint256 rentalPropertyId\r\n    )\r\n        public\r\n        view\r\n        validRentalPropertyId(rentalPropertyId)\r\n        returns (rentalProperty memory)\r\n    {\r\n        return rentalProperties[rentalPropertyId];\r\n    }\r\n\r\n    //Function to get the location of a rental property\r\n    function getLocation(\r\n        uint256 rentalPropertyId\r\n    )\r\n        public\r\n        view\r\n        validRentalPropertyId(rentalPropertyId)\r\n        returns (string memory)\r\n    {\r\n        return rentalProperties[rentalPropertyId].location;\r\n    }\r\n\r\n    //Function to get the postal code of a rental property\r\n    function getPostalCode(\r\n        uint256 rentalPropertyId\r\n    )\r\n        public\r\n        view\r\n        validRentalPropertyId(rentalPropertyId)\r\n        returns (string memory)\r\n    {\r\n        return rentalProperties[rentalPropertyId].postalCode;\r\n    }\r\n\r\n    //Function to get the unit number of a rental property\r\n    function getUnitNumber(\r\n        uint256 rentalPropertyId\r\n    )\r\n        public\r\n        view\r\n        validRentalPropertyId(rentalPropertyId)\r\n        returns (string memory)\r\n    {\r\n        return rentalProperties[rentalPropertyId].unitNumber;\r\n    }\r\n\r\n    //Function to get the property type of a rental property\r\n    function getPropertyType(\r\n        uint256 rentalPropertyId\r\n    )\r\n        public\r\n        view\r\n        validRentalPropertyId(rentalPropertyId)\r\n        returns (PropertyType)\r\n    {\r\n        return rentalProperties[rentalPropertyId].propertyType;\r\n    }\r\n\r\n    //Function to get the description of a rental property\r\n    function getDescription(\r\n        uint256 rentalPropertyId\r\n    )\r\n        public\r\n        view\r\n        validRentalPropertyId(rentalPropertyId)\r\n        returns (string memory)\r\n    {\r\n        return rentalProperties[rentalPropertyId].description;\r\n    }\r\n\r\n    //Function to get the number of tenants in a rental property\r\n    function getNumOfTenants(\r\n        uint256 rentalPropertyId\r\n    ) public view validRentalPropertyId(rentalPropertyId) returns (uint256) {\r\n        return rentalProperties[rentalPropertyId].numOfTenants;\r\n    }\r\n\r\n    //Function to get the rental price of a rental property\r\n    function getRentalPrice(\r\n        uint256 rentalPropertyId\r\n    ) public view validRentalPropertyId(rentalPropertyId) returns (uint256) {\r\n        return rentalProperties[rentalPropertyId].rentalPrice;\r\n    }\r\n\r\n    //Function to get the lease duration of a rental property\r\n    function getLeaseDuration(\r\n        uint256 rentalPropertyId\r\n    ) public view validRentalPropertyId(rentalPropertyId) returns (uint256) {\r\n        return rentalProperties[rentalPropertyId].leaseDuration;\r\n    }\r\n\r\n    //Function to get the landlord of a rental property\r\n    function getLandlord(\r\n        uint256 rentalPropertyId\r\n    ) public view validRentalPropertyId(rentalPropertyId) returns (address) {\r\n        return rentalProperties[rentalPropertyId].landlord;\r\n    }\r\n\r\n    //Function to get the number of rental properties\r\n    function getNumRentalProperty() public view returns (uint256) {\r\n        return numRentalProperty;\r\n    }\r\n\r\n    //Function to get the update status of a rental property\r\n    function getUpdateStatus(uint256 rentalPropertyId)\r\n        public\r\n        view\r\n        validRentalPropertyId(rentalPropertyId)\r\n        returns (bool)\r\n    {\r\n        return rentalProperties[rentalPropertyId].updateStatus;\r\n    }\r\n\r\n    //Function to get the listed status of a rental property\r\n    function getListedStatus(uint256 rentalPropertyId)\r\n        public\r\n        view\r\n        validRentalPropertyId(rentalPropertyId)\r\n        returns (bool)\r\n    {\r\n        return rentalProperties[rentalPropertyId].isListed;\r\n    }\r\n\r\n    //Function to get all the rental properties (listed and unlisted)\r\n    function getAllRentalProperties()\r\n        public\r\n        view\r\n        returns (rentalProperty[] memory)\r\n    {\r\n        rentalProperty[] memory allRentalProperties = new rentalProperty[](numRentalProperty);\r\n        for (uint256 i = 0; i < numRentalProperty; i++) {\r\n            allRentalProperties[i] = rentalProperties[i];\r\n        }\r\n        return allRentalProperties;\r\n    }\r\n\r\n    //Function to get all the listed rental properties\r\n    function getAllListedRentalProperties()\r\n        public\r\n        view\r\n        returns (rentalProperty[] memory)\r\n    {\r\n        rentalProperty[] memory listedRentalProperties;\r\n        uint256 index = 0;\r\n        for (uint256 i = 0; i < numRentalProperty; i++) {\r\n            if (rentalProperties[i].isListed == true) {\r\n                listedRentalProperties[index] = rentalProperties[i];\r\n                index++;\r\n            }\r\n        }\r\n        return listedRentalProperties;\r\n    }\r\n\r\n    //Function to get all the unlisted rental properties\r\n    function getAllUnlistedRentalProperties()\r\n        public\r\n        view\r\n        returns (rentalProperty[] memory)\r\n    {\r\n        rentalProperty[] memory unlistedRentalProperties;\r\n        uint256 index = 0;\r\n        for (uint256 i = 0; i < numRentalProperty; i++) {\r\n            if (rentalProperties[i].isListed == false) {\r\n                unlistedRentalProperties[index] = rentalProperties[i];\r\n                index++;\r\n            }\r\n        }\r\n        return unlistedRentalProperties;\r\n    }\r\n\r\n    //Function to get all the rental properties of a landlord\r\n    function getLandlordRentalProperties(address landlord)\r\n        public\r\n        view\r\n        returns (rentalProperty[] memory)\r\n    {\r\n        return landlordRentalProperties[landlord];\r\n    }\r\n\r\n    //Function to get all the listed rental properties of a landlord\r\n    function getLandlordListedRentalProperties(address landlord)\r\n        public\r\n        view\r\n        returns (rentalProperty[] memory)\r\n    {\r\n        rentalProperty[] memory listedRentalProperties;\r\n        uint256 index = 0;\r\n        for (uint256 i = 0; i < landlordRentalProperties[landlord].length; i++) {\r\n            if (landlordRentalProperties[landlord][i].isListed == true) {\r\n                listedRentalProperties[index] = landlordRentalProperties[landlord][i];\r\n                index++;\r\n            }\r\n        }\r\n        return listedRentalProperties;\r\n    }\r\n\r\n    //Function to get all the unlisted rental properties of a landlord\r\n    function getLandlordUnlistedRentalProperties(address landlord)\r\n        public\r\n        view\r\n        returns (rentalProperty[] memory)\r\n    {\r\n        rentalProperty[] memory unlistedRentalProperties;\r\n        uint256 index = 0;\r\n        for (uint256 i = 0; i < landlordRentalProperties[landlord].length; i++) {\r\n            if (landlordRentalProperties[landlord][i].isListed == false) {\r\n                unlistedRentalProperties[index] = landlordRentalProperties[landlord][i];\r\n                index++;\r\n            }\r\n        }\r\n        return unlistedRentalProperties;\r\n    }\r\n\r\n    // ################################################### SETTER METHODS ################################################### //\r\n\r\n    //Function to update the location of a rental property\r\n    function updateLocation(\r\n        uint256 rentalPropertyId,\r\n        string memory newLocation\r\n    )\r\n        public\r\n        landlordOnly(rentalPropertyId)\r\n        validRentalPropertyId(rentalPropertyId)\r\n        validUpdateStatus(rentalPropertyId)\r\n    {\r\n        rentalProperties[rentalPropertyId].location = newLocation;\r\n        emit RentalPropertyUpdateLocation(rentalPropertyId, newLocation);\r\n    }\r\n\r\n    //Function to update the postal code of a rental property\r\n    function updatePostalCode(\r\n        uint256 rentalPropertyId,\r\n        string memory newPostalCode\r\n    )\r\n        public\r\n        landlordOnly(rentalPropertyId)\r\n        validRentalPropertyId(rentalPropertyId)\r\n        validUpdateStatus(rentalPropertyId)\r\n    {\r\n        rentalProperties[rentalPropertyId].postalCode = newPostalCode;\r\n        emit RentalPropertyUpdatePostalCode(rentalPropertyId, newPostalCode);\r\n    }\r\n\r\n    //Function to update the unit number of a rental property\r\n    function updateUnitNumber(\r\n        uint256 rentalPropertyId,\r\n        string memory newUnitNumber\r\n    )\r\n        public\r\n        landlordOnly(rentalPropertyId)\r\n        validRentalPropertyId(rentalPropertyId)\r\n        validUpdateStatus(rentalPropertyId)\r\n    {\r\n        rentalProperties[rentalPropertyId].unitNumber = newUnitNumber;\r\n        emit RentalPropertyUpdateUnitNumber(rentalPropertyId, newUnitNumber);\r\n    }\r\n\r\n    //Function to update the property type of a rental property\r\n    function updatePropertyType(\r\n        uint256 rentalPropertyId,\r\n        PropertyType newPropertyType\r\n    )\r\n        public\r\n        landlordOnly(rentalPropertyId)\r\n        validRentalPropertyId(rentalPropertyId)\r\n        validUpdateStatus(rentalPropertyId)\r\n    {\r\n        rentalProperties[rentalPropertyId].propertyType = newPropertyType;\r\n        emit RentalPropertyUpdatePropertyType(\r\n            rentalPropertyId,\r\n            newPropertyType\r\n        );\r\n    }\r\n\r\n    //Function to update the description of a rental property\r\n    function updateDescription(\r\n        uint256 rentalPropertyId,\r\n        string memory newDescription\r\n    )\r\n        public\r\n        landlordOnly(rentalPropertyId)\r\n        validRentalPropertyId(rentalPropertyId)\r\n        validUpdateStatus(rentalPropertyId)\r\n    {\r\n        rentalProperties[rentalPropertyId].description = newDescription;\r\n        emit RentalPropertyUpdateDescription(rentalPropertyId, newDescription);\r\n    }\r\n\r\n    //Function to update the number of tenants in a rental property\r\n    function updateNumOfTenants(\r\n        uint256 rentalPropertyId,\r\n        uint256 newNumOfTenants\r\n    )\r\n        public\r\n        landlordOnly(rentalPropertyId)\r\n        validRentalPropertyId(rentalPropertyId)\r\n        validNumOfTenants(newNumOfTenants)\r\n        validUpdateStatus(rentalPropertyId)\r\n    {\r\n        rentalProperties[rentalPropertyId].numOfTenants = newNumOfTenants;\r\n        emit RentalPropertyUpdateNumOfTenants(\r\n            rentalPropertyId,\r\n            newNumOfTenants\r\n        );\r\n    }\r\n\r\n    //Function to update the rental price of a rental property\r\n    function updateRentalPrice(\r\n        uint256 rentalPropertyId,\r\n        uint256 newRentalPrice\r\n    )\r\n        public\r\n        landlordOnly(rentalPropertyId)\r\n        validRentalPropertyId(rentalPropertyId)\r\n        validRentalPrice(newRentalPrice)\r\n        validUpdateStatus(rentalPropertyId)\r\n    {\r\n        rentalProperties[rentalPropertyId].rentalPrice = newRentalPrice;\r\n        emit RentalPropertyUpdateRentalPrice(rentalPropertyId, newRentalPrice);\r\n    }\r\n\r\n    //Function to update the lease duration of a rental property\r\n    function updateLeaseDuration(\r\n        uint256 rentalPropertyId,\r\n        uint256 newLeaseDuration\r\n    )\r\n        public\r\n        landlordOnly(rentalPropertyId)\r\n        validRentalPropertyId(rentalPropertyId)\r\n        validLeaseDuration(newLeaseDuration)\r\n        validUpdateStatus(rentalPropertyId)\r\n    {\r\n        rentalProperties[rentalPropertyId].leaseDuration = newLeaseDuration;\r\n        emit RentalPropertyUpdateLeaseDuration(\r\n            rentalPropertyId,\r\n            newLeaseDuration\r\n        );\r\n    }\r\n    \r\n    //Function to set the new update status of a rental property\r\n    //Not restricted to landlord as this function is used in RentalMarketplace to set the update status to false when there are tenants applications\r\n    function setUpdateStatus(\r\n        uint256 rentalPropertyId,\r\n        bool newUpdateStatus\r\n    ) public validRentalPropertyId(rentalPropertyId) {\r\n        rentalProperties[rentalPropertyId].updateStatus = newUpdateStatus;\r\n    }\r\n\r\n    //Function to set the new listed status of a rental property\r\n    //Not restricted to landlord as this function is used in RentalMarketplace to set the listed status to true when the rental property is listed\r\n    function setListedStatus(\r\n        uint256 rentalPropertyId,\r\n        bool newListedStatus\r\n    ) public validRentalPropertyId(rentalPropertyId) {\r\n        rentalProperties[rentalPropertyId].isListed = newListedStatus;\r\n    }\r\n\r\n    // ################################################### DELETE METHOD ################################################### //\r\n\r\n    //Function to delete a rental property\r\n    function deleteRentalProperty(\r\n        uint256 rentalPropertyId\r\n    )\r\n        public\r\n        landlordOnly(rentalPropertyId)\r\n        validRentalPropertyId(rentalPropertyId)\r\n        validUpdateStatus(rentalPropertyId)\r\n    {\r\n        // delete rental property from rentalProperties map\r\n        delete rentalProperties[rentalPropertyId];\r\n        // delete rental property from landlordRentalProperties map\r\n        landlordRentalProperties[msg.sender].pop(); \r\n        emit RentalPropertyDeleted(rentalPropertyId);\r\n    }\r\n}\r\n",
  "sourcePath": "C:\\Users\\Bransome Tan Yi Hao\\OneDrive - National University of Singapore\\Desktop\\IS4302\\is4302-project\\contracts\\RentalProperty.sol",
  "compiler": {
    "name": "solc",
    "version": "0.8.1+commit.df193b15.Emscripten.clang"
  },
  "schemaVersion": "3.4.16",
  "updatedAt": "2024-04-09T11:05:58.399Z",
  "devdoc": {
    "kind": "dev",
    "methods": {},
    "version": 1
  },
  "userdoc": {
    "kind": "user",
    "methods": {},
    "version": 1
  }
}