{
  "contractName": "RentalMarketplace",
  "abi": [
    {
      "inputs": [
        {
          "internalType": "address",
          "name": "rentalPropertyAddress",
          "type": "address"
        },
        {
          "internalType": "address",
          "name": "paymentEscrowAddress",
          "type": "address"
        }
      ],
      "stateMutability": "nonpayable",
      "type": "constructor"
    },
    {
      "anonymous": false,
      "inputs": [
        {
          "indexed": false,
          "internalType": "uint256",
          "name": "rentalPropertyId",
          "type": "uint256"
        },
        {
          "indexed": false,
          "internalType": "uint256",
          "name": "applicationId",
          "type": "uint256"
        }
      ],
      "name": "PaymentAccepted",
      "type": "event"
    },
    {
      "anonymous": false,
      "inputs": [
        {
          "indexed": false,
          "internalType": "uint256",
          "name": "rentalPropertyId",
          "type": "uint256"
        },
        {
          "indexed": false,
          "internalType": "uint256",
          "name": "applicationId",
          "type": "uint256"
        }
      ],
      "name": "PaymentMade",
      "type": "event"
    },
    {
      "anonymous": false,
      "inputs": [
        {
          "indexed": false,
          "internalType": "uint256",
          "name": "rentalPropertyId",
          "type": "uint256"
        },
        {
          "indexed": false,
          "internalType": "uint256",
          "name": "applicationId",
          "type": "uint256"
        }
      ],
      "name": "RentalApplicationAccepted",
      "type": "event"
    },
    {
      "anonymous": false,
      "inputs": [
        {
          "indexed": false,
          "internalType": "uint256",
          "name": "rentalPropertyId",
          "type": "uint256"
        },
        {
          "indexed": false,
          "internalType": "uint256",
          "name": "applicationId",
          "type": "uint256"
        }
      ],
      "name": "RentalApplicationRejected",
      "type": "event"
    },
    {
      "anonymous": false,
      "inputs": [
        {
          "indexed": false,
          "internalType": "uint256",
          "name": "rentalPropertyId",
          "type": "uint256"
        },
        {
          "indexed": false,
          "internalType": "uint256",
          "name": "applicationId",
          "type": "uint256"
        }
      ],
      "name": "RentalApplicationSubmitted",
      "type": "event"
    },
    {
      "anonymous": false,
      "inputs": [
        {
          "indexed": false,
          "internalType": "uint256",
          "name": "rentalPropertyId",
          "type": "uint256"
        },
        {
          "indexed": false,
          "internalType": "uint256",
          "name": "depositLeaseToken",
          "type": "uint256"
        }
      ],
      "name": "RentalPropertyAdded",
      "type": "event"
    },
    {
      "anonymous": false,
      "inputs": [
        {
          "indexed": false,
          "internalType": "uint256",
          "name": "rentalPropertyId",
          "type": "uint256"
        }
      ],
      "name": "RentalPropertyRemoved",
      "type": "event"
    },
    {
      "inputs": [
        {
          "internalType": "uint256",
          "name": "rentalPropertyId",
          "type": "uint256"
        },
        {
          "internalType": "uint256",
          "name": "depositLeaseToken",
          "type": "uint256"
        }
      ],
      "name": "listARentalProperty",
      "outputs": [],
      "stateMutability": "nonpayable",
      "type": "function"
    },
    {
      "inputs": [
        {
          "internalType": "uint256",
          "name": "rentalPropertyId",
          "type": "uint256"
        }
      ],
      "name": "unlistARentalProperty",
      "outputs": [],
      "stateMutability": "nonpayable",
      "type": "function"
    },
    {
      "inputs": [],
      "name": "viewListedRentalPropertiesById",
      "outputs": [
        {
          "internalType": "uint256[]",
          "name": "",
          "type": "uint256[]"
        }
      ],
      "stateMutability": "view",
      "type": "function"
    },
    {
      "inputs": [
        {
          "internalType": "uint256",
          "name": "rentalPropertyId",
          "type": "uint256"
        }
      ],
      "name": "viewRentalApplications",
      "outputs": [
        {
          "components": [
            {
              "internalType": "address",
              "name": "tenantAddress",
              "type": "address"
            },
            {
              "internalType": "string",
              "name": "tenantName",
              "type": "string"
            },
            {
              "internalType": "string",
              "name": "tenantEmail",
              "type": "string"
            },
            {
              "internalType": "string",
              "name": "tenantPhone",
              "type": "string"
            },
            {
              "internalType": "string",
              "name": "description",
              "type": "string"
            },
            {
              "internalType": "uint256",
              "name": "monthsPaid",
              "type": "uint256"
            },
            {
              "internalType": "enum RentalMarketplace.RentStatus",
              "name": "status",
              "type": "uint8"
            },
            {
              "internalType": "uint256[]",
              "name": "paymentIds",
              "type": "uint256[]"
            }
          ],
          "internalType": "struct RentalMarketplace.RentalApplication[]",
          "name": "",
          "type": "tuple[]"
        }
      ],
      "stateMutability": "view",
      "type": "function"
    },
    {
      "inputs": [
        {
          "internalType": "uint256",
          "name": "rentalPropertyId",
          "type": "uint256"
        },
        {
          "internalType": "string",
          "name": "tenantName",
          "type": "string"
        },
        {
          "internalType": "string",
          "name": "tenantEmail",
          "type": "string"
        },
        {
          "internalType": "string",
          "name": "tenantPhone",
          "type": "string"
        },
        {
          "internalType": "string",
          "name": "description",
          "type": "string"
        }
      ],
      "name": "applyRentalProperty",
      "outputs": [],
      "stateMutability": "nonpayable",
      "type": "function"
    },
    {
      "inputs": [
        {
          "internalType": "uint256",
          "name": "rentalPropertyId",
          "type": "uint256"
        },
        {
          "internalType": "uint256",
          "name": "applicationId",
          "type": "uint256"
        }
      ],
      "name": "rejectRentalApplication",
      "outputs": [],
      "stateMutability": "nonpayable",
      "type": "function"
    },
    {
      "inputs": [
        {
          "internalType": "uint256",
          "name": "rentalPropertyId",
          "type": "uint256"
        },
        {
          "internalType": "uint256",
          "name": "applicationId",
          "type": "uint256"
        }
      ],
      "name": "acceptRentalApplication",
      "outputs": [],
      "stateMutability": "nonpayable",
      "type": "function"
    },
    {
      "inputs": [
        {
          "internalType": "uint256",
          "name": "rentalPropertyId",
          "type": "uint256"
        },
        {
          "internalType": "uint256",
          "name": "applicationId",
          "type": "uint256"
        }
      ],
      "name": "makePayment",
      "outputs": [],
      "stateMutability": "nonpayable",
      "type": "function"
    },
    {
      "inputs": [
        {
          "internalType": "uint256",
          "name": "rentalPropertyId",
          "type": "uint256"
        },
        {
          "internalType": "uint256",
          "name": "applicationId",
          "type": "uint256"
        }
      ],
      "name": "acceptPayment",
      "outputs": [],
      "stateMutability": "nonpayable",
      "type": "function"
    },
    {
      "inputs": [],
      "name": "getNumOfListedRentalProperty",
      "outputs": [
        {
          "internalType": "uint256",
          "name": "",
          "type": "uint256"
        }
      ],
      "stateMutability": "view",
      "type": "function"
    },
    {
      "inputs": [
        {
          "internalType": "uint256",
          "name": "rentalPropertyId",
          "type": "uint256"
        },
        {
          "internalType": "uint256",
          "name": "applicationId",
          "type": "uint256"
        }
      ],
      "name": "getRentalApplication",
      "outputs": [
        {
          "components": [
            {
              "internalType": "address",
              "name": "tenantAddress",
              "type": "address"
            },
            {
              "internalType": "string",
              "name": "tenantName",
              "type": "string"
            },
            {
              "internalType": "string",
              "name": "tenantEmail",
              "type": "string"
            },
            {
              "internalType": "string",
              "name": "tenantPhone",
              "type": "string"
            },
            {
              "internalType": "string",
              "name": "description",
              "type": "string"
            },
            {
              "internalType": "uint256",
              "name": "monthsPaid",
              "type": "uint256"
            },
            {
              "internalType": "enum RentalMarketplace.RentStatus",
              "name": "status",
              "type": "uint8"
            },
            {
              "internalType": "uint256[]",
              "name": "paymentIds",
              "type": "uint256[]"
            }
          ],
          "internalType": "struct RentalMarketplace.RentalApplication",
          "name": "",
          "type": "tuple"
        }
      ],
      "stateMutability": "view",
      "type": "function"
    },
    {
      "inputs": [
        {
          "internalType": "uint256",
          "name": "rentalPropertyId",
          "type": "uint256"
        }
      ],
      "name": "getRentalApplicationCount",
      "outputs": [
        {
          "internalType": "uint256",
          "name": "",
          "type": "uint256"
        }
      ],
      "stateMutability": "view",
      "type": "function"
    },
    {
      "inputs": [
        {
          "internalType": "uint256",
          "name": "rentalPropertyId",
          "type": "uint256"
        },
        {
          "internalType": "address",
          "name": "tenantAddress",
          "type": "address"
        }
      ],
      "name": "getHasApplied",
      "outputs": [
        {
          "internalType": "bool",
          "name": "",
          "type": "bool"
        }
      ],
      "stateMutability": "view",
      "type": "function"
    },
    {
      "inputs": [
        {
          "internalType": "uint256",
          "name": "rentalPropertyId",
          "type": "uint256"
        }
      ],
      "name": "getListedRentalProperty",
      "outputs": [
        {
          "internalType": "uint256",
          "name": "",
          "type": "uint256"
        }
      ],
      "stateMutability": "view",
      "type": "function"
    },
    {
      "inputs": [],
      "name": "getRentalPropertyContractAddress",
      "outputs": [
        {
          "internalType": "address",
          "name": "",
          "type": "address"
        }
      ],
      "stateMutability": "view",
      "type": "function"
    },
    {
      "inputs": [],
      "name": "getPaymentEscrowContractAddress",
      "outputs": [
        {
          "internalType": "address",
          "name": "",
          "type": "address"
        }
      ],
      "stateMutability": "view",
      "type": "function"
    }
  ],
  "bytecode": "0x608060405260006002553480156200001657600080fd5b50604051620048333803806200483383398181016040528101906200003c9190620000dc565b816000806101000a81548173ffffffffffffffffffffffffffffffffffffffff021916908373ffffffffffffffffffffffffffffffffffffffff16021790555080600160006101000a81548173ffffffffffffffffffffffffffffffffffffffff021916908373ffffffffffffffffffffffffffffffffffffffff16021790555050506200016b565b600081519050620000d68162000151565b92915050565b60008060408385031215620000f057600080fd5b60006200010085828601620000c5565b92505060206200011385828601620000c5565b9150509250929050565b60006200012a8262000131565b9050919050565b600073ffffffffffffffffffffffffffffffffffffffff82169050919050565b6200015c816200011d565b81146200016857600080fd5b50565b6146b8806200017b6000396000f3fe608060405234801561001057600080fd5b50600436106101005760003560e01c80639e9a231511610097578063d53cdfdf11610066578063d53cdfdf146102bd578063e9abbb6b146102d9578063ed1da372146102f7578063fd3ae5461461031357610100565b80639e9a231514610225578063a8496cf914610241578063ae6b2d8714610271578063d390f974146102a157610100565b806337e4532f116100d357806337e4532f1461018d57806368c5bf1a146101a95780636dd223f2146101d95780637ba4c211146101f557610100565b80630bba023d146101055780631e6db40114610135578063224ba500146101515780632b1f7afb1461016f575b600080fd5b61011f600480360381019061011a919061359f565b610331565b60405161012c9190613f02565b60405180910390f35b61014f600480360381019061014a9190613704565b61034e565b005b6101596107ab565b6040516101669190613c8f565b60405180910390f35b6101776107d5565b6040516101849190613d03565b60405180910390f35b6101a760048036038101906101a29190613704565b6109c7565b005b6101c360048036038101906101be9190613704565b610be9565b6040516101d09190613ee0565b60405180910390f35b6101f360048036038101906101ee919061362d565b610fb0565b005b61020f600480360381019061020a919061359f565b6117cb565b60405161021c9190613f02565b60405180910390f35b61023f600480360381019061023a9190613704565b6117e8565b005b61025b600480360381019061025691906135f1565b611e0d565b6040516102689190613d25565b60405180910390f35b61028b6004803603810190610286919061359f565b611e75565b6040516102989190613ce1565b60405180910390f35b6102bb60048036038101906102b69190613704565b612456565b005b6102d760048036038101906102d29190613704565b612a94565b005b6102e1613070565b6040516102ee9190613f02565b60405180910390f35b610311600480360381019061030c919061359f565b61307a565b005b61031b6132ad565b6040516103289190613c8f565b60405180910390f35b600060056000838152602001908152602001600020549050919050565b8160008054906101000a900473ffffffffffffffffffffffffffffffffffffffff1673ffffffffffffffffffffffffffffffffffffffff1663502fb9fd826040518263ffffffff1660e01b81526004016103a89190613f02565b60206040518083038186803b1580156103c057600080fd5b505afa1580156103d4573d6000803e3d6000fd5b505050506040513d601f19601f820116820180604052508101906103f89190613576565b73ffffffffffffffffffffffffffffffffffffffff163373ffffffffffffffffffffffffffffffffffffffff1614610465576040517f08c379a000000000000000000000000000000000000000000000000000000000815260040161045c90613dc0565b60405180910390fd5b8282600073ffffffffffffffffffffffffffffffffffffffff1660046000848152602001908152602001600020600083815260200190815260200160002060000160009054906101000a900473ffffffffffffffffffffffffffffffffffffffff1673ffffffffffffffffffffffffffffffffffffffff16141561051e576040517f08c379a000000000000000000000000000000000000000000000000000000000815260040161051590613e80565b60405180910390fd5b84846000600381111561055a577f4e487b7100000000000000000000000000000000000000000000000000000000600052602160045260246000fd5b60046000848152602001908152602001600020600083815260200190815260200160002060060160009054906101000a900460ff1660038111156105c7577f4e487b7100000000000000000000000000000000000000000000000000000000600052602160045260246000fd5b14610607576040517f08c379a00000000000000000000000000000000000000000000000000000000081526004016105fe90613e40565b60405180910390fd5b60006004600089815260200190815260200160002060008881526020019081526020016000209050600160009054906101000a900473ffffffffffffffffffffffffffffffffffffffff1673ffffffffffffffffffffffffffffffffffffffff166337bdc99b82600701600184600701805490506106859190614075565b815481106106bc577f4e487b7100000000000000000000000000000000000000000000000000000000600052603260045260246000fd5b90600052602060002001546040518263ffffffff1660e01b81526004016106e39190613f02565b600060405180830381600087803b1580156106fd57600080fd5b505af1158015610711573d6000803e3d6000fd5b5050505060018160060160006101000a81548160ff02191690836003811115610763577f4e487b7100000000000000000000000000000000000000000000000000000000600052602160045260246000fd5b02179055507f442e20c6478bbe9858918a786d22ceed5c74da530b23fbad176dfce79bd9562f8888604051610799929190613f46565b60405180910390a15050505050505050565b6000600160009054906101000a900473ffffffffffffffffffffffffffffffffffffffff16905090565b606060006002541161081c576040517f08c379a000000000000000000000000000000000000000000000000000000000815260040161081390613e00565b60405180910390fd5b600060025467ffffffffffffffff811115610860577f4e487b7100000000000000000000000000000000000000000000000000000000600052604160045260246000fd5b60405190808252806020026020018201604052801561088e5781602001602082028036833780820191505090505b5090506000805b60008054906101000a900473ffffffffffffffffffffffffffffffffffffffff1673ffffffffffffffffffffffffffffffffffffffff1663e1ba0b806040518163ffffffff1660e01b815260040160206040518083038186803b1580156108fb57600080fd5b505afa15801561090f573d6000803e3d6000fd5b505050506040513d601f19601f8201168201806040525081019061093391906135c8565b8110156109be576000600360008381526020019081526020016000205411156109ab5780838381518110610990577f4e487b7100000000000000000000000000000000000000000000000000000000600052603260045260246000fd5b60200260200101818152505081806109a7906141e5565b9250505b80806109b6906141e5565b915050610895565b50819250505090565b816000600360008381526020019081526020016000205414610a1e576040517f08c379a0000000000000000000000000000000000000000000000000000000008152600401610a1590613e60565b60405180910390fd5b8160008111610a62576040517f08c379a0000000000000000000000000000000000000000000000000000000008152600401610a5990613ea0565b60405180910390fd5b8360008054906101000a900473ffffffffffffffffffffffffffffffffffffffff1673ffffffffffffffffffffffffffffffffffffffff1663502fb9fd826040518263ffffffff1660e01b8152600401610abc9190613f02565b60206040518083038186803b158015610ad457600080fd5b505afa158015610ae8573d6000803e3d6000fd5b505050506040513d601f19601f82011682018060405250810190610b0c9190613576565b73ffffffffffffffffffffffffffffffffffffffff163373ffffffffffffffffffffffffffffffffffffffff1614610b79576040517f08c379a0000000000000000000000000000000000000000000000000000000008152600401610b7090613dc0565b60405180910390fd5b83600360008781526020019081526020016000208190555060026000815480929190610ba4906141e5565b91905055507fd4bd0bef4588d67c5c137524864d39ffdd4fcb201a538ada2105351abde1f24a8585604051610bda929190613f46565b60405180910390a15050505050565b610bf16132d6565b600460008481526020019081526020016000206000838152602001908152602001600020604051806101000160405290816000820160009054906101000a900473ffffffffffffffffffffffffffffffffffffffff1673ffffffffffffffffffffffffffffffffffffffff1673ffffffffffffffffffffffffffffffffffffffff168152602001600182018054610c8790614182565b80601f0160208091040260200160405190810160405280929190818152602001828054610cb390614182565b8015610d005780601f10610cd557610100808354040283529160200191610d00565b820191906000526020600020905b815481529060010190602001808311610ce357829003601f168201915b50505050508152602001600282018054610d1990614182565b80601f0160208091040260200160405190810160405280929190818152602001828054610d4590614182565b8015610d925780601f10610d6757610100808354040283529160200191610d92565b820191906000526020600020905b815481529060010190602001808311610d7557829003601f168201915b50505050508152602001600382018054610dab90614182565b80601f0160208091040260200160405190810160405280929190818152602001828054610dd790614182565b8015610e245780601f10610df957610100808354040283529160200191610e24565b820191906000526020600020905b815481529060010190602001808311610e0757829003601f168201915b50505050508152602001600482018054610e3d90614182565b80601f0160208091040260200160405190810160405280929190818152602001828054610e6990614182565b8015610eb65780601f10610e8b57610100808354040283529160200191610eb6565b820191906000526020600020905b815481529060010190602001808311610e9957829003601f168201915b50505050508152602001600582015481526020016006820160009054906101000a900460ff166003811115610f14577f4e487b7100000000000000000000000000000000000000000000000000000000600052602160045260246000fd5b6003811115610f4c577f4e487b7100000000000000000000000000000000000000000000000000000000600052602160045260246000fd5b815260200160078201805480602002602001604051908101604052809291908181526020018280548015610f9f57602002820191906000526020600020905b815481526020019060010190808311610f8b575b505050505081525050905092915050565b846000600360008381526020019081526020016000205411611007576040517f08c379a0000000000000000000000000000000000000000000000000000000008152600401610ffe90613d80565b60405180910390fd5b8560008054906101000a900473ffffffffffffffffffffffffffffffffffffffff1673ffffffffffffffffffffffffffffffffffffffff16637735e668826040518263ffffffff1660e01b81526004016110619190613f02565b60206040518083038186803b15801561107957600080fd5b505afa15801561108d573d6000803e3d6000fd5b505050506040513d601f19601f820116820180604052508101906110b191906135c8565b600560008381526020019081526020016000205410611105576040517f08c379a00000000000000000000000000000000000000000000000000000000081526004016110fc90613de0565b60405180910390fd5b866006600082815260200190815260200160002060003373ffffffffffffffffffffffffffffffffffffffff1673ffffffffffffffffffffffffffffffffffffffff16815260200190815260200160002060009054906101000a900460ff16156111a4576040517f08c379a000000000000000000000000000000000000000000000000000000000815260040161119b90613e20565b60405180910390fd5b6000600560008a81526020019081526020016000205490506040518061010001604052803373ffffffffffffffffffffffffffffffffffffffff168152602001898152602001888152602001878152602001868152602001600081526020016000600381111561123d577f4e487b7100000000000000000000000000000000000000000000000000000000600052602160045260246000fd5b81526020016103e867ffffffffffffffff811115611284577f4e487b7100000000000000000000000000000000000000000000000000000000600052604160045260246000fd5b6040519080825280602002602001820160405280156112b25781602001602082028036833780820191505090505b50815250600460008b8152602001908152602001600020600083815260200190815260200160002060008201518160000160006101000a81548173ffffffffffffffffffffffffffffffffffffffff021916908373ffffffffffffffffffffffffffffffffffffffff160217905550602082015181600101908051906020019061133d929190613369565b50604082015181600201908051906020019061135a929190613369565b506060820151816003019080519060200190611377929190613369565b506080820151816004019080519060200190611394929190613369565b5060a0820151816005015560c08201518160060160006101000a81548160ff021916908360038111156113f0577f4e487b7100000000000000000000000000000000000000000000000000000000600052602160045260246000fd5b021790555060e08201518160070190805190602001906114119291906133ef565b50905050600560008a81526020019081526020016000206000815480929190611439906141e5565b91905055506001600660008b815260200190815260200160002060003373ffffffffffffffffffffffffffffffffffffffff1673ffffffffffffffffffffffffffffffffffffffff16815260200190815260200160002060006101000a81548160ff0219169083151502179055506000600360008b81526020019081526020016000205490506000600160009054906101000a900473ffffffffffffffffffffffffffffffffffffffff1673ffffffffffffffffffffffffffffffffffffffff1663794d0ed83360008054906101000a900473ffffffffffffffffffffffffffffffffffffffff1673ffffffffffffffffffffffffffffffffffffffff1663502fb9fd8f6040518263ffffffff1660e01b81526004016115599190613f02565b60206040518083038186803b15801561157157600080fd5b505afa158015611585573d6000803e3d6000fd5b505050506040513d601f19601f820116820180604052508101906115a99190613576565b856040518463ffffffff1660e01b81526004016115c893929190613caa565b602060405180830381600087803b1580156115e257600080fd5b505af11580156115f6573d6000803e3d6000fd5b505050506040513d601f19601f8201168201806040525081019061161a91906135c8565b9050600460008c81526020019081526020016000206000848152602001908152602001600020600701819080600181540180825580915050600190039060005260206000200160009091909190915055600160009054906101000a900473ffffffffffffffffffffffffffffffffffffffff1673ffffffffffffffffffffffffffffffffffffffff1663c290d691826040518263ffffffff1660e01b81526004016116c59190613f02565b600060405180830381600087803b1580156116df57600080fd5b505af11580156116f3573d6000803e3d6000fd5b5050505060008054906101000a900473ffffffffffffffffffffffffffffffffffffffff1673ffffffffffffffffffffffffffffffffffffffff1663c3b3f0d18c60006040518363ffffffff1660e01b8152600401611753929190613f1d565b600060405180830381600087803b15801561176d57600080fd5b505af1158015611781573d6000803e3d6000fd5b505050507f9d6c986964a80d9526a37c7cc81948200625f2bf8f0f9c9e8ab7b95c52a92c468b846040516117b6929190613f46565b60405180910390a15050505050505050505050565b600060036000838152602001908152602001600020549050919050565b8160008054906101000a900473ffffffffffffffffffffffffffffffffffffffff1673ffffffffffffffffffffffffffffffffffffffff1663502fb9fd826040518263ffffffff1660e01b81526004016118429190613f02565b60206040518083038186803b15801561185a57600080fd5b505afa15801561186e573d6000803e3d6000fd5b505050506040513d601f19601f820116820180604052508101906118929190613576565b73ffffffffffffffffffffffffffffffffffffffff163373ffffffffffffffffffffffffffffffffffffffff16146118ff576040517f08c379a00000000000000000000000000000000000000000000000000000000081526004016118f690613dc0565b60405180910390fd5b8282600073ffffffffffffffffffffffffffffffffffffffff1660046000848152602001908152602001600020600083815260200190815260200160002060000160009054906101000a900473ffffffffffffffffffffffffffffffffffffffff1673ffffffffffffffffffffffffffffffffffffffff1614156119b8576040517f08c379a00000000000000000000000000000000000000000000000000000000081526004016119af90613e80565b60405180910390fd5b8484600060038111156119f4577f4e487b7100000000000000000000000000000000000000000000000000000000600052602160045260246000fd5b60046000848152602001908152602001600020600083815260200190815260200160002060060160009054906101000a900460ff166003811115611a61577f4e487b7100000000000000000000000000000000000000000000000000000000600052602160045260246000fd5b14611aa1576040517f08c379a0000000000000000000000000000000000000000000000000000000008152600401611a9890613e40565b60405180910390fd5b60006004600089815260200190815260200160002060008881526020019081526020016000209050600160009054906101000a900473ffffffffffffffffffffffffffffffffffffffff1673ffffffffffffffffffffffffffffffffffffffff1663278ecde18260070160018460070180549050611b1f9190614075565b81548110611b56577f4e487b7100000000000000000000000000000000000000000000000000000000600052603260045260246000fd5b90600052602060002001546040518263ffffffff1660e01b8152600401611b7d9190613f02565b600060405180830381600087803b158015611b9757600080fd5b505af1158015611bab573d6000803e3d6000fd5b50505050600560008981526020019081526020016000206000815480929190611bd390614158565b91905055506000600660008a815260200190815260200160002060008360000160009054906101000a900473ffffffffffffffffffffffffffffffffffffffff1673ffffffffffffffffffffffffffffffffffffffff1673ffffffffffffffffffffffffffffffffffffffff16815260200190815260200160002060006101000a81548160ff021916908315150217905550600460008981526020019081526020016000206000888152602001908152602001600020600080820160006101000a81549073ffffffffffffffffffffffffffffffffffffffff0219169055600182016000611cc1919061343c565b600282016000611cd1919061343c565b600382016000611ce1919061343c565b600482016000611cf1919061343c565b60058201600090556006820160006101000a81549060ff0219169055600782016000611d1d919061347c565b50506000600560008a8152602001908152602001600020541415611dca5760008054906101000a900473ffffffffffffffffffffffffffffffffffffffff1673ffffffffffffffffffffffffffffffffffffffff1663c3b3f0d18960016040518363ffffffff1660e01b8152600401611d97929190613f1d565b600060405180830381600087803b158015611db157600080fd5b505af1158015611dc5573d6000803e3d6000fd5b505050505b7f02177d79b2521d397375b5d46ec1652144a43c6df6beaad2a14ccb953e5379938888604051611dfb929190613f46565b60405180910390a15050505050505050565b60006006600084815260200190815260200160002060008373ffffffffffffffffffffffffffffffffffffffff1673ffffffffffffffffffffffffffffffffffffffff16815260200190815260200160002060009054906101000a900460ff16905092915050565b60608160008054906101000a900473ffffffffffffffffffffffffffffffffffffffff1673ffffffffffffffffffffffffffffffffffffffff1663502fb9fd826040518263ffffffff1660e01b8152600401611ed19190613f02565b60206040518083038186803b158015611ee957600080fd5b505afa158015611efd573d6000803e3d6000fd5b505050506040513d601f19601f82011682018060405250810190611f219190613576565b73ffffffffffffffffffffffffffffffffffffffff163373ffffffffffffffffffffffffffffffffffffffff1614611f8e576040517f08c379a0000000000000000000000000000000000000000000000000000000008152600401611f8590613dc0565b60405180910390fd5b6000600560008581526020019081526020016000205467ffffffffffffffff811115611fe3577f4e487b7100000000000000000000000000000000000000000000000000000000600052604160045260246000fd5b60405190808252806020026020018201604052801561201c57816020015b6120096132d6565b8152602001906001900390816120015790505b50905060005b600560008681526020019081526020016000205481101561244b57600460008681526020019081526020016000206000828152602001908152602001600020604051806101000160405290816000820160009054906101000a900473ffffffffffffffffffffffffffffffffffffffff1673ffffffffffffffffffffffffffffffffffffffff1673ffffffffffffffffffffffffffffffffffffffff1681526020016001820180546120d390614182565b80601f01602080910402602001604051908101604052809291908181526020018280546120ff90614182565b801561214c5780601f106121215761010080835404028352916020019161214c565b820191906000526020600020905b81548152906001019060200180831161212f57829003601f168201915b5050505050815260200160028201805461216590614182565b80601f016020809104026020016040519081016040528092919081815260200182805461219190614182565b80156121de5780601f106121b3576101008083540402835291602001916121de565b820191906000526020600020905b8154815290600101906020018083116121c157829003601f168201915b505050505081526020016003820180546121f790614182565b80601f016020809104026020016040519081016040528092919081815260200182805461222390614182565b80156122705780601f1061224557610100808354040283529160200191612270565b820191906000526020600020905b81548152906001019060200180831161225357829003601f168201915b5050505050815260200160048201805461228990614182565b80601f01602080910402602001604051908101604052809291908181526020018280546122b590614182565b80156123025780601f106122d757610100808354040283529160200191612302565b820191906000526020600020905b8154815290600101906020018083116122e557829003601f168201915b50505050508152602001600582015481526020016006820160009054906101000a900460ff166003811115612360577f4e487b7100000000000000000000000000000000000000000000000000000000600052602160045260246000fd5b6003811115612398577f4e487b7100000000000000000000000000000000000000000000000000000000600052602160045260246000fd5b8152602001600782018054806020026020016040519081016040528092919081815260200182805480156123eb57602002820191906000526020600020905b8154815260200190600101908083116123d7575b50505050508152505082828151811061242d577f4e487b7100000000000000000000000000000000000000000000000000000000600052603260045260246000fd5b60200260200101819052508080612443906141e5565b915050612022565b508092505050919050565b8160006003600083815260200190815260200160002054116124ad576040517f08c379a00000000000000000000000000000000000000000000000000000000081526004016124a490613d80565b60405180910390fd5b826006600082815260200190815260200160002060003373ffffffffffffffffffffffffffffffffffffffff1673ffffffffffffffffffffffffffffffffffffffff16815260200190815260200160002060009054906101000a900460ff1661254b576040517f08c379a000000000000000000000000000000000000000000000000000000000815260040161254290613d60565b60405180910390fd5b8383600073ffffffffffffffffffffffffffffffffffffffff1660046000848152602001908152602001600020600083815260200190815260200160002060000160009054906101000a900473ffffffffffffffffffffffffffffffffffffffff1673ffffffffffffffffffffffffffffffffffffffff161415612604576040517f08c379a00000000000000000000000000000000000000000000000000000000081526004016125fb90613e80565b60405180910390fd5b858560016003811115612640577f4e487b7100000000000000000000000000000000000000000000000000000000600052602160045260246000fd5b60046000848152602001908152602001600020600083815260200190815260200160002060060160009054906101000a900460ff1660038111156126ad577f4e487b7100000000000000000000000000000000000000000000000000000000600052602160045260246000fd5b146126ed576040517f08c379a00000000000000000000000000000000000000000000000000000000081526004016126e490613da0565b60405180910390fd5b6000600460008a81526020019081526020016000206000898152602001908152602001600020905060008060009054906101000a900473ffffffffffffffffffffffffffffffffffffffff1673ffffffffffffffffffffffffffffffffffffffff1663e924e64a8b6040518263ffffffff1660e01b81526004016127719190613f02565b60206040518083038186803b15801561278957600080fd5b505afa15801561279d573d6000803e3d6000fd5b505050506040513d601f19601f820116820180604052508101906127c191906135c8565b90506000600160009054906101000a900473ffffffffffffffffffffffffffffffffffffffff1673ffffffffffffffffffffffffffffffffffffffff1663794d0ed83360008054906101000a900473ffffffffffffffffffffffffffffffffffffffff1673ffffffffffffffffffffffffffffffffffffffff1663502fb9fd8f6040518263ffffffff1660e01b815260040161285d9190613f02565b60206040518083038186803b15801561287557600080fd5b505afa158015612889573d6000803e3d6000fd5b505050506040513d601f19601f820116820180604052508101906128ad9190613576565b856040518463ffffffff1660e01b81526004016128cc93929190613caa565b602060405180830381600087803b1580156128e657600080fd5b505af11580156128fa573d6000803e3d6000fd5b505050506040513d601f19601f8201168201806040525081019061291e91906135c8565b9050600460008c815260200190815260200160002060008b8152602001908152602001600020600701819080600181540180825580915050600190039060005260206000200160009091909190915055600160009054906101000a900473ffffffffffffffffffffffffffffffffffffffff1673ffffffffffffffffffffffffffffffffffffffff1663c290d691826040518263ffffffff1660e01b81526004016129c99190613f02565b600060405180830381600087803b1580156129e357600080fd5b505af11580156129f7573d6000803e3d6000fd5b5050505060028360060160006101000a81548160ff02191690836003811115612a49577f4e487b7100000000000000000000000000000000000000000000000000000000600052602160045260246000fd5b02179055507f0e9e4ec6fa83fe2a2893fd5d6517a890df20f72cc0ba40495b21e65d122235038b8b604051612a7f929190613f46565b60405180910390a15050505050505050505050565b816000600360008381526020019081526020016000205411612aeb576040517f08c379a0000000000000000000000000000000000000000000000000000000008152600401612ae290613d80565b60405180910390fd5b8260008054906101000a900473ffffffffffffffffffffffffffffffffffffffff1673ffffffffffffffffffffffffffffffffffffffff1663502fb9fd826040518263ffffffff1660e01b8152600401612b459190613f02565b60206040518083038186803b158015612b5d57600080fd5b505afa158015612b71573d6000803e3d6000fd5b505050506040513d601f19601f82011682018060405250810190612b959190613576565b73ffffffffffffffffffffffffffffffffffffffff163373ffffffffffffffffffffffffffffffffffffffff1614612c02576040517f08c379a0000000000000000000000000000000000000000000000000000000008152600401612bf990613dc0565b60405180910390fd5b8383600073ffffffffffffffffffffffffffffffffffffffff1660046000848152602001908152602001600020600083815260200190815260200160002060000160009054906101000a900473ffffffffffffffffffffffffffffffffffffffff1673ffffffffffffffffffffffffffffffffffffffff161415612cbb576040517f08c379a0000000000000000000000000000000000000000000000000000000008152600401612cb290613e80565b60405180910390fd5b858560026003811115612cf7577f4e487b7100000000000000000000000000000000000000000000000000000000600052602160045260246000fd5b60046000848152602001908152602001600020600083815260200190815260200160002060060160009054906101000a900460ff166003811115612d64577f4e487b7100000000000000000000000000000000000000000000000000000000600052602160045260246000fd5b14612da4576040517f08c379a0000000000000000000000000000000000000000000000000000000008152600401612d9b90613d40565b60405180910390fd5b6000600460008a815260200190815260200160002060008981526020019081526020016000209050600160009054906101000a900473ffffffffffffffffffffffffffffffffffffffff1673ffffffffffffffffffffffffffffffffffffffff166337bdc99b8260070160018460070180549050612e229190614075565b81548110612e59577f4e487b7100000000000000000000000000000000000000000000000000000000600052603260045260246000fd5b90600052602060002001546040518263ffffffff1660e01b8152600401612e809190613f02565b600060405180830381600087803b158015612e9a57600080fd5b505af1158015612eae573d6000803e3d6000fd5b50505050806005016000815480929190612ec7906141e5565b919050555060008054906101000a900473ffffffffffffffffffffffffffffffffffffffff1673ffffffffffffffffffffffffffffffffffffffff1663aee781318a6040518263ffffffff1660e01b8152600401612f259190613f02565b60206040518083038186803b158015612f3d57600080fd5b505afa158015612f51573d6000803e3d6000fd5b505050506040513d601f19601f82011682018060405250810190612f7591906135c8565b81600501541415612fd85760038160060160006101000a81548160ff02191690836003811115612fce577f4e487b7100000000000000000000000000000000000000000000000000000000600052602160045260246000fd5b021790555061302c565b60018160060160006101000a81548160ff02191690836003811115613026577f4e487b7100000000000000000000000000000000000000000000000000000000600052602160045260246000fd5b02179055505b7f39f916cfa4e8a7f5d298df5a811d42bbbdfa00e81fdc65d937067ee18bfa2732898960405161305d929190613f46565b60405180910390a1505050505050505050565b6000600254905090565b8060006003600083815260200190815260200160002054116130d1576040517f08c379a00000000000000000000000000000000000000000000000000000000081526004016130c890613d80565b60405180910390fd5b8160008054906101000a900473ffffffffffffffffffffffffffffffffffffffff1673ffffffffffffffffffffffffffffffffffffffff1663502fb9fd826040518263ffffffff1660e01b815260040161312b9190613f02565b60206040518083038186803b15801561314357600080fd5b505afa158015613157573d6000803e3d6000fd5b505050506040513d601f19601f8201168201806040525081019061317b9190613576565b73ffffffffffffffffffffffffffffffffffffffff163373ffffffffffffffffffffffffffffffffffffffff16146131e8576040517f08c379a00000000000000000000000000000000000000000000000000000000081526004016131df90613dc0565b60405180910390fd5b82600060056000838152602001908152602001600020541461323f576040517f08c379a000000000000000000000000000000000000000000000000000000000815260040161323690613ec0565b60405180910390fd5b600060036000868152602001908152602001600020819055506002600081548092919061326b90614158565b91905055507f43ca60b84bd2894d454ba359dbd0caa4433de61eebd8acc8ec44b38bfb7a82798460405161329f9190613f02565b60405180910390a150505050565b60008060009054906101000a900473ffffffffffffffffffffffffffffffffffffffff16905090565b604051806101000160405280600073ffffffffffffffffffffffffffffffffffffffff16815260200160608152602001606081526020016060815260200160608152602001600081526020016000600381111561335c577f4e487b7100000000000000000000000000000000000000000000000000000000600052602160045260246000fd5b8152602001606081525090565b82805461337590614182565b90600052602060002090601f01602090048101928261339757600085556133de565b82601f106133b057805160ff19168380011785556133de565b828001600101855582156133de579182015b828111156133dd5782518255916020019190600101906133c2565b5b5090506133eb919061349d565b5090565b82805482825590600052602060002090810192821561342b579160200282015b8281111561342a57825182559160200191906001019061340f565b5b509050613438919061349d565b5090565b50805461344890614182565b6000825580601f1061345a5750613479565b601f016020900490600052602060002090810190613478919061349d565b5b50565b508054600082559060005260206000209081019061349a919061349d565b50565b5b808211156134b657600081600090555060010161349e565b5090565b60006134cd6134c884613f94565b613f6f565b9050828152602081018484840111156134e557600080fd5b6134f0848285614116565b509392505050565b60008135905061350781614654565b92915050565b60008151905061351c81614654565b92915050565b600082601f83011261353357600080fd5b81356135438482602086016134ba565b91505092915050565b60008135905061355b8161466b565b92915050565b6000815190506135708161466b565b92915050565b60006020828403121561358857600080fd5b60006135968482850161350d565b91505092915050565b6000602082840312156135b157600080fd5b60006135bf8482850161354c565b91505092915050565b6000602082840312156135da57600080fd5b60006135e884828501613561565b91505092915050565b6000806040838503121561360457600080fd5b60006136128582860161354c565b9250506020613623858286016134f8565b9150509250929050565b600080600080600060a0868803121561364557600080fd5b60006136538882890161354c565b955050602086013567ffffffffffffffff81111561367057600080fd5b61367c88828901613522565b945050604086013567ffffffffffffffff81111561369957600080fd5b6136a588828901613522565b935050606086013567ffffffffffffffff8111156136c257600080fd5b6136ce88828901613522565b925050608086013567ffffffffffffffff8111156136eb57600080fd5b6136f788828901613522565b9150509295509295909350565b6000806040838503121561371757600080fd5b60006137258582860161354c565b92505060206137368582860161354c565b9150509250929050565b600061374c8383613ad9565b905092915050565b60006137608383613c71565b60208301905092915050565b613775816140a9565b82525050565b613784816140a9565b82525050565b600061379582613fe5565b61379f8185614020565b9350836020820285016137b185613fc5565b8060005b858110156137ed57848403895281516137ce8582613740565b94506137d983614006565b925060208a019950506001810190506137b5565b50829750879550505050505092915050565b600061380a82613ff0565b6138148185614031565b935061381f83613fd5565b8060005b838110156138505781516138378882613754565b975061384283614013565b925050600181019050613823565b5085935050505092915050565b600061386882613ff0565b6138728185614042565b935061387d83613fd5565b8060005b838110156138ae5781516138958882613754565b97506138a083614013565b925050600181019050613881565b5085935050505092915050565b6138c4816140bb565b82525050565b6138d381614104565b82525050565b60006138e482613ffb565b6138ee8185614053565b93506138fe818560208601614125565b613907816142ea565b840191505092915050565b600061391f601b83614064565b915061392a826142fb565b602082019050919050565b6000613942602f83614064565b915061394d82614324565b604082019050919050565b6000613965601d83614064565b915061397082614373565b602082019050919050565b6000613988602183614064565b91506139938261439c565b604082019050919050565b60006139ab602583614064565b91506139b6826143eb565b604082019050919050565b60006139ce601783614064565b91506139d98261443a565b602082019050919050565b60006139f1601983614064565b91506139fc82614463565b602082019050919050565b6000613a14603383614064565b9150613a1f8261448c565b604082019050919050565b6000613a37602183614064565b9150613a42826144db565b604082019050919050565b6000613a5a602183614064565b9150613a658261452a565b604082019050919050565b6000613a7d602183614064565b9150613a8882614579565b604082019050919050565b6000613aa0602983614064565b9150613aab826145c8565b604082019050919050565b6000613ac3601d83614064565b9150613ace82614617565b602082019050919050565b600061010083016000830151613af2600086018261376c565b5060208301518482036020860152613b0a82826138d9565b91505060408301518482036040860152613b2482826138d9565b91505060608301518482036060860152613b3e82826138d9565b91505060808301518482036080860152613b5882826138d9565b91505060a0830151613b6d60a0860182613c71565b5060c0830151613b8060c08601826138ca565b5060e083015184820360e0860152613b9882826137ff565b9150508091505092915050565b600061010083016000830151613bbe600086018261376c565b5060208301518482036020860152613bd682826138d9565b91505060408301518482036040860152613bf082826138d9565b91505060608301518482036060860152613c0a82826138d9565b91505060808301518482036080860152613c2482826138d9565b91505060a0830151613c3960a0860182613c71565b5060c0830151613c4c60c08601826138ca565b5060e083015184820360e0860152613c6482826137ff565b9150508091505092915050565b613c7a816140fa565b82525050565b613c89816140fa565b82525050565b6000602082019050613ca4600083018461377b565b92915050565b6000606082019050613cbf600083018661377b565b613ccc602083018561377b565b613cd96040830184613c80565b949350505050565b60006020820190508181036000830152613cfb818461378a565b905092915050565b60006020820190508181036000830152613d1d818461385d565b905092915050565b6000602082019050613d3a60008301846138bb565b92915050565b60006020820190508181036000830152613d5981613912565b9050919050565b60006020820190508181036000830152613d7981613935565b9050919050565b60006020820190508181036000830152613d9981613958565b9050919050565b60006020820190508181036000830152613db98161397b565b9050919050565b60006020820190508181036000830152613dd98161399e565b9050919050565b60006020820190508181036000830152613df9816139c1565b9050919050565b60006020820190508181036000830152613e19816139e4565b9050919050565b60006020820190508181036000830152613e3981613a07565b9050919050565b60006020820190508181036000830152613e5981613a2a565b9050919050565b60006020820190508181036000830152613e7981613a4d565b9050919050565b60006020820190508181036000830152613e9981613a70565b9050919050565b60006020820190508181036000830152613eb981613a93565b9050919050565b60006020820190508181036000830152613ed981613ab6565b9050919050565b60006020820190508181036000830152613efa8184613ba5565b905092915050565b6000602082019050613f176000830184613c80565b92915050565b6000604082019050613f326000830185613c80565b613f3f60208301846138bb565b9392505050565b6000604082019050613f5b6000830185613c80565b613f686020830184613c80565b9392505050565b6000613f79613f8a565b9050613f8582826141b4565b919050565b6000604051905090565b600067ffffffffffffffff821115613faf57613fae6142bb565b5b613fb8826142ea565b9050602081019050919050565b6000819050602082019050919050565b6000819050602082019050919050565b600081519050919050565b600081519050919050565b600081519050919050565b6000602082019050919050565b6000602082019050919050565b600082825260208201905092915050565b600082825260208201905092915050565b600082825260208201905092915050565b600082825260208201905092915050565b600082825260208201905092915050565b6000614080826140fa565b915061408b836140fa565b92508282101561409e5761409d61422e565b5b828203905092915050565b60006140b4826140da565b9050919050565b60008115159050919050565b60008190506140d582614640565b919050565b600073ffffffffffffffffffffffffffffffffffffffff82169050919050565b6000819050919050565b600061410f826140c7565b9050919050565b82818337600083830152505050565b60005b83811015614143578082015181840152602081019050614128565b83811115614152576000848401525b50505050565b6000614163826140fa565b915060008214156141775761417661422e565b5b600182039050919050565b6000600282049050600182168061419a57607f821691505b602082108114156141ae576141ad61428c565b5b50919050565b6141bd826142ea565b810181811067ffffffffffffffff821117156141dc576141db6142bb565b5b80604052505050565b60006141f0826140fa565b91507fffffffffffffffffffffffffffffffffffffffffffffffffffffffffffffffff8214156142235761422261422e565b5b600182019050919050565b7f4e487b7100000000000000000000000000000000000000000000000000000000600052601160045260246000fd5b7f4e487b7100000000000000000000000000000000000000000000000000000000600052602160045260246000fd5b7f4e487b7100000000000000000000000000000000000000000000000000000000600052602260045260246000fd5b7f4e487b7100000000000000000000000000000000000000000000000000000000600052604160045260246000fd5b6000601f19601f8301169050919050565b7f54656e616e7420686173206e6f74206d616465207061796d656e740000000000600082015250565b7f54656e616e7420686173206e6f74206170706c69656420666f7220746869732060008201527f72656e74616c2070726f70657274790000000000000000000000000000000000602082015250565b7f52656e74616c2070726f7065727479206973206e6f74206c6973746564000000600082015250565b7f52656e74616c206170706c69636174696f6e206973206e6f74206f6e676f696e60008201527f6700000000000000000000000000000000000000000000000000000000000000602082015250565b7f4f6e6c79206c616e646c6f72642063616e20706572666f726d2074686973206160008201527f6374696f6e000000000000000000000000000000000000000000000000000000602082015250565b7f52656e74616c2070726f70657274792069732066756c6c000000000000000000600082015250565b7f4e6f2072656e74616c2070726f7065727479206c697374656400000000000000600082015250565b7f54656e616e742068617320616c7265616479206170706c69656420666f72207460008201527f6869732072656e74616c2070726f706572747900000000000000000000000000602082015250565b7f52656e74616c206170706c69636174696f6e206973206e6f742070656e64696e60008201527f6700000000000000000000000000000000000000000000000000000000000000602082015250565b7f52656e74616c2070726f706572747920697320616c7265616479206c6973746560008201527f6400000000000000000000000000000000000000000000000000000000000000602082015250565b7f52656e74616c206170706c69636174696f6e20646f6573206e6f74206578697360008201527f7400000000000000000000000000000000000000000000000000000000000000602082015250565b7f4465706f736974204c65617365546f6b656e206d75737420626520677265617460008201527f6572207468616e20300000000000000000000000000000000000000000000000602082015250565b7f52656e74616c2070726f7065727479206973206e6f7420766163616e74000000600082015250565b600481106146515761465061425d565b5b50565b61465d816140a9565b811461466857600080fd5b50565b614674816140fa565b811461467f57600080fd5b5056fea264697066735822122086e8e5652d64406562e682497a5a62111f3f5fb8ede50e8f5af39e8972df902e64736f6c63430008010033",
  "immutableReferences": {},
  "source": "// SPDX-License-Identifier: MIT\r\npragma solidity ^0.8.0;\r\n\r\nimport \"./RentalProperty.sol\";\r\nimport \"./PaymentEscrow.sol\";\r\n\r\ncontract RentalMarketplace {\r\n    // ################################################### STRUCTURE & STATE VARIABLES ################################################### //\r\n\r\n    enum RentStatus {\r\n        PENDING, // This is when a tenant apply for a rental property and waiting for landlord to accept\r\n        ONGOING, // This is when a tenant sign a rental agreement and the rental is ongoing\r\n        MADE_PAYMENT, // This is when the tenant paid for a monthly rent and waiting for landlord to accept\r\n        COMPLETED // This is when the rental is completed for the tenant (e.g. tenant move out and landlord return deposit if any)\r\n    }\r\n\r\n    struct RentalApplication {\r\n        address tenantAddress; // The tenant\r\n        string tenantName; // The tenant name\r\n        string tenantEmail; // The tenant email\r\n        string tenantPhone; // The tenant contact\r\n        string description; // The tenant description of why they want to rent the property\r\n        uint256 monthsPaid; // The number of months the tenant has paid\r\n        RentStatus status;\r\n        uint256[] paymentIds; // All the payment transaction ids by this tenant for the rental property\r\n    }\r\n\r\n    RentalProperty rentalPropertyContract;\r\n    PaymentEscrow paymentEscrowContract;\r\n\r\n    // The number of rental properties listed in the marketplace\r\n    uint256 private numOfListedRentalProperty = 0;\r\n\r\n    // This is mapping of RentalProperty id to the downpayment/deposit of the property\r\n    mapping(uint256 => uint256) private listRentalProperty;\r\n    // This is mapping of RentalProperty id to the (RentalApplication id to RentalApplication struct) mapping\r\n    mapping(uint256 => mapping(uint256 => RentalApplication))\r\n        private rentalApplications;\r\n    // This is to keep track of the number of applications for a rental property (RentalProperty id to number of applications mapping)\r\n    mapping(uint256 => uint256) private rentalApplicationCounts;\r\n    // This is to keep track if a tenant has already applied for a rental property\r\n    mapping(uint256 => mapping(address => bool)) private hasApplied;\r\n\r\n    constructor(address rentalPropertyAddress, address paymentEscrowAddress) {\r\n        rentalPropertyContract = RentalProperty(rentalPropertyAddress);\r\n        paymentEscrowContract = PaymentEscrow(paymentEscrowAddress);\r\n    }\r\n\r\n    // ################################################### EVENTS ################################################### //\r\n\r\n    event RentalPropertyAdded(\r\n        uint256 rentalPropertyId,\r\n        uint256 depositLeaseToken\r\n    );\r\n    event RentalPropertyRemoved(uint256 rentalPropertyId);\r\n    event RentalApplicationSubmitted(\r\n        uint256 rentalPropertyId,\r\n        uint256 applicationId\r\n    );\r\n    event RentalApplicationRejected(\r\n        uint256 rentalPropertyId,\r\n        uint256 applicationId\r\n    );\r\n    event RentalApplicationAccepted(\r\n        uint256 rentalPropertyId,\r\n        uint256 applicationId\r\n    );\r\n    event PaymentMade(uint256 rentalPropertyId, uint256 applicationId);\r\n    event PaymentAccepted(uint256 rentalPropertyId, uint256 applicationId);\r\n\r\n    // ################################################### MODIFIERS ################################################### //\r\n\r\n    // Modifier to check the landlord is the owner of the rental property\r\n    modifier landlordOnly(uint256 rentalPropertyId) {\r\n        require(\r\n            msg.sender == rentalPropertyContract.getLandlord(rentalPropertyId),\r\n            \"Only landlord can perform this action\"\r\n        );\r\n        _;\r\n    }\r\n\r\n    // Modifier to check the rental property is listed\r\n    modifier rentalPropertyListed(uint256 rentalPropertyId) {\r\n        require(\r\n            listRentalProperty[rentalPropertyId] > 0,\r\n            \"Rental property is not listed\"\r\n        );\r\n        _;\r\n    }\r\n\r\n    // Modifier to check the rental property is not listed\r\n    modifier rentalPropertyNotListed(uint256 rentalPropertyId) {\r\n        require(\r\n            listRentalProperty[rentalPropertyId] == 0,\r\n            \"Rental property is already listed\"\r\n        );\r\n        _;\r\n    }\r\n\r\n    modifier rentalApplicationExist(\r\n        uint256 rentalPropertyId,\r\n        uint256 applicationId\r\n    ) {\r\n        require(\r\n            rentalApplications[rentalPropertyId][applicationId].tenantAddress !=\r\n                address(0),\r\n            \"Rental application does not exist\"\r\n        );\r\n        _;\r\n    }\r\n\r\n    // Modifier to check the rental application is pending\r\n    modifier rentalApplicationPending(\r\n        uint256 rentalPropertyId,\r\n        uint256 applicationId\r\n    ) {\r\n        require(\r\n            rentalApplications[rentalPropertyId][applicationId].status ==\r\n                RentStatus.PENDING,\r\n            \"Rental application is not pending\"\r\n        );\r\n        _;\r\n    }\r\n\r\n    // Modifier to check the rental application is ongoing\r\n    modifier rentalApplicationOngoing(\r\n        uint256 rentalPropertyId,\r\n        uint256 applicationId\r\n    ) {\r\n        require(\r\n            rentalApplications[rentalPropertyId][applicationId].status ==\r\n                RentStatus.ONGOING,\r\n            \"Rental application is not ongoing\"\r\n        );\r\n        _;\r\n    }\r\n\r\n    // Modifier to check the rental application is made payment\r\n    modifier rentalApplicationMadePayment(\r\n        uint256 rentalPropertyId,\r\n        uint256 applicationId\r\n    ) {\r\n        require(\r\n            rentalApplications[rentalPropertyId][applicationId].status ==\r\n                RentStatus.MADE_PAYMENT,\r\n            \"Tenant has not made payment\"\r\n        );\r\n        _;\r\n    }\r\n\r\n    // Modifier to check the rental application is completed\r\n    modifier rentalApplicationCompleted(\r\n        uint256 rentalPropertyId,\r\n        uint256 applicationId\r\n    ) {\r\n        require(\r\n            rentalApplications[rentalPropertyId][applicationId].status ==\r\n                RentStatus.COMPLETED,\r\n            \"Rental application is not completed\"\r\n        );\r\n        _;\r\n    }\r\n\r\n    // Modifier to check the rental property is vacant\r\n    modifier rentalPropertyVacant(uint256 rentalPropertyId) {\r\n        require(\r\n            rentalApplicationCounts[rentalPropertyId] == 0,\r\n            \"Rental property is not vacant\"\r\n        );\r\n        _;\r\n    }\r\n\r\n    // Modifier to check the number of rental applications is less than the number of tenants\r\n    modifier rentalPropertyNotFull(uint256 rentalPropertyId) {\r\n        require(\r\n            rentalApplicationCounts[rentalPropertyId] <\r\n                rentalPropertyContract.getNumOfTenants(rentalPropertyId),\r\n            \"Rental property is full\"\r\n        );\r\n        _;\r\n    }\r\n\r\n    // Modifier to check the rental property is full\r\n    modifier rentalPropertyFull(uint256 rentalPropertyId) {\r\n        require(\r\n            rentalApplicationCounts[rentalPropertyId] ==\r\n                rentalPropertyContract.getNumOfTenants(rentalPropertyId),\r\n            \"Rental property is not full\"\r\n        );\r\n        _;\r\n    }\r\n\r\n    // Modifier to check the tenant has not applied for the rental property\r\n    modifier tenantNotApplied(uint256 rentalPropertyId) {\r\n        require(\r\n            !hasApplied[rentalPropertyId][msg.sender],\r\n            \"Tenant has already applied for this rental property\"\r\n        );\r\n        _;\r\n    }\r\n\r\n    // Modifier to check the tenant has applied for the rental property\r\n    modifier tenantApplied(uint256 rentalPropertyId) {\r\n        require(\r\n            hasApplied[rentalPropertyId][msg.sender],\r\n            \"Tenant has not applied for this rental property\"\r\n        );\r\n        _;\r\n    }\r\n\r\n    // Modifier to check Deposit LeaseToken is greater than 0\r\n    modifier depositLeaseTokenGreaterThanZero(uint256 depositLeaseToken) {\r\n        require(\r\n            depositLeaseToken > 0,\r\n            \"Deposit LeaseToken must be greater than 0\"\r\n        );\r\n        _;\r\n    }\r\n\r\n    // ################################################### FUNCTIONS ################################################### //\r\n\r\n    //Landlord can list a rental property to the marketplace to start accepting tenants.\r\n    function listARentalProperty(\r\n        uint256 rentalPropertyId,\r\n        uint256 depositLeaseToken\r\n    )\r\n        public\r\n        rentalPropertyNotListed(rentalPropertyId)\r\n        depositLeaseTokenGreaterThanZero(depositLeaseToken)\r\n        landlordOnly(rentalPropertyId)\r\n    {\r\n        listRentalProperty[rentalPropertyId] = depositLeaseToken;\r\n        numOfListedRentalProperty++;\r\n        emit RentalPropertyAdded(rentalPropertyId, depositLeaseToken);\r\n    }\r\n\r\n    //Landlord can unlist a rental property from the marketplace to stop accepting tenants.\r\n    function unlistARentalProperty(\r\n        uint256 rentalPropertyId\r\n    )\r\n        public\r\n        rentalPropertyListed(rentalPropertyId)\r\n        landlordOnly(rentalPropertyId)\r\n        rentalPropertyVacant(rentalPropertyId)\r\n    {\r\n        listRentalProperty[rentalPropertyId] = 0;\r\n        numOfListedRentalProperty--;\r\n        emit RentalPropertyRemoved(rentalPropertyId);\r\n    }\r\n\r\n    //Tenant can view all listed rental properties (By Id) in the marketplace.\r\n    function viewListedRentalPropertiesById()\r\n        public\r\n        view\r\n        returns (uint256[] memory)\r\n    {\r\n        require(numOfListedRentalProperty > 0, \"No rental property listed\");\r\n        uint256[] memory rentalProperties = new uint256[](\r\n            numOfListedRentalProperty\r\n        );\r\n        uint256 index = 0;\r\n        for (\r\n            uint256 i = 0;\r\n            i < rentalPropertyContract.getNumRentalProperty();\r\n            i++\r\n        ) {\r\n            // Check if the rental property is listed\r\n            if (listRentalProperty[i] > 0) {\r\n                rentalProperties[index] = i;\r\n                index++;\r\n            }\r\n        }\r\n        return rentalProperties;\r\n    }\r\n\r\n    //Landlord can view all rental applications for a rental property.\r\n    function viewRentalApplications(\r\n        uint256 rentalPropertyId\r\n    )\r\n        public\r\n        view\r\n        landlordOnly(rentalPropertyId)\r\n        returns (RentalApplication[] memory)\r\n    {\r\n        RentalApplication[] memory applications = new RentalApplication[](\r\n            rentalApplicationCounts[rentalPropertyId]\r\n        );\r\n        for (\r\n            uint256 i = 0;\r\n            i < rentalApplicationCounts[rentalPropertyId];\r\n            i++\r\n        ) {\r\n            applications[i] = rentalApplications[rentalPropertyId][i];\r\n        }\r\n        return applications;\r\n    }\r\n\r\n    //Tenant can apply for a rental property by submitting a rental application.\r\n    //Tenant must initially pay the deposit (LeaseToken) for the rental property to the PaymentEscrow contract.\r\n    //Deposit will be returned to the tenant if the rental application is rejected.\r\n    function applyRentalProperty(\r\n        uint256 rentalPropertyId,\r\n        string memory tenantName,\r\n        string memory tenantEmail,\r\n        string memory tenantPhone,\r\n        string memory description\r\n    )\r\n        public\r\n        rentalPropertyListed(rentalPropertyId)\r\n        rentalPropertyNotFull(rentalPropertyId)\r\n        tenantNotApplied(rentalPropertyId)\r\n    {\r\n        uint256 applicationId = rentalApplicationCounts[rentalPropertyId];\r\n        rentalApplications[rentalPropertyId][applicationId] = RentalApplication(\r\n            msg.sender,\r\n            tenantName,\r\n            tenantEmail,\r\n            tenantPhone,\r\n            description,\r\n            0,\r\n            RentStatus.PENDING,\r\n            new uint256[](1000) // Limit of 1000 payment transactions\r\n        );\r\n        rentalApplicationCounts[rentalPropertyId]++;\r\n        hasApplied[rentalPropertyId][msg.sender] = true;\r\n\r\n        // Deposit LeaseToken required for the rental property\r\n        uint256 depositLeaseToken = listRentalProperty[rentalPropertyId];\r\n        // Create a payment transaction for the tenant\r\n        uint256 paymentId = paymentEscrowContract.createPayment(\r\n            msg.sender,\r\n            rentalPropertyContract.getLandlord(rentalPropertyId),\r\n            depositLeaseToken\r\n        );\r\n        // Add the payment transaction id to the rental application\r\n        rentalApplications[rentalPropertyId][applicationId].paymentIds.push(\r\n            paymentId\r\n        );\r\n        // Tenant pay/transfer the deposit (LeaseToken) for the rental property to the PaymentEscrow contract\r\n        paymentEscrowContract.pay(paymentId);\r\n\r\n        // Landlord cannot update the rental property while there is an ongoing application\r\n        rentalPropertyContract.setUpdateStatus(rentalPropertyId, false);\r\n        emit RentalApplicationSubmitted(rentalPropertyId, applicationId);\r\n    }\r\n\r\n    // Landlord can reject a rental application.\r\n    function rejectRentalApplication(\r\n        uint256 rentalPropertyId,\r\n        uint256 applicationId\r\n    )\r\n        public\r\n        landlordOnly(rentalPropertyId)\r\n        rentalApplicationExist(rentalPropertyId, applicationId)\r\n        rentalApplicationPending(rentalPropertyId, applicationId)\r\n    {\r\n        RentalApplication storage rentalApplication = rentalApplications[\r\n            rentalPropertyId\r\n        ][applicationId];\r\n\r\n        // Refund the deposit (LeaseToken) to the tenant if the rental application is rejected (latest payment transaction id)\r\n        paymentEscrowContract.refund(\r\n            rentalApplication.paymentIds[\r\n                rentalApplication.paymentIds.length - 1\r\n            ]\r\n        );\r\n\r\n        // Application count is reduced by 1\r\n        rentalApplicationCounts[rentalPropertyId]--;\r\n        // Tenant can reapply for the rental property\r\n        hasApplied[rentalPropertyId][rentalApplication.tenantAddress] = false;\r\n        // Remove the rental application\r\n        delete rentalApplications[rentalPropertyId][applicationId];\r\n\r\n        if (rentalApplicationCounts[rentalPropertyId] == 0) {\r\n            // Landlord can re-update the rental property if there is no ongoing application\r\n            rentalPropertyContract.setUpdateStatus(rentalPropertyId, true);\r\n        }\r\n        emit RentalApplicationRejected(rentalPropertyId, applicationId);\r\n    }\r\n\r\n    //Landlord can accept a rental application to start the rental process.\r\n    function acceptRentalApplication(\r\n        uint256 rentalPropertyId,\r\n        uint256 applicationId\r\n    )\r\n        public\r\n        landlordOnly(rentalPropertyId)\r\n        rentalApplicationExist(rentalPropertyId, applicationId)\r\n        rentalApplicationPending(rentalPropertyId, applicationId)\r\n    {\r\n        RentalApplication storage rentalApplication = rentalApplications[\r\n            rentalPropertyId\r\n        ][applicationId];\r\n\r\n        // Release the deposit (LeaseToken) to the landlord if the rental application is accepted (latest payment transaction id)\r\n        paymentEscrowContract.release(\r\n            rentalApplication.paymentIds[\r\n                rentalApplication.paymentIds.length - 1\r\n            ]\r\n        );\r\n\r\n        rentalApplication.status = RentStatus.ONGOING;\r\n        emit RentalApplicationAccepted(rentalPropertyId, applicationId);\r\n    }\r\n\r\n    //Tenant can make a payment for the rental property.\r\n    function makePayment(\r\n        uint256 rentalPropertyId,\r\n        uint256 applicationId\r\n    )\r\n        public\r\n        rentalPropertyListed(rentalPropertyId)\r\n        tenantApplied(rentalPropertyId)\r\n        rentalApplicationExist(rentalPropertyId, applicationId)\r\n        rentalApplicationOngoing(rentalPropertyId, applicationId)\r\n    {\r\n        RentalApplication storage rentalApplication = rentalApplications[\r\n            rentalPropertyId\r\n        ][applicationId];\r\n\r\n        // Monthly rent required for the rental property\r\n        uint256 monthlyRent = rentalPropertyContract.getRentalPrice(\r\n            rentalPropertyId\r\n        );\r\n        // Create a payment transaction for the tenant\r\n        uint256 paymentId = paymentEscrowContract.createPayment(\r\n            msg.sender,\r\n            rentalPropertyContract.getLandlord(rentalPropertyId),\r\n            monthlyRent\r\n        );\r\n        // Add the payment transaction id to the rental application\r\n        rentalApplications[rentalPropertyId][applicationId].paymentIds.push(\r\n            paymentId\r\n        );\r\n        // Tenant pay/transfer the monthly rent for the rental property to the PaymentEscrow contract\r\n        paymentEscrowContract.pay(paymentId);\r\n\r\n        rentalApplication.status = RentStatus.MADE_PAYMENT;\r\n        emit PaymentMade(rentalPropertyId, applicationId);\r\n    }\r\n\r\n    //Landlord can accept a payment from a tenant.\r\n    function acceptPayment(\r\n        uint256 rentalPropertyId,\r\n        uint256 applicationId\r\n    )\r\n        public\r\n        rentalPropertyListed(rentalPropertyId)\r\n        landlordOnly(rentalPropertyId)\r\n        rentalApplicationExist(rentalPropertyId, applicationId)\r\n        rentalApplicationMadePayment(rentalPropertyId, applicationId)\r\n    {\r\n        RentalApplication storage rentalApplication = rentalApplications[\r\n            rentalPropertyId\r\n        ][applicationId];\r\n\r\n        // Release the monthly rent to the landlord if the payment is accepted (latest payment transaction id)\r\n        paymentEscrowContract.release(\r\n            rentalApplication.paymentIds[\r\n                rentalApplication.paymentIds.length - 1\r\n            ]\r\n        );\r\n\r\n        rentalApplication.monthsPaid++;\r\n\r\n        // Check if the rental is completed for the tenant (e.g. tenant move out and landlord return deposit if any), else the rental is ongoing\r\n        if (\r\n            rentalApplication.monthsPaid ==\r\n            rentalPropertyContract.getLeaseDuration(rentalPropertyId)\r\n        ) {\r\n            rentalApplication.status = RentStatus.COMPLETED;\r\n        } else {\r\n            rentalApplication.status = RentStatus.ONGOING;\r\n        }\r\n\r\n        emit PaymentAccepted(rentalPropertyId, applicationId);\r\n    }\r\n\r\n    // ################################################### GETTER METHODS ################################################### //\r\n\r\n    //Get the number of listed rental properties in the marketplace.\r\n    function getNumOfListedRentalProperty() public view returns (uint256) {\r\n        return numOfListedRentalProperty;\r\n    }\r\n\r\n    //Get the rental application details for a rental property.\r\n    function getRentalApplication(\r\n        uint256 rentalPropertyId,\r\n        uint256 applicationId\r\n    ) public view returns (RentalApplication memory) {\r\n        return rentalApplications[rentalPropertyId][applicationId];\r\n    }\r\n\r\n    //Get the number of rental applications for a rental property.\r\n    function getRentalApplicationCount(\r\n        uint256 rentalPropertyId\r\n    ) public view returns (uint256) {\r\n        return rentalApplicationCounts[rentalPropertyId];\r\n    }\r\n\r\n    //Check if a tenant has applied for a rental property.\r\n    function getHasApplied(\r\n        uint256 rentalPropertyId,\r\n        address tenantAddress\r\n    ) public view returns (bool) {\r\n        return hasApplied[rentalPropertyId][tenantAddress];\r\n    }\r\n\r\n    //Get the deposit required for a rental property.\r\n    function getListedRentalProperty(\r\n        uint256 rentalPropertyId\r\n    ) public view returns (uint256) {\r\n        return listRentalProperty[rentalPropertyId];\r\n    }\r\n\r\n    //Get the address of the RentalProperty contract.\r\n    function getRentalPropertyContractAddress() public view returns (address) {\r\n        return address(rentalPropertyContract);\r\n    }\r\n\r\n    //Get the address of the PaymentEscrow contract.\r\n    function getPaymentEscrowContractAddress() public view returns (address) {\r\n        return address(paymentEscrowContract);\r\n    }\r\n    \r\n}\r\n",
  "sourcePath": "C:\\Users\\Bransome Tan Yi Hao\\OneDrive - National University of Singapore\\Desktop\\IS4302\\is4302-project\\contracts\\RentalMarketplace.sol",
  "compiler": {
    "name": "solc",
    "version": "0.8.1+commit.df193b15.Emscripten.clang"
  },
  "schemaVersion": "3.4.16",
  "updatedAt": "2024-04-06T16:08:11.368Z",
  "devdoc": {
    "kind": "dev",
    "methods": {},
    "version": 1
  },
  "userdoc": {
    "kind": "user",
    "methods": {},
    "version": 1
  }
}