{
  "contractName": "RentalProperty",
  "abi": [
    {
      "anonymous": false,
      "inputs": [
        {
          "indexed": false,
          "internalType": "uint256",
          "name": "rentalPropertyId",
          "type": "uint256"
        },
        {
          "indexed": false,
          "internalType": "string",
          "name": "location",
          "type": "string"
        },
        {
          "indexed": false,
          "internalType": "string",
          "name": "postalCode",
          "type": "string"
        },
        {
          "indexed": false,
          "internalType": "string",
          "name": "unitNumber",
          "type": "string"
        },
        {
          "indexed": false,
          "internalType": "enum RentalProperty.PropertyType",
          "name": "propertyType",
          "type": "uint8"
        },
        {
          "indexed": false,
          "internalType": "string",
          "name": "description",
          "type": "string"
        },
        {
          "indexed": false,
          "internalType": "uint256",
          "name": "numOfTenants",
          "type": "uint256"
        },
        {
          "indexed": false,
          "internalType": "uint256",
          "name": "rentalPrice",
          "type": "uint256"
        },
        {
          "indexed": false,
          "internalType": "uint256",
          "name": "leaseDuration",
          "type": "uint256"
        },
        {
          "indexed": false,
          "internalType": "address",
          "name": "landlord",
          "type": "address"
        },
        {
          "indexed": false,
          "internalType": "bool",
          "name": "updateStatus",
          "type": "bool"
        },
        {
          "indexed": false,
          "internalType": "bool",
          "name": "isListed",
          "type": "bool"
        }
      ],
      "name": "RentalPropertyCreated",
      "type": "event"
    },
    {
      "anonymous": false,
      "inputs": [
        {
          "indexed": false,
          "internalType": "uint256",
          "name": "rentalPropertyId",
          "type": "uint256"
        }
      ],
      "name": "RentalPropertyDeleted",
      "type": "event"
    },
    {
      "anonymous": false,
      "inputs": [
        {
          "indexed": false,
          "internalType": "uint256",
          "name": "rentalPropertyId",
          "type": "uint256"
        },
        {
          "indexed": false,
          "internalType": "string",
          "name": "newDescription",
          "type": "string"
        }
      ],
      "name": "RentalPropertyUpdateDescription",
      "type": "event"
    },
    {
      "anonymous": false,
      "inputs": [
        {
          "indexed": false,
          "internalType": "uint256",
          "name": "rentalPropertyId",
          "type": "uint256"
        },
        {
          "indexed": false,
          "internalType": "uint256",
          "name": "newLeaseDuration",
          "type": "uint256"
        }
      ],
      "name": "RentalPropertyUpdateLeaseDuration",
      "type": "event"
    },
    {
      "anonymous": false,
      "inputs": [
        {
          "indexed": false,
          "internalType": "uint256",
          "name": "rentalPropertyId",
          "type": "uint256"
        },
        {
          "indexed": false,
          "internalType": "string",
          "name": "newLocation",
          "type": "string"
        }
      ],
      "name": "RentalPropertyUpdateLocation",
      "type": "event"
    },
    {
      "anonymous": false,
      "inputs": [
        {
          "indexed": false,
          "internalType": "uint256",
          "name": "rentalPropertyId",
          "type": "uint256"
        },
        {
          "indexed": false,
          "internalType": "uint256",
          "name": "newNumOfTenants",
          "type": "uint256"
        }
      ],
      "name": "RentalPropertyUpdateNumOfTenants",
      "type": "event"
    },
    {
      "anonymous": false,
      "inputs": [
        {
          "indexed": false,
          "internalType": "uint256",
          "name": "rentalPropertyId",
          "type": "uint256"
        },
        {
          "indexed": false,
          "internalType": "string",
          "name": "newPostalCode",
          "type": "string"
        }
      ],
      "name": "RentalPropertyUpdatePostalCode",
      "type": "event"
    },
    {
      "anonymous": false,
      "inputs": [
        {
          "indexed": false,
          "internalType": "uint256",
          "name": "rentalPropertyId",
          "type": "uint256"
        },
        {
          "indexed": false,
          "internalType": "enum RentalProperty.PropertyType",
          "name": "newPropertyType",
          "type": "uint8"
        }
      ],
      "name": "RentalPropertyUpdatePropertyType",
      "type": "event"
    },
    {
      "anonymous": false,
      "inputs": [
        {
          "indexed": false,
          "internalType": "uint256",
          "name": "rentalPropertyId",
          "type": "uint256"
        },
        {
          "indexed": false,
          "internalType": "uint256",
          "name": "newRentalPrice",
          "type": "uint256"
        }
      ],
      "name": "RentalPropertyUpdateRentalPrice",
      "type": "event"
    },
    {
      "anonymous": false,
      "inputs": [
        {
          "indexed": false,
          "internalType": "uint256",
          "name": "rentalPropertyId",
          "type": "uint256"
        },
        {
          "indexed": false,
          "internalType": "string",
          "name": "newUnitNumber",
          "type": "string"
        }
      ],
      "name": "RentalPropertyUpdateUnitNumber",
      "type": "event"
    },
    {
      "inputs": [
        {
          "internalType": "string",
          "name": "_location",
          "type": "string"
        },
        {
          "internalType": "string",
          "name": "_postalCode",
          "type": "string"
        },
        {
          "internalType": "string",
          "name": "_unitNumber",
          "type": "string"
        },
        {
          "internalType": "enum RentalProperty.PropertyType",
          "name": "_propertyType",
          "type": "uint8"
        },
        {
          "internalType": "string",
          "name": "_description",
          "type": "string"
        },
        {
          "internalType": "uint256",
          "name": "_numOfTenants",
          "type": "uint256"
        },
        {
          "internalType": "uint256",
          "name": "_rentalPrice",
          "type": "uint256"
        },
        {
          "internalType": "uint256",
          "name": "_leaseDuration",
          "type": "uint256"
        }
      ],
      "name": "addRentalProperty",
      "outputs": [
        {
          "internalType": "uint256",
          "name": "",
          "type": "uint256"
        }
      ],
      "stateMutability": "nonpayable",
      "type": "function"
    },
    {
      "inputs": [
        {
          "internalType": "uint256",
          "name": "rentalPropertyId",
          "type": "uint256"
        }
      ],
      "name": "getRentalProperty",
      "outputs": [
        {
          "components": [
            {
              "internalType": "string",
              "name": "location",
              "type": "string"
            },
            {
              "internalType": "string",
              "name": "postalCode",
              "type": "string"
            },
            {
              "internalType": "string",
              "name": "unitNumber",
              "type": "string"
            },
            {
              "internalType": "enum RentalProperty.PropertyType",
              "name": "propertyType",
              "type": "uint8"
            },
            {
              "internalType": "string",
              "name": "description",
              "type": "string"
            },
            {
              "internalType": "uint256",
              "name": "numOfTenants",
              "type": "uint256"
            },
            {
              "internalType": "uint256",
              "name": "rentalPrice",
              "type": "uint256"
            },
            {
              "internalType": "uint256",
              "name": "leaseDuration",
              "type": "uint256"
            },
            {
              "internalType": "address",
              "name": "landlord",
              "type": "address"
            },
            {
              "internalType": "bool",
              "name": "updateStatus",
              "type": "bool"
            },
            {
              "internalType": "bool",
              "name": "isListed",
              "type": "bool"
            }
          ],
          "internalType": "struct RentalProperty.rentalProperty",
          "name": "",
          "type": "tuple"
        }
      ],
      "stateMutability": "view",
      "type": "function"
    },
    {
      "inputs": [
        {
          "internalType": "uint256",
          "name": "rentalPropertyId",
          "type": "uint256"
        }
      ],
      "name": "getLocation",
      "outputs": [
        {
          "internalType": "string",
          "name": "",
          "type": "string"
        }
      ],
      "stateMutability": "view",
      "type": "function"
    },
    {
      "inputs": [
        {
          "internalType": "uint256",
          "name": "rentalPropertyId",
          "type": "uint256"
        }
      ],
      "name": "getPostalCode",
      "outputs": [
        {
          "internalType": "string",
          "name": "",
          "type": "string"
        }
      ],
      "stateMutability": "view",
      "type": "function"
    },
    {
      "inputs": [
        {
          "internalType": "uint256",
          "name": "rentalPropertyId",
          "type": "uint256"
        }
      ],
      "name": "getUnitNumber",
      "outputs": [
        {
          "internalType": "string",
          "name": "",
          "type": "string"
        }
      ],
      "stateMutability": "view",
      "type": "function"
    },
    {
      "inputs": [
        {
          "internalType": "uint256",
          "name": "rentalPropertyId",
          "type": "uint256"
        }
      ],
      "name": "getPropertyType",
      "outputs": [
        {
          "internalType": "enum RentalProperty.PropertyType",
          "name": "",
          "type": "uint8"
        }
      ],
      "stateMutability": "view",
      "type": "function"
    },
    {
      "inputs": [
        {
          "internalType": "uint256",
          "name": "rentalPropertyId",
          "type": "uint256"
        }
      ],
      "name": "getDescription",
      "outputs": [
        {
          "internalType": "string",
          "name": "",
          "type": "string"
        }
      ],
      "stateMutability": "view",
      "type": "function"
    },
    {
      "inputs": [
        {
          "internalType": "uint256",
          "name": "rentalPropertyId",
          "type": "uint256"
        }
      ],
      "name": "getNumOfTenants",
      "outputs": [
        {
          "internalType": "uint256",
          "name": "",
          "type": "uint256"
        }
      ],
      "stateMutability": "view",
      "type": "function"
    },
    {
      "inputs": [
        {
          "internalType": "uint256",
          "name": "rentalPropertyId",
          "type": "uint256"
        }
      ],
      "name": "getRentalPrice",
      "outputs": [
        {
          "internalType": "uint256",
          "name": "",
          "type": "uint256"
        }
      ],
      "stateMutability": "view",
      "type": "function"
    },
    {
      "inputs": [
        {
          "internalType": "uint256",
          "name": "rentalPropertyId",
          "type": "uint256"
        }
      ],
      "name": "getLeaseDuration",
      "outputs": [
        {
          "internalType": "uint256",
          "name": "",
          "type": "uint256"
        }
      ],
      "stateMutability": "view",
      "type": "function"
    },
    {
      "inputs": [
        {
          "internalType": "uint256",
          "name": "rentalPropertyId",
          "type": "uint256"
        }
      ],
      "name": "getLandlord",
      "outputs": [
        {
          "internalType": "address",
          "name": "",
          "type": "address"
        }
      ],
      "stateMutability": "view",
      "type": "function"
    },
    {
      "inputs": [
        {
          "internalType": "uint256",
          "name": "rentalPropertyId",
          "type": "uint256"
        }
      ],
      "name": "getUpdateStatus",
      "outputs": [
        {
          "internalType": "bool",
          "name": "",
          "type": "bool"
        }
      ],
      "stateMutability": "view",
      "type": "function"
    },
    {
      "inputs": [
        {
          "internalType": "uint256",
          "name": "rentalPropertyId",
          "type": "uint256"
        }
      ],
      "name": "getListedStatus",
      "outputs": [
        {
          "internalType": "bool",
          "name": "",
          "type": "bool"
        }
      ],
      "stateMutability": "view",
      "type": "function"
    },
    {
      "inputs": [],
      "name": "getNumRentalProperty",
      "outputs": [
        {
          "internalType": "uint256",
          "name": "",
          "type": "uint256"
        }
      ],
      "stateMutability": "view",
      "type": "function"
    },
    {
      "inputs": [],
      "name": "getNumListedRentalProperty",
      "outputs": [
        {
          "internalType": "uint256",
          "name": "",
          "type": "uint256"
        }
      ],
      "stateMutability": "view",
      "type": "function"
    },
    {
      "inputs": [],
      "name": "getNumUnlistedRentalProperty",
      "outputs": [
        {
          "internalType": "uint256",
          "name": "",
          "type": "uint256"
        }
      ],
      "stateMutability": "view",
      "type": "function"
    },
    {
      "inputs": [
        {
          "internalType": "address",
          "name": "landlord",
          "type": "address"
        }
      ],
      "name": "getNumLandlordRentalProperties",
      "outputs": [
        {
          "internalType": "uint256",
          "name": "",
          "type": "uint256"
        }
      ],
      "stateMutability": "view",
      "type": "function"
    },
    {
      "inputs": [
        {
          "internalType": "address",
          "name": "landlord",
          "type": "address"
        }
      ],
      "name": "getNumLandlordListedRentalProperties",
      "outputs": [
        {
          "internalType": "uint256",
          "name": "",
          "type": "uint256"
        }
      ],
      "stateMutability": "view",
      "type": "function"
    },
    {
      "inputs": [
        {
          "internalType": "address",
          "name": "landlord",
          "type": "address"
        }
      ],
      "name": "getNumLandlordUnlistedRentalProperties",
      "outputs": [
        {
          "internalType": "uint256",
          "name": "",
          "type": "uint256"
        }
      ],
      "stateMutability": "view",
      "type": "function"
    },
    {
      "inputs": [],
      "name": "getAllRentalProperties",
      "outputs": [
        {
          "components": [
            {
              "internalType": "string",
              "name": "location",
              "type": "string"
            },
            {
              "internalType": "string",
              "name": "postalCode",
              "type": "string"
            },
            {
              "internalType": "string",
              "name": "unitNumber",
              "type": "string"
            },
            {
              "internalType": "enum RentalProperty.PropertyType",
              "name": "propertyType",
              "type": "uint8"
            },
            {
              "internalType": "string",
              "name": "description",
              "type": "string"
            },
            {
              "internalType": "uint256",
              "name": "numOfTenants",
              "type": "uint256"
            },
            {
              "internalType": "uint256",
              "name": "rentalPrice",
              "type": "uint256"
            },
            {
              "internalType": "uint256",
              "name": "leaseDuration",
              "type": "uint256"
            },
            {
              "internalType": "address",
              "name": "landlord",
              "type": "address"
            },
            {
              "internalType": "bool",
              "name": "updateStatus",
              "type": "bool"
            },
            {
              "internalType": "bool",
              "name": "isListed",
              "type": "bool"
            }
          ],
          "internalType": "struct RentalProperty.rentalProperty[]",
          "name": "",
          "type": "tuple[]"
        }
      ],
      "stateMutability": "view",
      "type": "function"
    },
    {
      "inputs": [],
      "name": "getAllListedRentalProperties",
      "outputs": [
        {
          "components": [
            {
              "internalType": "string",
              "name": "location",
              "type": "string"
            },
            {
              "internalType": "string",
              "name": "postalCode",
              "type": "string"
            },
            {
              "internalType": "string",
              "name": "unitNumber",
              "type": "string"
            },
            {
              "internalType": "enum RentalProperty.PropertyType",
              "name": "propertyType",
              "type": "uint8"
            },
            {
              "internalType": "string",
              "name": "description",
              "type": "string"
            },
            {
              "internalType": "uint256",
              "name": "numOfTenants",
              "type": "uint256"
            },
            {
              "internalType": "uint256",
              "name": "rentalPrice",
              "type": "uint256"
            },
            {
              "internalType": "uint256",
              "name": "leaseDuration",
              "type": "uint256"
            },
            {
              "internalType": "address",
              "name": "landlord",
              "type": "address"
            },
            {
              "internalType": "bool",
              "name": "updateStatus",
              "type": "bool"
            },
            {
              "internalType": "bool",
              "name": "isListed",
              "type": "bool"
            }
          ],
          "internalType": "struct RentalProperty.rentalProperty[]",
          "name": "",
          "type": "tuple[]"
        }
      ],
      "stateMutability": "view",
      "type": "function"
    },
    {
      "inputs": [],
      "name": "getAllUnlistedRentalProperties",
      "outputs": [
        {
          "components": [
            {
              "internalType": "string",
              "name": "location",
              "type": "string"
            },
            {
              "internalType": "string",
              "name": "postalCode",
              "type": "string"
            },
            {
              "internalType": "string",
              "name": "unitNumber",
              "type": "string"
            },
            {
              "internalType": "enum RentalProperty.PropertyType",
              "name": "propertyType",
              "type": "uint8"
            },
            {
              "internalType": "string",
              "name": "description",
              "type": "string"
            },
            {
              "internalType": "uint256",
              "name": "numOfTenants",
              "type": "uint256"
            },
            {
              "internalType": "uint256",
              "name": "rentalPrice",
              "type": "uint256"
            },
            {
              "internalType": "uint256",
              "name": "leaseDuration",
              "type": "uint256"
            },
            {
              "internalType": "address",
              "name": "landlord",
              "type": "address"
            },
            {
              "internalType": "bool",
              "name": "updateStatus",
              "type": "bool"
            },
            {
              "internalType": "bool",
              "name": "isListed",
              "type": "bool"
            }
          ],
          "internalType": "struct RentalProperty.rentalProperty[]",
          "name": "",
          "type": "tuple[]"
        }
      ],
      "stateMutability": "view",
      "type": "function"
    },
    {
      "inputs": [
        {
          "internalType": "address",
          "name": "landlord",
          "type": "address"
        }
      ],
      "name": "getLandlordRentalProperties",
      "outputs": [
        {
          "components": [
            {
              "internalType": "string",
              "name": "location",
              "type": "string"
            },
            {
              "internalType": "string",
              "name": "postalCode",
              "type": "string"
            },
            {
              "internalType": "string",
              "name": "unitNumber",
              "type": "string"
            },
            {
              "internalType": "enum RentalProperty.PropertyType",
              "name": "propertyType",
              "type": "uint8"
            },
            {
              "internalType": "string",
              "name": "description",
              "type": "string"
            },
            {
              "internalType": "uint256",
              "name": "numOfTenants",
              "type": "uint256"
            },
            {
              "internalType": "uint256",
              "name": "rentalPrice",
              "type": "uint256"
            },
            {
              "internalType": "uint256",
              "name": "leaseDuration",
              "type": "uint256"
            },
            {
              "internalType": "address",
              "name": "landlord",
              "type": "address"
            },
            {
              "internalType": "bool",
              "name": "updateStatus",
              "type": "bool"
            },
            {
              "internalType": "bool",
              "name": "isListed",
              "type": "bool"
            }
          ],
          "internalType": "struct RentalProperty.rentalProperty[]",
          "name": "",
          "type": "tuple[]"
        }
      ],
      "stateMutability": "view",
      "type": "function"
    },
    {
      "inputs": [
        {
          "internalType": "address",
          "name": "landlord",
          "type": "address"
        }
      ],
      "name": "getLandlordListedRentalProperties",
      "outputs": [
        {
          "components": [
            {
              "internalType": "string",
              "name": "location",
              "type": "string"
            },
            {
              "internalType": "string",
              "name": "postalCode",
              "type": "string"
            },
            {
              "internalType": "string",
              "name": "unitNumber",
              "type": "string"
            },
            {
              "internalType": "enum RentalProperty.PropertyType",
              "name": "propertyType",
              "type": "uint8"
            },
            {
              "internalType": "string",
              "name": "description",
              "type": "string"
            },
            {
              "internalType": "uint256",
              "name": "numOfTenants",
              "type": "uint256"
            },
            {
              "internalType": "uint256",
              "name": "rentalPrice",
              "type": "uint256"
            },
            {
              "internalType": "uint256",
              "name": "leaseDuration",
              "type": "uint256"
            },
            {
              "internalType": "address",
              "name": "landlord",
              "type": "address"
            },
            {
              "internalType": "bool",
              "name": "updateStatus",
              "type": "bool"
            },
            {
              "internalType": "bool",
              "name": "isListed",
              "type": "bool"
            }
          ],
          "internalType": "struct RentalProperty.rentalProperty[]",
          "name": "",
          "type": "tuple[]"
        }
      ],
      "stateMutability": "view",
      "type": "function"
    },
    {
      "inputs": [
        {
          "internalType": "address",
          "name": "landlord",
          "type": "address"
        }
      ],
      "name": "getLandlordUnlistedRentalProperties",
      "outputs": [
        {
          "components": [
            {
              "internalType": "string",
              "name": "location",
              "type": "string"
            },
            {
              "internalType": "string",
              "name": "postalCode",
              "type": "string"
            },
            {
              "internalType": "string",
              "name": "unitNumber",
              "type": "string"
            },
            {
              "internalType": "enum RentalProperty.PropertyType",
              "name": "propertyType",
              "type": "uint8"
            },
            {
              "internalType": "string",
              "name": "description",
              "type": "string"
            },
            {
              "internalType": "uint256",
              "name": "numOfTenants",
              "type": "uint256"
            },
            {
              "internalType": "uint256",
              "name": "rentalPrice",
              "type": "uint256"
            },
            {
              "internalType": "uint256",
              "name": "leaseDuration",
              "type": "uint256"
            },
            {
              "internalType": "address",
              "name": "landlord",
              "type": "address"
            },
            {
              "internalType": "bool",
              "name": "updateStatus",
              "type": "bool"
            },
            {
              "internalType": "bool",
              "name": "isListed",
              "type": "bool"
            }
          ],
          "internalType": "struct RentalProperty.rentalProperty[]",
          "name": "",
          "type": "tuple[]"
        }
      ],
      "stateMutability": "view",
      "type": "function"
    },
    {
      "inputs": [
        {
          "internalType": "uint256",
          "name": "rentalPropertyId",
          "type": "uint256"
        },
        {
          "internalType": "string",
          "name": "newLocation",
          "type": "string"
        }
      ],
      "name": "updateLocation",
      "outputs": [],
      "stateMutability": "nonpayable",
      "type": "function"
    },
    {
      "inputs": [
        {
          "internalType": "uint256",
          "name": "rentalPropertyId",
          "type": "uint256"
        },
        {
          "internalType": "string",
          "name": "newPostalCode",
          "type": "string"
        }
      ],
      "name": "updatePostalCode",
      "outputs": [],
      "stateMutability": "nonpayable",
      "type": "function"
    },
    {
      "inputs": [
        {
          "internalType": "uint256",
          "name": "rentalPropertyId",
          "type": "uint256"
        },
        {
          "internalType": "string",
          "name": "newUnitNumber",
          "type": "string"
        }
      ],
      "name": "updateUnitNumber",
      "outputs": [],
      "stateMutability": "nonpayable",
      "type": "function"
    },
    {
      "inputs": [
        {
          "internalType": "uint256",
          "name": "rentalPropertyId",
          "type": "uint256"
        },
        {
          "internalType": "enum RentalProperty.PropertyType",
          "name": "newPropertyType",
          "type": "uint8"
        }
      ],
      "name": "updatePropertyType",
      "outputs": [],
      "stateMutability": "nonpayable",
      "type": "function"
    },
    {
      "inputs": [
        {
          "internalType": "uint256",
          "name": "rentalPropertyId",
          "type": "uint256"
        },
        {
          "internalType": "string",
          "name": "newDescription",
          "type": "string"
        }
      ],
      "name": "updateDescription",
      "outputs": [],
      "stateMutability": "nonpayable",
      "type": "function"
    },
    {
      "inputs": [
        {
          "internalType": "uint256",
          "name": "rentalPropertyId",
          "type": "uint256"
        },
        {
          "internalType": "uint256",
          "name": "newNumOfTenants",
          "type": "uint256"
        }
      ],
      "name": "updateNumOfTenants",
      "outputs": [],
      "stateMutability": "nonpayable",
      "type": "function"
    },
    {
      "inputs": [
        {
          "internalType": "uint256",
          "name": "rentalPropertyId",
          "type": "uint256"
        },
        {
          "internalType": "uint256",
          "name": "newRentalPrice",
          "type": "uint256"
        }
      ],
      "name": "updateRentalPrice",
      "outputs": [],
      "stateMutability": "nonpayable",
      "type": "function"
    },
    {
      "inputs": [
        {
          "internalType": "uint256",
          "name": "rentalPropertyId",
          "type": "uint256"
        },
        {
          "internalType": "uint256",
          "name": "newLeaseDuration",
          "type": "uint256"
        }
      ],
      "name": "updateLeaseDuration",
      "outputs": [],
      "stateMutability": "nonpayable",
      "type": "function"
    },
    {
      "inputs": [
        {
          "internalType": "uint256",
          "name": "rentalPropertyId",
          "type": "uint256"
        },
        {
          "internalType": "bool",
          "name": "newUpdateStatus",
          "type": "bool"
        }
      ],
      "name": "setUpdateStatus",
      "outputs": [],
      "stateMutability": "nonpayable",
      "type": "function"
    },
    {
      "inputs": [
        {
          "internalType": "uint256",
          "name": "rentalPropertyId",
          "type": "uint256"
        },
        {
          "internalType": "bool",
          "name": "newListedStatus",
          "type": "bool"
        }
      ],
      "name": "setListedStatus",
      "outputs": [],
      "stateMutability": "nonpayable",
      "type": "function"
    },
    {
      "inputs": [],
      "name": "incrementListedRentalProperty",
      "outputs": [],
      "stateMutability": "nonpayable",
      "type": "function"
    },
    {
      "inputs": [],
      "name": "decrementListedRentalProperty",
      "outputs": [],
      "stateMutability": "nonpayable",
      "type": "function"
    },
    {
      "inputs": [
        {
          "internalType": "uint256",
          "name": "rentalPropertyId",
          "type": "uint256"
        }
      ],
      "name": "deleteRentalProperty",
      "outputs": [],
      "stateMutability": "nonpayable",
      "type": "function"
    }
  ],
  "bytecode": "0x608060405260008055600060015534801561001957600080fd5b506159f9806200002a6000396000f3fe608060405234801561001057600080fd5b50600436106102325760003560e01c806390abcd9811610130578063b6329954116100b8578063c3b3f0d11161007c578063c3b3f0d11461070d578063e019caa314610729578063e1ba0b8014610745578063e924e64a14610763578063fd003e4a1461079357610232565b8063b632995414610653578063b66b5a4214610671578063b69f45b31461068f578063b7e38039146106ad578063bf7225be146106dd57610232565b8063a46eadb5116100ff578063a46eadb514610587578063a757e926146105b7578063acd7c1d3146105d5578063aee78131146105f3578063b23392ec1461062357610232565b806390abcd98146105035780639d999edd1461051f5780639fa6bd071461053b578063a30cff731461056b57610232565b80634ec0c9e9116101be5780637735e668116101825780637735e668146104275780637f7b139314610457578063898dc449146104875780638ac765a1146104b75780638fbc55f4146104d357610232565b80634ec0c9e91461035f578063502fb9fd1461037b5780635f23d859146103ab5780635fcd6453146103db5780636712f55f146103f757610232565b80631b3924e8116102055780631b3924e8146102cf5780631e820d03146102d9578063384f38a1146103095780634925ec55146103135780634ca18df61461034357610232565b80630d10702c14610237578063118e3ea81461026757806314dee4b31461029757806317980888146102b3575b600080fd5b610251600480360381019061024c9190614bfc565b6107c3565b60405161025e91906151ed565b60405180910390f35b610281600480360381019061027c9190614ac1565b6108b1565b60405161028e91906152f1565b60405180910390f35b6102b160048036038101906102ac9190614c9d565b61098c565b005b6102cd60048036038101906102c89190614bfc565b610b4c565b005b6102d7610daf565b005b6102f360048036038101906102ee9190614bfc565b610dc9565b60405161030091906151b7565b60405180910390f35b610311610e3c565b005b61032d60048036038101906103289190614bfc565b610e56565b60405161033a91906151ed565b60405180910390f35b61035d60048036038101906103589190614c25565b610f44565b005b61037960048036038101906103749190614c9d565b610fbc565b005b61039560048036038101906103909190614bfc565b61117c565b6040516103a2919061517a565b60405180910390f35b6103c560048036038101906103c09190614ac1565b611202565b6040516103d29190615195565b60405180910390f35b6103f560048036038101906103f09190614cf1565b61170b565b005b610411600480360381019061040c9190614bfc565b611900565b60405161041e91906151d2565b60405180910390f35b610441600480360381019061043c9190614bfc565b611973565b60405161044e91906152f1565b60405180910390f35b610471600480360381019061046c9190614bfc565b6119d9565b60405161047e91906151ed565b60405180910390f35b6104a1600480360381019061049c9190614ac1565b611ac7565b6040516104ae91906152f1565b60405180910390f35b6104d160048036038101906104cc9190614c61565b611ba2565b005b6104ed60048036038101906104e89190614ac1565b611d9b565b6040516104fa9190615195565b60405180910390f35b61051d60048036038101906105189190614cf1565b6122d5565b005b61053960048036038101906105349190614c9d565b6124ca565b005b61055560048036038101906105509190614bfc565b61268a565b60405161056291906151b7565b60405180910390f35b61058560048036038101906105809190614cf1565b6126fd565b005b6105a1600480360381019061059c9190614ac1565b6128f2565b6040516105ae91906152f1565b60405180910390f35b6105bf61299c565b6040516105cc9190615195565b60405180910390f35b6105dd612e63565b6040516105ea9190615195565b60405180910390f35b61060d60048036038101906106089190614bfc565b6132e8565b60405161061a91906152f1565b60405180910390f35b61063d60048036038101906106389190614bfc565b61334e565b60405161064a91906151ed565b60405180910390f35b61065b61343c565b60405161066891906152f1565b60405180910390f35b610679613453565b6040516106869190615195565b60405180910390f35b610697613927565b6040516106a491906152f1565b60405180910390f35b6106c760048036038101906106c29190614ac1565b613931565b6040516106d49190615195565b60405180910390f35b6106f760048036038101906106f29190614aea565b613e6b565b60405161070491906152f1565b60405180910390f35b61072760048036038101906107229190614c25565b6141e2565b005b610743600480360381019061073e9190614c9d565b61425a565b005b61074d61441a565b60405161075a91906152f1565b60405180910390f35b61077d60048036038101906107789190614bfc565b614423565b60405161078a91906152f1565b60405180910390f35b6107ad60048036038101906107a89190614bfc565b614489565b6040516107ba91906152cf565b60405180910390f35b606081600054811061080a576040517f08c379a00000000000000000000000000000000000000000000000000000000081526004016108019061520f565b60405180910390fd5b60026000848152602001908152602001600020600101805461082b9061562d565b80601f01602080910402602001604051908101604052809291908181526020018280546108579061562d565b80156108a45780601f10610879576101008083540402835291602001916108a4565b820191906000526020600020905b81548152906001019060200180831161088757829003601f168201915b5050505050915050919050565b6000806000905060005b600054811015610982578373ffffffffffffffffffffffffffffffffffffffff166002600083815260200190815260200160002060080160009054906101000a900473ffffffffffffffffffffffffffffffffffffffff1673ffffffffffffffffffffffffffffffffffffffff16141561096f57600015156002600083815260200190815260200160002060080160159054906101000a900460ff161515141561096e57818061096a90615690565b9250505b5b808061097a90615690565b9150506108bb565b5080915050919050565b813373ffffffffffffffffffffffffffffffffffffffff166002600083815260200190815260200160002060080160009054906101000a900473ffffffffffffffffffffffffffffffffffffffff1673ffffffffffffffffffffffffffffffffffffffff1614610a31576040517f08c379a0000000000000000000000000000000000000000000000000000000008152600401610a28906152af565b60405180910390fd5b826000548110610a76576040517f08c379a0000000000000000000000000000000000000000000000000000000008152600401610a6d9061520f565b60405180910390fd5b83600115156002600083815260200190815260200160002060080160149054906101000a900460ff16151514610ae1576040517f08c379a0000000000000000000000000000000000000000000000000000000008152600401610ad89061524f565b60405180910390fd5b83600260008781526020019081526020016000206004019080519060200190610b0b929190614876565b507ff9e0cfc2139c5407b5c0da663755cc093ddf08c0cd22ef287cd88995442277098585604051610b3d929190615335565b60405180910390a15050505050565b803373ffffffffffffffffffffffffffffffffffffffff166002600083815260200190815260200160002060080160009054906101000a900473ffffffffffffffffffffffffffffffffffffffff1673ffffffffffffffffffffffffffffffffffffffff1614610bf1576040517f08c379a0000000000000000000000000000000000000000000000000000000008152600401610be8906152af565b60405180910390fd5b816000548110610c36576040517f08c379a0000000000000000000000000000000000000000000000000000000008152600401610c2d9061520f565b60405180910390fd5b82600115156002600083815260200190815260200160002060080160149054906101000a900460ff16151514610ca1576040517f08c379a0000000000000000000000000000000000000000000000000000000008152600401610c989061524f565b60405180910390fd5b6002600085815260200190815260200160002060008082016000610cc591906148fc565b600182016000610cd591906148fc565b600282016000610ce591906148fc565b6003820160006101000a81549060ff0219169055600482016000610d0991906148fc565b6005820160009055600682016000905560078201600090556008820160006101000a81549073ffffffffffffffffffffffffffffffffffffffff02191690556008820160146101000a81549060ff02191690556008820160156101000a81549060ff021916905550507f4adbec0d66623051c877058902b8ce13a83d19905b8ec8479e56282799601a7684604051610da191906152f1565b60405180910390a150505050565b60016000815480929190610dc290615603565b9190505550565b6000816000548110610e10576040517f08c379a0000000000000000000000000000000000000000000000000000000008152600401610e079061520f565b60405180910390fd5b6002600084815260200190815260200160002060080160149054906101000a900460ff16915050919050565b60016000815480929190610e4f90615690565b9190505550565b6060816000548110610e9d576040517f08c379a0000000000000000000000000000000000000000000000000000000008152600401610e949061520f565b60405180910390fd5b600260008481526020019081526020016000206004018054610ebe9061562d565b80601f0160208091040260200160405190810160405280929190818152602001828054610eea9061562d565b8015610f375780601f10610f0c57610100808354040283529160200191610f37565b820191906000526020600020905b815481529060010190602001808311610f1a57829003601f168201915b5050505050915050919050565b816000548110610f89576040517f08c379a0000000000000000000000000000000000000000000000000000000008152600401610f809061520f565b60405180910390fd5b816002600085815260200190815260200160002060080160156101000a81548160ff021916908315150217905550505050565b813373ffffffffffffffffffffffffffffffffffffffff166002600083815260200190815260200160002060080160009054906101000a900473ffffffffffffffffffffffffffffffffffffffff1673ffffffffffffffffffffffffffffffffffffffff1614611061576040517f08c379a0000000000000000000000000000000000000000000000000000000008152600401611058906152af565b60405180910390fd5b8260005481106110a6576040517f08c379a000000000000000000000000000000000000000000000000000000000815260040161109d9061520f565b60405180910390fd5b83600115156002600083815260200190815260200160002060080160149054906101000a900460ff16151514611111576040517f08c379a00000000000000000000000000000000000000000000000000000000081526004016111089061524f565b60405180910390fd5b8360026000878152602001908152602001600020600001908051906020019061113b929190614876565b507f2f785e77b95a4a5b3cae7abe711f551fae6dd194d3e0afee52aa099035c17281858560405161116d929190615335565b60405180910390a15050505050565b60008160005481106111c3576040517f08c379a00000000000000000000000000000000000000000000000000000000081526004016111ba9061520f565b60405180910390fd5b6002600084815260200190815260200160002060080160009054906101000a900473ffffffffffffffffffffffffffffffffffffffff16915050919050565b6060600061120f836128f2565b67ffffffffffffffff81111561124e577f4e487b7100000000000000000000000000000000000000000000000000000000600052604160045260246000fd5b60405190808252806020026020018201604052801561128757816020015b61127461493c565b81526020019060019003908161126c5790505b5090506000805b600054811015611700578473ffffffffffffffffffffffffffffffffffffffff166002600083815260200190815260200160002060080160009054906101000a900473ffffffffffffffffffffffffffffffffffffffff1673ffffffffffffffffffffffffffffffffffffffff1614156116ed5760026000828152602001908152602001600020604051806101600160405290816000820180546113319061562d565b80601f016020809104026020016040519081016040528092919081815260200182805461135d9061562d565b80156113aa5780601f1061137f576101008083540402835291602001916113aa565b820191906000526020600020905b81548152906001019060200180831161138d57829003601f168201915b505050505081526020016001820180546113c39061562d565b80601f01602080910402602001604051908101604052809291908181526020018280546113ef9061562d565b801561143c5780601f106114115761010080835404028352916020019161143c565b820191906000526020600020905b81548152906001019060200180831161141f57829003601f168201915b505050505081526020016002820180546114559061562d565b80601f01602080910402602001604051908101604052809291908181526020018280546114819061562d565b80156114ce5780601f106114a3576101008083540402835291602001916114ce565b820191906000526020600020905b8154815290600101906020018083116114b157829003601f168201915b505050505081526020016003820160009054906101000a900460ff166003811115611522577f4e487b7100000000000000000000000000000000000000000000000000000000600052602160045260246000fd5b600381111561155a577f4e487b7100000000000000000000000000000000000000000000000000000000600052602160045260246000fd5b815260200160048201805461156e9061562d565b80601f016020809104026020016040519081016040528092919081815260200182805461159a9061562d565b80156115e75780601f106115bc576101008083540402835291602001916115e7565b820191906000526020600020905b8154815290600101906020018083116115ca57829003601f168201915b505050505081526020016005820154815260200160068201548152602001600782015481526020016008820160009054906101000a900473ffffffffffffffffffffffffffffffffffffffff1673ffffffffffffffffffffffffffffffffffffffff1673ffffffffffffffffffffffffffffffffffffffff1681526020016008820160149054906101000a900460ff161515151581526020016008820160159054906101000a900460ff1615151515815250508383815181106116d3577f4e487b7100000000000000000000000000000000000000000000000000000000600052603260045260246000fd5b602002602001018190525081806116e990615690565b9250505b80806116f890615690565b91505061128e565b508192505050919050565b813373ffffffffffffffffffffffffffffffffffffffff166002600083815260200190815260200160002060080160009054906101000a900473ffffffffffffffffffffffffffffffffffffffff1673ffffffffffffffffffffffffffffffffffffffff16146117b0576040517f08c379a00000000000000000000000000000000000000000000000000000000081526004016117a7906152af565b60405180910390fd5b8260005481106117f5576040517f08c379a00000000000000000000000000000000000000000000000000000000081526004016117ec9061520f565b60405180910390fd5b8260008111611839576040517f08c379a00000000000000000000000000000000000000000000000000000000081526004016118309061528f565b60405180910390fd5b84600115156002600083815260200190815260200160002060080160149054906101000a900460ff161515146118a4576040517f08c379a000000000000000000000000000000000000000000000000000000000815260040161189b9061524f565b60405180910390fd5b8460026000888152602001908152602001600020600501819055507fd18a5a33f02c71e4837afac7f0824400276d50280aee3ee7d8802309c305c35386866040516118f092919061543b565b60405180910390a1505050505050565b6000816000548110611947576040517f08c379a000000000000000000000000000000000000000000000000000000000815260040161193e9061520f565b60405180910390fd5b6002600084815260200190815260200160002060030160009054906101000a900460ff16915050919050565b60008160005481106119ba576040517f08c379a00000000000000000000000000000000000000000000000000000000081526004016119b19061520f565b60405180910390fd5b6002600084815260200190815260200160002060050154915050919050565b6060816000548110611a20576040517f08c379a0000000000000000000000000000000000000000000000000000000008152600401611a179061520f565b60405180910390fd5b600260008481526020019081526020016000206000018054611a419061562d565b80601f0160208091040260200160405190810160405280929190818152602001828054611a6d9061562d565b8015611aba5780601f10611a8f57610100808354040283529160200191611aba565b820191906000526020600020905b815481529060010190602001808311611a9d57829003601f168201915b5050505050915050919050565b6000806000905060005b600054811015611b98578373ffffffffffffffffffffffffffffffffffffffff166002600083815260200190815260200160002060080160009054906101000a900473ffffffffffffffffffffffffffffffffffffffff1673ffffffffffffffffffffffffffffffffffffffff161415611b8557600115156002600083815260200190815260200160002060080160159054906101000a900460ff1615151415611b84578180611b8090615690565b9250505b5b8080611b9090615690565b915050611ad1565b5080915050919050565b813373ffffffffffffffffffffffffffffffffffffffff166002600083815260200190815260200160002060080160009054906101000a900473ffffffffffffffffffffffffffffffffffffffff1673ffffffffffffffffffffffffffffffffffffffff1614611c47576040517f08c379a0000000000000000000000000000000000000000000000000000000008152600401611c3e906152af565b60405180910390fd5b826000548110611c8c576040517f08c379a0000000000000000000000000000000000000000000000000000000008152600401611c839061520f565b60405180910390fd5b83600115156002600083815260200190815260200160002060080160149054906101000a900460ff16151514611cf7576040517f08c379a0000000000000000000000000000000000000000000000000000000008152600401611cee9061524f565b60405180910390fd5b836002600087815260200190815260200160002060030160006101000a81548160ff02191690836003811115611d56577f4e487b7100000000000000000000000000000000000000000000000000000000600052602160045260246000fd5b02179055507f3208ad7d5d89490dfec0ba2e46d58fec5086ddbb91bdc76518a9ccc251c6b37d8585604051611d8c92919061530c565b60405180910390a15050505050565b60606000611da8836108b1565b67ffffffffffffffff811115611de7577f4e487b7100000000000000000000000000000000000000000000000000000000600052604160045260246000fd5b604051908082528060200260200182016040528015611e2057816020015b611e0d61493c565b815260200190600190039081611e055790505b5090506000805b6000548110156122ca578473ffffffffffffffffffffffffffffffffffffffff166002600083815260200190815260200160002060080160009054906101000a900473ffffffffffffffffffffffffffffffffffffffff1673ffffffffffffffffffffffffffffffffffffffff1614156122b757600015156002600083815260200190815260200160002060080160159054906101000a900460ff16151514156122b6576002600082815260200190815260200160002060405180610160016040529081600082018054611efa9061562d565b80601f0160208091040260200160405190810160405280929190818152602001828054611f269061562d565b8015611f735780601f10611f4857610100808354040283529160200191611f73565b820191906000526020600020905b815481529060010190602001808311611f5657829003601f168201915b50505050508152602001600182018054611f8c9061562d565b80601f0160208091040260200160405190810160405280929190818152602001828054611fb89061562d565b80156120055780601f10611fda57610100808354040283529160200191612005565b820191906000526020600020905b815481529060010190602001808311611fe857829003601f168201915b5050505050815260200160028201805461201e9061562d565b80601f016020809104026020016040519081016040528092919081815260200182805461204a9061562d565b80156120975780601f1061206c57610100808354040283529160200191612097565b820191906000526020600020905b81548152906001019060200180831161207a57829003601f168201915b505050505081526020016003820160009054906101000a900460ff1660038111156120eb577f4e487b7100000000000000000000000000000000000000000000000000000000600052602160045260246000fd5b6003811115612123577f4e487b7100000000000000000000000000000000000000000000000000000000600052602160045260246000fd5b81526020016004820180546121379061562d565b80601f01602080910402602001604051908101604052809291908181526020018280546121639061562d565b80156121b05780601f10612185576101008083540402835291602001916121b0565b820191906000526020600020905b81548152906001019060200180831161219357829003601f168201915b505050505081526020016005820154815260200160068201548152602001600782015481526020016008820160009054906101000a900473ffffffffffffffffffffffffffffffffffffffff1673ffffffffffffffffffffffffffffffffffffffff1673ffffffffffffffffffffffffffffffffffffffff1681526020016008820160149054906101000a900460ff161515151581526020016008820160159054906101000a900460ff16151515158152505083838151811061229c577f4e487b7100000000000000000000000000000000000000000000000000000000600052603260045260246000fd5b602002602001018190525081806122b290615690565b9250505b5b80806122c290615690565b915050611e27565b508192505050919050565b813373ffffffffffffffffffffffffffffffffffffffff166002600083815260200190815260200160002060080160009054906101000a900473ffffffffffffffffffffffffffffffffffffffff1673ffffffffffffffffffffffffffffffffffffffff161461237a576040517f08c379a0000000000000000000000000000000000000000000000000000000008152600401612371906152af565b60405180910390fd5b8260005481106123bf576040517f08c379a00000000000000000000000000000000000000000000000000000000081526004016123b69061520f565b60405180910390fd5b8260008111612403576040517f08c379a00000000000000000000000000000000000000000000000000000000081526004016123fa9061522f565b60405180910390fd5b84600115156002600083815260200190815260200160002060080160149054906101000a900460ff1615151461246e576040517f08c379a00000000000000000000000000000000000000000000000000000000081526004016124659061524f565b60405180910390fd5b8460026000888152602001908152602001600020600601819055507ff2fc46abca9db71cc72135e2de0769502341c219aca35c83b8afbd7a6e74582386866040516124ba92919061543b565b60405180910390a1505050505050565b813373ffffffffffffffffffffffffffffffffffffffff166002600083815260200190815260200160002060080160009054906101000a900473ffffffffffffffffffffffffffffffffffffffff1673ffffffffffffffffffffffffffffffffffffffff161461256f576040517f08c379a0000000000000000000000000000000000000000000000000000000008152600401612566906152af565b60405180910390fd5b8260005481106125b4576040517f08c379a00000000000000000000000000000000000000000000000000000000081526004016125ab9061520f565b60405180910390fd5b83600115156002600083815260200190815260200160002060080160149054906101000a900460ff1615151461261f576040517f08c379a00000000000000000000000000000000000000000000000000000000081526004016126169061524f565b60405180910390fd5b83600260008781526020019081526020016000206002019080519060200190612649929190614876565b507fd2fc88a3528790fea162e71e7975873743096ba0c20dfddbe0ac6c306786ed7b858560405161267b929190615335565b60405180910390a15050505050565b60008160005481106126d1576040517f08c379a00000000000000000000000000000000000000000000000000000000081526004016126c89061520f565b60405180910390fd5b6002600084815260200190815260200160002060080160159054906101000a900460ff16915050919050565b813373ffffffffffffffffffffffffffffffffffffffff166002600083815260200190815260200160002060080160009054906101000a900473ffffffffffffffffffffffffffffffffffffffff1673ffffffffffffffffffffffffffffffffffffffff16146127a2576040517f08c379a0000000000000000000000000000000000000000000000000000000008152600401612799906152af565b60405180910390fd5b8260005481106127e7576040517f08c379a00000000000000000000000000000000000000000000000000000000081526004016127de9061520f565b60405180910390fd5b826000811161282b576040517f08c379a00000000000000000000000000000000000000000000000000000000081526004016128229061526f565b60405180910390fd5b84600115156002600083815260200190815260200160002060080160149054906101000a900460ff16151514612896576040517f08c379a000000000000000000000000000000000000000000000000000000000815260040161288d9061524f565b60405180910390fd5b8460026000888152602001908152602001600020600701819055507f36745ecb9be3cc90b3dbaa3d40e04b5b8d12074c2eb18b665ec597696896837386866040516128e292919061543b565b60405180910390a1505050505050565b6000806000905060005b600054811015612992578373ffffffffffffffffffffffffffffffffffffffff166002600083815260200190815260200160002060080160009054906101000a900473ffffffffffffffffffffffffffffffffffffffff1673ffffffffffffffffffffffffffffffffffffffff16141561297f57818061297b90615690565b9250505b808061298a90615690565b9150506128fc565b5080915050919050565b6060600060015467ffffffffffffffff8111156129e2577f4e487b7100000000000000000000000000000000000000000000000000000000600052604160045260246000fd5b604051908082528060200260200182016040528015612a1b57816020015b612a0861493c565b815260200190600190039081612a005790505b5090506000805b600054811015612e5a57600115156002600083815260200190815260200160002060080160159054906101000a900460ff1615151415612e47576002600082815260200190815260200160002060405180610160016040529081600082018054612a8b9061562d565b80601f0160208091040260200160405190810160405280929190818152602001828054612ab79061562d565b8015612b045780601f10612ad957610100808354040283529160200191612b04565b820191906000526020600020905b815481529060010190602001808311612ae757829003601f168201915b50505050508152602001600182018054612b1d9061562d565b80601f0160208091040260200160405190810160405280929190818152602001828054612b499061562d565b8015612b965780601f10612b6b57610100808354040283529160200191612b96565b820191906000526020600020905b815481529060010190602001808311612b7957829003601f168201915b50505050508152602001600282018054612baf9061562d565b80601f0160208091040260200160405190810160405280929190818152602001828054612bdb9061562d565b8015612c285780601f10612bfd57610100808354040283529160200191612c28565b820191906000526020600020905b815481529060010190602001808311612c0b57829003601f168201915b505050505081526020016003820160009054906101000a900460ff166003811115612c7c577f4e487b7100000000000000000000000000000000000000000000000000000000600052602160045260246000fd5b6003811115612cb4577f4e487b7100000000000000000000000000000000000000000000000000000000600052602160045260246000fd5b8152602001600482018054612cc89061562d565b80601f0160208091040260200160405190810160405280929190818152602001828054612cf49061562d565b8015612d415780601f10612d1657610100808354040283529160200191612d41565b820191906000526020600020905b815481529060010190602001808311612d2457829003601f168201915b505050505081526020016005820154815260200160068201548152602001600782015481526020016008820160009054906101000a900473ffffffffffffffffffffffffffffffffffffffff1673ffffffffffffffffffffffffffffffffffffffff1673ffffffffffffffffffffffffffffffffffffffff1681526020016008820160149054906101000a900460ff161515151581526020016008820160159054906101000a900460ff161515151581525050838381518110612e2d577f4e487b7100000000000000000000000000000000000000000000000000000000600052603260045260246000fd5b60200260200101819052508180612e4390615690565b9250505b8080612e5290615690565b915050612a22565b50819250505090565b60606000805467ffffffffffffffff811115612ea8577f4e487b7100000000000000000000000000000000000000000000000000000000600052604160045260246000fd5b604051908082528060200260200182016040528015612ee157816020015b612ece61493c565b815260200190600190039081612ec65790505b50905060005b6000548110156132e0576002600082815260200190815260200160002060405180610160016040529081600082018054612f209061562d565b80601f0160208091040260200160405190810160405280929190818152602001828054612f4c9061562d565b8015612f995780601f10612f6e57610100808354040283529160200191612f99565b820191906000526020600020905b815481529060010190602001808311612f7c57829003601f168201915b50505050508152602001600182018054612fb29061562d565b80601f0160208091040260200160405190810160405280929190818152602001828054612fde9061562d565b801561302b5780601f106130005761010080835404028352916020019161302b565b820191906000526020600020905b81548152906001019060200180831161300e57829003601f168201915b505050505081526020016002820180546130449061562d565b80601f01602080910402602001604051908101604052809291908181526020018280546130709061562d565b80156130bd5780601f10613092576101008083540402835291602001916130bd565b820191906000526020600020905b8154815290600101906020018083116130a057829003601f168201915b505050505081526020016003820160009054906101000a900460ff166003811115613111577f4e487b7100000000000000000000000000000000000000000000000000000000600052602160045260246000fd5b6003811115613149577f4e487b7100000000000000000000000000000000000000000000000000000000600052602160045260246000fd5b815260200160048201805461315d9061562d565b80601f01602080910402602001604051908101604052809291908181526020018280546131899061562d565b80156131d65780601f106131ab576101008083540402835291602001916131d6565b820191906000526020600020905b8154815290600101906020018083116131b957829003601f168201915b505050505081526020016005820154815260200160068201548152602001600782015481526020016008820160009054906101000a900473ffffffffffffffffffffffffffffffffffffffff1673ffffffffffffffffffffffffffffffffffffffff1673ffffffffffffffffffffffffffffffffffffffff1681526020016008820160149054906101000a900460ff161515151581526020016008820160159054906101000a900460ff1615151515815250508282815181106132c2577f4e487b7100000000000000000000000000000000000000000000000000000000600052603260045260246000fd5b602002602001018190525080806132d890615690565b915050612ee7565b508091505090565b600081600054811061332f576040517f08c379a00000000000000000000000000000000000000000000000000000000081526004016133269061520f565b60405180910390fd5b6002600084815260200190815260200160002060070154915050919050565b6060816000548110613395576040517f08c379a000000000000000000000000000000000000000000000000000000000815260040161338c9061520f565b60405180910390fd5b6002600084815260200190815260200160002060020180546133b69061562d565b80601f01602080910402602001604051908101604052809291908181526020018280546133e29061562d565b801561342f5780601f106134045761010080835404028352916020019161342f565b820191906000526020600020905b81548152906001019060200180831161341257829003601f168201915b5050505050915050919050565b600060015460005461344e9190615520565b905090565b606060006001546000546134679190615520565b67ffffffffffffffff8111156134a6577f4e487b7100000000000000000000000000000000000000000000000000000000600052604160045260246000fd5b6040519080825280602002602001820160405280156134df57816020015b6134cc61493c565b8152602001906001900390816134c45790505b5090506000805b60005481101561391e57600015156002600083815260200190815260200160002060080160159054906101000a900460ff161515141561390b57600260008281526020019081526020016000206040518061016001604052908160008201805461354f9061562d565b80601f016020809104026020016040519081016040528092919081815260200182805461357b9061562d565b80156135c85780601f1061359d576101008083540402835291602001916135c8565b820191906000526020600020905b8154815290600101906020018083116135ab57829003601f168201915b505050505081526020016001820180546135e19061562d565b80601f016020809104026020016040519081016040528092919081815260200182805461360d9061562d565b801561365a5780601f1061362f5761010080835404028352916020019161365a565b820191906000526020600020905b81548152906001019060200180831161363d57829003601f168201915b505050505081526020016002820180546136739061562d565b80601f016020809104026020016040519081016040528092919081815260200182805461369f9061562d565b80156136ec5780601f106136c1576101008083540402835291602001916136ec565b820191906000526020600020905b8154815290600101906020018083116136cf57829003601f168201915b505050505081526020016003820160009054906101000a900460ff166003811115613740577f4e487b7100000000000000000000000000000000000000000000000000000000600052602160045260246000fd5b6003811115613778577f4e487b7100000000000000000000000000000000000000000000000000000000600052602160045260246000fd5b815260200160048201805461378c9061562d565b80601f01602080910402602001604051908101604052809291908181526020018280546137b89061562d565b80156138055780601f106137da57610100808354040283529160200191613805565b820191906000526020600020905b8154815290600101906020018083116137e857829003601f168201915b505050505081526020016005820154815260200160068201548152602001600782015481526020016008820160009054906101000a900473ffffffffffffffffffffffffffffffffffffffff1673ffffffffffffffffffffffffffffffffffffffff1673ffffffffffffffffffffffffffffffffffffffff1681526020016008820160149054906101000a900460ff161515151581526020016008820160159054906101000a900460ff1615151515815250508383815181106138f1577f4e487b7100000000000000000000000000000000000000000000000000000000600052603260045260246000fd5b6020026020010181905250818061390790615690565b9250505b808061391690615690565b9150506134e6565b50819250505090565b6000600154905090565b6060600061393e83611ac7565b67ffffffffffffffff81111561397d577f4e487b7100000000000000000000000000000000000000000000000000000000600052604160045260246000fd5b6040519080825280602002602001820160405280156139b657816020015b6139a361493c565b81526020019060019003908161399b5790505b5090506000805b600054811015613e60578473ffffffffffffffffffffffffffffffffffffffff166002600083815260200190815260200160002060080160009054906101000a900473ffffffffffffffffffffffffffffffffffffffff1673ffffffffffffffffffffffffffffffffffffffff161415613e4d57600115156002600083815260200190815260200160002060080160159054906101000a900460ff1615151415613e4c576002600082815260200190815260200160002060405180610160016040529081600082018054613a909061562d565b80601f0160208091040260200160405190810160405280929190818152602001828054613abc9061562d565b8015613b095780601f10613ade57610100808354040283529160200191613b09565b820191906000526020600020905b815481529060010190602001808311613aec57829003601f168201915b50505050508152602001600182018054613b229061562d565b80601f0160208091040260200160405190810160405280929190818152602001828054613b4e9061562d565b8015613b9b5780601f10613b7057610100808354040283529160200191613b9b565b820191906000526020600020905b815481529060010190602001808311613b7e57829003601f168201915b50505050508152602001600282018054613bb49061562d565b80601f0160208091040260200160405190810160405280929190818152602001828054613be09061562d565b8015613c2d5780601f10613c0257610100808354040283529160200191613c2d565b820191906000526020600020905b815481529060010190602001808311613c1057829003601f168201915b505050505081526020016003820160009054906101000a900460ff166003811115613c81577f4e487b7100000000000000000000000000000000000000000000000000000000600052602160045260246000fd5b6003811115613cb9577f4e487b7100000000000000000000000000000000000000000000000000000000600052602160045260246000fd5b8152602001600482018054613ccd9061562d565b80601f0160208091040260200160405190810160405280929190818152602001828054613cf99061562d565b8015613d465780601f10613d1b57610100808354040283529160200191613d46565b820191906000526020600020905b815481529060010190602001808311613d2957829003601f168201915b505050505081526020016005820154815260200160068201548152602001600782015481526020016008820160009054906101000a900473ffffffffffffffffffffffffffffffffffffffff1673ffffffffffffffffffffffffffffffffffffffff1673ffffffffffffffffffffffffffffffffffffffff1681526020016008820160149054906101000a900460ff161515151581526020016008820160159054906101000a900460ff161515151581525050838381518110613e32577f4e487b7100000000000000000000000000000000000000000000000000000000600052603260045260246000fd5b60200260200101819052508180613e4890615690565b9250505b5b8080613e5890615690565b9150506139bd565b508192505050919050565b60008360008111613eb1576040517f08c379a0000000000000000000000000000000000000000000000000000000008152600401613ea89061528f565b60405180910390fd5b8360008111613ef5576040517f08c379a0000000000000000000000000000000000000000000000000000000008152600401613eec9061522f565b60405180910390fd5b8360008111613f39576040517f08c379a0000000000000000000000000000000000000000000000000000000008152600401613f309061526f565b60405180910390fd5b60006040518061016001604052808e81526020018d81526020018c81526020018b6003811115613f92577f4e487b7100000000000000000000000000000000000000000000000000000000600052602160045260246000fd5b81526020018a81526020018981526020018881526020018781526020013373ffffffffffffffffffffffffffffffffffffffff1681526020016001151581526020016000151581525090506000806000815480929190613ff190615690565b91905055905081600260008381526020019081526020016000206000820151816000019080519060200190614027929190614876565b506020820151816001019080519060200190614044929190614876565b506040820151816002019080519060200190614061929190614876565b5060608201518160030160006101000a81548160ff021916908360038111156140b3577f4e487b7100000000000000000000000000000000000000000000000000000000600052602160045260246000fd5b021790555060808201518160040190805190602001906140d4929190614876565b5060a0820151816005015560c0820151816006015560e082015181600701556101008201518160080160006101000a81548173ffffffffffffffffffffffffffffffffffffffff021916908373ffffffffffffffffffffffffffffffffffffffff1602179055506101208201518160080160146101000a81548160ff0219169083151502179055506101408201518160080160156101000a81548160ff0219169083151502179055509050507ee199253816fd674be98c4e74e0e4a8ac9841506ba913732949ed5a21053d1a818f8f8f8f8f8f8f8f33600160006040516141c69c9b9a99989796959493929190615365565b60405180910390a1809550505050505098975050505050505050565b816000548110614227576040517f08c379a000000000000000000000000000000000000000000000000000000000815260040161421e9061520f565b60405180910390fd5b816002600085815260200190815260200160002060080160146101000a81548160ff021916908315150217905550505050565b813373ffffffffffffffffffffffffffffffffffffffff166002600083815260200190815260200160002060080160009054906101000a900473ffffffffffffffffffffffffffffffffffffffff1673ffffffffffffffffffffffffffffffffffffffff16146142ff576040517f08c379a00000000000000000000000000000000000000000000000000000000081526004016142f6906152af565b60405180910390fd5b826000548110614344576040517f08c379a000000000000000000000000000000000000000000000000000000000815260040161433b9061520f565b60405180910390fd5b83600115156002600083815260200190815260200160002060080160149054906101000a900460ff161515146143af576040517f08c379a00000000000000000000000000000000000000000000000000000000081526004016143a69061524f565b60405180910390fd5b836002600087815260200190815260200160002060010190805190602001906143d9929190614876565b507fc92be2d1aa69266735ff482064bb1aca2d648d2d9d65c293ccd1f534d274736d858560405161440b929190615335565b60405180910390a15050505050565b60008054905090565b600081600054811061446a576040517f08c379a00000000000000000000000000000000000000000000000000000000081526004016144619061520f565b60405180910390fd5b6002600084815260200190815260200160002060060154915050919050565b61449161493c565b8160005481106144d6576040517f08c379a00000000000000000000000000000000000000000000000000000000081526004016144cd9061520f565b60405180910390fd5b60026000848152602001908152602001600020604051806101600160405290816000820180546145059061562d565b80601f01602080910402602001604051908101604052809291908181526020018280546145319061562d565b801561457e5780601f106145535761010080835404028352916020019161457e565b820191906000526020600020905b81548152906001019060200180831161456157829003601f168201915b505050505081526020016001820180546145979061562d565b80601f01602080910402602001604051908101604052809291908181526020018280546145c39061562d565b80156146105780601f106145e557610100808354040283529160200191614610565b820191906000526020600020905b8154815290600101906020018083116145f357829003601f168201915b505050505081526020016002820180546146299061562d565b80601f01602080910402602001604051908101604052809291908181526020018280546146559061562d565b80156146a25780601f10614677576101008083540402835291602001916146a2565b820191906000526020600020905b81548152906001019060200180831161468557829003601f168201915b505050505081526020016003820160009054906101000a900460ff1660038111156146f6577f4e487b7100000000000000000000000000000000000000000000000000000000600052602160045260246000fd5b600381111561472e577f4e487b7100000000000000000000000000000000000000000000000000000000600052602160045260246000fd5b81526020016004820180546147429061562d565b80601f016020809104026020016040519081016040528092919081815260200182805461476e9061562d565b80156147bb5780601f10614790576101008083540402835291602001916147bb565b820191906000526020600020905b81548152906001019060200180831161479e57829003601f168201915b505050505081526020016005820154815260200160068201548152602001600782015481526020016008820160009054906101000a900473ffffffffffffffffffffffffffffffffffffffff1673ffffffffffffffffffffffffffffffffffffffff1673ffffffffffffffffffffffffffffffffffffffff1681526020016008820160149054906101000a900460ff161515151581526020016008820160159054906101000a900460ff161515151581525050915050919050565b8280546148829061562d565b90600052602060002090601f0160209004810192826148a457600085556148eb565b82601f106148bd57805160ff19168380011785556148eb565b828001600101855582156148eb579182015b828111156148ea5782518255916020019190600101906148cf565b5b5090506148f891906149e8565b5090565b5080546149089061562d565b6000825580601f1061491a5750614939565b601f01602090049060005260206000209081019061493891906149e8565b5b50565b60405180610160016040528060608152602001606081526020016060815260200160006003811115614997577f4e487b7100000000000000000000000000000000000000000000000000000000600052602160045260246000fd5b815260200160608152602001600081526020016000815260200160008152602001600073ffffffffffffffffffffffffffffffffffffffff1681526020016000151581526020016000151581525090565b5b80821115614a015760008160009055506001016149e9565b5090565b6000614a18614a1384615489565b615464565b905082815260208101848484011115614a3057600080fd5b614a3b8482856155c1565b509392505050565b600081359050614a528161596e565b92915050565b600081359050614a6781615985565b92915050565b600081359050614a7c8161599c565b92915050565b600082601f830112614a9357600080fd5b8135614aa3848260208601614a05565b91505092915050565b600081359050614abb816159ac565b92915050565b600060208284031215614ad357600080fd5b6000614ae184828501614a43565b91505092915050565b600080600080600080600080610100898b031215614b0757600080fd5b600089013567ffffffffffffffff811115614b2157600080fd5b614b2d8b828c01614a82565b985050602089013567ffffffffffffffff811115614b4a57600080fd5b614b568b828c01614a82565b975050604089013567ffffffffffffffff811115614b7357600080fd5b614b7f8b828c01614a82565b9650506060614b908b828c01614a6d565b955050608089013567ffffffffffffffff811115614bad57600080fd5b614bb98b828c01614a82565b94505060a0614bca8b828c01614aac565b93505060c0614bdb8b828c01614aac565b92505060e0614bec8b828c01614aac565b9150509295985092959890939650565b600060208284031215614c0e57600080fd5b6000614c1c84828501614aac565b91505092915050565b60008060408385031215614c3857600080fd5b6000614c4685828601614aac565b9250506020614c5785828601614a58565b9150509250929050565b60008060408385031215614c7457600080fd5b6000614c8285828601614aac565b9250506020614c9385828601614a6d565b9150509250929050565b60008060408385031215614cb057600080fd5b6000614cbe85828601614aac565b925050602083013567ffffffffffffffff811115614cdb57600080fd5b614ce785828601614a82565b9150509250929050565b60008060408385031215614d0457600080fd5b6000614d1285828601614aac565b9250506020614d2385828601614aac565b9150509250929050565b6000614d398383614f54565b905092915050565b614d4a81615554565b82525050565b614d5981615554565b82525050565b6000614d6a826154ca565b614d7481856154ed565b935083602082028501614d86856154ba565b8060005b85811015614dc25784840389528151614da38582614d2d565b9450614dae836154e0565b925060208a01995050600181019050614d8a565b50829750879550505050505092915050565b614ddd81615566565b82525050565b614dec81615566565b82525050565b614dfb816155af565b82525050565b614e0a816155af565b82525050565b6000614e1b826154d5565b614e2581856154fe565b9350614e358185602086016155d0565b614e3e81615795565b840191505092915050565b6000614e54826154d5565b614e5e818561550f565b9350614e6e8185602086016155d0565b614e7781615795565b840191505092915050565b6000614e8f601a8361550f565b9150614e9a826157a6565b602082019050919050565b6000614eb260238361550f565b9150614ebd826157cf565b604082019050919050565b6000614ed560218361550f565b9150614ee08261581e565b604082019050919050565b6000614ef860258361550f565b9150614f038261586d565b604082019050919050565b6000614f1b60288361550f565b9150614f26826158bc565b604082019050919050565b6000614f3e60288361550f565b9150614f498261590b565b604082019050919050565b6000610160830160008301518482036000860152614f728282614e10565b91505060208301518482036020860152614f8c8282614e10565b91505060408301518482036040860152614fa68282614e10565b9150506060830151614fbb6060860182614df2565b5060808301518482036080860152614fd38282614e10565b91505060a0830151614fe860a086018261515c565b5060c0830151614ffb60c086018261515c565b5060e083015161500e60e086018261515c565b50610100830151615023610100860182614d41565b50610120830151615038610120860182614dd4565b5061014083015161504d610140860182614dd4565b508091505092915050565b60006101608301600083015184820360008601526150768282614e10565b915050602083015184820360208601526150908282614e10565b915050604083015184820360408601526150aa8282614e10565b91505060608301516150bf6060860182614df2565b50608083015184820360808601526150d78282614e10565b91505060a08301516150ec60a086018261515c565b5060c08301516150ff60c086018261515c565b5060e083015161511260e086018261515c565b50610100830151615127610100860182614d41565b5061012083015161513c610120860182614dd4565b50610140830151615151610140860182614dd4565b508091505092915050565b615165816155a5565b82525050565b615174816155a5565b82525050565b600060208201905061518f6000830184614d50565b92915050565b600060208201905081810360008301526151af8184614d5f565b905092915050565b60006020820190506151cc6000830184614de3565b92915050565b60006020820190506151e76000830184614e01565b92915050565b600060208201905081810360008301526152078184614e49565b905092915050565b6000602082019050818103600083015261522881614e82565b9050919050565b6000602082019050818103600083015261524881614ea5565b9050919050565b6000602082019050818103600083015261526881614ec8565b9050919050565b6000602082019050818103600083015261528881614eeb565b9050919050565b600060208201905081810360008301526152a881614f0e565b9050919050565b600060208201905081810360008301526152c881614f31565b9050919050565b600060208201905081810360008301526152e98184615058565b905092915050565b6000602082019050615306600083018461516b565b92915050565b6000604082019050615321600083018561516b565b61532e6020830184614e01565b9392505050565b600060408201905061534a600083018561516b565b818103602083015261535c8184614e49565b90509392505050565b60006101808201905061537b600083018f61516b565b818103602083015261538d818e614e49565b905081810360408301526153a1818d614e49565b905081810360608301526153b5818c614e49565b90506153c4608083018b614e01565b81810360a08301526153d6818a614e49565b90506153e560c083018961516b565b6153f260e083018861516b565b61540061010083018761516b565b61540e610120830186614d50565b61541c610140830185614de3565b61542a610160830184614de3565b9d9c50505050505050505050505050565b6000604082019050615450600083018561516b565b61545d602083018461516b565b9392505050565b600061546e61547f565b905061547a828261565f565b919050565b6000604051905090565b600067ffffffffffffffff8211156154a4576154a3615766565b5b6154ad82615795565b9050602081019050919050565b6000819050602082019050919050565b600081519050919050565b600081519050919050565b6000602082019050919050565b600082825260208201905092915050565b600082825260208201905092915050565b600082825260208201905092915050565b600061552b826155a5565b9150615536836155a5565b925082821015615549576155486156d9565b5b828203905092915050565b600061555f82615585565b9050919050565b60008115159050919050565b60008190506155808261595a565b919050565b600073ffffffffffffffffffffffffffffffffffffffff82169050919050565b6000819050919050565b60006155ba82615572565b9050919050565b82818337600083830152505050565b60005b838110156155ee5780820151818401526020810190506155d3565b838111156155fd576000848401525b50505050565b600061560e826155a5565b91506000821415615622576156216156d9565b5b600182039050919050565b6000600282049050600182168061564557607f821691505b6020821081141561565957615658615737565b5b50919050565b61566882615795565b810181811067ffffffffffffffff8211171561568757615686615766565b5b80604052505050565b600061569b826155a5565b91507fffffffffffffffffffffffffffffffffffffffffffffffffffffffffffffffff8214156156ce576156cd6156d9565b5b600182019050919050565b7f4e487b7100000000000000000000000000000000000000000000000000000000600052601160045260246000fd5b7f4e487b7100000000000000000000000000000000000000000000000000000000600052602160045260246000fd5b7f4e487b7100000000000000000000000000000000000000000000000000000000600052602260045260246000fd5b7f4e487b7100000000000000000000000000000000000000000000000000000000600052604160045260246000fd5b6000601f19601f8301169050919050565b7f496e76616c69642072656e74616c2070726f7065727479206964000000000000600082015250565b7f52656e74616c205072696365206d75737420626520677265617465722074686160008201527f6e20300000000000000000000000000000000000000000000000000000000000602082015250565b7f52656e74616c2050726f70657274792063616e6e6f742062652075706461746560008201527f6400000000000000000000000000000000000000000000000000000000000000602082015250565b7f4c65617365204475726174696f6e206d7573742062652067726561746572207460008201527f68616e2030000000000000000000000000000000000000000000000000000000602082015250565b7f4e756d626572206f662074656e616e7473206d7573742062652067726561746560008201527f72207468616e2030000000000000000000000000000000000000000000000000602082015250565b7f4f6e6c7920746865206c616e646c6f72642063616e2063616c6c20746869732060008201527f66756e6374696f6e000000000000000000000000000000000000000000000000602082015250565b6004811061596b5761596a615708565b5b50565b61597781615554565b811461598257600080fd5b50565b61598e81615566565b811461599957600080fd5b50565b600481106159a957600080fd5b50565b6159b5816155a5565b81146159c057600080fd5b5056fea26469706673582212208400343c4179d8ebcbcc692a340cddfad5bdeeab2cd761d40e83ddd43803ec3164736f6c63430008010033",
  "immutableReferences": {},
  "source": "// SPDX-License-Identifier: MIT\r\npragma solidity ^0.8.0;\r\n\r\ncontract RentalProperty {\r\n    // ################################################### STRUCTURE & STATE VARIABLES ################################################### //\r\n\r\n    enum PropertyType {\r\n        HDB,\r\n        Condo,\r\n        Landed,\r\n        Other\r\n    }\r\n\r\n    struct rentalProperty {\r\n        string location; // location of the property\r\n        string postalCode; // postal code of the property\r\n        string unitNumber; // unit number of the property\r\n        PropertyType propertyType; // type of property\r\n        string description; // description of the property\r\n        uint256 numOfTenants; // number of tenants in the property\r\n        uint256 rentalPrice; // rental price in LeaseToken\r\n        uint256 leaseDuration; // lease duration in months\r\n        address landlord; // address of the landlord owner\r\n        bool updateStatus; // status of the rental property (true if property can be updated/deleted, false if property cannot be updated/deleted)\r\n        bool isListed; // status of the rental property (true if property is listed, false if property is not listed)\r\n    }\r\n\r\n    uint256 private numRentalProperty = 0;\r\n    uint256 private numListedRentalProperty = 0;\r\n    mapping(uint256 => rentalProperty) private rentalProperties; // map of rental properties indexed by rentalPropertyId\r\n\r\n    // ################################################### EVENTS ################################################### //\r\n\r\n    event RentalPropertyCreated(\r\n        uint256 rentalPropertyId,\r\n        string location,\r\n        string postalCode,\r\n        string unitNumber,\r\n        PropertyType propertyType,\r\n        string description,\r\n        uint256 numOfTenants,\r\n        uint256 rentalPrice,\r\n        uint256 leaseDuration,\r\n        address landlord,\r\n        bool updateStatus,\r\n        bool isListed\r\n    );\r\n\r\n    event RentalPropertyUpdateLocation(\r\n        uint256 rentalPropertyId,\r\n        string newLocation\r\n    );\r\n\r\n    event RentalPropertyUpdatePostalCode(\r\n        uint256 rentalPropertyId,\r\n        string newPostalCode\r\n    );\r\n\r\n    event RentalPropertyUpdateUnitNumber(\r\n        uint256 rentalPropertyId,\r\n        string newUnitNumber\r\n    );\r\n\r\n    event RentalPropertyUpdatePropertyType(\r\n        uint256 rentalPropertyId,\r\n        PropertyType newPropertyType\r\n    );\r\n\r\n    event RentalPropertyUpdateDescription(\r\n        uint256 rentalPropertyId,\r\n        string newDescription\r\n    );\r\n\r\n    event RentalPropertyUpdateNumOfTenants(\r\n        uint256 rentalPropertyId,\r\n        uint256 newNumOfTenants\r\n    );\r\n\r\n    event RentalPropertyUpdateRentalPrice(\r\n        uint256 rentalPropertyId,\r\n        uint256 newRentalPrice\r\n    );\r\n\r\n    event RentalPropertyUpdateLeaseDuration(\r\n        uint256 rentalPropertyId,\r\n        uint256 newLeaseDuration\r\n    );\r\n\r\n    event RentalPropertyDeleted(uint256 rentalPropertyId);\r\n\r\n    // ################################################### MODIFIERS ################################################### //\r\n\r\n    //Modifier to ensure a function is callable only by its landlord owner\r\n    modifier landlordOnly(uint256 rentalPropertyId) {\r\n        require(\r\n            rentalProperties[rentalPropertyId].landlord == msg.sender,\r\n            \"Only the landlord can call this function\"\r\n        );\r\n        _;\r\n    }\r\n\r\n    //Modifier to ensure a function is accessible only if the rental property id is valid\r\n    modifier validRentalPropertyId(uint256 rentalPropertyId) {\r\n        require(\r\n            rentalPropertyId < numRentalProperty,\r\n            \"Invalid rental property id\"\r\n        );\r\n        _;\r\n    }\r\n\r\n    modifier validNumOfTenants(uint256 numOfTenants) {\r\n        require(numOfTenants > 0, \"Number of tenants must be greater than 0\");\r\n        _;\r\n    }\r\n\r\n    modifier validRentalPrice(uint256 rentalPrice) {\r\n        require(rentalPrice > 0, \"Rental Price must be greater than 0\");\r\n        _;\r\n    }\r\n\r\n    modifier validLeaseDuration(uint256 leaseDuration) {\r\n        require(leaseDuration > 0, \"Lease Duration must be greater than 0\");\r\n        _;\r\n    }\r\n\r\n    modifier validUpdateStatus(uint256 rentalPropertyId) {\r\n        require(\r\n            rentalProperties[rentalPropertyId].updateStatus == true,\r\n            \"Rental Property cannot be updated\"\r\n        );\r\n        _;\r\n    }\r\n\r\n    // ################################################### CREATE METHOD ################################################### //\r\n\r\n    // Function for landlord to create a new Rental Property, and add to 'rentalProperties' map. requires at least 0.01ETH to create\r\n    function addRentalProperty(\r\n        string memory _location,\r\n        string memory _postalCode,\r\n        string memory _unitNumber,\r\n        PropertyType _propertyType,\r\n        string memory _description,\r\n        uint256 _numOfTenants,\r\n        uint256 _rentalPrice,\r\n        uint256 _leaseDuration\r\n    )\r\n        public\r\n        validNumOfTenants(_numOfTenants)\r\n        validRentalPrice(_rentalPrice)\r\n        validLeaseDuration(_leaseDuration)\r\n        returns (uint256)\r\n    {\r\n        // New Rental Property object\r\n        rentalProperty memory newRentalProperty = rentalProperty(\r\n            _location,\r\n            _postalCode,\r\n            _unitNumber,\r\n            _propertyType,\r\n            _description,\r\n            _numOfTenants,\r\n            _rentalPrice,\r\n            _leaseDuration,\r\n            msg.sender, // landlord is the sender\r\n            true, // initially, rental property can be updated/deleted when there are no tenants applications\r\n            false // initially, rental property is not listed\r\n        );\r\n\r\n        uint256 newRentalPropertyId = numRentalProperty++; // increment rental property id\r\n        rentalProperties[newRentalPropertyId] = newRentalProperty; // add to rentalProperties map\r\n\r\n        emit RentalPropertyCreated(\r\n            newRentalPropertyId,\r\n            _location,\r\n            _postalCode,\r\n            _unitNumber,\r\n            _propertyType,\r\n            _description,\r\n            _numOfTenants,\r\n            _rentalPrice,\r\n            _leaseDuration,\r\n            msg.sender,\r\n            true,\r\n            false\r\n        );\r\n\r\n        return newRentalPropertyId; //return new rental property id\r\n    }\r\n\r\n    // ################################################### GETTER METHODS ################################################### //\r\n\r\n    //Function to get a rental property\r\n    function getRentalProperty(\r\n        uint256 rentalPropertyId\r\n    )\r\n        public\r\n        view\r\n        validRentalPropertyId(rentalPropertyId)\r\n        returns (rentalProperty memory)\r\n    {\r\n        return rentalProperties[rentalPropertyId];\r\n    }\r\n\r\n    //Function to get the location of a rental property\r\n    function getLocation(\r\n        uint256 rentalPropertyId\r\n    )\r\n        public\r\n        view\r\n        validRentalPropertyId(rentalPropertyId)\r\n        returns (string memory)\r\n    {\r\n        return rentalProperties[rentalPropertyId].location;\r\n    }\r\n\r\n    //Function to get the postal code of a rental property\r\n    function getPostalCode(\r\n        uint256 rentalPropertyId\r\n    )\r\n        public\r\n        view\r\n        validRentalPropertyId(rentalPropertyId)\r\n        returns (string memory)\r\n    {\r\n        return rentalProperties[rentalPropertyId].postalCode;\r\n    }\r\n\r\n    //Function to get the unit number of a rental property\r\n    function getUnitNumber(\r\n        uint256 rentalPropertyId\r\n    )\r\n        public\r\n        view\r\n        validRentalPropertyId(rentalPropertyId)\r\n        returns (string memory)\r\n    {\r\n        return rentalProperties[rentalPropertyId].unitNumber;\r\n    }\r\n\r\n    //Function to get the property type of a rental property\r\n    function getPropertyType(\r\n        uint256 rentalPropertyId\r\n    )\r\n        public\r\n        view\r\n        validRentalPropertyId(rentalPropertyId)\r\n        returns (PropertyType)\r\n    {\r\n        return rentalProperties[rentalPropertyId].propertyType;\r\n    }\r\n\r\n    //Function to get the description of a rental property\r\n    function getDescription(\r\n        uint256 rentalPropertyId\r\n    )\r\n        public\r\n        view\r\n        validRentalPropertyId(rentalPropertyId)\r\n        returns (string memory)\r\n    {\r\n        return rentalProperties[rentalPropertyId].description;\r\n    }\r\n\r\n    //Function to get the number of tenants in a rental property\r\n    function getNumOfTenants(\r\n        uint256 rentalPropertyId\r\n    ) public view validRentalPropertyId(rentalPropertyId) returns (uint256) {\r\n        return rentalProperties[rentalPropertyId].numOfTenants;\r\n    }\r\n\r\n    //Function to get the rental price of a rental property\r\n    function getRentalPrice(\r\n        uint256 rentalPropertyId\r\n    ) public view validRentalPropertyId(rentalPropertyId) returns (uint256) {\r\n        return rentalProperties[rentalPropertyId].rentalPrice;\r\n    }\r\n\r\n    //Function to get the lease duration of a rental property\r\n    function getLeaseDuration(\r\n        uint256 rentalPropertyId\r\n    ) public view validRentalPropertyId(rentalPropertyId) returns (uint256) {\r\n        return rentalProperties[rentalPropertyId].leaseDuration;\r\n    }\r\n\r\n    //Function to get the landlord of a rental property\r\n    function getLandlord(\r\n        uint256 rentalPropertyId\r\n    ) public view validRentalPropertyId(rentalPropertyId) returns (address) {\r\n        return rentalProperties[rentalPropertyId].landlord;\r\n    }\r\n\r\n    //Function to get the update status of a rental property\r\n    function getUpdateStatus(\r\n        uint256 rentalPropertyId\r\n    ) public view validRentalPropertyId(rentalPropertyId) returns (bool) {\r\n        return rentalProperties[rentalPropertyId].updateStatus;\r\n    }\r\n\r\n    //Function to get the listed status of a rental property\r\n    function getListedStatus(\r\n        uint256 rentalPropertyId\r\n    ) public view validRentalPropertyId(rentalPropertyId) returns (bool) {\r\n        return rentalProperties[rentalPropertyId].isListed;\r\n    }\r\n\r\n    //Function to get the number of rental properties\r\n    function getNumRentalProperty() public view returns (uint256) {\r\n        return numRentalProperty;\r\n    }\r\n\r\n    //Function to get the number of listed rental properties\r\n    function getNumListedRentalProperty() public view returns (uint256) {\r\n        return numListedRentalProperty;\r\n    }\r\n\r\n    //Function to get the number of unlisted rental properties\r\n    function getNumUnlistedRentalProperty() public view returns (uint256) {\r\n        return numRentalProperty - numListedRentalProperty;\r\n    }\r\n\r\n    //Function to get the number of rental properties of a landlord\r\n    function getNumLandlordRentalProperties(\r\n        address landlord\r\n    ) public view returns (uint256) {\r\n        uint256 count = 0;\r\n        for (uint256 i = 0; i < numRentalProperty; i++) {\r\n            if (rentalProperties[i].landlord == landlord) {\r\n                count++;\r\n            }\r\n        }\r\n        return count;\r\n    }\r\n\r\n    //Function to get the number of listed rental properties of a landlord\r\n    function getNumLandlordListedRentalProperties(\r\n        address landlord\r\n    ) public view returns (uint256) {\r\n        uint256 count = 0;\r\n        for (uint256 i = 0; i < numRentalProperty; i++) {\r\n            if (rentalProperties[i].landlord == landlord) {\r\n                if (rentalProperties[i].isListed == true) {\r\n                    count++;\r\n                }\r\n            }\r\n        }\r\n        return count;\r\n    }\r\n\r\n    //Function to get the number of unlisted rental properties of a landlord\r\n    function getNumLandlordUnlistedRentalProperties(\r\n        address landlord\r\n    ) public view returns (uint256) {\r\n        uint256 count = 0;\r\n        for (uint256 i = 0; i < numRentalProperty; i++) {\r\n            if (rentalProperties[i].landlord == landlord) {\r\n                if (rentalProperties[i].isListed == false) {\r\n                    count++;\r\n                }\r\n            }\r\n        }\r\n        return count;\r\n    }\r\n\r\n\r\n    //Function to get all the rental properties (listed and unlisted)\r\n    function getAllRentalProperties()\r\n        public\r\n        view\r\n        returns (rentalProperty[] memory)\r\n    {\r\n        rentalProperty[] memory allRentalProperties = new rentalProperty[](\r\n            numRentalProperty\r\n        );\r\n        for (uint256 i = 0; i < numRentalProperty; i++) {\r\n            allRentalProperties[i] = rentalProperties[i];\r\n        }\r\n        return allRentalProperties;\r\n    }\r\n\r\n    //Function to get all the listed rental properties\r\n    function getAllListedRentalProperties()\r\n        public\r\n        view\r\n        returns (rentalProperty[] memory)\r\n    {\r\n        rentalProperty[] memory listedRentalProperties = new rentalProperty[](\r\n            numListedRentalProperty\r\n        );\r\n        uint256 index = 0;\r\n        for (uint256 i = 0; i < numRentalProperty; i++) {\r\n            if (rentalProperties[i].isListed == true) {\r\n                listedRentalProperties[index] = rentalProperties[i];\r\n                index++;\r\n            }\r\n        }\r\n        return listedRentalProperties;\r\n    }\r\n\r\n    //Function to get all the unlisted rental properties\r\n    function getAllUnlistedRentalProperties()\r\n        public\r\n        view\r\n        returns (rentalProperty[] memory)\r\n    {\r\n        rentalProperty[] memory unlistedRentalProperties = new rentalProperty[](\r\n            numRentalProperty - numListedRentalProperty\r\n        );\r\n        uint256 index = 0;\r\n        for (uint256 i = 0; i < numRentalProperty; i++) {\r\n            if (rentalProperties[i].isListed == false) {\r\n                unlistedRentalProperties[index] = rentalProperties[i];\r\n                index++;\r\n            }\r\n        }\r\n        return unlistedRentalProperties;\r\n    }\r\n\r\n    //Function to get all the rental properties of a landlord (listed and unlisted)\r\n    function getLandlordRentalProperties(\r\n        address landlord\r\n    ) public view returns (rentalProperty[] memory) {\r\n        rentalProperty[] memory landlordRentalProperties = new rentalProperty[](\r\n            getNumLandlordRentalProperties(landlord)\r\n        );\r\n        uint256 index = 0;\r\n        for (uint256 i = 0; i < numRentalProperty; i++) {\r\n            if (rentalProperties[i].landlord == landlord) {\r\n                landlordRentalProperties[index] = rentalProperties[i];\r\n                index++;\r\n            }\r\n        }\r\n        return landlordRentalProperties;\r\n    }\r\n\r\n    //Function to get all the listed rental properties of a landlord\r\n    function getLandlordListedRentalProperties(\r\n        address landlord\r\n    ) public view returns (rentalProperty[] memory) {\r\n        rentalProperty[] memory landlordListedRentalProperties = new rentalProperty[](\r\n            getNumLandlordListedRentalProperties(landlord)\r\n        );\r\n        uint256 index = 0;\r\n        for (uint256 i = 0; i < numRentalProperty; i++) {\r\n            if (rentalProperties[i].landlord == landlord) {\r\n                if (rentalProperties[i].isListed == true) {\r\n                    landlordListedRentalProperties[index] = rentalProperties[i];\r\n                    index++;\r\n                }\r\n            }\r\n        }\r\n        return landlordListedRentalProperties;\r\n    }\r\n\r\n    //Function to get all the unlisted rental properties of a landlord\r\n    function getLandlordUnlistedRentalProperties(\r\n        address landlord\r\n    ) public view returns (rentalProperty[] memory) {\r\n        rentalProperty[] memory landlordUnlistedRentalProperties = new rentalProperty[](\r\n            getNumLandlordUnlistedRentalProperties(landlord)\r\n        );\r\n        uint256 index = 0;\r\n        for (uint256 i = 0; i < numRentalProperty; i++) {\r\n            if (rentalProperties[i].landlord == landlord) {\r\n                if (rentalProperties[i].isListed == false) {\r\n                    landlordUnlistedRentalProperties[index] = rentalProperties[i];\r\n                    index++;\r\n                }\r\n            }\r\n        }\r\n        return landlordUnlistedRentalProperties;\r\n    }\r\n\r\n    // ################################################### SETTER METHODS ################################################### //\r\n\r\n    //Function to update the location of a rental property\r\n    function updateLocation(\r\n        uint256 rentalPropertyId,\r\n        string memory newLocation\r\n    )\r\n        public\r\n        landlordOnly(rentalPropertyId)\r\n        validRentalPropertyId(rentalPropertyId)\r\n        validUpdateStatus(rentalPropertyId)\r\n    {\r\n        rentalProperties[rentalPropertyId].location = newLocation;\r\n        emit RentalPropertyUpdateLocation(rentalPropertyId, newLocation);\r\n    }\r\n\r\n    //Function to update the postal code of a rental property\r\n    function updatePostalCode(\r\n        uint256 rentalPropertyId,\r\n        string memory newPostalCode\r\n    )\r\n        public\r\n        landlordOnly(rentalPropertyId)\r\n        validRentalPropertyId(rentalPropertyId)\r\n        validUpdateStatus(rentalPropertyId)\r\n    {\r\n        rentalProperties[rentalPropertyId].postalCode = newPostalCode;\r\n        emit RentalPropertyUpdatePostalCode(rentalPropertyId, newPostalCode);\r\n    }\r\n\r\n    //Function to update the unit number of a rental property\r\n    function updateUnitNumber(\r\n        uint256 rentalPropertyId,\r\n        string memory newUnitNumber\r\n    )\r\n        public\r\n        landlordOnly(rentalPropertyId)\r\n        validRentalPropertyId(rentalPropertyId)\r\n        validUpdateStatus(rentalPropertyId)\r\n    {\r\n        rentalProperties[rentalPropertyId].unitNumber = newUnitNumber;\r\n        emit RentalPropertyUpdateUnitNumber(rentalPropertyId, newUnitNumber);\r\n    }\r\n\r\n    //Function to update the property type of a rental property\r\n    function updatePropertyType(\r\n        uint256 rentalPropertyId,\r\n        PropertyType newPropertyType\r\n    )\r\n        public\r\n        landlordOnly(rentalPropertyId)\r\n        validRentalPropertyId(rentalPropertyId)\r\n        validUpdateStatus(rentalPropertyId)\r\n    {\r\n        rentalProperties[rentalPropertyId].propertyType = newPropertyType;\r\n        emit RentalPropertyUpdatePropertyType(\r\n            rentalPropertyId,\r\n            newPropertyType\r\n        );\r\n    }\r\n\r\n    //Function to update the description of a rental property\r\n    function updateDescription(\r\n        uint256 rentalPropertyId,\r\n        string memory newDescription\r\n    )\r\n        public\r\n        landlordOnly(rentalPropertyId)\r\n        validRentalPropertyId(rentalPropertyId)\r\n        validUpdateStatus(rentalPropertyId)\r\n    {\r\n        rentalProperties[rentalPropertyId].description = newDescription;\r\n        emit RentalPropertyUpdateDescription(rentalPropertyId, newDescription);\r\n    }\r\n\r\n    //Function to update the number of tenants in a rental property\r\n    function updateNumOfTenants(\r\n        uint256 rentalPropertyId,\r\n        uint256 newNumOfTenants\r\n    )\r\n        public\r\n        landlordOnly(rentalPropertyId)\r\n        validRentalPropertyId(rentalPropertyId)\r\n        validNumOfTenants(newNumOfTenants)\r\n        validUpdateStatus(rentalPropertyId)\r\n    {\r\n        rentalProperties[rentalPropertyId].numOfTenants = newNumOfTenants;\r\n        emit RentalPropertyUpdateNumOfTenants(\r\n            rentalPropertyId,\r\n            newNumOfTenants\r\n        );\r\n    }\r\n\r\n    //Function to update the rental price of a rental property\r\n    function updateRentalPrice(\r\n        uint256 rentalPropertyId,\r\n        uint256 newRentalPrice\r\n    )\r\n        public\r\n        landlordOnly(rentalPropertyId)\r\n        validRentalPropertyId(rentalPropertyId)\r\n        validRentalPrice(newRentalPrice)\r\n        validUpdateStatus(rentalPropertyId)\r\n    {\r\n        rentalProperties[rentalPropertyId].rentalPrice = newRentalPrice;\r\n        emit RentalPropertyUpdateRentalPrice(rentalPropertyId, newRentalPrice);\r\n    }\r\n\r\n    //Function to update the lease duration of a rental property\r\n    function updateLeaseDuration(\r\n        uint256 rentalPropertyId,\r\n        uint256 newLeaseDuration\r\n    )\r\n        public\r\n        landlordOnly(rentalPropertyId)\r\n        validRentalPropertyId(rentalPropertyId)\r\n        validLeaseDuration(newLeaseDuration)\r\n        validUpdateStatus(rentalPropertyId)\r\n    {\r\n        rentalProperties[rentalPropertyId].leaseDuration = newLeaseDuration;\r\n        emit RentalPropertyUpdateLeaseDuration(\r\n            rentalPropertyId,\r\n            newLeaseDuration\r\n        );\r\n    }\r\n\r\n    //Function to set the new update status of a rental property\r\n    //Not restricted to landlord as this function is used in RentalMarketplace to set the update status to false when there are tenants applications\r\n    function setUpdateStatus(\r\n        uint256 rentalPropertyId,\r\n        bool newUpdateStatus\r\n    ) public validRentalPropertyId(rentalPropertyId) {\r\n        rentalProperties[rentalPropertyId].updateStatus = newUpdateStatus;\r\n    }\r\n\r\n    //Function to set the new listed status of a rental property\r\n    //Not restricted to landlord as this function is used in RentalMarketplace to set the listed status to true when the rental property is listed\r\n    function setListedStatus(\r\n        uint256 rentalPropertyId,\r\n        bool newListedStatus\r\n    ) public validRentalPropertyId(rentalPropertyId) {\r\n        rentalProperties[rentalPropertyId].isListed = newListedStatus;\r\n    }\r\n\r\n    //Function to increment the number of listed rental properties\r\n    //Not restricted to landlord as this function is used in RentalMarketplace to increment the number of listed rental properties\r\n    function incrementListedRentalProperty() public {\r\n        numListedRentalProperty++;\r\n    }\r\n\r\n    //Function to decrement the number of listed rental properties\r\n    //Not restricted to landlord as this function is used in RentalMarketplace to decrement the number of listed rental properties\r\n    function decrementListedRentalProperty() public {\r\n        numListedRentalProperty--;\r\n    }\r\n\r\n    // ################################################### DELETE METHOD ################################################### //\r\n\r\n    //Function to delete a rental property\r\n    function deleteRentalProperty(\r\n        uint256 rentalPropertyId\r\n    )\r\n        public\r\n        landlordOnly(rentalPropertyId)\r\n        validRentalPropertyId(rentalPropertyId)\r\n        validUpdateStatus(rentalPropertyId)\r\n    {\r\n        // delete rental property from rentalProperties map\r\n        delete rentalProperties[rentalPropertyId];\r\n        emit RentalPropertyDeleted(rentalPropertyId);\r\n    }\r\n}\r\n",
  "sourcePath": "C:\\Users\\Bransome Tan Yi Hao\\OneDrive - National University of Singapore\\Desktop\\IS4302\\is4302-project\\contracts\\RentalProperty.sol",
  "compiler": {
    "name": "solc",
    "version": "0.8.1+commit.df193b15.Emscripten.clang"
  },
  "schemaVersion": "3.4.16",
  "updatedAt": "2024-04-09T12:46:30.179Z",
  "devdoc": {
    "kind": "dev",
    "methods": {},
    "version": 1
  },
  "userdoc": {
    "kind": "user",
    "methods": {},
    "version": 1
  }
}