{
  "contractName": "RentalProperty",
  "abi": [
    {
      "anonymous": false,
      "inputs": [
        {
          "indexed": false,
          "internalType": "uint256",
          "name": "rentalPropertyId",
          "type": "uint256"
        },
        {
          "indexed": false,
          "internalType": "string",
          "name": "location",
          "type": "string"
        },
        {
          "indexed": false,
          "internalType": "string",
          "name": "postalCode",
          "type": "string"
        },
        {
          "indexed": false,
          "internalType": "string",
          "name": "unitNumber",
          "type": "string"
        },
        {
          "indexed": false,
          "internalType": "enum RentalProperty.PropertyType",
          "name": "propertyType",
          "type": "uint8"
        },
        {
          "indexed": false,
          "internalType": "string",
          "name": "description",
          "type": "string"
        },
        {
          "indexed": false,
          "internalType": "uint256",
          "name": "numOfTenants",
          "type": "uint256"
        },
        {
          "indexed": false,
          "internalType": "uint256",
          "name": "rentalPrice",
          "type": "uint256"
        },
        {
          "indexed": false,
          "internalType": "uint256",
          "name": "leaseDuration",
          "type": "uint256"
        },
        {
          "indexed": false,
          "internalType": "address",
          "name": "landlord",
          "type": "address"
        },
        {
          "indexed": false,
          "internalType": "bool",
          "name": "updateStatus",
          "type": "bool"
        }
      ],
      "name": "RentalPropertyCreated",
      "type": "event"
    },
    {
      "anonymous": false,
      "inputs": [
        {
          "indexed": false,
          "internalType": "uint256",
          "name": "rentalPropertyId",
          "type": "uint256"
        }
      ],
      "name": "RentalPropertyDeleted",
      "type": "event"
    },
    {
      "anonymous": false,
      "inputs": [
        {
          "indexed": false,
          "internalType": "uint256",
          "name": "rentalPropertyId",
          "type": "uint256"
        },
        {
          "indexed": false,
          "internalType": "string",
          "name": "newDescription",
          "type": "string"
        }
      ],
      "name": "RentalPropertyUpdateDescription",
      "type": "event"
    },
    {
      "anonymous": false,
      "inputs": [
        {
          "indexed": false,
          "internalType": "uint256",
          "name": "rentalPropertyId",
          "type": "uint256"
        },
        {
          "indexed": false,
          "internalType": "uint256",
          "name": "newLeaseDuration",
          "type": "uint256"
        }
      ],
      "name": "RentalPropertyUpdateLeaseDuration",
      "type": "event"
    },
    {
      "anonymous": false,
      "inputs": [
        {
          "indexed": false,
          "internalType": "uint256",
          "name": "rentalPropertyId",
          "type": "uint256"
        },
        {
          "indexed": false,
          "internalType": "string",
          "name": "newLocation",
          "type": "string"
        }
      ],
      "name": "RentalPropertyUpdateLocation",
      "type": "event"
    },
    {
      "anonymous": false,
      "inputs": [
        {
          "indexed": false,
          "internalType": "uint256",
          "name": "rentalPropertyId",
          "type": "uint256"
        },
        {
          "indexed": false,
          "internalType": "uint256",
          "name": "newNumOfTenants",
          "type": "uint256"
        }
      ],
      "name": "RentalPropertyUpdateNumOfTenants",
      "type": "event"
    },
    {
      "anonymous": false,
      "inputs": [
        {
          "indexed": false,
          "internalType": "uint256",
          "name": "rentalPropertyId",
          "type": "uint256"
        },
        {
          "indexed": false,
          "internalType": "string",
          "name": "newPostalCode",
          "type": "string"
        }
      ],
      "name": "RentalPropertyUpdatePostalCode",
      "type": "event"
    },
    {
      "anonymous": false,
      "inputs": [
        {
          "indexed": false,
          "internalType": "uint256",
          "name": "rentalPropertyId",
          "type": "uint256"
        },
        {
          "indexed": false,
          "internalType": "enum RentalProperty.PropertyType",
          "name": "newPropertyType",
          "type": "uint8"
        }
      ],
      "name": "RentalPropertyUpdatePropertyType",
      "type": "event"
    },
    {
      "anonymous": false,
      "inputs": [
        {
          "indexed": false,
          "internalType": "uint256",
          "name": "rentalPropertyId",
          "type": "uint256"
        },
        {
          "indexed": false,
          "internalType": "uint256",
          "name": "newRentalPrice",
          "type": "uint256"
        }
      ],
      "name": "RentalPropertyUpdateRentalPrice",
      "type": "event"
    },
    {
      "anonymous": false,
      "inputs": [
        {
          "indexed": false,
          "internalType": "uint256",
          "name": "rentalPropertyId",
          "type": "uint256"
        },
        {
          "indexed": false,
          "internalType": "string",
          "name": "newUnitNumber",
          "type": "string"
        }
      ],
      "name": "RentalPropertyUpdateUnitNumber",
      "type": "event"
    },
    {
      "inputs": [
        {
          "internalType": "string",
          "name": "_location",
          "type": "string"
        },
        {
          "internalType": "string",
          "name": "_postalCode",
          "type": "string"
        },
        {
          "internalType": "string",
          "name": "_unitNumber",
          "type": "string"
        },
        {
          "internalType": "enum RentalProperty.PropertyType",
          "name": "_propertyType",
          "type": "uint8"
        },
        {
          "internalType": "string",
          "name": "_description",
          "type": "string"
        },
        {
          "internalType": "uint256",
          "name": "_numOfTenants",
          "type": "uint256"
        },
        {
          "internalType": "uint256",
          "name": "_rentalPrice",
          "type": "uint256"
        },
        {
          "internalType": "uint256",
          "name": "_leaseDuration",
          "type": "uint256"
        }
      ],
      "name": "addRentalProperty",
      "outputs": [
        {
          "internalType": "uint256",
          "name": "",
          "type": "uint256"
        }
      ],
      "stateMutability": "nonpayable",
      "type": "function"
    },
    {
      "inputs": [
        {
          "internalType": "uint256",
          "name": "rentalPropertyId",
          "type": "uint256"
        }
      ],
      "name": "getRentalProperty",
      "outputs": [
        {
          "components": [
            {
              "internalType": "string",
              "name": "location",
              "type": "string"
            },
            {
              "internalType": "string",
              "name": "postalCode",
              "type": "string"
            },
            {
              "internalType": "string",
              "name": "unitNumber",
              "type": "string"
            },
            {
              "internalType": "enum RentalProperty.PropertyType",
              "name": "propertyType",
              "type": "uint8"
            },
            {
              "internalType": "string",
              "name": "description",
              "type": "string"
            },
            {
              "internalType": "uint256",
              "name": "numOfTenants",
              "type": "uint256"
            },
            {
              "internalType": "uint256",
              "name": "rentalPrice",
              "type": "uint256"
            },
            {
              "internalType": "uint256",
              "name": "leaseDuration",
              "type": "uint256"
            },
            {
              "internalType": "address",
              "name": "landlord",
              "type": "address"
            },
            {
              "internalType": "bool",
              "name": "updateStatus",
              "type": "bool"
            }
          ],
          "internalType": "struct RentalProperty.rentalProperty",
          "name": "",
          "type": "tuple"
        }
      ],
      "stateMutability": "view",
      "type": "function",
      "constant": true
    },
    {
      "inputs": [
        {
          "internalType": "uint256",
          "name": "rentalPropertyId",
          "type": "uint256"
        }
      ],
      "name": "getLocation",
      "outputs": [
        {
          "internalType": "string",
          "name": "",
          "type": "string"
        }
      ],
      "stateMutability": "view",
      "type": "function",
      "constant": true
    },
    {
      "inputs": [
        {
          "internalType": "uint256",
          "name": "rentalPropertyId",
          "type": "uint256"
        }
      ],
      "name": "getPostalCode",
      "outputs": [
        {
          "internalType": "string",
          "name": "",
          "type": "string"
        }
      ],
      "stateMutability": "view",
      "type": "function",
      "constant": true
    },
    {
      "inputs": [
        {
          "internalType": "uint256",
          "name": "rentalPropertyId",
          "type": "uint256"
        }
      ],
      "name": "getUnitNumber",
      "outputs": [
        {
          "internalType": "string",
          "name": "",
          "type": "string"
        }
      ],
      "stateMutability": "view",
      "type": "function",
      "constant": true
    },
    {
      "inputs": [
        {
          "internalType": "uint256",
          "name": "rentalPropertyId",
          "type": "uint256"
        }
      ],
      "name": "getPropertyType",
      "outputs": [
        {
          "internalType": "enum RentalProperty.PropertyType",
          "name": "",
          "type": "uint8"
        }
      ],
      "stateMutability": "view",
      "type": "function",
      "constant": true
    },
    {
      "inputs": [
        {
          "internalType": "uint256",
          "name": "rentalPropertyId",
          "type": "uint256"
        }
      ],
      "name": "getDescription",
      "outputs": [
        {
          "internalType": "string",
          "name": "",
          "type": "string"
        }
      ],
      "stateMutability": "view",
      "type": "function",
      "constant": true
    },
    {
      "inputs": [
        {
          "internalType": "uint256",
          "name": "rentalPropertyId",
          "type": "uint256"
        }
      ],
      "name": "getNumOfTenants",
      "outputs": [
        {
          "internalType": "uint256",
          "name": "",
          "type": "uint256"
        }
      ],
      "stateMutability": "view",
      "type": "function",
      "constant": true
    },
    {
      "inputs": [
        {
          "internalType": "uint256",
          "name": "rentalPropertyId",
          "type": "uint256"
        }
      ],
      "name": "getRentalPrice",
      "outputs": [
        {
          "internalType": "uint256",
          "name": "",
          "type": "uint256"
        }
      ],
      "stateMutability": "view",
      "type": "function",
      "constant": true
    },
    {
      "inputs": [
        {
          "internalType": "uint256",
          "name": "rentalPropertyId",
          "type": "uint256"
        }
      ],
      "name": "getLeaseDuration",
      "outputs": [
        {
          "internalType": "uint256",
          "name": "",
          "type": "uint256"
        }
      ],
      "stateMutability": "view",
      "type": "function",
      "constant": true
    },
    {
      "inputs": [
        {
          "internalType": "uint256",
          "name": "rentalPropertyId",
          "type": "uint256"
        }
      ],
      "name": "getLandlord",
      "outputs": [
        {
          "internalType": "address",
          "name": "",
          "type": "address"
        }
      ],
      "stateMutability": "view",
      "type": "function",
      "constant": true
    },
    {
      "inputs": [],
      "name": "getNumRentalProperty",
      "outputs": [
        {
          "internalType": "uint256",
          "name": "",
          "type": "uint256"
        }
      ],
      "stateMutability": "view",
      "type": "function",
      "constant": true
    },
    {
      "inputs": [
        {
          "internalType": "uint256",
          "name": "rentalPropertyId",
          "type": "uint256"
        },
        {
          "internalType": "string",
          "name": "newLocation",
          "type": "string"
        }
      ],
      "name": "updateLocation",
      "outputs": [],
      "stateMutability": "nonpayable",
      "type": "function"
    },
    {
      "inputs": [
        {
          "internalType": "uint256",
          "name": "rentalPropertyId",
          "type": "uint256"
        },
        {
          "internalType": "string",
          "name": "newPostalCode",
          "type": "string"
        }
      ],
      "name": "updatePostalCode",
      "outputs": [],
      "stateMutability": "nonpayable",
      "type": "function"
    },
    {
      "inputs": [
        {
          "internalType": "uint256",
          "name": "rentalPropertyId",
          "type": "uint256"
        },
        {
          "internalType": "string",
          "name": "newUnitNumber",
          "type": "string"
        }
      ],
      "name": "updateUnitNumber",
      "outputs": [],
      "stateMutability": "nonpayable",
      "type": "function"
    },
    {
      "inputs": [
        {
          "internalType": "uint256",
          "name": "rentalPropertyId",
          "type": "uint256"
        },
        {
          "internalType": "enum RentalProperty.PropertyType",
          "name": "newPropertyType",
          "type": "uint8"
        }
      ],
      "name": "updatePropertyType",
      "outputs": [],
      "stateMutability": "nonpayable",
      "type": "function"
    },
    {
      "inputs": [
        {
          "internalType": "uint256",
          "name": "rentalPropertyId",
          "type": "uint256"
        },
        {
          "internalType": "string",
          "name": "newDescription",
          "type": "string"
        }
      ],
      "name": "updateDescription",
      "outputs": [],
      "stateMutability": "nonpayable",
      "type": "function"
    },
    {
      "inputs": [
        {
          "internalType": "uint256",
          "name": "rentalPropertyId",
          "type": "uint256"
        },
        {
          "internalType": "uint256",
          "name": "newNumOfTenants",
          "type": "uint256"
        }
      ],
      "name": "updateNumOfTenants",
      "outputs": [],
      "stateMutability": "nonpayable",
      "type": "function"
    },
    {
      "inputs": [
        {
          "internalType": "uint256",
          "name": "rentalPropertyId",
          "type": "uint256"
        },
        {
          "internalType": "uint256",
          "name": "newRentalPrice",
          "type": "uint256"
        }
      ],
      "name": "updateRentalPrice",
      "outputs": [],
      "stateMutability": "nonpayable",
      "type": "function"
    },
    {
      "inputs": [
        {
          "internalType": "uint256",
          "name": "rentalPropertyId",
          "type": "uint256"
        },
        {
          "internalType": "uint256",
          "name": "newLeaseDuration",
          "type": "uint256"
        }
      ],
      "name": "updateLeaseDuration",
      "outputs": [],
      "stateMutability": "nonpayable",
      "type": "function"
    },
    {
      "inputs": [
        {
          "internalType": "uint256",
          "name": "rentalPropertyId",
          "type": "uint256"
        },
        {
          "internalType": "bool",
          "name": "newUpdateStatus",
          "type": "bool"
        }
      ],
      "name": "setUpdateStatus",
      "outputs": [],
      "stateMutability": "nonpayable",
      "type": "function"
    },
    {
      "inputs": [
        {
          "internalType": "uint256",
          "name": "rentalPropertyId",
          "type": "uint256"
        }
      ],
      "name": "deleteRentalProperty",
      "outputs": [],
      "stateMutability": "nonpayable",
      "type": "function"
    }
  ],
  "bytecode": "0x60806040526000805534801561001457600080fd5b5061327b806100246000396000f3fe608060405234801561001057600080fd5b50600436106101425760003560e01c806390abcd98116100b8578063bf7225be1161007c578063bf7225be146103a7578063c3b3f0d1146103d7578063e019caa3146103f3578063e1ba0b801461040f578063e924e64a1461042d578063fd003e4a1461045d57610142565b806390abcd98146102f35780639d999edd1461030f578063a30cff731461032b578063aee7813114610347578063b23392ec1461037757610142565b8063502fb9fd1161010a578063502fb9fd146101fb5780635fcd64531461022b5780636712f55f146102475780637735e668146102775780637f7b1393146102a75780638ac765a1146102d757610142565b80630d10702c1461014757806314dee4b31461017757806317980888146101935780634925ec55146101af5780634ec0c9e9146101df575b600080fd5b610161600480360381019061015c919061271a565b61048d565b60405161016e9190612b2c565b60405180910390f35b610191600480360381019061018c91906127bb565b61057b565b005b6101ad60048036038101906101a8919061271a565b61073b565b005b6101c960048036038101906101c4919061271a565b61098a565b6040516101d69190612b2c565b60405180910390f35b6101f960048036038101906101f491906127bb565b610a78565b005b6102156004803603810190610210919061271a565b610c38565b6040516102229190612af6565b60405180910390f35b6102456004803603810190610240919061280f565b610cbe565b005b610261600480360381019061025c919061271a565b610eb3565b60405161026e9190612b11565b60405180910390f35b610291600480360381019061028c919061271a565b610f26565b60405161029e9190612c30565b60405180910390f35b6102c160048036038101906102bc919061271a565b610f8c565b6040516102ce9190612b2c565b60405180910390f35b6102f160048036038101906102ec919061277f565b61107a565b005b61030d6004803603810190610308919061280f565b611273565b005b610329600480360381019061032491906127bb565b611468565b005b6103456004803603810190610340919061280f565b611628565b005b610361600480360381019061035c919061271a565b61181d565b60405161036e9190612c30565b60405180910390f35b610391600480360381019061038c919061271a565b611883565b60405161039e9190612b2c565b60405180910390f35b6103c160048036038101906103bc9190612608565b611971565b6040516103ce9190612c30565b60405180910390f35b6103f160048036038101906103ec9190612743565b611cbc565b005b61040d600480360381019061040891906127bb565b611dda565b005b610417611f9a565b6040516104249190612c30565b60405180910390f35b6104476004803603810190610442919061271a565b611fa3565b6040516104549190612c30565b60405180910390f35b6104776004803603810190610472919061271a565b612009565b6040516104849190612c0e565b60405180910390f35b60608160005481106104d4576040517f08c379a00000000000000000000000000000000000000000000000000000000081526004016104cb90612b4e565b60405180910390fd5b6001600084815260200190815260200160002060010180546104f590612ec6565b80601f016020809104026020016040519081016040528092919081815260200182805461052190612ec6565b801561056e5780601f106105435761010080835404028352916020019161056e565b820191906000526020600020905b81548152906001019060200180831161055157829003601f168201915b5050505050915050919050565b813373ffffffffffffffffffffffffffffffffffffffff166001600083815260200190815260200160002060080160009054906101000a900473ffffffffffffffffffffffffffffffffffffffff1673ffffffffffffffffffffffffffffffffffffffff1614610620576040517f08c379a000000000000000000000000000000000000000000000000000000000815260040161061790612bee565b60405180910390fd5b826000548110610665576040517f08c379a000000000000000000000000000000000000000000000000000000000815260040161065c90612b4e565b60405180910390fd5b83600115156001600083815260200190815260200160002060080160149054906101000a900460ff161515146106d0576040517f08c379a00000000000000000000000000000000000000000000000000000000081526004016106c790612b8e565b60405180910390fd5b836001600087815260200190815260200160002060040190805190602001906106fa9291906123db565b507ff9e0cfc2139c5407b5c0da663755cc093ddf08c0cd22ef287cd8899544227709858560405161072c929190612c74565b60405180910390a15050505050565b803373ffffffffffffffffffffffffffffffffffffffff166001600083815260200190815260200160002060080160009054906101000a900473ffffffffffffffffffffffffffffffffffffffff1673ffffffffffffffffffffffffffffffffffffffff16146107e0576040517f08c379a00000000000000000000000000000000000000000000000000000000081526004016107d790612bee565b60405180910390fd5b816000548110610825576040517f08c379a000000000000000000000000000000000000000000000000000000000815260040161081c90612b4e565b60405180910390fd5b82600115156001600083815260200190815260200160002060080160149054906101000a900460ff16151514610890576040517f08c379a000000000000000000000000000000000000000000000000000000000815260040161088790612b8e565b60405180910390fd5b60016000858152602001908152602001600020600080820160006108b49190612461565b6001820160006108c49190612461565b6002820160006108d49190612461565b6003820160006101000a81549060ff02191690556004820160006108f89190612461565b6005820160009055600682016000905560078201600090556008820160006101000a81549073ffffffffffffffffffffffffffffffffffffffff02191690556008820160146101000a81549060ff021916905550507f4adbec0d66623051c877058902b8ce13a83d19905b8ec8479e56282799601a768460405161097c9190612c30565b60405180910390a150505050565b60608160005481106109d1576040517f08c379a00000000000000000000000000000000000000000000000000000000081526004016109c890612b4e565b60405180910390fd5b6001600084815260200190815260200160002060040180546109f290612ec6565b80601f0160208091040260200160405190810160405280929190818152602001828054610a1e90612ec6565b8015610a6b5780601f10610a4057610100808354040283529160200191610a6b565b820191906000526020600020905b815481529060010190602001808311610a4e57829003601f168201915b5050505050915050919050565b813373ffffffffffffffffffffffffffffffffffffffff166001600083815260200190815260200160002060080160009054906101000a900473ffffffffffffffffffffffffffffffffffffffff1673ffffffffffffffffffffffffffffffffffffffff1614610b1d576040517f08c379a0000000000000000000000000000000000000000000000000000000008152600401610b1490612bee565b60405180910390fd5b826000548110610b62576040517f08c379a0000000000000000000000000000000000000000000000000000000008152600401610b5990612b4e565b60405180910390fd5b83600115156001600083815260200190815260200160002060080160149054906101000a900460ff16151514610bcd576040517f08c379a0000000000000000000000000000000000000000000000000000000008152600401610bc490612b8e565b60405180910390fd5b83600160008781526020019081526020016000206000019080519060200190610bf79291906123db565b507f2f785e77b95a4a5b3cae7abe711f551fae6dd194d3e0afee52aa099035c172818585604051610c29929190612c74565b60405180910390a15050505050565b6000816000548110610c7f576040517f08c379a0000000000000000000000000000000000000000000000000000000008152600401610c7690612b4e565b60405180910390fd5b6001600084815260200190815260200160002060080160009054906101000a900473ffffffffffffffffffffffffffffffffffffffff16915050919050565b813373ffffffffffffffffffffffffffffffffffffffff166001600083815260200190815260200160002060080160009054906101000a900473ffffffffffffffffffffffffffffffffffffffff1673ffffffffffffffffffffffffffffffffffffffff1614610d63576040517f08c379a0000000000000000000000000000000000000000000000000000000008152600401610d5a90612bee565b60405180910390fd5b826000548110610da8576040517f08c379a0000000000000000000000000000000000000000000000000000000008152600401610d9f90612b4e565b60405180910390fd5b8260008111610dec576040517f08c379a0000000000000000000000000000000000000000000000000000000008152600401610de390612bce565b60405180910390fd5b84600115156001600083815260200190815260200160002060080160149054906101000a900460ff16151514610e57576040517f08c379a0000000000000000000000000000000000000000000000000000000008152600401610e4e90612b8e565b60405180910390fd5b8460016000888152602001908152602001600020600501819055507fd18a5a33f02c71e4837afac7f0824400276d50280aee3ee7d8802309c305c3538686604051610ea3929190612d6b565b60405180910390a1505050505050565b6000816000548110610efa576040517f08c379a0000000000000000000000000000000000000000000000000000000008152600401610ef190612b4e565b60405180910390fd5b6001600084815260200190815260200160002060030160009054906101000a900460ff16915050919050565b6000816000548110610f6d576040517f08c379a0000000000000000000000000000000000000000000000000000000008152600401610f6490612b4e565b60405180910390fd5b6001600084815260200190815260200160002060050154915050919050565b6060816000548110610fd3576040517f08c379a0000000000000000000000000000000000000000000000000000000008152600401610fca90612b4e565b60405180910390fd5b600160008481526020019081526020016000206000018054610ff490612ec6565b80601f016020809104026020016040519081016040528092919081815260200182805461102090612ec6565b801561106d5780601f106110425761010080835404028352916020019161106d565b820191906000526020600020905b81548152906001019060200180831161105057829003601f168201915b5050505050915050919050565b813373ffffffffffffffffffffffffffffffffffffffff166001600083815260200190815260200160002060080160009054906101000a900473ffffffffffffffffffffffffffffffffffffffff1673ffffffffffffffffffffffffffffffffffffffff161461111f576040517f08c379a000000000000000000000000000000000000000000000000000000000815260040161111690612bee565b60405180910390fd5b826000548110611164576040517f08c379a000000000000000000000000000000000000000000000000000000000815260040161115b90612b4e565b60405180910390fd5b83600115156001600083815260200190815260200160002060080160149054906101000a900460ff161515146111cf576040517f08c379a00000000000000000000000000000000000000000000000000000000081526004016111c690612b8e565b60405180910390fd5b836001600087815260200190815260200160002060030160006101000a81548160ff0219169083600381111561122e577f4e487b7100000000000000000000000000000000000000000000000000000000600052602160045260246000fd5b02179055507f3208ad7d5d89490dfec0ba2e46d58fec5086ddbb91bdc76518a9ccc251c6b37d8585604051611264929190612c4b565b60405180910390a15050505050565b813373ffffffffffffffffffffffffffffffffffffffff166001600083815260200190815260200160002060080160009054906101000a900473ffffffffffffffffffffffffffffffffffffffff1673ffffffffffffffffffffffffffffffffffffffff1614611318576040517f08c379a000000000000000000000000000000000000000000000000000000000815260040161130f90612bee565b60405180910390fd5b82600054811061135d576040517f08c379a000000000000000000000000000000000000000000000000000000000815260040161135490612b4e565b60405180910390fd5b82600081116113a1576040517f08c379a000000000000000000000000000000000000000000000000000000000815260040161139890612b6e565b60405180910390fd5b84600115156001600083815260200190815260200160002060080160149054906101000a900460ff1615151461140c576040517f08c379a000000000000000000000000000000000000000000000000000000000815260040161140390612b8e565b60405180910390fd5b8460016000888152602001908152602001600020600601819055507ff2fc46abca9db71cc72135e2de0769502341c219aca35c83b8afbd7a6e7458238686604051611458929190612d6b565b60405180910390a1505050505050565b813373ffffffffffffffffffffffffffffffffffffffff166001600083815260200190815260200160002060080160009054906101000a900473ffffffffffffffffffffffffffffffffffffffff1673ffffffffffffffffffffffffffffffffffffffff161461150d576040517f08c379a000000000000000000000000000000000000000000000000000000000815260040161150490612bee565b60405180910390fd5b826000548110611552576040517f08c379a000000000000000000000000000000000000000000000000000000000815260040161154990612b4e565b60405180910390fd5b83600115156001600083815260200190815260200160002060080160149054906101000a900460ff161515146115bd576040517f08c379a00000000000000000000000000000000000000000000000000000000081526004016115b490612b8e565b60405180910390fd5b836001600087815260200190815260200160002060020190805190602001906115e79291906123db565b507fd2fc88a3528790fea162e71e7975873743096ba0c20dfddbe0ac6c306786ed7b8585604051611619929190612c74565b60405180910390a15050505050565b813373ffffffffffffffffffffffffffffffffffffffff166001600083815260200190815260200160002060080160009054906101000a900473ffffffffffffffffffffffffffffffffffffffff1673ffffffffffffffffffffffffffffffffffffffff16146116cd576040517f08c379a00000000000000000000000000000000000000000000000000000000081526004016116c490612bee565b60405180910390fd5b826000548110611712576040517f08c379a000000000000000000000000000000000000000000000000000000000815260040161170990612b4e565b60405180910390fd5b8260008111611756576040517f08c379a000000000000000000000000000000000000000000000000000000000815260040161174d90612bae565b60405180910390fd5b84600115156001600083815260200190815260200160002060080160149054906101000a900460ff161515146117c1576040517f08c379a00000000000000000000000000000000000000000000000000000000081526004016117b890612b8e565b60405180910390fd5b8460016000888152602001908152602001600020600701819055507f36745ecb9be3cc90b3dbaa3d40e04b5b8d12074c2eb18b665ec5976968968373868660405161180d929190612d6b565b60405180910390a1505050505050565b6000816000548110611864576040517f08c379a000000000000000000000000000000000000000000000000000000000815260040161185b90612b4e565b60405180910390fd5b6001600084815260200190815260200160002060070154915050919050565b60608160005481106118ca576040517f08c379a00000000000000000000000000000000000000000000000000000000081526004016118c190612b4e565b60405180910390fd5b6001600084815260200190815260200160002060020180546118eb90612ec6565b80601f016020809104026020016040519081016040528092919081815260200182805461191790612ec6565b80156119645780601f1061193957610100808354040283529160200191611964565b820191906000526020600020905b81548152906001019060200180831161194757829003601f168201915b5050505050915050919050565b600083600081116119b7576040517f08c379a00000000000000000000000000000000000000000000000000000000081526004016119ae90612bce565b60405180910390fd5b83600081116119fb576040517f08c379a00000000000000000000000000000000000000000000000000000000081526004016119f290612b6e565b60405180910390fd5b8360008111611a3f576040517f08c379a0000000000000000000000000000000000000000000000000000000008152600401611a3690612bae565b60405180910390fd5b60006040518061014001604052808e81526020018d81526020018c81526020018b6003811115611a98577f4e487b7100000000000000000000000000000000000000000000000000000000600052602160045260246000fd5b81526020018a81526020018981526020018881526020018781526020013373ffffffffffffffffffffffffffffffffffffffff1681526020016001151581525090506000806000815480929190611aee90612f29565b91905055905081600160008381526020019081526020016000206000820151816000019080519060200190611b249291906123db565b506020820151816001019080519060200190611b419291906123db565b506040820151816002019080519060200190611b5e9291906123db565b5060608201518160030160006101000a81548160ff02191690836003811115611bb0577f4e487b7100000000000000000000000000000000000000000000000000000000600052602160045260246000fd5b02179055506080820151816004019080519060200190611bd19291906123db565b5060a0820151816005015560c0820151816006015560e082015181600701556101008201518160080160006101000a81548173ffffffffffffffffffffffffffffffffffffffff021916908373ffffffffffffffffffffffffffffffffffffffff1602179055506101208201518160080160146101000a81548160ff0219169083151502179055509050507f6bfa60fa07d7170d47c916a1c87e15b298893cf85b8bd804fa1a53edf21e0ada818f8f8f8f8f8f8f8f336001604051611ca09b9a99989796959493929190612ca4565b60405180910390a1809550505050505098975050505050505050565b813373ffffffffffffffffffffffffffffffffffffffff166001600083815260200190815260200160002060080160009054906101000a900473ffffffffffffffffffffffffffffffffffffffff1673ffffffffffffffffffffffffffffffffffffffff1614611d61576040517f08c379a0000000000000000000000000000000000000000000000000000000008152600401611d5890612bee565b60405180910390fd5b826000548110611da6576040517f08c379a0000000000000000000000000000000000000000000000000000000008152600401611d9d90612b4e565b60405180910390fd5b826001600086815260200190815260200160002060080160146101000a81548160ff02191690831515021790555050505050565b813373ffffffffffffffffffffffffffffffffffffffff166001600083815260200190815260200160002060080160009054906101000a900473ffffffffffffffffffffffffffffffffffffffff1673ffffffffffffffffffffffffffffffffffffffff1614611e7f576040517f08c379a0000000000000000000000000000000000000000000000000000000008152600401611e7690612bee565b60405180910390fd5b826000548110611ec4576040517f08c379a0000000000000000000000000000000000000000000000000000000008152600401611ebb90612b4e565b60405180910390fd5b83600115156001600083815260200190815260200160002060080160149054906101000a900460ff16151514611f2f576040517f08c379a0000000000000000000000000000000000000000000000000000000008152600401611f2690612b8e565b60405180910390fd5b83600160008781526020019081526020016000206001019080519060200190611f599291906123db565b507fc92be2d1aa69266735ff482064bb1aca2d648d2d9d65c293ccd1f534d274736d8585604051611f8b929190612c74565b60405180910390a15050505050565b60008054905090565b6000816000548110611fea576040517f08c379a0000000000000000000000000000000000000000000000000000000008152600401611fe190612b4e565b60405180910390fd5b6001600084815260200190815260200160002060060154915050919050565b6120116124a1565b816000548110612056576040517f08c379a000000000000000000000000000000000000000000000000000000000815260040161204d90612b4e565b60405180910390fd5b600160008481526020019081526020016000206040518061014001604052908160008201805461208590612ec6565b80601f01602080910402602001604051908101604052809291908181526020018280546120b190612ec6565b80156120fe5780601f106120d3576101008083540402835291602001916120fe565b820191906000526020600020905b8154815290600101906020018083116120e157829003601f168201915b5050505050815260200160018201805461211790612ec6565b80601f016020809104026020016040519081016040528092919081815260200182805461214390612ec6565b80156121905780601f1061216557610100808354040283529160200191612190565b820191906000526020600020905b81548152906001019060200180831161217357829003601f168201915b505050505081526020016002820180546121a990612ec6565b80601f01602080910402602001604051908101604052809291908181526020018280546121d590612ec6565b80156122225780601f106121f757610100808354040283529160200191612222565b820191906000526020600020905b81548152906001019060200180831161220557829003601f168201915b505050505081526020016003820160009054906101000a900460ff166003811115612276577f4e487b7100000000000000000000000000000000000000000000000000000000600052602160045260246000fd5b60038111156122ae577f4e487b7100000000000000000000000000000000000000000000000000000000600052602160045260246000fd5b81526020016004820180546122c290612ec6565b80601f01602080910402602001604051908101604052809291908181526020018280546122ee90612ec6565b801561233b5780601f106123105761010080835404028352916020019161233b565b820191906000526020600020905b81548152906001019060200180831161231e57829003601f168201915b505050505081526020016005820154815260200160068201548152602001600782015481526020016008820160009054906101000a900473ffffffffffffffffffffffffffffffffffffffff1673ffffffffffffffffffffffffffffffffffffffff1673ffffffffffffffffffffffffffffffffffffffff1681526020016008820160149054906101000a900460ff161515151581525050915050919050565b8280546123e790612ec6565b90600052602060002090601f0160209004810192826124095760008555612450565b82601f1061242257805160ff1916838001178555612450565b82800160010185558215612450579182015b8281111561244f578251825591602001919060010190612434565b5b50905061245d9190612544565b5090565b50805461246d90612ec6565b6000825580601f1061247f575061249e565b601f01602090049060005260206000209081019061249d9190612544565b5b50565b604051806101400160405280606081526020016060815260200160608152602001600060038111156124fc577f4e487b7100000000000000000000000000000000000000000000000000000000600052602160045260246000fd5b815260200160608152602001600081526020016000815260200160008152602001600073ffffffffffffffffffffffffffffffffffffffff1681526020016000151581525090565b5b8082111561255d576000816000905550600101612545565b5090565b600061257461256f84612db9565b612d94565b90508281526020810184848401111561258c57600080fd5b612597848285612e84565b509392505050565b6000813590506125ae81613207565b92915050565b6000813590506125c38161321e565b92915050565b600082601f8301126125da57600080fd5b81356125ea848260208601612561565b91505092915050565b6000813590506126028161322e565b92915050565b600080600080600080600080610100898b03121561262557600080fd5b600089013567ffffffffffffffff81111561263f57600080fd5b61264b8b828c016125c9565b985050602089013567ffffffffffffffff81111561266857600080fd5b6126748b828c016125c9565b975050604089013567ffffffffffffffff81111561269157600080fd5b61269d8b828c016125c9565b96505060606126ae8b828c016125b4565b955050608089013567ffffffffffffffff8111156126cb57600080fd5b6126d78b828c016125c9565b94505060a06126e88b828c016125f3565b93505060c06126f98b828c016125f3565b92505060e061270a8b828c016125f3565b9150509295985092959890939650565b60006020828403121561272c57600080fd5b600061273a848285016125f3565b91505092915050565b6000806040838503121561275657600080fd5b6000612764858286016125f3565b92505060206127758582860161259f565b9150509250929050565b6000806040838503121561279257600080fd5b60006127a0858286016125f3565b92505060206127b1858286016125b4565b9150509250929050565b600080604083850312156127ce57600080fd5b60006127dc858286016125f3565b925050602083013567ffffffffffffffff8111156127f957600080fd5b612805858286016125c9565b9150509250929050565b6000806040838503121561282257600080fd5b6000612830858286016125f3565b9250506020612841858286016125f3565b9150509250929050565b61285481612e17565b82525050565b61286381612e17565b82525050565b61287281612e29565b82525050565b61288181612e29565b82525050565b61289081612e72565b82525050565b61289f81612e72565b82525050565b60006128b082612dea565b6128ba8185612df5565b93506128ca818560208601612e93565b6128d38161302e565b840191505092915050565b60006128e982612dea565b6128f38185612e06565b9350612903818560208601612e93565b61290c8161302e565b840191505092915050565b6000612924601a83612e06565b915061292f8261303f565b602082019050919050565b6000612947602383612e06565b915061295282613068565b604082019050919050565b600061296a602183612e06565b9150612975826130b7565b604082019050919050565b600061298d602583612e06565b915061299882613106565b604082019050919050565b60006129b0602883612e06565b91506129bb82613155565b604082019050919050565b60006129d3602883612e06565b91506129de826131a4565b604082019050919050565b6000610140830160008301518482036000860152612a0782826128a5565b91505060208301518482036020860152612a2182826128a5565b91505060408301518482036040860152612a3b82826128a5565b9150506060830151612a506060860182612887565b5060808301518482036080860152612a6882826128a5565b91505060a0830151612a7d60a0860182612ad8565b5060c0830151612a9060c0860182612ad8565b5060e0830151612aa360e0860182612ad8565b50610100830151612ab861010086018261284b565b50610120830151612acd610120860182612869565b508091505092915050565b612ae181612e68565b82525050565b612af081612e68565b82525050565b6000602082019050612b0b600083018461285a565b92915050565b6000602082019050612b266000830184612896565b92915050565b60006020820190508181036000830152612b4681846128de565b905092915050565b60006020820190508181036000830152612b6781612917565b9050919050565b60006020820190508181036000830152612b878161293a565b9050919050565b60006020820190508181036000830152612ba78161295d565b9050919050565b60006020820190508181036000830152612bc781612980565b9050919050565b60006020820190508181036000830152612be7816129a3565b9050919050565b60006020820190508181036000830152612c07816129c6565b9050919050565b60006020820190508181036000830152612c2881846129e9565b905092915050565b6000602082019050612c456000830184612ae7565b92915050565b6000604082019050612c606000830185612ae7565b612c6d6020830184612896565b9392505050565b6000604082019050612c896000830185612ae7565b8181036020830152612c9b81846128de565b90509392505050565b600061016082019050612cba600083018e612ae7565b8181036020830152612ccc818d6128de565b90508181036040830152612ce0818c6128de565b90508181036060830152612cf4818b6128de565b9050612d03608083018a612896565b81810360a0830152612d1581896128de565b9050612d2460c0830188612ae7565b612d3160e0830187612ae7565b612d3f610100830186612ae7565b612d4d61012083018561285a565b612d5b610140830184612878565b9c9b505050505050505050505050565b6000604082019050612d806000830185612ae7565b612d8d6020830184612ae7565b9392505050565b6000612d9e612daf565b9050612daa8282612ef8565b919050565b6000604051905090565b600067ffffffffffffffff821115612dd457612dd3612fff565b5b612ddd8261302e565b9050602081019050919050565b600081519050919050565b600082825260208201905092915050565b600082825260208201905092915050565b6000612e2282612e48565b9050919050565b60008115159050919050565b6000819050612e43826131f3565b919050565b600073ffffffffffffffffffffffffffffffffffffffff82169050919050565b6000819050919050565b6000612e7d82612e35565b9050919050565b82818337600083830152505050565b60005b83811015612eb1578082015181840152602081019050612e96565b83811115612ec0576000848401525b50505050565b60006002820490506001821680612ede57607f821691505b60208210811415612ef257612ef1612fd0565b5b50919050565b612f018261302e565b810181811067ffffffffffffffff82111715612f2057612f1f612fff565b5b80604052505050565b6000612f3482612e68565b91507fffffffffffffffffffffffffffffffffffffffffffffffffffffffffffffffff821415612f6757612f66612f72565b5b600182019050919050565b7f4e487b7100000000000000000000000000000000000000000000000000000000600052601160045260246000fd5b7f4e487b7100000000000000000000000000000000000000000000000000000000600052602160045260246000fd5b7f4e487b7100000000000000000000000000000000000000000000000000000000600052602260045260246000fd5b7f4e487b7100000000000000000000000000000000000000000000000000000000600052604160045260246000fd5b6000601f19601f8301169050919050565b7f496e76616c69642072656e74616c2070726f7065727479206964000000000000600082015250565b7f52656e74616c205072696365206d75737420626520677265617465722074686160008201527f6e20300000000000000000000000000000000000000000000000000000000000602082015250565b7f52656e74616c2050726f70657274792063616e6e6f742062652075706461746560008201527f6400000000000000000000000000000000000000000000000000000000000000602082015250565b7f4c65617365204475726174696f6e206d7573742062652067726561746572207460008201527f68616e2030000000000000000000000000000000000000000000000000000000602082015250565b7f4e756d626572206f662074656e616e7473206d7573742062652067726561746560008201527f72207468616e2030000000000000000000000000000000000000000000000000602082015250565b7f4f6e6c7920746865206c616e646c6f72642063616e2063616c6c20746869732060008201527f66756e6374696f6e000000000000000000000000000000000000000000000000602082015250565b6004811061320457613203612fa1565b5b50565b61321081612e29565b811461321b57600080fd5b50565b6004811061322b57600080fd5b50565b61323781612e68565b811461324257600080fd5b5056fea264697066735822122064ffd80d885a12c4175af4a3d5eb428a99853e405cce135c6ee0e0c1b9b477b264736f6c63430008010033",
  "immutableReferences": {},
  "source": "// SPDX-License-Identifier: MIT \npragma solidity ^0.8.0;\n\ncontract RentalProperty {\n    // ################################################### STRUCTURE & STATE VARIABLES ################################################### //\n\n    enum PropertyType {\n        HDB,\n        Condo,\n        Landed,\n        Other\n    }\n\n    struct rentalProperty {\n        string location; // location of the property\n        string postalCode; // postal code of the property\n        string unitNumber; // unit number of the property\n        PropertyType propertyType; // type of property\n        string description; // description of the property\n        uint256 numOfTenants; // number of tenants in the property\n        uint256 rentalPrice; // rental price in LeaseToken\n        uint256 leaseDuration; // lease duration in months\n        address landlord; // address of the landlord owner\n        bool updateStatus; // status of the rental property (true if property can be updated/deleted, false if property cannot be updated/deleted)\n    }\n\n    uint256 private numRentalProperty = 0;\n    mapping(uint256 => rentalProperty) private rentalProperties; // map of rental properties indexed by propertyId\n\n    // ################################################### EVENTS ################################################### //\n\n    event RentalPropertyCreated(\n        uint256 rentalPropertyId,\n        string location,\n        string postalCode,\n        string unitNumber,\n        PropertyType propertyType,\n        string description,\n        uint256 numOfTenants,\n        uint256 rentalPrice,\n        uint256 leaseDuration,\n        address landlord,\n        bool updateStatus\n    );\n\n    event RentalPropertyUpdateLocation(\n        uint256 rentalPropertyId,\n        string newLocation\n    );\n\n    event RentalPropertyUpdatePostalCode(\n        uint256 rentalPropertyId,\n        string newPostalCode\n    );\n\n    event RentalPropertyUpdateUnitNumber(\n        uint256 rentalPropertyId,\n        string newUnitNumber\n    );\n\n    event RentalPropertyUpdatePropertyType(\n        uint256 rentalPropertyId,\n        PropertyType newPropertyType\n    );\n\n    event RentalPropertyUpdateDescription(\n        uint256 rentalPropertyId,\n        string newDescription\n    );\n\n    event RentalPropertyUpdateNumOfTenants(\n        uint256 rentalPropertyId,\n        uint256 newNumOfTenants\n    );\n\n    event RentalPropertyUpdateRentalPrice(\n        uint256 rentalPropertyId,\n        uint256 newRentalPrice\n    );\n\n    event RentalPropertyUpdateLeaseDuration(\n        uint256 rentalPropertyId,\n        uint256 newLeaseDuration\n    );\n\n    event RentalPropertyDeleted(uint256 rentalPropertyId);\n\n    // ################################################### MODIFIERS ################################################### //\n\n    //Modifier to ensure a function is callable only by its landlord owner\n    modifier landlordOnly(uint256 rentalPropertyId) {\n        require(\n            rentalProperties[rentalPropertyId].landlord == msg.sender,\n            \"Only the landlord can call this function\"\n        );\n        _;\n    }\n\n    //Modifier to ensure a function is accessible only if the rental property id is valid\n    modifier validRentalPropertyId(uint256 rentalPropertyId) {\n        require(\n            rentalPropertyId < numRentalProperty,\n            \"Invalid rental property id\"\n        );\n        _;\n    }\n\n    modifier validNumOfTenants(uint256 numOfTenants) {\n        require(numOfTenants > 0, \"Number of tenants must be greater than 0\");\n        _;\n    }\n\n    modifier validRentalPrice(uint256 rentalPrice) {\n        require(rentalPrice > 0, \"Rental Price must be greater than 0\");\n        _;\n    }\n\n    modifier validLeaseDuration(uint256 leaseDuration) {\n        require(leaseDuration > 0, \"Lease Duration must be greater than 0\");\n        _;\n    }\n\n    modifier validUpdateStatus(uint256 rentalPropertyId) {\n        require(\n            rentalProperties[rentalPropertyId].updateStatus == true,\n            \"Rental Property cannot be updated\"\n        );\n        _;\n    }\n\n    // ################################################### CREATE METHOD ################################################### //\n\n    // Function for landlord to create a new Rental Property, and add to 'rentalProperties' map. requires at least 0.01ETH to create\n    function addRentalProperty(\n        string memory _location,\n        string memory _postalCode,\n        string memory _unitNumber,\n        PropertyType _propertyType,\n        string memory _description,\n        uint256 _numOfTenants,\n        uint256 _rentalPrice,\n        uint256 _leaseDuration\n    )\n        public\n        validNumOfTenants(_numOfTenants)\n        validRentalPrice(_rentalPrice)\n        validLeaseDuration(_leaseDuration)\n        returns (uint256)\n    {\n        // New Rental Property object\n        rentalProperty memory newRentalProperty = rentalProperty(\n            _location,\n            _postalCode,\n            _unitNumber,\n            _propertyType,\n            _description,\n            _numOfTenants,\n            _rentalPrice,\n            _leaseDuration,\n            msg.sender, // landlord is the sender\n            true // initially, rental property can be updated/deleted when there are no tenants applications\n        );\n\n        uint256 newRentalPropertyId = numRentalProperty++; // increment rental property id\n        rentalProperties[newRentalPropertyId] = newRentalProperty; // add to rentalProperties map\n        emit RentalPropertyCreated(\n            newRentalPropertyId,\n            _location,\n            _postalCode,\n            _unitNumber,\n            _propertyType,\n            _description,\n            _numOfTenants,\n            _rentalPrice,\n            _leaseDuration,\n            msg.sender,\n            true\n        );\n\n        return newRentalPropertyId; //return new rental property id\n    }\n\n    // ################################################### GETTER METHODS ################################################### //\n\n    //Function to get a rental property\n    function getRentalProperty(\n        uint256 rentalPropertyId\n    )\n        public\n        view\n        validRentalPropertyId(rentalPropertyId)\n        returns (rentalProperty memory)\n    {\n        return rentalProperties[rentalPropertyId];\n    }\n    \n    //Function to get the location of a rental property\n    function getLocation(\n        uint256 rentalPropertyId\n    )\n        public\n        view\n        validRentalPropertyId(rentalPropertyId)\n        returns (string memory)\n    {\n        return rentalProperties[rentalPropertyId].location;\n    }\n\n    //Function to get the postal code of a rental property\n    function getPostalCode(\n        uint256 rentalPropertyId\n    )\n        public\n        view\n        validRentalPropertyId(rentalPropertyId)\n        returns (string memory)\n    {\n        return rentalProperties[rentalPropertyId].postalCode;\n    }\n\n    //Function to get the unit number of a rental property\n    function getUnitNumber(\n        uint256 rentalPropertyId\n    )\n        public\n        view\n        validRentalPropertyId(rentalPropertyId)\n        returns (string memory)\n    {\n        return rentalProperties[rentalPropertyId].unitNumber;\n    }\n\n    //Function to get the property type of a rental property\n    function getPropertyType(\n        uint256 rentalPropertyId\n    )\n        public\n        view\n        validRentalPropertyId(rentalPropertyId)\n        returns (PropertyType)\n    {\n        return rentalProperties[rentalPropertyId].propertyType;\n    }\n\n    //Function to get the description of a rental property\n    function getDescription(\n        uint256 rentalPropertyId\n    )\n        public\n        view\n        validRentalPropertyId(rentalPropertyId)\n        returns (string memory)\n    {\n        return rentalProperties[rentalPropertyId].description;\n    }\n\n    //Function to get the number of tenants in a rental property\n    function getNumOfTenants(\n        uint256 rentalPropertyId\n    ) public view validRentalPropertyId(rentalPropertyId) returns (uint256) {\n        return rentalProperties[rentalPropertyId].numOfTenants;\n    }\n\n    //Function to get the rental price of a rental property\n    function getRentalPrice(\n        uint256 rentalPropertyId\n    ) public view validRentalPropertyId(rentalPropertyId) returns (uint256) {\n        return rentalProperties[rentalPropertyId].rentalPrice;\n    }\n\n    //Function to get the lease duration of a rental property\n    function getLeaseDuration(\n        uint256 rentalPropertyId\n    ) public view validRentalPropertyId(rentalPropertyId) returns (uint256) {\n        return rentalProperties[rentalPropertyId].leaseDuration;\n    }\n\n    //Function to get the landlord of a rental property\n    function getLandlord(\n        uint256 rentalPropertyId\n    ) public view validRentalPropertyId(rentalPropertyId) returns (address) {\n        return rentalProperties[rentalPropertyId].landlord;\n    }\n\n    //Function to get the number of rental properties\n    function getNumRentalProperty() public view returns (uint256) {\n        return numRentalProperty;\n    }\n\n\n    // ################################################### SETTER METHODS ################################################### //\n\n    //Function to update the location of a rental property\n    function updateLocation(\n        uint256 rentalPropertyId,\n        string memory newLocation\n    )\n        public\n        landlordOnly(rentalPropertyId)\n        validRentalPropertyId(rentalPropertyId)\n        validUpdateStatus(rentalPropertyId)\n    {\n        rentalProperties[rentalPropertyId].location = newLocation;\n        emit RentalPropertyUpdateLocation(rentalPropertyId, newLocation);\n    }\n\n    //Function to update the postal code of a rental property\n    function updatePostalCode(\n        uint256 rentalPropertyId,\n        string memory newPostalCode\n    )\n        public\n        landlordOnly(rentalPropertyId)\n        validRentalPropertyId(rentalPropertyId)\n        validUpdateStatus(rentalPropertyId)\n    {\n        rentalProperties[rentalPropertyId].postalCode = newPostalCode;\n        emit RentalPropertyUpdatePostalCode(rentalPropertyId, newPostalCode);\n    }\n\n    //Function to update the unit number of a rental property\n    function updateUnitNumber(\n        uint256 rentalPropertyId,\n        string memory newUnitNumber\n    )\n        public\n        landlordOnly(rentalPropertyId)\n        validRentalPropertyId(rentalPropertyId)\n        validUpdateStatus(rentalPropertyId)\n    {\n        rentalProperties[rentalPropertyId].unitNumber = newUnitNumber;\n        emit RentalPropertyUpdateUnitNumber(rentalPropertyId, newUnitNumber);\n    }\n\n    //Function to update the property type of a rental property\n    function updatePropertyType(\n        uint256 rentalPropertyId,\n        PropertyType newPropertyType\n    )\n        public\n        landlordOnly(rentalPropertyId)\n        validRentalPropertyId(rentalPropertyId)\n        validUpdateStatus(rentalPropertyId)\n    {\n        rentalProperties[rentalPropertyId].propertyType = newPropertyType;\n        emit RentalPropertyUpdatePropertyType(\n            rentalPropertyId,\n            newPropertyType\n        );\n    }\n\n    //Function to update the description of a rental property\n    function updateDescription(\n        uint256 rentalPropertyId,\n        string memory newDescription\n    )\n        public\n        landlordOnly(rentalPropertyId)\n        validRentalPropertyId(rentalPropertyId)\n        validUpdateStatus(rentalPropertyId)\n    {\n        rentalProperties[rentalPropertyId].description = newDescription;\n        emit RentalPropertyUpdateDescription(rentalPropertyId, newDescription);\n    }\n\n    //Function to update the number of tenants in a rental property\n    function updateNumOfTenants(\n        uint256 rentalPropertyId,\n        uint256 newNumOfTenants\n    )\n        public\n        landlordOnly(rentalPropertyId)\n        validRentalPropertyId(rentalPropertyId)\n        validNumOfTenants(newNumOfTenants)\n        validUpdateStatus(rentalPropertyId)\n    {\n        rentalProperties[rentalPropertyId].numOfTenants = newNumOfTenants;\n        emit RentalPropertyUpdateNumOfTenants(\n            rentalPropertyId,\n            newNumOfTenants\n        );\n    }\n\n    //Function to update the rental price of a rental property\n    function updateRentalPrice(\n        uint256 rentalPropertyId,\n        uint256 newRentalPrice\n    )\n        public\n        landlordOnly(rentalPropertyId)\n        validRentalPropertyId(rentalPropertyId)\n        validRentalPrice(newRentalPrice)\n        validUpdateStatus(rentalPropertyId)\n    {\n        rentalProperties[rentalPropertyId].rentalPrice = newRentalPrice;\n        emit RentalPropertyUpdateRentalPrice(rentalPropertyId, newRentalPrice);\n    }\n\n    //Function to update the lease duration of a rental property\n    function updateLeaseDuration(\n        uint256 rentalPropertyId,\n        uint256 newLeaseDuration\n    )\n        public\n        landlordOnly(rentalPropertyId)\n        validRentalPropertyId(rentalPropertyId)\n        validLeaseDuration(newLeaseDuration)\n        validUpdateStatus(rentalPropertyId)\n    {\n        rentalProperties[rentalPropertyId].leaseDuration = newLeaseDuration;\n        emit RentalPropertyUpdateLeaseDuration(\n            rentalPropertyId,\n            newLeaseDuration\n        );\n    }\n    //Function to set the new update status of a rental property\n    function setUpdateStatus(\n        uint256 rentalPropertyId,\n        bool newUpdateStatus\n    )\n        public\n        landlordOnly(rentalPropertyId)\n        validRentalPropertyId(rentalPropertyId)\n    {\n        rentalProperties[rentalPropertyId].updateStatus = newUpdateStatus;\n    }\n\n    // ################################################### DELETE METHOD ################################################### //\n\n    //Function to delete a rental property\n    function deleteRentalProperty(\n        uint256 rentalPropertyId\n    )\n        public\n        landlordOnly(rentalPropertyId)\n        validRentalPropertyId(rentalPropertyId)\n        validUpdateStatus(rentalPropertyId)\n    {\n        delete rentalProperties[rentalPropertyId];\n        emit RentalPropertyDeleted(rentalPropertyId);\n    }\n}\n",
  "sourcePath": "/Users/Mike/Documents/GitHub/is4302-G13-project/contracts/RentalProperty.sol",
  "compiler": {
    "name": "solc",
    "version": "0.8.1+commit.df193b15.Emscripten.clang"
  },
  "schemaVersion": "3.4.16",
  "updatedAt": "2024-04-06T15:33:03.576Z",
  "networkType": "ethereum",
  "devdoc": {
    "kind": "dev",
    "methods": {},
    "version": 1
  },
  "userdoc": {
    "kind": "user",
    "methods": {},
    "version": 1
  }
}