{
  "contractName": "RentalProperty",
  "abi": [
    {
      "anonymous": false,
      "inputs": [
        {
          "indexed": false,
          "internalType": "uint256",
          "name": "rentalPropertyId",
          "type": "uint256"
        },
        {
          "indexed": false,
          "internalType": "string",
          "name": "location",
          "type": "string"
        },
        {
          "indexed": false,
          "internalType": "string",
          "name": "postalCode",
          "type": "string"
        },
        {
          "indexed": false,
          "internalType": "string",
          "name": "unitNumber",
          "type": "string"
        },
        {
          "indexed": false,
          "internalType": "enum RentalProperty.PropertyType",
          "name": "propertyType",
          "type": "uint8"
        },
        {
          "indexed": false,
          "internalType": "string",
          "name": "description",
          "type": "string"
        },
        {
          "indexed": false,
          "internalType": "uint256",
          "name": "numOfTenants",
          "type": "uint256"
        },
        {
          "indexed": false,
          "internalType": "uint256",
          "name": "rentalPrice",
          "type": "uint256"
        },
        {
          "indexed": false,
          "internalType": "uint256",
          "name": "leaseDuration",
          "type": "uint256"
        },
        {
          "indexed": false,
          "internalType": "address",
          "name": "landlord",
          "type": "address"
        }
      ],
      "name": "RentalPropertyCreated",
      "type": "event"
    },
    {
      "anonymous": false,
      "inputs": [
        {
          "indexed": false,
          "internalType": "uint256",
          "name": "rentalPropertyId",
          "type": "uint256"
        }
      ],
      "name": "RentalPropertyDeleted",
      "type": "event"
    },
    {
      "anonymous": false,
      "inputs": [
        {
          "indexed": false,
          "internalType": "uint256",
          "name": "rentalPropertyId",
          "type": "uint256"
        },
        {
          "indexed": false,
          "internalType": "string",
          "name": "newDescription",
          "type": "string"
        }
      ],
      "name": "RentalPropertyUpdateDescription",
      "type": "event"
    },
    {
      "anonymous": false,
      "inputs": [
        {
          "indexed": false,
          "internalType": "uint256",
          "name": "rentalPropertyId",
          "type": "uint256"
        },
        {
          "indexed": false,
          "internalType": "uint256",
          "name": "newLeaseDuration",
          "type": "uint256"
        }
      ],
      "name": "RentalPropertyUpdateLeaseDuration",
      "type": "event"
    },
    {
      "anonymous": false,
      "inputs": [
        {
          "indexed": false,
          "internalType": "uint256",
          "name": "rentalPropertyId",
          "type": "uint256"
        },
        {
          "indexed": false,
          "internalType": "string",
          "name": "newLocation",
          "type": "string"
        }
      ],
      "name": "RentalPropertyUpdateLocation",
      "type": "event"
    },
    {
      "anonymous": false,
      "inputs": [
        {
          "indexed": false,
          "internalType": "uint256",
          "name": "rentalPropertyId",
          "type": "uint256"
        },
        {
          "indexed": false,
          "internalType": "uint256",
          "name": "newNumOfTenants",
          "type": "uint256"
        }
      ],
      "name": "RentalPropertyUpdateNumOfTenants",
      "type": "event"
    },
    {
      "anonymous": false,
      "inputs": [
        {
          "indexed": false,
          "internalType": "uint256",
          "name": "rentalPropertyId",
          "type": "uint256"
        },
        {
          "indexed": false,
          "internalType": "string",
          "name": "newPostalCode",
          "type": "string"
        }
      ],
      "name": "RentalPropertyUpdatePostalCode",
      "type": "event"
    },
    {
      "anonymous": false,
      "inputs": [
        {
          "indexed": false,
          "internalType": "uint256",
          "name": "rentalPropertyId",
          "type": "uint256"
        },
        {
          "indexed": false,
          "internalType": "enum RentalProperty.PropertyType",
          "name": "newPropertyType",
          "type": "uint8"
        }
      ],
      "name": "RentalPropertyUpdatePropertyType",
      "type": "event"
    },
    {
      "anonymous": false,
      "inputs": [
        {
          "indexed": false,
          "internalType": "uint256",
          "name": "rentalPropertyId",
          "type": "uint256"
        },
        {
          "indexed": false,
          "internalType": "uint256",
          "name": "newRentalPrice",
          "type": "uint256"
        }
      ],
      "name": "RentalPropertyUpdateRentalPrice",
      "type": "event"
    },
    {
      "anonymous": false,
      "inputs": [
        {
          "indexed": false,
          "internalType": "uint256",
          "name": "rentalPropertyId",
          "type": "uint256"
        },
        {
          "indexed": false,
          "internalType": "string",
          "name": "newUnitNumber",
          "type": "string"
        }
      ],
      "name": "RentalPropertyUpdateUnitNumber",
      "type": "event"
    },
    {
      "inputs": [
        {
          "internalType": "string",
          "name": "_location",
          "type": "string"
        },
        {
          "internalType": "string",
          "name": "_postalCode",
          "type": "string"
        },
        {
          "internalType": "string",
          "name": "_unitNumber",
          "type": "string"
        },
        {
          "internalType": "enum RentalProperty.PropertyType",
          "name": "_propertyType",
          "type": "uint8"
        },
        {
          "internalType": "string",
          "name": "_description",
          "type": "string"
        },
        {
          "internalType": "uint256",
          "name": "_numOfTenants",
          "type": "uint256"
        },
        {
          "internalType": "uint256",
          "name": "_rentalPrice",
          "type": "uint256"
        },
        {
          "internalType": "uint256",
          "name": "_leaseDuration",
          "type": "uint256"
        }
      ],
      "name": "addRentalProperty",
      "outputs": [
        {
          "internalType": "uint256",
          "name": "",
          "type": "uint256"
        }
      ],
      "stateMutability": "nonpayable",
      "type": "function"
    },
    {
      "inputs": [
        {
          "internalType": "uint256",
          "name": "rentalPropertyId",
          "type": "uint256"
        }
      ],
      "name": "getRentalProperty",
      "outputs": [
        {
          "components": [
            {
              "internalType": "uint256",
              "name": "rentalPropertyId",
              "type": "uint256"
            },
            {
              "internalType": "string",
              "name": "location",
              "type": "string"
            },
            {
              "internalType": "string",
              "name": "postalCode",
              "type": "string"
            },
            {
              "internalType": "string",
              "name": "unitNumber",
              "type": "string"
            },
            {
              "internalType": "enum RentalProperty.PropertyType",
              "name": "propertyType",
              "type": "uint8"
            },
            {
              "internalType": "string",
              "name": "description",
              "type": "string"
            },
            {
              "internalType": "uint256",
              "name": "numOfTenants",
              "type": "uint256"
            },
            {
              "internalType": "uint256",
              "name": "rentalPrice",
              "type": "uint256"
            },
            {
              "internalType": "uint256",
              "name": "leaseDuration",
              "type": "uint256"
            },
            {
              "internalType": "address",
              "name": "landlord",
              "type": "address"
            },
            {
              "internalType": "bool",
              "name": "updateStatus",
              "type": "bool"
            },
            {
              "internalType": "bool",
              "name": "isListed",
              "type": "bool"
            },
            {
              "internalType": "uint256",
              "name": "paymentId",
              "type": "uint256"
            }
          ],
          "internalType": "struct RentalProperty.rentalProperty",
          "name": "",
          "type": "tuple"
        }
      ],
      "stateMutability": "view",
      "type": "function"
    },
    {
      "inputs": [
        {
          "internalType": "uint256",
          "name": "rentalPropertyId",
          "type": "uint256"
        }
      ],
      "name": "getLocation",
      "outputs": [
        {
          "internalType": "string",
          "name": "",
          "type": "string"
        }
      ],
      "stateMutability": "view",
      "type": "function"
    },
    {
      "inputs": [
        {
          "internalType": "uint256",
          "name": "rentalPropertyId",
          "type": "uint256"
        }
      ],
      "name": "getPostalCode",
      "outputs": [
        {
          "internalType": "string",
          "name": "",
          "type": "string"
        }
      ],
      "stateMutability": "view",
      "type": "function"
    },
    {
      "inputs": [
        {
          "internalType": "uint256",
          "name": "rentalPropertyId",
          "type": "uint256"
        }
      ],
      "name": "getUnitNumber",
      "outputs": [
        {
          "internalType": "string",
          "name": "",
          "type": "string"
        }
      ],
      "stateMutability": "view",
      "type": "function"
    },
    {
      "inputs": [
        {
          "internalType": "uint256",
          "name": "rentalPropertyId",
          "type": "uint256"
        }
      ],
      "name": "getPropertyType",
      "outputs": [
        {
          "internalType": "enum RentalProperty.PropertyType",
          "name": "",
          "type": "uint8"
        }
      ],
      "stateMutability": "view",
      "type": "function"
    },
    {
      "inputs": [
        {
          "internalType": "uint256",
          "name": "rentalPropertyId",
          "type": "uint256"
        }
      ],
      "name": "getDescription",
      "outputs": [
        {
          "internalType": "string",
          "name": "",
          "type": "string"
        }
      ],
      "stateMutability": "view",
      "type": "function"
    },
    {
      "inputs": [
        {
          "internalType": "uint256",
          "name": "rentalPropertyId",
          "type": "uint256"
        }
      ],
      "name": "getNumOfTenants",
      "outputs": [
        {
          "internalType": "uint256",
          "name": "",
          "type": "uint256"
        }
      ],
      "stateMutability": "view",
      "type": "function"
    },
    {
      "inputs": [
        {
          "internalType": "uint256",
          "name": "rentalPropertyId",
          "type": "uint256"
        }
      ],
      "name": "getRentalPrice",
      "outputs": [
        {
          "internalType": "uint256",
          "name": "",
          "type": "uint256"
        }
      ],
      "stateMutability": "view",
      "type": "function"
    },
    {
      "inputs": [
        {
          "internalType": "uint256",
          "name": "rentalPropertyId",
          "type": "uint256"
        }
      ],
      "name": "getLeaseDuration",
      "outputs": [
        {
          "internalType": "uint256",
          "name": "",
          "type": "uint256"
        }
      ],
      "stateMutability": "view",
      "type": "function"
    },
    {
      "inputs": [
        {
          "internalType": "uint256",
          "name": "rentalPropertyId",
          "type": "uint256"
        }
      ],
      "name": "getLandlord",
      "outputs": [
        {
          "internalType": "address",
          "name": "",
          "type": "address"
        }
      ],
      "stateMutability": "view",
      "type": "function"
    },
    {
      "inputs": [
        {
          "internalType": "uint256",
          "name": "rentalPropertyId",
          "type": "uint256"
        }
      ],
      "name": "getUpdateStatus",
      "outputs": [
        {
          "internalType": "bool",
          "name": "",
          "type": "bool"
        }
      ],
      "stateMutability": "view",
      "type": "function"
    },
    {
      "inputs": [
        {
          "internalType": "uint256",
          "name": "rentalPropertyId",
          "type": "uint256"
        }
      ],
      "name": "getListedStatus",
      "outputs": [
        {
          "internalType": "bool",
          "name": "",
          "type": "bool"
        }
      ],
      "stateMutability": "view",
      "type": "function"
    },
    {
      "inputs": [],
      "name": "getNumRentalProperty",
      "outputs": [
        {
          "internalType": "uint256",
          "name": "",
          "type": "uint256"
        }
      ],
      "stateMutability": "view",
      "type": "function"
    },
    {
      "inputs": [],
      "name": "getNumListedRentalProperty",
      "outputs": [
        {
          "internalType": "uint256",
          "name": "",
          "type": "uint256"
        }
      ],
      "stateMutability": "view",
      "type": "function"
    },
    {
      "inputs": [],
      "name": "getNumUnlistedRentalProperty",
      "outputs": [
        {
          "internalType": "uint256",
          "name": "",
          "type": "uint256"
        }
      ],
      "stateMutability": "view",
      "type": "function"
    },
    {
      "inputs": [
        {
          "internalType": "address",
          "name": "landlord",
          "type": "address"
        }
      ],
      "name": "getNumLandlordRentalProperties",
      "outputs": [
        {
          "internalType": "uint256",
          "name": "",
          "type": "uint256"
        }
      ],
      "stateMutability": "view",
      "type": "function"
    },
    {
      "inputs": [
        {
          "internalType": "address",
          "name": "landlord",
          "type": "address"
        }
      ],
      "name": "getNumLandlordListedRentalProperties",
      "outputs": [
        {
          "internalType": "uint256",
          "name": "",
          "type": "uint256"
        }
      ],
      "stateMutability": "view",
      "type": "function"
    },
    {
      "inputs": [
        {
          "internalType": "address",
          "name": "landlord",
          "type": "address"
        }
      ],
      "name": "getNumLandlordUnlistedRentalProperties",
      "outputs": [
        {
          "internalType": "uint256",
          "name": "",
          "type": "uint256"
        }
      ],
      "stateMutability": "view",
      "type": "function"
    },
    {
      "inputs": [],
      "name": "getAllRentalProperties",
      "outputs": [
        {
          "components": [
            {
              "internalType": "uint256",
              "name": "rentalPropertyId",
              "type": "uint256"
            },
            {
              "internalType": "string",
              "name": "location",
              "type": "string"
            },
            {
              "internalType": "string",
              "name": "postalCode",
              "type": "string"
            },
            {
              "internalType": "string",
              "name": "unitNumber",
              "type": "string"
            },
            {
              "internalType": "enum RentalProperty.PropertyType",
              "name": "propertyType",
              "type": "uint8"
            },
            {
              "internalType": "string",
              "name": "description",
              "type": "string"
            },
            {
              "internalType": "uint256",
              "name": "numOfTenants",
              "type": "uint256"
            },
            {
              "internalType": "uint256",
              "name": "rentalPrice",
              "type": "uint256"
            },
            {
              "internalType": "uint256",
              "name": "leaseDuration",
              "type": "uint256"
            },
            {
              "internalType": "address",
              "name": "landlord",
              "type": "address"
            },
            {
              "internalType": "bool",
              "name": "updateStatus",
              "type": "bool"
            },
            {
              "internalType": "bool",
              "name": "isListed",
              "type": "bool"
            },
            {
              "internalType": "uint256",
              "name": "paymentId",
              "type": "uint256"
            }
          ],
          "internalType": "struct RentalProperty.rentalProperty[]",
          "name": "",
          "type": "tuple[]"
        }
      ],
      "stateMutability": "view",
      "type": "function"
    },
    {
      "inputs": [],
      "name": "getAllListedRentalProperties",
      "outputs": [
        {
          "components": [
            {
              "internalType": "uint256",
              "name": "rentalPropertyId",
              "type": "uint256"
            },
            {
              "internalType": "string",
              "name": "location",
              "type": "string"
            },
            {
              "internalType": "string",
              "name": "postalCode",
              "type": "string"
            },
            {
              "internalType": "string",
              "name": "unitNumber",
              "type": "string"
            },
            {
              "internalType": "enum RentalProperty.PropertyType",
              "name": "propertyType",
              "type": "uint8"
            },
            {
              "internalType": "string",
              "name": "description",
              "type": "string"
            },
            {
              "internalType": "uint256",
              "name": "numOfTenants",
              "type": "uint256"
            },
            {
              "internalType": "uint256",
              "name": "rentalPrice",
              "type": "uint256"
            },
            {
              "internalType": "uint256",
              "name": "leaseDuration",
              "type": "uint256"
            },
            {
              "internalType": "address",
              "name": "landlord",
              "type": "address"
            },
            {
              "internalType": "bool",
              "name": "updateStatus",
              "type": "bool"
            },
            {
              "internalType": "bool",
              "name": "isListed",
              "type": "bool"
            },
            {
              "internalType": "uint256",
              "name": "paymentId",
              "type": "uint256"
            }
          ],
          "internalType": "struct RentalProperty.rentalProperty[]",
          "name": "",
          "type": "tuple[]"
        }
      ],
      "stateMutability": "view",
      "type": "function"
    },
    {
      "inputs": [],
      "name": "getAllUnlistedRentalProperties",
      "outputs": [
        {
          "components": [
            {
              "internalType": "uint256",
              "name": "rentalPropertyId",
              "type": "uint256"
            },
            {
              "internalType": "string",
              "name": "location",
              "type": "string"
            },
            {
              "internalType": "string",
              "name": "postalCode",
              "type": "string"
            },
            {
              "internalType": "string",
              "name": "unitNumber",
              "type": "string"
            },
            {
              "internalType": "enum RentalProperty.PropertyType",
              "name": "propertyType",
              "type": "uint8"
            },
            {
              "internalType": "string",
              "name": "description",
              "type": "string"
            },
            {
              "internalType": "uint256",
              "name": "numOfTenants",
              "type": "uint256"
            },
            {
              "internalType": "uint256",
              "name": "rentalPrice",
              "type": "uint256"
            },
            {
              "internalType": "uint256",
              "name": "leaseDuration",
              "type": "uint256"
            },
            {
              "internalType": "address",
              "name": "landlord",
              "type": "address"
            },
            {
              "internalType": "bool",
              "name": "updateStatus",
              "type": "bool"
            },
            {
              "internalType": "bool",
              "name": "isListed",
              "type": "bool"
            },
            {
              "internalType": "uint256",
              "name": "paymentId",
              "type": "uint256"
            }
          ],
          "internalType": "struct RentalProperty.rentalProperty[]",
          "name": "",
          "type": "tuple[]"
        }
      ],
      "stateMutability": "view",
      "type": "function"
    },
    {
      "inputs": [
        {
          "internalType": "address",
          "name": "landlord",
          "type": "address"
        }
      ],
      "name": "getLandlordRentalProperties",
      "outputs": [
        {
          "components": [
            {
              "internalType": "uint256",
              "name": "rentalPropertyId",
              "type": "uint256"
            },
            {
              "internalType": "string",
              "name": "location",
              "type": "string"
            },
            {
              "internalType": "string",
              "name": "postalCode",
              "type": "string"
            },
            {
              "internalType": "string",
              "name": "unitNumber",
              "type": "string"
            },
            {
              "internalType": "enum RentalProperty.PropertyType",
              "name": "propertyType",
              "type": "uint8"
            },
            {
              "internalType": "string",
              "name": "description",
              "type": "string"
            },
            {
              "internalType": "uint256",
              "name": "numOfTenants",
              "type": "uint256"
            },
            {
              "internalType": "uint256",
              "name": "rentalPrice",
              "type": "uint256"
            },
            {
              "internalType": "uint256",
              "name": "leaseDuration",
              "type": "uint256"
            },
            {
              "internalType": "address",
              "name": "landlord",
              "type": "address"
            },
            {
              "internalType": "bool",
              "name": "updateStatus",
              "type": "bool"
            },
            {
              "internalType": "bool",
              "name": "isListed",
              "type": "bool"
            },
            {
              "internalType": "uint256",
              "name": "paymentId",
              "type": "uint256"
            }
          ],
          "internalType": "struct RentalProperty.rentalProperty[]",
          "name": "",
          "type": "tuple[]"
        }
      ],
      "stateMutability": "view",
      "type": "function"
    },
    {
      "inputs": [
        {
          "internalType": "address",
          "name": "landlord",
          "type": "address"
        }
      ],
      "name": "getLandlordListedRentalProperties",
      "outputs": [
        {
          "components": [
            {
              "internalType": "uint256",
              "name": "rentalPropertyId",
              "type": "uint256"
            },
            {
              "internalType": "string",
              "name": "location",
              "type": "string"
            },
            {
              "internalType": "string",
              "name": "postalCode",
              "type": "string"
            },
            {
              "internalType": "string",
              "name": "unitNumber",
              "type": "string"
            },
            {
              "internalType": "enum RentalProperty.PropertyType",
              "name": "propertyType",
              "type": "uint8"
            },
            {
              "internalType": "string",
              "name": "description",
              "type": "string"
            },
            {
              "internalType": "uint256",
              "name": "numOfTenants",
              "type": "uint256"
            },
            {
              "internalType": "uint256",
              "name": "rentalPrice",
              "type": "uint256"
            },
            {
              "internalType": "uint256",
              "name": "leaseDuration",
              "type": "uint256"
            },
            {
              "internalType": "address",
              "name": "landlord",
              "type": "address"
            },
            {
              "internalType": "bool",
              "name": "updateStatus",
              "type": "bool"
            },
            {
              "internalType": "bool",
              "name": "isListed",
              "type": "bool"
            },
            {
              "internalType": "uint256",
              "name": "paymentId",
              "type": "uint256"
            }
          ],
          "internalType": "struct RentalProperty.rentalProperty[]",
          "name": "",
          "type": "tuple[]"
        }
      ],
      "stateMutability": "view",
      "type": "function"
    },
    {
      "inputs": [
        {
          "internalType": "address",
          "name": "landlord",
          "type": "address"
        }
      ],
      "name": "getLandlordUnlistedRentalProperties",
      "outputs": [
        {
          "components": [
            {
              "internalType": "uint256",
              "name": "rentalPropertyId",
              "type": "uint256"
            },
            {
              "internalType": "string",
              "name": "location",
              "type": "string"
            },
            {
              "internalType": "string",
              "name": "postalCode",
              "type": "string"
            },
            {
              "internalType": "string",
              "name": "unitNumber",
              "type": "string"
            },
            {
              "internalType": "enum RentalProperty.PropertyType",
              "name": "propertyType",
              "type": "uint8"
            },
            {
              "internalType": "string",
              "name": "description",
              "type": "string"
            },
            {
              "internalType": "uint256",
              "name": "numOfTenants",
              "type": "uint256"
            },
            {
              "internalType": "uint256",
              "name": "rentalPrice",
              "type": "uint256"
            },
            {
              "internalType": "uint256",
              "name": "leaseDuration",
              "type": "uint256"
            },
            {
              "internalType": "address",
              "name": "landlord",
              "type": "address"
            },
            {
              "internalType": "bool",
              "name": "updateStatus",
              "type": "bool"
            },
            {
              "internalType": "bool",
              "name": "isListed",
              "type": "bool"
            },
            {
              "internalType": "uint256",
              "name": "paymentId",
              "type": "uint256"
            }
          ],
          "internalType": "struct RentalProperty.rentalProperty[]",
          "name": "",
          "type": "tuple[]"
        }
      ],
      "stateMutability": "view",
      "type": "function"
    },
    {
      "inputs": [
        {
          "internalType": "uint256",
          "name": "rentalPropertyId",
          "type": "uint256"
        }
      ],
      "name": "getPaymentId",
      "outputs": [
        {
          "internalType": "uint256",
          "name": "",
          "type": "uint256"
        }
      ],
      "stateMutability": "view",
      "type": "function"
    },
    {
      "inputs": [
        {
          "internalType": "uint256",
          "name": "rentalPropertyId",
          "type": "uint256"
        },
        {
          "internalType": "string",
          "name": "newLocation",
          "type": "string"
        }
      ],
      "name": "updateLocation",
      "outputs": [],
      "stateMutability": "nonpayable",
      "type": "function"
    },
    {
      "inputs": [
        {
          "internalType": "uint256",
          "name": "rentalPropertyId",
          "type": "uint256"
        },
        {
          "internalType": "string",
          "name": "newPostalCode",
          "type": "string"
        }
      ],
      "name": "updatePostalCode",
      "outputs": [],
      "stateMutability": "nonpayable",
      "type": "function"
    },
    {
      "inputs": [
        {
          "internalType": "uint256",
          "name": "rentalPropertyId",
          "type": "uint256"
        },
        {
          "internalType": "string",
          "name": "newUnitNumber",
          "type": "string"
        }
      ],
      "name": "updateUnitNumber",
      "outputs": [],
      "stateMutability": "nonpayable",
      "type": "function"
    },
    {
      "inputs": [
        {
          "internalType": "uint256",
          "name": "rentalPropertyId",
          "type": "uint256"
        },
        {
          "internalType": "enum RentalProperty.PropertyType",
          "name": "newPropertyType",
          "type": "uint8"
        }
      ],
      "name": "updatePropertyType",
      "outputs": [],
      "stateMutability": "nonpayable",
      "type": "function"
    },
    {
      "inputs": [
        {
          "internalType": "uint256",
          "name": "rentalPropertyId",
          "type": "uint256"
        },
        {
          "internalType": "string",
          "name": "newDescription",
          "type": "string"
        }
      ],
      "name": "updateDescription",
      "outputs": [],
      "stateMutability": "nonpayable",
      "type": "function"
    },
    {
      "inputs": [
        {
          "internalType": "uint256",
          "name": "rentalPropertyId",
          "type": "uint256"
        },
        {
          "internalType": "uint256",
          "name": "newNumOfTenants",
          "type": "uint256"
        }
      ],
      "name": "updateNumOfTenants",
      "outputs": [],
      "stateMutability": "nonpayable",
      "type": "function"
    },
    {
      "inputs": [
        {
          "internalType": "uint256",
          "name": "rentalPropertyId",
          "type": "uint256"
        },
        {
          "internalType": "uint256",
          "name": "newRentalPrice",
          "type": "uint256"
        }
      ],
      "name": "updateRentalPrice",
      "outputs": [],
      "stateMutability": "nonpayable",
      "type": "function"
    },
    {
      "inputs": [
        {
          "internalType": "uint256",
          "name": "rentalPropertyId",
          "type": "uint256"
        },
        {
          "internalType": "uint256",
          "name": "newLeaseDuration",
          "type": "uint256"
        }
      ],
      "name": "updateLeaseDuration",
      "outputs": [],
      "stateMutability": "nonpayable",
      "type": "function"
    },
    {
      "inputs": [
        {
          "internalType": "uint256",
          "name": "rentalPropertyId",
          "type": "uint256"
        },
        {
          "internalType": "bool",
          "name": "newUpdateStatus",
          "type": "bool"
        }
      ],
      "name": "setUpdateStatus",
      "outputs": [],
      "stateMutability": "nonpayable",
      "type": "function"
    },
    {
      "inputs": [
        {
          "internalType": "uint256",
          "name": "rentalPropertyId",
          "type": "uint256"
        },
        {
          "internalType": "bool",
          "name": "newListedStatus",
          "type": "bool"
        }
      ],
      "name": "setListedStatus",
      "outputs": [],
      "stateMutability": "nonpayable",
      "type": "function"
    },
    {
      "inputs": [],
      "name": "incrementListedRentalProperty",
      "outputs": [],
      "stateMutability": "nonpayable",
      "type": "function"
    },
    {
      "inputs": [],
      "name": "decrementListedRentalProperty",
      "outputs": [],
      "stateMutability": "nonpayable",
      "type": "function"
    },
    {
      "inputs": [
        {
          "internalType": "uint256",
          "name": "rentalPropertyId",
          "type": "uint256"
        },
        {
          "internalType": "uint256",
          "name": "newPaymentId",
          "type": "uint256"
        }
      ],
      "name": "setPaymentId",
      "outputs": [],
      "stateMutability": "nonpayable",
      "type": "function"
    },
    {
      "inputs": [
        {
          "internalType": "uint256",
          "name": "rentalPropertyId",
          "type": "uint256"
        }
      ],
      "name": "deleteRentalProperty",
      "outputs": [],
      "stateMutability": "nonpayable",
      "type": "function"
    }
  ],
  "bytecode": "0x608060405260008055600060015534801561001957600080fd5b50615c26806200002a6000396000f3fe608060405234801561001057600080fd5b50600436106102485760003560e01c80638fbc55f41161013b578063b6329954116100b8578063c3b3f0d11161007c578063c3b3f0d11461076f578063e019caa31461078b578063e1ba0b80146107a7578063e924e64a146107c5578063fd003e4a146107f557610248565b8063b6329954146106b5578063b66b5a42146106d3578063b69f45b3146106f1578063b7e380391461070f578063bf7225be1461073f57610248565b8063a46eadb5116100ff578063a46eadb5146105e9578063a757e92614610619578063acd7c1d314610637578063aee7813114610655578063b23392ec1461068557610248565b80638fbc55f41461053557806390abcd98146105655780639d999edd146105815780639fa6bd071461059d578063a30cff73146105cd57610248565b8063502fb9fd116101c95780637735e6681161018d5780637735e668146104595780637f7b1393146104895780638585434b146104b9578063898dc449146104e95780638ac765a11461051957610248565b8063502fb9fd146103915780635bc39627146103c15780635f23d859146103dd5780635fcd64531461040d5780636712f55f1461042957610248565b80631e820d03116102105780631e820d03146102ef578063384f38a11461031f5780634925ec55146103295780634ca18df6146103595780634ec0c9e91461037557610248565b80630d10702c1461024d578063118e3ea81461027d57806314dee4b3146102ad57806317980888146102c95780631b3924e8146102e5575b600080fd5b61026760048036038101906102629190614df3565b610825565b6040516102749190615438565b60405180910390f35b61029760048036038101906102929190614cb8565b610913565b6040516102a4919061553c565b60405180910390f35b6102c760048036038101906102c29190614e94565b6109ee565b005b6102e360048036038101906102de9190614df3565b610bae565b005b6102ed610e21565b005b61030960048036038101906103049190614df3565b610e3b565b6040516103169190615402565b60405180910390f35b610327610eae565b005b610343600480360381019061033e9190614df3565b610ec8565b6040516103509190615438565b60405180910390f35b610373600480360381019061036e9190614e1c565b610fb6565b005b61038f600480360381019061038a9190614e94565b61102e565b005b6103ab60048036038101906103a69190614df3565b6111ee565b6040516103b891906153c5565b60405180910390f35b6103db60048036038101906103d69190614ee8565b611274565b005b6103f760048036038101906103f29190614cb8565b6112d9565b60405161040491906153e0565b60405180910390f35b61042760048036038101906104229190614ee8565b6117f6565b005b610443600480360381019061043e9190614df3565b6119eb565b604051610450919061541d565b60405180910390f35b610473600480360381019061046e9190614df3565b611a5e565b604051610480919061553c565b60405180910390f35b6104a3600480360381019061049e9190614df3565b611ac4565b6040516104b09190615438565b60405180910390f35b6104d360048036038101906104ce9190614df3565b611bb2565b6040516104e0919061553c565b60405180910390f35b61050360048036038101906104fe9190614cb8565b611c18565b604051610510919061553c565b60405180910390f35b610533600480360381019061052e9190614e58565b611cf3565b005b61054f600480360381019061054a9190614cb8565b611eec565b60405161055c91906153e0565b60405180910390f35b61057f600480360381019061057a9190614ee8565b61243a565b005b61059b60048036038101906105969190614e94565b61262f565b005b6105b760048036038101906105b29190614df3565b6127ef565b6040516105c49190615402565b60405180910390f35b6105e760048036038101906105e29190614ee8565b612862565b005b61060360048036038101906105fe9190614cb8565b612a57565b604051610610919061553c565b60405180910390f35b610621612b01565b60405161062e91906153e0565b60405180910390f35b61063f612fdc565b60405161064c91906153e0565b60405180910390f35b61066f600480360381019061066a9190614df3565b613475565b60405161067c919061553c565b60405180910390f35b61069f600480360381019061069a9190614df3565b6134db565b6040516106ac9190615438565b60405180910390f35b6106bd6135c9565b6040516106ca919061553c565b60405180910390f35b6106db6135e0565b6040516106e891906153e0565b60405180910390f35b6106f9613ac8565b604051610706919061553c565b60405180910390f35b61072960048036038101906107249190614cb8565b613ad2565b60405161073691906153e0565b60405180910390f35b61075960048036038101906107549190614ce1565b614020565b604051610766919061553c565b60405180910390f35b61078960048036038101906107849190614e1c565b6143b7565b005b6107a560048036038101906107a09190614e94565b61442f565b005b6107af6145ef565b6040516107bc919061553c565b60405180910390f35b6107df60048036038101906107da9190614df3565b6145f8565b6040516107ec919061553c565b60405180910390f35b61080f600480360381019061080a9190614df3565b61465e565b60405161081c919061551a565b60405180910390f35b606081600054811061086c576040517f08c379a00000000000000000000000000000000000000000000000000000000081526004016108639061545a565b60405180910390fd5b60026000848152602001908152602001600020600201805461088d9061585a565b80601f01602080910402602001604051908101604052809291908181526020018280546108b99061585a565b80156109065780601f106108db57610100808354040283529160200191610906565b820191906000526020600020905b8154815290600101906020018083116108e957829003601f168201915b5050505050915050919050565b6000806000905060005b6000548110156109e4578373ffffffffffffffffffffffffffffffffffffffff166002600083815260200190815260200160002060090160009054906101000a900473ffffffffffffffffffffffffffffffffffffffff1673ffffffffffffffffffffffffffffffffffffffff1614156109d157600015156002600083815260200190815260200160002060090160159054906101000a900460ff16151514156109d05781806109cc906158bd565b9250505b5b80806109dc906158bd565b91505061091d565b5080915050919050565b813373ffffffffffffffffffffffffffffffffffffffff166002600083815260200190815260200160002060090160009054906101000a900473ffffffffffffffffffffffffffffffffffffffff1673ffffffffffffffffffffffffffffffffffffffff1614610a93576040517f08c379a0000000000000000000000000000000000000000000000000000000008152600401610a8a906154fa565b60405180910390fd5b826000548110610ad8576040517f08c379a0000000000000000000000000000000000000000000000000000000008152600401610acf9061545a565b60405180910390fd5b83600115156002600083815260200190815260200160002060090160149054906101000a900460ff16151514610b43576040517f08c379a0000000000000000000000000000000000000000000000000000000008152600401610b3a9061547a565b60405180910390fd5b83600260008781526020019081526020016000206005019080519060200190610b6d929190614a5f565b507ff9e0cfc2139c5407b5c0da663755cc093ddf08c0cd22ef287cd88995442277098585604051610b9f929190615580565b60405180910390a15050505050565b803373ffffffffffffffffffffffffffffffffffffffff166002600083815260200190815260200160002060090160009054906101000a900473ffffffffffffffffffffffffffffffffffffffff1673ffffffffffffffffffffffffffffffffffffffff1614610c53576040517f08c379a0000000000000000000000000000000000000000000000000000000008152600401610c4a906154fa565b60405180910390fd5b816000548110610c98576040517f08c379a0000000000000000000000000000000000000000000000000000000008152600401610c8f9061545a565b60405180910390fd5b82600115156002600083815260200190815260200160002060090160149054906101000a900460ff16151514610d03576040517f08c379a0000000000000000000000000000000000000000000000000000000008152600401610cfa9061547a565b60405180910390fd5b60026000858152602001908152602001600020600080820160009055600182016000610d2f9190614ae5565b600282016000610d3f9190614ae5565b600382016000610d4f9190614ae5565b6004820160006101000a81549060ff0219169055600582016000610d739190614ae5565b6006820160009055600782016000905560088201600090556009820160006101000a81549073ffffffffffffffffffffffffffffffffffffffff02191690556009820160146101000a81549060ff02191690556009820160156101000a81549060ff0219169055600a82016000905550507f4adbec0d66623051c877058902b8ce13a83d19905b8ec8479e56282799601a7684604051610e13919061553c565b60405180910390a150505050565b60016000815480929190610e3490615830565b9190505550565b6000816000548110610e82576040517f08c379a0000000000000000000000000000000000000000000000000000000008152600401610e799061545a565b60405180910390fd5b6002600084815260200190815260200160002060090160149054906101000a900460ff16915050919050565b60016000815480929190610ec1906158bd565b9190505550565b6060816000548110610f0f576040517f08c379a0000000000000000000000000000000000000000000000000000000008152600401610f069061545a565b60405180910390fd5b600260008481526020019081526020016000206005018054610f309061585a565b80601f0160208091040260200160405190810160405280929190818152602001828054610f5c9061585a565b8015610fa95780601f10610f7e57610100808354040283529160200191610fa9565b820191906000526020600020905b815481529060010190602001808311610f8c57829003601f168201915b5050505050915050919050565b816000548110610ffb576040517f08c379a0000000000000000000000000000000000000000000000000000000008152600401610ff29061545a565b60405180910390fd5b816002600085815260200190815260200160002060090160156101000a81548160ff021916908315150217905550505050565b813373ffffffffffffffffffffffffffffffffffffffff166002600083815260200190815260200160002060090160009054906101000a900473ffffffffffffffffffffffffffffffffffffffff1673ffffffffffffffffffffffffffffffffffffffff16146110d3576040517f08c379a00000000000000000000000000000000000000000000000000000000081526004016110ca906154fa565b60405180910390fd5b826000548110611118576040517f08c379a000000000000000000000000000000000000000000000000000000000815260040161110f9061545a565b60405180910390fd5b83600115156002600083815260200190815260200160002060090160149054906101000a900460ff16151514611183576040517f08c379a000000000000000000000000000000000000000000000000000000000815260040161117a9061547a565b60405180910390fd5b836002600087815260200190815260200160002060010190805190602001906111ad929190614a5f565b507f2f785e77b95a4a5b3cae7abe711f551fae6dd194d3e0afee52aa099035c1728185856040516111df929190615580565b60405180910390a15050505050565b6000816000548110611235576040517f08c379a000000000000000000000000000000000000000000000000000000000815260040161122c9061545a565b60405180910390fd5b6002600084815260200190815260200160002060090160009054906101000a900473ffffffffffffffffffffffffffffffffffffffff16915050919050565b8160005481106112b9576040517f08c379a00000000000000000000000000000000000000000000000000000000081526004016112b09061545a565b60405180910390fd5b8160026000858152602001908152602001600020600a0181905550505050565b606060006112e683612a57565b67ffffffffffffffff811115611325577f4e487b7100000000000000000000000000000000000000000000000000000000600052604160045260246000fd5b60405190808252806020026020018201604052801561135e57816020015b61134b614b25565b8152602001906001900390816113435790505b5090506000805b6000548110156117eb578473ffffffffffffffffffffffffffffffffffffffff166002600083815260200190815260200160002060090160009054906101000a900473ffffffffffffffffffffffffffffffffffffffff1673ffffffffffffffffffffffffffffffffffffffff1614156117d85760026000828152602001908152602001600020604051806101a0016040529081600082015481526020016001820180546114129061585a565b80601f016020809104026020016040519081016040528092919081815260200182805461143e9061585a565b801561148b5780601f106114605761010080835404028352916020019161148b565b820191906000526020600020905b81548152906001019060200180831161146e57829003601f168201915b505050505081526020016002820180546114a49061585a565b80601f01602080910402602001604051908101604052809291908181526020018280546114d09061585a565b801561151d5780601f106114f25761010080835404028352916020019161151d565b820191906000526020600020905b81548152906001019060200180831161150057829003601f168201915b505050505081526020016003820180546115369061585a565b80601f01602080910402602001604051908101604052809291908181526020018280546115629061585a565b80156115af5780601f10611584576101008083540402835291602001916115af565b820191906000526020600020905b81548152906001019060200180831161159257829003601f168201915b505050505081526020016004820160009054906101000a900460ff166003811115611603577f4e487b7100000000000000000000000000000000000000000000000000000000600052602160045260246000fd5b600381111561163b577f4e487b7100000000000000000000000000000000000000000000000000000000600052602160045260246000fd5b815260200160058201805461164f9061585a565b80601f016020809104026020016040519081016040528092919081815260200182805461167b9061585a565b80156116c85780601f1061169d576101008083540402835291602001916116c8565b820191906000526020600020905b8154815290600101906020018083116116ab57829003601f168201915b505050505081526020016006820154815260200160078201548152602001600882015481526020016009820160009054906101000a900473ffffffffffffffffffffffffffffffffffffffff1673ffffffffffffffffffffffffffffffffffffffff1673ffffffffffffffffffffffffffffffffffffffff1681526020016009820160149054906101000a900460ff161515151581526020016009820160159054906101000a900460ff16151515158152602001600a820154815250508383815181106117be577f4e487b7100000000000000000000000000000000000000000000000000000000600052603260045260246000fd5b602002602001018190525081806117d4906158bd565b9250505b80806117e3906158bd565b915050611365565b508192505050919050565b813373ffffffffffffffffffffffffffffffffffffffff166002600083815260200190815260200160002060090160009054906101000a900473ffffffffffffffffffffffffffffffffffffffff1673ffffffffffffffffffffffffffffffffffffffff161461189b576040517f08c379a0000000000000000000000000000000000000000000000000000000008152600401611892906154fa565b60405180910390fd5b8260005481106118e0576040517f08c379a00000000000000000000000000000000000000000000000000000000081526004016118d79061545a565b60405180910390fd5b8260008111611924576040517f08c379a000000000000000000000000000000000000000000000000000000000815260040161191b906154da565b60405180910390fd5b84600115156002600083815260200190815260200160002060090160149054906101000a900460ff1615151461198f576040517f08c379a00000000000000000000000000000000000000000000000000000000081526004016119869061547a565b60405180910390fd5b8460026000888152602001908152602001600020600601819055507fd18a5a33f02c71e4837afac7f0824400276d50280aee3ee7d8802309c305c35386866040516119db929190615668565b60405180910390a1505050505050565b6000816000548110611a32576040517f08c379a0000000000000000000000000000000000000000000000000000000008152600401611a299061545a565b60405180910390fd5b6002600084815260200190815260200160002060040160009054906101000a900460ff16915050919050565b6000816000548110611aa5576040517f08c379a0000000000000000000000000000000000000000000000000000000008152600401611a9c9061545a565b60405180910390fd5b6002600084815260200190815260200160002060060154915050919050565b6060816000548110611b0b576040517f08c379a0000000000000000000000000000000000000000000000000000000008152600401611b029061545a565b60405180910390fd5b600260008481526020019081526020016000206001018054611b2c9061585a565b80601f0160208091040260200160405190810160405280929190818152602001828054611b589061585a565b8015611ba55780601f10611b7a57610100808354040283529160200191611ba5565b820191906000526020600020905b815481529060010190602001808311611b8857829003601f168201915b5050505050915050919050565b6000816000548110611bf9576040517f08c379a0000000000000000000000000000000000000000000000000000000008152600401611bf09061545a565b60405180910390fd5b60026000848152602001908152602001600020600a0154915050919050565b6000806000905060005b600054811015611ce9578373ffffffffffffffffffffffffffffffffffffffff166002600083815260200190815260200160002060090160009054906101000a900473ffffffffffffffffffffffffffffffffffffffff1673ffffffffffffffffffffffffffffffffffffffff161415611cd657600115156002600083815260200190815260200160002060090160159054906101000a900460ff1615151415611cd5578180611cd1906158bd565b9250505b5b8080611ce1906158bd565b915050611c22565b5080915050919050565b813373ffffffffffffffffffffffffffffffffffffffff166002600083815260200190815260200160002060090160009054906101000a900473ffffffffffffffffffffffffffffffffffffffff1673ffffffffffffffffffffffffffffffffffffffff1614611d98576040517f08c379a0000000000000000000000000000000000000000000000000000000008152600401611d8f906154fa565b60405180910390fd5b826000548110611ddd576040517f08c379a0000000000000000000000000000000000000000000000000000000008152600401611dd49061545a565b60405180910390fd5b83600115156002600083815260200190815260200160002060090160149054906101000a900460ff16151514611e48576040517f08c379a0000000000000000000000000000000000000000000000000000000008152600401611e3f9061547a565b60405180910390fd5b836002600087815260200190815260200160002060040160006101000a81548160ff02191690836003811115611ea7577f4e487b7100000000000000000000000000000000000000000000000000000000600052602160045260246000fd5b02179055507f3208ad7d5d89490dfec0ba2e46d58fec5086ddbb91bdc76518a9ccc251c6b37d8585604051611edd929190615557565b60405180910390a15050505050565b60606000611ef983610913565b67ffffffffffffffff811115611f38577f4e487b7100000000000000000000000000000000000000000000000000000000600052604160045260246000fd5b604051908082528060200260200182016040528015611f7157816020015b611f5e614b25565b815260200190600190039081611f565790505b5090506000805b60005481101561242f578473ffffffffffffffffffffffffffffffffffffffff166002600083815260200190815260200160002060090160009054906101000a900473ffffffffffffffffffffffffffffffffffffffff1673ffffffffffffffffffffffffffffffffffffffff16141561241c57600015156002600083815260200190815260200160002060090160159054906101000a900460ff161515141561241b5760026000828152602001908152602001600020604051806101a0016040529081600082015481526020016001820180546120559061585a565b80601f01602080910402602001604051908101604052809291908181526020018280546120819061585a565b80156120ce5780601f106120a3576101008083540402835291602001916120ce565b820191906000526020600020905b8154815290600101906020018083116120b157829003601f168201915b505050505081526020016002820180546120e79061585a565b80601f01602080910402602001604051908101604052809291908181526020018280546121139061585a565b80156121605780601f1061213557610100808354040283529160200191612160565b820191906000526020600020905b81548152906001019060200180831161214357829003601f168201915b505050505081526020016003820180546121799061585a565b80601f01602080910402602001604051908101604052809291908181526020018280546121a59061585a565b80156121f25780601f106121c7576101008083540402835291602001916121f2565b820191906000526020600020905b8154815290600101906020018083116121d557829003601f168201915b505050505081526020016004820160009054906101000a900460ff166003811115612246577f4e487b7100000000000000000000000000000000000000000000000000000000600052602160045260246000fd5b600381111561227e577f4e487b7100000000000000000000000000000000000000000000000000000000600052602160045260246000fd5b81526020016005820180546122929061585a565b80601f01602080910402602001604051908101604052809291908181526020018280546122be9061585a565b801561230b5780601f106122e05761010080835404028352916020019161230b565b820191906000526020600020905b8154815290600101906020018083116122ee57829003601f168201915b505050505081526020016006820154815260200160078201548152602001600882015481526020016009820160009054906101000a900473ffffffffffffffffffffffffffffffffffffffff1673ffffffffffffffffffffffffffffffffffffffff1673ffffffffffffffffffffffffffffffffffffffff1681526020016009820160149054906101000a900460ff161515151581526020016009820160159054906101000a900460ff16151515158152602001600a82015481525050838381518110612401577f4e487b7100000000000000000000000000000000000000000000000000000000600052603260045260246000fd5b60200260200101819052508180612417906158bd565b9250505b5b8080612427906158bd565b915050611f78565b508192505050919050565b813373ffffffffffffffffffffffffffffffffffffffff166002600083815260200190815260200160002060090160009054906101000a900473ffffffffffffffffffffffffffffffffffffffff1673ffffffffffffffffffffffffffffffffffffffff16146124df576040517f08c379a00000000000000000000000000000000000000000000000000000000081526004016124d6906154fa565b60405180910390fd5b826000548110612524576040517f08c379a000000000000000000000000000000000000000000000000000000000815260040161251b9061545a565b60405180910390fd5b8260008111612568576040517f08c379a000000000000000000000000000000000000000000000000000000000815260040161255f9061549a565b60405180910390fd5b84600115156002600083815260200190815260200160002060090160149054906101000a900460ff161515146125d3576040517f08c379a00000000000000000000000000000000000000000000000000000000081526004016125ca9061547a565b60405180910390fd5b8460026000888152602001908152602001600020600701819055507ff2fc46abca9db71cc72135e2de0769502341c219aca35c83b8afbd7a6e745823868660405161261f929190615668565b60405180910390a1505050505050565b813373ffffffffffffffffffffffffffffffffffffffff166002600083815260200190815260200160002060090160009054906101000a900473ffffffffffffffffffffffffffffffffffffffff1673ffffffffffffffffffffffffffffffffffffffff16146126d4576040517f08c379a00000000000000000000000000000000000000000000000000000000081526004016126cb906154fa565b60405180910390fd5b826000548110612719576040517f08c379a00000000000000000000000000000000000000000000000000000000081526004016127109061545a565b60405180910390fd5b83600115156002600083815260200190815260200160002060090160149054906101000a900460ff16151514612784576040517f08c379a000000000000000000000000000000000000000000000000000000000815260040161277b9061547a565b60405180910390fd5b836002600087815260200190815260200160002060030190805190602001906127ae929190614a5f565b507fd2fc88a3528790fea162e71e7975873743096ba0c20dfddbe0ac6c306786ed7b85856040516127e0929190615580565b60405180910390a15050505050565b6000816000548110612836576040517f08c379a000000000000000000000000000000000000000000000000000000000815260040161282d9061545a565b60405180910390fd5b6002600084815260200190815260200160002060090160159054906101000a900460ff16915050919050565b813373ffffffffffffffffffffffffffffffffffffffff166002600083815260200190815260200160002060090160009054906101000a900473ffffffffffffffffffffffffffffffffffffffff1673ffffffffffffffffffffffffffffffffffffffff1614612907576040517f08c379a00000000000000000000000000000000000000000000000000000000081526004016128fe906154fa565b60405180910390fd5b82600054811061294c576040517f08c379a00000000000000000000000000000000000000000000000000000000081526004016129439061545a565b60405180910390fd5b8260008111612990576040517f08c379a0000000000000000000000000000000000000000000000000000000008152600401612987906154ba565b60405180910390fd5b84600115156002600083815260200190815260200160002060090160149054906101000a900460ff161515146129fb576040517f08c379a00000000000000000000000000000000000000000000000000000000081526004016129f29061547a565b60405180910390fd5b8460026000888152602001908152602001600020600801819055507f36745ecb9be3cc90b3dbaa3d40e04b5b8d12074c2eb18b665ec59769689683738686604051612a47929190615668565b60405180910390a1505050505050565b6000806000905060005b600054811015612af7578373ffffffffffffffffffffffffffffffffffffffff166002600083815260200190815260200160002060090160009054906101000a900473ffffffffffffffffffffffffffffffffffffffff1673ffffffffffffffffffffffffffffffffffffffff161415612ae4578180612ae0906158bd565b9250505b8080612aef906158bd565b915050612a61565b5080915050919050565b6060600060015467ffffffffffffffff811115612b47577f4e487b7100000000000000000000000000000000000000000000000000000000600052604160045260246000fd5b604051908082528060200260200182016040528015612b8057816020015b612b6d614b25565b815260200190600190039081612b655790505b5090506000805b600054811015612fd357600115156002600083815260200190815260200160002060090160159054906101000a900460ff1615151415612fc05760026000828152602001908152602001600020604051806101a001604052908160008201548152602001600182018054612bfa9061585a565b80601f0160208091040260200160405190810160405280929190818152602001828054612c269061585a565b8015612c735780601f10612c4857610100808354040283529160200191612c73565b820191906000526020600020905b815481529060010190602001808311612c5657829003601f168201915b50505050508152602001600282018054612c8c9061585a565b80601f0160208091040260200160405190810160405280929190818152602001828054612cb89061585a565b8015612d055780601f10612cda57610100808354040283529160200191612d05565b820191906000526020600020905b815481529060010190602001808311612ce857829003601f168201915b50505050508152602001600382018054612d1e9061585a565b80601f0160208091040260200160405190810160405280929190818152602001828054612d4a9061585a565b8015612d975780601f10612d6c57610100808354040283529160200191612d97565b820191906000526020600020905b815481529060010190602001808311612d7a57829003601f168201915b505050505081526020016004820160009054906101000a900460ff166003811115612deb577f4e487b7100000000000000000000000000000000000000000000000000000000600052602160045260246000fd5b6003811115612e23577f4e487b7100000000000000000000000000000000000000000000000000000000600052602160045260246000fd5b8152602001600582018054612e379061585a565b80601f0160208091040260200160405190810160405280929190818152602001828054612e639061585a565b8015612eb05780601f10612e8557610100808354040283529160200191612eb0565b820191906000526020600020905b815481529060010190602001808311612e9357829003601f168201915b505050505081526020016006820154815260200160078201548152602001600882015481526020016009820160009054906101000a900473ffffffffffffffffffffffffffffffffffffffff1673ffffffffffffffffffffffffffffffffffffffff1673ffffffffffffffffffffffffffffffffffffffff1681526020016009820160149054906101000a900460ff161515151581526020016009820160159054906101000a900460ff16151515158152602001600a82015481525050838381518110612fa6577f4e487b7100000000000000000000000000000000000000000000000000000000600052603260045260246000fd5b60200260200101819052508180612fbc906158bd565b9250505b8080612fcb906158bd565b915050612b87565b50819250505090565b60606000805467ffffffffffffffff811115613021577f4e487b7100000000000000000000000000000000000000000000000000000000600052604160045260246000fd5b60405190808252806020026020018201604052801561305a57816020015b613047614b25565b81526020019060019003908161303f5790505b50905060005b60005481101561346d5760026000828152602001908152602001600020604051806101a0016040529081600082015481526020016001820180546130a39061585a565b80601f01602080910402602001604051908101604052809291908181526020018280546130cf9061585a565b801561311c5780601f106130f15761010080835404028352916020019161311c565b820191906000526020600020905b8154815290600101906020018083116130ff57829003601f168201915b505050505081526020016002820180546131359061585a565b80601f01602080910402602001604051908101604052809291908181526020018280546131619061585a565b80156131ae5780601f10613183576101008083540402835291602001916131ae565b820191906000526020600020905b81548152906001019060200180831161319157829003601f168201915b505050505081526020016003820180546131c79061585a565b80601f01602080910402602001604051908101604052809291908181526020018280546131f39061585a565b80156132405780601f1061321557610100808354040283529160200191613240565b820191906000526020600020905b81548152906001019060200180831161322357829003601f168201915b505050505081526020016004820160009054906101000a900460ff166003811115613294577f4e487b7100000000000000000000000000000000000000000000000000000000600052602160045260246000fd5b60038111156132cc577f4e487b7100000000000000000000000000000000000000000000000000000000600052602160045260246000fd5b81526020016005820180546132e09061585a565b80601f016020809104026020016040519081016040528092919081815260200182805461330c9061585a565b80156133595780601f1061332e57610100808354040283529160200191613359565b820191906000526020600020905b81548152906001019060200180831161333c57829003601f168201915b505050505081526020016006820154815260200160078201548152602001600882015481526020016009820160009054906101000a900473ffffffffffffffffffffffffffffffffffffffff1673ffffffffffffffffffffffffffffffffffffffff1673ffffffffffffffffffffffffffffffffffffffff1681526020016009820160149054906101000a900460ff161515151581526020016009820160159054906101000a900460ff16151515158152602001600a8201548152505082828151811061344f577f4e487b7100000000000000000000000000000000000000000000000000000000600052603260045260246000fd5b60200260200101819052508080613465906158bd565b915050613060565b508091505090565b60008160005481106134bc576040517f08c379a00000000000000000000000000000000000000000000000000000000081526004016134b39061545a565b60405180910390fd5b6002600084815260200190815260200160002060080154915050919050565b6060816000548110613522576040517f08c379a00000000000000000000000000000000000000000000000000000000081526004016135199061545a565b60405180910390fd5b6002600084815260200190815260200160002060030180546135439061585a565b80601f016020809104026020016040519081016040528092919081815260200182805461356f9061585a565b80156135bc5780601f10613591576101008083540402835291602001916135bc565b820191906000526020600020905b81548152906001019060200180831161359f57829003601f168201915b5050505050915050919050565b60006001546000546135db919061574d565b905090565b606060006001546000546135f4919061574d565b67ffffffffffffffff811115613633577f4e487b7100000000000000000000000000000000000000000000000000000000600052604160045260246000fd5b60405190808252806020026020018201604052801561366c57816020015b613659614b25565b8152602001906001900390816136515790505b5090506000805b600054811015613abf57600015156002600083815260200190815260200160002060090160159054906101000a900460ff1615151415613aac5760026000828152602001908152602001600020604051806101a0016040529081600082015481526020016001820180546136e69061585a565b80601f01602080910402602001604051908101604052809291908181526020018280546137129061585a565b801561375f5780601f106137345761010080835404028352916020019161375f565b820191906000526020600020905b81548152906001019060200180831161374257829003601f168201915b505050505081526020016002820180546137789061585a565b80601f01602080910402602001604051908101604052809291908181526020018280546137a49061585a565b80156137f15780601f106137c6576101008083540402835291602001916137f1565b820191906000526020600020905b8154815290600101906020018083116137d457829003601f168201915b5050505050815260200160038201805461380a9061585a565b80601f01602080910402602001604051908101604052809291908181526020018280546138369061585a565b80156138835780601f1061385857610100808354040283529160200191613883565b820191906000526020600020905b81548152906001019060200180831161386657829003601f168201915b505050505081526020016004820160009054906101000a900460ff1660038111156138d7577f4e487b7100000000000000000000000000000000000000000000000000000000600052602160045260246000fd5b600381111561390f577f4e487b7100000000000000000000000000000000000000000000000000000000600052602160045260246000fd5b81526020016005820180546139239061585a565b80601f016020809104026020016040519081016040528092919081815260200182805461394f9061585a565b801561399c5780601f106139715761010080835404028352916020019161399c565b820191906000526020600020905b81548152906001019060200180831161397f57829003601f168201915b505050505081526020016006820154815260200160078201548152602001600882015481526020016009820160009054906101000a900473ffffffffffffffffffffffffffffffffffffffff1673ffffffffffffffffffffffffffffffffffffffff1673ffffffffffffffffffffffffffffffffffffffff1681526020016009820160149054906101000a900460ff161515151581526020016009820160159054906101000a900460ff16151515158152602001600a82015481525050838381518110613a92577f4e487b7100000000000000000000000000000000000000000000000000000000600052603260045260246000fd5b60200260200101819052508180613aa8906158bd565b9250505b8080613ab7906158bd565b915050613673565b50819250505090565b6000600154905090565b60606000613adf83611c18565b67ffffffffffffffff811115613b1e577f4e487b7100000000000000000000000000000000000000000000000000000000600052604160045260246000fd5b604051908082528060200260200182016040528015613b5757816020015b613b44614b25565b815260200190600190039081613b3c5790505b5090506000805b600054811015614015578473ffffffffffffffffffffffffffffffffffffffff166002600083815260200190815260200160002060090160009054906101000a900473ffffffffffffffffffffffffffffffffffffffff1673ffffffffffffffffffffffffffffffffffffffff16141561400257600115156002600083815260200190815260200160002060090160159054906101000a900460ff16151514156140015760026000828152602001908152602001600020604051806101a001604052908160008201548152602001600182018054613c3b9061585a565b80601f0160208091040260200160405190810160405280929190818152602001828054613c679061585a565b8015613cb45780601f10613c8957610100808354040283529160200191613cb4565b820191906000526020600020905b815481529060010190602001808311613c9757829003601f168201915b50505050508152602001600282018054613ccd9061585a565b80601f0160208091040260200160405190810160405280929190818152602001828054613cf99061585a565b8015613d465780601f10613d1b57610100808354040283529160200191613d46565b820191906000526020600020905b815481529060010190602001808311613d2957829003601f168201915b50505050508152602001600382018054613d5f9061585a565b80601f0160208091040260200160405190810160405280929190818152602001828054613d8b9061585a565b8015613dd85780601f10613dad57610100808354040283529160200191613dd8565b820191906000526020600020905b815481529060010190602001808311613dbb57829003601f168201915b505050505081526020016004820160009054906101000a900460ff166003811115613e2c577f4e487b7100000000000000000000000000000000000000000000000000000000600052602160045260246000fd5b6003811115613e64577f4e487b7100000000000000000000000000000000000000000000000000000000600052602160045260246000fd5b8152602001600582018054613e789061585a565b80601f0160208091040260200160405190810160405280929190818152602001828054613ea49061585a565b8015613ef15780601f10613ec657610100808354040283529160200191613ef1565b820191906000526020600020905b815481529060010190602001808311613ed457829003601f168201915b505050505081526020016006820154815260200160078201548152602001600882015481526020016009820160009054906101000a900473ffffffffffffffffffffffffffffffffffffffff1673ffffffffffffffffffffffffffffffffffffffff1673ffffffffffffffffffffffffffffffffffffffff1681526020016009820160149054906101000a900460ff161515151581526020016009820160159054906101000a900460ff16151515158152602001600a82015481525050838381518110613fe7577f4e487b7100000000000000000000000000000000000000000000000000000000600052603260045260246000fd5b60200260200101819052508180613ffd906158bd565b9250505b5b808061400d906158bd565b915050613b5e565b508192505050919050565b60008360008111614066576040517f08c379a000000000000000000000000000000000000000000000000000000000815260040161405d906154da565b60405180910390fd5b83600081116140aa576040517f08c379a00000000000000000000000000000000000000000000000000000000081526004016140a19061549a565b60405180910390fd5b83600081116140ee576040517f08c379a00000000000000000000000000000000000000000000000000000000081526004016140e5906154ba565b60405180910390fd5b6000604051806101a0016040528060005481526020018e81526020018d81526020018c81526020018b600381111561414f577f4e487b7100000000000000000000000000000000000000000000000000000000600052602160045260246000fd5b81526020018a81526020018981526020018881526020018781526020013373ffffffffffffffffffffffffffffffffffffffff1681526020016001151581526020016000151581526020016000815250905060008060008154809291906141b5906158bd565b91905055905081600260008381526020019081526020016000206000820151816000015560208201518160010190805190602001906141f5929190614a5f565b506040820151816002019080519060200190614212929190614a5f565b50606082015181600301908051906020019061422f929190614a5f565b5060808201518160040160006101000a81548160ff02191690836003811115614281577f4e487b7100000000000000000000000000000000000000000000000000000000600052602160045260246000fd5b021790555060a08201518160050190805190602001906142a2929190614a5f565b5060c0820151816006015560e0820151816007015561010082015181600801556101208201518160090160006101000a81548173ffffffffffffffffffffffffffffffffffffffff021916908373ffffffffffffffffffffffffffffffffffffffff1602179055506101408201518160090160146101000a81548160ff0219169083151502179055506101608201518160090160156101000a81548160ff02191690831515021790555061018082015181600a01559050507f01549b786648358a92bbacdcb9ab6e96667fc47a8226a4cef1b8e187adad3b9d818f8f8f8f8f8f8f8f3360405161439b9a999897969594939291906155b0565b60405180910390a1809550505050505098975050505050505050565b8160005481106143fc576040517f08c379a00000000000000000000000000000000000000000000000000000000081526004016143f39061545a565b60405180910390fd5b816002600085815260200190815260200160002060090160146101000a81548160ff021916908315150217905550505050565b813373ffffffffffffffffffffffffffffffffffffffff166002600083815260200190815260200160002060090160009054906101000a900473ffffffffffffffffffffffffffffffffffffffff1673ffffffffffffffffffffffffffffffffffffffff16146144d4576040517f08c379a00000000000000000000000000000000000000000000000000000000081526004016144cb906154fa565b60405180910390fd5b826000548110614519576040517f08c379a00000000000000000000000000000000000000000000000000000000081526004016145109061545a565b60405180910390fd5b83600115156002600083815260200190815260200160002060090160149054906101000a900460ff16151514614584576040517f08c379a000000000000000000000000000000000000000000000000000000000815260040161457b9061547a565b60405180910390fd5b836002600087815260200190815260200160002060020190805190602001906145ae929190614a5f565b507fc92be2d1aa69266735ff482064bb1aca2d648d2d9d65c293ccd1f534d274736d85856040516145e0929190615580565b60405180910390a15050505050565b60008054905090565b600081600054811061463f576040517f08c379a00000000000000000000000000000000000000000000000000000000081526004016146369061545a565b60405180910390fd5b6002600084815260200190815260200160002060070154915050919050565b614666614b25565b8160005481106146ab576040517f08c379a00000000000000000000000000000000000000000000000000000000081526004016146a29061545a565b60405180910390fd5b60026000848152602001908152602001600020604051806101a0016040529081600082015481526020016001820180546146e49061585a565b80601f01602080910402602001604051908101604052809291908181526020018280546147109061585a565b801561475d5780601f106147325761010080835404028352916020019161475d565b820191906000526020600020905b81548152906001019060200180831161474057829003601f168201915b505050505081526020016002820180546147769061585a565b80601f01602080910402602001604051908101604052809291908181526020018280546147a29061585a565b80156147ef5780601f106147c4576101008083540402835291602001916147ef565b820191906000526020600020905b8154815290600101906020018083116147d257829003601f168201915b505050505081526020016003820180546148089061585a565b80601f01602080910402602001604051908101604052809291908181526020018280546148349061585a565b80156148815780601f1061485657610100808354040283529160200191614881565b820191906000526020600020905b81548152906001019060200180831161486457829003601f168201915b505050505081526020016004820160009054906101000a900460ff1660038111156148d5577f4e487b7100000000000000000000000000000000000000000000000000000000600052602160045260246000fd5b600381111561490d577f4e487b7100000000000000000000000000000000000000000000000000000000600052602160045260246000fd5b81526020016005820180546149219061585a565b80601f016020809104026020016040519081016040528092919081815260200182805461494d9061585a565b801561499a5780601f1061496f5761010080835404028352916020019161499a565b820191906000526020600020905b81548152906001019060200180831161497d57829003601f168201915b505050505081526020016006820154815260200160078201548152602001600882015481526020016009820160009054906101000a900473ffffffffffffffffffffffffffffffffffffffff1673ffffffffffffffffffffffffffffffffffffffff1673ffffffffffffffffffffffffffffffffffffffff1681526020016009820160149054906101000a900460ff161515151581526020016009820160159054906101000a900460ff16151515158152602001600a82015481525050915050919050565b828054614a6b9061585a565b90600052602060002090601f016020900481019282614a8d5760008555614ad4565b82601f10614aa657805160ff1916838001178555614ad4565b82800160010185558215614ad4579182015b82811115614ad3578251825591602001919060010190614ab8565b5b509050614ae19190614bdf565b5090565b508054614af19061585a565b6000825580601f10614b035750614b22565b601f016020900490600052602060002090810190614b219190614bdf565b5b50565b604051806101a001604052806000815260200160608152602001606081526020016060815260200160006003811115614b87577f4e487b7100000000000000000000000000000000000000000000000000000000600052602160045260246000fd5b815260200160608152602001600081526020016000815260200160008152602001600073ffffffffffffffffffffffffffffffffffffffff168152602001600015158152602001600015158152602001600081525090565b5b80821115614bf8576000816000905550600101614be0565b5090565b6000614c0f614c0a846156b6565b615691565b905082815260208101848484011115614c2757600080fd5b614c328482856157ee565b509392505050565b600081359050614c4981615b9b565b92915050565b600081359050614c5e81615bb2565b92915050565b600081359050614c7381615bc9565b92915050565b600082601f830112614c8a57600080fd5b8135614c9a848260208601614bfc565b91505092915050565b600081359050614cb281615bd9565b92915050565b600060208284031215614cca57600080fd5b6000614cd884828501614c3a565b91505092915050565b600080600080600080600080610100898b031215614cfe57600080fd5b600089013567ffffffffffffffff811115614d1857600080fd5b614d248b828c01614c79565b985050602089013567ffffffffffffffff811115614d4157600080fd5b614d4d8b828c01614c79565b975050604089013567ffffffffffffffff811115614d6a57600080fd5b614d768b828c01614c79565b9650506060614d878b828c01614c64565b955050608089013567ffffffffffffffff811115614da457600080fd5b614db08b828c01614c79565b94505060a0614dc18b828c01614ca3565b93505060c0614dd28b828c01614ca3565b92505060e0614de38b828c01614ca3565b9150509295985092959890939650565b600060208284031215614e0557600080fd5b6000614e1384828501614ca3565b91505092915050565b60008060408385031215614e2f57600080fd5b6000614e3d85828601614ca3565b9250506020614e4e85828601614c4f565b9150509250929050565b60008060408385031215614e6b57600080fd5b6000614e7985828601614ca3565b9250506020614e8a85828601614c64565b9150509250929050565b60008060408385031215614ea757600080fd5b6000614eb585828601614ca3565b925050602083013567ffffffffffffffff811115614ed257600080fd5b614ede85828601614c79565b9150509250929050565b60008060408385031215614efb57600080fd5b6000614f0985828601614ca3565b9250506020614f1a85828601614ca3565b9150509250929050565b6000614f30838361514b565b905092915050565b614f4181615781565b82525050565b614f5081615781565b82525050565b6000614f61826156f7565b614f6b818561571a565b935083602082028501614f7d856156e7565b8060005b85811015614fb95784840389528151614f9a8582614f24565b9450614fa58361570d565b925060208a01995050600181019050614f81565b50829750879550505050505092915050565b614fd481615793565b82525050565b614fe381615793565b82525050565b614ff2816157dc565b82525050565b615001816157dc565b82525050565b600061501282615702565b61501c818561572b565b935061502c8185602086016157fd565b615035816159c2565b840191505092915050565b600061504b82615702565b615055818561573c565b93506150658185602086016157fd565b61506e816159c2565b840191505092915050565b6000615086601a8361573c565b9150615091826159d3565b602082019050919050565b60006150a9602c8361573c565b91506150b4826159fc565b604082019050919050565b60006150cc60238361573c565b91506150d782615a4b565b604082019050919050565b60006150ef60258361573c565b91506150fa82615a9a565b604082019050919050565b600061511260288361573c565b915061511d82615ae9565b604082019050919050565b600061513560288361573c565b915061514082615b38565b604082019050919050565b60006101a08301600083015161516460008601826153a7565b506020830151848203602086015261517c8282615007565b915050604083015184820360408601526151968282615007565b915050606083015184820360608601526151b08282615007565b91505060808301516151c56080860182614fe9565b5060a083015184820360a08601526151dd8282615007565b91505060c08301516151f260c08601826153a7565b5060e083015161520560e08601826153a7565b5061010083015161521a6101008601826153a7565b5061012083015161522f610120860182614f38565b50610140830151615244610140860182614fcb565b50610160830151615259610160860182614fcb565b5061018083015161526e6101808601826153a7565b508091505092915050565b60006101a08301600083015161529260008601826153a7565b50602083015184820360208601526152aa8282615007565b915050604083015184820360408601526152c48282615007565b915050606083015184820360608601526152de8282615007565b91505060808301516152f36080860182614fe9565b5060a083015184820360a086015261530b8282615007565b91505060c083015161532060c08601826153a7565b5060e083015161533360e08601826153a7565b506101008301516153486101008601826153a7565b5061012083015161535d610120860182614f38565b50610140830151615372610140860182614fcb565b50610160830151615387610160860182614fcb565b5061018083015161539c6101808601826153a7565b508091505092915050565b6153b0816157d2565b82525050565b6153bf816157d2565b82525050565b60006020820190506153da6000830184614f47565b92915050565b600060208201905081810360008301526153fa8184614f56565b905092915050565b60006020820190506154176000830184614fda565b92915050565b60006020820190506154326000830184614ff8565b92915050565b600060208201905081810360008301526154528184615040565b905092915050565b6000602082019050818103600083015261547381615079565b9050919050565b600060208201905081810360008301526154938161509c565b9050919050565b600060208201905081810360008301526154b3816150bf565b9050919050565b600060208201905081810360008301526154d3816150e2565b9050919050565b600060208201905081810360008301526154f381615105565b9050919050565b6000602082019050818103600083015261551381615128565b9050919050565b600060208201905081810360008301526155348184615279565b905092915050565b600060208201905061555160008301846153b6565b92915050565b600060408201905061556c60008301856153b6565b6155796020830184614ff8565b9392505050565b600060408201905061559560008301856153b6565b81810360208301526155a78184615040565b90509392505050565b6000610140820190506155c6600083018d6153b6565b81810360208301526155d8818c615040565b905081810360408301526155ec818b615040565b90508181036060830152615600818a615040565b905061560f6080830189614ff8565b81810360a08301526156218188615040565b905061563060c08301876153b6565b61563d60e08301866153b6565b61564b6101008301856153b6565b615659610120830184614f47565b9b9a5050505050505050505050565b600060408201905061567d60008301856153b6565b61568a60208301846153b6565b9392505050565b600061569b6156ac565b90506156a7828261588c565b919050565b6000604051905090565b600067ffffffffffffffff8211156156d1576156d0615993565b5b6156da826159c2565b9050602081019050919050565b6000819050602082019050919050565b600081519050919050565b600081519050919050565b6000602082019050919050565b600082825260208201905092915050565b600082825260208201905092915050565b600082825260208201905092915050565b6000615758826157d2565b9150615763836157d2565b92508282101561577657615775615906565b5b828203905092915050565b600061578c826157b2565b9050919050565b60008115159050919050565b60008190506157ad82615b87565b919050565b600073ffffffffffffffffffffffffffffffffffffffff82169050919050565b6000819050919050565b60006157e78261579f565b9050919050565b82818337600083830152505050565b60005b8381101561581b578082015181840152602081019050615800565b8381111561582a576000848401525b50505050565b600061583b826157d2565b9150600082141561584f5761584e615906565b5b600182039050919050565b6000600282049050600182168061587257607f821691505b6020821081141561588657615885615964565b5b50919050565b615895826159c2565b810181811067ffffffffffffffff821117156158b4576158b3615993565b5b80604052505050565b60006158c8826157d2565b91507fffffffffffffffffffffffffffffffffffffffffffffffffffffffffffffffff8214156158fb576158fa615906565b5b600182019050919050565b7f4e487b7100000000000000000000000000000000000000000000000000000000600052601160045260246000fd5b7f4e487b7100000000000000000000000000000000000000000000000000000000600052602160045260246000fd5b7f4e487b7100000000000000000000000000000000000000000000000000000000600052602260045260246000fd5b7f4e487b7100000000000000000000000000000000000000000000000000000000600052604160045260246000fd5b6000601f19601f8301169050919050565b7f496e76616c69642072656e74616c2070726f7065727479206964000000000000600082015250565b7f52656e74616c2050726f70657274792063616e6e6f742062652075706461746560008201527f64206f722064656c657465640000000000000000000000000000000000000000602082015250565b7f52656e74616c205072696365206d75737420626520677265617465722074686160008201527f6e20300000000000000000000000000000000000000000000000000000000000602082015250565b7f4c65617365204475726174696f6e206d7573742062652067726561746572207460008201527f68616e2030000000000000000000000000000000000000000000000000000000602082015250565b7f4e756d626572206f662074656e616e7473206d7573742062652067726561746560008201527f72207468616e2030000000000000000000000000000000000000000000000000602082015250565b7f4f6e6c7920746865206c616e646c6f72642063616e2063616c6c20746869732060008201527f66756e6374696f6e000000000000000000000000000000000000000000000000602082015250565b60048110615b9857615b97615935565b5b50565b615ba481615781565b8114615baf57600080fd5b50565b615bbb81615793565b8114615bc657600080fd5b50565b60048110615bd657600080fd5b50565b615be2816157d2565b8114615bed57600080fd5b5056fea26469706673582212203690f60d65bf7d1f31a206b5044ee568a6d3cb22027044456e7835bf6110c40b64736f6c63430008010033",
  "immutableReferences": {},
  "source": "// SPDX-License-Identifier: MIT\r\npragma solidity ^0.8.0;\r\n\r\ncontract RentalProperty {\r\n    // ################################################### STRUCTURE & STATE VARIABLES ################################################### //\r\n\r\n    enum PropertyType {\r\n        HDB, // Housing and Development Board\r\n        Condo, // Condominium\r\n        Landed, // Landed Property\r\n        Other // Other types of property\r\n    }\r\n\r\n    struct rentalProperty {\r\n        uint256 rentalPropertyId; // id of the rental property\r\n        string location; // location of the property\r\n        string postalCode; // postal code of the property\r\n        string unitNumber; // unit number of the property\r\n        PropertyType propertyType; // type of property\r\n        string description; // description of the property\r\n        uint256 numOfTenants; // number of tenants in the property\r\n        uint256 rentalPrice; // rental price in LeaseToken\r\n        uint256 leaseDuration; // lease duration in months\r\n        address landlord; // address of the landlord owner\r\n        bool updateStatus; // status of the rental property (true if property can be updated/deleted, false if property cannot be updated/deleted)\r\n        bool isListed; // status of the rental property (true if property is listed, false if property is not listed)\r\n        uint256 paymentId; // Payment transaction id for protection fee (mainly used to keep track of protection fee for payment/refund)\r\n    }\r\n\r\n    uint256 private numRentalProperty = 0; // number of rental properties\r\n    uint256 private numListedRentalProperty = 0; // number of listed rental properties\r\n    mapping(uint256 => rentalProperty) private rentalProperties; // map of rental properties indexed by rentalPropertyId\r\n\r\n    // ################################################### EVENTS ################################################### //\r\n\r\n    event RentalPropertyCreated(\r\n        uint256 rentalPropertyId,\r\n        string location,\r\n        string postalCode,\r\n        string unitNumber,\r\n        PropertyType propertyType,\r\n        string description,\r\n        uint256 numOfTenants,\r\n        uint256 rentalPrice,\r\n        uint256 leaseDuration,\r\n        address landlord\r\n    );\r\n\r\n    event RentalPropertyUpdateLocation(\r\n        uint256 rentalPropertyId,\r\n        string newLocation\r\n    );\r\n\r\n    event RentalPropertyUpdatePostalCode(\r\n        uint256 rentalPropertyId,\r\n        string newPostalCode\r\n    );\r\n\r\n    event RentalPropertyUpdateUnitNumber(\r\n        uint256 rentalPropertyId,\r\n        string newUnitNumber\r\n    );\r\n\r\n    event RentalPropertyUpdatePropertyType(\r\n        uint256 rentalPropertyId,\r\n        PropertyType newPropertyType\r\n    );\r\n\r\n    event RentalPropertyUpdateDescription(\r\n        uint256 rentalPropertyId,\r\n        string newDescription\r\n    );\r\n\r\n    event RentalPropertyUpdateNumOfTenants(\r\n        uint256 rentalPropertyId,\r\n        uint256 newNumOfTenants\r\n    );\r\n\r\n    event RentalPropertyUpdateRentalPrice(\r\n        uint256 rentalPropertyId,\r\n        uint256 newRentalPrice\r\n    );\r\n\r\n    event RentalPropertyUpdateLeaseDuration(\r\n        uint256 rentalPropertyId,\r\n        uint256 newLeaseDuration\r\n    );\r\n\r\n    event RentalPropertyDeleted(uint256 rentalPropertyId);\r\n\r\n    // ################################################### MODIFIERS ################################################### //\r\n\r\n    //Modifier to ensure a function is callable only by its landlord owner\r\n    modifier landlordOnly(uint256 rentalPropertyId) {\r\n        require(\r\n            rentalProperties[rentalPropertyId].landlord == msg.sender,\r\n            \"Only the landlord can call this function\"\r\n        );\r\n        _;\r\n    }\r\n\r\n    //Modifier to ensure a function is accessible only if the rental property id is valid\r\n    modifier validRentalPropertyId(uint256 rentalPropertyId) {\r\n        require(\r\n            rentalPropertyId < numRentalProperty,\r\n            \"Invalid rental property id\"\r\n        );\r\n        _;\r\n    }\r\n\r\n    //Modifier to ensure the number of tenants is valid\r\n    modifier validNumOfTenants(uint256 numOfTenants) {\r\n        require(numOfTenants > 0, \"Number of tenants must be greater than 0\");\r\n        _;\r\n    }\r\n\r\n    //Modifier to ensure the rental price is valid\r\n    modifier validRentalPrice(uint256 rentalPrice) {\r\n        require(rentalPrice > 0, \"Rental Price must be greater than 0\");\r\n        _;\r\n    }\r\n\r\n    //Modifier to ensure the lease duration is valid\r\n    modifier validLeaseDuration(uint256 leaseDuration) {\r\n        require(leaseDuration > 0, \"Lease Duration must be greater than 0\");\r\n        _;\r\n    }\r\n\r\n    //Modifier to ensure the rental property can be updated or deleted\r\n    modifier validUpdateStatus(uint256 rentalPropertyId) {\r\n        require(\r\n            rentalProperties[rentalPropertyId].updateStatus == true,\r\n            \"Rental Property cannot be updated or deleted\"\r\n        );\r\n        _;\r\n    }\r\n\r\n    // ################################################### CREATE METHOD ################################################### //\r\n\r\n    // Function for landlord to create a new Rental Property, and add to 'rentalProperties' map. requires at least 0.01ETH to create\r\n    function addRentalProperty(\r\n        string memory _location,\r\n        string memory _postalCode,\r\n        string memory _unitNumber,\r\n        PropertyType _propertyType,\r\n        string memory _description,\r\n        uint256 _numOfTenants,\r\n        uint256 _rentalPrice,\r\n        uint256 _leaseDuration\r\n    )\r\n        public\r\n        validNumOfTenants(_numOfTenants)\r\n        validRentalPrice(_rentalPrice)\r\n        validLeaseDuration(_leaseDuration)\r\n        returns (uint256)\r\n    {\r\n        // New Rental Property object\r\n        rentalProperty memory newRentalProperty = rentalProperty(\r\n            numRentalProperty,\r\n            _location,\r\n            _postalCode,\r\n            _unitNumber,\r\n            _propertyType,\r\n            _description,\r\n            _numOfTenants,\r\n            _rentalPrice,\r\n            _leaseDuration,\r\n            msg.sender, // landlord is the sender\r\n            true, // initially, rental property can be updated/deleted when there are no tenants applications\r\n            false, // initially, rental property is not listed\r\n            0 // initially, payment id is 0 (no payment transaction)\r\n        );\r\n\r\n        uint256 newRentalPropertyId = numRentalProperty++; // increment rental property id\r\n        rentalProperties[newRentalPropertyId] = newRentalProperty; // add to rentalProperties map\r\n\r\n        emit RentalPropertyCreated(\r\n            newRentalPropertyId,\r\n            _location,\r\n            _postalCode,\r\n            _unitNumber,\r\n            _propertyType,\r\n            _description,\r\n            _numOfTenants,\r\n            _rentalPrice,\r\n            _leaseDuration,\r\n            msg.sender\r\n        );\r\n\r\n        return newRentalPropertyId; //return new rental property id\r\n    }\r\n\r\n    // ################################################### GETTER METHODS ################################################### //\r\n\r\n    //Function to get a rental property\r\n    function getRentalProperty(\r\n        uint256 rentalPropertyId\r\n    )\r\n        public\r\n        view\r\n        validRentalPropertyId(rentalPropertyId)\r\n        returns (rentalProperty memory)\r\n    {\r\n        return rentalProperties[rentalPropertyId];\r\n    }\r\n\r\n    //Function to get the location of a rental property\r\n    function getLocation(\r\n        uint256 rentalPropertyId\r\n    )\r\n        public\r\n        view\r\n        validRentalPropertyId(rentalPropertyId)\r\n        returns (string memory)\r\n    {\r\n        return rentalProperties[rentalPropertyId].location;\r\n    }\r\n\r\n    //Function to get the postal code of a rental property\r\n    function getPostalCode(\r\n        uint256 rentalPropertyId\r\n    )\r\n        public\r\n        view\r\n        validRentalPropertyId(rentalPropertyId)\r\n        returns (string memory)\r\n    {\r\n        return rentalProperties[rentalPropertyId].postalCode;\r\n    }\r\n\r\n    //Function to get the unit number of a rental property\r\n    function getUnitNumber(\r\n        uint256 rentalPropertyId\r\n    )\r\n        public\r\n        view\r\n        validRentalPropertyId(rentalPropertyId)\r\n        returns (string memory)\r\n    {\r\n        return rentalProperties[rentalPropertyId].unitNumber;\r\n    }\r\n\r\n    //Function to get the property type of a rental property\r\n    function getPropertyType(\r\n        uint256 rentalPropertyId\r\n    )\r\n        public\r\n        view\r\n        validRentalPropertyId(rentalPropertyId)\r\n        returns (PropertyType)\r\n    {\r\n        return rentalProperties[rentalPropertyId].propertyType;\r\n    }\r\n\r\n    //Function to get the description of a rental property\r\n    function getDescription(\r\n        uint256 rentalPropertyId\r\n    )\r\n        public\r\n        view\r\n        validRentalPropertyId(rentalPropertyId)\r\n        returns (string memory)\r\n    {\r\n        return rentalProperties[rentalPropertyId].description;\r\n    }\r\n\r\n    //Function to get the number of tenants in a rental property\r\n    function getNumOfTenants(\r\n        uint256 rentalPropertyId\r\n    ) public view validRentalPropertyId(rentalPropertyId) returns (uint256) {\r\n        return rentalProperties[rentalPropertyId].numOfTenants;\r\n    }\r\n\r\n    //Function to get the rental price of a rental property\r\n    function getRentalPrice(\r\n        uint256 rentalPropertyId\r\n    ) public view validRentalPropertyId(rentalPropertyId) returns (uint256) {\r\n        return rentalProperties[rentalPropertyId].rentalPrice;\r\n    }\r\n\r\n    //Function to get the lease duration of a rental property\r\n    function getLeaseDuration(\r\n        uint256 rentalPropertyId\r\n    ) public view validRentalPropertyId(rentalPropertyId) returns (uint256) {\r\n        return rentalProperties[rentalPropertyId].leaseDuration;\r\n    }\r\n\r\n    //Function to get the landlord of a rental property\r\n    function getLandlord(\r\n        uint256 rentalPropertyId\r\n    ) public view validRentalPropertyId(rentalPropertyId) returns (address) {\r\n        return rentalProperties[rentalPropertyId].landlord;\r\n    }\r\n\r\n    //Function to get the update status of a rental property\r\n    function getUpdateStatus(\r\n        uint256 rentalPropertyId\r\n    ) public view validRentalPropertyId(rentalPropertyId) returns (bool) {\r\n        return rentalProperties[rentalPropertyId].updateStatus;\r\n    }\r\n\r\n    //Function to get the listed status of a rental property\r\n    function getListedStatus(\r\n        uint256 rentalPropertyId\r\n    ) public view validRentalPropertyId(rentalPropertyId) returns (bool) {\r\n        return rentalProperties[rentalPropertyId].isListed;\r\n    }\r\n\r\n    //Function to get the number of rental properties\r\n    function getNumRentalProperty() public view returns (uint256) {\r\n        return numRentalProperty;\r\n    }\r\n\r\n    //Function to get the number of listed rental properties\r\n    function getNumListedRentalProperty() public view returns (uint256) {\r\n        return numListedRentalProperty;\r\n    }\r\n\r\n    //Function to get the number of unlisted rental properties\r\n    function getNumUnlistedRentalProperty() public view returns (uint256) {\r\n        return numRentalProperty - numListedRentalProperty;\r\n    }\r\n\r\n    //Function to get the number of rental properties of a landlord\r\n    function getNumLandlordRentalProperties(\r\n        address landlord\r\n    ) public view returns (uint256) {\r\n        uint256 count = 0;\r\n        for (uint256 i = 0; i < numRentalProperty; i++) {\r\n            if (rentalProperties[i].landlord == landlord) {\r\n                count++;\r\n            }\r\n        }\r\n        return count;\r\n    }\r\n\r\n    //Function to get the number of listed rental properties of a landlord\r\n    function getNumLandlordListedRentalProperties(\r\n        address landlord\r\n    ) public view returns (uint256) {\r\n        uint256 count = 0;\r\n        for (uint256 i = 0; i < numRentalProperty; i++) {\r\n            if (rentalProperties[i].landlord == landlord) {\r\n                if (rentalProperties[i].isListed == true) {\r\n                    count++;\r\n                }\r\n            }\r\n        }\r\n        return count;\r\n    }\r\n\r\n    //Function to get the number of unlisted rental properties of a landlord\r\n    function getNumLandlordUnlistedRentalProperties(\r\n        address landlord\r\n    ) public view returns (uint256) {\r\n        uint256 count = 0;\r\n        for (uint256 i = 0; i < numRentalProperty; i++) {\r\n            if (rentalProperties[i].landlord == landlord) {\r\n                if (rentalProperties[i].isListed == false) {\r\n                    count++;\r\n                }\r\n            }\r\n        }\r\n        return count;\r\n    }\r\n\r\n    //Function to get all the rental properties (listed and unlisted)\r\n    function getAllRentalProperties()\r\n        public\r\n        view\r\n        returns (rentalProperty[] memory)\r\n    {\r\n        rentalProperty[] memory allRentalProperties = new rentalProperty[](\r\n            numRentalProperty\r\n        );\r\n        for (uint256 i = 0; i < numRentalProperty; i++) {\r\n            allRentalProperties[i] = rentalProperties[i];\r\n        }\r\n        return allRentalProperties;\r\n    }\r\n\r\n    //Function to get all the listed rental properties\r\n    function getAllListedRentalProperties()\r\n        public\r\n        view\r\n        returns (rentalProperty[] memory)\r\n    {\r\n        rentalProperty[] memory listedRentalProperties = new rentalProperty[](\r\n            numListedRentalProperty\r\n        );\r\n        uint256 index = 0;\r\n        for (uint256 i = 0; i < numRentalProperty; i++) {\r\n            if (rentalProperties[i].isListed == true) {\r\n                listedRentalProperties[index] = rentalProperties[i];\r\n                index++;\r\n            }\r\n        }\r\n        return listedRentalProperties;\r\n    }\r\n\r\n    //Function to get all the unlisted rental properties\r\n    function getAllUnlistedRentalProperties()\r\n        public\r\n        view\r\n        returns (rentalProperty[] memory)\r\n    {\r\n        rentalProperty[] memory unlistedRentalProperties = new rentalProperty[](\r\n            numRentalProperty - numListedRentalProperty\r\n        );\r\n        uint256 index = 0;\r\n        for (uint256 i = 0; i < numRentalProperty; i++) {\r\n            if (rentalProperties[i].isListed == false) {\r\n                unlistedRentalProperties[index] = rentalProperties[i];\r\n                index++;\r\n            }\r\n        }\r\n        return unlistedRentalProperties;\r\n    }\r\n\r\n    //Function to get all the rental properties of a landlord (listed and unlisted)\r\n    function getLandlordRentalProperties(\r\n        address landlord\r\n    ) public view returns (rentalProperty[] memory) {\r\n        rentalProperty[] memory landlordRentalProperties = new rentalProperty[](\r\n            getNumLandlordRentalProperties(landlord)\r\n        );\r\n        uint256 index = 0;\r\n        for (uint256 i = 0; i < numRentalProperty; i++) {\r\n            if (rentalProperties[i].landlord == landlord) {\r\n                landlordRentalProperties[index] = rentalProperties[i];\r\n                index++;\r\n            }\r\n        }\r\n        return landlordRentalProperties;\r\n    }\r\n\r\n    //Function to get all the listed rental properties of a landlord\r\n    function getLandlordListedRentalProperties(\r\n        address landlord\r\n    ) public view returns (rentalProperty[] memory) {\r\n        rentalProperty[]\r\n            memory landlordListedRentalProperties = new rentalProperty[](\r\n                getNumLandlordListedRentalProperties(landlord)\r\n            );\r\n        uint256 index = 0;\r\n        for (uint256 i = 0; i < numRentalProperty; i++) {\r\n            if (rentalProperties[i].landlord == landlord) {\r\n                if (rentalProperties[i].isListed == true) {\r\n                    landlordListedRentalProperties[index] = rentalProperties[i];\r\n                    index++;\r\n                }\r\n            }\r\n        }\r\n        return landlordListedRentalProperties;\r\n    }\r\n\r\n    //Function to get all the unlisted rental properties of a landlord\r\n    function getLandlordUnlistedRentalProperties(\r\n        address landlord\r\n    ) public view returns (rentalProperty[] memory) {\r\n        rentalProperty[]\r\n            memory landlordUnlistedRentalProperties = new rentalProperty[](\r\n                getNumLandlordUnlistedRentalProperties(landlord)\r\n            );\r\n        uint256 index = 0;\r\n        for (uint256 i = 0; i < numRentalProperty; i++) {\r\n            if (rentalProperties[i].landlord == landlord) {\r\n                if (rentalProperties[i].isListed == false) {\r\n                    landlordUnlistedRentalProperties[index] = rentalProperties[\r\n                        i\r\n                    ];\r\n                    index++;\r\n                }\r\n            }\r\n        }\r\n        return landlordUnlistedRentalProperties;\r\n    }\r\n\r\n    //Function to get payment id of a rental property\r\n    function getPaymentId(\r\n        uint256 rentalPropertyId\r\n    ) public view validRentalPropertyId(rentalPropertyId) returns (uint256) {\r\n        return rentalProperties[rentalPropertyId].paymentId;\r\n    }\r\n\r\n\r\n    // ################################################### SETTER METHODS ################################################### //\r\n\r\n    //Function to update the location of a rental property\r\n    function updateLocation(\r\n        uint256 rentalPropertyId,\r\n        string memory newLocation\r\n    )\r\n        public\r\n        landlordOnly(rentalPropertyId)\r\n        validRentalPropertyId(rentalPropertyId)\r\n        validUpdateStatus(rentalPropertyId)\r\n    {\r\n        rentalProperties[rentalPropertyId].location = newLocation;\r\n        emit RentalPropertyUpdateLocation(rentalPropertyId, newLocation);\r\n    }\r\n\r\n    //Function to update the postal code of a rental property\r\n    function updatePostalCode(\r\n        uint256 rentalPropertyId,\r\n        string memory newPostalCode\r\n    )\r\n        public\r\n        landlordOnly(rentalPropertyId)\r\n        validRentalPropertyId(rentalPropertyId)\r\n        validUpdateStatus(rentalPropertyId)\r\n    {\r\n        rentalProperties[rentalPropertyId].postalCode = newPostalCode;\r\n        emit RentalPropertyUpdatePostalCode(rentalPropertyId, newPostalCode);\r\n    }\r\n\r\n    //Function to update the unit number of a rental property\r\n    function updateUnitNumber(\r\n        uint256 rentalPropertyId,\r\n        string memory newUnitNumber\r\n    )\r\n        public\r\n        landlordOnly(rentalPropertyId)\r\n        validRentalPropertyId(rentalPropertyId)\r\n        validUpdateStatus(rentalPropertyId)\r\n    {\r\n        rentalProperties[rentalPropertyId].unitNumber = newUnitNumber;\r\n        emit RentalPropertyUpdateUnitNumber(rentalPropertyId, newUnitNumber);\r\n    }\r\n\r\n    //Function to update the property type of a rental property\r\n    function updatePropertyType(\r\n        uint256 rentalPropertyId,\r\n        PropertyType newPropertyType\r\n    )\r\n        public\r\n        landlordOnly(rentalPropertyId)\r\n        validRentalPropertyId(rentalPropertyId)\r\n        validUpdateStatus(rentalPropertyId)\r\n    {\r\n        rentalProperties[rentalPropertyId].propertyType = newPropertyType;\r\n        emit RentalPropertyUpdatePropertyType(\r\n            rentalPropertyId,\r\n            newPropertyType\r\n        );\r\n    }\r\n\r\n    //Function to update the description of a rental property\r\n    function updateDescription(\r\n        uint256 rentalPropertyId,\r\n        string memory newDescription\r\n    )\r\n        public\r\n        landlordOnly(rentalPropertyId)\r\n        validRentalPropertyId(rentalPropertyId)\r\n        validUpdateStatus(rentalPropertyId)\r\n    {\r\n        rentalProperties[rentalPropertyId].description = newDescription;\r\n        emit RentalPropertyUpdateDescription(rentalPropertyId, newDescription);\r\n    }\r\n\r\n    //Function to update the number of tenants in a rental property\r\n    function updateNumOfTenants(\r\n        uint256 rentalPropertyId,\r\n        uint256 newNumOfTenants\r\n    )\r\n        public\r\n        landlordOnly(rentalPropertyId)\r\n        validRentalPropertyId(rentalPropertyId)\r\n        validNumOfTenants(newNumOfTenants)\r\n        validUpdateStatus(rentalPropertyId)\r\n    {\r\n        rentalProperties[rentalPropertyId].numOfTenants = newNumOfTenants;\r\n        emit RentalPropertyUpdateNumOfTenants(\r\n            rentalPropertyId,\r\n            newNumOfTenants\r\n        );\r\n    }\r\n\r\n    //Function to update the rental price of a rental property\r\n    function updateRentalPrice(\r\n        uint256 rentalPropertyId,\r\n        uint256 newRentalPrice\r\n    )\r\n        public\r\n        landlordOnly(rentalPropertyId)\r\n        validRentalPropertyId(rentalPropertyId)\r\n        validRentalPrice(newRentalPrice)\r\n        validUpdateStatus(rentalPropertyId)\r\n    {\r\n        rentalProperties[rentalPropertyId].rentalPrice = newRentalPrice;\r\n        emit RentalPropertyUpdateRentalPrice(rentalPropertyId, newRentalPrice);\r\n    }\r\n\r\n    //Function to update the lease duration of a rental property\r\n    function updateLeaseDuration(\r\n        uint256 rentalPropertyId,\r\n        uint256 newLeaseDuration\r\n    )\r\n        public\r\n        landlordOnly(rentalPropertyId)\r\n        validRentalPropertyId(rentalPropertyId)\r\n        validLeaseDuration(newLeaseDuration)\r\n        validUpdateStatus(rentalPropertyId)\r\n    {\r\n        rentalProperties[rentalPropertyId].leaseDuration = newLeaseDuration;\r\n        emit RentalPropertyUpdateLeaseDuration(\r\n            rentalPropertyId,\r\n            newLeaseDuration\r\n        );\r\n    }\r\n\r\n    //Function to set the new update status of a rental property\r\n    //Not restricted to landlord as this function is used in RentalMarketplace to set the update status to false when there are tenants applications\r\n    function setUpdateStatus(\r\n        uint256 rentalPropertyId,\r\n        bool newUpdateStatus\r\n    ) public validRentalPropertyId(rentalPropertyId) {\r\n        rentalProperties[rentalPropertyId].updateStatus = newUpdateStatus;\r\n    }\r\n\r\n    //Function to set the new listed status of a rental property\r\n    //Not restricted to landlord as this function is used in RentalMarketplace to set the listed status to true when the rental property is listed\r\n    function setListedStatus(\r\n        uint256 rentalPropertyId,\r\n        bool newListedStatus\r\n    ) public validRentalPropertyId(rentalPropertyId) {\r\n        rentalProperties[rentalPropertyId].isListed = newListedStatus;\r\n    }\r\n\r\n    //Function to increment the number of listed rental properties\r\n    //Not restricted to landlord as this function is used in RentalMarketplace to increment the number of listed rental properties\r\n    function incrementListedRentalProperty() public {\r\n        numListedRentalProperty++;\r\n    }\r\n\r\n    //Function to decrement the number of listed rental properties\r\n    //Not restricted to landlord as this function is used in RentalMarketplace to decrement the number of listed rental properties\r\n    function decrementListedRentalProperty() public {\r\n        numListedRentalProperty--;\r\n    }\r\n\r\n    //Function to set a payment id to the rental property\r\n    //Not restricted to landlord as this function is used in RentalMarketplace to keep track of protection fee payment/refund\r\n    function setPaymentId(\r\n        uint256 rentalPropertyId,\r\n        uint256 newPaymentId\r\n    ) public validRentalPropertyId(rentalPropertyId) {\r\n        rentalProperties[rentalPropertyId].paymentId = newPaymentId;\r\n    }\r\n\r\n    // ################################################### DELETE METHOD ################################################### //\r\n\r\n    //Function to delete a rental property\r\n    function deleteRentalProperty(\r\n        uint256 rentalPropertyId\r\n    )\r\n        public\r\n        landlordOnly(rentalPropertyId)\r\n        validRentalPropertyId(rentalPropertyId)\r\n        validUpdateStatus(rentalPropertyId)\r\n    {\r\n        // delete rental property from rentalProperties map\r\n        delete rentalProperties[rentalPropertyId];\r\n        emit RentalPropertyDeleted(rentalPropertyId);\r\n    }\r\n}\r\n",
  "sourcePath": "C:\\Users\\Bransome Tan Yi Hao\\OneDrive - National University of Singapore\\Desktop\\IS4302\\is4302-project\\contracts\\RentalProperty.sol",
  "compiler": {
    "name": "solc",
    "version": "0.8.1+commit.df193b15.Emscripten.clang"
  },
  "schemaVersion": "3.4.16",
  "updatedAt": "2024-04-10T12:37:59.218Z",
  "devdoc": {
    "kind": "dev",
    "methods": {},
    "version": 1
  },
  "userdoc": {
    "kind": "user",
    "methods": {},
    "version": 1
  }
}