{
  "contractName": "RentalProperty",
  "abi": [
    {
      "anonymous": false,
      "inputs": [
        {
          "indexed": false,
          "internalType": "uint256",
          "name": "rentalPropertyId",
          "type": "uint256"
        },
        {
          "indexed": false,
          "internalType": "string",
          "name": "location",
          "type": "string"
        },
        {
          "indexed": false,
          "internalType": "string",
          "name": "postalCode",
          "type": "string"
        },
        {
          "indexed": false,
          "internalType": "string",
          "name": "unitNumber",
          "type": "string"
        },
        {
          "indexed": false,
          "internalType": "enum RentalProperty.PropertyType",
          "name": "propertyType",
          "type": "uint8"
        },
        {
          "indexed": false,
          "internalType": "string",
          "name": "description",
          "type": "string"
        },
        {
          "indexed": false,
          "internalType": "uint256",
          "name": "numOfTenants",
          "type": "uint256"
        },
        {
          "indexed": false,
          "internalType": "uint256",
          "name": "rentalPrice",
          "type": "uint256"
        },
        {
          "indexed": false,
          "internalType": "uint256",
          "name": "leaseDuration",
          "type": "uint256"
        },
        {
          "indexed": false,
          "internalType": "address",
          "name": "landlord",
          "type": "address"
        },
        {
          "indexed": false,
          "internalType": "bool",
          "name": "updateStatus",
          "type": "bool"
        }
      ],
      "name": "RentalPropertyCreated",
      "type": "event"
    },
    {
      "anonymous": false,
      "inputs": [
        {
          "indexed": false,
          "internalType": "uint256",
          "name": "rentalPropertyId",
          "type": "uint256"
        }
      ],
      "name": "RentalPropertyDeleted",
      "type": "event"
    },
    {
      "anonymous": false,
      "inputs": [
        {
          "indexed": false,
          "internalType": "uint256",
          "name": "rentalPropertyId",
          "type": "uint256"
        },
        {
          "indexed": false,
          "internalType": "string",
          "name": "newDescription",
          "type": "string"
        }
      ],
      "name": "RentalPropertyUpdateDescription",
      "type": "event"
    },
    {
      "anonymous": false,
      "inputs": [
        {
          "indexed": false,
          "internalType": "uint256",
          "name": "rentalPropertyId",
          "type": "uint256"
        },
        {
          "indexed": false,
          "internalType": "uint256",
          "name": "newLeaseDuration",
          "type": "uint256"
        }
      ],
      "name": "RentalPropertyUpdateLeaseDuration",
      "type": "event"
    },
    {
      "anonymous": false,
      "inputs": [
        {
          "indexed": false,
          "internalType": "uint256",
          "name": "rentalPropertyId",
          "type": "uint256"
        },
        {
          "indexed": false,
          "internalType": "string",
          "name": "newLocation",
          "type": "string"
        }
      ],
      "name": "RentalPropertyUpdateLocation",
      "type": "event"
    },
    {
      "anonymous": false,
      "inputs": [
        {
          "indexed": false,
          "internalType": "uint256",
          "name": "rentalPropertyId",
          "type": "uint256"
        },
        {
          "indexed": false,
          "internalType": "uint256",
          "name": "newNumOfTenants",
          "type": "uint256"
        }
      ],
      "name": "RentalPropertyUpdateNumOfTenants",
      "type": "event"
    },
    {
      "anonymous": false,
      "inputs": [
        {
          "indexed": false,
          "internalType": "uint256",
          "name": "rentalPropertyId",
          "type": "uint256"
        },
        {
          "indexed": false,
          "internalType": "string",
          "name": "newPostalCode",
          "type": "string"
        }
      ],
      "name": "RentalPropertyUpdatePostalCode",
      "type": "event"
    },
    {
      "anonymous": false,
      "inputs": [
        {
          "indexed": false,
          "internalType": "uint256",
          "name": "rentalPropertyId",
          "type": "uint256"
        },
        {
          "indexed": false,
          "internalType": "enum RentalProperty.PropertyType",
          "name": "newPropertyType",
          "type": "uint8"
        }
      ],
      "name": "RentalPropertyUpdatePropertyType",
      "type": "event"
    },
    {
      "anonymous": false,
      "inputs": [
        {
          "indexed": false,
          "internalType": "uint256",
          "name": "rentalPropertyId",
          "type": "uint256"
        },
        {
          "indexed": false,
          "internalType": "uint256",
          "name": "newRentalPrice",
          "type": "uint256"
        }
      ],
      "name": "RentalPropertyUpdateRentalPrice",
      "type": "event"
    },
    {
      "anonymous": false,
      "inputs": [
        {
          "indexed": false,
          "internalType": "uint256",
          "name": "rentalPropertyId",
          "type": "uint256"
        },
        {
          "indexed": false,
          "internalType": "string",
          "name": "newUnitNumber",
          "type": "string"
        }
      ],
      "name": "RentalPropertyUpdateUnitNumber",
      "type": "event"
    },
    {
      "inputs": [
        {
          "internalType": "string",
          "name": "_location",
          "type": "string"
        },
        {
          "internalType": "string",
          "name": "_postalCode",
          "type": "string"
        },
        {
          "internalType": "string",
          "name": "_unitNumber",
          "type": "string"
        },
        {
          "internalType": "enum RentalProperty.PropertyType",
          "name": "_propertyType",
          "type": "uint8"
        },
        {
          "internalType": "string",
          "name": "_description",
          "type": "string"
        },
        {
          "internalType": "uint256",
          "name": "_numOfTenants",
          "type": "uint256"
        },
        {
          "internalType": "uint256",
          "name": "_rentalPrice",
          "type": "uint256"
        },
        {
          "internalType": "uint256",
          "name": "_leaseDuration",
          "type": "uint256"
        }
      ],
      "name": "addRentalProperty",
      "outputs": [
        {
          "internalType": "uint256",
          "name": "",
          "type": "uint256"
        }
      ],
      "stateMutability": "nonpayable",
      "type": "function"
    },
    {
      "inputs": [
        {
          "internalType": "uint256",
          "name": "rentalPropertyId",
          "type": "uint256"
        }
      ],
      "name": "getRentalProperty",
      "outputs": [
        {
          "components": [
            {
              "internalType": "string",
              "name": "location",
              "type": "string"
            },
            {
              "internalType": "string",
              "name": "postalCode",
              "type": "string"
            },
            {
              "internalType": "string",
              "name": "unitNumber",
              "type": "string"
            },
            {
              "internalType": "enum RentalProperty.PropertyType",
              "name": "propertyType",
              "type": "uint8"
            },
            {
              "internalType": "string",
              "name": "description",
              "type": "string"
            },
            {
              "internalType": "uint256",
              "name": "numOfTenants",
              "type": "uint256"
            },
            {
              "internalType": "uint256",
              "name": "rentalPrice",
              "type": "uint256"
            },
            {
              "internalType": "uint256",
              "name": "leaseDuration",
              "type": "uint256"
            },
            {
              "internalType": "address",
              "name": "landlord",
              "type": "address"
            },
            {
              "internalType": "bool",
              "name": "updateStatus",
              "type": "bool"
            }
          ],
          "internalType": "struct RentalProperty.rentalProperty",
          "name": "",
          "type": "tuple"
        }
      ],
      "stateMutability": "view",
      "type": "function"
    },
    {
      "inputs": [
        {
          "internalType": "uint256",
          "name": "rentalPropertyId",
          "type": "uint256"
        }
      ],
      "name": "getLocation",
      "outputs": [
        {
          "internalType": "string",
          "name": "",
          "type": "string"
        }
      ],
      "stateMutability": "view",
      "type": "function"
    },
    {
      "inputs": [
        {
          "internalType": "uint256",
          "name": "rentalPropertyId",
          "type": "uint256"
        }
      ],
      "name": "getPostalCode",
      "outputs": [
        {
          "internalType": "string",
          "name": "",
          "type": "string"
        }
      ],
      "stateMutability": "view",
      "type": "function"
    },
    {
      "inputs": [
        {
          "internalType": "uint256",
          "name": "rentalPropertyId",
          "type": "uint256"
        }
      ],
      "name": "getUnitNumber",
      "outputs": [
        {
          "internalType": "string",
          "name": "",
          "type": "string"
        }
      ],
      "stateMutability": "view",
      "type": "function"
    },
    {
      "inputs": [
        {
          "internalType": "uint256",
          "name": "rentalPropertyId",
          "type": "uint256"
        }
      ],
      "name": "getPropertyType",
      "outputs": [
        {
          "internalType": "enum RentalProperty.PropertyType",
          "name": "",
          "type": "uint8"
        }
      ],
      "stateMutability": "view",
      "type": "function"
    },
    {
      "inputs": [
        {
          "internalType": "uint256",
          "name": "rentalPropertyId",
          "type": "uint256"
        }
      ],
      "name": "getDescription",
      "outputs": [
        {
          "internalType": "string",
          "name": "",
          "type": "string"
        }
      ],
      "stateMutability": "view",
      "type": "function"
    },
    {
      "inputs": [
        {
          "internalType": "uint256",
          "name": "rentalPropertyId",
          "type": "uint256"
        }
      ],
      "name": "getNumOfTenants",
      "outputs": [
        {
          "internalType": "uint256",
          "name": "",
          "type": "uint256"
        }
      ],
      "stateMutability": "view",
      "type": "function"
    },
    {
      "inputs": [
        {
          "internalType": "uint256",
          "name": "rentalPropertyId",
          "type": "uint256"
        }
      ],
      "name": "getRentalPrice",
      "outputs": [
        {
          "internalType": "uint256",
          "name": "",
          "type": "uint256"
        }
      ],
      "stateMutability": "view",
      "type": "function"
    },
    {
      "inputs": [
        {
          "internalType": "uint256",
          "name": "rentalPropertyId",
          "type": "uint256"
        }
      ],
      "name": "getLeaseDuration",
      "outputs": [
        {
          "internalType": "uint256",
          "name": "",
          "type": "uint256"
        }
      ],
      "stateMutability": "view",
      "type": "function"
    },
    {
      "inputs": [
        {
          "internalType": "uint256",
          "name": "rentalPropertyId",
          "type": "uint256"
        }
      ],
      "name": "getLandlord",
      "outputs": [
        {
          "internalType": "address",
          "name": "",
          "type": "address"
        }
      ],
      "stateMutability": "view",
      "type": "function"
    },
    {
      "inputs": [],
      "name": "getNumRentalProperty",
      "outputs": [
        {
          "internalType": "uint256",
          "name": "",
          "type": "uint256"
        }
      ],
      "stateMutability": "view",
      "type": "function"
    },
    {
      "inputs": [
        {
          "internalType": "uint256",
          "name": "rentalPropertyId",
          "type": "uint256"
        },
        {
          "internalType": "string",
          "name": "newLocation",
          "type": "string"
        }
      ],
      "name": "updateLocation",
      "outputs": [],
      "stateMutability": "nonpayable",
      "type": "function"
    },
    {
      "inputs": [
        {
          "internalType": "uint256",
          "name": "rentalPropertyId",
          "type": "uint256"
        },
        {
          "internalType": "string",
          "name": "newPostalCode",
          "type": "string"
        }
      ],
      "name": "updatePostalCode",
      "outputs": [],
      "stateMutability": "nonpayable",
      "type": "function"
    },
    {
      "inputs": [
        {
          "internalType": "uint256",
          "name": "rentalPropertyId",
          "type": "uint256"
        },
        {
          "internalType": "string",
          "name": "newUnitNumber",
          "type": "string"
        }
      ],
      "name": "updateUnitNumber",
      "outputs": [],
      "stateMutability": "nonpayable",
      "type": "function"
    },
    {
      "inputs": [
        {
          "internalType": "uint256",
          "name": "rentalPropertyId",
          "type": "uint256"
        },
        {
          "internalType": "enum RentalProperty.PropertyType",
          "name": "newPropertyType",
          "type": "uint8"
        }
      ],
      "name": "updatePropertyType",
      "outputs": [],
      "stateMutability": "nonpayable",
      "type": "function"
    },
    {
      "inputs": [
        {
          "internalType": "uint256",
          "name": "rentalPropertyId",
          "type": "uint256"
        },
        {
          "internalType": "string",
          "name": "newDescription",
          "type": "string"
        }
      ],
      "name": "updateDescription",
      "outputs": [],
      "stateMutability": "nonpayable",
      "type": "function"
    },
    {
      "inputs": [
        {
          "internalType": "uint256",
          "name": "rentalPropertyId",
          "type": "uint256"
        },
        {
          "internalType": "uint256",
          "name": "newNumOfTenants",
          "type": "uint256"
        }
      ],
      "name": "updateNumOfTenants",
      "outputs": [],
      "stateMutability": "nonpayable",
      "type": "function"
    },
    {
      "inputs": [
        {
          "internalType": "uint256",
          "name": "rentalPropertyId",
          "type": "uint256"
        },
        {
          "internalType": "uint256",
          "name": "newRentalPrice",
          "type": "uint256"
        }
      ],
      "name": "updateRentalPrice",
      "outputs": [],
      "stateMutability": "nonpayable",
      "type": "function"
    },
    {
      "inputs": [
        {
          "internalType": "uint256",
          "name": "rentalPropertyId",
          "type": "uint256"
        },
        {
          "internalType": "uint256",
          "name": "newLeaseDuration",
          "type": "uint256"
        }
      ],
      "name": "updateLeaseDuration",
      "outputs": [],
      "stateMutability": "nonpayable",
      "type": "function"
    },
    {
      "inputs": [
        {
          "internalType": "uint256",
          "name": "rentalPropertyId",
          "type": "uint256"
        },
        {
          "internalType": "bool",
          "name": "newUpdateStatus",
          "type": "bool"
        }
      ],
      "name": "setUpdateStatus",
      "outputs": [],
      "stateMutability": "nonpayable",
      "type": "function"
    },
    {
      "inputs": [
        {
          "internalType": "uint256",
          "name": "rentalPropertyId",
          "type": "uint256"
        }
      ],
      "name": "deleteRentalProperty",
      "outputs": [],
      "stateMutability": "nonpayable",
      "type": "function"
    }
  ],
  "bytecode": "0x60806040526000805534801561001457600080fd5b506131d5806100246000396000f3fe608060405234801561001057600080fd5b50600436106101425760003560e01c806390abcd98116100b8578063bf7225be1161007c578063bf7225be146103a7578063c3b3f0d1146103d7578063e019caa3146103f3578063e1ba0b801461040f578063e924e64a1461042d578063fd003e4a1461045d57610142565b806390abcd98146102f35780639d999edd1461030f578063a30cff731461032b578063aee7813114610347578063b23392ec1461037757610142565b8063502fb9fd1161010a578063502fb9fd146101fb5780635fcd64531461022b5780636712f55f146102475780637735e668146102775780637f7b1393146102a75780638ac765a1146102d757610142565b80630d10702c1461014757806314dee4b31461017757806317980888146101935780634925ec55146101af5780634ec0c9e9146101df575b600080fd5b610161600480360381019061015c9190612674565b61048d565b60405161016e9190612a86565b60405180910390f35b610191600480360381019061018c9190612715565b61057b565b005b6101ad60048036038101906101a89190612674565b61073b565b005b6101c960048036038101906101c49190612674565b61098a565b6040516101d69190612a86565b60405180910390f35b6101f960048036038101906101f49190612715565b610a78565b005b61021560048036038101906102109190612674565b610c38565b6040516102229190612a50565b60405180910390f35b61024560048036038101906102409190612769565b610cbe565b005b610261600480360381019061025c9190612674565b610eb3565b60405161026e9190612a6b565b60405180910390f35b610291600480360381019061028c9190612674565b610f26565b60405161029e9190612b8a565b60405180910390f35b6102c160048036038101906102bc9190612674565b610f8c565b6040516102ce9190612a86565b60405180910390f35b6102f160048036038101906102ec91906126d9565b61107a565b005b61030d60048036038101906103089190612769565b611273565b005b61032960048036038101906103249190612715565b611468565b005b61034560048036038101906103409190612769565b611628565b005b610361600480360381019061035c9190612674565b61181d565b60405161036e9190612b8a565b60405180910390f35b610391600480360381019061038c9190612674565b611883565b60405161039e9190612a86565b60405180910390f35b6103c160048036038101906103bc9190612562565b611971565b6040516103ce9190612b8a565b60405180910390f35b6103f160048036038101906103ec919061269d565b611cbc565b005b61040d60048036038101906104089190612715565b611d34565b005b610417611ef4565b6040516104249190612b8a565b60405180910390f35b61044760048036038101906104429190612674565b611efd565b6040516104549190612b8a565b60405180910390f35b61047760048036038101906104729190612674565b611f63565b6040516104849190612b68565b60405180910390f35b60608160005481106104d4576040517f08c379a00000000000000000000000000000000000000000000000000000000081526004016104cb90612aa8565b60405180910390fd5b6001600084815260200190815260200160002060010180546104f590612e20565b80601f016020809104026020016040519081016040528092919081815260200182805461052190612e20565b801561056e5780601f106105435761010080835404028352916020019161056e565b820191906000526020600020905b81548152906001019060200180831161055157829003601f168201915b5050505050915050919050565b813373ffffffffffffffffffffffffffffffffffffffff166001600083815260200190815260200160002060080160009054906101000a900473ffffffffffffffffffffffffffffffffffffffff1673ffffffffffffffffffffffffffffffffffffffff1614610620576040517f08c379a000000000000000000000000000000000000000000000000000000000815260040161061790612b48565b60405180910390fd5b826000548110610665576040517f08c379a000000000000000000000000000000000000000000000000000000000815260040161065c90612aa8565b60405180910390fd5b83600115156001600083815260200190815260200160002060080160149054906101000a900460ff161515146106d0576040517f08c379a00000000000000000000000000000000000000000000000000000000081526004016106c790612ae8565b60405180910390fd5b836001600087815260200190815260200160002060040190805190602001906106fa929190612335565b507ff9e0cfc2139c5407b5c0da663755cc093ddf08c0cd22ef287cd8899544227709858560405161072c929190612bce565b60405180910390a15050505050565b803373ffffffffffffffffffffffffffffffffffffffff166001600083815260200190815260200160002060080160009054906101000a900473ffffffffffffffffffffffffffffffffffffffff1673ffffffffffffffffffffffffffffffffffffffff16146107e0576040517f08c379a00000000000000000000000000000000000000000000000000000000081526004016107d790612b48565b60405180910390fd5b816000548110610825576040517f08c379a000000000000000000000000000000000000000000000000000000000815260040161081c90612aa8565b60405180910390fd5b82600115156001600083815260200190815260200160002060080160149054906101000a900460ff16151514610890576040517f08c379a000000000000000000000000000000000000000000000000000000000815260040161088790612ae8565b60405180910390fd5b60016000858152602001908152602001600020600080820160006108b491906123bb565b6001820160006108c491906123bb565b6002820160006108d491906123bb565b6003820160006101000a81549060ff02191690556004820160006108f891906123bb565b6005820160009055600682016000905560078201600090556008820160006101000a81549073ffffffffffffffffffffffffffffffffffffffff02191690556008820160146101000a81549060ff021916905550507f4adbec0d66623051c877058902b8ce13a83d19905b8ec8479e56282799601a768460405161097c9190612b8a565b60405180910390a150505050565b60608160005481106109d1576040517f08c379a00000000000000000000000000000000000000000000000000000000081526004016109c890612aa8565b60405180910390fd5b6001600084815260200190815260200160002060040180546109f290612e20565b80601f0160208091040260200160405190810160405280929190818152602001828054610a1e90612e20565b8015610a6b5780601f10610a4057610100808354040283529160200191610a6b565b820191906000526020600020905b815481529060010190602001808311610a4e57829003601f168201915b5050505050915050919050565b813373ffffffffffffffffffffffffffffffffffffffff166001600083815260200190815260200160002060080160009054906101000a900473ffffffffffffffffffffffffffffffffffffffff1673ffffffffffffffffffffffffffffffffffffffff1614610b1d576040517f08c379a0000000000000000000000000000000000000000000000000000000008152600401610b1490612b48565b60405180910390fd5b826000548110610b62576040517f08c379a0000000000000000000000000000000000000000000000000000000008152600401610b5990612aa8565b60405180910390fd5b83600115156001600083815260200190815260200160002060080160149054906101000a900460ff16151514610bcd576040517f08c379a0000000000000000000000000000000000000000000000000000000008152600401610bc490612ae8565b60405180910390fd5b83600160008781526020019081526020016000206000019080519060200190610bf7929190612335565b507f2f785e77b95a4a5b3cae7abe711f551fae6dd194d3e0afee52aa099035c172818585604051610c29929190612bce565b60405180910390a15050505050565b6000816000548110610c7f576040517f08c379a0000000000000000000000000000000000000000000000000000000008152600401610c7690612aa8565b60405180910390fd5b6001600084815260200190815260200160002060080160009054906101000a900473ffffffffffffffffffffffffffffffffffffffff16915050919050565b813373ffffffffffffffffffffffffffffffffffffffff166001600083815260200190815260200160002060080160009054906101000a900473ffffffffffffffffffffffffffffffffffffffff1673ffffffffffffffffffffffffffffffffffffffff1614610d63576040517f08c379a0000000000000000000000000000000000000000000000000000000008152600401610d5a90612b48565b60405180910390fd5b826000548110610da8576040517f08c379a0000000000000000000000000000000000000000000000000000000008152600401610d9f90612aa8565b60405180910390fd5b8260008111610dec576040517f08c379a0000000000000000000000000000000000000000000000000000000008152600401610de390612b28565b60405180910390fd5b84600115156001600083815260200190815260200160002060080160149054906101000a900460ff16151514610e57576040517f08c379a0000000000000000000000000000000000000000000000000000000008152600401610e4e90612ae8565b60405180910390fd5b8460016000888152602001908152602001600020600501819055507fd18a5a33f02c71e4837afac7f0824400276d50280aee3ee7d8802309c305c3538686604051610ea3929190612cc5565b60405180910390a1505050505050565b6000816000548110610efa576040517f08c379a0000000000000000000000000000000000000000000000000000000008152600401610ef190612aa8565b60405180910390fd5b6001600084815260200190815260200160002060030160009054906101000a900460ff16915050919050565b6000816000548110610f6d576040517f08c379a0000000000000000000000000000000000000000000000000000000008152600401610f6490612aa8565b60405180910390fd5b6001600084815260200190815260200160002060050154915050919050565b6060816000548110610fd3576040517f08c379a0000000000000000000000000000000000000000000000000000000008152600401610fca90612aa8565b60405180910390fd5b600160008481526020019081526020016000206000018054610ff490612e20565b80601f016020809104026020016040519081016040528092919081815260200182805461102090612e20565b801561106d5780601f106110425761010080835404028352916020019161106d565b820191906000526020600020905b81548152906001019060200180831161105057829003601f168201915b5050505050915050919050565b813373ffffffffffffffffffffffffffffffffffffffff166001600083815260200190815260200160002060080160009054906101000a900473ffffffffffffffffffffffffffffffffffffffff1673ffffffffffffffffffffffffffffffffffffffff161461111f576040517f08c379a000000000000000000000000000000000000000000000000000000000815260040161111690612b48565b60405180910390fd5b826000548110611164576040517f08c379a000000000000000000000000000000000000000000000000000000000815260040161115b90612aa8565b60405180910390fd5b83600115156001600083815260200190815260200160002060080160149054906101000a900460ff161515146111cf576040517f08c379a00000000000000000000000000000000000000000000000000000000081526004016111c690612ae8565b60405180910390fd5b836001600087815260200190815260200160002060030160006101000a81548160ff0219169083600381111561122e577f4e487b7100000000000000000000000000000000000000000000000000000000600052602160045260246000fd5b02179055507f3208ad7d5d89490dfec0ba2e46d58fec5086ddbb91bdc76518a9ccc251c6b37d8585604051611264929190612ba5565b60405180910390a15050505050565b813373ffffffffffffffffffffffffffffffffffffffff166001600083815260200190815260200160002060080160009054906101000a900473ffffffffffffffffffffffffffffffffffffffff1673ffffffffffffffffffffffffffffffffffffffff1614611318576040517f08c379a000000000000000000000000000000000000000000000000000000000815260040161130f90612b48565b60405180910390fd5b82600054811061135d576040517f08c379a000000000000000000000000000000000000000000000000000000000815260040161135490612aa8565b60405180910390fd5b82600081116113a1576040517f08c379a000000000000000000000000000000000000000000000000000000000815260040161139890612ac8565b60405180910390fd5b84600115156001600083815260200190815260200160002060080160149054906101000a900460ff1615151461140c576040517f08c379a000000000000000000000000000000000000000000000000000000000815260040161140390612ae8565b60405180910390fd5b8460016000888152602001908152602001600020600601819055507ff2fc46abca9db71cc72135e2de0769502341c219aca35c83b8afbd7a6e7458238686604051611458929190612cc5565b60405180910390a1505050505050565b813373ffffffffffffffffffffffffffffffffffffffff166001600083815260200190815260200160002060080160009054906101000a900473ffffffffffffffffffffffffffffffffffffffff1673ffffffffffffffffffffffffffffffffffffffff161461150d576040517f08c379a000000000000000000000000000000000000000000000000000000000815260040161150490612b48565b60405180910390fd5b826000548110611552576040517f08c379a000000000000000000000000000000000000000000000000000000000815260040161154990612aa8565b60405180910390fd5b83600115156001600083815260200190815260200160002060080160149054906101000a900460ff161515146115bd576040517f08c379a00000000000000000000000000000000000000000000000000000000081526004016115b490612ae8565b60405180910390fd5b836001600087815260200190815260200160002060020190805190602001906115e7929190612335565b507fd2fc88a3528790fea162e71e7975873743096ba0c20dfddbe0ac6c306786ed7b8585604051611619929190612bce565b60405180910390a15050505050565b813373ffffffffffffffffffffffffffffffffffffffff166001600083815260200190815260200160002060080160009054906101000a900473ffffffffffffffffffffffffffffffffffffffff1673ffffffffffffffffffffffffffffffffffffffff16146116cd576040517f08c379a00000000000000000000000000000000000000000000000000000000081526004016116c490612b48565b60405180910390fd5b826000548110611712576040517f08c379a000000000000000000000000000000000000000000000000000000000815260040161170990612aa8565b60405180910390fd5b8260008111611756576040517f08c379a000000000000000000000000000000000000000000000000000000000815260040161174d90612b08565b60405180910390fd5b84600115156001600083815260200190815260200160002060080160149054906101000a900460ff161515146117c1576040517f08c379a00000000000000000000000000000000000000000000000000000000081526004016117b890612ae8565b60405180910390fd5b8460016000888152602001908152602001600020600701819055507f36745ecb9be3cc90b3dbaa3d40e04b5b8d12074c2eb18b665ec5976968968373868660405161180d929190612cc5565b60405180910390a1505050505050565b6000816000548110611864576040517f08c379a000000000000000000000000000000000000000000000000000000000815260040161185b90612aa8565b60405180910390fd5b6001600084815260200190815260200160002060070154915050919050565b60608160005481106118ca576040517f08c379a00000000000000000000000000000000000000000000000000000000081526004016118c190612aa8565b60405180910390fd5b6001600084815260200190815260200160002060020180546118eb90612e20565b80601f016020809104026020016040519081016040528092919081815260200182805461191790612e20565b80156119645780601f1061193957610100808354040283529160200191611964565b820191906000526020600020905b81548152906001019060200180831161194757829003601f168201915b5050505050915050919050565b600083600081116119b7576040517f08c379a00000000000000000000000000000000000000000000000000000000081526004016119ae90612b28565b60405180910390fd5b83600081116119fb576040517f08c379a00000000000000000000000000000000000000000000000000000000081526004016119f290612ac8565b60405180910390fd5b8360008111611a3f576040517f08c379a0000000000000000000000000000000000000000000000000000000008152600401611a3690612b08565b60405180910390fd5b60006040518061014001604052808e81526020018d81526020018c81526020018b6003811115611a98577f4e487b7100000000000000000000000000000000000000000000000000000000600052602160045260246000fd5b81526020018a81526020018981526020018881526020018781526020013373ffffffffffffffffffffffffffffffffffffffff1681526020016001151581525090506000806000815480929190611aee90612e83565b91905055905081600160008381526020019081526020016000206000820151816000019080519060200190611b24929190612335565b506020820151816001019080519060200190611b41929190612335565b506040820151816002019080519060200190611b5e929190612335565b5060608201518160030160006101000a81548160ff02191690836003811115611bb0577f4e487b7100000000000000000000000000000000000000000000000000000000600052602160045260246000fd5b02179055506080820151816004019080519060200190611bd1929190612335565b5060a0820151816005015560c0820151816006015560e082015181600701556101008201518160080160006101000a81548173ffffffffffffffffffffffffffffffffffffffff021916908373ffffffffffffffffffffffffffffffffffffffff1602179055506101208201518160080160146101000a81548160ff0219169083151502179055509050507f6bfa60fa07d7170d47c916a1c87e15b298893cf85b8bd804fa1a53edf21e0ada818f8f8f8f8f8f8f8f336001604051611ca09b9a99989796959493929190612bfe565b60405180910390a1809550505050505098975050505050505050565b816000548110611d01576040517f08c379a0000000000000000000000000000000000000000000000000000000008152600401611cf890612aa8565b60405180910390fd5b816001600085815260200190815260200160002060080160146101000a81548160ff021916908315150217905550505050565b813373ffffffffffffffffffffffffffffffffffffffff166001600083815260200190815260200160002060080160009054906101000a900473ffffffffffffffffffffffffffffffffffffffff1673ffffffffffffffffffffffffffffffffffffffff1614611dd9576040517f08c379a0000000000000000000000000000000000000000000000000000000008152600401611dd090612b48565b60405180910390fd5b826000548110611e1e576040517f08c379a0000000000000000000000000000000000000000000000000000000008152600401611e1590612aa8565b60405180910390fd5b83600115156001600083815260200190815260200160002060080160149054906101000a900460ff16151514611e89576040517f08c379a0000000000000000000000000000000000000000000000000000000008152600401611e8090612ae8565b60405180910390fd5b83600160008781526020019081526020016000206001019080519060200190611eb3929190612335565b507fc92be2d1aa69266735ff482064bb1aca2d648d2d9d65c293ccd1f534d274736d8585604051611ee5929190612bce565b60405180910390a15050505050565b60008054905090565b6000816000548110611f44576040517f08c379a0000000000000000000000000000000000000000000000000000000008152600401611f3b90612aa8565b60405180910390fd5b6001600084815260200190815260200160002060060154915050919050565b611f6b6123fb565b816000548110611fb0576040517f08c379a0000000000000000000000000000000000000000000000000000000008152600401611fa790612aa8565b60405180910390fd5b6001600084815260200190815260200160002060405180610140016040529081600082018054611fdf90612e20565b80601f016020809104026020016040519081016040528092919081815260200182805461200b90612e20565b80156120585780601f1061202d57610100808354040283529160200191612058565b820191906000526020600020905b81548152906001019060200180831161203b57829003601f168201915b5050505050815260200160018201805461207190612e20565b80601f016020809104026020016040519081016040528092919081815260200182805461209d90612e20565b80156120ea5780601f106120bf576101008083540402835291602001916120ea565b820191906000526020600020905b8154815290600101906020018083116120cd57829003601f168201915b5050505050815260200160028201805461210390612e20565b80601f016020809104026020016040519081016040528092919081815260200182805461212f90612e20565b801561217c5780601f106121515761010080835404028352916020019161217c565b820191906000526020600020905b81548152906001019060200180831161215f57829003601f168201915b505050505081526020016003820160009054906101000a900460ff1660038111156121d0577f4e487b7100000000000000000000000000000000000000000000000000000000600052602160045260246000fd5b6003811115612208577f4e487b7100000000000000000000000000000000000000000000000000000000600052602160045260246000fd5b815260200160048201805461221c90612e20565b80601f016020809104026020016040519081016040528092919081815260200182805461224890612e20565b80156122955780601f1061226a57610100808354040283529160200191612295565b820191906000526020600020905b81548152906001019060200180831161227857829003601f168201915b505050505081526020016005820154815260200160068201548152602001600782015481526020016008820160009054906101000a900473ffffffffffffffffffffffffffffffffffffffff1673ffffffffffffffffffffffffffffffffffffffff1673ffffffffffffffffffffffffffffffffffffffff1681526020016008820160149054906101000a900460ff161515151581525050915050919050565b82805461234190612e20565b90600052602060002090601f01602090048101928261236357600085556123aa565b82601f1061237c57805160ff19168380011785556123aa565b828001600101855582156123aa579182015b828111156123a957825182559160200191906001019061238e565b5b5090506123b7919061249e565b5090565b5080546123c790612e20565b6000825580601f106123d957506123f8565b601f0160209004906000526020600020908101906123f7919061249e565b5b50565b60405180610140016040528060608152602001606081526020016060815260200160006003811115612456577f4e487b7100000000000000000000000000000000000000000000000000000000600052602160045260246000fd5b815260200160608152602001600081526020016000815260200160008152602001600073ffffffffffffffffffffffffffffffffffffffff1681526020016000151581525090565b5b808211156124b757600081600090555060010161249f565b5090565b60006124ce6124c984612d13565b612cee565b9050828152602081018484840111156124e657600080fd5b6124f1848285612dde565b509392505050565b60008135905061250881613161565b92915050565b60008135905061251d81613178565b92915050565b600082601f83011261253457600080fd5b81356125448482602086016124bb565b91505092915050565b60008135905061255c81613188565b92915050565b600080600080600080600080610100898b03121561257f57600080fd5b600089013567ffffffffffffffff81111561259957600080fd5b6125a58b828c01612523565b985050602089013567ffffffffffffffff8111156125c257600080fd5b6125ce8b828c01612523565b975050604089013567ffffffffffffffff8111156125eb57600080fd5b6125f78b828c01612523565b96505060606126088b828c0161250e565b955050608089013567ffffffffffffffff81111561262557600080fd5b6126318b828c01612523565b94505060a06126428b828c0161254d565b93505060c06126538b828c0161254d565b92505060e06126648b828c0161254d565b9150509295985092959890939650565b60006020828403121561268657600080fd5b60006126948482850161254d565b91505092915050565b600080604083850312156126b057600080fd5b60006126be8582860161254d565b92505060206126cf858286016124f9565b9150509250929050565b600080604083850312156126ec57600080fd5b60006126fa8582860161254d565b925050602061270b8582860161250e565b9150509250929050565b6000806040838503121561272857600080fd5b60006127368582860161254d565b925050602083013567ffffffffffffffff81111561275357600080fd5b61275f85828601612523565b9150509250929050565b6000806040838503121561277c57600080fd5b600061278a8582860161254d565b925050602061279b8582860161254d565b9150509250929050565b6127ae81612d71565b82525050565b6127bd81612d71565b82525050565b6127cc81612d83565b82525050565b6127db81612d83565b82525050565b6127ea81612dcc565b82525050565b6127f981612dcc565b82525050565b600061280a82612d44565b6128148185612d4f565b9350612824818560208601612ded565b61282d81612f88565b840191505092915050565b600061284382612d44565b61284d8185612d60565b935061285d818560208601612ded565b61286681612f88565b840191505092915050565b600061287e601a83612d60565b915061288982612f99565b602082019050919050565b60006128a1602383612d60565b91506128ac82612fc2565b604082019050919050565b60006128c4602183612d60565b91506128cf82613011565b604082019050919050565b60006128e7602583612d60565b91506128f282613060565b604082019050919050565b600061290a602883612d60565b9150612915826130af565b604082019050919050565b600061292d602883612d60565b9150612938826130fe565b604082019050919050565b600061014083016000830151848203600086015261296182826127ff565b9150506020830151848203602086015261297b82826127ff565b9150506040830151848203604086015261299582826127ff565b91505060608301516129aa60608601826127e1565b50608083015184820360808601526129c282826127ff565b91505060a08301516129d760a0860182612a32565b5060c08301516129ea60c0860182612a32565b5060e08301516129fd60e0860182612a32565b50610100830151612a126101008601826127a5565b50610120830151612a276101208601826127c3565b508091505092915050565b612a3b81612dc2565b82525050565b612a4a81612dc2565b82525050565b6000602082019050612a6560008301846127b4565b92915050565b6000602082019050612a8060008301846127f0565b92915050565b60006020820190508181036000830152612aa08184612838565b905092915050565b60006020820190508181036000830152612ac181612871565b9050919050565b60006020820190508181036000830152612ae181612894565b9050919050565b60006020820190508181036000830152612b01816128b7565b9050919050565b60006020820190508181036000830152612b21816128da565b9050919050565b60006020820190508181036000830152612b41816128fd565b9050919050565b60006020820190508181036000830152612b6181612920565b9050919050565b60006020820190508181036000830152612b828184612943565b905092915050565b6000602082019050612b9f6000830184612a41565b92915050565b6000604082019050612bba6000830185612a41565b612bc760208301846127f0565b9392505050565b6000604082019050612be36000830185612a41565b8181036020830152612bf58184612838565b90509392505050565b600061016082019050612c14600083018e612a41565b8181036020830152612c26818d612838565b90508181036040830152612c3a818c612838565b90508181036060830152612c4e818b612838565b9050612c5d608083018a6127f0565b81810360a0830152612c6f8189612838565b9050612c7e60c0830188612a41565b612c8b60e0830187612a41565b612c99610100830186612a41565b612ca76101208301856127b4565b612cb56101408301846127d2565b9c9b505050505050505050505050565b6000604082019050612cda6000830185612a41565b612ce76020830184612a41565b9392505050565b6000612cf8612d09565b9050612d048282612e52565b919050565b6000604051905090565b600067ffffffffffffffff821115612d2e57612d2d612f59565b5b612d3782612f88565b9050602081019050919050565b600081519050919050565b600082825260208201905092915050565b600082825260208201905092915050565b6000612d7c82612da2565b9050919050565b60008115159050919050565b6000819050612d9d8261314d565b919050565b600073ffffffffffffffffffffffffffffffffffffffff82169050919050565b6000819050919050565b6000612dd782612d8f565b9050919050565b82818337600083830152505050565b60005b83811015612e0b578082015181840152602081019050612df0565b83811115612e1a576000848401525b50505050565b60006002820490506001821680612e3857607f821691505b60208210811415612e4c57612e4b612f2a565b5b50919050565b612e5b82612f88565b810181811067ffffffffffffffff82111715612e7a57612e79612f59565b5b80604052505050565b6000612e8e82612dc2565b91507fffffffffffffffffffffffffffffffffffffffffffffffffffffffffffffffff821415612ec157612ec0612ecc565b5b600182019050919050565b7f4e487b7100000000000000000000000000000000000000000000000000000000600052601160045260246000fd5b7f4e487b7100000000000000000000000000000000000000000000000000000000600052602160045260246000fd5b7f4e487b7100000000000000000000000000000000000000000000000000000000600052602260045260246000fd5b7f4e487b7100000000000000000000000000000000000000000000000000000000600052604160045260246000fd5b6000601f19601f8301169050919050565b7f496e76616c69642072656e74616c2070726f7065727479206964000000000000600082015250565b7f52656e74616c205072696365206d75737420626520677265617465722074686160008201527f6e20300000000000000000000000000000000000000000000000000000000000602082015250565b7f52656e74616c2050726f70657274792063616e6e6f742062652075706461746560008201527f6400000000000000000000000000000000000000000000000000000000000000602082015250565b7f4c65617365204475726174696f6e206d7573742062652067726561746572207460008201527f68616e2030000000000000000000000000000000000000000000000000000000602082015250565b7f4e756d626572206f662074656e616e7473206d7573742062652067726561746560008201527f72207468616e2030000000000000000000000000000000000000000000000000602082015250565b7f4f6e6c7920746865206c616e646c6f72642063616e2063616c6c20746869732060008201527f66756e6374696f6e000000000000000000000000000000000000000000000000602082015250565b6004811061315e5761315d612efb565b5b50565b61316a81612d83565b811461317557600080fd5b50565b6004811061318557600080fd5b50565b61319181612dc2565b811461319c57600080fd5b5056fea2646970667358221220a28f8bd7e7f8d0d00deae0152077067c5ebe9d804496cf474e350f6e1968d70064736f6c63430008010033",
  "immutableReferences": {},
  "source": "// SPDX-License-Identifier: MIT\r\npragma solidity ^0.8.0;\r\n\r\ncontract RentalProperty {\r\n    // ################################################### STRUCTURE & STATE VARIABLES ################################################### //\r\n\r\n    enum PropertyType {\r\n        HDB,\r\n        Condo,\r\n        Landed,\r\n        Other\r\n    }\r\n\r\n    struct rentalProperty {\r\n        string location; // location of the property\r\n        string postalCode; // postal code of the property\r\n        string unitNumber; // unit number of the property\r\n        PropertyType propertyType; // type of property\r\n        string description; // description of the property\r\n        uint256 numOfTenants; // number of tenants in the property\r\n        uint256 rentalPrice; // rental price in LeaseToken\r\n        uint256 leaseDuration; // lease duration in months\r\n        address landlord; // address of the landlord owner\r\n        bool updateStatus; // status of the rental property (true if property can be updated/deleted, false if property cannot be updated/deleted)\r\n    }\r\n\r\n    uint256 private numRentalProperty = 0;\r\n    mapping(uint256 => rentalProperty) private rentalProperties; // map of rental properties indexed by propertyId\r\n\r\n    // ################################################### EVENTS ################################################### //\r\n\r\n    event RentalPropertyCreated(\r\n        uint256 rentalPropertyId,\r\n        string location,\r\n        string postalCode,\r\n        string unitNumber,\r\n        PropertyType propertyType,\r\n        string description,\r\n        uint256 numOfTenants,\r\n        uint256 rentalPrice,\r\n        uint256 leaseDuration,\r\n        address landlord,\r\n        bool updateStatus\r\n    );\r\n\r\n    event RentalPropertyUpdateLocation(\r\n        uint256 rentalPropertyId,\r\n        string newLocation\r\n    );\r\n\r\n    event RentalPropertyUpdatePostalCode(\r\n        uint256 rentalPropertyId,\r\n        string newPostalCode\r\n    );\r\n\r\n    event RentalPropertyUpdateUnitNumber(\r\n        uint256 rentalPropertyId,\r\n        string newUnitNumber\r\n    );\r\n\r\n    event RentalPropertyUpdatePropertyType(\r\n        uint256 rentalPropertyId,\r\n        PropertyType newPropertyType\r\n    );\r\n\r\n    event RentalPropertyUpdateDescription(\r\n        uint256 rentalPropertyId,\r\n        string newDescription\r\n    );\r\n\r\n    event RentalPropertyUpdateNumOfTenants(\r\n        uint256 rentalPropertyId,\r\n        uint256 newNumOfTenants\r\n    );\r\n\r\n    event RentalPropertyUpdateRentalPrice(\r\n        uint256 rentalPropertyId,\r\n        uint256 newRentalPrice\r\n    );\r\n\r\n    event RentalPropertyUpdateLeaseDuration(\r\n        uint256 rentalPropertyId,\r\n        uint256 newLeaseDuration\r\n    );\r\n\r\n    event RentalPropertyDeleted(uint256 rentalPropertyId);\r\n\r\n    // ################################################### MODIFIERS ################################################### //\r\n\r\n    //Modifier to ensure a function is callable only by its landlord owner\r\n    modifier landlordOnly(uint256 rentalPropertyId) {\r\n        require(\r\n            rentalProperties[rentalPropertyId].landlord == msg.sender,\r\n            \"Only the landlord can call this function\"\r\n        );\r\n        _;\r\n    }\r\n\r\n    //Modifier to ensure a function is accessible only if the rental property id is valid\r\n    modifier validRentalPropertyId(uint256 rentalPropertyId) {\r\n        require(\r\n            rentalPropertyId < numRentalProperty,\r\n            \"Invalid rental property id\"\r\n        );\r\n        _;\r\n    }\r\n\r\n    modifier validNumOfTenants(uint256 numOfTenants) {\r\n        require(numOfTenants > 0, \"Number of tenants must be greater than 0\");\r\n        _;\r\n    }\r\n\r\n    modifier validRentalPrice(uint256 rentalPrice) {\r\n        require(rentalPrice > 0, \"Rental Price must be greater than 0\");\r\n        _;\r\n    }\r\n\r\n    modifier validLeaseDuration(uint256 leaseDuration) {\r\n        require(leaseDuration > 0, \"Lease Duration must be greater than 0\");\r\n        _;\r\n    }\r\n\r\n    modifier validUpdateStatus(uint256 rentalPropertyId) {\r\n        require(\r\n            rentalProperties[rentalPropertyId].updateStatus == true,\r\n            \"Rental Property cannot be updated\"\r\n        );\r\n        _;\r\n    }\r\n\r\n    // ################################################### CREATE METHOD ################################################### //\r\n\r\n    // Function for landlord to create a new Rental Property, and add to 'rentalProperties' map. requires at least 0.01ETH to create\r\n    function addRentalProperty(\r\n        string memory _location,\r\n        string memory _postalCode,\r\n        string memory _unitNumber,\r\n        PropertyType _propertyType,\r\n        string memory _description,\r\n        uint256 _numOfTenants,\r\n        uint256 _rentalPrice,\r\n        uint256 _leaseDuration\r\n    )\r\n        public\r\n        validNumOfTenants(_numOfTenants)\r\n        validRentalPrice(_rentalPrice)\r\n        validLeaseDuration(_leaseDuration)\r\n        returns (uint256)\r\n    {\r\n        // New Rental Property object\r\n        rentalProperty memory newRentalProperty = rentalProperty(\r\n            _location,\r\n            _postalCode,\r\n            _unitNumber,\r\n            _propertyType,\r\n            _description,\r\n            _numOfTenants,\r\n            _rentalPrice,\r\n            _leaseDuration,\r\n            msg.sender, // landlord is the sender\r\n            true // initially, rental property can be updated/deleted when there are no tenants applications\r\n        );\r\n\r\n        uint256 newRentalPropertyId = numRentalProperty++; // increment rental property id\r\n        rentalProperties[newRentalPropertyId] = newRentalProperty; // add to rentalProperties map\r\n        emit RentalPropertyCreated(\r\n            newRentalPropertyId,\r\n            _location,\r\n            _postalCode,\r\n            _unitNumber,\r\n            _propertyType,\r\n            _description,\r\n            _numOfTenants,\r\n            _rentalPrice,\r\n            _leaseDuration,\r\n            msg.sender,\r\n            true\r\n        );\r\n\r\n        return newRentalPropertyId; //return new rental property id\r\n    }\r\n\r\n    // ################################################### GETTER METHODS ################################################### //\r\n\r\n    //Function to get a rental property\r\n    function getRentalProperty(\r\n        uint256 rentalPropertyId\r\n    )\r\n        public\r\n        view\r\n        validRentalPropertyId(rentalPropertyId)\r\n        returns (rentalProperty memory)\r\n    {\r\n        return rentalProperties[rentalPropertyId];\r\n    }\r\n\r\n    //Function to get the location of a rental property\r\n    function getLocation(\r\n        uint256 rentalPropertyId\r\n    )\r\n        public\r\n        view\r\n        validRentalPropertyId(rentalPropertyId)\r\n        returns (string memory)\r\n    {\r\n        return rentalProperties[rentalPropertyId].location;\r\n    }\r\n\r\n    //Function to get the postal code of a rental property\r\n    function getPostalCode(\r\n        uint256 rentalPropertyId\r\n    )\r\n        public\r\n        view\r\n        validRentalPropertyId(rentalPropertyId)\r\n        returns (string memory)\r\n    {\r\n        return rentalProperties[rentalPropertyId].postalCode;\r\n    }\r\n\r\n    //Function to get the unit number of a rental property\r\n    function getUnitNumber(\r\n        uint256 rentalPropertyId\r\n    )\r\n        public\r\n        view\r\n        validRentalPropertyId(rentalPropertyId)\r\n        returns (string memory)\r\n    {\r\n        return rentalProperties[rentalPropertyId].unitNumber;\r\n    }\r\n\r\n    //Function to get the property type of a rental property\r\n    function getPropertyType(\r\n        uint256 rentalPropertyId\r\n    )\r\n        public\r\n        view\r\n        validRentalPropertyId(rentalPropertyId)\r\n        returns (PropertyType)\r\n    {\r\n        return rentalProperties[rentalPropertyId].propertyType;\r\n    }\r\n\r\n    //Function to get the description of a rental property\r\n    function getDescription(\r\n        uint256 rentalPropertyId\r\n    )\r\n        public\r\n        view\r\n        validRentalPropertyId(rentalPropertyId)\r\n        returns (string memory)\r\n    {\r\n        return rentalProperties[rentalPropertyId].description;\r\n    }\r\n\r\n    //Function to get the number of tenants in a rental property\r\n    function getNumOfTenants(\r\n        uint256 rentalPropertyId\r\n    ) public view validRentalPropertyId(rentalPropertyId) returns (uint256) {\r\n        return rentalProperties[rentalPropertyId].numOfTenants;\r\n    }\r\n\r\n    //Function to get the rental price of a rental property\r\n    function getRentalPrice(\r\n        uint256 rentalPropertyId\r\n    ) public view validRentalPropertyId(rentalPropertyId) returns (uint256) {\r\n        return rentalProperties[rentalPropertyId].rentalPrice;\r\n    }\r\n\r\n    //Function to get the lease duration of a rental property\r\n    function getLeaseDuration(\r\n        uint256 rentalPropertyId\r\n    ) public view validRentalPropertyId(rentalPropertyId) returns (uint256) {\r\n        return rentalProperties[rentalPropertyId].leaseDuration;\r\n    }\r\n\r\n    //Function to get the landlord of a rental property\r\n    function getLandlord(\r\n        uint256 rentalPropertyId\r\n    ) public view validRentalPropertyId(rentalPropertyId) returns (address) {\r\n        return rentalProperties[rentalPropertyId].landlord;\r\n    }\r\n\r\n    //Function to get the number of rental properties\r\n    function getNumRentalProperty() public view returns (uint256) {\r\n        return numRentalProperty;\r\n    }\r\n\r\n    // ################################################### SETTER METHODS ################################################### //\r\n\r\n    //Function to update the location of a rental property\r\n    function updateLocation(\r\n        uint256 rentalPropertyId,\r\n        string memory newLocation\r\n    )\r\n        public\r\n        landlordOnly(rentalPropertyId)\r\n        validRentalPropertyId(rentalPropertyId)\r\n        validUpdateStatus(rentalPropertyId)\r\n    {\r\n        rentalProperties[rentalPropertyId].location = newLocation;\r\n        emit RentalPropertyUpdateLocation(rentalPropertyId, newLocation);\r\n    }\r\n\r\n    //Function to update the postal code of a rental property\r\n    function updatePostalCode(\r\n        uint256 rentalPropertyId,\r\n        string memory newPostalCode\r\n    )\r\n        public\r\n        landlordOnly(rentalPropertyId)\r\n        validRentalPropertyId(rentalPropertyId)\r\n        validUpdateStatus(rentalPropertyId)\r\n    {\r\n        rentalProperties[rentalPropertyId].postalCode = newPostalCode;\r\n        emit RentalPropertyUpdatePostalCode(rentalPropertyId, newPostalCode);\r\n    }\r\n\r\n    //Function to update the unit number of a rental property\r\n    function updateUnitNumber(\r\n        uint256 rentalPropertyId,\r\n        string memory newUnitNumber\r\n    )\r\n        public\r\n        landlordOnly(rentalPropertyId)\r\n        validRentalPropertyId(rentalPropertyId)\r\n        validUpdateStatus(rentalPropertyId)\r\n    {\r\n        rentalProperties[rentalPropertyId].unitNumber = newUnitNumber;\r\n        emit RentalPropertyUpdateUnitNumber(rentalPropertyId, newUnitNumber);\r\n    }\r\n\r\n    //Function to update the property type of a rental property\r\n    function updatePropertyType(\r\n        uint256 rentalPropertyId,\r\n        PropertyType newPropertyType\r\n    )\r\n        public\r\n        landlordOnly(rentalPropertyId)\r\n        validRentalPropertyId(rentalPropertyId)\r\n        validUpdateStatus(rentalPropertyId)\r\n    {\r\n        rentalProperties[rentalPropertyId].propertyType = newPropertyType;\r\n        emit RentalPropertyUpdatePropertyType(\r\n            rentalPropertyId,\r\n            newPropertyType\r\n        );\r\n    }\r\n\r\n    //Function to update the description of a rental property\r\n    function updateDescription(\r\n        uint256 rentalPropertyId,\r\n        string memory newDescription\r\n    )\r\n        public\r\n        landlordOnly(rentalPropertyId)\r\n        validRentalPropertyId(rentalPropertyId)\r\n        validUpdateStatus(rentalPropertyId)\r\n    {\r\n        rentalProperties[rentalPropertyId].description = newDescription;\r\n        emit RentalPropertyUpdateDescription(rentalPropertyId, newDescription);\r\n    }\r\n\r\n    //Function to update the number of tenants in a rental property\r\n    function updateNumOfTenants(\r\n        uint256 rentalPropertyId,\r\n        uint256 newNumOfTenants\r\n    )\r\n        public\r\n        landlordOnly(rentalPropertyId)\r\n        validRentalPropertyId(rentalPropertyId)\r\n        validNumOfTenants(newNumOfTenants)\r\n        validUpdateStatus(rentalPropertyId)\r\n    {\r\n        rentalProperties[rentalPropertyId].numOfTenants = newNumOfTenants;\r\n        emit RentalPropertyUpdateNumOfTenants(\r\n            rentalPropertyId,\r\n            newNumOfTenants\r\n        );\r\n    }\r\n\r\n    //Function to update the rental price of a rental property\r\n    function updateRentalPrice(\r\n        uint256 rentalPropertyId,\r\n        uint256 newRentalPrice\r\n    )\r\n        public\r\n        landlordOnly(rentalPropertyId)\r\n        validRentalPropertyId(rentalPropertyId)\r\n        validRentalPrice(newRentalPrice)\r\n        validUpdateStatus(rentalPropertyId)\r\n    {\r\n        rentalProperties[rentalPropertyId].rentalPrice = newRentalPrice;\r\n        emit RentalPropertyUpdateRentalPrice(rentalPropertyId, newRentalPrice);\r\n    }\r\n\r\n    //Function to update the lease duration of a rental property\r\n    function updateLeaseDuration(\r\n        uint256 rentalPropertyId,\r\n        uint256 newLeaseDuration\r\n    )\r\n        public\r\n        landlordOnly(rentalPropertyId)\r\n        validRentalPropertyId(rentalPropertyId)\r\n        validLeaseDuration(newLeaseDuration)\r\n        validUpdateStatus(rentalPropertyId)\r\n    {\r\n        rentalProperties[rentalPropertyId].leaseDuration = newLeaseDuration;\r\n        emit RentalPropertyUpdateLeaseDuration(\r\n            rentalPropertyId,\r\n            newLeaseDuration\r\n        );\r\n    }\r\n    //Function to set the new update status of a rental property\r\n    //Not restricted to landlord as this function is used in RentalMarketplace to set the update status to false when there are tenants applications\r\n    function setUpdateStatus(\r\n        uint256 rentalPropertyId,\r\n        bool newUpdateStatus\r\n    ) public validRentalPropertyId(rentalPropertyId) {\r\n        rentalProperties[rentalPropertyId].updateStatus = newUpdateStatus;\r\n    }\r\n\r\n    // ################################################### DELETE METHOD ################################################### //\r\n\r\n    //Function to delete a rental property\r\n    function deleteRentalProperty(\r\n        uint256 rentalPropertyId\r\n    )\r\n        public\r\n        landlordOnly(rentalPropertyId)\r\n        validRentalPropertyId(rentalPropertyId)\r\n        validUpdateStatus(rentalPropertyId)\r\n    {\r\n        delete rentalProperties[rentalPropertyId];\r\n        emit RentalPropertyDeleted(rentalPropertyId);\r\n    }\r\n}\r\n",
  "sourcePath": "C:\\Users\\Bransome Tan Yi Hao\\OneDrive - National University of Singapore\\Desktop\\IS4302\\is4302-project\\contracts\\RentalProperty.sol",
  "compiler": {
    "name": "solc",
    "version": "0.8.1+commit.df193b15.Emscripten.clang"
  },
  "schemaVersion": "3.4.16",
  "updatedAt": "2024-04-06T19:54:16.590Z",
  "devdoc": {
    "kind": "dev",
    "methods": {},
    "version": 1
  },
  "userdoc": {
    "kind": "user",
    "methods": {},
    "version": 1
  }
}