{
  "contractName": "RentalProperty",
  "abi": [
    {
      "anonymous": false,
      "inputs": [
        {
          "indexed": false,
          "internalType": "uint256",
          "name": "rentalPropertyId",
          "type": "uint256"
        },
        {
          "indexed": false,
          "internalType": "string",
          "name": "location",
          "type": "string"
        },
        {
          "indexed": false,
          "internalType": "string",
          "name": "postalCode",
          "type": "string"
        },
        {
          "indexed": false,
          "internalType": "string",
          "name": "unitNumber",
          "type": "string"
        },
        {
          "indexed": false,
          "internalType": "enum RentalProperty.PropertyType",
          "name": "propertyType",
          "type": "uint8"
        },
        {
          "indexed": false,
          "internalType": "string",
          "name": "description",
          "type": "string"
        },
        {
          "indexed": false,
          "internalType": "uint256",
          "name": "numOfTenants",
          "type": "uint256"
        },
        {
          "indexed": false,
          "internalType": "uint256",
          "name": "rentalPrice",
          "type": "uint256"
        },
        {
          "indexed": false,
          "internalType": "uint256",
          "name": "leaseDuration",
          "type": "uint256"
        },
        {
          "indexed": false,
          "internalType": "address",
          "name": "landlord",
          "type": "address"
        }
      ],
      "name": "RentalPropertyCreated",
      "type": "event"
    },
    {
      "anonymous": false,
      "inputs": [
        {
          "indexed": false,
          "internalType": "uint256",
          "name": "rentalPropertyId",
          "type": "uint256"
        }
      ],
      "name": "RentalPropertyDeleted",
      "type": "event"
    },
    {
      "anonymous": false,
      "inputs": [
        {
          "indexed": false,
          "internalType": "uint256",
          "name": "rentalPropertyId",
          "type": "uint256"
        },
        {
          "indexed": false,
          "internalType": "string",
          "name": "newDescription",
          "type": "string"
        }
      ],
      "name": "RentalPropertyUpdateDescription",
      "type": "event"
    },
    {
      "anonymous": false,
      "inputs": [
        {
          "indexed": false,
          "internalType": "uint256",
          "name": "rentalPropertyId",
          "type": "uint256"
        },
        {
          "indexed": false,
          "internalType": "uint256",
          "name": "newLeaseDuration",
          "type": "uint256"
        }
      ],
      "name": "RentalPropertyUpdateLeaseDuration",
      "type": "event"
    },
    {
      "anonymous": false,
      "inputs": [
        {
          "indexed": false,
          "internalType": "uint256",
          "name": "rentalPropertyId",
          "type": "uint256"
        },
        {
          "indexed": false,
          "internalType": "string",
          "name": "newLocation",
          "type": "string"
        }
      ],
      "name": "RentalPropertyUpdateLocation",
      "type": "event"
    },
    {
      "anonymous": false,
      "inputs": [
        {
          "indexed": false,
          "internalType": "uint256",
          "name": "rentalPropertyId",
          "type": "uint256"
        },
        {
          "indexed": false,
          "internalType": "uint256",
          "name": "newNumOfTenants",
          "type": "uint256"
        }
      ],
      "name": "RentalPropertyUpdateNumOfTenants",
      "type": "event"
    },
    {
      "anonymous": false,
      "inputs": [
        {
          "indexed": false,
          "internalType": "uint256",
          "name": "rentalPropertyId",
          "type": "uint256"
        },
        {
          "indexed": false,
          "internalType": "string",
          "name": "newPostalCode",
          "type": "string"
        }
      ],
      "name": "RentalPropertyUpdatePostalCode",
      "type": "event"
    },
    {
      "anonymous": false,
      "inputs": [
        {
          "indexed": false,
          "internalType": "uint256",
          "name": "rentalPropertyId",
          "type": "uint256"
        },
        {
          "indexed": false,
          "internalType": "enum RentalProperty.PropertyType",
          "name": "newPropertyType",
          "type": "uint8"
        }
      ],
      "name": "RentalPropertyUpdatePropertyType",
      "type": "event"
    },
    {
      "anonymous": false,
      "inputs": [
        {
          "indexed": false,
          "internalType": "uint256",
          "name": "rentalPropertyId",
          "type": "uint256"
        },
        {
          "indexed": false,
          "internalType": "uint256",
          "name": "newRentalPrice",
          "type": "uint256"
        }
      ],
      "name": "RentalPropertyUpdateRentalPrice",
      "type": "event"
    },
    {
      "anonymous": false,
      "inputs": [
        {
          "indexed": false,
          "internalType": "uint256",
          "name": "rentalPropertyId",
          "type": "uint256"
        },
        {
          "indexed": false,
          "internalType": "string",
          "name": "newUnitNumber",
          "type": "string"
        }
      ],
      "name": "RentalPropertyUpdateUnitNumber",
      "type": "event"
    },
    {
      "inputs": [
        {
          "internalType": "string",
          "name": "_location",
          "type": "string"
        },
        {
          "internalType": "string",
          "name": "_postalCode",
          "type": "string"
        },
        {
          "internalType": "string",
          "name": "_unitNumber",
          "type": "string"
        },
        {
          "internalType": "enum RentalProperty.PropertyType",
          "name": "_propertyType",
          "type": "uint8"
        },
        {
          "internalType": "string",
          "name": "_description",
          "type": "string"
        },
        {
          "internalType": "uint256",
          "name": "_numOfTenants",
          "type": "uint256"
        },
        {
          "internalType": "uint256",
          "name": "_rentalPrice",
          "type": "uint256"
        },
        {
          "internalType": "uint256",
          "name": "_leaseDuration",
          "type": "uint256"
        }
      ],
      "name": "addRentalProperty",
      "outputs": [
        {
          "internalType": "uint256",
          "name": "",
          "type": "uint256"
        }
      ],
      "stateMutability": "nonpayable",
      "type": "function"
    },
    {
      "inputs": [
        {
          "internalType": "uint256",
          "name": "rentalPropertyId",
          "type": "uint256"
        }
      ],
      "name": "getRentalProperty",
      "outputs": [
        {
          "components": [
            {
              "internalType": "string",
              "name": "location",
              "type": "string"
            },
            {
              "internalType": "string",
              "name": "postalCode",
              "type": "string"
            },
            {
              "internalType": "string",
              "name": "unitNumber",
              "type": "string"
            },
            {
              "internalType": "enum RentalProperty.PropertyType",
              "name": "propertyType",
              "type": "uint8"
            },
            {
              "internalType": "string",
              "name": "description",
              "type": "string"
            },
            {
              "internalType": "uint256",
              "name": "numOfTenants",
              "type": "uint256"
            },
            {
              "internalType": "uint256",
              "name": "rentalPrice",
              "type": "uint256"
            },
            {
              "internalType": "uint256",
              "name": "leaseDuration",
              "type": "uint256"
            },
            {
              "internalType": "address",
              "name": "landlord",
              "type": "address"
            },
            {
              "internalType": "bool",
              "name": "updateStatus",
              "type": "bool"
            },
            {
              "internalType": "bool",
              "name": "isListed",
              "type": "bool"
            },
            {
              "internalType": "uint256",
              "name": "paymentId",
              "type": "uint256"
            }
          ],
          "internalType": "struct RentalProperty.rentalProperty",
          "name": "",
          "type": "tuple"
        }
      ],
      "stateMutability": "view",
      "type": "function",
      "constant": true
    },
    {
      "inputs": [
        {
          "internalType": "uint256",
          "name": "rentalPropertyId",
          "type": "uint256"
        }
      ],
      "name": "getLocation",
      "outputs": [
        {
          "internalType": "string",
          "name": "",
          "type": "string"
        }
      ],
      "stateMutability": "view",
      "type": "function",
      "constant": true
    },
    {
      "inputs": [
        {
          "internalType": "uint256",
          "name": "rentalPropertyId",
          "type": "uint256"
        }
      ],
      "name": "getPostalCode",
      "outputs": [
        {
          "internalType": "string",
          "name": "",
          "type": "string"
        }
      ],
      "stateMutability": "view",
      "type": "function",
      "constant": true
    },
    {
      "inputs": [
        {
          "internalType": "uint256",
          "name": "rentalPropertyId",
          "type": "uint256"
        }
      ],
      "name": "getUnitNumber",
      "outputs": [
        {
          "internalType": "string",
          "name": "",
          "type": "string"
        }
      ],
      "stateMutability": "view",
      "type": "function",
      "constant": true
    },
    {
      "inputs": [
        {
          "internalType": "uint256",
          "name": "rentalPropertyId",
          "type": "uint256"
        }
      ],
      "name": "getPropertyType",
      "outputs": [
        {
          "internalType": "enum RentalProperty.PropertyType",
          "name": "",
          "type": "uint8"
        }
      ],
      "stateMutability": "view",
      "type": "function",
      "constant": true
    },
    {
      "inputs": [
        {
          "internalType": "uint256",
          "name": "rentalPropertyId",
          "type": "uint256"
        }
      ],
      "name": "getDescription",
      "outputs": [
        {
          "internalType": "string",
          "name": "",
          "type": "string"
        }
      ],
      "stateMutability": "view",
      "type": "function",
      "constant": true
    },
    {
      "inputs": [
        {
          "internalType": "uint256",
          "name": "rentalPropertyId",
          "type": "uint256"
        }
      ],
      "name": "getNumOfTenants",
      "outputs": [
        {
          "internalType": "uint256",
          "name": "",
          "type": "uint256"
        }
      ],
      "stateMutability": "view",
      "type": "function",
      "constant": true
    },
    {
      "inputs": [
        {
          "internalType": "uint256",
          "name": "rentalPropertyId",
          "type": "uint256"
        }
      ],
      "name": "getRentalPrice",
      "outputs": [
        {
          "internalType": "uint256",
          "name": "",
          "type": "uint256"
        }
      ],
      "stateMutability": "view",
      "type": "function",
      "constant": true
    },
    {
      "inputs": [
        {
          "internalType": "uint256",
          "name": "rentalPropertyId",
          "type": "uint256"
        }
      ],
      "name": "getLeaseDuration",
      "outputs": [
        {
          "internalType": "uint256",
          "name": "",
          "type": "uint256"
        }
      ],
      "stateMutability": "view",
      "type": "function",
      "constant": true
    },
    {
      "inputs": [
        {
          "internalType": "uint256",
          "name": "rentalPropertyId",
          "type": "uint256"
        }
      ],
      "name": "getLandlord",
      "outputs": [
        {
          "internalType": "address",
          "name": "",
          "type": "address"
        }
      ],
      "stateMutability": "view",
      "type": "function",
      "constant": true
    },
    {
      "inputs": [
        {
          "internalType": "uint256",
          "name": "rentalPropertyId",
          "type": "uint256"
        }
      ],
      "name": "getUpdateStatus",
      "outputs": [
        {
          "internalType": "bool",
          "name": "",
          "type": "bool"
        }
      ],
      "stateMutability": "view",
      "type": "function",
      "constant": true
    },
    {
      "inputs": [
        {
          "internalType": "uint256",
          "name": "rentalPropertyId",
          "type": "uint256"
        }
      ],
      "name": "getListedStatus",
      "outputs": [
        {
          "internalType": "bool",
          "name": "",
          "type": "bool"
        }
      ],
      "stateMutability": "view",
      "type": "function",
      "constant": true
    },
    {
      "inputs": [],
      "name": "getNumRentalProperty",
      "outputs": [
        {
          "internalType": "uint256",
          "name": "",
          "type": "uint256"
        }
      ],
      "stateMutability": "view",
      "type": "function",
      "constant": true
    },
    {
      "inputs": [],
      "name": "getNumListedRentalProperty",
      "outputs": [
        {
          "internalType": "uint256",
          "name": "",
          "type": "uint256"
        }
      ],
      "stateMutability": "view",
      "type": "function",
      "constant": true
    },
    {
      "inputs": [],
      "name": "getNumUnlistedRentalProperty",
      "outputs": [
        {
          "internalType": "uint256",
          "name": "",
          "type": "uint256"
        }
      ],
      "stateMutability": "view",
      "type": "function",
      "constant": true
    },
    {
      "inputs": [
        {
          "internalType": "address",
          "name": "landlord",
          "type": "address"
        }
      ],
      "name": "getNumLandlordRentalProperties",
      "outputs": [
        {
          "internalType": "uint256",
          "name": "",
          "type": "uint256"
        }
      ],
      "stateMutability": "view",
      "type": "function",
      "constant": true
    },
    {
      "inputs": [
        {
          "internalType": "address",
          "name": "landlord",
          "type": "address"
        }
      ],
      "name": "getNumLandlordListedRentalProperties",
      "outputs": [
        {
          "internalType": "uint256",
          "name": "",
          "type": "uint256"
        }
      ],
      "stateMutability": "view",
      "type": "function",
      "constant": true
    },
    {
      "inputs": [
        {
          "internalType": "address",
          "name": "landlord",
          "type": "address"
        }
      ],
      "name": "getNumLandlordUnlistedRentalProperties",
      "outputs": [
        {
          "internalType": "uint256",
          "name": "",
          "type": "uint256"
        }
      ],
      "stateMutability": "view",
      "type": "function",
      "constant": true
    },
    {
      "inputs": [],
      "name": "getAllRentalProperties",
      "outputs": [
        {
          "components": [
            {
              "internalType": "string",
              "name": "location",
              "type": "string"
            },
            {
              "internalType": "string",
              "name": "postalCode",
              "type": "string"
            },
            {
              "internalType": "string",
              "name": "unitNumber",
              "type": "string"
            },
            {
              "internalType": "enum RentalProperty.PropertyType",
              "name": "propertyType",
              "type": "uint8"
            },
            {
              "internalType": "string",
              "name": "description",
              "type": "string"
            },
            {
              "internalType": "uint256",
              "name": "numOfTenants",
              "type": "uint256"
            },
            {
              "internalType": "uint256",
              "name": "rentalPrice",
              "type": "uint256"
            },
            {
              "internalType": "uint256",
              "name": "leaseDuration",
              "type": "uint256"
            },
            {
              "internalType": "address",
              "name": "landlord",
              "type": "address"
            },
            {
              "internalType": "bool",
              "name": "updateStatus",
              "type": "bool"
            },
            {
              "internalType": "bool",
              "name": "isListed",
              "type": "bool"
            },
            {
              "internalType": "uint256",
              "name": "paymentId",
              "type": "uint256"
            }
          ],
          "internalType": "struct RentalProperty.rentalProperty[]",
          "name": "",
          "type": "tuple[]"
        }
      ],
      "stateMutability": "view",
      "type": "function",
      "constant": true
    },
    {
      "inputs": [],
      "name": "getAllListedRentalProperties",
      "outputs": [
        {
          "components": [
            {
              "internalType": "string",
              "name": "location",
              "type": "string"
            },
            {
              "internalType": "string",
              "name": "postalCode",
              "type": "string"
            },
            {
              "internalType": "string",
              "name": "unitNumber",
              "type": "string"
            },
            {
              "internalType": "enum RentalProperty.PropertyType",
              "name": "propertyType",
              "type": "uint8"
            },
            {
              "internalType": "string",
              "name": "description",
              "type": "string"
            },
            {
              "internalType": "uint256",
              "name": "numOfTenants",
              "type": "uint256"
            },
            {
              "internalType": "uint256",
              "name": "rentalPrice",
              "type": "uint256"
            },
            {
              "internalType": "uint256",
              "name": "leaseDuration",
              "type": "uint256"
            },
            {
              "internalType": "address",
              "name": "landlord",
              "type": "address"
            },
            {
              "internalType": "bool",
              "name": "updateStatus",
              "type": "bool"
            },
            {
              "internalType": "bool",
              "name": "isListed",
              "type": "bool"
            },
            {
              "internalType": "uint256",
              "name": "paymentId",
              "type": "uint256"
            }
          ],
          "internalType": "struct RentalProperty.rentalProperty[]",
          "name": "",
          "type": "tuple[]"
        }
      ],
      "stateMutability": "view",
      "type": "function",
      "constant": true
    },
    {
      "inputs": [],
      "name": "getAllUnlistedRentalProperties",
      "outputs": [
        {
          "components": [
            {
              "internalType": "string",
              "name": "location",
              "type": "string"
            },
            {
              "internalType": "string",
              "name": "postalCode",
              "type": "string"
            },
            {
              "internalType": "string",
              "name": "unitNumber",
              "type": "string"
            },
            {
              "internalType": "enum RentalProperty.PropertyType",
              "name": "propertyType",
              "type": "uint8"
            },
            {
              "internalType": "string",
              "name": "description",
              "type": "string"
            },
            {
              "internalType": "uint256",
              "name": "numOfTenants",
              "type": "uint256"
            },
            {
              "internalType": "uint256",
              "name": "rentalPrice",
              "type": "uint256"
            },
            {
              "internalType": "uint256",
              "name": "leaseDuration",
              "type": "uint256"
            },
            {
              "internalType": "address",
              "name": "landlord",
              "type": "address"
            },
            {
              "internalType": "bool",
              "name": "updateStatus",
              "type": "bool"
            },
            {
              "internalType": "bool",
              "name": "isListed",
              "type": "bool"
            },
            {
              "internalType": "uint256",
              "name": "paymentId",
              "type": "uint256"
            }
          ],
          "internalType": "struct RentalProperty.rentalProperty[]",
          "name": "",
          "type": "tuple[]"
        }
      ],
      "stateMutability": "view",
      "type": "function",
      "constant": true
    },
    {
      "inputs": [
        {
          "internalType": "address",
          "name": "landlord",
          "type": "address"
        }
      ],
      "name": "getLandlordRentalProperties",
      "outputs": [
        {
          "components": [
            {
              "internalType": "string",
              "name": "location",
              "type": "string"
            },
            {
              "internalType": "string",
              "name": "postalCode",
              "type": "string"
            },
            {
              "internalType": "string",
              "name": "unitNumber",
              "type": "string"
            },
            {
              "internalType": "enum RentalProperty.PropertyType",
              "name": "propertyType",
              "type": "uint8"
            },
            {
              "internalType": "string",
              "name": "description",
              "type": "string"
            },
            {
              "internalType": "uint256",
              "name": "numOfTenants",
              "type": "uint256"
            },
            {
              "internalType": "uint256",
              "name": "rentalPrice",
              "type": "uint256"
            },
            {
              "internalType": "uint256",
              "name": "leaseDuration",
              "type": "uint256"
            },
            {
              "internalType": "address",
              "name": "landlord",
              "type": "address"
            },
            {
              "internalType": "bool",
              "name": "updateStatus",
              "type": "bool"
            },
            {
              "internalType": "bool",
              "name": "isListed",
              "type": "bool"
            },
            {
              "internalType": "uint256",
              "name": "paymentId",
              "type": "uint256"
            }
          ],
          "internalType": "struct RentalProperty.rentalProperty[]",
          "name": "",
          "type": "tuple[]"
        }
      ],
      "stateMutability": "view",
      "type": "function",
      "constant": true
    },
    {
      "inputs": [
        {
          "internalType": "address",
          "name": "landlord",
          "type": "address"
        }
      ],
      "name": "getLandlordListedRentalProperties",
      "outputs": [
        {
          "components": [
            {
              "internalType": "string",
              "name": "location",
              "type": "string"
            },
            {
              "internalType": "string",
              "name": "postalCode",
              "type": "string"
            },
            {
              "internalType": "string",
              "name": "unitNumber",
              "type": "string"
            },
            {
              "internalType": "enum RentalProperty.PropertyType",
              "name": "propertyType",
              "type": "uint8"
            },
            {
              "internalType": "string",
              "name": "description",
              "type": "string"
            },
            {
              "internalType": "uint256",
              "name": "numOfTenants",
              "type": "uint256"
            },
            {
              "internalType": "uint256",
              "name": "rentalPrice",
              "type": "uint256"
            },
            {
              "internalType": "uint256",
              "name": "leaseDuration",
              "type": "uint256"
            },
            {
              "internalType": "address",
              "name": "landlord",
              "type": "address"
            },
            {
              "internalType": "bool",
              "name": "updateStatus",
              "type": "bool"
            },
            {
              "internalType": "bool",
              "name": "isListed",
              "type": "bool"
            },
            {
              "internalType": "uint256",
              "name": "paymentId",
              "type": "uint256"
            }
          ],
          "internalType": "struct RentalProperty.rentalProperty[]",
          "name": "",
          "type": "tuple[]"
        }
      ],
      "stateMutability": "view",
      "type": "function",
      "constant": true
    },
    {
      "inputs": [
        {
          "internalType": "address",
          "name": "landlord",
          "type": "address"
        }
      ],
      "name": "getLandlordUnlistedRentalProperties",
      "outputs": [
        {
          "components": [
            {
              "internalType": "string",
              "name": "location",
              "type": "string"
            },
            {
              "internalType": "string",
              "name": "postalCode",
              "type": "string"
            },
            {
              "internalType": "string",
              "name": "unitNumber",
              "type": "string"
            },
            {
              "internalType": "enum RentalProperty.PropertyType",
              "name": "propertyType",
              "type": "uint8"
            },
            {
              "internalType": "string",
              "name": "description",
              "type": "string"
            },
            {
              "internalType": "uint256",
              "name": "numOfTenants",
              "type": "uint256"
            },
            {
              "internalType": "uint256",
              "name": "rentalPrice",
              "type": "uint256"
            },
            {
              "internalType": "uint256",
              "name": "leaseDuration",
              "type": "uint256"
            },
            {
              "internalType": "address",
              "name": "landlord",
              "type": "address"
            },
            {
              "internalType": "bool",
              "name": "updateStatus",
              "type": "bool"
            },
            {
              "internalType": "bool",
              "name": "isListed",
              "type": "bool"
            },
            {
              "internalType": "uint256",
              "name": "paymentId",
              "type": "uint256"
            }
          ],
          "internalType": "struct RentalProperty.rentalProperty[]",
          "name": "",
          "type": "tuple[]"
        }
      ],
      "stateMutability": "view",
      "type": "function",
      "constant": true
    },
    {
      "inputs": [
        {
          "internalType": "uint256",
          "name": "rentalPropertyId",
          "type": "uint256"
        }
      ],
      "name": "getPaymentId",
      "outputs": [
        {
          "internalType": "uint256",
          "name": "",
          "type": "uint256"
        }
      ],
      "stateMutability": "view",
      "type": "function",
      "constant": true
    },
    {
      "inputs": [
        {
          "internalType": "uint256",
          "name": "rentalPropertyId",
          "type": "uint256"
        },
        {
          "internalType": "string",
          "name": "newLocation",
          "type": "string"
        }
      ],
      "name": "updateLocation",
      "outputs": [],
      "stateMutability": "nonpayable",
      "type": "function"
    },
    {
      "inputs": [
        {
          "internalType": "uint256",
          "name": "rentalPropertyId",
          "type": "uint256"
        },
        {
          "internalType": "string",
          "name": "newPostalCode",
          "type": "string"
        }
      ],
      "name": "updatePostalCode",
      "outputs": [],
      "stateMutability": "nonpayable",
      "type": "function"
    },
    {
      "inputs": [
        {
          "internalType": "uint256",
          "name": "rentalPropertyId",
          "type": "uint256"
        },
        {
          "internalType": "string",
          "name": "newUnitNumber",
          "type": "string"
        }
      ],
      "name": "updateUnitNumber",
      "outputs": [],
      "stateMutability": "nonpayable",
      "type": "function"
    },
    {
      "inputs": [
        {
          "internalType": "uint256",
          "name": "rentalPropertyId",
          "type": "uint256"
        },
        {
          "internalType": "enum RentalProperty.PropertyType",
          "name": "newPropertyType",
          "type": "uint8"
        }
      ],
      "name": "updatePropertyType",
      "outputs": [],
      "stateMutability": "nonpayable",
      "type": "function"
    },
    {
      "inputs": [
        {
          "internalType": "uint256",
          "name": "rentalPropertyId",
          "type": "uint256"
        },
        {
          "internalType": "string",
          "name": "newDescription",
          "type": "string"
        }
      ],
      "name": "updateDescription",
      "outputs": [],
      "stateMutability": "nonpayable",
      "type": "function"
    },
    {
      "inputs": [
        {
          "internalType": "uint256",
          "name": "rentalPropertyId",
          "type": "uint256"
        },
        {
          "internalType": "uint256",
          "name": "newNumOfTenants",
          "type": "uint256"
        }
      ],
      "name": "updateNumOfTenants",
      "outputs": [],
      "stateMutability": "nonpayable",
      "type": "function"
    },
    {
      "inputs": [
        {
          "internalType": "uint256",
          "name": "rentalPropertyId",
          "type": "uint256"
        },
        {
          "internalType": "uint256",
          "name": "newRentalPrice",
          "type": "uint256"
        }
      ],
      "name": "updateRentalPrice",
      "outputs": [],
      "stateMutability": "nonpayable",
      "type": "function"
    },
    {
      "inputs": [
        {
          "internalType": "uint256",
          "name": "rentalPropertyId",
          "type": "uint256"
        },
        {
          "internalType": "uint256",
          "name": "newLeaseDuration",
          "type": "uint256"
        }
      ],
      "name": "updateLeaseDuration",
      "outputs": [],
      "stateMutability": "nonpayable",
      "type": "function"
    },
    {
      "inputs": [
        {
          "internalType": "uint256",
          "name": "rentalPropertyId",
          "type": "uint256"
        },
        {
          "internalType": "bool",
          "name": "newUpdateStatus",
          "type": "bool"
        }
      ],
      "name": "setUpdateStatus",
      "outputs": [],
      "stateMutability": "nonpayable",
      "type": "function"
    },
    {
      "inputs": [
        {
          "internalType": "uint256",
          "name": "rentalPropertyId",
          "type": "uint256"
        },
        {
          "internalType": "bool",
          "name": "newListedStatus",
          "type": "bool"
        }
      ],
      "name": "setListedStatus",
      "outputs": [],
      "stateMutability": "nonpayable",
      "type": "function"
    },
    {
      "inputs": [],
      "name": "incrementListedRentalProperty",
      "outputs": [],
      "stateMutability": "nonpayable",
      "type": "function"
    },
    {
      "inputs": [],
      "name": "decrementListedRentalProperty",
      "outputs": [],
      "stateMutability": "nonpayable",
      "type": "function"
    },
    {
      "inputs": [
        {
          "internalType": "uint256",
          "name": "rentalPropertyId",
          "type": "uint256"
        },
        {
          "internalType": "uint256",
          "name": "newPaymentId",
          "type": "uint256"
        }
      ],
      "name": "setPaymentId",
      "outputs": [],
      "stateMutability": "nonpayable",
      "type": "function"
    },
    {
      "inputs": [
        {
          "internalType": "uint256",
          "name": "rentalPropertyId",
          "type": "uint256"
        }
      ],
      "name": "deleteRentalProperty",
      "outputs": [],
      "stateMutability": "nonpayable",
      "type": "function"
    }
  ],
  "bytecode": "0x608060405260008055600060015534801561001957600080fd5b50615b94806200002a6000396000f3fe608060405234801561001057600080fd5b50600436106102485760003560e01c80638fbc55f41161013b578063b6329954116100b8578063c3b3f0d11161007c578063c3b3f0d11461076f578063e019caa31461078b578063e1ba0b80146107a7578063e924e64a146107c5578063fd003e4a146107f557610248565b8063b6329954146106b5578063b66b5a42146106d3578063b69f45b3146106f1578063b7e380391461070f578063bf7225be1461073f57610248565b8063a46eadb5116100ff578063a46eadb5146105e9578063a757e92614610619578063acd7c1d314610637578063aee7813114610655578063b23392ec1461068557610248565b80638fbc55f41461053557806390abcd98146105655780639d999edd146105815780639fa6bd071461059d578063a30cff73146105cd57610248565b8063502fb9fd116101c95780637735e6681161018d5780637735e668146104595780637f7b1393146104895780638585434b146104b9578063898dc449146104e95780638ac765a11461051957610248565b8063502fb9fd146103915780635bc39627146103c15780635f23d859146103dd5780635fcd64531461040d5780636712f55f1461042957610248565b80631e820d03116102105780631e820d03146102ef578063384f38a11461031f5780634925ec55146103295780634ca18df6146103595780634ec0c9e91461037557610248565b80630d10702c1461024d578063118e3ea81461027d57806314dee4b3146102ad57806317980888146102c95780631b3924e8146102e5575b600080fd5b61026760048036038101906102629190614d8b565b610825565b60405161027491906153a6565b60405180910390f35b61029760048036038101906102929190614c50565b610913565b6040516102a491906154aa565b60405180910390f35b6102c760048036038101906102c29190614e2c565b6109ee565b005b6102e360048036038101906102de9190614d8b565b610bae565b005b6102ed610e19565b005b61030960048036038101906103049190614d8b565b610e33565b6040516103169190615370565b60405180910390f35b610327610ea6565b005b610343600480360381019061033e9190614d8b565b610ec0565b60405161035091906153a6565b60405180910390f35b610373600480360381019061036e9190614db4565b610fae565b005b61038f600480360381019061038a9190614e2c565b611026565b005b6103ab60048036038101906103a69190614d8b565b6111e6565b6040516103b89190615333565b60405180910390f35b6103db60048036038101906103d69190614e80565b61126c565b005b6103f760048036038101906103f29190614c50565b6112d1565b604051610404919061534e565b60405180910390f35b61042760048036038101906104229190614e80565b6117e4565b005b610443600480360381019061043e9190614d8b565b6119d9565b604051610450919061538b565b60405180910390f35b610473600480360381019061046e9190614d8b565b611a4c565b60405161048091906154aa565b60405180910390f35b6104a3600480360381019061049e9190614d8b565b611ab2565b6040516104b091906153a6565b60405180910390f35b6104d360048036038101906104ce9190614d8b565b611ba0565b6040516104e091906154aa565b60405180910390f35b61050360048036038101906104fe9190614c50565b611c06565b60405161051091906154aa565b60405180910390f35b610533600480360381019061052e9190614df0565b611ce1565b005b61054f600480360381019061054a9190614c50565b611eda565b60405161055c919061534e565b60405180910390f35b61057f600480360381019061057a9190614e80565b61241e565b005b61059b60048036038101906105969190614e2c565b612613565b005b6105b760048036038101906105b29190614d8b565b6127d3565b6040516105c49190615370565b60405180910390f35b6105e760048036038101906105e29190614e80565b612846565b005b61060360048036038101906105fe9190614c50565b612a3b565b60405161061091906154aa565b60405180910390f35b610621612ae5565b60405161062e919061534e565b60405180910390f35b61063f612fb6565b60405161064c919061534e565b60405180910390f35b61066f600480360381019061066a9190614d8b565b613445565b60405161067c91906154aa565b60405180910390f35b61069f600480360381019061069a9190614d8b565b6134ab565b6040516106ac91906153a6565b60405180910390f35b6106bd613599565b6040516106ca91906154aa565b60405180910390f35b6106db6135b0565b6040516106e8919061534e565b60405180910390f35b6106f9613a8e565b60405161070691906154aa565b60405180910390f35b61072960048036038101906107249190614c50565b613a98565b604051610736919061534e565b60405180910390f35b61075960048036038101906107549190614c79565b613fdc565b60405161076691906154aa565b60405180910390f35b61078960048036038101906107849190614db4565b614360565b005b6107a560048036038101906107a09190614e2c565b6143d8565b005b6107af614598565b6040516107bc91906154aa565b60405180910390f35b6107df60048036038101906107da9190614d8b565b6145a1565b6040516107ec91906154aa565b60405180910390f35b61080f600480360381019061080a9190614d8b565b614607565b60405161081c9190615488565b60405180910390f35b606081600054811061086c576040517f08c379a0000000000000000000000000000000000000000000000000000000008152600401610863906153c8565b60405180910390fd5b60026000848152602001908152602001600020600101805461088d906157c8565b80601f01602080910402602001604051908101604052809291908181526020018280546108b9906157c8565b80156109065780601f106108db57610100808354040283529160200191610906565b820191906000526020600020905b8154815290600101906020018083116108e957829003601f168201915b5050505050915050919050565b6000806000905060005b6000548110156109e4578373ffffffffffffffffffffffffffffffffffffffff166002600083815260200190815260200160002060080160009054906101000a900473ffffffffffffffffffffffffffffffffffffffff1673ffffffffffffffffffffffffffffffffffffffff1614156109d157600015156002600083815260200190815260200160002060080160159054906101000a900460ff16151514156109d05781806109cc9061582b565b9250505b5b80806109dc9061582b565b91505061091d565b5080915050919050565b813373ffffffffffffffffffffffffffffffffffffffff166002600083815260200190815260200160002060080160009054906101000a900473ffffffffffffffffffffffffffffffffffffffff1673ffffffffffffffffffffffffffffffffffffffff1614610a93576040517f08c379a0000000000000000000000000000000000000000000000000000000008152600401610a8a90615468565b60405180910390fd5b826000548110610ad8576040517f08c379a0000000000000000000000000000000000000000000000000000000008152600401610acf906153c8565b60405180910390fd5b83600115156002600083815260200190815260200160002060080160149054906101000a900460ff16151514610b43576040517f08c379a0000000000000000000000000000000000000000000000000000000008152600401610b3a906153e8565b60405180910390fd5b83600260008781526020019081526020016000206004019080519060200190610b6d9291906149fe565b507ff9e0cfc2139c5407b5c0da663755cc093ddf08c0cd22ef287cd88995442277098585604051610b9f9291906154ee565b60405180910390a15050505050565b803373ffffffffffffffffffffffffffffffffffffffff166002600083815260200190815260200160002060080160009054906101000a900473ffffffffffffffffffffffffffffffffffffffff1673ffffffffffffffffffffffffffffffffffffffff1614610c53576040517f08c379a0000000000000000000000000000000000000000000000000000000008152600401610c4a90615468565b60405180910390fd5b816000548110610c98576040517f08c379a0000000000000000000000000000000000000000000000000000000008152600401610c8f906153c8565b60405180910390fd5b82600115156002600083815260200190815260200160002060080160149054906101000a900460ff16151514610d03576040517f08c379a0000000000000000000000000000000000000000000000000000000008152600401610cfa906153e8565b60405180910390fd5b6002600085815260200190815260200160002060008082016000610d279190614a84565b600182016000610d379190614a84565b600282016000610d479190614a84565b6003820160006101000a81549060ff0219169055600482016000610d6b9190614a84565b6005820160009055600682016000905560078201600090556008820160006101000a81549073ffffffffffffffffffffffffffffffffffffffff02191690556008820160146101000a81549060ff02191690556008820160156101000a81549060ff0219169055600982016000905550507f4adbec0d66623051c877058902b8ce13a83d19905b8ec8479e56282799601a7684604051610e0b91906154aa565b60405180910390a150505050565b60016000815480929190610e2c9061579e565b9190505550565b6000816000548110610e7a576040517f08c379a0000000000000000000000000000000000000000000000000000000008152600401610e71906153c8565b60405180910390fd5b6002600084815260200190815260200160002060080160149054906101000a900460ff16915050919050565b60016000815480929190610eb99061582b565b9190505550565b6060816000548110610f07576040517f08c379a0000000000000000000000000000000000000000000000000000000008152600401610efe906153c8565b60405180910390fd5b600260008481526020019081526020016000206004018054610f28906157c8565b80601f0160208091040260200160405190810160405280929190818152602001828054610f54906157c8565b8015610fa15780601f10610f7657610100808354040283529160200191610fa1565b820191906000526020600020905b815481529060010190602001808311610f8457829003601f168201915b5050505050915050919050565b816000548110610ff3576040517f08c379a0000000000000000000000000000000000000000000000000000000008152600401610fea906153c8565b60405180910390fd5b816002600085815260200190815260200160002060080160156101000a81548160ff021916908315150217905550505050565b813373ffffffffffffffffffffffffffffffffffffffff166002600083815260200190815260200160002060080160009054906101000a900473ffffffffffffffffffffffffffffffffffffffff1673ffffffffffffffffffffffffffffffffffffffff16146110cb576040517f08c379a00000000000000000000000000000000000000000000000000000000081526004016110c290615468565b60405180910390fd5b826000548110611110576040517f08c379a0000000000000000000000000000000000000000000000000000000008152600401611107906153c8565b60405180910390fd5b83600115156002600083815260200190815260200160002060080160149054906101000a900460ff1615151461117b576040517f08c379a0000000000000000000000000000000000000000000000000000000008152600401611172906153e8565b60405180910390fd5b836002600087815260200190815260200160002060000190805190602001906111a59291906149fe565b507f2f785e77b95a4a5b3cae7abe711f551fae6dd194d3e0afee52aa099035c1728185856040516111d79291906154ee565b60405180910390a15050505050565b600081600054811061122d576040517f08c379a0000000000000000000000000000000000000000000000000000000008152600401611224906153c8565b60405180910390fd5b6002600084815260200190815260200160002060080160009054906101000a900473ffffffffffffffffffffffffffffffffffffffff16915050919050565b8160005481106112b1576040517f08c379a00000000000000000000000000000000000000000000000000000000081526004016112a8906153c8565b60405180910390fd5b816002600085815260200190815260200160002060090181905550505050565b606060006112de83612a3b565b67ffffffffffffffff81111561131d577f4e487b7100000000000000000000000000000000000000000000000000000000600052604160045260246000fd5b60405190808252806020026020018201604052801561135657816020015b611343614ac4565b81526020019060019003908161133b5790505b5090506000805b6000548110156117d9578473ffffffffffffffffffffffffffffffffffffffff166002600083815260200190815260200160002060080160009054906101000a900473ffffffffffffffffffffffffffffffffffffffff1673ffffffffffffffffffffffffffffffffffffffff1614156117c6576002600082815260200190815260200160002060405180610180016040529081600082018054611400906157c8565b80601f016020809104026020016040519081016040528092919081815260200182805461142c906157c8565b80156114795780601f1061144e57610100808354040283529160200191611479565b820191906000526020600020905b81548152906001019060200180831161145c57829003601f168201915b50505050508152602001600182018054611492906157c8565b80601f01602080910402602001604051908101604052809291908181526020018280546114be906157c8565b801561150b5780601f106114e05761010080835404028352916020019161150b565b820191906000526020600020905b8154815290600101906020018083116114ee57829003601f168201915b50505050508152602001600282018054611524906157c8565b80601f0160208091040260200160405190810160405280929190818152602001828054611550906157c8565b801561159d5780601f106115725761010080835404028352916020019161159d565b820191906000526020600020905b81548152906001019060200180831161158057829003601f168201915b505050505081526020016003820160009054906101000a900460ff1660038111156115f1577f4e487b7100000000000000000000000000000000000000000000000000000000600052602160045260246000fd5b6003811115611629577f4e487b7100000000000000000000000000000000000000000000000000000000600052602160045260246000fd5b815260200160048201805461163d906157c8565b80601f0160208091040260200160405190810160405280929190818152602001828054611669906157c8565b80156116b65780601f1061168b576101008083540402835291602001916116b6565b820191906000526020600020905b81548152906001019060200180831161169957829003601f168201915b505050505081526020016005820154815260200160068201548152602001600782015481526020016008820160009054906101000a900473ffffffffffffffffffffffffffffffffffffffff1673ffffffffffffffffffffffffffffffffffffffff1673ffffffffffffffffffffffffffffffffffffffff1681526020016008820160149054906101000a900460ff161515151581526020016008820160159054906101000a900460ff161515151581526020016009820154815250508383815181106117ac577f4e487b7100000000000000000000000000000000000000000000000000000000600052603260045260246000fd5b602002602001018190525081806117c29061582b565b9250505b80806117d19061582b565b91505061135d565b508192505050919050565b813373ffffffffffffffffffffffffffffffffffffffff166002600083815260200190815260200160002060080160009054906101000a900473ffffffffffffffffffffffffffffffffffffffff1673ffffffffffffffffffffffffffffffffffffffff1614611889576040517f08c379a000000000000000000000000000000000000000000000000000000000815260040161188090615468565b60405180910390fd5b8260005481106118ce576040517f08c379a00000000000000000000000000000000000000000000000000000000081526004016118c5906153c8565b60405180910390fd5b8260008111611912576040517f08c379a000000000000000000000000000000000000000000000000000000000815260040161190990615448565b60405180910390fd5b84600115156002600083815260200190815260200160002060080160149054906101000a900460ff1615151461197d576040517f08c379a0000000000000000000000000000000000000000000000000000000008152600401611974906153e8565b60405180910390fd5b8460026000888152602001908152602001600020600501819055507fd18a5a33f02c71e4837afac7f0824400276d50280aee3ee7d8802309c305c35386866040516119c99291906155d6565b60405180910390a1505050505050565b6000816000548110611a20576040517f08c379a0000000000000000000000000000000000000000000000000000000008152600401611a17906153c8565b60405180910390fd5b6002600084815260200190815260200160002060030160009054906101000a900460ff16915050919050565b6000816000548110611a93576040517f08c379a0000000000000000000000000000000000000000000000000000000008152600401611a8a906153c8565b60405180910390fd5b6002600084815260200190815260200160002060050154915050919050565b6060816000548110611af9576040517f08c379a0000000000000000000000000000000000000000000000000000000008152600401611af0906153c8565b60405180910390fd5b600260008481526020019081526020016000206000018054611b1a906157c8565b80601f0160208091040260200160405190810160405280929190818152602001828054611b46906157c8565b8015611b935780601f10611b6857610100808354040283529160200191611b93565b820191906000526020600020905b815481529060010190602001808311611b7657829003601f168201915b5050505050915050919050565b6000816000548110611be7576040517f08c379a0000000000000000000000000000000000000000000000000000000008152600401611bde906153c8565b60405180910390fd5b6002600084815260200190815260200160002060090154915050919050565b6000806000905060005b600054811015611cd7578373ffffffffffffffffffffffffffffffffffffffff166002600083815260200190815260200160002060080160009054906101000a900473ffffffffffffffffffffffffffffffffffffffff1673ffffffffffffffffffffffffffffffffffffffff161415611cc457600115156002600083815260200190815260200160002060080160159054906101000a900460ff1615151415611cc3578180611cbf9061582b565b9250505b5b8080611ccf9061582b565b915050611c10565b5080915050919050565b813373ffffffffffffffffffffffffffffffffffffffff166002600083815260200190815260200160002060080160009054906101000a900473ffffffffffffffffffffffffffffffffffffffff1673ffffffffffffffffffffffffffffffffffffffff1614611d86576040517f08c379a0000000000000000000000000000000000000000000000000000000008152600401611d7d90615468565b60405180910390fd5b826000548110611dcb576040517f08c379a0000000000000000000000000000000000000000000000000000000008152600401611dc2906153c8565b60405180910390fd5b83600115156002600083815260200190815260200160002060080160149054906101000a900460ff16151514611e36576040517f08c379a0000000000000000000000000000000000000000000000000000000008152600401611e2d906153e8565b60405180910390fd5b836002600087815260200190815260200160002060030160006101000a81548160ff02191690836003811115611e95577f4e487b7100000000000000000000000000000000000000000000000000000000600052602160045260246000fd5b02179055507f3208ad7d5d89490dfec0ba2e46d58fec5086ddbb91bdc76518a9ccc251c6b37d8585604051611ecb9291906154c5565b60405180910390a15050505050565b60606000611ee783610913565b67ffffffffffffffff811115611f26577f4e487b7100000000000000000000000000000000000000000000000000000000600052604160045260246000fd5b604051908082528060200260200182016040528015611f5f57816020015b611f4c614ac4565b815260200190600190039081611f445790505b5090506000805b600054811015612413578473ffffffffffffffffffffffffffffffffffffffff166002600083815260200190815260200160002060080160009054906101000a900473ffffffffffffffffffffffffffffffffffffffff1673ffffffffffffffffffffffffffffffffffffffff16141561240057600015156002600083815260200190815260200160002060080160159054906101000a900460ff16151514156123ff576002600082815260200190815260200160002060405180610180016040529081600082018054612039906157c8565b80601f0160208091040260200160405190810160405280929190818152602001828054612065906157c8565b80156120b25780601f10612087576101008083540402835291602001916120b2565b820191906000526020600020905b81548152906001019060200180831161209557829003601f168201915b505050505081526020016001820180546120cb906157c8565b80601f01602080910402602001604051908101604052809291908181526020018280546120f7906157c8565b80156121445780601f1061211957610100808354040283529160200191612144565b820191906000526020600020905b81548152906001019060200180831161212757829003601f168201915b5050505050815260200160028201805461215d906157c8565b80601f0160208091040260200160405190810160405280929190818152602001828054612189906157c8565b80156121d65780601f106121ab576101008083540402835291602001916121d6565b820191906000526020600020905b8154815290600101906020018083116121b957829003601f168201915b505050505081526020016003820160009054906101000a900460ff16600381111561222a577f4e487b7100000000000000000000000000000000000000000000000000000000600052602160045260246000fd5b6003811115612262577f4e487b7100000000000000000000000000000000000000000000000000000000600052602160045260246000fd5b8152602001600482018054612276906157c8565b80601f01602080910402602001604051908101604052809291908181526020018280546122a2906157c8565b80156122ef5780601f106122c4576101008083540402835291602001916122ef565b820191906000526020600020905b8154815290600101906020018083116122d257829003601f168201915b505050505081526020016005820154815260200160068201548152602001600782015481526020016008820160009054906101000a900473ffffffffffffffffffffffffffffffffffffffff1673ffffffffffffffffffffffffffffffffffffffff1673ffffffffffffffffffffffffffffffffffffffff1681526020016008820160149054906101000a900460ff161515151581526020016008820160159054906101000a900460ff161515151581526020016009820154815250508383815181106123e5577f4e487b7100000000000000000000000000000000000000000000000000000000600052603260045260246000fd5b602002602001018190525081806123fb9061582b565b9250505b5b808061240b9061582b565b915050611f66565b508192505050919050565b813373ffffffffffffffffffffffffffffffffffffffff166002600083815260200190815260200160002060080160009054906101000a900473ffffffffffffffffffffffffffffffffffffffff1673ffffffffffffffffffffffffffffffffffffffff16146124c3576040517f08c379a00000000000000000000000000000000000000000000000000000000081526004016124ba90615468565b60405180910390fd5b826000548110612508576040517f08c379a00000000000000000000000000000000000000000000000000000000081526004016124ff906153c8565b60405180910390fd5b826000811161254c576040517f08c379a000000000000000000000000000000000000000000000000000000000815260040161254390615408565b60405180910390fd5b84600115156002600083815260200190815260200160002060080160149054906101000a900460ff161515146125b7576040517f08c379a00000000000000000000000000000000000000000000000000000000081526004016125ae906153e8565b60405180910390fd5b8460026000888152602001908152602001600020600601819055507ff2fc46abca9db71cc72135e2de0769502341c219aca35c83b8afbd7a6e74582386866040516126039291906155d6565b60405180910390a1505050505050565b813373ffffffffffffffffffffffffffffffffffffffff166002600083815260200190815260200160002060080160009054906101000a900473ffffffffffffffffffffffffffffffffffffffff1673ffffffffffffffffffffffffffffffffffffffff16146126b8576040517f08c379a00000000000000000000000000000000000000000000000000000000081526004016126af90615468565b60405180910390fd5b8260005481106126fd576040517f08c379a00000000000000000000000000000000000000000000000000000000081526004016126f4906153c8565b60405180910390fd5b83600115156002600083815260200190815260200160002060080160149054906101000a900460ff16151514612768576040517f08c379a000000000000000000000000000000000000000000000000000000000815260040161275f906153e8565b60405180910390fd5b836002600087815260200190815260200160002060020190805190602001906127929291906149fe565b507fd2fc88a3528790fea162e71e7975873743096ba0c20dfddbe0ac6c306786ed7b85856040516127c49291906154ee565b60405180910390a15050505050565b600081600054811061281a576040517f08c379a0000000000000000000000000000000000000000000000000000000008152600401612811906153c8565b60405180910390fd5b6002600084815260200190815260200160002060080160159054906101000a900460ff16915050919050565b813373ffffffffffffffffffffffffffffffffffffffff166002600083815260200190815260200160002060080160009054906101000a900473ffffffffffffffffffffffffffffffffffffffff1673ffffffffffffffffffffffffffffffffffffffff16146128eb576040517f08c379a00000000000000000000000000000000000000000000000000000000081526004016128e290615468565b60405180910390fd5b826000548110612930576040517f08c379a0000000000000000000000000000000000000000000000000000000008152600401612927906153c8565b60405180910390fd5b8260008111612974576040517f08c379a000000000000000000000000000000000000000000000000000000000815260040161296b90615428565b60405180910390fd5b84600115156002600083815260200190815260200160002060080160149054906101000a900460ff161515146129df576040517f08c379a00000000000000000000000000000000000000000000000000000000081526004016129d6906153e8565b60405180910390fd5b8460026000888152602001908152602001600020600701819055507f36745ecb9be3cc90b3dbaa3d40e04b5b8d12074c2eb18b665ec59769689683738686604051612a2b9291906155d6565b60405180910390a1505050505050565b6000806000905060005b600054811015612adb578373ffffffffffffffffffffffffffffffffffffffff166002600083815260200190815260200160002060080160009054906101000a900473ffffffffffffffffffffffffffffffffffffffff1673ffffffffffffffffffffffffffffffffffffffff161415612ac8578180612ac49061582b565b9250505b8080612ad39061582b565b915050612a45565b5080915050919050565b6060600060015467ffffffffffffffff811115612b2b577f4e487b7100000000000000000000000000000000000000000000000000000000600052604160045260246000fd5b604051908082528060200260200182016040528015612b6457816020015b612b51614ac4565b815260200190600190039081612b495790505b5090506000805b600054811015612fad57600115156002600083815260200190815260200160002060080160159054906101000a900460ff1615151415612f9a576002600082815260200190815260200160002060405180610180016040529081600082018054612bd4906157c8565b80601f0160208091040260200160405190810160405280929190818152602001828054612c00906157c8565b8015612c4d5780601f10612c2257610100808354040283529160200191612c4d565b820191906000526020600020905b815481529060010190602001808311612c3057829003601f168201915b50505050508152602001600182018054612c66906157c8565b80601f0160208091040260200160405190810160405280929190818152602001828054612c92906157c8565b8015612cdf5780601f10612cb457610100808354040283529160200191612cdf565b820191906000526020600020905b815481529060010190602001808311612cc257829003601f168201915b50505050508152602001600282018054612cf8906157c8565b80601f0160208091040260200160405190810160405280929190818152602001828054612d24906157c8565b8015612d715780601f10612d4657610100808354040283529160200191612d71565b820191906000526020600020905b815481529060010190602001808311612d5457829003601f168201915b505050505081526020016003820160009054906101000a900460ff166003811115612dc5577f4e487b7100000000000000000000000000000000000000000000000000000000600052602160045260246000fd5b6003811115612dfd577f4e487b7100000000000000000000000000000000000000000000000000000000600052602160045260246000fd5b8152602001600482018054612e11906157c8565b80601f0160208091040260200160405190810160405280929190818152602001828054612e3d906157c8565b8015612e8a5780601f10612e5f57610100808354040283529160200191612e8a565b820191906000526020600020905b815481529060010190602001808311612e6d57829003601f168201915b505050505081526020016005820154815260200160068201548152602001600782015481526020016008820160009054906101000a900473ffffffffffffffffffffffffffffffffffffffff1673ffffffffffffffffffffffffffffffffffffffff1673ffffffffffffffffffffffffffffffffffffffff1681526020016008820160149054906101000a900460ff161515151581526020016008820160159054906101000a900460ff16151515158152602001600982015481525050838381518110612f80577f4e487b7100000000000000000000000000000000000000000000000000000000600052603260045260246000fd5b60200260200101819052508180612f969061582b565b9250505b8080612fa59061582b565b915050612b6b565b50819250505090565b60606000805467ffffffffffffffff811115612ffb577f4e487b7100000000000000000000000000000000000000000000000000000000600052604160045260246000fd5b60405190808252806020026020018201604052801561303457816020015b613021614ac4565b8152602001906001900390816130195790505b50905060005b60005481101561343d576002600082815260200190815260200160002060405180610180016040529081600082018054613073906157c8565b80601f016020809104026020016040519081016040528092919081815260200182805461309f906157c8565b80156130ec5780601f106130c1576101008083540402835291602001916130ec565b820191906000526020600020905b8154815290600101906020018083116130cf57829003601f168201915b50505050508152602001600182018054613105906157c8565b80601f0160208091040260200160405190810160405280929190818152602001828054613131906157c8565b801561317e5780601f106131535761010080835404028352916020019161317e565b820191906000526020600020905b81548152906001019060200180831161316157829003601f168201915b50505050508152602001600282018054613197906157c8565b80601f01602080910402602001604051908101604052809291908181526020018280546131c3906157c8565b80156132105780601f106131e557610100808354040283529160200191613210565b820191906000526020600020905b8154815290600101906020018083116131f357829003601f168201915b505050505081526020016003820160009054906101000a900460ff166003811115613264577f4e487b7100000000000000000000000000000000000000000000000000000000600052602160045260246000fd5b600381111561329c577f4e487b7100000000000000000000000000000000000000000000000000000000600052602160045260246000fd5b81526020016004820180546132b0906157c8565b80601f01602080910402602001604051908101604052809291908181526020018280546132dc906157c8565b80156133295780601f106132fe57610100808354040283529160200191613329565b820191906000526020600020905b81548152906001019060200180831161330c57829003601f168201915b505050505081526020016005820154815260200160068201548152602001600782015481526020016008820160009054906101000a900473ffffffffffffffffffffffffffffffffffffffff1673ffffffffffffffffffffffffffffffffffffffff1673ffffffffffffffffffffffffffffffffffffffff1681526020016008820160149054906101000a900460ff161515151581526020016008820160159054906101000a900460ff1615151515815260200160098201548152505082828151811061341f577f4e487b7100000000000000000000000000000000000000000000000000000000600052603260045260246000fd5b602002602001018190525080806134359061582b565b91505061303a565b508091505090565b600081600054811061348c576040517f08c379a0000000000000000000000000000000000000000000000000000000008152600401613483906153c8565b60405180910390fd5b6002600084815260200190815260200160002060070154915050919050565b60608160005481106134f2576040517f08c379a00000000000000000000000000000000000000000000000000000000081526004016134e9906153c8565b60405180910390fd5b600260008481526020019081526020016000206002018054613513906157c8565b80601f016020809104026020016040519081016040528092919081815260200182805461353f906157c8565b801561358c5780601f106135615761010080835404028352916020019161358c565b820191906000526020600020905b81548152906001019060200180831161356f57829003601f168201915b5050505050915050919050565b60006001546000546135ab91906156bb565b905090565b606060006001546000546135c491906156bb565b67ffffffffffffffff811115613603577f4e487b7100000000000000000000000000000000000000000000000000000000600052604160045260246000fd5b60405190808252806020026020018201604052801561363c57816020015b613629614ac4565b8152602001906001900390816136215790505b5090506000805b600054811015613a8557600015156002600083815260200190815260200160002060080160159054906101000a900460ff1615151415613a725760026000828152602001908152602001600020604051806101800160405290816000820180546136ac906157c8565b80601f01602080910402602001604051908101604052809291908181526020018280546136d8906157c8565b80156137255780601f106136fa57610100808354040283529160200191613725565b820191906000526020600020905b81548152906001019060200180831161370857829003601f168201915b5050505050815260200160018201805461373e906157c8565b80601f016020809104026020016040519081016040528092919081815260200182805461376a906157c8565b80156137b75780601f1061378c576101008083540402835291602001916137b7565b820191906000526020600020905b81548152906001019060200180831161379a57829003601f168201915b505050505081526020016002820180546137d0906157c8565b80601f01602080910402602001604051908101604052809291908181526020018280546137fc906157c8565b80156138495780601f1061381e57610100808354040283529160200191613849565b820191906000526020600020905b81548152906001019060200180831161382c57829003601f168201915b505050505081526020016003820160009054906101000a900460ff16600381111561389d577f4e487b7100000000000000000000000000000000000000000000000000000000600052602160045260246000fd5b60038111156138d5577f4e487b7100000000000000000000000000000000000000000000000000000000600052602160045260246000fd5b81526020016004820180546138e9906157c8565b80601f0160208091040260200160405190810160405280929190818152602001828054613915906157c8565b80156139625780601f1061393757610100808354040283529160200191613962565b820191906000526020600020905b81548152906001019060200180831161394557829003601f168201915b505050505081526020016005820154815260200160068201548152602001600782015481526020016008820160009054906101000a900473ffffffffffffffffffffffffffffffffffffffff1673ffffffffffffffffffffffffffffffffffffffff1673ffffffffffffffffffffffffffffffffffffffff1681526020016008820160149054906101000a900460ff161515151581526020016008820160159054906101000a900460ff16151515158152602001600982015481525050838381518110613a58577f4e487b7100000000000000000000000000000000000000000000000000000000600052603260045260246000fd5b60200260200101819052508180613a6e9061582b565b9250505b8080613a7d9061582b565b915050613643565b50819250505090565b6000600154905090565b60606000613aa583611c06565b67ffffffffffffffff811115613ae4577f4e487b7100000000000000000000000000000000000000000000000000000000600052604160045260246000fd5b604051908082528060200260200182016040528015613b1d57816020015b613b0a614ac4565b815260200190600190039081613b025790505b5090506000805b600054811015613fd1578473ffffffffffffffffffffffffffffffffffffffff166002600083815260200190815260200160002060080160009054906101000a900473ffffffffffffffffffffffffffffffffffffffff1673ffffffffffffffffffffffffffffffffffffffff161415613fbe57600115156002600083815260200190815260200160002060080160159054906101000a900460ff1615151415613fbd576002600082815260200190815260200160002060405180610180016040529081600082018054613bf7906157c8565b80601f0160208091040260200160405190810160405280929190818152602001828054613c23906157c8565b8015613c705780601f10613c4557610100808354040283529160200191613c70565b820191906000526020600020905b815481529060010190602001808311613c5357829003601f168201915b50505050508152602001600182018054613c89906157c8565b80601f0160208091040260200160405190810160405280929190818152602001828054613cb5906157c8565b8015613d025780601f10613cd757610100808354040283529160200191613d02565b820191906000526020600020905b815481529060010190602001808311613ce557829003601f168201915b50505050508152602001600282018054613d1b906157c8565b80601f0160208091040260200160405190810160405280929190818152602001828054613d47906157c8565b8015613d945780601f10613d6957610100808354040283529160200191613d94565b820191906000526020600020905b815481529060010190602001808311613d7757829003601f168201915b505050505081526020016003820160009054906101000a900460ff166003811115613de8577f4e487b7100000000000000000000000000000000000000000000000000000000600052602160045260246000fd5b6003811115613e20577f4e487b7100000000000000000000000000000000000000000000000000000000600052602160045260246000fd5b8152602001600482018054613e34906157c8565b80601f0160208091040260200160405190810160405280929190818152602001828054613e60906157c8565b8015613ead5780601f10613e8257610100808354040283529160200191613ead565b820191906000526020600020905b815481529060010190602001808311613e9057829003601f168201915b505050505081526020016005820154815260200160068201548152602001600782015481526020016008820160009054906101000a900473ffffffffffffffffffffffffffffffffffffffff1673ffffffffffffffffffffffffffffffffffffffff1673ffffffffffffffffffffffffffffffffffffffff1681526020016008820160149054906101000a900460ff161515151581526020016008820160159054906101000a900460ff16151515158152602001600982015481525050838381518110613fa3577f4e487b7100000000000000000000000000000000000000000000000000000000600052603260045260246000fd5b60200260200101819052508180613fb99061582b565b9250505b5b8080613fc99061582b565b915050613b24565b508192505050919050565b60008360008111614022576040517f08c379a000000000000000000000000000000000000000000000000000000000815260040161401990615448565b60405180910390fd5b8360008111614066576040517f08c379a000000000000000000000000000000000000000000000000000000000815260040161405d90615408565b60405180910390fd5b83600081116140aa576040517f08c379a00000000000000000000000000000000000000000000000000000000081526004016140a190615428565b60405180910390fd5b60006040518061018001604052808e81526020018d81526020018c81526020018b6003811115614103577f4e487b7100000000000000000000000000000000000000000000000000000000600052602160045260246000fd5b81526020018a81526020018981526020018881526020018781526020013373ffffffffffffffffffffffffffffffffffffffff1681526020016001151581526020016000151581526020016000815250905060008060008154809291906141699061582b565b9190505590508160026000838152602001908152602001600020600082015181600001908051906020019061419f9291906149fe565b5060208201518160010190805190602001906141bc9291906149fe565b5060408201518160020190805190602001906141d99291906149fe565b5060608201518160030160006101000a81548160ff0219169083600381111561422b577f4e487b7100000000000000000000000000000000000000000000000000000000600052602160045260246000fd5b0217905550608082015181600401908051906020019061424c9291906149fe565b5060a0820151816005015560c0820151816006015560e082015181600701556101008201518160080160006101000a81548173ffffffffffffffffffffffffffffffffffffffff021916908373ffffffffffffffffffffffffffffffffffffffff1602179055506101208201518160080160146101000a81548160ff0219169083151502179055506101408201518160080160156101000a81548160ff02191690831515021790555061016082015181600901559050507f01549b786648358a92bbacdcb9ab6e96667fc47a8226a4cef1b8e187adad3b9d818f8f8f8f8f8f8f8f336040516143449a9998979695949392919061551e565b60405180910390a1809550505050505098975050505050505050565b8160005481106143a5576040517f08c379a000000000000000000000000000000000000000000000000000000000815260040161439c906153c8565b60405180910390fd5b816002600085815260200190815260200160002060080160146101000a81548160ff021916908315150217905550505050565b813373ffffffffffffffffffffffffffffffffffffffff166002600083815260200190815260200160002060080160009054906101000a900473ffffffffffffffffffffffffffffffffffffffff1673ffffffffffffffffffffffffffffffffffffffff161461447d576040517f08c379a000000000000000000000000000000000000000000000000000000000815260040161447490615468565b60405180910390fd5b8260005481106144c2576040517f08c379a00000000000000000000000000000000000000000000000000000000081526004016144b9906153c8565b60405180910390fd5b83600115156002600083815260200190815260200160002060080160149054906101000a900460ff1615151461452d576040517f08c379a0000000000000000000000000000000000000000000000000000000008152600401614524906153e8565b60405180910390fd5b836002600087815260200190815260200160002060010190805190602001906145579291906149fe565b507fc92be2d1aa69266735ff482064bb1aca2d648d2d9d65c293ccd1f534d274736d85856040516145899291906154ee565b60405180910390a15050505050565b60008054905090565b60008160005481106145e8576040517f08c379a00000000000000000000000000000000000000000000000000000000081526004016145df906153c8565b60405180910390fd5b6002600084815260200190815260200160002060060154915050919050565b61460f614ac4565b816000548110614654576040517f08c379a000000000000000000000000000000000000000000000000000000000815260040161464b906153c8565b60405180910390fd5b6002600084815260200190815260200160002060405180610180016040529081600082018054614683906157c8565b80601f01602080910402602001604051908101604052809291908181526020018280546146af906157c8565b80156146fc5780601f106146d1576101008083540402835291602001916146fc565b820191906000526020600020905b8154815290600101906020018083116146df57829003601f168201915b50505050508152602001600182018054614715906157c8565b80601f0160208091040260200160405190810160405280929190818152602001828054614741906157c8565b801561478e5780601f106147635761010080835404028352916020019161478e565b820191906000526020600020905b81548152906001019060200180831161477157829003601f168201915b505050505081526020016002820180546147a7906157c8565b80601f01602080910402602001604051908101604052809291908181526020018280546147d3906157c8565b80156148205780601f106147f557610100808354040283529160200191614820565b820191906000526020600020905b81548152906001019060200180831161480357829003601f168201915b505050505081526020016003820160009054906101000a900460ff166003811115614874577f4e487b7100000000000000000000000000000000000000000000000000000000600052602160045260246000fd5b60038111156148ac577f4e487b7100000000000000000000000000000000000000000000000000000000600052602160045260246000fd5b81526020016004820180546148c0906157c8565b80601f01602080910402602001604051908101604052809291908181526020018280546148ec906157c8565b80156149395780601f1061490e57610100808354040283529160200191614939565b820191906000526020600020905b81548152906001019060200180831161491c57829003601f168201915b505050505081526020016005820154815260200160068201548152602001600782015481526020016008820160009054906101000a900473ffffffffffffffffffffffffffffffffffffffff1673ffffffffffffffffffffffffffffffffffffffff1673ffffffffffffffffffffffffffffffffffffffff1681526020016008820160149054906101000a900460ff161515151581526020016008820160159054906101000a900460ff16151515158152602001600982015481525050915050919050565b828054614a0a906157c8565b90600052602060002090601f016020900481019282614a2c5760008555614a73565b82601f10614a4557805160ff1916838001178555614a73565b82800160010185558215614a73579182015b82811115614a72578251825591602001919060010190614a57565b5b509050614a809190614b77565b5090565b508054614a90906157c8565b6000825580601f10614aa25750614ac1565b601f016020900490600052602060002090810190614ac09190614b77565b5b50565b60405180610180016040528060608152602001606081526020016060815260200160006003811115614b1f577f4e487b7100000000000000000000000000000000000000000000000000000000600052602160045260246000fd5b815260200160608152602001600081526020016000815260200160008152602001600073ffffffffffffffffffffffffffffffffffffffff168152602001600015158152602001600015158152602001600081525090565b5b80821115614b90576000816000905550600101614b78565b5090565b6000614ba7614ba284615624565b6155ff565b905082815260208101848484011115614bbf57600080fd5b614bca84828561575c565b509392505050565b600081359050614be181615b09565b92915050565b600081359050614bf681615b20565b92915050565b600081359050614c0b81615b37565b92915050565b600082601f830112614c2257600080fd5b8135614c32848260208601614b94565b91505092915050565b600081359050614c4a81615b47565b92915050565b600060208284031215614c6257600080fd5b6000614c7084828501614bd2565b91505092915050565b600080600080600080600080610100898b031215614c9657600080fd5b600089013567ffffffffffffffff811115614cb057600080fd5b614cbc8b828c01614c11565b985050602089013567ffffffffffffffff811115614cd957600080fd5b614ce58b828c01614c11565b975050604089013567ffffffffffffffff811115614d0257600080fd5b614d0e8b828c01614c11565b9650506060614d1f8b828c01614bfc565b955050608089013567ffffffffffffffff811115614d3c57600080fd5b614d488b828c01614c11565b94505060a0614d598b828c01614c3b565b93505060c0614d6a8b828c01614c3b565b92505060e0614d7b8b828c01614c3b565b9150509295985092959890939650565b600060208284031215614d9d57600080fd5b6000614dab84828501614c3b565b91505092915050565b60008060408385031215614dc757600080fd5b6000614dd585828601614c3b565b9250506020614de685828601614be7565b9150509250929050565b60008060408385031215614e0357600080fd5b6000614e1185828601614c3b565b9250506020614e2285828601614bfc565b9150509250929050565b60008060408385031215614e3f57600080fd5b6000614e4d85828601614c3b565b925050602083013567ffffffffffffffff811115614e6a57600080fd5b614e7685828601614c11565b9150509250929050565b60008060408385031215614e9357600080fd5b6000614ea185828601614c3b565b9250506020614eb285828601614c3b565b9150509250929050565b6000614ec883836150e3565b905092915050565b614ed9816156ef565b82525050565b614ee8816156ef565b82525050565b6000614ef982615665565b614f038185615688565b935083602082028501614f1585615655565b8060005b85811015614f515784840389528151614f328582614ebc565b9450614f3d8361567b565b925060208a01995050600181019050614f19565b50829750879550505050505092915050565b614f6c81615701565b82525050565b614f7b81615701565b82525050565b614f8a8161574a565b82525050565b614f998161574a565b82525050565b6000614faa82615670565b614fb48185615699565b9350614fc481856020860161576b565b614fcd81615930565b840191505092915050565b6000614fe382615670565b614fed81856156aa565b9350614ffd81856020860161576b565b61500681615930565b840191505092915050565b600061501e601a836156aa565b915061502982615941565b602082019050919050565b6000615041602c836156aa565b915061504c8261596a565b604082019050919050565b60006150646023836156aa565b915061506f826159b9565b604082019050919050565b60006150876025836156aa565b915061509282615a08565b604082019050919050565b60006150aa6028836156aa565b91506150b582615a57565b604082019050919050565b60006150cd6028836156aa565b91506150d882615aa6565b604082019050919050565b60006101808301600083015184820360008601526151018282614f9f565b9150506020830151848203602086015261511b8282614f9f565b915050604083015184820360408601526151358282614f9f565b915050606083015161514a6060860182614f81565b50608083015184820360808601526151628282614f9f565b91505060a083015161517760a0860182615315565b5060c083015161518a60c0860182615315565b5060e083015161519d60e0860182615315565b506101008301516151b2610100860182614ed0565b506101208301516151c7610120860182614f63565b506101408301516151dc610140860182614f63565b506101608301516151f1610160860182615315565b508091505092915050565b600061018083016000830151848203600086015261521a8282614f9f565b915050602083015184820360208601526152348282614f9f565b9150506040830151848203604086015261524e8282614f9f565b91505060608301516152636060860182614f81565b506080830151848203608086015261527b8282614f9f565b91505060a083015161529060a0860182615315565b5060c08301516152a360c0860182615315565b5060e08301516152b660e0860182615315565b506101008301516152cb610100860182614ed0565b506101208301516152e0610120860182614f63565b506101408301516152f5610140860182614f63565b5061016083015161530a610160860182615315565b508091505092915050565b61531e81615740565b82525050565b61532d81615740565b82525050565b60006020820190506153486000830184614edf565b92915050565b600060208201905081810360008301526153688184614eee565b905092915050565b60006020820190506153856000830184614f72565b92915050565b60006020820190506153a06000830184614f90565b92915050565b600060208201905081810360008301526153c08184614fd8565b905092915050565b600060208201905081810360008301526153e181615011565b9050919050565b6000602082019050818103600083015261540181615034565b9050919050565b6000602082019050818103600083015261542181615057565b9050919050565b600060208201905081810360008301526154418161507a565b9050919050565b600060208201905081810360008301526154618161509d565b9050919050565b60006020820190508181036000830152615481816150c0565b9050919050565b600060208201905081810360008301526154a281846151fc565b905092915050565b60006020820190506154bf6000830184615324565b92915050565b60006040820190506154da6000830185615324565b6154e76020830184614f90565b9392505050565b60006040820190506155036000830185615324565b81810360208301526155158184614fd8565b90509392505050565b600061014082019050615534600083018d615324565b8181036020830152615546818c614fd8565b9050818103604083015261555a818b614fd8565b9050818103606083015261556e818a614fd8565b905061557d6080830189614f90565b81810360a083015261558f8188614fd8565b905061559e60c0830187615324565b6155ab60e0830186615324565b6155b9610100830185615324565b6155c7610120830184614edf565b9b9a5050505050505050505050565b60006040820190506155eb6000830185615324565b6155f86020830184615324565b9392505050565b600061560961561a565b905061561582826157fa565b919050565b6000604051905090565b600067ffffffffffffffff82111561563f5761563e615901565b5b61564882615930565b9050602081019050919050565b6000819050602082019050919050565b600081519050919050565b600081519050919050565b6000602082019050919050565b600082825260208201905092915050565b600082825260208201905092915050565b600082825260208201905092915050565b60006156c682615740565b91506156d183615740565b9250828210156156e4576156e3615874565b5b828203905092915050565b60006156fa82615720565b9050919050565b60008115159050919050565b600081905061571b82615af5565b919050565b600073ffffffffffffffffffffffffffffffffffffffff82169050919050565b6000819050919050565b60006157558261570d565b9050919050565b82818337600083830152505050565b60005b8381101561578957808201518184015260208101905061576e565b83811115615798576000848401525b50505050565b60006157a982615740565b915060008214156157bd576157bc615874565b5b600182039050919050565b600060028204905060018216806157e057607f821691505b602082108114156157f4576157f36158d2565b5b50919050565b61580382615930565b810181811067ffffffffffffffff8211171561582257615821615901565b5b80604052505050565b600061583682615740565b91507fffffffffffffffffffffffffffffffffffffffffffffffffffffffffffffffff82141561586957615868615874565b5b600182019050919050565b7f4e487b7100000000000000000000000000000000000000000000000000000000600052601160045260246000fd5b7f4e487b7100000000000000000000000000000000000000000000000000000000600052602160045260246000fd5b7f4e487b7100000000000000000000000000000000000000000000000000000000600052602260045260246000fd5b7f4e487b7100000000000000000000000000000000000000000000000000000000600052604160045260246000fd5b6000601f19601f8301169050919050565b7f496e76616c69642072656e74616c2070726f7065727479206964000000000000600082015250565b7f52656e74616c2050726f70657274792063616e6e6f742062652075706461746560008201527f64206f722064656c657465640000000000000000000000000000000000000000602082015250565b7f52656e74616c205072696365206d75737420626520677265617465722074686160008201527f6e20300000000000000000000000000000000000000000000000000000000000602082015250565b7f4c65617365204475726174696f6e206d7573742062652067726561746572207460008201527f68616e2030000000000000000000000000000000000000000000000000000000602082015250565b7f4e756d626572206f662074656e616e7473206d7573742062652067726561746560008201527f72207468616e2030000000000000000000000000000000000000000000000000602082015250565b7f4f6e6c7920746865206c616e646c6f72642063616e2063616c6c20746869732060008201527f66756e6374696f6e000000000000000000000000000000000000000000000000602082015250565b60048110615b0657615b056158a3565b5b50565b615b12816156ef565b8114615b1d57600080fd5b50565b615b2981615701565b8114615b3457600080fd5b50565b60048110615b4457600080fd5b50565b615b5081615740565b8114615b5b57600080fd5b5056fea26469706673582212203196be7dec71304133e9e093dd0e0573cabe027667df86d29c6c66469dfe789064736f6c63430008010033",
  "immutableReferences": {},
  "source": "// SPDX-License-Identifier: MIT\npragma solidity ^0.8.0;\n\ncontract RentalProperty {\n    // ################################################### STRUCTURE & STATE VARIABLES ################################################### //\n\n    enum PropertyType {\n        HDB, // Housing and Development Board\n        Condo, // Condominium\n        Landed, // Landed Property\n        Other // Other types of property\n    }\n\n    struct rentalProperty {\n        string location; // location of the property\n        string postalCode; // postal code of the property\n        string unitNumber; // unit number of the property\n        PropertyType propertyType; // type of property\n        string description; // description of the property\n        uint256 numOfTenants; // number of tenants in the property\n        uint256 rentalPrice; // rental price in LeaseToken\n        uint256 leaseDuration; // lease duration in months\n        address landlord; // address of the landlord owner\n        bool updateStatus; // status of the rental property (true if property can be updated/deleted, false if property cannot be updated/deleted)\n        bool isListed; // status of the rental property (true if property is listed, false if property is not listed)\n        uint256 paymentId; // Payment transaction id for protection fee (mainly used to keep track of protection fee for payment/refund)\n    }\n\n    uint256 private numRentalProperty = 0; // number of rental properties\n    uint256 private numListedRentalProperty = 0; // number of listed rental properties\n    mapping(uint256 => rentalProperty) private rentalProperties; // map of rental properties indexed by rentalPropertyId\n\n    // ################################################### EVENTS ################################################### //\n\n    event RentalPropertyCreated(\n        uint256 rentalPropertyId,\n        string location,\n        string postalCode,\n        string unitNumber,\n        PropertyType propertyType,\n        string description,\n        uint256 numOfTenants,\n        uint256 rentalPrice,\n        uint256 leaseDuration,\n        address landlord\n    );\n\n    event RentalPropertyUpdateLocation(\n        uint256 rentalPropertyId,\n        string newLocation\n    );\n\n    event RentalPropertyUpdatePostalCode(\n        uint256 rentalPropertyId,\n        string newPostalCode\n    );\n\n    event RentalPropertyUpdateUnitNumber(\n        uint256 rentalPropertyId,\n        string newUnitNumber\n    );\n\n    event RentalPropertyUpdatePropertyType(\n        uint256 rentalPropertyId,\n        PropertyType newPropertyType\n    );\n\n    event RentalPropertyUpdateDescription(\n        uint256 rentalPropertyId,\n        string newDescription\n    );\n\n    event RentalPropertyUpdateNumOfTenants(\n        uint256 rentalPropertyId,\n        uint256 newNumOfTenants\n    );\n\n    event RentalPropertyUpdateRentalPrice(\n        uint256 rentalPropertyId,\n        uint256 newRentalPrice\n    );\n\n    event RentalPropertyUpdateLeaseDuration(\n        uint256 rentalPropertyId,\n        uint256 newLeaseDuration\n    );\n\n    event RentalPropertyDeleted(uint256 rentalPropertyId);\n\n    // ################################################### MODIFIERS ################################################### //\n\n    //Modifier to ensure a function is callable only by its landlord owner\n    modifier landlordOnly(uint256 rentalPropertyId) {\n        require(\n            rentalProperties[rentalPropertyId].landlord == msg.sender,\n            \"Only the landlord can call this function\"\n        );\n        _;\n    }\n\n    //Modifier to ensure a function is accessible only if the rental property id is valid\n    modifier validRentalPropertyId(uint256 rentalPropertyId) {\n        require(\n            rentalPropertyId < numRentalProperty,\n            \"Invalid rental property id\"\n        );\n        _;\n    }\n\n    //Modifier to ensure the number of tenants is valid\n    modifier validNumOfTenants(uint256 numOfTenants) {\n        require(numOfTenants > 0, \"Number of tenants must be greater than 0\");\n        _;\n    }\n\n    //Modifier to ensure the rental price is valid\n    modifier validRentalPrice(uint256 rentalPrice) {\n        require(rentalPrice > 0, \"Rental Price must be greater than 0\");\n        _;\n    }\n\n    //Modifier to ensure the lease duration is valid\n    modifier validLeaseDuration(uint256 leaseDuration) {\n        require(leaseDuration > 0, \"Lease Duration must be greater than 0\");\n        _;\n    }\n\n    //Modifier to ensure the rental property can be updated or deleted\n    modifier validUpdateStatus(uint256 rentalPropertyId) {\n        require(\n            rentalProperties[rentalPropertyId].updateStatus == true,\n            \"Rental Property cannot be updated or deleted\"\n        );\n        _;\n    }\n\n    // ################################################### CREATE METHOD ################################################### //\n\n    // Function for landlord to create a new Rental Property, and add to 'rentalProperties' map. requires at least 0.01ETH to create\n    function addRentalProperty(\n        string memory _location,\n        string memory _postalCode,\n        string memory _unitNumber,\n        PropertyType _propertyType,\n        string memory _description,\n        uint256 _numOfTenants,\n        uint256 _rentalPrice,\n        uint256 _leaseDuration\n    )\n        public\n        validNumOfTenants(_numOfTenants)\n        validRentalPrice(_rentalPrice)\n        validLeaseDuration(_leaseDuration)\n        returns (uint256)\n    {\n        // New Rental Property object\n        rentalProperty memory newRentalProperty = rentalProperty(\n            _location,\n            _postalCode,\n            _unitNumber,\n            _propertyType,\n            _description,\n            _numOfTenants,\n            _rentalPrice,\n            _leaseDuration,\n            msg.sender, // landlord is the sender\n            true, // initially, rental property can be updated/deleted when there are no tenants applications\n            false, // initially, rental property is not listed\n            0 // initially, payment id is 0 (no payment transaction)\n        );\n\n        uint256 newRentalPropertyId = numRentalProperty++; // increment rental property id\n        rentalProperties[newRentalPropertyId] = newRentalProperty; // add to rentalProperties map\n\n        emit RentalPropertyCreated(\n            newRentalPropertyId,\n            _location,\n            _postalCode,\n            _unitNumber,\n            _propertyType,\n            _description,\n            _numOfTenants,\n            _rentalPrice,\n            _leaseDuration,\n            msg.sender\n        );\n\n        return newRentalPropertyId; //return new rental property id\n    }\n\n    // ################################################### GETTER METHODS ################################################### //\n\n    //Function to get a rental property\n    function getRentalProperty(\n        uint256 rentalPropertyId\n    )\n        public\n        view\n        validRentalPropertyId(rentalPropertyId)\n        returns (rentalProperty memory)\n    {\n        return rentalProperties[rentalPropertyId];\n    }\n\n    //Function to get the location of a rental property\n    function getLocation(\n        uint256 rentalPropertyId\n    )\n        public\n        view\n        validRentalPropertyId(rentalPropertyId)\n        returns (string memory)\n    {\n        return rentalProperties[rentalPropertyId].location;\n    }\n\n    //Function to get the postal code of a rental property\n    function getPostalCode(\n        uint256 rentalPropertyId\n    )\n        public\n        view\n        validRentalPropertyId(rentalPropertyId)\n        returns (string memory)\n    {\n        return rentalProperties[rentalPropertyId].postalCode;\n    }\n\n    //Function to get the unit number of a rental property\n    function getUnitNumber(\n        uint256 rentalPropertyId\n    )\n        public\n        view\n        validRentalPropertyId(rentalPropertyId)\n        returns (string memory)\n    {\n        return rentalProperties[rentalPropertyId].unitNumber;\n    }\n\n    //Function to get the property type of a rental property\n    function getPropertyType(\n        uint256 rentalPropertyId\n    )\n        public\n        view\n        validRentalPropertyId(rentalPropertyId)\n        returns (PropertyType)\n    {\n        return rentalProperties[rentalPropertyId].propertyType;\n    }\n\n    //Function to get the description of a rental property\n    function getDescription(\n        uint256 rentalPropertyId\n    )\n        public\n        view\n        validRentalPropertyId(rentalPropertyId)\n        returns (string memory)\n    {\n        return rentalProperties[rentalPropertyId].description;\n    }\n\n    //Function to get the number of tenants in a rental property\n    function getNumOfTenants(\n        uint256 rentalPropertyId\n    ) public view validRentalPropertyId(rentalPropertyId) returns (uint256) {\n        return rentalProperties[rentalPropertyId].numOfTenants;\n    }\n\n    //Function to get the rental price of a rental property\n    function getRentalPrice(\n        uint256 rentalPropertyId\n    ) public view validRentalPropertyId(rentalPropertyId) returns (uint256) {\n        return rentalProperties[rentalPropertyId].rentalPrice;\n    }\n\n    //Function to get the lease duration of a rental property\n    function getLeaseDuration(\n        uint256 rentalPropertyId\n    ) public view validRentalPropertyId(rentalPropertyId) returns (uint256) {\n        return rentalProperties[rentalPropertyId].leaseDuration;\n    }\n\n    //Function to get the landlord of a rental property\n    function getLandlord(\n        uint256 rentalPropertyId\n    ) public view validRentalPropertyId(rentalPropertyId) returns (address) {\n        return rentalProperties[rentalPropertyId].landlord;\n    }\n\n    //Function to get the update status of a rental property\n    function getUpdateStatus(\n        uint256 rentalPropertyId\n    ) public view validRentalPropertyId(rentalPropertyId) returns (bool) {\n        return rentalProperties[rentalPropertyId].updateStatus;\n    }\n\n    //Function to get the listed status of a rental property\n    function getListedStatus(\n        uint256 rentalPropertyId\n    ) public view validRentalPropertyId(rentalPropertyId) returns (bool) {\n        return rentalProperties[rentalPropertyId].isListed;\n    }\n\n    //Function to get the number of rental properties\n    function getNumRentalProperty() public view returns (uint256) {\n        return numRentalProperty;\n    }\n\n    //Function to get the number of listed rental properties\n    function getNumListedRentalProperty() public view returns (uint256) {\n        return numListedRentalProperty;\n    }\n\n    //Function to get the number of unlisted rental properties\n    function getNumUnlistedRentalProperty() public view returns (uint256) {\n        return numRentalProperty - numListedRentalProperty;\n    }\n\n    //Function to get the number of rental properties of a landlord\n    function getNumLandlordRentalProperties(\n        address landlord\n    ) public view returns (uint256) {\n        uint256 count = 0;\n        for (uint256 i = 0; i < numRentalProperty; i++) {\n            if (rentalProperties[i].landlord == landlord) {\n                count++;\n            }\n        }\n        return count;\n    }\n\n    //Function to get the number of listed rental properties of a landlord\n    function getNumLandlordListedRentalProperties(\n        address landlord\n    ) public view returns (uint256) {\n        uint256 count = 0;\n        for (uint256 i = 0; i < numRentalProperty; i++) {\n            if (rentalProperties[i].landlord == landlord) {\n                if (rentalProperties[i].isListed == true) {\n                    count++;\n                }\n            }\n        }\n        return count;\n    }\n\n    //Function to get the number of unlisted rental properties of a landlord\n    function getNumLandlordUnlistedRentalProperties(\n        address landlord\n    ) public view returns (uint256) {\n        uint256 count = 0;\n        for (uint256 i = 0; i < numRentalProperty; i++) {\n            if (rentalProperties[i].landlord == landlord) {\n                if (rentalProperties[i].isListed == false) {\n                    count++;\n                }\n            }\n        }\n        return count;\n    }\n\n    //Function to get all the rental properties (listed and unlisted)\n    function getAllRentalProperties()\n        public\n        view\n        returns (rentalProperty[] memory)\n    {\n        rentalProperty[] memory allRentalProperties = new rentalProperty[](\n            numRentalProperty\n        );\n        for (uint256 i = 0; i < numRentalProperty; i++) {\n            allRentalProperties[i] = rentalProperties[i];\n        }\n        return allRentalProperties;\n    }\n\n    //Function to get all the listed rental properties\n    function getAllListedRentalProperties()\n        public\n        view\n        returns (rentalProperty[] memory)\n    {\n        rentalProperty[] memory listedRentalProperties = new rentalProperty[](\n            numListedRentalProperty\n        );\n        uint256 index = 0;\n        for (uint256 i = 0; i < numRentalProperty; i++) {\n            if (rentalProperties[i].isListed == true) {\n                listedRentalProperties[index] = rentalProperties[i];\n                index++;\n            }\n        }\n        return listedRentalProperties;\n    }\n\n    //Function to get all the unlisted rental properties\n    function getAllUnlistedRentalProperties()\n        public\n        view\n        returns (rentalProperty[] memory)\n    {\n        rentalProperty[] memory unlistedRentalProperties = new rentalProperty[](\n            numRentalProperty - numListedRentalProperty\n        );\n        uint256 index = 0;\n        for (uint256 i = 0; i < numRentalProperty; i++) {\n            if (rentalProperties[i].isListed == false) {\n                unlistedRentalProperties[index] = rentalProperties[i];\n                index++;\n            }\n        }\n        return unlistedRentalProperties;\n    }\n\n    //Function to get all the rental properties of a landlord (listed and unlisted)\n    function getLandlordRentalProperties(\n        address landlord\n    ) public view returns (rentalProperty[] memory) {\n        rentalProperty[] memory landlordRentalProperties = new rentalProperty[](\n            getNumLandlordRentalProperties(landlord)\n        );\n        uint256 index = 0;\n        for (uint256 i = 0; i < numRentalProperty; i++) {\n            if (rentalProperties[i].landlord == landlord) {\n                landlordRentalProperties[index] = rentalProperties[i];\n                index++;\n            }\n        }\n        return landlordRentalProperties;\n    }\n\n    //Function to get all the listed rental properties of a landlord\n    function getLandlordListedRentalProperties(\n        address landlord\n    ) public view returns (rentalProperty[] memory) {\n        rentalProperty[]\n            memory landlordListedRentalProperties = new rentalProperty[](\n                getNumLandlordListedRentalProperties(landlord)\n            );\n        uint256 index = 0;\n        for (uint256 i = 0; i < numRentalProperty; i++) {\n            if (rentalProperties[i].landlord == landlord) {\n                if (rentalProperties[i].isListed == true) {\n                    landlordListedRentalProperties[index] = rentalProperties[i];\n                    index++;\n                }\n            }\n        }\n        return landlordListedRentalProperties;\n    }\n\n    //Function to get all the unlisted rental properties of a landlord\n    function getLandlordUnlistedRentalProperties(\n        address landlord\n    ) public view returns (rentalProperty[] memory) {\n        rentalProperty[]\n            memory landlordUnlistedRentalProperties = new rentalProperty[](\n                getNumLandlordUnlistedRentalProperties(landlord)\n            );\n        uint256 index = 0;\n        for (uint256 i = 0; i < numRentalProperty; i++) {\n            if (rentalProperties[i].landlord == landlord) {\n                if (rentalProperties[i].isListed == false) {\n                    landlordUnlistedRentalProperties[index] = rentalProperties[\n                        i\n                    ];\n                    index++;\n                }\n            }\n        }\n        return landlordUnlistedRentalProperties;\n    }\n\n    //Function to get payment id of a rental property\n    function getPaymentId(\n        uint256 rentalPropertyId\n    ) public view validRentalPropertyId(rentalPropertyId) returns (uint256) {\n        return rentalProperties[rentalPropertyId].paymentId;\n    }\n\n\n    // ################################################### SETTER METHODS ################################################### //\n\n    //Function to update the location of a rental property\n    function updateLocation(\n        uint256 rentalPropertyId,\n        string memory newLocation\n    )\n        public\n        landlordOnly(rentalPropertyId)\n        validRentalPropertyId(rentalPropertyId)\n        validUpdateStatus(rentalPropertyId)\n    {\n        rentalProperties[rentalPropertyId].location = newLocation;\n        emit RentalPropertyUpdateLocation(rentalPropertyId, newLocation);\n    }\n\n    //Function to update the postal code of a rental property\n    function updatePostalCode(\n        uint256 rentalPropertyId,\n        string memory newPostalCode\n    )\n        public\n        landlordOnly(rentalPropertyId)\n        validRentalPropertyId(rentalPropertyId)\n        validUpdateStatus(rentalPropertyId)\n    {\n        rentalProperties[rentalPropertyId].postalCode = newPostalCode;\n        emit RentalPropertyUpdatePostalCode(rentalPropertyId, newPostalCode);\n    }\n\n    //Function to update the unit number of a rental property\n    function updateUnitNumber(\n        uint256 rentalPropertyId,\n        string memory newUnitNumber\n    )\n        public\n        landlordOnly(rentalPropertyId)\n        validRentalPropertyId(rentalPropertyId)\n        validUpdateStatus(rentalPropertyId)\n    {\n        rentalProperties[rentalPropertyId].unitNumber = newUnitNumber;\n        emit RentalPropertyUpdateUnitNumber(rentalPropertyId, newUnitNumber);\n    }\n\n    //Function to update the property type of a rental property\n    function updatePropertyType(\n        uint256 rentalPropertyId,\n        PropertyType newPropertyType\n    )\n        public\n        landlordOnly(rentalPropertyId)\n        validRentalPropertyId(rentalPropertyId)\n        validUpdateStatus(rentalPropertyId)\n    {\n        rentalProperties[rentalPropertyId].propertyType = newPropertyType;\n        emit RentalPropertyUpdatePropertyType(\n            rentalPropertyId,\n            newPropertyType\n        );\n    }\n\n    //Function to update the description of a rental property\n    function updateDescription(\n        uint256 rentalPropertyId,\n        string memory newDescription\n    )\n        public\n        landlordOnly(rentalPropertyId)\n        validRentalPropertyId(rentalPropertyId)\n        validUpdateStatus(rentalPropertyId)\n    {\n        rentalProperties[rentalPropertyId].description = newDescription;\n        emit RentalPropertyUpdateDescription(rentalPropertyId, newDescription);\n    }\n\n    //Function to update the number of tenants in a rental property\n    function updateNumOfTenants(\n        uint256 rentalPropertyId,\n        uint256 newNumOfTenants\n    )\n        public\n        landlordOnly(rentalPropertyId)\n        validRentalPropertyId(rentalPropertyId)\n        validNumOfTenants(newNumOfTenants)\n        validUpdateStatus(rentalPropertyId)\n    {\n        rentalProperties[rentalPropertyId].numOfTenants = newNumOfTenants;\n        emit RentalPropertyUpdateNumOfTenants(\n            rentalPropertyId,\n            newNumOfTenants\n        );\n    }\n\n    //Function to update the rental price of a rental property\n    function updateRentalPrice(\n        uint256 rentalPropertyId,\n        uint256 newRentalPrice\n    )\n        public\n        landlordOnly(rentalPropertyId)\n        validRentalPropertyId(rentalPropertyId)\n        validRentalPrice(newRentalPrice)\n        validUpdateStatus(rentalPropertyId)\n    {\n        rentalProperties[rentalPropertyId].rentalPrice = newRentalPrice;\n        emit RentalPropertyUpdateRentalPrice(rentalPropertyId, newRentalPrice);\n    }\n\n    //Function to update the lease duration of a rental property\n    function updateLeaseDuration(\n        uint256 rentalPropertyId,\n        uint256 newLeaseDuration\n    )\n        public\n        landlordOnly(rentalPropertyId)\n        validRentalPropertyId(rentalPropertyId)\n        validLeaseDuration(newLeaseDuration)\n        validUpdateStatus(rentalPropertyId)\n    {\n        rentalProperties[rentalPropertyId].leaseDuration = newLeaseDuration;\n        emit RentalPropertyUpdateLeaseDuration(\n            rentalPropertyId,\n            newLeaseDuration\n        );\n    }\n\n    //Function to set the new update status of a rental property\n    //Not restricted to landlord as this function is used in RentalMarketplace to set the update status to false when there are tenants applications\n    function setUpdateStatus(\n        uint256 rentalPropertyId,\n        bool newUpdateStatus\n    ) public validRentalPropertyId(rentalPropertyId) {\n        rentalProperties[rentalPropertyId].updateStatus = newUpdateStatus;\n    }\n\n    //Function to set the new listed status of a rental property\n    //Not restricted to landlord as this function is used in RentalMarketplace to set the listed status to true when the rental property is listed\n    function setListedStatus(\n        uint256 rentalPropertyId,\n        bool newListedStatus\n    ) public validRentalPropertyId(rentalPropertyId) {\n        rentalProperties[rentalPropertyId].isListed = newListedStatus;\n    }\n\n    //Function to increment the number of listed rental properties\n    //Not restricted to landlord as this function is used in RentalMarketplace to increment the number of listed rental properties\n    function incrementListedRentalProperty() public {\n        numListedRentalProperty++;\n    }\n\n    //Function to decrement the number of listed rental properties\n    //Not restricted to landlord as this function is used in RentalMarketplace to decrement the number of listed rental properties\n    function decrementListedRentalProperty() public {\n        numListedRentalProperty--;\n    }\n\n    //Function to set a payment id to the rental property\n    //Not restricted to landlord as this function is used in RentalMarketplace to keep track of protection fee payment/refund\n    function setPaymentId(\n        uint256 rentalPropertyId,\n        uint256 newPaymentId\n    ) public validRentalPropertyId(rentalPropertyId) {\n        rentalProperties[rentalPropertyId].paymentId = newPaymentId;\n    }\n\n    // ################################################### DELETE METHOD ################################################### //\n\n    //Function to delete a rental property\n    function deleteRentalProperty(\n        uint256 rentalPropertyId\n    )\n        public\n        landlordOnly(rentalPropertyId)\n        validRentalPropertyId(rentalPropertyId)\n        validUpdateStatus(rentalPropertyId)\n    {\n        // delete rental property from rentalProperties map\n        delete rentalProperties[rentalPropertyId];\n        emit RentalPropertyDeleted(rentalPropertyId);\n    }\n}\n",
  "sourcePath": "/Users/Mike/Documents/GitHub/is4302-G13-project/contracts/RentalProperty.sol",
  "compiler": {
    "name": "solc",
    "version": "0.8.1+commit.df193b15.Emscripten.clang"
  },
  "schemaVersion": "3.4.16",
  "updatedAt": "2024-04-10T08:14:42.516Z",
  "networkType": "ethereum",
  "devdoc": {
    "kind": "dev",
    "methods": {},
    "version": 1
  },
  "userdoc": {
    "kind": "user",
    "methods": {},
    "version": 1
  }
}