{
  "contractName": "RentalMarketplace",
  "abi": [
    {
      "inputs": [
        {
          "internalType": "address",
          "name": "rentalPropertyAddress",
          "type": "address"
        },
        {
          "internalType": "address",
          "name": "paymentEscrowAddress",
          "type": "address"
        }
      ],
      "stateMutability": "nonpayable",
      "type": "constructor"
    },
    {
      "anonymous": false,
      "inputs": [
        {
          "indexed": false,
          "internalType": "uint256",
          "name": "rentalPropertyId",
          "type": "uint256"
        },
        {
          "indexed": false,
          "internalType": "uint256",
          "name": "applicationId",
          "type": "uint256"
        }
      ],
      "name": "PaymentAccepted",
      "type": "event"
    },
    {
      "anonymous": false,
      "inputs": [
        {
          "indexed": false,
          "internalType": "uint256",
          "name": "rentalPropertyId",
          "type": "uint256"
        },
        {
          "indexed": false,
          "internalType": "uint256",
          "name": "applicationId",
          "type": "uint256"
        }
      ],
      "name": "PaymentMade",
      "type": "event"
    },
    {
      "anonymous": false,
      "inputs": [
        {
          "indexed": false,
          "internalType": "uint256",
          "name": "rentalPropertyId",
          "type": "uint256"
        },
        {
          "indexed": false,
          "internalType": "uint256",
          "name": "applicationId",
          "type": "uint256"
        }
      ],
      "name": "RentalApplicationAccepted",
      "type": "event"
    },
    {
      "anonymous": false,
      "inputs": [
        {
          "indexed": false,
          "internalType": "uint256",
          "name": "rentalPropertyId",
          "type": "uint256"
        },
        {
          "indexed": false,
          "internalType": "uint256",
          "name": "applicationId",
          "type": "uint256"
        }
      ],
      "name": "RentalApplicationRejected",
      "type": "event"
    },
    {
      "anonymous": false,
      "inputs": [
        {
          "indexed": false,
          "internalType": "uint256",
          "name": "rentalPropertyId",
          "type": "uint256"
        },
        {
          "indexed": false,
          "internalType": "uint256",
          "name": "applicationId",
          "type": "uint256"
        }
      ],
      "name": "RentalApplicationSubmitted",
      "type": "event"
    },
    {
      "anonymous": false,
      "inputs": [
        {
          "indexed": false,
          "internalType": "uint256",
          "name": "rentalPropertyId",
          "type": "uint256"
        },
        {
          "indexed": false,
          "internalType": "uint256",
          "name": "depositLeaseToken",
          "type": "uint256"
        }
      ],
      "name": "RentalPropertyAdded",
      "type": "event"
    },
    {
      "anonymous": false,
      "inputs": [
        {
          "indexed": false,
          "internalType": "uint256",
          "name": "rentalPropertyId",
          "type": "uint256"
        }
      ],
      "name": "RentalPropertyRemoved",
      "type": "event"
    },
    {
      "inputs": [
        {
          "internalType": "uint256",
          "name": "rentalPropertyId",
          "type": "uint256"
        },
        {
          "internalType": "uint256",
          "name": "depositLeaseToken",
          "type": "uint256"
        }
      ],
      "name": "listARentalProperty",
      "outputs": [],
      "stateMutability": "nonpayable",
      "type": "function"
    },
    {
      "inputs": [
        {
          "internalType": "uint256",
          "name": "rentalPropertyId",
          "type": "uint256"
        }
      ],
      "name": "unlistARentalProperty",
      "outputs": [],
      "stateMutability": "nonpayable",
      "type": "function"
    },
    {
      "inputs": [],
      "name": "viewListedRentalPropertiesById",
      "outputs": [
        {
          "internalType": "uint256[]",
          "name": "",
          "type": "uint256[]"
        }
      ],
      "stateMutability": "view",
      "type": "function",
      "constant": true
    },
    {
      "inputs": [
        {
          "internalType": "uint256",
          "name": "rentalPropertyId",
          "type": "uint256"
        }
      ],
      "name": "viewRentalApplications",
      "outputs": [
        {
          "components": [
            {
              "internalType": "address",
              "name": "tenantAddress",
              "type": "address"
            },
            {
              "internalType": "string",
              "name": "tenantName",
              "type": "string"
            },
            {
              "internalType": "string",
              "name": "tenantEmail",
              "type": "string"
            },
            {
              "internalType": "string",
              "name": "tenantPhone",
              "type": "string"
            },
            {
              "internalType": "string",
              "name": "description",
              "type": "string"
            },
            {
              "internalType": "uint256",
              "name": "monthsPaid",
              "type": "uint256"
            },
            {
              "internalType": "enum RentalMarketplace.RentStatus",
              "name": "status",
              "type": "uint8"
            }
          ],
          "internalType": "struct RentalMarketplace.RentalApplication[]",
          "name": "",
          "type": "tuple[]"
        }
      ],
      "stateMutability": "view",
      "type": "function",
      "constant": true
    },
    {
      "inputs": [
        {
          "internalType": "uint256",
          "name": "rentalPropertyId",
          "type": "uint256"
        },
        {
          "internalType": "string",
          "name": "tenantName",
          "type": "string"
        },
        {
          "internalType": "string",
          "name": "tenantEmail",
          "type": "string"
        },
        {
          "internalType": "string",
          "name": "tenantPhone",
          "type": "string"
        },
        {
          "internalType": "string",
          "name": "description",
          "type": "string"
        }
      ],
      "name": "applyRentalProperty",
      "outputs": [],
      "stateMutability": "nonpayable",
      "type": "function"
    },
    {
      "inputs": [
        {
          "internalType": "uint256",
          "name": "rentalPropertyId",
          "type": "uint256"
        },
        {
          "internalType": "uint256",
          "name": "applicationId",
          "type": "uint256"
        }
      ],
      "name": "rejectRentalApplication",
      "outputs": [],
      "stateMutability": "nonpayable",
      "type": "function"
    },
    {
      "inputs": [
        {
          "internalType": "uint256",
          "name": "rentalPropertyId",
          "type": "uint256"
        },
        {
          "internalType": "uint256",
          "name": "applicationId",
          "type": "uint256"
        }
      ],
      "name": "acceptRentalApplication",
      "outputs": [],
      "stateMutability": "nonpayable",
      "type": "function"
    },
    {
      "inputs": [
        {
          "internalType": "uint256",
          "name": "rentalPropertyId",
          "type": "uint256"
        },
        {
          "internalType": "uint256",
          "name": "applicationId",
          "type": "uint256"
        }
      ],
      "name": "makePayment",
      "outputs": [],
      "stateMutability": "nonpayable",
      "type": "function"
    },
    {
      "inputs": [
        {
          "internalType": "uint256",
          "name": "rentalPropertyId",
          "type": "uint256"
        },
        {
          "internalType": "uint256",
          "name": "applicationId",
          "type": "uint256"
        }
      ],
      "name": "acceptPayment",
      "outputs": [],
      "stateMutability": "nonpayable",
      "type": "function"
    },
    {
      "inputs": [],
      "name": "getNumOfListedRentalProperty",
      "outputs": [
        {
          "internalType": "uint256",
          "name": "",
          "type": "uint256"
        }
      ],
      "stateMutability": "view",
      "type": "function",
      "constant": true
    },
    {
      "inputs": [
        {
          "internalType": "uint256",
          "name": "rentalPropertyId",
          "type": "uint256"
        },
        {
          "internalType": "uint256",
          "name": "applicationId",
          "type": "uint256"
        }
      ],
      "name": "getRentalApplication",
      "outputs": [
        {
          "components": [
            {
              "internalType": "address",
              "name": "tenantAddress",
              "type": "address"
            },
            {
              "internalType": "string",
              "name": "tenantName",
              "type": "string"
            },
            {
              "internalType": "string",
              "name": "tenantEmail",
              "type": "string"
            },
            {
              "internalType": "string",
              "name": "tenantPhone",
              "type": "string"
            },
            {
              "internalType": "string",
              "name": "description",
              "type": "string"
            },
            {
              "internalType": "uint256",
              "name": "monthsPaid",
              "type": "uint256"
            },
            {
              "internalType": "enum RentalMarketplace.RentStatus",
              "name": "status",
              "type": "uint8"
            }
          ],
          "internalType": "struct RentalMarketplace.RentalApplication",
          "name": "",
          "type": "tuple"
        }
      ],
      "stateMutability": "view",
      "type": "function",
      "constant": true
    },
    {
      "inputs": [
        {
          "internalType": "uint256",
          "name": "rentalPropertyId",
          "type": "uint256"
        }
      ],
      "name": "getRentalApplicationCount",
      "outputs": [
        {
          "internalType": "uint256",
          "name": "",
          "type": "uint256"
        }
      ],
      "stateMutability": "view",
      "type": "function",
      "constant": true
    },
    {
      "inputs": [
        {
          "internalType": "uint256",
          "name": "rentalPropertyId",
          "type": "uint256"
        },
        {
          "internalType": "address",
          "name": "tenantAddress",
          "type": "address"
        }
      ],
      "name": "getHasApplied",
      "outputs": [
        {
          "internalType": "bool",
          "name": "",
          "type": "bool"
        }
      ],
      "stateMutability": "view",
      "type": "function",
      "constant": true
    },
    {
      "inputs": [
        {
          "internalType": "uint256",
          "name": "rentalPropertyId",
          "type": "uint256"
        }
      ],
      "name": "getListedRentalProperty",
      "outputs": [
        {
          "internalType": "uint256",
          "name": "",
          "type": "uint256"
        }
      ],
      "stateMutability": "view",
      "type": "function",
      "constant": true
    },
    {
      "inputs": [],
      "name": "getRentalPropertyContractAddress",
      "outputs": [
        {
          "internalType": "address",
          "name": "",
          "type": "address"
        }
      ],
      "stateMutability": "view",
      "type": "function",
      "constant": true
    },
    {
      "inputs": [],
      "name": "getPaymentEscrowContractAddress",
      "outputs": [
        {
          "internalType": "address",
          "name": "",
          "type": "address"
        }
      ],
      "stateMutability": "view",
      "type": "function",
      "constant": true
    }
  ],
  "bytecode": "0x608060405260006002553480156200001657600080fd5b5060405162003d7938038062003d7983398181016040528101906200003c9190620000dc565b816000806101000a81548173ffffffffffffffffffffffffffffffffffffffff021916908373ffffffffffffffffffffffffffffffffffffffff16021790555080600160006101000a81548173ffffffffffffffffffffffffffffffffffffffff021916908373ffffffffffffffffffffffffffffffffffffffff16021790555050506200016b565b600081519050620000d68162000151565b92915050565b60008060408385031215620000f057600080fd5b60006200010085828601620000c5565b92505060206200011385828601620000c5565b9150509250929050565b60006200012a8262000131565b9050919050565b600073ffffffffffffffffffffffffffffffffffffffff82169050919050565b6200015c816200011d565b81146200016857600080fd5b50565b613bfe806200017b6000396000f3fe608060405234801561001057600080fd5b50600436106101005760003560e01c80639e9a231511610097578063d53cdfdf11610066578063d53cdfdf146102bd578063e9abbb6b146102d9578063ed1da372146102f7578063fd3ae5461461031357610100565b80639e9a231514610225578063a8496cf914610241578063ae6b2d8714610271578063d390f974146102a157610100565b806337e4532f116100d357806337e4532f1461018d57806368c5bf1a146101a95780636dd223f2146101d95780637ba4c211146101f557610100565b80630bba023d146101055780631e6db40114610135578063224ba500146101515780632b1f7afb1461016f575b600080fd5b61011f600480360381019061011a9190612bf5565b610331565b60405161012c919061348d565b60405180910390f35b61014f600480360381019061014a9190612d5a565b61034e565b005b610159610623565b6040516101669190613251565b60405180910390f35b61017761064d565b604051610184919061328e565b60405180910390f35b6101a760048036038101906101a29190612d5a565b61083f565b005b6101c360048036038101906101be9190612d5a565b610a61565b6040516101d0919061346b565b60405180910390f35b6101f360048036038101906101ee9190612c83565b610dcf565b005b61020f600480360381019061020a9190612bf5565b61141d565b60405161021c919061348d565b60405180910390f35b61023f600480360381019061023a9190612d5a565b61143a565b005b61025b60048036038101906102569190612c47565b6118ae565b60405161026891906132b0565b60405180910390f35b61028b60048036038101906102869190612bf5565b611916565b604051610298919061326c565b60405180910390f35b6102bb60048036038101906102b69190612d5a565b611e9e565b005b6102d760048036038101906102d29190612d5a565b612301565b005b6102e161273c565b6040516102ee919061348d565b60405180910390f35b610311600480360381019061030c9190612bf5565b612746565b005b61031b612979565b6040516103289190613251565b60405180910390f35b600060056000838152602001908152602001600020549050919050565b8160008054906101000a900473ffffffffffffffffffffffffffffffffffffffff1673ffffffffffffffffffffffffffffffffffffffff1663502fb9fd826040518263ffffffff1660e01b81526004016103a8919061348d565b60206040518083038186803b1580156103c057600080fd5b505afa1580156103d4573d6000803e3d6000fd5b505050506040513d601f19601f820116820180604052508101906103f89190612bcc565b73ffffffffffffffffffffffffffffffffffffffff163373ffffffffffffffffffffffffffffffffffffffff1614610465576040517f08c379a000000000000000000000000000000000000000000000000000000000815260040161045c9061334b565b60405180910390fd5b8282600060038111156104a1577f4e487b7100000000000000000000000000000000000000000000000000000000600052602160045260246000fd5b60046000848152602001908152602001600020600083815260200190815260200160002060060160009054906101000a900460ff16600381111561050e577f4e487b7100000000000000000000000000000000000000000000000000000000600052602160045260246000fd5b1461054e576040517f08c379a0000000000000000000000000000000000000000000000000000000008152600401610545906133cb565b60405180910390fd5b6000600460008781526020019081526020016000206000868152602001908152602001600020905060006003600088815260200190815260200160002054905060018260060160006101000a81548160ff021916908360038111156105dc577f4e487b7100000000000000000000000000000000000000000000000000000000600052602160045260246000fd5b02179055507f442e20c6478bbe9858918a786d22ceed5c74da530b23fbad176dfce79bd9562f87876040516106129291906134d1565b60405180910390a150505050505050565b6000600160009054906101000a900473ffffffffffffffffffffffffffffffffffffffff16905090565b6060600060025411610694576040517f08c379a000000000000000000000000000000000000000000000000000000000815260040161068b9061338b565b60405180910390fd5b600060025467ffffffffffffffff8111156106d8577f4e487b7100000000000000000000000000000000000000000000000000000000600052604160045260246000fd5b6040519080825280602002602001820160405280156107065781602001602082028036833780820191505090505b5090506000805b60008054906101000a900473ffffffffffffffffffffffffffffffffffffffff1673ffffffffffffffffffffffffffffffffffffffff1663e1ba0b806040518163ffffffff1660e01b815260040160206040518083038186803b15801561077357600080fd5b505afa158015610787573d6000803e3d6000fd5b505050506040513d601f19601f820116820180604052508101906107ab9190612c1e565b811015610836576000600360008381526020019081526020016000205411156108235780838381518110610808577f4e487b7100000000000000000000000000000000000000000000000000000000600052603260045260246000fd5b602002602001018181525050818061081f9061372b565b9250505b808061082e9061372b565b91505061070d565b50819250505090565b816000600360008381526020019081526020016000205414610896576040517f08c379a000000000000000000000000000000000000000000000000000000000815260040161088d9061340b565b60405180910390fd5b81600081116108da576040517f08c379a00000000000000000000000000000000000000000000000000000000081526004016108d19061342b565b60405180910390fd5b8360008054906101000a900473ffffffffffffffffffffffffffffffffffffffff1673ffffffffffffffffffffffffffffffffffffffff1663502fb9fd826040518263ffffffff1660e01b8152600401610934919061348d565b60206040518083038186803b15801561094c57600080fd5b505afa158015610960573d6000803e3d6000fd5b505050506040513d601f19601f820116820180604052508101906109849190612bcc565b73ffffffffffffffffffffffffffffffffffffffff163373ffffffffffffffffffffffffffffffffffffffff16146109f1576040517f08c379a00000000000000000000000000000000000000000000000000000000081526004016109e89061334b565b60405180910390fd5b83600360008781526020019081526020016000208190555060026000815480929190610a1c9061372b565b91905055507fd4bd0bef4588d67c5c137524864d39ffdd4fcb201a538ada2105351abde1f24a8585604051610a529291906134d1565b60405180910390a15050505050565b610a696129a2565b6004600084815260200190815260200160002060008381526020019081526020016000206040518060e00160405290816000820160009054906101000a900473ffffffffffffffffffffffffffffffffffffffff1673ffffffffffffffffffffffffffffffffffffffff1673ffffffffffffffffffffffffffffffffffffffff168152602001600182018054610afe906136c8565b80601f0160208091040260200160405190810160405280929190818152602001828054610b2a906136c8565b8015610b775780601f10610b4c57610100808354040283529160200191610b77565b820191906000526020600020905b815481529060010190602001808311610b5a57829003601f168201915b50505050508152602001600282018054610b90906136c8565b80601f0160208091040260200160405190810160405280929190818152602001828054610bbc906136c8565b8015610c095780601f10610bde57610100808354040283529160200191610c09565b820191906000526020600020905b815481529060010190602001808311610bec57829003601f168201915b50505050508152602001600382018054610c22906136c8565b80601f0160208091040260200160405190810160405280929190818152602001828054610c4e906136c8565b8015610c9b5780601f10610c7057610100808354040283529160200191610c9b565b820191906000526020600020905b815481529060010190602001808311610c7e57829003601f168201915b50505050508152602001600482018054610cb4906136c8565b80601f0160208091040260200160405190810160405280929190818152602001828054610ce0906136c8565b8015610d2d5780601f10610d0257610100808354040283529160200191610d2d565b820191906000526020600020905b815481529060010190602001808311610d1057829003601f168201915b50505050508152602001600582015481526020016006820160009054906101000a900460ff166003811115610d8b577f4e487b7100000000000000000000000000000000000000000000000000000000600052602160045260246000fd5b6003811115610dc3577f4e487b7100000000000000000000000000000000000000000000000000000000600052602160045260246000fd5b81525050905092915050565b8460008054906101000a900473ffffffffffffffffffffffffffffffffffffffff1673ffffffffffffffffffffffffffffffffffffffff1663502fb9fd826040518263ffffffff1660e01b8152600401610e29919061348d565b60206040518083038186803b158015610e4157600080fd5b505afa158015610e55573d6000803e3d6000fd5b505050506040513d601f19601f82011682018060405250810190610e799190612bcc565b73ffffffffffffffffffffffffffffffffffffffff163373ffffffffffffffffffffffffffffffffffffffff161415610ee7576040517f08c379a0000000000000000000000000000000000000000000000000000000008152600401610ede906133eb565b60405180910390fd5b856000600360008381526020019081526020016000205411610f3e576040517f08c379a0000000000000000000000000000000000000000000000000000000008152600401610f359061330b565b60405180910390fd5b8660008054906101000a900473ffffffffffffffffffffffffffffffffffffffff1673ffffffffffffffffffffffffffffffffffffffff16637735e668826040518263ffffffff1660e01b8152600401610f98919061348d565b60206040518083038186803b158015610fb057600080fd5b505afa158015610fc4573d6000803e3d6000fd5b505050506040513d601f19601f82011682018060405250810190610fe89190612c1e565b60056000838152602001908152602001600020541061103c576040517f08c379a00000000000000000000000000000000000000000000000000000000081526004016110339061336b565b60405180910390fd5b876006600082815260200190815260200160002060003373ffffffffffffffffffffffffffffffffffffffff1673ffffffffffffffffffffffffffffffffffffffff16815260200190815260200160002060009054906101000a900460ff16156110db576040517f08c379a00000000000000000000000000000000000000000000000000000000081526004016110d2906133ab565b60405180910390fd5b6000600560008b81526020019081526020016000205490506040518060e001604052803373ffffffffffffffffffffffffffffffffffffffff1681526020018a81526020018981526020018881526020018781526020016000815260200160006003811115611173577f4e487b7100000000000000000000000000000000000000000000000000000000600052602160045260246000fd5b815250600460008c8152602001908152602001600020600083815260200190815260200160002060008201518160000160006101000a81548173ffffffffffffffffffffffffffffffffffffffff021916908373ffffffffffffffffffffffffffffffffffffffff16021790555060208201518160010190805190602001906111fd929190612a2d565b50604082015181600201908051906020019061121a929190612a2d565b506060820151816003019080519060200190611237929190612a2d565b506080820151816004019080519060200190611254929190612a2d565b5060a0820151816005015560c08201518160060160006101000a81548160ff021916908360038111156112b0577f4e487b7100000000000000000000000000000000000000000000000000000000600052602160045260246000fd5b0217905550905050600560008b815260200190815260200160002060008154809291906112dc9061372b565b91905055506001600660008c815260200190815260200160002060003373ffffffffffffffffffffffffffffffffffffffff1673ffffffffffffffffffffffffffffffffffffffff16815260200190815260200160002060006101000a81548160ff02191690831515021790555060008054906101000a900473ffffffffffffffffffffffffffffffffffffffff1673ffffffffffffffffffffffffffffffffffffffff1663c3b3f0d18b60006040518363ffffffff1660e01b81526004016113a69291906134a8565b600060405180830381600087803b1580156113c057600080fd5b505af11580156113d4573d6000803e3d6000fd5b505050507f9d6c986964a80d9526a37c7cc81948200625f2bf8f0f9c9e8ab7b95c52a92c468a826040516114099291906134d1565b60405180910390a150505050505050505050565b600060036000838152602001908152602001600020549050919050565b8160008054906101000a900473ffffffffffffffffffffffffffffffffffffffff1673ffffffffffffffffffffffffffffffffffffffff1663502fb9fd826040518263ffffffff1660e01b8152600401611494919061348d565b60206040518083038186803b1580156114ac57600080fd5b505afa1580156114c0573d6000803e3d6000fd5b505050506040513d601f19601f820116820180604052508101906114e49190612bcc565b73ffffffffffffffffffffffffffffffffffffffff163373ffffffffffffffffffffffffffffffffffffffff1614611551576040517f08c379a00000000000000000000000000000000000000000000000000000000081526004016115489061334b565b60405180910390fd5b82826000600381111561158d577f4e487b7100000000000000000000000000000000000000000000000000000000600052602160045260246000fd5b60046000848152602001908152602001600020600083815260200190815260200160002060060160009054906101000a900460ff1660038111156115fa577f4e487b7100000000000000000000000000000000000000000000000000000000600052602160045260246000fd5b1461163a576040517f08c379a0000000000000000000000000000000000000000000000000000000008152600401611631906133cb565b60405180910390fd5b600060046000878152602001908152602001600020600086815260200190815260200160002090506005600087815260200190815260200160002060008154809291906116869061369e565b919050555060006006600088815260200190815260200160002060008360000160009054906101000a900473ffffffffffffffffffffffffffffffffffffffff1673ffffffffffffffffffffffffffffffffffffffff1673ffffffffffffffffffffffffffffffffffffffff16815260200190815260200160002060006101000a81548160ff021916908315150217905550600460008781526020019081526020016000206000868152602001908152602001600020600080820160006101000a81549073ffffffffffffffffffffffffffffffffffffffff02191690556001820160006117749190612ab3565b6002820160006117849190612ab3565b6003820160006117949190612ab3565b6004820160006117a49190612ab3565b60058201600090556006820160006101000a81549060ff0219169055505060006005600088815260200190815260200160002054141561186d5760008054906101000a900473ffffffffffffffffffffffffffffffffffffffff1673ffffffffffffffffffffffffffffffffffffffff1663c3b3f0d18760016040518363ffffffff1660e01b815260040161183a9291906134a8565b600060405180830381600087803b15801561185457600080fd5b505af1158015611868573d6000803e3d6000fd5b505050505b7f02177d79b2521d397375b5d46ec1652144a43c6df6beaad2a14ccb953e537993868660405161189e9291906134d1565b60405180910390a1505050505050565b60006006600084815260200190815260200160002060008373ffffffffffffffffffffffffffffffffffffffff1673ffffffffffffffffffffffffffffffffffffffff16815260200190815260200160002060009054906101000a900460ff16905092915050565b60608160008054906101000a900473ffffffffffffffffffffffffffffffffffffffff1673ffffffffffffffffffffffffffffffffffffffff1663502fb9fd826040518263ffffffff1660e01b8152600401611972919061348d565b60206040518083038186803b15801561198a57600080fd5b505afa15801561199e573d6000803e3d6000fd5b505050506040513d601f19601f820116820180604052508101906119c29190612bcc565b73ffffffffffffffffffffffffffffffffffffffff163373ffffffffffffffffffffffffffffffffffffffff1614611a2f576040517f08c379a0000000000000000000000000000000000000000000000000000000008152600401611a269061334b565b60405180910390fd5b6000600560008581526020019081526020016000205467ffffffffffffffff811115611a84577f4e487b7100000000000000000000000000000000000000000000000000000000600052604160045260246000fd5b604051908082528060200260200182016040528015611abd57816020015b611aaa6129a2565b815260200190600190039081611aa25790505b50905060005b6005600086815260200190815260200160002054811015611e93576004600086815260200190815260200160002060008281526020019081526020016000206040518060e00160405290816000820160009054906101000a900473ffffffffffffffffffffffffffffffffffffffff1673ffffffffffffffffffffffffffffffffffffffff1673ffffffffffffffffffffffffffffffffffffffff168152602001600182018054611b73906136c8565b80601f0160208091040260200160405190810160405280929190818152602001828054611b9f906136c8565b8015611bec5780601f10611bc157610100808354040283529160200191611bec565b820191906000526020600020905b815481529060010190602001808311611bcf57829003601f168201915b50505050508152602001600282018054611c05906136c8565b80601f0160208091040260200160405190810160405280929190818152602001828054611c31906136c8565b8015611c7e5780601f10611c5357610100808354040283529160200191611c7e565b820191906000526020600020905b815481529060010190602001808311611c6157829003601f168201915b50505050508152602001600382018054611c97906136c8565b80601f0160208091040260200160405190810160405280929190818152602001828054611cc3906136c8565b8015611d105780601f10611ce557610100808354040283529160200191611d10565b820191906000526020600020905b815481529060010190602001808311611cf357829003601f168201915b50505050508152602001600482018054611d29906136c8565b80601f0160208091040260200160405190810160405280929190818152602001828054611d55906136c8565b8015611da25780601f10611d7757610100808354040283529160200191611da2565b820191906000526020600020905b815481529060010190602001808311611d8557829003601f168201915b50505050508152602001600582015481526020016006820160009054906101000a900460ff166003811115611e00577f4e487b7100000000000000000000000000000000000000000000000000000000600052602160045260246000fd5b6003811115611e38577f4e487b7100000000000000000000000000000000000000000000000000000000600052602160045260246000fd5b81525050828281518110611e75577f4e487b7100000000000000000000000000000000000000000000000000000000600052603260045260246000fd5b60200260200101819052508080611e8b9061372b565b915050611ac3565b508092505050919050565b816000600360008381526020019081526020016000205411611ef5576040517f08c379a0000000000000000000000000000000000000000000000000000000008152600401611eec9061330b565b60405180910390fd5b8260008054906101000a900473ffffffffffffffffffffffffffffffffffffffff1673ffffffffffffffffffffffffffffffffffffffff1663502fb9fd826040518263ffffffff1660e01b8152600401611f4f919061348d565b60206040518083038186803b158015611f6757600080fd5b505afa158015611f7b573d6000803e3d6000fd5b505050506040513d601f19601f82011682018060405250810190611f9f9190612bcc565b73ffffffffffffffffffffffffffffffffffffffff163373ffffffffffffffffffffffffffffffffffffffff16141561200d576040517f08c379a0000000000000000000000000000000000000000000000000000000008152600401612004906133eb565b60405180910390fd5b836006600082815260200190815260200160002060003373ffffffffffffffffffffffffffffffffffffffff1673ffffffffffffffffffffffffffffffffffffffff16815260200190815260200160002060009054906101000a900460ff166120ab576040517f08c379a00000000000000000000000000000000000000000000000000000000081526004016120a2906132eb565b60405180910390fd5b8484600160038111156120e7577f4e487b7100000000000000000000000000000000000000000000000000000000600052602160045260246000fd5b60046000848152602001908152602001600020600083815260200190815260200160002060060160009054906101000a900460ff166003811115612154577f4e487b7100000000000000000000000000000000000000000000000000000000600052602160045260246000fd5b14612194576040517f08c379a000000000000000000000000000000000000000000000000000000000815260040161218b9061332b565b60405180910390fd5b6000600460008981526020019081526020016000206000888152602001908152602001600020905060008060009054906101000a900473ffffffffffffffffffffffffffffffffffffffff1673ffffffffffffffffffffffffffffffffffffffff1663e924e64a8a6040518263ffffffff1660e01b8152600401612218919061348d565b60206040518083038186803b15801561223057600080fd5b505afa158015612244573d6000803e3d6000fd5b505050506040513d601f19601f820116820180604052508101906122689190612c1e565b905060028260060160006101000a81548160ff021916908360038111156122b8577f4e487b7100000000000000000000000000000000000000000000000000000000600052602160045260246000fd5b02179055507f0e9e4ec6fa83fe2a2893fd5d6517a890df20f72cc0ba40495b21e65d1222350389896040516122ee9291906134d1565b60405180910390a1505050505050505050565b816000600360008381526020019081526020016000205411612358576040517f08c379a000000000000000000000000000000000000000000000000000000000815260040161234f9061330b565b60405180910390fd5b8260008054906101000a900473ffffffffffffffffffffffffffffffffffffffff1673ffffffffffffffffffffffffffffffffffffffff1663502fb9fd826040518263ffffffff1660e01b81526004016123b2919061348d565b60206040518083038186803b1580156123ca57600080fd5b505afa1580156123de573d6000803e3d6000fd5b505050506040513d601f19601f820116820180604052508101906124029190612bcc565b73ffffffffffffffffffffffffffffffffffffffff163373ffffffffffffffffffffffffffffffffffffffff161461246f576040517f08c379a00000000000000000000000000000000000000000000000000000000081526004016124669061334b565b60405180910390fd5b8383600260038111156124ab577f4e487b7100000000000000000000000000000000000000000000000000000000600052602160045260246000fd5b60046000848152602001908152602001600020600083815260200190815260200160002060060160009054906101000a900460ff166003811115612518577f4e487b7100000000000000000000000000000000000000000000000000000000600052602160045260246000fd5b14612558576040517f08c379a000000000000000000000000000000000000000000000000000000000815260040161254f906132cb565b60405180910390fd5b600060046000888152602001908152602001600020600087815260200190815260200160002090508060050160008154809291906125959061372b565b919050555060008054906101000a900473ffffffffffffffffffffffffffffffffffffffff1673ffffffffffffffffffffffffffffffffffffffff1663aee78131886040518263ffffffff1660e01b81526004016125f3919061348d565b60206040518083038186803b15801561260b57600080fd5b505afa15801561261f573d6000803e3d6000fd5b505050506040513d601f19601f820116820180604052508101906126439190612c1e565b816005015414156126a65760038160060160006101000a81548160ff0219169083600381111561269c577f4e487b7100000000000000000000000000000000000000000000000000000000600052602160045260246000fd5b02179055506126fa565b60018160060160006101000a81548160ff021916908360038111156126f4577f4e487b7100000000000000000000000000000000000000000000000000000000600052602160045260246000fd5b02179055505b7f39f916cfa4e8a7f5d298df5a811d42bbbdfa00e81fdc65d937067ee18bfa2732878760405161272b9291906134d1565b60405180910390a150505050505050565b6000600254905090565b80600060036000838152602001908152602001600020541161279d576040517f08c379a00000000000000000000000000000000000000000000000000000000081526004016127949061330b565b60405180910390fd5b8160008054906101000a900473ffffffffffffffffffffffffffffffffffffffff1673ffffffffffffffffffffffffffffffffffffffff1663502fb9fd826040518263ffffffff1660e01b81526004016127f7919061348d565b60206040518083038186803b15801561280f57600080fd5b505afa158015612823573d6000803e3d6000fd5b505050506040513d601f19601f820116820180604052508101906128479190612bcc565b73ffffffffffffffffffffffffffffffffffffffff163373ffffffffffffffffffffffffffffffffffffffff16146128b4576040517f08c379a00000000000000000000000000000000000000000000000000000000081526004016128ab9061334b565b60405180910390fd5b82600060056000838152602001908152602001600020541461290b576040517f08c379a00000000000000000000000000000000000000000000000000000000081526004016129029061344b565b60405180910390fd5b60006003600086815260200190815260200160002081905550600260008154809291906129379061369e565b91905055507f43ca60b84bd2894d454ba359dbd0caa4433de61eebd8acc8ec44b38bfb7a82798460405161296b919061348d565b60405180910390a150505050565b60008060009054906101000a900473ffffffffffffffffffffffffffffffffffffffff16905090565b6040518060e00160405280600073ffffffffffffffffffffffffffffffffffffffff168152602001606081526020016060815260200160608152602001606081526020016000815260200160006003811115612a27577f4e487b7100000000000000000000000000000000000000000000000000000000600052602160045260246000fd5b81525090565b828054612a39906136c8565b90600052602060002090601f016020900481019282612a5b5760008555612aa2565b82601f10612a7457805160ff1916838001178555612aa2565b82800160010185558215612aa2579182015b82811115612aa1578251825591602001919060010190612a86565b5b509050612aaf9190612af3565b5090565b508054612abf906136c8565b6000825580601f10612ad15750612af0565b601f016020900490600052602060002090810190612aef9190612af3565b5b50565b5b80821115612b0c576000816000905550600101612af4565b5090565b6000612b23612b1e8461351f565b6134fa565b905082815260208101848484011115612b3b57600080fd5b612b4684828561365c565b509392505050565b600081359050612b5d81613b9a565b92915050565b600081519050612b7281613b9a565b92915050565b600082601f830112612b8957600080fd5b8135612b99848260208601612b10565b91505092915050565b600081359050612bb181613bb1565b92915050565b600081519050612bc681613bb1565b92915050565b600060208284031215612bde57600080fd5b6000612bec84828501612b63565b91505092915050565b600060208284031215612c0757600080fd5b6000612c1584828501612ba2565b91505092915050565b600060208284031215612c3057600080fd5b6000612c3e84828501612bb7565b91505092915050565b60008060408385031215612c5a57600080fd5b6000612c6885828601612ba2565b9250506020612c7985828601612b4e565b9150509250929050565b600080600080600060a08688031215612c9b57600080fd5b6000612ca988828901612ba2565b955050602086013567ffffffffffffffff811115612cc657600080fd5b612cd288828901612b78565b945050604086013567ffffffffffffffff811115612cef57600080fd5b612cfb88828901612b78565b935050606086013567ffffffffffffffff811115612d1857600080fd5b612d2488828901612b78565b925050608086013567ffffffffffffffff811115612d4157600080fd5b612d4d88828901612b78565b9150509295509295909350565b60008060408385031215612d6d57600080fd5b6000612d7b85828601612ba2565b9250506020612d8c85828601612ba2565b9150509250929050565b6000612da283836130d1565b905092915050565b6000612db68383613233565b60208301905092915050565b612dcb816135ef565b82525050565b612dda816135ef565b82525050565b6000612deb82613570565b612df581856135ab565b935083602082028501612e0785613550565b8060005b85811015612e435784840389528151612e248582612d96565b9450612e2f83613591565b925060208a01995050600181019050612e0b565b50829750879550505050505092915050565b6000612e608261357b565b612e6a81856135bc565b9350612e7583613560565b8060005b83811015612ea6578151612e8d8882612daa565b9750612e988361359e565b925050600181019050612e79565b5085935050505092915050565b612ebc81613601565b82525050565b612ecb8161364a565b82525050565b6000612edc82613586565b612ee681856135cd565b9350612ef681856020860161366b565b612eff81613830565b840191505092915050565b6000612f17601b836135de565b9150612f2282613841565b602082019050919050565b6000612f3a602f836135de565b9150612f458261386a565b604082019050919050565b6000612f5d601d836135de565b9150612f68826138b9565b602082019050919050565b6000612f806021836135de565b9150612f8b826138e2565b604082019050919050565b6000612fa36025836135de565b9150612fae82613931565b604082019050919050565b6000612fc66017836135de565b9150612fd182613980565b602082019050919050565b6000612fe96019836135de565b9150612ff4826139a9565b602082019050919050565b600061300c6033836135de565b9150613017826139d2565b604082019050919050565b600061302f6021836135de565b915061303a82613a21565b604082019050919050565b60006130526021836135de565b915061305d82613a70565b604082019050919050565b60006130756021836135de565b915061308082613abf565b604082019050919050565b60006130986029836135de565b91506130a382613b0e565b604082019050919050565b60006130bb601d836135de565b91506130c682613b5d565b602082019050919050565b600060e0830160008301516130e96000860182612dc2565b50602083015184820360208601526131018282612ed1565b9150506040830151848203604086015261311b8282612ed1565b915050606083015184820360608601526131358282612ed1565b9150506080830151848203608086015261314f8282612ed1565b91505060a083015161316460a0860182613233565b5060c083015161317760c0860182612ec2565b508091505092915050565b600060e08301600083015161319a6000860182612dc2565b50602083015184820360208601526131b28282612ed1565b915050604083015184820360408601526131cc8282612ed1565b915050606083015184820360608601526131e68282612ed1565b915050608083015184820360808601526132008282612ed1565b91505060a083015161321560a0860182613233565b5060c083015161322860c0860182612ec2565b508091505092915050565b61323c81613640565b82525050565b61324b81613640565b82525050565b60006020820190506132666000830184612dd1565b92915050565b600060208201905081810360008301526132868184612de0565b905092915050565b600060208201905081810360008301526132a88184612e55565b905092915050565b60006020820190506132c56000830184612eb3565b92915050565b600060208201905081810360008301526132e481612f0a565b9050919050565b6000602082019050818103600083015261330481612f2d565b9050919050565b6000602082019050818103600083015261332481612f50565b9050919050565b6000602082019050818103600083015261334481612f73565b9050919050565b6000602082019050818103600083015261336481612f96565b9050919050565b6000602082019050818103600083015261338481612fb9565b9050919050565b600060208201905081810360008301526133a481612fdc565b9050919050565b600060208201905081810360008301526133c481612fff565b9050919050565b600060208201905081810360008301526133e481613022565b9050919050565b6000602082019050818103600083015261340481613045565b9050919050565b6000602082019050818103600083015261342481613068565b9050919050565b600060208201905081810360008301526134448161308b565b9050919050565b60006020820190508181036000830152613464816130ae565b9050919050565b600060208201905081810360008301526134858184613182565b905092915050565b60006020820190506134a26000830184613242565b92915050565b60006040820190506134bd6000830185613242565b6134ca6020830184612eb3565b9392505050565b60006040820190506134e66000830185613242565b6134f36020830184613242565b9392505050565b6000613504613515565b905061351082826136fa565b919050565b6000604051905090565b600067ffffffffffffffff82111561353a57613539613801565b5b61354382613830565b9050602081019050919050565b6000819050602082019050919050565b6000819050602082019050919050565b600081519050919050565b600081519050919050565b600081519050919050565b6000602082019050919050565b6000602082019050919050565b600082825260208201905092915050565b600082825260208201905092915050565b600082825260208201905092915050565b600082825260208201905092915050565b60006135fa82613620565b9050919050565b60008115159050919050565b600081905061361b82613b86565b919050565b600073ffffffffffffffffffffffffffffffffffffffff82169050919050565b6000819050919050565b60006136558261360d565b9050919050565b82818337600083830152505050565b60005b8381101561368957808201518184015260208101905061366e565b83811115613698576000848401525b50505050565b60006136a982613640565b915060008214156136bd576136bc613774565b5b600182039050919050565b600060028204905060018216806136e057607f821691505b602082108114156136f4576136f36137d2565b5b50919050565b61370382613830565b810181811067ffffffffffffffff8211171561372257613721613801565b5b80604052505050565b600061373682613640565b91507fffffffffffffffffffffffffffffffffffffffffffffffffffffffffffffffff82141561376957613768613774565b5b600182019050919050565b7f4e487b7100000000000000000000000000000000000000000000000000000000600052601160045260246000fd5b7f4e487b7100000000000000000000000000000000000000000000000000000000600052602160045260246000fd5b7f4e487b7100000000000000000000000000000000000000000000000000000000600052602260045260246000fd5b7f4e487b7100000000000000000000000000000000000000000000000000000000600052604160045260246000fd5b6000601f19601f8301169050919050565b7f54656e616e7420686173206e6f74206d616465207061796d656e740000000000600082015250565b7f54656e616e7420686173206e6f74206170706c69656420666f7220746869732060008201527f72656e74616c2070726f70657274790000000000000000000000000000000000602082015250565b7f52656e74616c2070726f7065727479206973206e6f74206c6973746564000000600082015250565b7f52656e74616c206170706c69636174696f6e206973206e6f74206f6e676f696e60008201527f6700000000000000000000000000000000000000000000000000000000000000602082015250565b7f4f6e6c79206c616e646c6f72642063616e20706572666f726d2074686973206160008201527f6374696f6e000000000000000000000000000000000000000000000000000000602082015250565b7f52656e74616c2070726f70657274792069732066756c6c000000000000000000600082015250565b7f4e6f2072656e74616c2070726f7065727479206c697374656400000000000000600082015250565b7f54656e616e742068617320616c7265616479206170706c69656420666f72207460008201527f6869732072656e74616c2070726f706572747900000000000000000000000000602082015250565b7f52656e74616c206170706c69636174696f6e206973206e6f742070656e64696e60008201527f6700000000000000000000000000000000000000000000000000000000000000602082015250565b7f54656e616e742063616e6e6f7420706572666f726d207468697320616374696f60008201527f6e00000000000000000000000000000000000000000000000000000000000000602082015250565b7f52656e74616c2070726f706572747920697320616c7265616479206c6973746560008201527f6400000000000000000000000000000000000000000000000000000000000000602082015250565b7f4465706f736974204c65617365546f6b656e206d75737420626520677265617460008201527f6572207468616e20300000000000000000000000000000000000000000000000602082015250565b7f52656e74616c2070726f7065727479206973206e6f7420766163616e74000000600082015250565b60048110613b9757613b966137a3565b5b50565b613ba3816135ef565b8114613bae57600080fd5b50565b613bba81613640565b8114613bc557600080fd5b5056fea264697066735822122093745d5712620b77402702e651530bc740e845c78e680ab1de54b15dc65818ff64736f6c63430008010033",
  "immutableReferences": {},
  "source": "// SPDX-License-Identifier: MIT\npragma solidity ^0.8.0;\n\nimport \"./RentalProperty.sol\";\nimport \"./PaymentEscrow.sol\";\n\ncontract RentalMarketplace {\n    // ################################################### STRUCTURE & STATE VARIABLES ################################################### //\n\n    enum RentStatus {\n        PENDING, // This is when a tenant apply for a rental property and waiting for landlord to accept\n        ONGOING, // This is when a tenant sign a rental agreement and the rental is ongoing\n        MADE_PAYMENT, // This is when the tenant paid for a monthly rent and waiting for landlord to accept\n        COMPLETED // This is when the rental is completed for the tenant (e.g. tenant move out and landlord return deposit if any)\n    }\n\n    struct RentalApplication {\n        address tenantAddress; // The tenant\n        string tenantName; // The tenant name\n        string tenantEmail; // The tenant email\n        string tenantPhone; // The tenant contact\n        string description; // The tenant description of why they want to rent the property\n        uint256 monthsPaid; // The number of months the tenant has paid\n        RentStatus status;\n    }\n\n    RentalProperty rentalPropertyContract;\n    PaymentEscrow paymentEscrowContract;\n\n    // The number of rental properties listed in the marketplace\n    uint256 private numOfListedRentalProperty = 0;\n\n    // This is mapping of RentalProperty id to the downpayment/deposit of the property\n    mapping(uint256 => uint256) private listRentalProperty;\n    // This is mapping of RentalProperty id to the (RentalApplication id to RentalApplication struct) mapping\n    mapping(uint256 => mapping(uint256 => RentalApplication))\n        private rentalApplications;\n    // This is to keep track of the number of applications for a rental property (RentalProperty id to number of applications mapping)\n    mapping(uint256 => uint256) private rentalApplicationCounts;\n    // This is to keep track if a tenant has already applied for a rental property\n    mapping(uint256 => mapping(address => bool)) private hasApplied;\n\n    constructor(\n        address rentalPropertyAddress,\n        address paymentEscrowAddress\n    ) {\n        rentalPropertyContract = RentalProperty(rentalPropertyAddress);\n        paymentEscrowContract = PaymentEscrow(paymentEscrowAddress);\n    }\n\n    // ################################################### EVENTS ################################################### //\n\n    event RentalPropertyAdded(\n        uint256 rentalPropertyId,\n        uint256 depositLeaseToken\n    );\n    event RentalPropertyRemoved(uint256 rentalPropertyId);\n    event RentalApplicationSubmitted(\n        uint256 rentalPropertyId,\n        uint256 applicationId\n    );\n    event RentalApplicationRejected(\n        uint256 rentalPropertyId,\n        uint256 applicationId\n    );\n    event RentalApplicationAccepted(\n        uint256 rentalPropertyId,\n        uint256 applicationId\n    );\n    event PaymentMade(uint256 rentalPropertyId, uint256 applicationId);\n    event PaymentAccepted(uint256 rentalPropertyId, uint256 applicationId);\n\n    // ################################################### MODIFIERS ################################################### //\n\n    // Modifier to check the landlord is the owner of the rental property\n    modifier landlordOnly(uint256 rentalPropertyId) {\n        require(\n            msg.sender == rentalPropertyContract.getLandlord(rentalPropertyId),\n            \"Only landlord can perform this action\"\n        );\n        _;\n    }\n\n    // Modifier to check the tenant is not the owner of the rental property\n    modifier tenantOnly(uint256 rentalPropertyId) {\n        require(\n            msg.sender != rentalPropertyContract.getLandlord(rentalPropertyId),\n            \"Tenant cannot perform this action\"\n        );\n        _;\n    }\n\n    // Modifier to check the rental property is listed\n    modifier rentalPropertyListed(uint256 rentalPropertyId) {\n        require(\n            listRentalProperty[rentalPropertyId] > 0,\n            \"Rental property is not listed\"\n        );\n        _;\n    }\n\n    // Modifier to check the rental property is not listed\n    modifier rentalPropertyNotListed(uint256 rentalPropertyId) {\n        require(\n            listRentalProperty[rentalPropertyId] == 0,\n            \"Rental property is already listed\"\n        );\n        _;\n    }\n\n    // Modifier to check the rental application is pending\n    modifier rentalApplicationPending(\n        uint256 rentalPropertyId,\n        uint256 applicationId\n    ) {\n        require(\n            rentalApplications[rentalPropertyId][applicationId].status ==\n                RentStatus.PENDING,\n            \"Rental application is not pending\"\n        );\n        _;\n    }\n\n    // Modifier to check the rental application is ongoing\n    modifier rentalApplicationOngoing(\n        uint256 rentalPropertyId,\n        uint256 applicationId\n    ) {\n        require(\n            rentalApplications[rentalPropertyId][applicationId].status ==\n                RentStatus.ONGOING,\n            \"Rental application is not ongoing\"\n        );\n        _;\n    }\n\n    // Modifier to check the rental application is made payment\n    modifier rentalApplicationMadePayment(\n        uint256 rentalPropertyId,\n        uint256 applicationId\n    ) {\n        require(\n            rentalApplications[rentalPropertyId][applicationId].status ==\n                RentStatus.MADE_PAYMENT,\n            \"Tenant has not made payment\"\n        );\n        _;\n    }\n\n    // Modifier to check the rental application is completed\n    modifier rentalApplicationCompleted(\n        uint256 rentalPropertyId,\n        uint256 applicationId\n    ) {\n        require(\n            rentalApplications[rentalPropertyId][applicationId].status ==\n                RentStatus.COMPLETED,\n            \"Rental application is not completed\"\n        );\n        _;\n    }\n\n    // Modifier to check the rental property is vacant\n    modifier rentalPropertyVacant(uint256 rentalPropertyId) {\n        require(\n            rentalApplicationCounts[rentalPropertyId] == 0,\n            \"Rental property is not vacant\"\n        );\n        _;\n    }\n\n    // Modifier to check the number of rental applications is less than the number of tenants\n    modifier rentalPropertyNotFull(uint256 rentalPropertyId) {\n        require(\n            rentalApplicationCounts[rentalPropertyId] <\n                rentalPropertyContract.getNumOfTenants(rentalPropertyId),\n            \"Rental property is full\"\n        );\n        _;\n    }\n\n    // Modifier to check the rental property is full\n    modifier rentalPropertyFull(uint256 rentalPropertyId) {\n        require(\n            rentalApplicationCounts[rentalPropertyId] ==\n                rentalPropertyContract.getNumOfTenants(rentalPropertyId),\n            \"Rental property is not full\"\n        );\n        _;\n    }\n\n    // Modifier to check the tenant has not applied for the rental property\n    modifier tenantNotApplied(uint256 rentalPropertyId) {\n        require(\n            !hasApplied[rentalPropertyId][msg.sender],\n            \"Tenant has already applied for this rental property\"\n        );\n        _;\n    }\n\n    // Modifier to check the tenant has applied for the rental property\n    modifier tenantApplied(uint256 rentalPropertyId) {\n        require(\n            hasApplied[rentalPropertyId][msg.sender],\n            \"Tenant has not applied for this rental property\"\n        );\n        _;\n    }\n\n    // Modifier to check Deposit LeaseToken is greater than 0\n    modifier depositLeaseTokenGreaterThanZero(uint256 depositLeaseToken) {\n        require(\n            depositLeaseToken > 0,\n            \"Deposit LeaseToken must be greater than 0\"\n        );\n        _;\n    }\n\n    // ################################################### FUNCTIONS ################################################### //\n\n    //Landlord can list a rental property to the marketplace to start accepting tenants.\n    function listARentalProperty(\n        uint256 rentalPropertyId,\n        uint256 depositLeaseToken\n    )\n        public\n        rentalPropertyNotListed(rentalPropertyId)\n        depositLeaseTokenGreaterThanZero(depositLeaseToken)\n        landlordOnly(rentalPropertyId)\n    {\n        listRentalProperty[rentalPropertyId] = depositLeaseToken;\n        numOfListedRentalProperty++;\n        emit RentalPropertyAdded(rentalPropertyId, depositLeaseToken);\n    }\n\n    //Landlord can unlist a rental property from the marketplace to stop accepting tenants.\n    function unlistARentalProperty(\n        uint256 rentalPropertyId\n    )\n        public\n        rentalPropertyListed(rentalPropertyId)\n        landlordOnly(rentalPropertyId)\n        rentalPropertyVacant(rentalPropertyId)\n    {\n        listRentalProperty[rentalPropertyId] = 0;\n        numOfListedRentalProperty--;\n        emit RentalPropertyRemoved(rentalPropertyId);\n    }\n\n    //Tenant can view all listed rental properties (By Id) in the marketplace.\n    function viewListedRentalPropertiesById()\n        public\n        view\n        returns (uint256[] memory)\n    {\n        require(numOfListedRentalProperty > 0, \"No rental property listed\");\n        uint256[] memory rentalProperties = new uint256[](\n            numOfListedRentalProperty\n        );\n        uint256 index = 0;\n        for (\n            uint256 i = 0;\n            i < rentalPropertyContract.getNumRentalProperty();\n            i++\n        ) {\n            // Check if the rental property is listed\n            if (listRentalProperty[i] > 0) {\n                rentalProperties[index] = i;\n                index++;\n            }\n        }\n        return rentalProperties;\n    }\n\n    //Landlord can view all rental applications for a rental property.\n    function viewRentalApplications(\n        uint256 rentalPropertyId\n    )\n        public\n        view\n        landlordOnly(rentalPropertyId)\n        returns (RentalApplication[] memory)\n    {\n        RentalApplication[] memory applications = new RentalApplication[](\n            rentalApplicationCounts[rentalPropertyId]\n        );\n        for (\n            uint256 i = 0;\n            i < rentalApplicationCounts[rentalPropertyId];\n            i++\n        ) {\n            applications[i] = rentalApplications[rentalPropertyId][i];\n        }\n        return applications;\n    }\n\n    //Tenant can apply for a rental property by submitting a rental application.\n    function applyRentalProperty(\n        uint256 rentalPropertyId,\n        string memory tenantName,\n        string memory tenantEmail,\n        string memory tenantPhone,\n        string memory description\n    )\n        public\n        tenantOnly(rentalPropertyId)\n        rentalPropertyListed(rentalPropertyId)\n        rentalPropertyNotFull(rentalPropertyId)\n        tenantNotApplied(rentalPropertyId)\n    {\n        uint256 applicationId = rentalApplicationCounts[rentalPropertyId];\n        rentalApplications[rentalPropertyId][applicationId] = RentalApplication(\n            msg.sender,\n            tenantName,\n            tenantEmail,\n            tenantPhone,\n            description,\n            0,\n            RentStatus.PENDING\n        );\n        rentalApplicationCounts[rentalPropertyId]++;\n        hasApplied[rentalPropertyId][msg.sender] = true;\n        // Landlord cannot update the rental property while there is an ongoing application\n        rentalPropertyContract.setUpdateStatus(rentalPropertyId, false);\n        emit RentalApplicationSubmitted(rentalPropertyId, applicationId);\n    }\n\n    // Landlord can reject a rental application.\n    function rejectRentalApplication(\n        uint256 rentalPropertyId,\n        uint256 applicationId\n    )\n        public\n        landlordOnly(rentalPropertyId)\n        rentalApplicationPending(rentalPropertyId, applicationId)\n    {\n        RentalApplication storage rentalApplication = rentalApplications[\n            rentalPropertyId\n        ][applicationId];\n\n        // Application count is reduced by 1\n        rentalApplicationCounts[rentalPropertyId]--;\n        // Tenant can reapply for the rental property\n        hasApplied[rentalPropertyId][rentalApplication.tenantAddress] = false;\n        // Remove the rental application\n        delete rentalApplications[rentalPropertyId][applicationId];\n\n        if (rentalApplicationCounts[rentalPropertyId] == 0) {\n            // Landlord can re-update the rental property if there is no ongoing application\n            rentalPropertyContract.setUpdateStatus(rentalPropertyId, true);\n        }\n        emit RentalApplicationRejected(rentalPropertyId, applicationId);\n    }\n\n    //Landlord can accept a rental application to start the rental process.\n    function acceptRentalApplication(\n        uint256 rentalPropertyId,\n        uint256 applicationId\n    )\n        public\n        landlordOnly(rentalPropertyId)\n        rentalApplicationPending(rentalPropertyId, applicationId)\n    {\n        RentalApplication storage rentalApplication = rentalApplications[\n            rentalPropertyId\n        ][applicationId];\n\n        uint256 depositLeaseToken = listRentalProperty[rentalPropertyId];\n\n        // uint256 paymentId = paymentEscrowContract.createApplicationPayment(\n        //     rentalPropertyContract.getLandlord(rentalPropertyId),\n        //     rentalApplication.tenantId,\n        //     rentalPropertyId,\n        //     depositLeaseToken,\n        // );\n\n        rentalApplication.status = RentStatus.ONGOING;\n        emit RentalApplicationAccepted(rentalPropertyId, applicationId);\n    }\n\n    //Tenant can make a payment for the rental property.\n    function makePayment(\n        uint256 rentalPropertyId,\n        uint256 applicationId\n    )\n        public\n        rentalPropertyListed(rentalPropertyId)\n        tenantOnly(rentalPropertyId)\n        tenantApplied(rentalPropertyId)\n        rentalApplicationOngoing(rentalPropertyId, applicationId)\n    {\n        RentalApplication storage rentalApplication = rentalApplications[\n            rentalPropertyId\n        ][applicationId];\n\n        uint256 monthlyRent = rentalPropertyContract.getRentalPrice(\n            rentalPropertyId\n        );\n\n        // uint256 paymentId = paymentEscrowContract.initiateRentPayment(\n        //     rentalPropertyContract.getLandlord(rentalPropertyId),\n        //     rentalApplication.tenantId,\n        //     rentalPropertyId,\n        //     monthlyRent\n        // );\n\n        rentalApplication.status = RentStatus.MADE_PAYMENT;\n        emit PaymentMade(rentalPropertyId, applicationId);\n    }\n\n    //Landlord can accept a payment from a tenant.\n    function acceptPayment(\n        uint256 rentalPropertyId,\n        uint256 applicationId\n    )\n        public\n        rentalPropertyListed(rentalPropertyId)\n        landlordOnly(rentalPropertyId)\n        rentalApplicationMadePayment(rentalPropertyId, applicationId)\n    {\n        RentalApplication storage rentalApplication = rentalApplications[\n            rentalPropertyId\n        ][applicationId];\n        // paymentEscrowContract.confirmRentPayment(\n        //     rentalPropertyContract.getLandlord(rentalPropertyId),\n        //     rentalApplication.tenantAddress,\n        //     rentalPropertyId\n        // );\n\n        rentalApplication.monthsPaid++;\n\n        if (\n            rentalApplication.monthsPaid ==\n            rentalPropertyContract.getLeaseDuration(rentalPropertyId)\n        ) {\n            rentalApplication.status = RentStatus.COMPLETED;\n        } else {\n            rentalApplication.status = RentStatus.ONGOING;\n        }\n        emit PaymentAccepted(rentalPropertyId, applicationId);\n    }\n\n    // ################################################### GETTER METHODS ################################################### //\n\n    //Get the number of listed rental properties in the marketplace.\n    function getNumOfListedRentalProperty() public view returns (uint256) {\n        return numOfListedRentalProperty;\n    }\n\n    //Get the rental application details for a rental property.\n    function getRentalApplication(\n        uint256 rentalPropertyId,\n        uint256 applicationId\n    ) public view returns (RentalApplication memory) {\n        return rentalApplications[rentalPropertyId][applicationId];\n    }\n\n    //Get the number of rental applications for a rental property.\n    function getRentalApplicationCount(\n        uint256 rentalPropertyId\n    ) public view returns (uint256) {\n        return rentalApplicationCounts[rentalPropertyId];\n    }\n\n    //Check if a tenant has applied for a rental property.\n    function getHasApplied(\n        uint256 rentalPropertyId,\n        address tenantAddress\n    ) public view returns (bool) {\n        return hasApplied[rentalPropertyId][tenantAddress];\n    }\n\n    //Get the deposit required for a rental property.\n    function getListedRentalProperty(\n        uint256 rentalPropertyId\n    ) public view returns (uint256) {\n        return listRentalProperty[rentalPropertyId];\n    }\n\n    //Get the address of the RentalProperty contract.\n    function getRentalPropertyContractAddress() public view returns (address) {\n        return address(rentalPropertyContract);\n    }\n\n    //Get the address of the PaymentEscrow contract.\n    function getPaymentEscrowContractAddress() public view returns (address) {\n        return address(paymentEscrowContract);\n    }\n\n}\n",
  "sourcePath": "/Users/Mike/Documents/GitHub/is4302-G13-project/contracts/RentalMarketplace.sol",
  "compiler": {
    "name": "solc",
    "version": "0.8.1+commit.df193b15.Emscripten.clang"
  },
  "schemaVersion": "3.4.16",
  "updatedAt": "2024-04-06T15:33:03.582Z",
  "networkType": "ethereum",
  "devdoc": {
    "kind": "dev",
    "methods": {},
    "version": 1
  },
  "userdoc": {
    "kind": "user",
    "methods": {},
    "version": 1
  }
}