{
  "contractName": "RentalMarketplace",
  "abi": [
    {
      "inputs": [
        {
          "internalType": "address",
          "name": "rentalPropertyAddress",
          "type": "address"
        },
        {
          "internalType": "address",
          "name": "paymentEscrowAddress",
          "type": "address"
        }
      ],
      "stateMutability": "nonpayable",
      "type": "constructor"
    },
    {
      "anonymous": false,
      "inputs": [
        {
          "indexed": false,
          "internalType": "uint256",
          "name": "rentalPropertyId",
          "type": "uint256"
        },
        {
          "indexed": false,
          "internalType": "uint256",
          "name": "applicationId",
          "type": "uint256"
        }
      ],
      "name": "PaymentAccepted",
      "type": "event"
    },
    {
      "anonymous": false,
      "inputs": [
        {
          "indexed": false,
          "internalType": "uint256",
          "name": "rentalPropertyId",
          "type": "uint256"
        },
        {
          "indexed": false,
          "internalType": "uint256",
          "name": "applicationId",
          "type": "uint256"
        }
      ],
      "name": "PaymentMade",
      "type": "event"
    },
    {
      "anonymous": false,
      "inputs": [
        {
          "indexed": false,
          "internalType": "uint256",
          "name": "rentalPropertyId",
          "type": "uint256"
        },
        {
          "indexed": false,
          "internalType": "uint256",
          "name": "applicationId",
          "type": "uint256"
        }
      ],
      "name": "RentalApplicationAccepted",
      "type": "event"
    },
    {
      "anonymous": false,
      "inputs": [
        {
          "indexed": false,
          "internalType": "uint256",
          "name": "rentalPropertyId",
          "type": "uint256"
        },
        {
          "indexed": false,
          "internalType": "uint256",
          "name": "applicationId",
          "type": "uint256"
        }
      ],
      "name": "RentalApplicationRejected",
      "type": "event"
    },
    {
      "anonymous": false,
      "inputs": [
        {
          "indexed": false,
          "internalType": "uint256",
          "name": "rentalPropertyId",
          "type": "uint256"
        },
        {
          "indexed": false,
          "internalType": "uint256",
          "name": "applicationId",
          "type": "uint256"
        }
      ],
      "name": "RentalApplicationSubmitted",
      "type": "event"
    },
    {
      "anonymous": false,
      "inputs": [
        {
          "indexed": false,
          "internalType": "uint256",
          "name": "rentalPropertyId",
          "type": "uint256"
        },
        {
          "indexed": false,
          "internalType": "uint256",
          "name": "depositFee",
          "type": "uint256"
        }
      ],
      "name": "RentalPropertyListed",
      "type": "event"
    },
    {
      "anonymous": false,
      "inputs": [
        {
          "indexed": false,
          "internalType": "uint256",
          "name": "rentalPropertyId",
          "type": "uint256"
        }
      ],
      "name": "RentalPropertyUnlisted",
      "type": "event"
    },
    {
      "anonymous": false,
      "inputs": [
        {
          "indexed": false,
          "internalType": "uint256",
          "name": "rentalPropertyId",
          "type": "uint256"
        },
        {
          "indexed": false,
          "internalType": "uint256",
          "name": "applicationId",
          "type": "uint256"
        }
      ],
      "name": "tenantMoveOut",
      "type": "event"
    },
    {
      "inputs": [
        {
          "internalType": "uint256",
          "name": "rentalPropertyId",
          "type": "uint256"
        },
        {
          "internalType": "uint256",
          "name": "depositFee",
          "type": "uint256"
        }
      ],
      "name": "listARentalProperty",
      "outputs": [],
      "stateMutability": "nonpayable",
      "type": "function"
    },
    {
      "inputs": [
        {
          "internalType": "uint256",
          "name": "rentalPropertyId",
          "type": "uint256"
        }
      ],
      "name": "unlistARentalProperty",
      "outputs": [],
      "stateMutability": "nonpayable",
      "type": "function"
    },
    {
      "inputs": [
        {
          "internalType": "uint256",
          "name": "rentalPropertyId",
          "type": "uint256"
        },
        {
          "internalType": "string",
          "name": "tenantName",
          "type": "string"
        },
        {
          "internalType": "string",
          "name": "tenantEmail",
          "type": "string"
        },
        {
          "internalType": "string",
          "name": "tenantPhone",
          "type": "string"
        },
        {
          "internalType": "string",
          "name": "description",
          "type": "string"
        }
      ],
      "name": "applyRentalProperty",
      "outputs": [],
      "stateMutability": "nonpayable",
      "type": "function"
    },
    {
      "inputs": [
        {
          "internalType": "uint256",
          "name": "rentalPropertyId",
          "type": "uint256"
        },
        {
          "internalType": "uint256",
          "name": "applicationId",
          "type": "uint256"
        }
      ],
      "name": "rejectRentalApplication",
      "outputs": [],
      "stateMutability": "nonpayable",
      "type": "function"
    },
    {
      "inputs": [
        {
          "internalType": "uint256",
          "name": "rentalPropertyId",
          "type": "uint256"
        },
        {
          "internalType": "uint256",
          "name": "applicationId",
          "type": "uint256"
        }
      ],
      "name": "acceptRentalApplication",
      "outputs": [],
      "stateMutability": "nonpayable",
      "type": "function"
    },
    {
      "inputs": [
        {
          "internalType": "uint256",
          "name": "rentalPropertyId",
          "type": "uint256"
        },
        {
          "internalType": "uint256",
          "name": "applicationId",
          "type": "uint256"
        }
      ],
      "name": "makePayment",
      "outputs": [],
      "stateMutability": "nonpayable",
      "type": "function"
    },
    {
      "inputs": [
        {
          "internalType": "uint256",
          "name": "rentalPropertyId",
          "type": "uint256"
        },
        {
          "internalType": "uint256",
          "name": "applicationId",
          "type": "uint256"
        }
      ],
      "name": "acceptPayment",
      "outputs": [],
      "stateMutability": "nonpayable",
      "type": "function"
    },
    {
      "inputs": [
        {
          "internalType": "uint256",
          "name": "rentalPropertyId",
          "type": "uint256"
        },
        {
          "internalType": "uint256",
          "name": "applicationId",
          "type": "uint256"
        }
      ],
      "name": "moveOut",
      "outputs": [],
      "stateMutability": "nonpayable",
      "type": "function"
    },
    {
      "inputs": [
        {
          "internalType": "uint256",
          "name": "rentalPropertyId",
          "type": "uint256"
        },
        {
          "internalType": "uint256",
          "name": "applicationId",
          "type": "uint256"
        }
      ],
      "name": "getRentalApplication",
      "outputs": [
        {
          "components": [
            {
              "internalType": "uint256",
              "name": "rentalPropertyId",
              "type": "uint256"
            },
            {
              "internalType": "uint256",
              "name": "applicationId",
              "type": "uint256"
            },
            {
              "internalType": "address",
              "name": "tenantAddress",
              "type": "address"
            },
            {
              "internalType": "string",
              "name": "tenantName",
              "type": "string"
            },
            {
              "internalType": "string",
              "name": "tenantEmail",
              "type": "string"
            },
            {
              "internalType": "string",
              "name": "tenantPhone",
              "type": "string"
            },
            {
              "internalType": "string",
              "name": "description",
              "type": "string"
            },
            {
              "internalType": "uint256",
              "name": "monthsPaid",
              "type": "uint256"
            },
            {
              "internalType": "enum RentalMarketplace.RentStatus",
              "name": "status",
              "type": "uint8"
            },
            {
              "internalType": "uint256[]",
              "name": "paymentIds",
              "type": "uint256[]"
            }
          ],
          "internalType": "struct RentalMarketplace.RentalApplication",
          "name": "",
          "type": "tuple"
        }
      ],
      "stateMutability": "view",
      "type": "function",
      "constant": true
    },
    {
      "inputs": [
        {
          "internalType": "uint256",
          "name": "rentalPropertyId",
          "type": "uint256"
        }
      ],
      "name": "getRentalApplicationsFromRentalProperty",
      "outputs": [
        {
          "components": [
            {
              "internalType": "uint256",
              "name": "rentalPropertyId",
              "type": "uint256"
            },
            {
              "internalType": "uint256",
              "name": "applicationId",
              "type": "uint256"
            },
            {
              "internalType": "address",
              "name": "tenantAddress",
              "type": "address"
            },
            {
              "internalType": "string",
              "name": "tenantName",
              "type": "string"
            },
            {
              "internalType": "string",
              "name": "tenantEmail",
              "type": "string"
            },
            {
              "internalType": "string",
              "name": "tenantPhone",
              "type": "string"
            },
            {
              "internalType": "string",
              "name": "description",
              "type": "string"
            },
            {
              "internalType": "uint256",
              "name": "monthsPaid",
              "type": "uint256"
            },
            {
              "internalType": "enum RentalMarketplace.RentStatus",
              "name": "status",
              "type": "uint8"
            },
            {
              "internalType": "uint256[]",
              "name": "paymentIds",
              "type": "uint256[]"
            }
          ],
          "internalType": "struct RentalMarketplace.RentalApplication[]",
          "name": "",
          "type": "tuple[]"
        }
      ],
      "stateMutability": "view",
      "type": "function",
      "constant": true
    },
    {
      "inputs": [
        {
          "internalType": "uint256",
          "name": "rentalPropertyId",
          "type": "uint256"
        }
      ],
      "name": "getRentalApplicationCount",
      "outputs": [
        {
          "internalType": "uint256",
          "name": "",
          "type": "uint256"
        }
      ],
      "stateMutability": "view",
      "type": "function",
      "constant": true
    },
    {
      "inputs": [
        {
          "internalType": "uint256",
          "name": "rentalPropertyId",
          "type": "uint256"
        },
        {
          "internalType": "address",
          "name": "tenantAddress",
          "type": "address"
        }
      ],
      "name": "getHasApplied",
      "outputs": [
        {
          "internalType": "bool",
          "name": "",
          "type": "bool"
        }
      ],
      "stateMutability": "view",
      "type": "function",
      "constant": true
    },
    {
      "inputs": [
        {
          "internalType": "address",
          "name": "tenantAddress",
          "type": "address"
        }
      ],
      "name": "getRentalApplicationCountByTenant",
      "outputs": [
        {
          "internalType": "uint256",
          "name": "",
          "type": "uint256"
        }
      ],
      "stateMutability": "view",
      "type": "function",
      "constant": true
    },
    {
      "inputs": [
        {
          "internalType": "address",
          "name": "tenantAddress",
          "type": "address"
        }
      ],
      "name": "getRentalPropertiesAppliedByTenant",
      "outputs": [
        {
          "components": [
            {
              "internalType": "uint256",
              "name": "rentalPropertyId",
              "type": "uint256"
            },
            {
              "internalType": "uint256",
              "name": "applicationId",
              "type": "uint256"
            },
            {
              "internalType": "address",
              "name": "tenantAddress",
              "type": "address"
            },
            {
              "internalType": "string",
              "name": "tenantName",
              "type": "string"
            },
            {
              "internalType": "string",
              "name": "tenantEmail",
              "type": "string"
            },
            {
              "internalType": "string",
              "name": "tenantPhone",
              "type": "string"
            },
            {
              "internalType": "string",
              "name": "description",
              "type": "string"
            },
            {
              "internalType": "uint256",
              "name": "monthsPaid",
              "type": "uint256"
            },
            {
              "internalType": "enum RentalMarketplace.RentStatus",
              "name": "status",
              "type": "uint8"
            },
            {
              "internalType": "uint256[]",
              "name": "paymentIds",
              "type": "uint256[]"
            }
          ],
          "internalType": "struct RentalMarketplace.RentalApplication[]",
          "name": "",
          "type": "tuple[]"
        }
      ],
      "stateMutability": "view",
      "type": "function",
      "constant": true
    },
    {
      "inputs": [
        {
          "internalType": "uint256",
          "name": "rentalPropertyId",
          "type": "uint256"
        }
      ],
      "name": "getDepositAmount",
      "outputs": [
        {
          "internalType": "uint256",
          "name": "",
          "type": "uint256"
        }
      ],
      "stateMutability": "view",
      "type": "function",
      "constant": true
    }
  ],
  "bytecode": "0x60806040523480156200001157600080fd5b50604051620060cb380380620060cb8339818101604052810190620000379190620000d7565b816000806101000a81548173ffffffffffffffffffffffffffffffffffffffff021916908373ffffffffffffffffffffffffffffffffffffffff16021790555080600160006101000a81548173ffffffffffffffffffffffffffffffffffffffff021916908373ffffffffffffffffffffffffffffffffffffffff160217905550505062000166565b600081519050620000d1816200014c565b92915050565b60008060408385031215620000eb57600080fd5b6000620000fb85828601620000c0565b92505060206200010e85828601620000c0565b9150509250929050565b600062000125826200012c565b9050919050565b600073ffffffffffffffffffffffffffffffffffffffff82169050919050565b620001578162000118565b81146200016357600080fd5b50565b615f5580620001766000396000f3fe608060405234801561001057600080fd5b50600436106100f55760003560e01c806368c5bf1a11610097578063d390f97411610066578063d390f974146102a6578063d53cdfdf146102c2578063e192bea4146102de578063ed1da3721461030e576100f5565b806368c5bf1a1461020e5780636dd223f21461023e5780639e9a23151461025a578063a8496cf914610276576100f5565b80631e6db401116100d35780631e6db40114610176578063378de45b1461019257806337e4532f146101c25780635c813ced146101de576100f5565b80630bba023d146100fa5780630eaecbf11461012a57806312db214914610146575b600080fd5b610114600480360381019061010f9190614c57565b61032a565b604051610121919061564b565b60405180910390f35b610144600480360381019061013f9190614dbc565b610347565b005b610160600480360381019061015b9190614bdc565b610986565b60405161016d91906153ec565b60405180910390f35b610190600480360381019061018b9190614dbc565b610f5c565b005b6101ac60048036038101906101a79190614c57565b6113a7565b6040516101b9919061564b565b60405180910390f35b6101dc60048036038101906101d79190614dbc565b6113c4565b005b6101f860048036038101906101f39190614c57565b6118d9565b60405161020591906153ec565b60405180910390f35b61022860048036038101906102239190614dbc565b611ece565b6040516102359190615629565b60405180910390f35b61025860048036038101906102539190614ce5565b6122a9565b005b610274600480360381019061026f9190614dbc565b612b76565b005b610290600480360381019061028b9190614ca9565b612f72565b60405161029d919061540e565b60405180910390f35b6102c060048036038101906102bb9190614dbc565b612fda565b005b6102dc60048036038101906102d79190614dbc565b613695565b005b6102f860048036038101906102f39190614bdc565b613d0a565b604051610305919061564b565b60405180910390f35b61032860048036038101906103239190614c57565b613e48565b005b600060046000838152602001908152602001600020549050919050565b816001151560008054906101000a900473ffffffffffffffffffffffffffffffffffffffff1673ffffffffffffffffffffffffffffffffffffffff16639fa6bd07836040518263ffffffff1660e01b81526004016103a5919061564b565b60206040518083038186803b1580156103bd57600080fd5b505afa1580156103d1573d6000803e3d6000fd5b505050506040513d601f19601f820116820180604052508101906103f59190614c2e565b151514610437576040517f08c379a000000000000000000000000000000000000000000000000000000000815260040161042e906154a9565b60405180910390fd5b826005600082815260200190815260200160002060003373ffffffffffffffffffffffffffffffffffffffff1673ffffffffffffffffffffffffffffffffffffffff16815260200190815260200160002060009054906101000a900460ff166104d5576040517f08c379a00000000000000000000000000000000000000000000000000000000081526004016104cc90615469565b60405180910390fd5b8383600073ffffffffffffffffffffffffffffffffffffffff1660036000848152602001908152602001600020600083815260200190815260200160002060020160009054906101000a900473ffffffffffffffffffffffffffffffffffffffff1673ffffffffffffffffffffffffffffffffffffffff16141561058e576040517f08c379a0000000000000000000000000000000000000000000000000000000008152600401610585906155a9565b60405180910390fd5b85856003808111156105c9577f4e487b7100000000000000000000000000000000000000000000000000000000600052602160045260246000fd5b60036000848152602001908152602001600020600083815260200190815260200160002060080160009054906101000a900460ff166003811115610636577f4e487b7100000000000000000000000000000000000000000000000000000000600052602160045260246000fd5b14610676576040517f08c379a000000000000000000000000000000000000000000000000000000000815260040161066d90615569565b60405180910390fd5b60008054906101000a900473ffffffffffffffffffffffffffffffffffffffff1673ffffffffffffffffffffffffffffffffffffffff1663502fb9fd896040518263ffffffff1660e01b81526004016106cf919061564b565b60206040518083038186803b1580156106e757600080fd5b505afa1580156106fb573d6000803e3d6000fd5b505050506040513d601f19601f8201168201806040525081019061071f9190614c05565b73ffffffffffffffffffffffffffffffffffffffff163373ffffffffffffffffffffffffffffffffffffffff16141561078d576040517f08c379a0000000000000000000000000000000000000000000000000000000008152600401610784906155c9565b60405180910390fd5b6000600260008a8152602001908152602001600020549050600061085a60008054906101000a900473ffffffffffffffffffffffffffffffffffffffff1673ffffffffffffffffffffffffffffffffffffffff1663502fb9fd8c6040518263ffffffff1660e01b8152600401610803919061564b565b60206040518083038186803b15801561081b57600080fd5b505afa15801561082f573d6000803e3d6000fd5b505050506040513d601f19601f820116820180604052508101906108539190614c05565b33846143cd565b9050600160009054906101000a900473ffffffffffffffffffffffffffffffffffffffff1673ffffffffffffffffffffffffffffffffffffffff166337bdc99b826040518263ffffffff1660e01b81526004016108b7919061564b565b600060405180830381600087803b1580156108d157600080fd5b505af11580156108e5573d6000803e3d6000fd5b50505050600360008b815260200190815260200160002060008a81526020019081526020016000206009018190806001815401808255809150506001900390600052602060002001600090919091909150556109418a8a61451b565b7f8273b59bc83cd02c814bfbf09c1ba527ce27c7e00c0c6529353b2d5e891b5ee48a8a6040516109729291906156b8565b60405180910390a150505050505050505050565b6060600061099383613d0a565b905060008167ffffffffffffffff8111156109d7577f4e487b7100000000000000000000000000000000000000000000000000000000600052604160045260246000fd5b604051908082528060200260200182016040528015610a1057816020015b6109fd614919565b8152602001906001900390816109f55790505b5090506000805b60008054906101000a900473ffffffffffffffffffffffffffffffffffffffff1673ffffffffffffffffffffffffffffffffffffffff1663e1ba0b806040518163ffffffff1660e01b815260040160206040518083038186803b158015610a7d57600080fd5b505afa158015610a91573d6000803e3d6000fd5b505050506040513d601f19601f82011682018060405250810190610ab59190614c80565b811015610f50576005600082815260200190815260200160002060008773ffffffffffffffffffffffffffffffffffffffff1673ffffffffffffffffffffffffffffffffffffffff16815260200190815260200160002060009054906101000a900460ff1615610f3d576003600082815260200190815260200160002060008281526020019081526020016000206040518061014001604052908160008201548152602001600182015481526020016002820160009054906101000a900473ffffffffffffffffffffffffffffffffffffffff1673ffffffffffffffffffffffffffffffffffffffff1673ffffffffffffffffffffffffffffffffffffffff168152602001600382018054610bc9906158f5565b80601f0160208091040260200160405190810160405280929190818152602001828054610bf5906158f5565b8015610c425780601f10610c1757610100808354040283529160200191610c42565b820191906000526020600020905b815481529060010190602001808311610c2557829003601f168201915b50505050508152602001600482018054610c5b906158f5565b80601f0160208091040260200160405190810160405280929190818152602001828054610c87906158f5565b8015610cd45780601f10610ca957610100808354040283529160200191610cd4565b820191906000526020600020905b815481529060010190602001808311610cb757829003601f168201915b50505050508152602001600582018054610ced906158f5565b80601f0160208091040260200160405190810160405280929190818152602001828054610d19906158f5565b8015610d665780601f10610d3b57610100808354040283529160200191610d66565b820191906000526020600020905b815481529060010190602001808311610d4957829003601f168201915b50505050508152602001600682018054610d7f906158f5565b80601f0160208091040260200160405190810160405280929190818152602001828054610dab906158f5565b8015610df85780601f10610dcd57610100808354040283529160200191610df8565b820191906000526020600020905b815481529060010190602001808311610ddb57829003601f168201915b50505050508152602001600782015481526020016008820160009054906101000a900460ff166003811115610e56577f4e487b7100000000000000000000000000000000000000000000000000000000600052602160045260246000fd5b6003811115610e8e577f4e487b7100000000000000000000000000000000000000000000000000000000600052602160045260246000fd5b815260200160098201805480602002602001604051908101604052809291908181526020018280548015610ee157602002820191906000526020600020905b815481526020019060010190808311610ecd575b505050505081525050838381518110610f23577f4e487b7100000000000000000000000000000000000000000000000000000000600052603260045260246000fd5b60200260200101819052508180610f3990615958565b9250505b8080610f4890615958565b915050610a17565b50819350505050919050565b8160008054906101000a900473ffffffffffffffffffffffffffffffffffffffff1673ffffffffffffffffffffffffffffffffffffffff1663502fb9fd826040518263ffffffff1660e01b8152600401610fb6919061564b565b60206040518083038186803b158015610fce57600080fd5b505afa158015610fe2573d6000803e3d6000fd5b505050506040513d601f19601f820116820180604052508101906110069190614c05565b73ffffffffffffffffffffffffffffffffffffffff163373ffffffffffffffffffffffffffffffffffffffff1614611073576040517f08c379a000000000000000000000000000000000000000000000000000000000815260040161106a906154e9565b60405180910390fd5b8282600073ffffffffffffffffffffffffffffffffffffffff1660036000848152602001908152602001600020600083815260200190815260200160002060020160009054906101000a900473ffffffffffffffffffffffffffffffffffffffff1673ffffffffffffffffffffffffffffffffffffffff16141561112c576040517f08c379a0000000000000000000000000000000000000000000000000000000008152600401611123906155a9565b60405180910390fd5b848460006003811115611168577f4e487b7100000000000000000000000000000000000000000000000000000000600052602160045260246000fd5b60036000848152602001908152602001600020600083815260200190815260200160002060080160009054906101000a900460ff1660038111156111d5577f4e487b7100000000000000000000000000000000000000000000000000000000600052602160045260246000fd5b14611215576040517f08c379a000000000000000000000000000000000000000000000000000000000815260040161120c90615549565b60405180910390fd5b60006003600089815260200190815260200160002060008881526020019081526020016000209050600160009054906101000a900473ffffffffffffffffffffffffffffffffffffffff1673ffffffffffffffffffffffffffffffffffffffff166337bdc99b826009016000815481106112b8577f4e487b7100000000000000000000000000000000000000000000000000000000600052603260045260246000fd5b90600052602060002001546040518263ffffffff1660e01b81526004016112df919061564b565b600060405180830381600087803b1580156112f957600080fd5b505af115801561130d573d6000803e3d6000fd5b5050505060018160080160006101000a81548160ff0219169083600381111561135f577f4e487b7100000000000000000000000000000000000000000000000000000000600052602160045260246000fd5b02179055507f442e20c6478bbe9858918a786d22ceed5c74da530b23fbad176dfce79bd9562f88886040516113959291906156b8565b60405180910390a15050505050505050565b600060026000838152602001908152602001600020549050919050565b816000151560008054906101000a900473ffffffffffffffffffffffffffffffffffffffff1673ffffffffffffffffffffffffffffffffffffffff16639fa6bd07836040518263ffffffff1660e01b8152600401611422919061564b565b60206040518083038186803b15801561143a57600080fd5b505afa15801561144e573d6000803e3d6000fd5b505050506040513d601f19601f820116820180604052508101906114729190614c2e565b1515146114b4576040517f08c379a00000000000000000000000000000000000000000000000000000000081526004016114ab90615589565b60405180910390fd5b81600081116114f8576040517f08c379a00000000000000000000000000000000000000000000000000000000081526004016114ef906155e9565b60405180910390fd5b8360008054906101000a900473ffffffffffffffffffffffffffffffffffffffff1673ffffffffffffffffffffffffffffffffffffffff1663502fb9fd826040518263ffffffff1660e01b8152600401611552919061564b565b60206040518083038186803b15801561156a57600080fd5b505afa15801561157e573d6000803e3d6000fd5b505050506040513d601f19601f820116820180604052508101906115a29190614c05565b73ffffffffffffffffffffffffffffffffffffffff163373ffffffffffffffffffffffffffffffffffffffff161461160f576040517f08c379a0000000000000000000000000000000000000000000000000000000008152600401611606906154e9565b60405180910390fd5b6000600160009054906101000a900473ffffffffffffffffffffffffffffffffffffffff1673ffffffffffffffffffffffffffffffffffffffff16631f7559ae6040518163ffffffff1660e01b815260040160206040518083038186803b15801561167957600080fd5b505afa15801561168d573d6000803e3d6000fd5b505050506040513d601f19601f820116820180604052508101906116b19190614c80565b905060006116e233600160009054906101000a900473ffffffffffffffffffffffffffffffffffffffff16846143cd565b905060008054906101000a900473ffffffffffffffffffffffffffffffffffffffff1673ffffffffffffffffffffffffffffffffffffffff16635bc3962788836040518363ffffffff1660e01b815260040161173f9291906156b8565b600060405180830381600087803b15801561175957600080fd5b505af115801561176d573d6000803e3d6000fd5b5050505085600260008981526020019081526020016000208190555060008054906101000a900473ffffffffffffffffffffffffffffffffffffffff1673ffffffffffffffffffffffffffffffffffffffff16634ca18df68860016040518363ffffffff1660e01b81526004016117e5929190615666565b600060405180830381600087803b1580156117ff57600080fd5b505af1158015611813573d6000803e3d6000fd5b5050505060008054906101000a900473ffffffffffffffffffffffffffffffffffffffff1673ffffffffffffffffffffffffffffffffffffffff1663384f38a16040518163ffffffff1660e01b8152600401600060405180830381600087803b15801561187f57600080fd5b505af1158015611893573d6000803e3d6000fd5b505050507f742c89a32f0942dd7ca224e49a0897efdeaefc6e947b6c2526b83e9cd7b87d5387876040516118c89291906156b8565b60405180910390a150505050505050565b60608160008054906101000a900473ffffffffffffffffffffffffffffffffffffffff1673ffffffffffffffffffffffffffffffffffffffff1663502fb9fd826040518263ffffffff1660e01b8152600401611935919061564b565b60206040518083038186803b15801561194d57600080fd5b505afa158015611961573d6000803e3d6000fd5b505050506040513d601f19601f820116820180604052508101906119859190614c05565b73ffffffffffffffffffffffffffffffffffffffff163373ffffffffffffffffffffffffffffffffffffffff16146119f2576040517f08c379a00000000000000000000000000000000000000000000000000000000081526004016119e9906154e9565b60405180910390fd5b6000600460008581526020019081526020016000205467ffffffffffffffff811115611a47577f4e487b7100000000000000000000000000000000000000000000000000000000600052604160045260246000fd5b604051908082528060200260200182016040528015611a8057816020015b611a6d614919565b815260200190600190039081611a655790505b50905060005b6004600086815260200190815260200160002054811015611ec3576003600086815260200190815260200160002060008281526020019081526020016000206040518061014001604052908160008201548152602001600182015481526020016002820160009054906101000a900473ffffffffffffffffffffffffffffffffffffffff1673ffffffffffffffffffffffffffffffffffffffff1673ffffffffffffffffffffffffffffffffffffffff168152602001600382018054611b4b906158f5565b80601f0160208091040260200160405190810160405280929190818152602001828054611b77906158f5565b8015611bc45780601f10611b9957610100808354040283529160200191611bc4565b820191906000526020600020905b815481529060010190602001808311611ba757829003601f168201915b50505050508152602001600482018054611bdd906158f5565b80601f0160208091040260200160405190810160405280929190818152602001828054611c09906158f5565b8015611c565780601f10611c2b57610100808354040283529160200191611c56565b820191906000526020600020905b815481529060010190602001808311611c3957829003601f168201915b50505050508152602001600582018054611c6f906158f5565b80601f0160208091040260200160405190810160405280929190818152602001828054611c9b906158f5565b8015611ce85780601f10611cbd57610100808354040283529160200191611ce8565b820191906000526020600020905b815481529060010190602001808311611ccb57829003601f168201915b50505050508152602001600682018054611d01906158f5565b80601f0160208091040260200160405190810160405280929190818152602001828054611d2d906158f5565b8015611d7a5780601f10611d4f57610100808354040283529160200191611d7a565b820191906000526020600020905b815481529060010190602001808311611d5d57829003601f168201915b50505050508152602001600782015481526020016008820160009054906101000a900460ff166003811115611dd8577f4e487b7100000000000000000000000000000000000000000000000000000000600052602160045260246000fd5b6003811115611e10577f4e487b7100000000000000000000000000000000000000000000000000000000600052602160045260246000fd5b815260200160098201805480602002602001604051908101604052809291908181526020018280548015611e6357602002820191906000526020600020905b815481526020019060010190808311611e4f575b505050505081525050828281518110611ea5577f4e487b7100000000000000000000000000000000000000000000000000000000600052603260045260246000fd5b60200260200101819052508080611ebb90615958565b915050611a86565b508092505050919050565b611ed6614919565b6003600084815260200190815260200160002060008381526020019081526020016000206040518061014001604052908160008201548152602001600182015481526020016002820160009054906101000a900473ffffffffffffffffffffffffffffffffffffffff1673ffffffffffffffffffffffffffffffffffffffff1673ffffffffffffffffffffffffffffffffffffffff168152602001600382018054611f80906158f5565b80601f0160208091040260200160405190810160405280929190818152602001828054611fac906158f5565b8015611ff95780601f10611fce57610100808354040283529160200191611ff9565b820191906000526020600020905b815481529060010190602001808311611fdc57829003601f168201915b50505050508152602001600482018054612012906158f5565b80601f016020809104026020016040519081016040528092919081815260200182805461203e906158f5565b801561208b5780601f106120605761010080835404028352916020019161208b565b820191906000526020600020905b81548152906001019060200180831161206e57829003601f168201915b505050505081526020016005820180546120a4906158f5565b80601f01602080910402602001604051908101604052809291908181526020018280546120d0906158f5565b801561211d5780601f106120f25761010080835404028352916020019161211d565b820191906000526020600020905b81548152906001019060200180831161210057829003601f168201915b50505050508152602001600682018054612136906158f5565b80601f0160208091040260200160405190810160405280929190818152602001828054612162906158f5565b80156121af5780601f10612184576101008083540402835291602001916121af565b820191906000526020600020905b81548152906001019060200180831161219257829003601f168201915b50505050508152602001600782015481526020016008820160009054906101000a900460ff16600381111561220d577f4e487b7100000000000000000000000000000000000000000000000000000000600052602160045260246000fd5b6003811115612245577f4e487b7100000000000000000000000000000000000000000000000000000000600052602160045260246000fd5b81526020016009820180548060200260200160405190810160405280929190818152602001828054801561229857602002820191906000526020600020905b815481526020019060010190808311612284575b505050505081525050905092915050565b846001151560008054906101000a900473ffffffffffffffffffffffffffffffffffffffff1673ffffffffffffffffffffffffffffffffffffffff16639fa6bd07836040518263ffffffff1660e01b8152600401612307919061564b565b60206040518083038186803b15801561231f57600080fd5b505afa158015612333573d6000803e3d6000fd5b505050506040513d601f19601f820116820180604052508101906123579190614c2e565b151514612399576040517f08c379a0000000000000000000000000000000000000000000000000000000008152600401612390906154a9565b60405180910390fd5b8560008054906101000a900473ffffffffffffffffffffffffffffffffffffffff1673ffffffffffffffffffffffffffffffffffffffff16637735e668826040518263ffffffff1660e01b81526004016123f3919061564b565b60206040518083038186803b15801561240b57600080fd5b505afa15801561241f573d6000803e3d6000fd5b505050506040513d601f19601f820116820180604052508101906124439190614c80565b600460008381526020019081526020016000205410612497576040517f08c379a000000000000000000000000000000000000000000000000000000000815260040161248e90615509565b60405180910390fd5b866005600082815260200190815260200160002060003373ffffffffffffffffffffffffffffffffffffffff1673ffffffffffffffffffffffffffffffffffffffff16815260200190815260200160002060009054906101000a900460ff1615612536576040517f08c379a000000000000000000000000000000000000000000000000000000000815260040161252d90615529565b60405180910390fd5b60008054906101000a900473ffffffffffffffffffffffffffffffffffffffff1673ffffffffffffffffffffffffffffffffffffffff1663502fb9fd896040518263ffffffff1660e01b815260040161258f919061564b565b60206040518083038186803b1580156125a757600080fd5b505afa1580156125bb573d6000803e3d6000fd5b505050506040513d601f19601f820116820180604052508101906125df9190614c05565b73ffffffffffffffffffffffffffffffffffffffff163373ffffffffffffffffffffffffffffffffffffffff16141561264d576040517f08c379a000000000000000000000000000000000000000000000000000000000815260040161264490615449565b60405180910390fd5b6000600460008a81526020019081526020016000205490506040518061014001604052808a8152602001600460008c81526020019081526020016000205481526020013373ffffffffffffffffffffffffffffffffffffffff1681526020018981526020018881526020018781526020018681526020016000815260200160006003811115612705577f4e487b7100000000000000000000000000000000000000000000000000000000600052602160045260246000fd5b81526020016103e867ffffffffffffffff81111561274c577f4e487b7100000000000000000000000000000000000000000000000000000000600052604160045260246000fd5b60405190808252806020026020018201604052801561277a5781602001602082028036833780820191505090505b50815250600360008b81526020019081526020016000206000838152602001908152602001600020600082015181600001556020820151816001015560408201518160020160006101000a81548173ffffffffffffffffffffffffffffffffffffffff021916908373ffffffffffffffffffffffffffffffffffffffff16021790555060608201518160030190805190602001906128199291906149ba565b5060808201518160040190805190602001906128369291906149ba565b5060a08201518160050190805190602001906128539291906149ba565b5060c08201518160060190805190602001906128709291906149ba565b5060e082015181600701556101008201518160080160006101000a81548160ff021916908360038111156128cd577f4e487b7100000000000000000000000000000000000000000000000000000000600052602160045260246000fd5b02179055506101208201518160090190805190602001906128ef929190614a40565b509050506000600260008b815260200190815260200160002054905060006129c03360008054906101000a900473ffffffffffffffffffffffffffffffffffffffff1673ffffffffffffffffffffffffffffffffffffffff1663502fb9fd8e6040518263ffffffff1660e01b815260040161296a919061564b565b60206040518083038186803b15801561298257600080fd5b505afa158015612996573d6000803e3d6000fd5b505050506040513d601f19601f820116820180604052508101906129ba9190614c05565b846143cd565b9050600360008c81526020019081526020016000206000848152602001908152602001600020600901819080600181540180825580915050600190039060005260206000200160009091909190915055600460008c81526020019081526020016000206000815480929190612a3490615958565b91905055506001600560008d815260200190815260200160002060003373ffffffffffffffffffffffffffffffffffffffff1673ffffffffffffffffffffffffffffffffffffffff16815260200190815260200160002060006101000a81548160ff02191690831515021790555060008054906101000a900473ffffffffffffffffffffffffffffffffffffffff1673ffffffffffffffffffffffffffffffffffffffff1663c3b3f0d18c60006040518363ffffffff1660e01b8152600401612afe929190615666565b600060405180830381600087803b158015612b1857600080fd5b505af1158015612b2c573d6000803e3d6000fd5b505050507f9d6c986964a80d9526a37c7cc81948200625f2bf8f0f9c9e8ab7b95c52a92c468b84604051612b619291906156b8565b60405180910390a15050505050505050505050565b8160008054906101000a900473ffffffffffffffffffffffffffffffffffffffff1673ffffffffffffffffffffffffffffffffffffffff1663502fb9fd826040518263ffffffff1660e01b8152600401612bd0919061564b565b60206040518083038186803b158015612be857600080fd5b505afa158015612bfc573d6000803e3d6000fd5b505050506040513d601f19601f82011682018060405250810190612c209190614c05565b73ffffffffffffffffffffffffffffffffffffffff163373ffffffffffffffffffffffffffffffffffffffff1614612c8d576040517f08c379a0000000000000000000000000000000000000000000000000000000008152600401612c84906154e9565b60405180910390fd5b8282600073ffffffffffffffffffffffffffffffffffffffff1660036000848152602001908152602001600020600083815260200190815260200160002060020160009054906101000a900473ffffffffffffffffffffffffffffffffffffffff1673ffffffffffffffffffffffffffffffffffffffff161415612d46576040517f08c379a0000000000000000000000000000000000000000000000000000000008152600401612d3d906155a9565b60405180910390fd5b848460006003811115612d82577f4e487b7100000000000000000000000000000000000000000000000000000000600052602160045260246000fd5b60036000848152602001908152602001600020600083815260200190815260200160002060080160009054906101000a900460ff166003811115612def577f4e487b7100000000000000000000000000000000000000000000000000000000600052602160045260246000fd5b14612e2f576040517f08c379a0000000000000000000000000000000000000000000000000000000008152600401612e2690615549565b60405180910390fd5b600160009054906101000a900473ffffffffffffffffffffffffffffffffffffffff1673ffffffffffffffffffffffffffffffffffffffff1663278ecde1600360008a81526020019081526020016000206000898152602001908152602001600020600901600081548110612ecd577f4e487b7100000000000000000000000000000000000000000000000000000000600052603260045260246000fd5b90600052602060002001546040518263ffffffff1660e01b8152600401612ef4919061564b565b600060405180830381600087803b158015612f0e57600080fd5b505af1158015612f22573d6000803e3d6000fd5b50505050612f30878761451b565b7f02177d79b2521d397375b5d46ec1652144a43c6df6beaad2a14ccb953e5379938787604051612f619291906156b8565b60405180910390a150505050505050565b60006005600084815260200190815260200160002060008373ffffffffffffffffffffffffffffffffffffffff1673ffffffffffffffffffffffffffffffffffffffff16815260200190815260200160002060009054906101000a900460ff16905092915050565b816001151560008054906101000a900473ffffffffffffffffffffffffffffffffffffffff1673ffffffffffffffffffffffffffffffffffffffff16639fa6bd07836040518263ffffffff1660e01b8152600401613038919061564b565b60206040518083038186803b15801561305057600080fd5b505afa158015613064573d6000803e3d6000fd5b505050506040513d601f19601f820116820180604052508101906130889190614c2e565b1515146130ca576040517f08c379a00000000000000000000000000000000000000000000000000000000081526004016130c1906154a9565b60405180910390fd5b826005600082815260200190815260200160002060003373ffffffffffffffffffffffffffffffffffffffff1673ffffffffffffffffffffffffffffffffffffffff16815260200190815260200160002060009054906101000a900460ff16613168576040517f08c379a000000000000000000000000000000000000000000000000000000000815260040161315f90615469565b60405180910390fd5b8383600073ffffffffffffffffffffffffffffffffffffffff1660036000848152602001908152602001600020600083815260200190815260200160002060020160009054906101000a900473ffffffffffffffffffffffffffffffffffffffff1673ffffffffffffffffffffffffffffffffffffffff161415613221576040517f08c379a0000000000000000000000000000000000000000000000000000000008152600401613218906155a9565b60405180910390fd5b85856001600381111561325d577f4e487b7100000000000000000000000000000000000000000000000000000000600052602160045260246000fd5b60036000848152602001908152602001600020600083815260200190815260200160002060080160009054906101000a900460ff1660038111156132ca577f4e487b7100000000000000000000000000000000000000000000000000000000600052602160045260246000fd5b1461330a576040517f08c379a0000000000000000000000000000000000000000000000000000000008152600401613301906154c9565b60405180910390fd5b60008054906101000a900473ffffffffffffffffffffffffffffffffffffffff1673ffffffffffffffffffffffffffffffffffffffff1663502fb9fd896040518263ffffffff1660e01b8152600401613363919061564b565b60206040518083038186803b15801561337b57600080fd5b505afa15801561338f573d6000803e3d6000fd5b505050506040513d601f19601f820116820180604052508101906133b39190614c05565b73ffffffffffffffffffffffffffffffffffffffff163373ffffffffffffffffffffffffffffffffffffffff161415613421576040517f08c379a000000000000000000000000000000000000000000000000000000000815260040161341890615489565b60405180910390fd5b6000600360008a81526020019081526020016000206000898152602001908152602001600020905060008060009054906101000a900473ffffffffffffffffffffffffffffffffffffffff1673ffffffffffffffffffffffffffffffffffffffff1663e924e64a8b6040518263ffffffff1660e01b81526004016134a5919061564b565b60206040518083038186803b1580156134bd57600080fd5b505afa1580156134d1573d6000803e3d6000fd5b505050506040513d601f19601f820116820180604052508101906134f59190614c80565b905060006135ac3360008054906101000a900473ffffffffffffffffffffffffffffffffffffffff1673ffffffffffffffffffffffffffffffffffffffff1663502fb9fd8e6040518263ffffffff1660e01b8152600401613556919061564b565b60206040518083038186803b15801561356e57600080fd5b505afa158015613582573d6000803e3d6000fd5b505050506040513d601f19601f820116820180604052508101906135a69190614c05565b846143cd565b9050600360008c815260200190815260200160002060008b815260200190815260200160002060090181908060018154018082558091505060019003906000526020600020016000909190919091505560028360080160006101000a81548160ff0219169083600381111561364a577f4e487b7100000000000000000000000000000000000000000000000000000000600052602160045260246000fd5b02179055507f0e9e4ec6fa83fe2a2893fd5d6517a890df20f72cc0ba40495b21e65d122235038b8b6040516136809291906156b8565b60405180910390a15050505050505050505050565b816001151560008054906101000a900473ffffffffffffffffffffffffffffffffffffffff1673ffffffffffffffffffffffffffffffffffffffff16639fa6bd07836040518263ffffffff1660e01b81526004016136f3919061564b565b60206040518083038186803b15801561370b57600080fd5b505afa15801561371f573d6000803e3d6000fd5b505050506040513d601f19601f820116820180604052508101906137439190614c2e565b151514613785576040517f08c379a000000000000000000000000000000000000000000000000000000000815260040161377c906154a9565b60405180910390fd5b8260008054906101000a900473ffffffffffffffffffffffffffffffffffffffff1673ffffffffffffffffffffffffffffffffffffffff1663502fb9fd826040518263ffffffff1660e01b81526004016137df919061564b565b60206040518083038186803b1580156137f757600080fd5b505afa15801561380b573d6000803e3d6000fd5b505050506040513d601f19601f8201168201806040525081019061382f9190614c05565b73ffffffffffffffffffffffffffffffffffffffff163373ffffffffffffffffffffffffffffffffffffffff161461389c576040517f08c379a0000000000000000000000000000000000000000000000000000000008152600401613893906154e9565b60405180910390fd5b8383600073ffffffffffffffffffffffffffffffffffffffff1660036000848152602001908152602001600020600083815260200190815260200160002060020160009054906101000a900473ffffffffffffffffffffffffffffffffffffffff1673ffffffffffffffffffffffffffffffffffffffff161415613955576040517f08c379a000000000000000000000000000000000000000000000000000000000815260040161394c906155a9565b60405180910390fd5b858560026003811115613991577f4e487b7100000000000000000000000000000000000000000000000000000000600052602160045260246000fd5b60036000848152602001908152602001600020600083815260200190815260200160002060080160009054906101000a900460ff1660038111156139fe577f4e487b7100000000000000000000000000000000000000000000000000000000600052602160045260246000fd5b14613a3e576040517f08c379a0000000000000000000000000000000000000000000000000000000008152600401613a3590615429565b60405180910390fd5b6000600360008a815260200190815260200160002060008981526020019081526020016000209050600160009054906101000a900473ffffffffffffffffffffffffffffffffffffffff1673ffffffffffffffffffffffffffffffffffffffff166337bdc99b8260090160018460090180549050613abc91906157d6565b81548110613af3577f4e487b7100000000000000000000000000000000000000000000000000000000600052603260045260246000fd5b90600052602060002001546040518263ffffffff1660e01b8152600401613b1a919061564b565b600060405180830381600087803b158015613b3457600080fd5b505af1158015613b48573d6000803e3d6000fd5b50505050806007016000815480929190613b6190615958565b919050555060008054906101000a900473ffffffffffffffffffffffffffffffffffffffff1673ffffffffffffffffffffffffffffffffffffffff1663aee781318a6040518263ffffffff1660e01b8152600401613bbf919061564b565b60206040518083038186803b158015613bd757600080fd5b505afa158015613beb573d6000803e3d6000fd5b505050506040513d601f19601f82011682018060405250810190613c0f9190614c80565b81600701541415613c725760038160080160006101000a81548160ff02191690836003811115613c68577f4e487b7100000000000000000000000000000000000000000000000000000000600052602160045260246000fd5b0217905550613cc6565b60018160080160006101000a81548160ff02191690836003811115613cc0577f4e487b7100000000000000000000000000000000000000000000000000000000600052602160045260246000fd5b02179055505b7f39f916cfa4e8a7f5d298df5a811d42bbbdfa00e81fdc65d937067ee18bfa27328989604051613cf79291906156b8565b60405180910390a1505050505050505050565b6000806000905060005b60008054906101000a900473ffffffffffffffffffffffffffffffffffffffff1673ffffffffffffffffffffffffffffffffffffffff1663e1ba0b806040518163ffffffff1660e01b815260040160206040518083038186803b158015613d7a57600080fd5b505afa158015613d8e573d6000803e3d6000fd5b505050506040513d601f19601f82011682018060405250810190613db29190614c80565b811015613e3e576005600082815260200190815260200160002060008573ffffffffffffffffffffffffffffffffffffffff1673ffffffffffffffffffffffffffffffffffffffff16815260200190815260200160002060009054906101000a900460ff1615613e2b578180613e2790615958565b9250505b8080613e3690615958565b915050613d14565b5080915050919050565b806001151560008054906101000a900473ffffffffffffffffffffffffffffffffffffffff1673ffffffffffffffffffffffffffffffffffffffff16639fa6bd07836040518263ffffffff1660e01b8152600401613ea6919061564b565b60206040518083038186803b158015613ebe57600080fd5b505afa158015613ed2573d6000803e3d6000fd5b505050506040513d601f19601f82011682018060405250810190613ef69190614c2e565b151514613f38576040517f08c379a0000000000000000000000000000000000000000000000000000000008152600401613f2f906154a9565b60405180910390fd5b8160008054906101000a900473ffffffffffffffffffffffffffffffffffffffff1673ffffffffffffffffffffffffffffffffffffffff1663502fb9fd826040518263ffffffff1660e01b8152600401613f92919061564b565b60206040518083038186803b158015613faa57600080fd5b505afa158015613fbe573d6000803e3d6000fd5b505050506040513d601f19601f82011682018060405250810190613fe29190614c05565b73ffffffffffffffffffffffffffffffffffffffff163373ffffffffffffffffffffffffffffffffffffffff161461404f576040517f08c379a0000000000000000000000000000000000000000000000000000000008152600401614046906154e9565b60405180910390fd5b8260006004600083815260200190815260200160002054146140a6576040517f08c379a000000000000000000000000000000000000000000000000000000000815260040161409d90615609565b60405180910390fd5b600160009054906101000a900473ffffffffffffffffffffffffffffffffffffffff1673ffffffffffffffffffffffffffffffffffffffff1663278ecde160008054906101000a900473ffffffffffffffffffffffffffffffffffffffff1673ffffffffffffffffffffffffffffffffffffffff16638585434b876040518263ffffffff1660e01b815260040161413d919061564b565b60206040518083038186803b15801561415557600080fd5b505afa158015614169573d6000803e3d6000fd5b505050506040513d601f19601f8201168201806040525081019061418d9190614c80565b6040518263ffffffff1660e01b81526004016141a9919061564b565b600060405180830381600087803b1580156141c357600080fd5b505af11580156141d7573d6000803e3d6000fd5b505050506000600260008681526020019081526020016000208190555060008054906101000a900473ffffffffffffffffffffffffffffffffffffffff1673ffffffffffffffffffffffffffffffffffffffff16635bc396278560006040518363ffffffff1660e01b815260040161425092919061568f565b600060405180830381600087803b15801561426a57600080fd5b505af115801561427e573d6000803e3d6000fd5b5050505060008054906101000a900473ffffffffffffffffffffffffffffffffffffffff1673ffffffffffffffffffffffffffffffffffffffff16634ca18df68560006040518363ffffffff1660e01b81526004016142de929190615666565b600060405180830381600087803b1580156142f857600080fd5b505af115801561430c573d6000803e3d6000fd5b5050505060008054906101000a900473ffffffffffffffffffffffffffffffffffffffff1673ffffffffffffffffffffffffffffffffffffffff16631b3924e86040518163ffffffff1660e01b8152600401600060405180830381600087803b15801561437857600080fd5b505af115801561438c573d6000803e3d6000fd5b505050507fff84879c69a08ad69bc5ca68e4809684ef09baaaf0678c931fdb0f7da81c31ab846040516143bf919061564b565b60405180910390a150505050565b600080600160009054906101000a900473ffffffffffffffffffffffffffffffffffffffff1673ffffffffffffffffffffffffffffffffffffffff1663794d0ed88686866040518463ffffffff1660e01b815260040161442f939291906153b5565b602060405180830381600087803b15801561444957600080fd5b505af115801561445d573d6000803e3d6000fd5b505050506040513d601f19601f820116820180604052508101906144819190614c80565b9050600160009054906101000a900473ffffffffffffffffffffffffffffffffffffffff1673ffffffffffffffffffffffffffffffffffffffff1663c290d691826040518263ffffffff1660e01b81526004016144de919061564b565b600060405180830381600087803b1580156144f857600080fd5b505af115801561450c573d6000803e3d6000fd5b50505050809150509392505050565b816001151560008054906101000a900473ffffffffffffffffffffffffffffffffffffffff1673ffffffffffffffffffffffffffffffffffffffff16639fa6bd07836040518263ffffffff1660e01b8152600401614579919061564b565b60206040518083038186803b15801561459157600080fd5b505afa1580156145a5573d6000803e3d6000fd5b505050506040513d601f19601f820116820180604052508101906145c99190614c2e565b15151461460b576040517f08c379a0000000000000000000000000000000000000000000000000000000008152600401614602906154a9565b60405180910390fd5b8282600073ffffffffffffffffffffffffffffffffffffffff1660036000848152602001908152602001600020600083815260200190815260200160002060020160009054906101000a900473ffffffffffffffffffffffffffffffffffffffff1673ffffffffffffffffffffffffffffffffffffffff1614156146c4576040517f08c379a00000000000000000000000000000000000000000000000000000000081526004016146bb906155a9565b60405180910390fd5b6004600086815260200190815260200160002060008154809291906146e8906158cb565b9190505550600060056000878152602001908152602001600020600060036000898152602001908152602001600020600088815260200190815260200160002060020160009054906101000a900473ffffffffffffffffffffffffffffffffffffffff1673ffffffffffffffffffffffffffffffffffffffff1673ffffffffffffffffffffffffffffffffffffffff16815260200190815260200160002060006101000a81548160ff02191690831515021790555060036000868152602001908152602001600020600085815260200190815260200160002060008082016000905560018201600090556002820160006101000a81549073ffffffffffffffffffffffffffffffffffffffff02191690556003820160006148099190614a8d565b6004820160006148199190614a8d565b6005820160006148299190614a8d565b6006820160006148399190614a8d565b60078201600090556008820160006101000a81549060ff02191690556009820160006148659190614acd565b50506000600460008781526020019081526020016000205414156149125760008054906101000a900473ffffffffffffffffffffffffffffffffffffffff1673ffffffffffffffffffffffffffffffffffffffff1663c3b3f0d18660016040518363ffffffff1660e01b81526004016148df929190615666565b600060405180830381600087803b1580156148f957600080fd5b505af115801561490d573d6000803e3d6000fd5b505050505b5050505050565b6040518061014001604052806000815260200160008152602001600073ffffffffffffffffffffffffffffffffffffffff1681526020016060815260200160608152602001606081526020016060815260200160008152602001600060038111156149ad577f4e487b7100000000000000000000000000000000000000000000000000000000600052602160045260246000fd5b8152602001606081525090565b8280546149c6906158f5565b90600052602060002090601f0160209004810192826149e85760008555614a2f565b82601f10614a0157805160ff1916838001178555614a2f565b82800160010185558215614a2f579182015b82811115614a2e578251825591602001919060010190614a13565b5b509050614a3c9190614aee565b5090565b828054828255906000526020600020908101928215614a7c579160200282015b82811115614a7b578251825591602001919060010190614a60565b5b509050614a899190614aee565b5090565b508054614a99906158f5565b6000825580601f10614aab5750614aca565b601f016020900490600052602060002090810190614ac99190614aee565b5b50565b5080546000825590600052602060002090810190614aeb9190614aee565b50565b5b80821115614b07576000816000905550600101614aef565b5090565b6000614b1e614b1984615706565b6156e1565b905082815260208101848484011115614b3657600080fd5b614b41848285615889565b509392505050565b600081359050614b5881615eda565b92915050565b600081519050614b6d81615eda565b92915050565b600081519050614b8281615ef1565b92915050565b600082601f830112614b9957600080fd5b8135614ba9848260208601614b0b565b91505092915050565b600081359050614bc181615f08565b92915050565b600081519050614bd681615f08565b92915050565b600060208284031215614bee57600080fd5b6000614bfc84828501614b49565b91505092915050565b600060208284031215614c1757600080fd5b6000614c2584828501614b5e565b91505092915050565b600060208284031215614c4057600080fd5b6000614c4e84828501614b73565b91505092915050565b600060208284031215614c6957600080fd5b6000614c7784828501614bb2565b91505092915050565b600060208284031215614c9257600080fd5b6000614ca084828501614bc7565b91505092915050565b60008060408385031215614cbc57600080fd5b6000614cca85828601614bb2565b9250506020614cdb85828601614b49565b9150509250929050565b600080600080600060a08688031215614cfd57600080fd5b6000614d0b88828901614bb2565b955050602086013567ffffffffffffffff811115614d2857600080fd5b614d3488828901614b88565b945050604086013567ffffffffffffffff811115614d5157600080fd5b614d5d88828901614b88565b935050606086013567ffffffffffffffff811115614d7a57600080fd5b614d8688828901614b88565b925050608086013567ffffffffffffffff811115614da357600080fd5b614daf88828901614b88565b9150509295509295909350565b60008060408385031215614dcf57600080fd5b6000614ddd85828601614bb2565b9250506020614dee85828601614bb2565b9150509250929050565b6000614e0483836151ab565b905092915050565b6000614e188383615397565b60208301905092915050565b614e2d8161580a565b82525050565b614e3c8161580a565b82525050565b6000614e4d82615757565b614e578185615792565b935083602082028501614e6985615737565b8060005b85811015614ea55784840389528151614e868582614df8565b9450614e9183615778565b925060208a01995050600181019050614e6d565b50829750879550505050505092915050565b6000614ec282615762565b614ecc81856157a3565b9350614ed783615747565b8060005b83811015614f08578151614eef8882614e0c565b9750614efa83615785565b925050600181019050614edb565b5085935050505092915050565b614f1e8161581c565b82525050565b614f2d81615865565b82525050565b614f3c81615877565b82525050565b6000614f4d8261576d565b614f5781856157b4565b9350614f67818560208601615898565b614f7081615a5d565b840191505092915050565b6000614f88601b836157c5565b9150614f9382615a6e565b602082019050919050565b6000614fab602d836157c5565b9150614fb682615a97565b604082019050919050565b6000614fce602f836157c5565b9150614fd982615ae6565b604082019050919050565b6000614ff16034836157c5565b9150614ffc82615b35565b604082019050919050565b6000615014601d836157c5565b915061501f82615b84565b602082019050919050565b60006150376021836157c5565b915061504282615bad565b604082019050919050565b600061505a6025836157c5565b915061506582615bfc565b604082019050919050565b600061507d6017836157c5565b915061508882615c4b565b602082019050919050565b60006150a06033836157c5565b91506150ab82615c74565b604082019050919050565b60006150c36021836157c5565b91506150ce82615cc3565b604082019050919050565b60006150e66023836157c5565b91506150f182615d12565b604082019050919050565b60006151096021836157c5565b915061511482615d61565b604082019050919050565b600061512c6021836157c5565b915061513782615db0565b604082019050919050565b600061514f602f836157c5565b915061515a82615dff565b604082019050919050565b60006151726029836157c5565b915061517d82615e4e565b604082019050919050565b6000615195601d836157c5565b91506151a082615e9d565b602082019050919050565b6000610140830160008301516151c46000860182615397565b5060208301516151d76020860182615397565b5060408301516151ea6040860182614e24565b50606083015184820360608601526152028282614f42565b9150506080830151848203608086015261521c8282614f42565b91505060a083015184820360a08601526152368282614f42565b91505060c083015184820360c08601526152508282614f42565b91505060e083015161526560e0860182615397565b5061010083015161527a610100860182614f24565b506101208301518482036101208601526152948282614eb7565b9150508091505092915050565b6000610140830160008301516152ba6000860182615397565b5060208301516152cd6020860182615397565b5060408301516152e06040860182614e24565b50606083015184820360608601526152f88282614f42565b915050608083015184820360808601526153128282614f42565b91505060a083015184820360a086015261532c8282614f42565b91505060c083015184820360c08601526153468282614f42565b91505060e083015161535b60e0860182615397565b50610100830151615370610100860182614f24565b5061012083015184820361012086015261538a8282614eb7565b9150508091505092915050565b6153a08161585b565b82525050565b6153af8161585b565b82525050565b60006060820190506153ca6000830186614e33565b6153d76020830185614e33565b6153e460408301846153a6565b949350505050565b600060208201905081810360008301526154068184614e42565b905092915050565b60006020820190506154236000830184614f15565b92915050565b6000602082019050818103600083015261544281614f7b565b9050919050565b6000602082019050818103600083015261546281614f9e565b9050919050565b6000602082019050818103600083015261548281614fc1565b9050919050565b600060208201905081810360008301526154a281614fe4565b9050919050565b600060208201905081810360008301526154c281615007565b9050919050565b600060208201905081810360008301526154e28161502a565b9050919050565b600060208201905081810360008301526155028161504d565b9050919050565b6000602082019050818103600083015261552281615070565b9050919050565b6000602082019050818103600083015261554281615093565b9050919050565b60006020820190508181036000830152615562816150b6565b9050919050565b60006020820190508181036000830152615582816150d9565b9050919050565b600060208201905081810360008301526155a2816150fc565b9050919050565b600060208201905081810360008301526155c28161511f565b9050919050565b600060208201905081810360008301526155e281615142565b9050919050565b6000602082019050818103600083015261560281615165565b9050919050565b6000602082019050818103600083015261562281615188565b9050919050565b6000602082019050818103600083015261564381846152a1565b905092915050565b600060208201905061566060008301846153a6565b92915050565b600060408201905061567b60008301856153a6565b6156886020830184614f15565b9392505050565b60006040820190506156a460008301856153a6565b6156b16020830184614f33565b9392505050565b60006040820190506156cd60008301856153a6565b6156da60208301846153a6565b9392505050565b60006156eb6156fc565b90506156f78282615927565b919050565b6000604051905090565b600067ffffffffffffffff82111561572157615720615a2e565b5b61572a82615a5d565b9050602081019050919050565b6000819050602082019050919050565b6000819050602082019050919050565b600081519050919050565b600081519050919050565b600081519050919050565b6000602082019050919050565b6000602082019050919050565b600082825260208201905092915050565b600082825260208201905092915050565b600082825260208201905092915050565b600082825260208201905092915050565b60006157e18261585b565b91506157ec8361585b565b9250828210156157ff576157fe6159a1565b5b828203905092915050565b60006158158261583b565b9050919050565b60008115159050919050565b600081905061583682615ec6565b919050565b600073ffffffffffffffffffffffffffffffffffffffff82169050919050565b6000819050919050565b600061587082615828565b9050919050565b60006158828261585b565b9050919050565b82818337600083830152505050565b60005b838110156158b657808201518184015260208101905061589b565b838111156158c5576000848401525b50505050565b60006158d68261585b565b915060008214156158ea576158e96159a1565b5b600182039050919050565b6000600282049050600182168061590d57607f821691505b60208210811415615921576159206159ff565b5b50919050565b61593082615a5d565b810181811067ffffffffffffffff8211171561594f5761594e615a2e565b5b80604052505050565b60006159638261585b565b91507fffffffffffffffffffffffffffffffffffffffffffffffffffffffffffffffff821415615996576159956159a1565b5b600182019050919050565b7f4e487b7100000000000000000000000000000000000000000000000000000000600052601160045260246000fd5b7f4e487b7100000000000000000000000000000000000000000000000000000000600052602160045260246000fd5b7f4e487b7100000000000000000000000000000000000000000000000000000000600052602260045260246000fd5b7f4e487b7100000000000000000000000000000000000000000000000000000000600052604160045260246000fd5b6000601f19601f8301169050919050565b7f54656e616e7420686173206e6f74206d616465207061796d656e740000000000600082015250565b7f4c616e646c6f72642063616e6e6f74206170706c7920666f72206f776e20726560008201527f6e74616c2070726f706572747900000000000000000000000000000000000000602082015250565b7f54656e616e7420686173206e6f74206170706c69656420666f7220746869732060008201527f72656e74616c2070726f70657274790000000000000000000000000000000000602082015250565b7f4c616e646c6f72642063616e6e6f74206d616b65207061796d656e7420666f7260008201527f206f776e2072656e74616c2070726f7065727479000000000000000000000000602082015250565b7f52656e74616c2070726f7065727479206973206e6f74206c6973746564000000600082015250565b7f52656e74616c206170706c69636174696f6e206973206e6f74206f6e676f696e60008201527f6700000000000000000000000000000000000000000000000000000000000000602082015250565b7f4f6e6c79206c616e646c6f72642063616e20706572666f726d2074686973206160008201527f6374696f6e000000000000000000000000000000000000000000000000000000602082015250565b7f52656e74616c2070726f70657274792069732066756c6c000000000000000000600082015250565b7f54656e616e742068617320616c7265616479206170706c69656420666f72207460008201527f6869732072656e74616c2070726f706572747900000000000000000000000000602082015250565b7f52656e74616c206170706c69636174696f6e206973206e6f742070656e64696e60008201527f6700000000000000000000000000000000000000000000000000000000000000602082015250565b7f52656e74616c206170706c69636174696f6e206973206e6f7420636f6d706c6560008201527f7465640000000000000000000000000000000000000000000000000000000000602082015250565b7f52656e74616c2070726f706572747920697320616c7265616479206c6973746560008201527f6400000000000000000000000000000000000000000000000000000000000000602082015250565b7f52656e74616c206170706c69636174696f6e20646f6573206e6f74206578697360008201527f7400000000000000000000000000000000000000000000000000000000000000602082015250565b7f4c616e646c6f72642063616e6e6f74206d6f7665206f7574206f66206f776e2060008201527f72656e74616c2070726f70657274790000000000000000000000000000000000602082015250565b7f4465706f736974204c65617365546f6b656e206d75737420626520677265617460008201527f6572207468616e20300000000000000000000000000000000000000000000000602082015250565b7f52656e74616c2070726f7065727479206973206e6f7420766163616e74000000600082015250565b60048110615ed757615ed66159d0565b5b50565b615ee38161580a565b8114615eee57600080fd5b50565b615efa8161581c565b8114615f0557600080fd5b50565b615f118161585b565b8114615f1c57600080fd5b5056fea26469706673582212209a2467b2355fa296f576a831031942145b96df1bfd823aa248c5786e1f9f575064736f6c63430008010033",
  "immutableReferences": {},
  "source": "// SPDX-License-Identifier: MIT\r\npragma solidity ^0.8.0;\r\n\r\nimport \"./RentalProperty.sol\";\r\nimport \"./PaymentEscrow.sol\";\r\n\r\ncontract RentalMarketplace {\r\n    // ################################################### STRUCTURE & STATE VARIABLES ################################################### //\r\n\r\n    enum RentStatus {\r\n        PENDING, // This is when a tenant apply for a rental property and waiting for landlord to accept\r\n        ONGOING, // This is when a tenant sign a rental agreement and the rental is ongoing\r\n        MADE_PAYMENT, // This is when the tenant paid for a monthly rent and waiting for landlord to accept\r\n        COMPLETED // This is when the rental is completed for the tenant (e.g. tenant move out and landlord return deposit if any)\r\n    }\r\n\r\n    struct RentalApplication {\r\n        uint256 rentalPropertyId; // The rental property id\r\n        uint256 applicationId; // The rental application id\r\n        address tenantAddress; // The tenant\r\n        string tenantName; // The tenant name\r\n        string tenantEmail; // The tenant email\r\n        string tenantPhone; // The tenant contact\r\n        string description; // The tenant description of why they want to rent the property\r\n        uint256 monthsPaid; // The number of months the tenant has paid\r\n        RentStatus status; // The status of the rental application\r\n        uint256[] paymentIds; // All the payment transaction ids generated for tenant during deposit/monthlyPayment of rental property (mainly to keep track of payments/refunds for deposit and monthly rent)\r\n    }\r\n\r\n    RentalProperty rentalPropertyContract;\r\n    PaymentEscrow paymentEscrowContract;\r\n\r\n    // This is mapping of RentalProperty id to the downpayment/deposit of the property\r\n    mapping(uint256 => uint256) private rentalPropertyDeposits;\r\n    // This is mapping of RentalProperty id to the (RentalApplication id to RentalApplication struct) mapping\r\n    mapping(uint256 => mapping(uint256 => RentalApplication))\r\n        private rentalApplications;\r\n    // This is to keep track of the number of applications for a rental property (RentalProperty id to number of applications mapping)\r\n    mapping(uint256 => uint256) private rentalApplicationCounts;\r\n    // This is to keep track if a tenant has already applied for a rental property\r\n    mapping(uint256 => mapping(address => bool)) private hasApplied;\r\n\r\n    constructor(address rentalPropertyAddress, address paymentEscrowAddress) {\r\n        rentalPropertyContract = RentalProperty(rentalPropertyAddress);\r\n        paymentEscrowContract = PaymentEscrow(paymentEscrowAddress);\r\n    }\r\n\r\n    // ################################################### EVENTS ################################################### //\r\n\r\n    event RentalPropertyListed(uint256 rentalPropertyId, uint256 depositFee);\r\n    event RentalPropertyUnlisted(uint256 rentalPropertyId);\r\n    event RentalApplicationSubmitted(\r\n        uint256 rentalPropertyId,\r\n        uint256 applicationId\r\n    );\r\n    event RentalApplicationRejected(\r\n        uint256 rentalPropertyId,\r\n        uint256 applicationId\r\n    );\r\n    event RentalApplicationAccepted(\r\n        uint256 rentalPropertyId,\r\n        uint256 applicationId\r\n    );\r\n\r\n    event PaymentMade(uint256 rentalPropertyId, uint256 applicationId);\r\n    event PaymentAccepted(uint256 rentalPropertyId, uint256 applicationId);\r\n    event tenantMoveOut(uint256 rentalPropertyId, uint256 applicationId);\r\n\r\n    // ################################################### MODIFIERS ################################################### //\r\n\r\n    // Modifier to check the landlord is the owner of the rental property\r\n    modifier landlordOnly(uint256 rentalPropertyId) {\r\n        require(\r\n            msg.sender == rentalPropertyContract.getLandlord(rentalPropertyId),\r\n            \"Only landlord can perform this action\"\r\n        );\r\n        _;\r\n    }\r\n\r\n    // Modifier to check the rental property is listed\r\n    modifier rentalPropertyListed(uint256 rentalPropertyId) {\r\n        require(\r\n            rentalPropertyContract.getListedStatus(rentalPropertyId) == true,\r\n            \"Rental property is not listed\"\r\n        );\r\n        _;\r\n    }\r\n\r\n    // Modifier to check the rental property is not listed\r\n    modifier rentalPropertyNotListed(uint256 rentalPropertyId) {\r\n        require(\r\n            rentalPropertyContract.getListedStatus(rentalPropertyId) == false,\r\n            \"Rental property is already listed\"\r\n        );\r\n        _;\r\n    }\r\n\r\n    // Modifier to check the rental application exist\r\n    modifier rentalApplicationExist(\r\n        uint256 rentalPropertyId,\r\n        uint256 applicationId\r\n    ) {\r\n        require(\r\n            rentalApplications[rentalPropertyId][applicationId].tenantAddress !=\r\n                address(0),\r\n            \"Rental application does not exist\"\r\n        );\r\n        _;\r\n    }\r\n\r\n    // Modifier to check the rental application is pending\r\n    modifier rentalApplicationPending(\r\n        uint256 rentalPropertyId,\r\n        uint256 applicationId\r\n    ) {\r\n        require(\r\n            rentalApplications[rentalPropertyId][applicationId].status ==\r\n                RentStatus.PENDING,\r\n            \"Rental application is not pending\"\r\n        );\r\n        _;\r\n    }\r\n\r\n    // Modifier to check the rental application is ongoing\r\n    modifier rentalApplicationOngoing(\r\n        uint256 rentalPropertyId,\r\n        uint256 applicationId\r\n    ) {\r\n        require(\r\n            rentalApplications[rentalPropertyId][applicationId].status ==\r\n                RentStatus.ONGOING,\r\n            \"Rental application is not ongoing\"\r\n        );\r\n        _;\r\n    }\r\n\r\n    // Modifier to check the rental application is made payment\r\n    modifier rentalApplicationMadePayment(\r\n        uint256 rentalPropertyId,\r\n        uint256 applicationId\r\n    ) {\r\n        require(\r\n            rentalApplications[rentalPropertyId][applicationId].status ==\r\n                RentStatus.MADE_PAYMENT,\r\n            \"Tenant has not made payment\"\r\n        );\r\n        _;\r\n    }\r\n\r\n    // Modifier to check the rental application is completed\r\n    modifier rentalApplicationCompleted(\r\n        uint256 rentalPropertyId,\r\n        uint256 applicationId\r\n    ) {\r\n        require(\r\n            rentalApplications[rentalPropertyId][applicationId].status ==\r\n                RentStatus.COMPLETED,\r\n            \"Rental application is not completed\"\r\n        );\r\n        _;\r\n    }\r\n\r\n    // Modifier to check the rental property is vacant\r\n    modifier rentalPropertyVacant(uint256 rentalPropertyId) {\r\n        require(\r\n            rentalApplicationCounts[rentalPropertyId] == 0,\r\n            \"Rental property is not vacant\"\r\n        );\r\n        _;\r\n    }\r\n\r\n    // Modifier to check the number of rental applications is less than the number of tenants\r\n    modifier rentalPropertyNotFull(uint256 rentalPropertyId) {\r\n        require(\r\n            rentalApplicationCounts[rentalPropertyId] <\r\n                rentalPropertyContract.getNumOfTenants(rentalPropertyId),\r\n            \"Rental property is full\"\r\n        );\r\n        _;\r\n    }\r\n\r\n    // Modifier to check the tenant has not applied for the rental property\r\n    modifier tenantNotApplied(uint256 rentalPropertyId) {\r\n        require(\r\n            !hasApplied[rentalPropertyId][msg.sender],\r\n            \"Tenant has already applied for this rental property\"\r\n        );\r\n        _;\r\n    }\r\n\r\n    // Modifier to check the tenant has applied for the rental property\r\n    modifier tenantApplied(uint256 rentalPropertyId) {\r\n        require(\r\n            hasApplied[rentalPropertyId][msg.sender],\r\n            \"Tenant has not applied for this rental property\"\r\n        );\r\n        _;\r\n    }\r\n\r\n    // Modifier to check Deposit LeaseToken is greater than 0\r\n    modifier depositFeeGreaterThanZero(uint256 depositFee) {\r\n        require(depositFee > 0, \"Deposit LeaseToken must be greater than 0\");\r\n        _;\r\n    }\r\n\r\n    // ################################################### FUNCTIONS ################################################### //\r\n\r\n    //Landlord can list a rental property to the marketplace to start accepting tenants.\r\n    function listARentalProperty(\r\n        uint256 rentalPropertyId,\r\n        uint256 depositFee\r\n    )\r\n        public\r\n        rentalPropertyNotListed(rentalPropertyId)\r\n        depositFeeGreaterThanZero(depositFee)\r\n        landlordOnly(rentalPropertyId)\r\n    {\r\n        // Protection fee (in LeaseToken) set by PaymentEscrow Contract required for listing of the rental property (to protect the landlord from potential disputes)\r\n        uint256 protectionFee = paymentEscrowContract.getProtectionFee();\r\n        \r\n        // Create a payment transaction between landlord and PaymentEscrow contract\r\n        uint256 paymentId = createPaymentTransaction(\r\n            msg.sender, // Landlord\r\n            address(paymentEscrowContract), // PaymentEscrow Contract\r\n            protectionFee // Protection fee (LeaseToken) required for listing of the rental property\r\n        );\r\n\r\n        // Set the payment transaction id to the rental property\r\n        rentalPropertyContract.setPaymentId(rentalPropertyId, paymentId);\r\n        // Deposit fee (in LeaseToken) set by Landlord required for the rental property (to be paid by tenant if they apply for the rental property)\r\n        rentalPropertyDeposits[rentalPropertyId] = depositFee;\r\n        // Set the rental property as listed\r\n        rentalPropertyContract.setListedStatus(rentalPropertyId, true);\r\n        // Increment the number of listed rental properties\r\n        rentalPropertyContract.incrementListedRentalProperty();\r\n        emit RentalPropertyListed(rentalPropertyId, depositFee);\r\n    }\r\n\r\n    //Landlord can unlist a rental property from the marketplace to stop accepting tenants.\r\n    function unlistARentalProperty(\r\n        uint256 rentalPropertyId\r\n    )\r\n        public\r\n        rentalPropertyListed(rentalPropertyId)\r\n        landlordOnly(rentalPropertyId)\r\n        rentalPropertyVacant(rentalPropertyId)\r\n    {\r\n        //PaymentEscrow Contract refund the protection fee (LeaseToken) to the landlord during unlisting of the rental property\r\n        paymentEscrowContract.refund(\r\n            rentalPropertyContract.getPaymentId(rentalPropertyId)\r\n        );\r\n\r\n        //Set the deposit required for the rental property to 0\r\n        rentalPropertyDeposits[rentalPropertyId] = 0;\r\n        //Remove the payment transaction id from the rental property\r\n        rentalPropertyContract.setPaymentId(rentalPropertyId, 0);\r\n        //Set the rental property as not listed\r\n        rentalPropertyContract.setListedStatus(rentalPropertyId, false);\r\n        //Decrement the number of listed rental properties\r\n        rentalPropertyContract.decrementListedRentalProperty();\r\n        emit RentalPropertyUnlisted(rentalPropertyId);\r\n    }\r\n\r\n    //Tenant can apply for a rental property by submitting a rental application.\r\n    //Tenant must initially pay the deposit (LeaseToken) for the rental property to the PaymentEscrow contract.\r\n    //Deposit will be returned to the tenant if the rental application is rejected.\r\n    function applyRentalProperty(\r\n        uint256 rentalPropertyId,\r\n        string memory tenantName,\r\n        string memory tenantEmail,\r\n        string memory tenantPhone,\r\n        string memory description\r\n    )\r\n        public\r\n        rentalPropertyListed(rentalPropertyId)\r\n        rentalPropertyNotFull(rentalPropertyId)\r\n        tenantNotApplied(rentalPropertyId)\r\n    {\r\n        require(\r\n            msg.sender != rentalPropertyContract.getLandlord(rentalPropertyId),\r\n            \"Landlord cannot apply for own rental property\"\r\n        );\r\n\r\n        uint256 applicationId = rentalApplicationCounts[rentalPropertyId];\r\n        rentalApplications[rentalPropertyId][applicationId] = RentalApplication(\r\n            rentalPropertyId,\r\n            rentalApplicationCounts[rentalPropertyId],\r\n            msg.sender,\r\n            tenantName,\r\n            tenantEmail,\r\n            tenantPhone,\r\n            description,\r\n            0,\r\n            RentStatus.PENDING,\r\n            new uint256[](1000) // Limit of 1000 payment transactions\r\n        );\r\n\r\n        // Deposit Fee (LeaseToken) required for the rental property\r\n        uint256 depositFee = rentalPropertyDeposits[rentalPropertyId];\r\n        // Create a payment transaction between tenant and PaymentEscrow contract\r\n        uint256 paymentId = createPaymentTransaction(\r\n            msg.sender, // Tenant\r\n            rentalPropertyContract.getLandlord(rentalPropertyId), // Landlord\r\n            depositFee // Deposit fee (LeaseToken) required for the rental property\r\n        );\r\n        \r\n        // Add the payment transaction id to the rental application\r\n        rentalApplications[rentalPropertyId][applicationId].paymentIds.push(\r\n            paymentId\r\n        );\r\n\r\n        // Increment the application count\r\n        rentalApplicationCounts[rentalPropertyId]++;\r\n        // Tenant has applied for the rental property\r\n        hasApplied[rentalPropertyId][msg.sender] = true;\r\n        // Landlord cannot update/delete the rental property while there is an ongoing application\r\n        rentalPropertyContract.setUpdateStatus(rentalPropertyId, false);\r\n        emit RentalApplicationSubmitted(rentalPropertyId, applicationId);\r\n    }\r\n\r\n    // Landlord can reject a rental application.\r\n    function rejectRentalApplication(\r\n        uint256 rentalPropertyId,\r\n        uint256 applicationId\r\n    )\r\n        public\r\n        landlordOnly(rentalPropertyId)\r\n        rentalApplicationExist(rentalPropertyId, applicationId)\r\n        rentalApplicationPending(rentalPropertyId, applicationId)\r\n    {\r\n        // PaymentEscrow Contract refund the deposit (LeaseToken) to the tenant if the rental application is rejected (first payment transaction id)\r\n        // First payment transaction id in the array is always the deposit\r\n        paymentEscrowContract.refund(\r\n            rentalApplications[rentalPropertyId][applicationId].paymentIds[0]\r\n        );\r\n\r\n        // Remove the rental application from the rental property and update corresponding mappings\r\n        removeApplication(rentalPropertyId, applicationId);\r\n\r\n        emit RentalApplicationRejected(rentalPropertyId, applicationId);\r\n    }\r\n\r\n    //Landlord can accept a rental application to start the rental process.\r\n    function acceptRentalApplication(\r\n        uint256 rentalPropertyId,\r\n        uint256 applicationId\r\n    )\r\n        public\r\n        landlordOnly(rentalPropertyId)\r\n        rentalApplicationExist(rentalPropertyId, applicationId)\r\n        rentalApplicationPending(rentalPropertyId, applicationId)\r\n    {\r\n        RentalApplication storage rentalApplication = rentalApplications[\r\n            rentalPropertyId\r\n        ][applicationId];\r\n\r\n        // Release the deposit (LeaseToken) to the landlord if the rental application is accepted (first payment transaction id)\r\n        // First payment transaction id in the array is always the deposit\r\n        paymentEscrowContract.release(rentalApplication.paymentIds[0]);\r\n\r\n        // Update the rental application status to ongoing\r\n        rentalApplication.status = RentStatus.ONGOING;\r\n        emit RentalApplicationAccepted(rentalPropertyId, applicationId);\r\n    }\r\n\r\n    //Tenant can make a payment for the rental property.\r\n    function makePayment(\r\n        uint256 rentalPropertyId,\r\n        uint256 applicationId\r\n    )\r\n        public\r\n        rentalPropertyListed(rentalPropertyId)\r\n        tenantApplied(rentalPropertyId)\r\n        rentalApplicationExist(rentalPropertyId, applicationId)\r\n        rentalApplicationOngoing(rentalPropertyId, applicationId)\r\n    {\r\n        require(\r\n            msg.sender != rentalPropertyContract.getLandlord(rentalPropertyId),\r\n            \"Landlord cannot make payment for own rental property\"\r\n        );\r\n        RentalApplication storage rentalApplication = rentalApplications[\r\n            rentalPropertyId\r\n        ][applicationId];\r\n\r\n        // Monthly rent required for the rental property\r\n        uint256 monthlyRent = rentalPropertyContract.getRentalPrice(\r\n            rentalPropertyId\r\n        );\r\n        // Create a payment transaction between tenant and landlord\r\n        uint256 paymentId = createPaymentTransaction(\r\n            msg.sender, // Tenant\r\n            rentalPropertyContract.getLandlord(rentalPropertyId), // Landlord\r\n            monthlyRent // Monthly rent required for the rental property\r\n        );\r\n\r\n         // Add the payment transaction id to the rental application\r\n        rentalApplications[rentalPropertyId][applicationId].paymentIds.push(\r\n            paymentId\r\n        );\r\n\r\n        // Update the rental application status to made payment\r\n        rentalApplication.status = RentStatus.MADE_PAYMENT;\r\n        emit PaymentMade(rentalPropertyId, applicationId);\r\n    }\r\n\r\n    //Landlord can accept a payment from a tenant.\r\n    function acceptPayment(\r\n        uint256 rentalPropertyId,\r\n        uint256 applicationId\r\n    )\r\n        public\r\n        rentalPropertyListed(rentalPropertyId)\r\n        landlordOnly(rentalPropertyId)\r\n        rentalApplicationExist(rentalPropertyId, applicationId)\r\n        rentalApplicationMadePayment(rentalPropertyId, applicationId)\r\n    {\r\n        RentalApplication storage rentalApplication = rentalApplications[\r\n            rentalPropertyId\r\n        ][applicationId];\r\n\r\n        // Release the monthly rent to the landlord if the payment is accepted (latest payment transaction id)\r\n        // First payment transaction id in the array is always the deposit so the latest payment transaction id is the most recent monthly rent made by the tenant\r\n        paymentEscrowContract.release(\r\n            rentalApplication.paymentIds[\r\n                rentalApplication.paymentIds.length - 1\r\n            ]\r\n        );\r\n\r\n        // Increment the number of months the tenant has paid\r\n        rentalApplication.monthsPaid++;\r\n\r\n        // Check if the rental is completed for the tenant (e.g. tenant move out and landlord return deposit if any), else the rental is ongoing\r\n        if (\r\n            rentalApplication.monthsPaid ==\r\n            rentalPropertyContract.getLeaseDuration(rentalPropertyId)\r\n        ) {\r\n            rentalApplication.status = RentStatus.COMPLETED;\r\n        } else {\r\n            rentalApplication.status = RentStatus.ONGOING;\r\n        }\r\n\r\n        emit PaymentAccepted(rentalPropertyId, applicationId);\r\n    }\r\n\r\n    //Tenant move out of the rental property and landlord return deposit if any.\r\n    function moveOut(\r\n        uint256 rentalPropertyId,\r\n        uint256 applicationId\r\n    )\r\n        public\r\n        rentalPropertyListed(rentalPropertyId)\r\n        tenantApplied(rentalPropertyId)\r\n        rentalApplicationExist(rentalPropertyId, applicationId)\r\n        rentalApplicationCompleted(rentalPropertyId, applicationId)\r\n    {\r\n        require(\r\n            msg.sender != rentalPropertyContract.getLandlord(rentalPropertyId),\r\n            \"Landlord cannot move out of own rental property\"\r\n        );\r\n\r\n        // PaymentEscrow Contract refund the deposit fee balance (LeaseToken) to the tenant if the rental is completed\r\n        uint256 depositFee = rentalPropertyDeposits[rentalPropertyId];\r\n        // Create a payment transaction between tenant and landlord\r\n        uint256 paymentId = createPaymentTransaction(\r\n            rentalPropertyContract.getLandlord(rentalPropertyId), // Landlord\r\n            msg.sender, // Tenant\r\n            depositFee // Deposit fee balance (LeaseToken) to be returned to the tenant if the rental is completed\r\n        );\r\n        // Release the remaining deposit fee balance (LeaseToken) from PaymentEscrow to the tenant if the rental is completed\r\n        paymentEscrowContract.release(paymentId);\r\n\r\n        // Add the payment transaction id to the rental application\r\n        rentalApplications[rentalPropertyId][applicationId].paymentIds.push(\r\n            paymentId\r\n        );\r\n\r\n        // Remove the rental application from the rental property and update corresponding mappings\r\n        removeApplication(rentalPropertyId, applicationId);\r\n\r\n        emit tenantMoveOut(rentalPropertyId, applicationId);\r\n    }\r\n\r\n\r\n    // ################################################### INTERNAL FUNCTIONS ################################################### //\r\n    \r\n    // Remove the rental application from the rental property and update corresponding mappings\r\n    function removeApplication(\r\n        uint256 rentalPropertyId,\r\n        uint256 applicationId\r\n    )\r\n        private\r\n        rentalPropertyListed(rentalPropertyId)\r\n        rentalApplicationExist(rentalPropertyId, applicationId)\r\n    {\r\n        // Application count is reduced by 1\r\n        rentalApplicationCounts[rentalPropertyId]--;\r\n        // Tenant can reapply for the rental property\r\n        hasApplied[rentalPropertyId][\r\n            rentalApplications[rentalPropertyId][applicationId].tenantAddress\r\n        ] = false;\r\n        // Remove the rental application\r\n        delete rentalApplications[rentalPropertyId][applicationId];\r\n\r\n        if (rentalApplicationCounts[rentalPropertyId] == 0) {\r\n            // Landlord can re-update the rental property if there is no ongoing application\r\n            rentalPropertyContract.setUpdateStatus(rentalPropertyId, true);\r\n        }\r\n    }\r\n\r\n    // Create a payment transaction between two parties\r\n    function createPaymentTransaction(\r\n        address from,\r\n        address to,\r\n        uint256 amount\r\n    ) private returns (uint256) {\r\n        // Create a payment transaction between two parties\r\n        uint256 paymentId = paymentEscrowContract.createPayment(\r\n            from,\r\n            to,\r\n            amount\r\n        );\r\n        // Pay the payment transaction\r\n        paymentEscrowContract.pay(paymentId);\r\n        return paymentId;\r\n    }\r\n\r\n    // ################################################### GETTER METHODS ################################################### //\r\n\r\n    //Get the rental application details for a rental property.\r\n    function getRentalApplication(\r\n        uint256 rentalPropertyId,\r\n        uint256 applicationId\r\n    ) public view returns (RentalApplication memory) {\r\n        return rentalApplications[rentalPropertyId][applicationId];\r\n    }\r\n\r\n    //Get all rental applications for a rental property.\r\n    function getRentalApplicationsFromRentalProperty(\r\n        uint256 rentalPropertyId\r\n    )\r\n        public\r\n        view\r\n        landlordOnly(rentalPropertyId)\r\n        returns (RentalApplication[] memory)\r\n    {\r\n        RentalApplication[] memory applications = new RentalApplication[](\r\n            rentalApplicationCounts[rentalPropertyId]\r\n        );\r\n        for (\r\n            uint256 i = 0;\r\n            i < rentalApplicationCounts[rentalPropertyId];\r\n            i++\r\n        ) {\r\n            applications[i] = rentalApplications[rentalPropertyId][i];\r\n        }\r\n        return applications;\r\n    }\r\n\r\n    //Get the number of rental applications for a rental property.\r\n    function getRentalApplicationCount(\r\n        uint256 rentalPropertyId\r\n    ) public view returns (uint256) {\r\n        return rentalApplicationCounts[rentalPropertyId];\r\n    }\r\n\r\n    //Check if a tenant has applied for a rental property.\r\n    function getHasApplied(\r\n        uint256 rentalPropertyId,\r\n        address tenantAddress\r\n    ) public view returns (bool) {\r\n        return hasApplied[rentalPropertyId][tenantAddress];\r\n    }\r\n\r\n    //Get count of rental applications for a tenant.\r\n    function getRentalApplicationCountByTenant(\r\n        address tenantAddress\r\n    ) public view returns (uint256) {\r\n        uint256 count = 0;\r\n        for (\r\n            uint256 i = 0;\r\n            i < rentalPropertyContract.getNumRentalProperty();\r\n            i++\r\n        ) {\r\n            if (hasApplied[i][tenantAddress]) {\r\n                count++;\r\n            }\r\n        }\r\n        return count;\r\n    }\r\n\r\n    //Get all rental properties that a tenant has applied for.\r\n    function getRentalPropertiesAppliedByTenant(\r\n        address tenantAddress\r\n    ) public view returns (RentalApplication[] memory) {\r\n        uint256 count = getRentalApplicationCountByTenant(tenantAddress);\r\n\r\n        RentalApplication[] memory applications = new RentalApplication[](\r\n            count\r\n        );\r\n        uint256 index = 0;\r\n        for (\r\n            uint256 i = 0;\r\n            i < rentalPropertyContract.getNumRentalProperty();\r\n            i++\r\n        ) {\r\n            if (hasApplied[i][tenantAddress]) {\r\n                applications[index] = rentalApplications[i][i];\r\n                index++;\r\n            }\r\n        }\r\n        return applications;\r\n    }\r\n\r\n    //Get the deposit required for a rental property.\r\n    function getDepositAmount(\r\n        uint256 rentalPropertyId\r\n    ) public view returns (uint256) {\r\n        return rentalPropertyDeposits[rentalPropertyId];\r\n    }\r\n}",
  "sourcePath": "C:\\Users\\Bransome Tan Yi Hao\\OneDrive - National University of Singapore\\Desktop\\IS4302\\is4302-project\\contracts\\RentalMarketplace.sol",
  "compiler": {
    "name": "solc",
    "version": "0.8.1+commit.df193b15.Emscripten.clang"
  },
  "schemaVersion": "3.4.16",
  "updatedAt": "2024-04-10T10:57:24.958Z",
  "networkType": "ethereum",
  "devdoc": {
    "kind": "dev",
    "methods": {},
    "version": 1
  },
  "userdoc": {
    "kind": "user",
    "methods": {},
    "version": 1
  }
}