{
  "contractName": "RentalProperty",
  "abi": [
    {
      "anonymous": false,
      "inputs": [
        {
          "indexed": false,
          "internalType": "uint256",
          "name": "rentalPropertyId",
          "type": "uint256"
        },
        {
          "indexed": false,
          "internalType": "string",
          "name": "location",
          "type": "string"
        },
        {
          "indexed": false,
          "internalType": "string",
          "name": "postalCode",
          "type": "string"
        },
        {
          "indexed": false,
          "internalType": "string",
          "name": "unitNumber",
          "type": "string"
        },
        {
          "indexed": false,
          "internalType": "enum RentalProperty.PropertyType",
          "name": "propertyType",
          "type": "uint8"
        },
        {
          "indexed": false,
          "internalType": "string",
          "name": "description",
          "type": "string"
        },
        {
          "indexed": false,
          "internalType": "uint256",
          "name": "numOfTenants",
          "type": "uint256"
        },
        {
          "indexed": false,
          "internalType": "uint256",
          "name": "rentalPrice",
          "type": "uint256"
        },
        {
          "indexed": false,
          "internalType": "uint256",
          "name": "leaseDuration",
          "type": "uint256"
        },
        {
          "indexed": false,
          "internalType": "address",
          "name": "landlord",
          "type": "address"
        },
        {
          "indexed": false,
          "internalType": "bool",
          "name": "updateStatus",
          "type": "bool"
        },
        {
          "indexed": false,
          "internalType": "bool",
          "name": "isListed",
          "type": "bool"
        }
      ],
      "name": "RentalPropertyCreated",
      "type": "event"
    },
    {
      "anonymous": false,
      "inputs": [
        {
          "indexed": false,
          "internalType": "uint256",
          "name": "rentalPropertyId",
          "type": "uint256"
        }
      ],
      "name": "RentalPropertyDeleted",
      "type": "event"
    },
    {
      "anonymous": false,
      "inputs": [
        {
          "indexed": false,
          "internalType": "uint256",
          "name": "rentalPropertyId",
          "type": "uint256"
        },
        {
          "indexed": false,
          "internalType": "string",
          "name": "newDescription",
          "type": "string"
        }
      ],
      "name": "RentalPropertyUpdateDescription",
      "type": "event"
    },
    {
      "anonymous": false,
      "inputs": [
        {
          "indexed": false,
          "internalType": "uint256",
          "name": "rentalPropertyId",
          "type": "uint256"
        },
        {
          "indexed": false,
          "internalType": "uint256",
          "name": "newLeaseDuration",
          "type": "uint256"
        }
      ],
      "name": "RentalPropertyUpdateLeaseDuration",
      "type": "event"
    },
    {
      "anonymous": false,
      "inputs": [
        {
          "indexed": false,
          "internalType": "uint256",
          "name": "rentalPropertyId",
          "type": "uint256"
        },
        {
          "indexed": false,
          "internalType": "string",
          "name": "newLocation",
          "type": "string"
        }
      ],
      "name": "RentalPropertyUpdateLocation",
      "type": "event"
    },
    {
      "anonymous": false,
      "inputs": [
        {
          "indexed": false,
          "internalType": "uint256",
          "name": "rentalPropertyId",
          "type": "uint256"
        },
        {
          "indexed": false,
          "internalType": "uint256",
          "name": "newNumOfTenants",
          "type": "uint256"
        }
      ],
      "name": "RentalPropertyUpdateNumOfTenants",
      "type": "event"
    },
    {
      "anonymous": false,
      "inputs": [
        {
          "indexed": false,
          "internalType": "uint256",
          "name": "rentalPropertyId",
          "type": "uint256"
        },
        {
          "indexed": false,
          "internalType": "string",
          "name": "newPostalCode",
          "type": "string"
        }
      ],
      "name": "RentalPropertyUpdatePostalCode",
      "type": "event"
    },
    {
      "anonymous": false,
      "inputs": [
        {
          "indexed": false,
          "internalType": "uint256",
          "name": "rentalPropertyId",
          "type": "uint256"
        },
        {
          "indexed": false,
          "internalType": "enum RentalProperty.PropertyType",
          "name": "newPropertyType",
          "type": "uint8"
        }
      ],
      "name": "RentalPropertyUpdatePropertyType",
      "type": "event"
    },
    {
      "anonymous": false,
      "inputs": [
        {
          "indexed": false,
          "internalType": "uint256",
          "name": "rentalPropertyId",
          "type": "uint256"
        },
        {
          "indexed": false,
          "internalType": "uint256",
          "name": "newRentalPrice",
          "type": "uint256"
        }
      ],
      "name": "RentalPropertyUpdateRentalPrice",
      "type": "event"
    },
    {
      "anonymous": false,
      "inputs": [
        {
          "indexed": false,
          "internalType": "uint256",
          "name": "rentalPropertyId",
          "type": "uint256"
        },
        {
          "indexed": false,
          "internalType": "string",
          "name": "newUnitNumber",
          "type": "string"
        }
      ],
      "name": "RentalPropertyUpdateUnitNumber",
      "type": "event"
    },
    {
      "inputs": [
        {
          "internalType": "string",
          "name": "_location",
          "type": "string"
        },
        {
          "internalType": "string",
          "name": "_postalCode",
          "type": "string"
        },
        {
          "internalType": "string",
          "name": "_unitNumber",
          "type": "string"
        },
        {
          "internalType": "enum RentalProperty.PropertyType",
          "name": "_propertyType",
          "type": "uint8"
        },
        {
          "internalType": "string",
          "name": "_description",
          "type": "string"
        },
        {
          "internalType": "uint256",
          "name": "_numOfTenants",
          "type": "uint256"
        },
        {
          "internalType": "uint256",
          "name": "_rentalPrice",
          "type": "uint256"
        },
        {
          "internalType": "uint256",
          "name": "_leaseDuration",
          "type": "uint256"
        }
      ],
      "name": "addRentalProperty",
      "outputs": [
        {
          "internalType": "uint256",
          "name": "",
          "type": "uint256"
        }
      ],
      "stateMutability": "nonpayable",
      "type": "function"
    },
    {
      "inputs": [
        {
          "internalType": "uint256",
          "name": "rentalPropertyId",
          "type": "uint256"
        }
      ],
      "name": "getRentalProperty",
      "outputs": [
        {
          "components": [
            {
              "internalType": "string",
              "name": "location",
              "type": "string"
            },
            {
              "internalType": "string",
              "name": "postalCode",
              "type": "string"
            },
            {
              "internalType": "string",
              "name": "unitNumber",
              "type": "string"
            },
            {
              "internalType": "enum RentalProperty.PropertyType",
              "name": "propertyType",
              "type": "uint8"
            },
            {
              "internalType": "string",
              "name": "description",
              "type": "string"
            },
            {
              "internalType": "uint256",
              "name": "numOfTenants",
              "type": "uint256"
            },
            {
              "internalType": "uint256",
              "name": "rentalPrice",
              "type": "uint256"
            },
            {
              "internalType": "uint256",
              "name": "leaseDuration",
              "type": "uint256"
            },
            {
              "internalType": "address",
              "name": "landlord",
              "type": "address"
            },
            {
              "internalType": "bool",
              "name": "updateStatus",
              "type": "bool"
            },
            {
              "internalType": "bool",
              "name": "isListed",
              "type": "bool"
            }
          ],
          "internalType": "struct RentalProperty.rentalProperty",
          "name": "",
          "type": "tuple"
        }
      ],
      "stateMutability": "view",
      "type": "function"
    },
    {
      "inputs": [
        {
          "internalType": "uint256",
          "name": "rentalPropertyId",
          "type": "uint256"
        }
      ],
      "name": "getLocation",
      "outputs": [
        {
          "internalType": "string",
          "name": "",
          "type": "string"
        }
      ],
      "stateMutability": "view",
      "type": "function"
    },
    {
      "inputs": [
        {
          "internalType": "uint256",
          "name": "rentalPropertyId",
          "type": "uint256"
        }
      ],
      "name": "getPostalCode",
      "outputs": [
        {
          "internalType": "string",
          "name": "",
          "type": "string"
        }
      ],
      "stateMutability": "view",
      "type": "function"
    },
    {
      "inputs": [
        {
          "internalType": "uint256",
          "name": "rentalPropertyId",
          "type": "uint256"
        }
      ],
      "name": "getUnitNumber",
      "outputs": [
        {
          "internalType": "string",
          "name": "",
          "type": "string"
        }
      ],
      "stateMutability": "view",
      "type": "function"
    },
    {
      "inputs": [
        {
          "internalType": "uint256",
          "name": "rentalPropertyId",
          "type": "uint256"
        }
      ],
      "name": "getPropertyType",
      "outputs": [
        {
          "internalType": "enum RentalProperty.PropertyType",
          "name": "",
          "type": "uint8"
        }
      ],
      "stateMutability": "view",
      "type": "function"
    },
    {
      "inputs": [
        {
          "internalType": "uint256",
          "name": "rentalPropertyId",
          "type": "uint256"
        }
      ],
      "name": "getDescription",
      "outputs": [
        {
          "internalType": "string",
          "name": "",
          "type": "string"
        }
      ],
      "stateMutability": "view",
      "type": "function"
    },
    {
      "inputs": [
        {
          "internalType": "uint256",
          "name": "rentalPropertyId",
          "type": "uint256"
        }
      ],
      "name": "getNumOfTenants",
      "outputs": [
        {
          "internalType": "uint256",
          "name": "",
          "type": "uint256"
        }
      ],
      "stateMutability": "view",
      "type": "function"
    },
    {
      "inputs": [
        {
          "internalType": "uint256",
          "name": "rentalPropertyId",
          "type": "uint256"
        }
      ],
      "name": "getRentalPrice",
      "outputs": [
        {
          "internalType": "uint256",
          "name": "",
          "type": "uint256"
        }
      ],
      "stateMutability": "view",
      "type": "function"
    },
    {
      "inputs": [
        {
          "internalType": "uint256",
          "name": "rentalPropertyId",
          "type": "uint256"
        }
      ],
      "name": "getLeaseDuration",
      "outputs": [
        {
          "internalType": "uint256",
          "name": "",
          "type": "uint256"
        }
      ],
      "stateMutability": "view",
      "type": "function"
    },
    {
      "inputs": [
        {
          "internalType": "uint256",
          "name": "rentalPropertyId",
          "type": "uint256"
        }
      ],
      "name": "getLandlord",
      "outputs": [
        {
          "internalType": "address",
          "name": "",
          "type": "address"
        }
      ],
      "stateMutability": "view",
      "type": "function"
    },
    {
      "inputs": [],
      "name": "getNumRentalProperty",
      "outputs": [
        {
          "internalType": "uint256",
          "name": "",
          "type": "uint256"
        }
      ],
      "stateMutability": "view",
      "type": "function"
    },
    {
      "inputs": [
        {
          "internalType": "uint256",
          "name": "rentalPropertyId",
          "type": "uint256"
        }
      ],
      "name": "getUpdateStatus",
      "outputs": [
        {
          "internalType": "bool",
          "name": "",
          "type": "bool"
        }
      ],
      "stateMutability": "view",
      "type": "function"
    },
    {
      "inputs": [
        {
          "internalType": "uint256",
          "name": "rentalPropertyId",
          "type": "uint256"
        }
      ],
      "name": "getListedStatus",
      "outputs": [
        {
          "internalType": "bool",
          "name": "",
          "type": "bool"
        }
      ],
      "stateMutability": "view",
      "type": "function"
    },
    {
      "inputs": [],
      "name": "getAllRentalProperties",
      "outputs": [
        {
          "components": [
            {
              "internalType": "string",
              "name": "location",
              "type": "string"
            },
            {
              "internalType": "string",
              "name": "postalCode",
              "type": "string"
            },
            {
              "internalType": "string",
              "name": "unitNumber",
              "type": "string"
            },
            {
              "internalType": "enum RentalProperty.PropertyType",
              "name": "propertyType",
              "type": "uint8"
            },
            {
              "internalType": "string",
              "name": "description",
              "type": "string"
            },
            {
              "internalType": "uint256",
              "name": "numOfTenants",
              "type": "uint256"
            },
            {
              "internalType": "uint256",
              "name": "rentalPrice",
              "type": "uint256"
            },
            {
              "internalType": "uint256",
              "name": "leaseDuration",
              "type": "uint256"
            },
            {
              "internalType": "address",
              "name": "landlord",
              "type": "address"
            },
            {
              "internalType": "bool",
              "name": "updateStatus",
              "type": "bool"
            },
            {
              "internalType": "bool",
              "name": "isListed",
              "type": "bool"
            }
          ],
          "internalType": "struct RentalProperty.rentalProperty[]",
          "name": "",
          "type": "tuple[]"
        }
      ],
      "stateMutability": "view",
      "type": "function"
    },
    {
      "inputs": [],
      "name": "getAllListedRentalProperties",
      "outputs": [
        {
          "components": [
            {
              "internalType": "string",
              "name": "location",
              "type": "string"
            },
            {
              "internalType": "string",
              "name": "postalCode",
              "type": "string"
            },
            {
              "internalType": "string",
              "name": "unitNumber",
              "type": "string"
            },
            {
              "internalType": "enum RentalProperty.PropertyType",
              "name": "propertyType",
              "type": "uint8"
            },
            {
              "internalType": "string",
              "name": "description",
              "type": "string"
            },
            {
              "internalType": "uint256",
              "name": "numOfTenants",
              "type": "uint256"
            },
            {
              "internalType": "uint256",
              "name": "rentalPrice",
              "type": "uint256"
            },
            {
              "internalType": "uint256",
              "name": "leaseDuration",
              "type": "uint256"
            },
            {
              "internalType": "address",
              "name": "landlord",
              "type": "address"
            },
            {
              "internalType": "bool",
              "name": "updateStatus",
              "type": "bool"
            },
            {
              "internalType": "bool",
              "name": "isListed",
              "type": "bool"
            }
          ],
          "internalType": "struct RentalProperty.rentalProperty[]",
          "name": "",
          "type": "tuple[]"
        }
      ],
      "stateMutability": "view",
      "type": "function"
    },
    {
      "inputs": [],
      "name": "getAllUnlistedRentalProperties",
      "outputs": [
        {
          "components": [
            {
              "internalType": "string",
              "name": "location",
              "type": "string"
            },
            {
              "internalType": "string",
              "name": "postalCode",
              "type": "string"
            },
            {
              "internalType": "string",
              "name": "unitNumber",
              "type": "string"
            },
            {
              "internalType": "enum RentalProperty.PropertyType",
              "name": "propertyType",
              "type": "uint8"
            },
            {
              "internalType": "string",
              "name": "description",
              "type": "string"
            },
            {
              "internalType": "uint256",
              "name": "numOfTenants",
              "type": "uint256"
            },
            {
              "internalType": "uint256",
              "name": "rentalPrice",
              "type": "uint256"
            },
            {
              "internalType": "uint256",
              "name": "leaseDuration",
              "type": "uint256"
            },
            {
              "internalType": "address",
              "name": "landlord",
              "type": "address"
            },
            {
              "internalType": "bool",
              "name": "updateStatus",
              "type": "bool"
            },
            {
              "internalType": "bool",
              "name": "isListed",
              "type": "bool"
            }
          ],
          "internalType": "struct RentalProperty.rentalProperty[]",
          "name": "",
          "type": "tuple[]"
        }
      ],
      "stateMutability": "view",
      "type": "function"
    },
    {
      "inputs": [
        {
          "internalType": "address",
          "name": "landlord",
          "type": "address"
        }
      ],
      "name": "getLandlordRentalProperties",
      "outputs": [
        {
          "components": [
            {
              "internalType": "string",
              "name": "location",
              "type": "string"
            },
            {
              "internalType": "string",
              "name": "postalCode",
              "type": "string"
            },
            {
              "internalType": "string",
              "name": "unitNumber",
              "type": "string"
            },
            {
              "internalType": "enum RentalProperty.PropertyType",
              "name": "propertyType",
              "type": "uint8"
            },
            {
              "internalType": "string",
              "name": "description",
              "type": "string"
            },
            {
              "internalType": "uint256",
              "name": "numOfTenants",
              "type": "uint256"
            },
            {
              "internalType": "uint256",
              "name": "rentalPrice",
              "type": "uint256"
            },
            {
              "internalType": "uint256",
              "name": "leaseDuration",
              "type": "uint256"
            },
            {
              "internalType": "address",
              "name": "landlord",
              "type": "address"
            },
            {
              "internalType": "bool",
              "name": "updateStatus",
              "type": "bool"
            },
            {
              "internalType": "bool",
              "name": "isListed",
              "type": "bool"
            }
          ],
          "internalType": "struct RentalProperty.rentalProperty[]",
          "name": "",
          "type": "tuple[]"
        }
      ],
      "stateMutability": "view",
      "type": "function"
    },
    {
      "inputs": [
        {
          "internalType": "address",
          "name": "landlord",
          "type": "address"
        }
      ],
      "name": "getLandlordListedRentalProperties",
      "outputs": [
        {
          "components": [
            {
              "internalType": "string",
              "name": "location",
              "type": "string"
            },
            {
              "internalType": "string",
              "name": "postalCode",
              "type": "string"
            },
            {
              "internalType": "string",
              "name": "unitNumber",
              "type": "string"
            },
            {
              "internalType": "enum RentalProperty.PropertyType",
              "name": "propertyType",
              "type": "uint8"
            },
            {
              "internalType": "string",
              "name": "description",
              "type": "string"
            },
            {
              "internalType": "uint256",
              "name": "numOfTenants",
              "type": "uint256"
            },
            {
              "internalType": "uint256",
              "name": "rentalPrice",
              "type": "uint256"
            },
            {
              "internalType": "uint256",
              "name": "leaseDuration",
              "type": "uint256"
            },
            {
              "internalType": "address",
              "name": "landlord",
              "type": "address"
            },
            {
              "internalType": "bool",
              "name": "updateStatus",
              "type": "bool"
            },
            {
              "internalType": "bool",
              "name": "isListed",
              "type": "bool"
            }
          ],
          "internalType": "struct RentalProperty.rentalProperty[]",
          "name": "",
          "type": "tuple[]"
        }
      ],
      "stateMutability": "view",
      "type": "function"
    },
    {
      "inputs": [
        {
          "internalType": "address",
          "name": "landlord",
          "type": "address"
        }
      ],
      "name": "getLandlordUnlistedRentalProperties",
      "outputs": [
        {
          "components": [
            {
              "internalType": "string",
              "name": "location",
              "type": "string"
            },
            {
              "internalType": "string",
              "name": "postalCode",
              "type": "string"
            },
            {
              "internalType": "string",
              "name": "unitNumber",
              "type": "string"
            },
            {
              "internalType": "enum RentalProperty.PropertyType",
              "name": "propertyType",
              "type": "uint8"
            },
            {
              "internalType": "string",
              "name": "description",
              "type": "string"
            },
            {
              "internalType": "uint256",
              "name": "numOfTenants",
              "type": "uint256"
            },
            {
              "internalType": "uint256",
              "name": "rentalPrice",
              "type": "uint256"
            },
            {
              "internalType": "uint256",
              "name": "leaseDuration",
              "type": "uint256"
            },
            {
              "internalType": "address",
              "name": "landlord",
              "type": "address"
            },
            {
              "internalType": "bool",
              "name": "updateStatus",
              "type": "bool"
            },
            {
              "internalType": "bool",
              "name": "isListed",
              "type": "bool"
            }
          ],
          "internalType": "struct RentalProperty.rentalProperty[]",
          "name": "",
          "type": "tuple[]"
        }
      ],
      "stateMutability": "view",
      "type": "function"
    },
    {
      "inputs": [],
      "name": "getNumListedRentalProperty",
      "outputs": [
        {
          "internalType": "uint256",
          "name": "",
          "type": "uint256"
        }
      ],
      "stateMutability": "view",
      "type": "function"
    },
    {
      "inputs": [
        {
          "internalType": "address",
          "name": "landlord",
          "type": "address"
        }
      ],
      "name": "getNumLandlordListedRentalProperty",
      "outputs": [
        {
          "internalType": "uint256",
          "name": "",
          "type": "uint256"
        }
      ],
      "stateMutability": "view",
      "type": "function"
    },
    {
      "inputs": [
        {
          "internalType": "uint256",
          "name": "rentalPropertyId",
          "type": "uint256"
        },
        {
          "internalType": "string",
          "name": "newLocation",
          "type": "string"
        }
      ],
      "name": "updateLocation",
      "outputs": [],
      "stateMutability": "nonpayable",
      "type": "function"
    },
    {
      "inputs": [
        {
          "internalType": "uint256",
          "name": "rentalPropertyId",
          "type": "uint256"
        },
        {
          "internalType": "string",
          "name": "newPostalCode",
          "type": "string"
        }
      ],
      "name": "updatePostalCode",
      "outputs": [],
      "stateMutability": "nonpayable",
      "type": "function"
    },
    {
      "inputs": [
        {
          "internalType": "uint256",
          "name": "rentalPropertyId",
          "type": "uint256"
        },
        {
          "internalType": "string",
          "name": "newUnitNumber",
          "type": "string"
        }
      ],
      "name": "updateUnitNumber",
      "outputs": [],
      "stateMutability": "nonpayable",
      "type": "function"
    },
    {
      "inputs": [
        {
          "internalType": "uint256",
          "name": "rentalPropertyId",
          "type": "uint256"
        },
        {
          "internalType": "enum RentalProperty.PropertyType",
          "name": "newPropertyType",
          "type": "uint8"
        }
      ],
      "name": "updatePropertyType",
      "outputs": [],
      "stateMutability": "nonpayable",
      "type": "function"
    },
    {
      "inputs": [
        {
          "internalType": "uint256",
          "name": "rentalPropertyId",
          "type": "uint256"
        },
        {
          "internalType": "string",
          "name": "newDescription",
          "type": "string"
        }
      ],
      "name": "updateDescription",
      "outputs": [],
      "stateMutability": "nonpayable",
      "type": "function"
    },
    {
      "inputs": [
        {
          "internalType": "uint256",
          "name": "rentalPropertyId",
          "type": "uint256"
        },
        {
          "internalType": "uint256",
          "name": "newNumOfTenants",
          "type": "uint256"
        }
      ],
      "name": "updateNumOfTenants",
      "outputs": [],
      "stateMutability": "nonpayable",
      "type": "function"
    },
    {
      "inputs": [
        {
          "internalType": "uint256",
          "name": "rentalPropertyId",
          "type": "uint256"
        },
        {
          "internalType": "uint256",
          "name": "newRentalPrice",
          "type": "uint256"
        }
      ],
      "name": "updateRentalPrice",
      "outputs": [],
      "stateMutability": "nonpayable",
      "type": "function"
    },
    {
      "inputs": [
        {
          "internalType": "uint256",
          "name": "rentalPropertyId",
          "type": "uint256"
        },
        {
          "internalType": "uint256",
          "name": "newLeaseDuration",
          "type": "uint256"
        }
      ],
      "name": "updateLeaseDuration",
      "outputs": [],
      "stateMutability": "nonpayable",
      "type": "function"
    },
    {
      "inputs": [
        {
          "internalType": "uint256",
          "name": "rentalPropertyId",
          "type": "uint256"
        },
        {
          "internalType": "bool",
          "name": "newUpdateStatus",
          "type": "bool"
        }
      ],
      "name": "setUpdateStatus",
      "outputs": [],
      "stateMutability": "nonpayable",
      "type": "function"
    },
    {
      "inputs": [
        {
          "internalType": "uint256",
          "name": "rentalPropertyId",
          "type": "uint256"
        },
        {
          "internalType": "bool",
          "name": "newListedStatus",
          "type": "bool"
        }
      ],
      "name": "setListedStatus",
      "outputs": [],
      "stateMutability": "nonpayable",
      "type": "function"
    },
    {
      "inputs": [],
      "name": "incrementListedRentalProperty",
      "outputs": [],
      "stateMutability": "nonpayable",
      "type": "function"
    },
    {
      "inputs": [],
      "name": "decrementListedRentalProperty",
      "outputs": [],
      "stateMutability": "nonpayable",
      "type": "function"
    },
    {
      "inputs": [
        {
          "internalType": "uint256",
          "name": "rentalPropertyId",
          "type": "uint256"
        }
      ],
      "name": "deleteRentalProperty",
      "outputs": [],
      "stateMutability": "nonpayable",
      "type": "function"
    }
  ],
  "bytecode": "0x608060405260008055600060015534801561001957600080fd5b50615bff806200002a6000396000f3fe608060405234801561001057600080fd5b50600436106102115760003560e01c806390abcd9811610125578063b66b5a42116100ad578063c3b3f0d11161007c578063c3b3f0d11461066e578063e019caa31461068a578063e1ba0b80146106a6578063e924e64a146106c4578063fd003e4a146106f457610211565b8063b66b5a42146105d2578063b69f45b3146105f0578063b7e380391461060e578063bf7225be1461063e57610211565b8063a30cff73116100f4578063a30cff731461051a578063a757e92614610536578063acd7c1d314610554578063aee7813114610572578063b23392ec146105a257610211565b806390abcd98146104825780639d999edd1461049e5780639db1cc75146104ba5780639fa6bd07146104ea57610211565b80634ec0c9e9116101a85780636712f55f116101775780636712f55f146103a65780637735e668146103d65780637f7b1393146104065780638ac765a1146104365780638fbc55f41461045257610211565b80634ec0c9e91461030e578063502fb9fd1461032a5780635f23d8591461035a5780635fcd64531461038a57610211565b80631e820d03116101e45780631e820d0314610288578063384f38a1146102b85780634925ec55146102c25780634ca18df6146102f257610211565b80630d10702c1461021657806314dee4b31461024657806317980888146102625780631b3924e81461027e575b600080fd5b610230600480360381019061022b9190614e02565b610724565b60405161023d91906153f3565b60405180910390f35b610260600480360381019061025b9190614ea3565b610812565b005b61027c60048036038101906102779190614e02565b6109d2565b005b610286610d7e565b005b6102a2600480360381019061029d9190614e02565b610d98565b6040516102af91906153bd565b60405180910390f35b6102c0610e0b565b005b6102dc60048036038101906102d79190614e02565b610e25565b6040516102e991906153f3565b60405180910390f35b61030c60048036038101906103079190614e2b565b610f13565b005b61032860048036038101906103239190614ea3565b610f8b565b005b610344600480360381019061033f9190614e02565b61114b565b6040516103519190615380565b60405180910390f35b610374600480360381019061036f9190614cc7565b6111d1565b604051610381919061539b565b60405180910390f35b6103a4600480360381019061039f9190614ef7565b6115e9565b005b6103c060048036038101906103bb9190614e02565b6117de565b6040516103cd91906153d8565b60405180910390f35b6103f060048036038101906103eb9190614e02565b611851565b6040516103fd91906154f7565b60405180910390f35b610420600480360381019061041b9190614e02565b6118b7565b60405161042d91906153f3565b60405180910390f35b610450600480360381019061044b9190614e67565b6119a5565b005b61046c60048036038101906104679190614cc7565b611b9e565b604051610479919061539b565b60405180910390f35b61049c60048036038101906104979190614ef7565b6121de565b005b6104b860048036038101906104b39190614ea3565b6123d3565b005b6104d460048036038101906104cf9190614cc7565b612593565b6040516104e191906154f7565b60405180910390f35b61050460048036038101906104ff9190614e02565b6126b5565b60405161051191906153bd565b60405180910390f35b610534600480360381019061052f9190614ef7565b612728565b005b61053e61291d565b60405161054b919061539b565b60405180910390f35b61055c612de4565b604051610569919061539b565b60405180910390f35b61058c60048036038101906105879190614e02565b613269565b60405161059991906154f7565b60405180910390f35b6105bc60048036038101906105b79190614e02565b6132cf565b6040516105c991906153f3565b60405180910390f35b6105da6133bd565b6040516105e7919061539b565b60405180910390f35b6105f8613891565b60405161060591906154f7565b60405180910390f35b61062860048036038101906106239190614cc7565b61389b565b604051610635919061539b565b60405180910390f35b61065860048036038101906106539190614cf0565b613e94565b60405161066591906154f7565b60405180910390f35b61068860048036038101906106839190614e2b565b6143e8565b005b6106a4600480360381019061069f9190614ea3565b614460565b005b6106ae614620565b6040516106bb91906154f7565b60405180910390f35b6106de60048036038101906106d99190614e02565b614629565b6040516106eb91906154f7565b60405180910390f35b61070e60048036038101906107099190614e02565b61468f565b60405161071b91906154d5565b60405180910390f35b606081600054811061076b576040517f08c379a000000000000000000000000000000000000000000000000000000000815260040161076290615415565b60405180910390fd5b60026000848152602001908152602001600020600101805461078c90615833565b80601f01602080910402602001604051908101604052809291908181526020018280546107b890615833565b80156108055780601f106107da57610100808354040283529160200191610805565b820191906000526020600020905b8154815290600101906020018083116107e857829003601f168201915b5050505050915050919050565b813373ffffffffffffffffffffffffffffffffffffffff166002600083815260200190815260200160002060080160009054906101000a900473ffffffffffffffffffffffffffffffffffffffff1673ffffffffffffffffffffffffffffffffffffffff16146108b7576040517f08c379a00000000000000000000000000000000000000000000000000000000081526004016108ae906154b5565b60405180910390fd5b8260005481106108fc576040517f08c379a00000000000000000000000000000000000000000000000000000000081526004016108f390615415565b60405180910390fd5b83600115156002600083815260200190815260200160002060080160149054906101000a900460ff16151514610967576040517f08c379a000000000000000000000000000000000000000000000000000000000815260040161095e90615455565b60405180910390fd5b83600260008781526020019081526020016000206004019080519060200190610991929190614a7c565b507ff9e0cfc2139c5407b5c0da663755cc093ddf08c0cd22ef287cd889954422770985856040516109c392919061553b565b60405180910390a15050505050565b803373ffffffffffffffffffffffffffffffffffffffff166002600083815260200190815260200160002060080160009054906101000a900473ffffffffffffffffffffffffffffffffffffffff1673ffffffffffffffffffffffffffffffffffffffff1614610a77576040517f08c379a0000000000000000000000000000000000000000000000000000000008152600401610a6e906154b5565b60405180910390fd5b816000548110610abc576040517f08c379a0000000000000000000000000000000000000000000000000000000008152600401610ab390615415565b60405180910390fd5b82600115156002600083815260200190815260200160002060080160149054906101000a900460ff16151514610b27576040517f08c379a0000000000000000000000000000000000000000000000000000000008152600401610b1e90615455565b60405180910390fd5b6002600085815260200190815260200160002060008082016000610b4b9190614b02565b600182016000610b5b9190614b02565b600282016000610b6b9190614b02565b6003820160006101000a81549060ff0219169055600482016000610b8f9190614b02565b6005820160009055600682016000905560078201600090556008820160006101000a81549073ffffffffffffffffffffffffffffffffffffffff02191690556008820160146101000a81549060ff02191690556008820160156101000a81549060ff02191690555050600360003373ffffffffffffffffffffffffffffffffffffffff1673ffffffffffffffffffffffffffffffffffffffff168152602001908152602001600020805480610c6d577f4e487b7100000000000000000000000000000000000000000000000000000000600052603160045260246000fd5b600190038181906000526020600020906009020160008082016000610c929190614b02565b600182016000610ca29190614b02565b600282016000610cb29190614b02565b6003820160006101000a81549060ff0219169055600482016000610cd69190614b02565b6005820160009055600682016000905560078201600090556008820160006101000a81549073ffffffffffffffffffffffffffffffffffffffff02191690556008820160146101000a81549060ff02191690556008820160156101000a81549060ff0219169055505090557f4adbec0d66623051c877058902b8ce13a83d19905b8ec8479e56282799601a7684604051610d7091906154f7565b60405180910390a150505050565b60016000815480929190610d9190615809565b9190505550565b6000816000548110610ddf576040517f08c379a0000000000000000000000000000000000000000000000000000000008152600401610dd690615415565b60405180910390fd5b6002600084815260200190815260200160002060080160149054906101000a900460ff16915050919050565b60016000815480929190610e1e90615896565b9190505550565b6060816000548110610e6c576040517f08c379a0000000000000000000000000000000000000000000000000000000008152600401610e6390615415565b60405180910390fd5b600260008481526020019081526020016000206004018054610e8d90615833565b80601f0160208091040260200160405190810160405280929190818152602001828054610eb990615833565b8015610f065780601f10610edb57610100808354040283529160200191610f06565b820191906000526020600020905b815481529060010190602001808311610ee957829003601f168201915b5050505050915050919050565b816000548110610f58576040517f08c379a0000000000000000000000000000000000000000000000000000000008152600401610f4f90615415565b60405180910390fd5b816002600085815260200190815260200160002060080160156101000a81548160ff021916908315150217905550505050565b813373ffffffffffffffffffffffffffffffffffffffff166002600083815260200190815260200160002060080160009054906101000a900473ffffffffffffffffffffffffffffffffffffffff1673ffffffffffffffffffffffffffffffffffffffff1614611030576040517f08c379a0000000000000000000000000000000000000000000000000000000008152600401611027906154b5565b60405180910390fd5b826000548110611075576040517f08c379a000000000000000000000000000000000000000000000000000000000815260040161106c90615415565b60405180910390fd5b83600115156002600083815260200190815260200160002060080160149054906101000a900460ff161515146110e0576040517f08c379a00000000000000000000000000000000000000000000000000000000081526004016110d790615455565b60405180910390fd5b8360026000878152602001908152602001600020600001908051906020019061110a929190614a7c565b507f2f785e77b95a4a5b3cae7abe711f551fae6dd194d3e0afee52aa099035c17281858560405161113c92919061553b565b60405180910390a15050505050565b6000816000548110611192576040517f08c379a000000000000000000000000000000000000000000000000000000000815260040161118990615415565b60405180910390fd5b6002600084815260200190815260200160002060080160009054906101000a900473ffffffffffffffffffffffffffffffffffffffff16915050919050565b6060600360008373ffffffffffffffffffffffffffffffffffffffff1673ffffffffffffffffffffffffffffffffffffffff168152602001908152602001600020805480602002602001604051908101604052809291908181526020016000905b828210156115de57838290600052602060002090600902016040518061016001604052908160008201805461126690615833565b80601f016020809104026020016040519081016040528092919081815260200182805461129290615833565b80156112df5780601f106112b4576101008083540402835291602001916112df565b820191906000526020600020905b8154815290600101906020018083116112c257829003601f168201915b505050505081526020016001820180546112f890615833565b80601f016020809104026020016040519081016040528092919081815260200182805461132490615833565b80156113715780601f1061134657610100808354040283529160200191611371565b820191906000526020600020905b81548152906001019060200180831161135457829003601f168201915b5050505050815260200160028201805461138a90615833565b80601f01602080910402602001604051908101604052809291908181526020018280546113b690615833565b80156114035780601f106113d857610100808354040283529160200191611403565b820191906000526020600020905b8154815290600101906020018083116113e657829003601f168201915b505050505081526020016003820160009054906101000a900460ff166003811115611457577f4e487b7100000000000000000000000000000000000000000000000000000000600052602160045260246000fd5b600381111561148f577f4e487b7100000000000000000000000000000000000000000000000000000000600052602160045260246000fd5b81526020016004820180546114a390615833565b80601f01602080910402602001604051908101604052809291908181526020018280546114cf90615833565b801561151c5780601f106114f15761010080835404028352916020019161151c565b820191906000526020600020905b8154815290600101906020018083116114ff57829003601f168201915b505050505081526020016005820154815260200160068201548152602001600782015481526020016008820160009054906101000a900473ffffffffffffffffffffffffffffffffffffffff1673ffffffffffffffffffffffffffffffffffffffff1673ffffffffffffffffffffffffffffffffffffffff1681526020016008820160149054906101000a900460ff161515151581526020016008820160159054906101000a900460ff16151515158152505081526020019060010190611232565b505050509050919050565b813373ffffffffffffffffffffffffffffffffffffffff166002600083815260200190815260200160002060080160009054906101000a900473ffffffffffffffffffffffffffffffffffffffff1673ffffffffffffffffffffffffffffffffffffffff161461168e576040517f08c379a0000000000000000000000000000000000000000000000000000000008152600401611685906154b5565b60405180910390fd5b8260005481106116d3576040517f08c379a00000000000000000000000000000000000000000000000000000000081526004016116ca90615415565b60405180910390fd5b8260008111611717576040517f08c379a000000000000000000000000000000000000000000000000000000000815260040161170e90615495565b60405180910390fd5b84600115156002600083815260200190815260200160002060080160149054906101000a900460ff16151514611782576040517f08c379a000000000000000000000000000000000000000000000000000000000815260040161177990615455565b60405180910390fd5b8460026000888152602001908152602001600020600501819055507fd18a5a33f02c71e4837afac7f0824400276d50280aee3ee7d8802309c305c35386866040516117ce929190615641565b60405180910390a1505050505050565b6000816000548110611825576040517f08c379a000000000000000000000000000000000000000000000000000000000815260040161181c90615415565b60405180910390fd5b6002600084815260200190815260200160002060030160009054906101000a900460ff16915050919050565b6000816000548110611898576040517f08c379a000000000000000000000000000000000000000000000000000000000815260040161188f90615415565b60405180910390fd5b6002600084815260200190815260200160002060050154915050919050565b60608160005481106118fe576040517f08c379a00000000000000000000000000000000000000000000000000000000081526004016118f590615415565b60405180910390fd5b60026000848152602001908152602001600020600001805461191f90615833565b80601f016020809104026020016040519081016040528092919081815260200182805461194b90615833565b80156119985780601f1061196d57610100808354040283529160200191611998565b820191906000526020600020905b81548152906001019060200180831161197b57829003601f168201915b5050505050915050919050565b813373ffffffffffffffffffffffffffffffffffffffff166002600083815260200190815260200160002060080160009054906101000a900473ffffffffffffffffffffffffffffffffffffffff1673ffffffffffffffffffffffffffffffffffffffff1614611a4a576040517f08c379a0000000000000000000000000000000000000000000000000000000008152600401611a41906154b5565b60405180910390fd5b826000548110611a8f576040517f08c379a0000000000000000000000000000000000000000000000000000000008152600401611a8690615415565b60405180910390fd5b83600115156002600083815260200190815260200160002060080160149054906101000a900460ff16151514611afa576040517f08c379a0000000000000000000000000000000000000000000000000000000008152600401611af190615455565b60405180910390fd5b836002600087815260200190815260200160002060030160006101000a81548160ff02191690836003811115611b59577f4e487b7100000000000000000000000000000000000000000000000000000000600052602160045260246000fd5b02179055507f3208ad7d5d89490dfec0ba2e46d58fec5086ddbb91bdc76518a9ccc251c6b37d8585604051611b8f929190615512565b60405180910390a15050505050565b60606000611bab83612593565b600360008573ffffffffffffffffffffffffffffffffffffffff1673ffffffffffffffffffffffffffffffffffffffff16815260200190815260200160002080549050611bf89190615726565b67ffffffffffffffff811115611c37577f4e487b7100000000000000000000000000000000000000000000000000000000600052604160045260246000fd5b604051908082528060200260200182016040528015611c7057816020015b611c5d614b42565b815260200190600190039081611c555790505b5090506000805b600360008673ffffffffffffffffffffffffffffffffffffffff1673ffffffffffffffffffffffffffffffffffffffff168152602001908152602001600020805490508110156121d35760001515600360008773ffffffffffffffffffffffffffffffffffffffff1673ffffffffffffffffffffffffffffffffffffffff1681526020019081526020016000208281548110611d3c577f4e487b7100000000000000000000000000000000000000000000000000000000600052603260045260246000fd5b906000526020600020906009020160080160159054906101000a900460ff16151514156121c057600360008673ffffffffffffffffffffffffffffffffffffffff1673ffffffffffffffffffffffffffffffffffffffff1681526020019081526020016000208181548110611dda577f4e487b7100000000000000000000000000000000000000000000000000000000600052603260045260246000fd5b906000526020600020906009020160405180610160016040529081600082018054611e0490615833565b80601f0160208091040260200160405190810160405280929190818152602001828054611e3090615833565b8015611e7d5780601f10611e5257610100808354040283529160200191611e7d565b820191906000526020600020905b815481529060010190602001808311611e6057829003601f168201915b50505050508152602001600182018054611e9690615833565b80601f0160208091040260200160405190810160405280929190818152602001828054611ec290615833565b8015611f0f5780601f10611ee457610100808354040283529160200191611f0f565b820191906000526020600020905b815481529060010190602001808311611ef257829003601f168201915b50505050508152602001600282018054611f2890615833565b80601f0160208091040260200160405190810160405280929190818152602001828054611f5490615833565b8015611fa15780601f10611f7657610100808354040283529160200191611fa1565b820191906000526020600020905b815481529060010190602001808311611f8457829003601f168201915b505050505081526020016003820160009054906101000a900460ff166003811115611ff5577f4e487b7100000000000000000000000000000000000000000000000000000000600052602160045260246000fd5b600381111561202d577f4e487b7100000000000000000000000000000000000000000000000000000000600052602160045260246000fd5b815260200160048201805461204190615833565b80601f016020809104026020016040519081016040528092919081815260200182805461206d90615833565b80156120ba5780601f1061208f576101008083540402835291602001916120ba565b820191906000526020600020905b81548152906001019060200180831161209d57829003601f168201915b505050505081526020016005820154815260200160068201548152602001600782015481526020016008820160009054906101000a900473ffffffffffffffffffffffffffffffffffffffff1673ffffffffffffffffffffffffffffffffffffffff1673ffffffffffffffffffffffffffffffffffffffff1681526020016008820160149054906101000a900460ff161515151581526020016008820160159054906101000a900460ff1615151515815250508383815181106121a6577f4e487b7100000000000000000000000000000000000000000000000000000000600052603260045260246000fd5b602002602001018190525081806121bc90615896565b9250505b80806121cb90615896565b915050611c77565b508192505050919050565b813373ffffffffffffffffffffffffffffffffffffffff166002600083815260200190815260200160002060080160009054906101000a900473ffffffffffffffffffffffffffffffffffffffff1673ffffffffffffffffffffffffffffffffffffffff1614612283576040517f08c379a000000000000000000000000000000000000000000000000000000000815260040161227a906154b5565b60405180910390fd5b8260005481106122c8576040517f08c379a00000000000000000000000000000000000000000000000000000000081526004016122bf90615415565b60405180910390fd5b826000811161230c576040517f08c379a000000000000000000000000000000000000000000000000000000000815260040161230390615435565b60405180910390fd5b84600115156002600083815260200190815260200160002060080160149054906101000a900460ff16151514612377576040517f08c379a000000000000000000000000000000000000000000000000000000000815260040161236e90615455565b60405180910390fd5b8460026000888152602001908152602001600020600601819055507ff2fc46abca9db71cc72135e2de0769502341c219aca35c83b8afbd7a6e74582386866040516123c3929190615641565b60405180910390a1505050505050565b813373ffffffffffffffffffffffffffffffffffffffff166002600083815260200190815260200160002060080160009054906101000a900473ffffffffffffffffffffffffffffffffffffffff1673ffffffffffffffffffffffffffffffffffffffff1614612478576040517f08c379a000000000000000000000000000000000000000000000000000000000815260040161246f906154b5565b60405180910390fd5b8260005481106124bd576040517f08c379a00000000000000000000000000000000000000000000000000000000081526004016124b490615415565b60405180910390fd5b83600115156002600083815260200190815260200160002060080160149054906101000a900460ff16151514612528576040517f08c379a000000000000000000000000000000000000000000000000000000000815260040161251f90615455565b60405180910390fd5b83600260008781526020019081526020016000206002019080519060200190612552929190614a7c565b507fd2fc88a3528790fea162e71e7975873743096ba0c20dfddbe0ac6c306786ed7b858560405161258492919061553b565b60405180910390a15050505050565b6000806000905060005b600360008573ffffffffffffffffffffffffffffffffffffffff1673ffffffffffffffffffffffffffffffffffffffff168152602001908152602001600020805490508110156126ab5760011515600360008673ffffffffffffffffffffffffffffffffffffffff1673ffffffffffffffffffffffffffffffffffffffff1681526020019081526020016000208281548110612662577f4e487b7100000000000000000000000000000000000000000000000000000000600052603260045260246000fd5b906000526020600020906009020160080160159054906101000a900460ff161515141561269857818061269490615896565b9250505b80806126a390615896565b91505061259d565b5080915050919050565b60008160005481106126fc576040517f08c379a00000000000000000000000000000000000000000000000000000000081526004016126f390615415565b60405180910390fd5b6002600084815260200190815260200160002060080160159054906101000a900460ff16915050919050565b813373ffffffffffffffffffffffffffffffffffffffff166002600083815260200190815260200160002060080160009054906101000a900473ffffffffffffffffffffffffffffffffffffffff1673ffffffffffffffffffffffffffffffffffffffff16146127cd576040517f08c379a00000000000000000000000000000000000000000000000000000000081526004016127c4906154b5565b60405180910390fd5b826000548110612812576040517f08c379a000000000000000000000000000000000000000000000000000000000815260040161280990615415565b60405180910390fd5b8260008111612856576040517f08c379a000000000000000000000000000000000000000000000000000000000815260040161284d90615475565b60405180910390fd5b84600115156002600083815260200190815260200160002060080160149054906101000a900460ff161515146128c1576040517f08c379a00000000000000000000000000000000000000000000000000000000081526004016128b890615455565b60405180910390fd5b8460026000888152602001908152602001600020600701819055507f36745ecb9be3cc90b3dbaa3d40e04b5b8d12074c2eb18b665ec5976968968373868660405161290d929190615641565b60405180910390a1505050505050565b6060600060015467ffffffffffffffff811115612963577f4e487b7100000000000000000000000000000000000000000000000000000000600052604160045260246000fd5b60405190808252806020026020018201604052801561299c57816020015b612989614b42565b8152602001906001900390816129815790505b5090506000805b600054811015612ddb57600115156002600083815260200190815260200160002060080160159054906101000a900460ff1615151415612dc8576002600082815260200190815260200160002060405180610160016040529081600082018054612a0c90615833565b80601f0160208091040260200160405190810160405280929190818152602001828054612a3890615833565b8015612a855780601f10612a5a57610100808354040283529160200191612a85565b820191906000526020600020905b815481529060010190602001808311612a6857829003601f168201915b50505050508152602001600182018054612a9e90615833565b80601f0160208091040260200160405190810160405280929190818152602001828054612aca90615833565b8015612b175780601f10612aec57610100808354040283529160200191612b17565b820191906000526020600020905b815481529060010190602001808311612afa57829003601f168201915b50505050508152602001600282018054612b3090615833565b80601f0160208091040260200160405190810160405280929190818152602001828054612b5c90615833565b8015612ba95780601f10612b7e57610100808354040283529160200191612ba9565b820191906000526020600020905b815481529060010190602001808311612b8c57829003601f168201915b505050505081526020016003820160009054906101000a900460ff166003811115612bfd577f4e487b7100000000000000000000000000000000000000000000000000000000600052602160045260246000fd5b6003811115612c35577f4e487b7100000000000000000000000000000000000000000000000000000000600052602160045260246000fd5b8152602001600482018054612c4990615833565b80601f0160208091040260200160405190810160405280929190818152602001828054612c7590615833565b8015612cc25780601f10612c9757610100808354040283529160200191612cc2565b820191906000526020600020905b815481529060010190602001808311612ca557829003601f168201915b505050505081526020016005820154815260200160068201548152602001600782015481526020016008820160009054906101000a900473ffffffffffffffffffffffffffffffffffffffff1673ffffffffffffffffffffffffffffffffffffffff1673ffffffffffffffffffffffffffffffffffffffff1681526020016008820160149054906101000a900460ff161515151581526020016008820160159054906101000a900460ff161515151581525050838381518110612dae577f4e487b7100000000000000000000000000000000000000000000000000000000600052603260045260246000fd5b60200260200101819052508180612dc490615896565b9250505b8080612dd390615896565b9150506129a3565b50819250505090565b60606000805467ffffffffffffffff811115612e29577f4e487b7100000000000000000000000000000000000000000000000000000000600052604160045260246000fd5b604051908082528060200260200182016040528015612e6257816020015b612e4f614b42565b815260200190600190039081612e475790505b50905060005b600054811015613261576002600082815260200190815260200160002060405180610160016040529081600082018054612ea190615833565b80601f0160208091040260200160405190810160405280929190818152602001828054612ecd90615833565b8015612f1a5780601f10612eef57610100808354040283529160200191612f1a565b820191906000526020600020905b815481529060010190602001808311612efd57829003601f168201915b50505050508152602001600182018054612f3390615833565b80601f0160208091040260200160405190810160405280929190818152602001828054612f5f90615833565b8015612fac5780601f10612f8157610100808354040283529160200191612fac565b820191906000526020600020905b815481529060010190602001808311612f8f57829003601f168201915b50505050508152602001600282018054612fc590615833565b80601f0160208091040260200160405190810160405280929190818152602001828054612ff190615833565b801561303e5780601f106130135761010080835404028352916020019161303e565b820191906000526020600020905b81548152906001019060200180831161302157829003601f168201915b505050505081526020016003820160009054906101000a900460ff166003811115613092577f4e487b7100000000000000000000000000000000000000000000000000000000600052602160045260246000fd5b60038111156130ca577f4e487b7100000000000000000000000000000000000000000000000000000000600052602160045260246000fd5b81526020016004820180546130de90615833565b80601f016020809104026020016040519081016040528092919081815260200182805461310a90615833565b80156131575780601f1061312c57610100808354040283529160200191613157565b820191906000526020600020905b81548152906001019060200180831161313a57829003601f168201915b505050505081526020016005820154815260200160068201548152602001600782015481526020016008820160009054906101000a900473ffffffffffffffffffffffffffffffffffffffff1673ffffffffffffffffffffffffffffffffffffffff1673ffffffffffffffffffffffffffffffffffffffff1681526020016008820160149054906101000a900460ff161515151581526020016008820160159054906101000a900460ff161515151581525050828281518110613243577f4e487b7100000000000000000000000000000000000000000000000000000000600052603260045260246000fd5b6020026020010181905250808061325990615896565b915050612e68565b508091505090565b60008160005481106132b0576040517f08c379a00000000000000000000000000000000000000000000000000000000081526004016132a790615415565b60405180910390fd5b6002600084815260200190815260200160002060070154915050919050565b6060816000548110613316576040517f08c379a000000000000000000000000000000000000000000000000000000000815260040161330d90615415565b60405180910390fd5b60026000848152602001908152602001600020600201805461333790615833565b80601f016020809104026020016040519081016040528092919081815260200182805461336390615833565b80156133b05780601f10613385576101008083540402835291602001916133b0565b820191906000526020600020905b81548152906001019060200180831161339357829003601f168201915b5050505050915050919050565b606060006001546000546133d19190615726565b67ffffffffffffffff811115613410577f4e487b7100000000000000000000000000000000000000000000000000000000600052604160045260246000fd5b60405190808252806020026020018201604052801561344957816020015b613436614b42565b81526020019060019003908161342e5790505b5090506000805b60005481101561388857600015156002600083815260200190815260200160002060080160159054906101000a900460ff16151514156138755760026000828152602001908152602001600020604051806101600160405290816000820180546134b990615833565b80601f01602080910402602001604051908101604052809291908181526020018280546134e590615833565b80156135325780601f1061350757610100808354040283529160200191613532565b820191906000526020600020905b81548152906001019060200180831161351557829003601f168201915b5050505050815260200160018201805461354b90615833565b80601f016020809104026020016040519081016040528092919081815260200182805461357790615833565b80156135c45780601f10613599576101008083540402835291602001916135c4565b820191906000526020600020905b8154815290600101906020018083116135a757829003601f168201915b505050505081526020016002820180546135dd90615833565b80601f016020809104026020016040519081016040528092919081815260200182805461360990615833565b80156136565780601f1061362b57610100808354040283529160200191613656565b820191906000526020600020905b81548152906001019060200180831161363957829003601f168201915b505050505081526020016003820160009054906101000a900460ff1660038111156136aa577f4e487b7100000000000000000000000000000000000000000000000000000000600052602160045260246000fd5b60038111156136e2577f4e487b7100000000000000000000000000000000000000000000000000000000600052602160045260246000fd5b81526020016004820180546136f690615833565b80601f016020809104026020016040519081016040528092919081815260200182805461372290615833565b801561376f5780601f106137445761010080835404028352916020019161376f565b820191906000526020600020905b81548152906001019060200180831161375257829003601f168201915b505050505081526020016005820154815260200160068201548152602001600782015481526020016008820160009054906101000a900473ffffffffffffffffffffffffffffffffffffffff1673ffffffffffffffffffffffffffffffffffffffff1673ffffffffffffffffffffffffffffffffffffffff1681526020016008820160149054906101000a900460ff161515151581526020016008820160159054906101000a900460ff16151515158152505083838151811061385b577f4e487b7100000000000000000000000000000000000000000000000000000000600052603260045260246000fd5b6020026020010181905250818061387190615896565b9250505b808061388090615896565b915050613450565b50819250505090565b6000600154905090565b606060006138a883612593565b905060008167ffffffffffffffff8111156138ec577f4e487b7100000000000000000000000000000000000000000000000000000000600052604160045260246000fd5b60405190808252806020026020018201604052801561392557816020015b613912614b42565b81526020019060019003908161390a5790505b5090506000805b600360008773ffffffffffffffffffffffffffffffffffffffff1673ffffffffffffffffffffffffffffffffffffffff16815260200190815260200160002080549050811015613e885760011515600360008873ffffffffffffffffffffffffffffffffffffffff1673ffffffffffffffffffffffffffffffffffffffff16815260200190815260200160002082815481106139f1577f4e487b7100000000000000000000000000000000000000000000000000000000600052603260045260246000fd5b906000526020600020906009020160080160159054906101000a900460ff1615151415613e7557600360008773ffffffffffffffffffffffffffffffffffffffff1673ffffffffffffffffffffffffffffffffffffffff1681526020019081526020016000208181548110613a8f577f4e487b7100000000000000000000000000000000000000000000000000000000600052603260045260246000fd5b906000526020600020906009020160405180610160016040529081600082018054613ab990615833565b80601f0160208091040260200160405190810160405280929190818152602001828054613ae590615833565b8015613b325780601f10613b0757610100808354040283529160200191613b32565b820191906000526020600020905b815481529060010190602001808311613b1557829003601f168201915b50505050508152602001600182018054613b4b90615833565b80601f0160208091040260200160405190810160405280929190818152602001828054613b7790615833565b8015613bc45780601f10613b9957610100808354040283529160200191613bc4565b820191906000526020600020905b815481529060010190602001808311613ba757829003601f168201915b50505050508152602001600282018054613bdd90615833565b80601f0160208091040260200160405190810160405280929190818152602001828054613c0990615833565b8015613c565780601f10613c2b57610100808354040283529160200191613c56565b820191906000526020600020905b815481529060010190602001808311613c3957829003601f168201915b505050505081526020016003820160009054906101000a900460ff166003811115613caa577f4e487b7100000000000000000000000000000000000000000000000000000000600052602160045260246000fd5b6003811115613ce2577f4e487b7100000000000000000000000000000000000000000000000000000000600052602160045260246000fd5b8152602001600482018054613cf690615833565b80601f0160208091040260200160405190810160405280929190818152602001828054613d2290615833565b8015613d6f5780601f10613d4457610100808354040283529160200191613d6f565b820191906000526020600020905b815481529060010190602001808311613d5257829003601f168201915b505050505081526020016005820154815260200160068201548152602001600782015481526020016008820160009054906101000a900473ffffffffffffffffffffffffffffffffffffffff1673ffffffffffffffffffffffffffffffffffffffff1673ffffffffffffffffffffffffffffffffffffffff1681526020016008820160149054906101000a900460ff161515151581526020016008820160159054906101000a900460ff161515151581525050838381518110613e5b577f4e487b7100000000000000000000000000000000000000000000000000000000600052603260045260246000fd5b60200260200101819052508180613e7190615896565b9250505b8080613e8090615896565b91505061392c565b50819350505050919050565b60008360008111613eda576040517f08c379a0000000000000000000000000000000000000000000000000000000008152600401613ed190615495565b60405180910390fd5b8360008111613f1e576040517f08c379a0000000000000000000000000000000000000000000000000000000008152600401613f1590615435565b60405180910390fd5b8360008111613f62576040517f08c379a0000000000000000000000000000000000000000000000000000000008152600401613f5990615475565b60405180910390fd5b60006040518061016001604052808e81526020018d81526020018c81526020018b6003811115613fbb577f4e487b7100000000000000000000000000000000000000000000000000000000600052602160045260246000fd5b81526020018a81526020018981526020018881526020018781526020013373ffffffffffffffffffffffffffffffffffffffff168152602001600115158152602001600015158152509050600080600081548092919061401a90615896565b91905055905081600260008381526020019081526020016000206000820151816000019080519060200190614050929190614a7c565b50602082015181600101908051906020019061406d929190614a7c565b50604082015181600201908051906020019061408a929190614a7c565b5060608201518160030160006101000a81548160ff021916908360038111156140dc577f4e487b7100000000000000000000000000000000000000000000000000000000600052602160045260246000fd5b021790555060808201518160040190805190602001906140fd929190614a7c565b5060a0820151816005015560c0820151816006015560e082015181600701556101008201518160080160006101000a81548173ffffffffffffffffffffffffffffffffffffffff021916908373ffffffffffffffffffffffffffffffffffffffff1602179055506101208201518160080160146101000a81548160ff0219169083151502179055506101408201518160080160156101000a81548160ff021916908315150217905550905050600360003373ffffffffffffffffffffffffffffffffffffffff1673ffffffffffffffffffffffffffffffffffffffff168152602001908152602001600020829080600181540180825580915050600190039060005260206000209060090201600090919091909150600082015181600001908051906020019061422e929190614a7c565b50602082015181600101908051906020019061424b929190614a7c565b506040820151816002019080519060200190614268929190614a7c565b5060608201518160030160006101000a81548160ff021916908360038111156142ba577f4e487b7100000000000000000000000000000000000000000000000000000000600052602160045260246000fd5b021790555060808201518160040190805190602001906142db929190614a7c565b5060a0820151816005015560c0820151816006015560e082015181600701556101008201518160080160006101000a81548173ffffffffffffffffffffffffffffffffffffffff021916908373ffffffffffffffffffffffffffffffffffffffff1602179055506101208201518160080160146101000a81548160ff0219169083151502179055506101408201518160080160156101000a81548160ff02191690831515021790555050507ee199253816fd674be98c4e74e0e4a8ac9841506ba913732949ed5a21053d1a818f8f8f8f8f8f8f8f33600160006040516143cc9c9b9a9998979695949392919061556b565b60405180910390a1809550505050505098975050505050505050565b81600054811061442d576040517f08c379a000000000000000000000000000000000000000000000000000000000815260040161442490615415565b60405180910390fd5b816002600085815260200190815260200160002060080160146101000a81548160ff021916908315150217905550505050565b813373ffffffffffffffffffffffffffffffffffffffff166002600083815260200190815260200160002060080160009054906101000a900473ffffffffffffffffffffffffffffffffffffffff1673ffffffffffffffffffffffffffffffffffffffff1614614505576040517f08c379a00000000000000000000000000000000000000000000000000000000081526004016144fc906154b5565b60405180910390fd5b82600054811061454a576040517f08c379a000000000000000000000000000000000000000000000000000000000815260040161454190615415565b60405180910390fd5b83600115156002600083815260200190815260200160002060080160149054906101000a900460ff161515146145b5576040517f08c379a00000000000000000000000000000000000000000000000000000000081526004016145ac90615455565b60405180910390fd5b836002600087815260200190815260200160002060010190805190602001906145df929190614a7c565b507fc92be2d1aa69266735ff482064bb1aca2d648d2d9d65c293ccd1f534d274736d858560405161461192919061553b565b60405180910390a15050505050565b60008054905090565b6000816000548110614670576040517f08c379a000000000000000000000000000000000000000000000000000000000815260040161466790615415565b60405180910390fd5b6002600084815260200190815260200160002060060154915050919050565b614697614b42565b8160005481106146dc576040517f08c379a00000000000000000000000000000000000000000000000000000000081526004016146d390615415565b60405180910390fd5b600260008481526020019081526020016000206040518061016001604052908160008201805461470b90615833565b80601f016020809104026020016040519081016040528092919081815260200182805461473790615833565b80156147845780601f1061475957610100808354040283529160200191614784565b820191906000526020600020905b81548152906001019060200180831161476757829003601f168201915b5050505050815260200160018201805461479d90615833565b80601f01602080910402602001604051908101604052809291908181526020018280546147c990615833565b80156148165780601f106147eb57610100808354040283529160200191614816565b820191906000526020600020905b8154815290600101906020018083116147f957829003601f168201915b5050505050815260200160028201805461482f90615833565b80601f016020809104026020016040519081016040528092919081815260200182805461485b90615833565b80156148a85780601f1061487d576101008083540402835291602001916148a8565b820191906000526020600020905b81548152906001019060200180831161488b57829003601f168201915b505050505081526020016003820160009054906101000a900460ff1660038111156148fc577f4e487b7100000000000000000000000000000000000000000000000000000000600052602160045260246000fd5b6003811115614934577f4e487b7100000000000000000000000000000000000000000000000000000000600052602160045260246000fd5b815260200160048201805461494890615833565b80601f016020809104026020016040519081016040528092919081815260200182805461497490615833565b80156149c15780601f10614996576101008083540402835291602001916149c1565b820191906000526020600020905b8154815290600101906020018083116149a457829003601f168201915b505050505081526020016005820154815260200160068201548152602001600782015481526020016008820160009054906101000a900473ffffffffffffffffffffffffffffffffffffffff1673ffffffffffffffffffffffffffffffffffffffff1673ffffffffffffffffffffffffffffffffffffffff1681526020016008820160149054906101000a900460ff161515151581526020016008820160159054906101000a900460ff161515151581525050915050919050565b828054614a8890615833565b90600052602060002090601f016020900481019282614aaa5760008555614af1565b82601f10614ac357805160ff1916838001178555614af1565b82800160010185558215614af1579182015b82811115614af0578251825591602001919060010190614ad5565b5b509050614afe9190614bee565b5090565b508054614b0e90615833565b6000825580601f10614b205750614b3f565b601f016020900490600052602060002090810190614b3e9190614bee565b5b50565b60405180610160016040528060608152602001606081526020016060815260200160006003811115614b9d577f4e487b7100000000000000000000000000000000000000000000000000000000600052602160045260246000fd5b815260200160608152602001600081526020016000815260200160008152602001600073ffffffffffffffffffffffffffffffffffffffff1681526020016000151581526020016000151581525090565b5b80821115614c07576000816000905550600101614bef565b5090565b6000614c1e614c198461568f565b61566a565b905082815260208101848484011115614c3657600080fd5b614c418482856157c7565b509392505050565b600081359050614c5881615b74565b92915050565b600081359050614c6d81615b8b565b92915050565b600081359050614c8281615ba2565b92915050565b600082601f830112614c9957600080fd5b8135614ca9848260208601614c0b565b91505092915050565b600081359050614cc181615bb2565b92915050565b600060208284031215614cd957600080fd5b6000614ce784828501614c49565b91505092915050565b600080600080600080600080610100898b031215614d0d57600080fd5b600089013567ffffffffffffffff811115614d2757600080fd5b614d338b828c01614c88565b985050602089013567ffffffffffffffff811115614d5057600080fd5b614d5c8b828c01614c88565b975050604089013567ffffffffffffffff811115614d7957600080fd5b614d858b828c01614c88565b9650506060614d968b828c01614c73565b955050608089013567ffffffffffffffff811115614db357600080fd5b614dbf8b828c01614c88565b94505060a0614dd08b828c01614cb2565b93505060c0614de18b828c01614cb2565b92505060e0614df28b828c01614cb2565b9150509295985092959890939650565b600060208284031215614e1457600080fd5b6000614e2284828501614cb2565b91505092915050565b60008060408385031215614e3e57600080fd5b6000614e4c85828601614cb2565b9250506020614e5d85828601614c5e565b9150509250929050565b60008060408385031215614e7a57600080fd5b6000614e8885828601614cb2565b9250506020614e9985828601614c73565b9150509250929050565b60008060408385031215614eb657600080fd5b6000614ec485828601614cb2565b925050602083013567ffffffffffffffff811115614ee157600080fd5b614eed85828601614c88565b9150509250929050565b60008060408385031215614f0a57600080fd5b6000614f1885828601614cb2565b9250506020614f2985828601614cb2565b9150509250929050565b6000614f3f838361515a565b905092915050565b614f508161575a565b82525050565b614f5f8161575a565b82525050565b6000614f70826156d0565b614f7a81856156f3565b935083602082028501614f8c856156c0565b8060005b85811015614fc85784840389528151614fa98582614f33565b9450614fb4836156e6565b925060208a01995050600181019050614f90565b50829750879550505050505092915050565b614fe38161576c565b82525050565b614ff28161576c565b82525050565b615001816157b5565b82525050565b615010816157b5565b82525050565b6000615021826156db565b61502b8185615704565b935061503b8185602086016157d6565b6150448161599b565b840191505092915050565b600061505a826156db565b6150648185615715565b93506150748185602086016157d6565b61507d8161599b565b840191505092915050565b6000615095601a83615715565b91506150a0826159ac565b602082019050919050565b60006150b8602383615715565b91506150c3826159d5565b604082019050919050565b60006150db602183615715565b91506150e682615a24565b604082019050919050565b60006150fe602583615715565b915061510982615a73565b604082019050919050565b6000615121602883615715565b915061512c82615ac2565b604082019050919050565b6000615144602883615715565b915061514f82615b11565b604082019050919050565b60006101608301600083015184820360008601526151788282615016565b915050602083015184820360208601526151928282615016565b915050604083015184820360408601526151ac8282615016565b91505060608301516151c16060860182614ff8565b50608083015184820360808601526151d98282615016565b91505060a08301516151ee60a0860182615362565b5060c083015161520160c0860182615362565b5060e083015161521460e0860182615362565b50610100830151615229610100860182614f47565b5061012083015161523e610120860182614fda565b50610140830151615253610140860182614fda565b508091505092915050565b600061016083016000830151848203600086015261527c8282615016565b915050602083015184820360208601526152968282615016565b915050604083015184820360408601526152b08282615016565b91505060608301516152c56060860182614ff8565b50608083015184820360808601526152dd8282615016565b91505060a08301516152f260a0860182615362565b5060c083015161530560c0860182615362565b5060e083015161531860e0860182615362565b5061010083015161532d610100860182614f47565b50610120830151615342610120860182614fda565b50610140830151615357610140860182614fda565b508091505092915050565b61536b816157ab565b82525050565b61537a816157ab565b82525050565b60006020820190506153956000830184614f56565b92915050565b600060208201905081810360008301526153b58184614f65565b905092915050565b60006020820190506153d26000830184614fe9565b92915050565b60006020820190506153ed6000830184615007565b92915050565b6000602082019050818103600083015261540d818461504f565b905092915050565b6000602082019050818103600083015261542e81615088565b9050919050565b6000602082019050818103600083015261544e816150ab565b9050919050565b6000602082019050818103600083015261546e816150ce565b9050919050565b6000602082019050818103600083015261548e816150f1565b9050919050565b600060208201905081810360008301526154ae81615114565b9050919050565b600060208201905081810360008301526154ce81615137565b9050919050565b600060208201905081810360008301526154ef818461525e565b905092915050565b600060208201905061550c6000830184615371565b92915050565b60006040820190506155276000830185615371565b6155346020830184615007565b9392505050565b60006040820190506155506000830185615371565b8181036020830152615562818461504f565b90509392505050565b600061018082019050615581600083018f615371565b8181036020830152615593818e61504f565b905081810360408301526155a7818d61504f565b905081810360608301526155bb818c61504f565b90506155ca608083018b615007565b81810360a08301526155dc818a61504f565b90506155eb60c0830189615371565b6155f860e0830188615371565b615606610100830187615371565b615614610120830186614f56565b615622610140830185614fe9565b615630610160830184614fe9565b9d9c50505050505050505050505050565b60006040820190506156566000830185615371565b6156636020830184615371565b9392505050565b6000615674615685565b90506156808282615865565b919050565b6000604051905090565b600067ffffffffffffffff8211156156aa576156a961596c565b5b6156b38261599b565b9050602081019050919050565b6000819050602082019050919050565b600081519050919050565b600081519050919050565b6000602082019050919050565b600082825260208201905092915050565b600082825260208201905092915050565b600082825260208201905092915050565b6000615731826157ab565b915061573c836157ab565b92508282101561574f5761574e6158df565b5b828203905092915050565b60006157658261578b565b9050919050565b60008115159050919050565b600081905061578682615b60565b919050565b600073ffffffffffffffffffffffffffffffffffffffff82169050919050565b6000819050919050565b60006157c082615778565b9050919050565b82818337600083830152505050565b60005b838110156157f45780820151818401526020810190506157d9565b83811115615803576000848401525b50505050565b6000615814826157ab565b91506000821415615828576158276158df565b5b600182039050919050565b6000600282049050600182168061584b57607f821691505b6020821081141561585f5761585e61593d565b5b50919050565b61586e8261599b565b810181811067ffffffffffffffff8211171561588d5761588c61596c565b5b80604052505050565b60006158a1826157ab565b91507fffffffffffffffffffffffffffffffffffffffffffffffffffffffffffffffff8214156158d4576158d36158df565b5b600182019050919050565b7f4e487b7100000000000000000000000000000000000000000000000000000000600052601160045260246000fd5b7f4e487b7100000000000000000000000000000000000000000000000000000000600052602160045260246000fd5b7f4e487b7100000000000000000000000000000000000000000000000000000000600052602260045260246000fd5b7f4e487b7100000000000000000000000000000000000000000000000000000000600052604160045260246000fd5b6000601f19601f8301169050919050565b7f496e76616c69642072656e74616c2070726f7065727479206964000000000000600082015250565b7f52656e74616c205072696365206d75737420626520677265617465722074686160008201527f6e20300000000000000000000000000000000000000000000000000000000000602082015250565b7f52656e74616c2050726f70657274792063616e6e6f742062652075706461746560008201527f6400000000000000000000000000000000000000000000000000000000000000602082015250565b7f4c65617365204475726174696f6e206d7573742062652067726561746572207460008201527f68616e2030000000000000000000000000000000000000000000000000000000602082015250565b7f4e756d626572206f662074656e616e7473206d7573742062652067726561746560008201527f72207468616e2030000000000000000000000000000000000000000000000000602082015250565b7f4f6e6c7920746865206c616e646c6f72642063616e2063616c6c20746869732060008201527f66756e6374696f6e000000000000000000000000000000000000000000000000602082015250565b60048110615b7157615b7061590e565b5b50565b615b7d8161575a565b8114615b8857600080fd5b50565b615b948161576c565b8114615b9f57600080fd5b50565b60048110615baf57600080fd5b50565b615bbb816157ab565b8114615bc657600080fd5b5056fea26469706673582212208ba2ec7b569af9fb3058c0398fc5828a9f165a05a8cdf619233d6588f97ad29364736f6c63430008010033",
  "immutableReferences": {},
  "source": "// SPDX-License-Identifier: MIT\r\npragma solidity ^0.8.0;\r\n\r\ncontract RentalProperty {\r\n    // ################################################### STRUCTURE & STATE VARIABLES ################################################### //\r\n\r\n    enum PropertyType {\r\n        HDB,\r\n        Condo,\r\n        Landed,\r\n        Other\r\n    }\r\n\r\n    struct rentalProperty {\r\n        string location; // location of the property\r\n        string postalCode; // postal code of the property\r\n        string unitNumber; // unit number of the property\r\n        PropertyType propertyType; // type of property\r\n        string description; // description of the property\r\n        uint256 numOfTenants; // number of tenants in the property\r\n        uint256 rentalPrice; // rental price in LeaseToken\r\n        uint256 leaseDuration; // lease duration in months\r\n        address landlord; // address of the landlord owner\r\n        bool updateStatus; // status of the rental property (true if property can be updated/deleted, false if property cannot be updated/deleted)\r\n        bool isListed; // status of the rental property (true if property is listed, false if property is not listed)\r\n    }\r\n\r\n    uint256 private numRentalProperty = 0;\r\n    uint256 private numListedRentalProperty = 0;\r\n    mapping(uint256 => rentalProperty) private rentalProperties; // map of rental properties indexed by rentalPropertyId\r\n    mapping(address => rentalProperty[]) private landlordRentalProperties; // map of rental properties indexed by landlord address\r\n\r\n    // ################################################### EVENTS ################################################### //\r\n\r\n    event RentalPropertyCreated(\r\n        uint256 rentalPropertyId,\r\n        string location,\r\n        string postalCode,\r\n        string unitNumber,\r\n        PropertyType propertyType,\r\n        string description,\r\n        uint256 numOfTenants,\r\n        uint256 rentalPrice,\r\n        uint256 leaseDuration,\r\n        address landlord,\r\n        bool updateStatus,\r\n        bool isListed\r\n    );\r\n\r\n    event RentalPropertyUpdateLocation(\r\n        uint256 rentalPropertyId,\r\n        string newLocation\r\n    );\r\n\r\n    event RentalPropertyUpdatePostalCode(\r\n        uint256 rentalPropertyId,\r\n        string newPostalCode\r\n    );\r\n\r\n    event RentalPropertyUpdateUnitNumber(\r\n        uint256 rentalPropertyId,\r\n        string newUnitNumber\r\n    );\r\n\r\n    event RentalPropertyUpdatePropertyType(\r\n        uint256 rentalPropertyId,\r\n        PropertyType newPropertyType\r\n    );\r\n\r\n    event RentalPropertyUpdateDescription(\r\n        uint256 rentalPropertyId,\r\n        string newDescription\r\n    );\r\n\r\n    event RentalPropertyUpdateNumOfTenants(\r\n        uint256 rentalPropertyId,\r\n        uint256 newNumOfTenants\r\n    );\r\n\r\n    event RentalPropertyUpdateRentalPrice(\r\n        uint256 rentalPropertyId,\r\n        uint256 newRentalPrice\r\n    );\r\n\r\n    event RentalPropertyUpdateLeaseDuration(\r\n        uint256 rentalPropertyId,\r\n        uint256 newLeaseDuration\r\n    );\r\n\r\n    event RentalPropertyDeleted(uint256 rentalPropertyId);\r\n\r\n    // ################################################### MODIFIERS ################################################### //\r\n\r\n    //Modifier to ensure a function is callable only by its landlord owner\r\n    modifier landlordOnly(uint256 rentalPropertyId) {\r\n        require(\r\n            rentalProperties[rentalPropertyId].landlord == msg.sender,\r\n            \"Only the landlord can call this function\"\r\n        );\r\n        _;\r\n    }\r\n\r\n    //Modifier to ensure a function is accessible only if the rental property id is valid\r\n    modifier validRentalPropertyId(uint256 rentalPropertyId) {\r\n        require(\r\n            rentalPropertyId < numRentalProperty,\r\n            \"Invalid rental property id\"\r\n        );\r\n        _;\r\n    }\r\n\r\n    modifier validNumOfTenants(uint256 numOfTenants) {\r\n        require(numOfTenants > 0, \"Number of tenants must be greater than 0\");\r\n        _;\r\n    }\r\n\r\n    modifier validRentalPrice(uint256 rentalPrice) {\r\n        require(rentalPrice > 0, \"Rental Price must be greater than 0\");\r\n        _;\r\n    }\r\n\r\n    modifier validLeaseDuration(uint256 leaseDuration) {\r\n        require(leaseDuration > 0, \"Lease Duration must be greater than 0\");\r\n        _;\r\n    }\r\n\r\n    modifier validUpdateStatus(uint256 rentalPropertyId) {\r\n        require(\r\n            rentalProperties[rentalPropertyId].updateStatus == true,\r\n            \"Rental Property cannot be updated\"\r\n        );\r\n        _;\r\n    }\r\n\r\n    // ################################################### CREATE METHOD ################################################### //\r\n\r\n    // Function for landlord to create a new Rental Property, and add to 'rentalProperties' map. requires at least 0.01ETH to create\r\n    function addRentalProperty(\r\n        string memory _location,\r\n        string memory _postalCode,\r\n        string memory _unitNumber,\r\n        PropertyType _propertyType,\r\n        string memory _description,\r\n        uint256 _numOfTenants,\r\n        uint256 _rentalPrice,\r\n        uint256 _leaseDuration\r\n    )\r\n        public\r\n        validNumOfTenants(_numOfTenants)\r\n        validRentalPrice(_rentalPrice)\r\n        validLeaseDuration(_leaseDuration)\r\n        returns (uint256)\r\n    {\r\n        // New Rental Property object\r\n        rentalProperty memory newRentalProperty = rentalProperty(\r\n            _location,\r\n            _postalCode,\r\n            _unitNumber,\r\n            _propertyType,\r\n            _description,\r\n            _numOfTenants,\r\n            _rentalPrice,\r\n            _leaseDuration,\r\n            msg.sender, // landlord is the sender\r\n            true, // initially, rental property can be updated/deleted when there are no tenants applications\r\n            false // initially, rental property is not listed\r\n        );\r\n\r\n        uint256 newRentalPropertyId = numRentalProperty++; // increment rental property id\r\n        rentalProperties[newRentalPropertyId] = newRentalProperty; // add to rentalProperties map\r\n        landlordRentalProperties[msg.sender].push(newRentalProperty); // add to landlordRentalProperties map\r\n\r\n        emit RentalPropertyCreated(\r\n            newRentalPropertyId,\r\n            _location,\r\n            _postalCode,\r\n            _unitNumber,\r\n            _propertyType,\r\n            _description,\r\n            _numOfTenants,\r\n            _rentalPrice,\r\n            _leaseDuration,\r\n            msg.sender,\r\n            true,\r\n            false\r\n        );\r\n\r\n        return newRentalPropertyId; //return new rental property id\r\n    }\r\n\r\n    // ################################################### GETTER METHODS ################################################### //\r\n\r\n    //Function to get a rental property\r\n    function getRentalProperty(\r\n        uint256 rentalPropertyId\r\n    )\r\n        public\r\n        view\r\n        validRentalPropertyId(rentalPropertyId)\r\n        returns (rentalProperty memory)\r\n    {\r\n        return rentalProperties[rentalPropertyId];\r\n    }\r\n\r\n    //Function to get the location of a rental property\r\n    function getLocation(\r\n        uint256 rentalPropertyId\r\n    )\r\n        public\r\n        view\r\n        validRentalPropertyId(rentalPropertyId)\r\n        returns (string memory)\r\n    {\r\n        return rentalProperties[rentalPropertyId].location;\r\n    }\r\n\r\n    //Function to get the postal code of a rental property\r\n    function getPostalCode(\r\n        uint256 rentalPropertyId\r\n    )\r\n        public\r\n        view\r\n        validRentalPropertyId(rentalPropertyId)\r\n        returns (string memory)\r\n    {\r\n        return rentalProperties[rentalPropertyId].postalCode;\r\n    }\r\n\r\n    //Function to get the unit number of a rental property\r\n    function getUnitNumber(\r\n        uint256 rentalPropertyId\r\n    )\r\n        public\r\n        view\r\n        validRentalPropertyId(rentalPropertyId)\r\n        returns (string memory)\r\n    {\r\n        return rentalProperties[rentalPropertyId].unitNumber;\r\n    }\r\n\r\n    //Function to get the property type of a rental property\r\n    function getPropertyType(\r\n        uint256 rentalPropertyId\r\n    )\r\n        public\r\n        view\r\n        validRentalPropertyId(rentalPropertyId)\r\n        returns (PropertyType)\r\n    {\r\n        return rentalProperties[rentalPropertyId].propertyType;\r\n    }\r\n\r\n    //Function to get the description of a rental property\r\n    function getDescription(\r\n        uint256 rentalPropertyId\r\n    )\r\n        public\r\n        view\r\n        validRentalPropertyId(rentalPropertyId)\r\n        returns (string memory)\r\n    {\r\n        return rentalProperties[rentalPropertyId].description;\r\n    }\r\n\r\n    //Function to get the number of tenants in a rental property\r\n    function getNumOfTenants(\r\n        uint256 rentalPropertyId\r\n    ) public view validRentalPropertyId(rentalPropertyId) returns (uint256) {\r\n        return rentalProperties[rentalPropertyId].numOfTenants;\r\n    }\r\n\r\n    //Function to get the rental price of a rental property\r\n    function getRentalPrice(\r\n        uint256 rentalPropertyId\r\n    ) public view validRentalPropertyId(rentalPropertyId) returns (uint256) {\r\n        return rentalProperties[rentalPropertyId].rentalPrice;\r\n    }\r\n\r\n    //Function to get the lease duration of a rental property\r\n    function getLeaseDuration(\r\n        uint256 rentalPropertyId\r\n    ) public view validRentalPropertyId(rentalPropertyId) returns (uint256) {\r\n        return rentalProperties[rentalPropertyId].leaseDuration;\r\n    }\r\n\r\n    //Function to get the landlord of a rental property\r\n    function getLandlord(\r\n        uint256 rentalPropertyId\r\n    ) public view validRentalPropertyId(rentalPropertyId) returns (address) {\r\n        return rentalProperties[rentalPropertyId].landlord;\r\n    }\r\n\r\n    //Function to get the number of rental properties\r\n    function getNumRentalProperty() public view returns (uint256) {\r\n        return numRentalProperty;\r\n    }\r\n\r\n    //Function to get the update status of a rental property\r\n    function getUpdateStatus(\r\n        uint256 rentalPropertyId\r\n    ) public view validRentalPropertyId(rentalPropertyId) returns (bool) {\r\n        return rentalProperties[rentalPropertyId].updateStatus;\r\n    }\r\n\r\n    //Function to get the listed status of a rental property\r\n    function getListedStatus(\r\n        uint256 rentalPropertyId\r\n    ) public view validRentalPropertyId(rentalPropertyId) returns (bool) {\r\n        return rentalProperties[rentalPropertyId].isListed;\r\n    }\r\n\r\n    //Function to get all the rental properties (listed and unlisted)\r\n    function getAllRentalProperties()\r\n        public\r\n        view\r\n        returns (rentalProperty[] memory)\r\n    {\r\n        rentalProperty[] memory allRentalProperties = new rentalProperty[](\r\n            numRentalProperty\r\n        );\r\n        for (uint256 i = 0; i < numRentalProperty; i++) {\r\n            allRentalProperties[i] = rentalProperties[i];\r\n        }\r\n        return allRentalProperties;\r\n    }\r\n\r\n    //Function to get all the listed rental properties\r\n    function getAllListedRentalProperties()\r\n        public\r\n        view\r\n        returns (rentalProperty[] memory)\r\n    {\r\n        rentalProperty[] memory listedRentalProperties = new rentalProperty[](\r\n            numListedRentalProperty\r\n        );\r\n        uint256 index = 0;\r\n        for (uint256 i = 0; i < numRentalProperty; i++) {\r\n            if (rentalProperties[i].isListed == true) {\r\n                listedRentalProperties[index] = rentalProperties[i];\r\n                index++;\r\n            }\r\n        }\r\n        return listedRentalProperties;\r\n    }\r\n\r\n    //Function to get all the unlisted rental properties\r\n    function getAllUnlistedRentalProperties()\r\n        public\r\n        view\r\n        returns (rentalProperty[] memory)\r\n    {\r\n        rentalProperty[] memory unlistedRentalProperties = new rentalProperty[](\r\n            numRentalProperty - numListedRentalProperty\r\n        );\r\n        uint256 index = 0;\r\n        for (uint256 i = 0; i < numRentalProperty; i++) {\r\n            if (rentalProperties[i].isListed == false) {\r\n                unlistedRentalProperties[index] = rentalProperties[i];\r\n                index++;\r\n            }\r\n        }\r\n        return unlistedRentalProperties;\r\n    }\r\n\r\n    //Function to get all the rental properties of a landlord\r\n    function getLandlordRentalProperties(\r\n        address landlord\r\n    ) public view returns (rentalProperty[] memory) {\r\n        return landlordRentalProperties[landlord];\r\n    }\r\n\r\n    //Function to get all the listed rental properties of a landlord\r\n    function getLandlordListedRentalProperties(\r\n        address landlord\r\n    ) public view returns (rentalProperty[] memory) {\r\n        // get the number of listed rental properties of the landlord\r\n        uint256 numLandlordListedRentalProperty = getNumLandlordListedRentalProperty(\r\n                landlord\r\n            );\r\n        rentalProperty[] memory listedRentalProperties = new rentalProperty[](\r\n            numLandlordListedRentalProperty\r\n        );\r\n        uint256 index = 0;\r\n        for (\r\n            uint256 i = 0;\r\n            i < landlordRentalProperties[landlord].length;\r\n            i++\r\n        ) {\r\n            if (landlordRentalProperties[landlord][i].isListed == true) {\r\n                listedRentalProperties[index] = landlordRentalProperties[\r\n                    landlord\r\n                ][i];\r\n                index++;\r\n            }\r\n        }\r\n        return listedRentalProperties;\r\n    }\r\n\r\n    //Function to get all the unlisted rental properties of a landlord\r\n    function getLandlordUnlistedRentalProperties(\r\n        address landlord\r\n    ) public view returns (rentalProperty[] memory) {\r\n        rentalProperty[] memory unlistedRentalProperties = new rentalProperty[](\r\n            landlordRentalProperties[landlord].length -\r\n                getNumLandlordListedRentalProperty(landlord)\r\n        );\r\n        uint256 index = 0;\r\n        for (\r\n            uint256 i = 0;\r\n            i < landlordRentalProperties[landlord].length;\r\n            i++\r\n        ) {\r\n            if (landlordRentalProperties[landlord][i].isListed == false) {\r\n                unlistedRentalProperties[index] = landlordRentalProperties[\r\n                    landlord\r\n                ][i];\r\n                index++;\r\n            }\r\n        }\r\n        return unlistedRentalProperties;\r\n    }\r\n\r\n    //Function to get the number of listed rental properties\r\n    function getNumListedRentalProperty() public view returns (uint256) {\r\n        return numListedRentalProperty;\r\n    }\r\n\r\n    //Function to get the number of listed rental properties of a landlord\r\n    function getNumLandlordListedRentalProperty(\r\n        address landlord\r\n    ) public view returns (uint256) {\r\n        uint256 numLandlordListedRentalProperty = 0;\r\n        for (\r\n            uint256 i = 0;\r\n            i < landlordRentalProperties[landlord].length;\r\n            i++\r\n        ) {\r\n            if (landlordRentalProperties[landlord][i].isListed == true) {\r\n                numLandlordListedRentalProperty++;\r\n            }\r\n        }\r\n        return numLandlordListedRentalProperty;\r\n    }\r\n\r\n    // ################################################### SETTER METHODS ################################################### //\r\n\r\n    //Function to update the location of a rental property\r\n    function updateLocation(\r\n        uint256 rentalPropertyId,\r\n        string memory newLocation\r\n    )\r\n        public\r\n        landlordOnly(rentalPropertyId)\r\n        validRentalPropertyId(rentalPropertyId)\r\n        validUpdateStatus(rentalPropertyId)\r\n    {\r\n        rentalProperties[rentalPropertyId].location = newLocation;\r\n        emit RentalPropertyUpdateLocation(rentalPropertyId, newLocation);\r\n    }\r\n\r\n    //Function to update the postal code of a rental property\r\n    function updatePostalCode(\r\n        uint256 rentalPropertyId,\r\n        string memory newPostalCode\r\n    )\r\n        public\r\n        landlordOnly(rentalPropertyId)\r\n        validRentalPropertyId(rentalPropertyId)\r\n        validUpdateStatus(rentalPropertyId)\r\n    {\r\n        rentalProperties[rentalPropertyId].postalCode = newPostalCode;\r\n        emit RentalPropertyUpdatePostalCode(rentalPropertyId, newPostalCode);\r\n    }\r\n\r\n    //Function to update the unit number of a rental property\r\n    function updateUnitNumber(\r\n        uint256 rentalPropertyId,\r\n        string memory newUnitNumber\r\n    )\r\n        public\r\n        landlordOnly(rentalPropertyId)\r\n        validRentalPropertyId(rentalPropertyId)\r\n        validUpdateStatus(rentalPropertyId)\r\n    {\r\n        rentalProperties[rentalPropertyId].unitNumber = newUnitNumber;\r\n        emit RentalPropertyUpdateUnitNumber(rentalPropertyId, newUnitNumber);\r\n    }\r\n\r\n    //Function to update the property type of a rental property\r\n    function updatePropertyType(\r\n        uint256 rentalPropertyId,\r\n        PropertyType newPropertyType\r\n    )\r\n        public\r\n        landlordOnly(rentalPropertyId)\r\n        validRentalPropertyId(rentalPropertyId)\r\n        validUpdateStatus(rentalPropertyId)\r\n    {\r\n        rentalProperties[rentalPropertyId].propertyType = newPropertyType;\r\n        emit RentalPropertyUpdatePropertyType(\r\n            rentalPropertyId,\r\n            newPropertyType\r\n        );\r\n    }\r\n\r\n    //Function to update the description of a rental property\r\n    function updateDescription(\r\n        uint256 rentalPropertyId,\r\n        string memory newDescription\r\n    )\r\n        public\r\n        landlordOnly(rentalPropertyId)\r\n        validRentalPropertyId(rentalPropertyId)\r\n        validUpdateStatus(rentalPropertyId)\r\n    {\r\n        rentalProperties[rentalPropertyId].description = newDescription;\r\n        emit RentalPropertyUpdateDescription(rentalPropertyId, newDescription);\r\n    }\r\n\r\n    //Function to update the number of tenants in a rental property\r\n    function updateNumOfTenants(\r\n        uint256 rentalPropertyId,\r\n        uint256 newNumOfTenants\r\n    )\r\n        public\r\n        landlordOnly(rentalPropertyId)\r\n        validRentalPropertyId(rentalPropertyId)\r\n        validNumOfTenants(newNumOfTenants)\r\n        validUpdateStatus(rentalPropertyId)\r\n    {\r\n        rentalProperties[rentalPropertyId].numOfTenants = newNumOfTenants;\r\n        emit RentalPropertyUpdateNumOfTenants(\r\n            rentalPropertyId,\r\n            newNumOfTenants\r\n        );\r\n    }\r\n\r\n    //Function to update the rental price of a rental property\r\n    function updateRentalPrice(\r\n        uint256 rentalPropertyId,\r\n        uint256 newRentalPrice\r\n    )\r\n        public\r\n        landlordOnly(rentalPropertyId)\r\n        validRentalPropertyId(rentalPropertyId)\r\n        validRentalPrice(newRentalPrice)\r\n        validUpdateStatus(rentalPropertyId)\r\n    {\r\n        rentalProperties[rentalPropertyId].rentalPrice = newRentalPrice;\r\n        emit RentalPropertyUpdateRentalPrice(rentalPropertyId, newRentalPrice);\r\n    }\r\n\r\n    //Function to update the lease duration of a rental property\r\n    function updateLeaseDuration(\r\n        uint256 rentalPropertyId,\r\n        uint256 newLeaseDuration\r\n    )\r\n        public\r\n        landlordOnly(rentalPropertyId)\r\n        validRentalPropertyId(rentalPropertyId)\r\n        validLeaseDuration(newLeaseDuration)\r\n        validUpdateStatus(rentalPropertyId)\r\n    {\r\n        rentalProperties[rentalPropertyId].leaseDuration = newLeaseDuration;\r\n        emit RentalPropertyUpdateLeaseDuration(\r\n            rentalPropertyId,\r\n            newLeaseDuration\r\n        );\r\n    }\r\n\r\n    //Function to set the new update status of a rental property\r\n    //Not restricted to landlord as this function is used in RentalMarketplace to set the update status to false when there are tenants applications\r\n    function setUpdateStatus(\r\n        uint256 rentalPropertyId,\r\n        bool newUpdateStatus\r\n    ) public validRentalPropertyId(rentalPropertyId) {\r\n        rentalProperties[rentalPropertyId].updateStatus = newUpdateStatus;\r\n    }\r\n\r\n    //Function to set the new listed status of a rental property\r\n    //Not restricted to landlord as this function is used in RentalMarketplace to set the listed status to true when the rental property is listed\r\n    function setListedStatus(\r\n        uint256 rentalPropertyId,\r\n        bool newListedStatus\r\n    ) public validRentalPropertyId(rentalPropertyId) {\r\n        rentalProperties[rentalPropertyId].isListed = newListedStatus;\r\n    }\r\n\r\n    //Function to increment the number of listed rental properties\r\n    //Not restricted to landlord as this function is used in RentalMarketplace to increment the number of listed rental properties\r\n    function incrementListedRentalProperty() public {\r\n        numListedRentalProperty++;\r\n    }\r\n\r\n    //Function to decrement the number of listed rental properties\r\n    //Not restricted to landlord as this function is used in RentalMarketplace to decrement the number of listed rental properties\r\n    function decrementListedRentalProperty() public {\r\n        numListedRentalProperty--;\r\n    }\r\n\r\n    // ################################################### DELETE METHOD ################################################### //\r\n\r\n    //Function to delete a rental property\r\n    function deleteRentalProperty(\r\n        uint256 rentalPropertyId\r\n    )\r\n        public\r\n        landlordOnly(rentalPropertyId)\r\n        validRentalPropertyId(rentalPropertyId)\r\n        validUpdateStatus(rentalPropertyId)\r\n    {\r\n        // delete rental property from rentalProperties map\r\n        delete rentalProperties[rentalPropertyId];\r\n        // delete rental property from landlordRentalProperties map\r\n        landlordRentalProperties[msg.sender].pop();\r\n        emit RentalPropertyDeleted(rentalPropertyId);\r\n    }\r\n}\r\n",
  "sourcePath": "C:\\Users\\Bransome Tan Yi Hao\\OneDrive - National University of Singapore\\Desktop\\IS4302\\is4302-project\\contracts\\RentalProperty.sol",
  "compiler": {
    "name": "solc",
    "version": "0.8.1+commit.df193b15.Emscripten.clang"
  },
  "schemaVersion": "3.4.16",
  "updatedAt": "2024-04-09T11:45:59.973Z",
  "devdoc": {
    "kind": "dev",
    "methods": {},
    "version": 1
  },
  "userdoc": {
    "kind": "user",
    "methods": {},
    "version": 1
  }
}